:040000006F10C04479
:100004000000000000000000A0000020620F00209B
:10001400A9BDF9F3A00000200000000000000000CA
:10002400A0000020A000002000000000000000004C
:10003400A000002000000000A0000020000000003C
:10004400A0000020A0000020A0000020A0000020AC
:10005400A0000020A0000020A0000020000000005C
:10006400A0000020A0000020A0000020A00000208C
:10007400A0000020A0000020A0000020A00000207C
:10008400A0000020A0000020A0000020A00000206C
:10009400A00000200C020020A0000020A0000020EE
:1000A40001A0B7170040984B41111367070198CB83
:1000B40003C707011377E70F2388E70013078008B6
:1000C40073370780137787083AC60F1000001307A9
:1000D40070052380E704130780FA2380E7040F10D8
:1000E4000000B847B70600069506558FB8C703C782
:1000F400B7041377F70DA385E70403C7A7001367B5
:1001040027012385E700130750142394E7003727BA
:1001140000408346578093F6F60EA302D7808946A3
:10012400A303D78003C7E7041377C70F1367170028
:100134002387E70403C7F70213672700A387E702AF
:1001440003C70701136717002388E7002380070408
:10015400B247F3A707800F10000041018280EFF03F
:100164005FF413050021970500009385650A1716AF
:1001740000001306A62D63FAC5008322050023A000
:10018400550011059105E3EAC5FE172500E01305A6
:1001940065A7971500009385652B1386418063FA44
:1001A400C5008322050023A0550011059105E3EA4B
:1001B400C5FE171500001305A53497450000938567
:1001C40025BD6377B500232005001105E36DB5FE59
:1001D40093025002739002BC8D4273904280854218
:1001E400739012BC9302800873900230970200004F
:1001F400938242E193E2320073905230971200E00E
:0C0204009382025F73901234730020306C
:10021000011122CE26CC4ACA4EC852C656C45AC272
:1002200037940040834784000347940093F6F70F08
:10023000C18BE384071C834694001377F70F9377F1
:100240007700C18A639A067E8D466389D774118BC5
:1002500019EFD9C705476389E7687244E2445249F8
:10026000C249324AA24A124B056173002030154739
:10027000E395E7FE8347340BC18BB1CB03570409E9
:100280008347340BB73600203746002093C747001A
:10029000A309F40A8347340B9386C6541306C69405
:1002A00093F7C70FA309F40A814733470708B3C57B
:1002B000070863E7E576B7960040239AE60A83C706
:1002C000660B93F7C70F93E72700238BF60A379740
:1002D00000408347370B93F7F707A309F70AB5BF29
:1002E0008347F409A18B638F075CB74A002013870B
:1002F000CAD483470700835627002389F1808347A8
:100300001700A389F180835767000357470023969E
:10031000F1802398D1802397E18003CA21819386BD
:10032000CAD4137A0A06631E0A2A83C531812D4571
:1003300013F7F50F6367B52A89659385C5AA334717
:10034000B7201843028703D70181994621837D177F
:100350001377F70F63EEE61289669386C6AD3347CF
:10036000D720184302878967938787BD03C4070096
:1003700023AAF180A1A0B797004003C7A700B71632
:100380000020B7170020131747606353070C054779
:10039000238FE74E130700202390E65003C7E74F53
:1003A0008547631CF70A89679387C7B903C4370079
:1003B00003C7270023AAF1802204598C83D7C18068
:1003C0006374F4002396818003D7C1809307F00300
:1003D0001304000463E6E70003D4C1803344040837
:1003E00003AB418122861385CAD4DA85971000E0D9
:1003F000E7806010229B23AA61819307F00F6302BC
:10040000FA1E83C721819397476063DE074803D7AD
:10041000C1809307000463E6E70083D7C180B3C7B8
:10042000070803D7C1801D8F334707082396E18053
:1004300037970040231EF7089947230FF70837978F
:1004400000408347F70993F7F707A30FF70831B583
:10045000238F074E1307000481B78967938707B678
:10046000B1B783D70181094793F7F70F638AE70292
:10047000636DF70095E3B71700209387874F03C498
:10048000070023AAF180014A15BF0D47638EE700DC
:100490000144130AF00F1DB78967938707B5F9B5B3
:1004A0008967938747B4D9B589679387C7B27DBDFC
:1004B0008967938707B25DBDB717002083C6E74FF2
:1004C0000547639FE6028967938707B603C4370031
:1004D00003C7270089652204598C371500201306AD
:1004E000E4FF938525B613052548971000E0E780C3
:1004F0008000B71700209387074823AAF1807DBDAD
:1005000083C7E74F13FAF70FC1F789679387C7B916
:1005100003C4370003C7270089652204598C3715A7
:1005200000201306E4FF9385E5B91305E54B97100A
:1005300000E0E78040FCB71700209387C74B75BFEA
:1005400083D7018193F7F70F2385F1805DBD83C7C2
:10055000B1802380F60003D7C1808547E3F3E7EA43
:100560002396F18079BD83D7018193F7F70FA38597
:10057000F180B71700200547238EE74E59B503C712
:1005800021817D8B0DE383D70181054793F7F70F19
:100590006399E704371700208347D74F93F7E70F96
:1005A000A30EF74EB9BD03C7218189467D8B631A1F
:1005B000D70283D7018193F7F70F85E783D7E180CF
:1005C0009306100893F7F70F6387D70463E3F602E7
:1005D0008D466387D7049546638ED7048546638727
:1005E000D702B79700401547238FE708A38FE70886
:1005F000B9B513074008638AE70213076008E3925E
:10060000E7FEB7970040238B070AE5BBB79700408A
:10061000A381E70AFDB3B79700402381070AD5B34A
:10062000B7970040A385E70AE9BBB7970040238747
:10063000070AC1BBB7970040A389E70AD9B303C72C
:1006400021817D8B51EB03D7018185461377F70F0D
:10065000631ED702B716002083C7E64F6398E700F2
:10066000896783C737BA93F7070291EB83C7E64FD1
:10067000ADFB896783C777B693F70702BDD33717FA
:1006800000208347D74F93E7170019BF83D7018115
:10069000094793F7F70FE396E7F403D7E180930751
:1006A00000106304F70203D7E18093070020630E74
:1006B000F70003D7E180930700306308F70003D702
:1006C000E18093070040E31EF7D283C7818193E75F
:1006D0000708238CF18035B303C7218189467D8BC0
:1006E000E311D7D283D7018193F7F70FE39B07D0AC
:1006F00083D7E1801307100893F7F70F638BE704A4
:100700006366F7020D476381E70615476384E708D0
:100710000547E398E7EC379700408347370A93F79C
:10072000C70F93E71700A301F70AE1B913074008C1
:100730006387E70413076008E395E7EA379700400B
:100740008347670B93F7C70F93E71700230BF70A4D
:100750004DB9379700408347270A93F7C70F93E7B0
:1007600017002301F70A71B9379700408347B70A8A
:1007700093F7C70F93E71700A305F70A59B1379707
:1007800000408347E70A93F7C70F93E71700230753
:10079000F70A85B9379700408347370B93F7C70FA0
:1007A00093E71700A309F70AA9B92380060065B3E8
:1007B00083C7218123960AD40947FD8B6391E70CF7
:1007C00003D7E180130610081377F70F6307C706F6
:1007D0006363E6020D466300C70815466307C70852
:1007E00085476303F70403D7C1808947E3FBE7DE4E
:1007F0002396F180FDB3130640086303C706130672
:1008000060086309C70613062008E31EC7FC379774
:1008100000400347670A0D8B05466314C700238019
:10082000E60003D7C1801DBBB797004083C7370AD6
:100830008D8B6394E7002380F600B797004083C751
:10084000270A05478D8B6394E7002380F60003D7C2
:10085000C180894721B3379700400347B70A65BF76
:10086000379700400347E70A7DB7379700400347B3
:10087000370B55B7379700400347670B69BF83C7EE
:100880002181FD8B81CB83D7C180E37CF7B6239692
:10089000E18085BEB717002083C7D74F858BE5D78A
:1008A0002380E600CDB783D7C18089EBB79700409E
:1008B000239E07081947238FE70851B6B7970040D2
:1008C00019472DB3A30F04088357C40783C7218199
:1008D00093F7070689C72396018083C7318183D7A1
:1008E000C180E39E07B4D9B78347340AC18BC9C717
:1008F0008347340A93C74700A301F40AB73700209F
:10090000138787518346070003560408938787514E
:10091000B3A6E620334606082392C60083460700A6
:10092000850693F6F60F2300D7008346070041475C
:100930006394E6002380070083C607003717002072
:1009400013078751A606BA963797004054D383C63B
:100950002700850693F6F60F2381D70003C62700EC
:10096000AD4663F4C6028346370A93F6C60FA30169
:10097000D70A0547A381E700379700408347370A26
:1009800093F7F707A301F70AC9B88347370A93F724
:10099000C70F93E72700A301F70AF9BF8347B40AFB
:1009A000C18BB1CB035784088347B40AB736002004
:1009B0003746002093C74700A305F40A8347B40ACB
:1009C0009386C6741306C6B493F7C70FA305F40A3B
:1009D000814733470708B3C5070863E7E502B796C1
:1009E00000402396E60A83C7E60A93F7C70F93E70A
:1009F00027002387F60A379700408347B70A93F703
:100A0000F707A305F70A91B8B385C70083C50500AA
:100A10003385D700850793C5F5FF2300B50065BF73
:100A2000B385C70083C505003385D700850793C507
:100A3000F5FF2300B500A5B81147638AE716636484
:100A4000F704D9CB0547E39AE7808347240A93F755
:100A5000C70F2301F40A8347240A93C747002301E1
:100A6000F40AB73700209387C75303C717001377DB
:100A7000E70FA380E7008347240A93F7F7072301D2
:100A8000F40A6FF08FFD19476399E7FC8347640B05
:100A900093F7C70F230BF40A8347640B93C74700F0
:100AA000230BF40AB73700209387C75303C76700A7
:100AB0001377E70F2383E7008347340B93F7C70FC0
:100AC00093E72700A309F40A8347640B93F7F7071A
:100AD000230BF40A6FF06FF883D7C18081E7994741
:100AE000A30FF40883C7218193F70706BDEF83C7DF
:100AF0003181954613F7F70F638DD7089947631334
:100B0000F70A03D7C1809307F0031304000463E6D8
:100B1000E70003D4C1803344040803A94181374569
:100B200000202286CA851305C5D4971000E0E7800F
:100B3000809C83D7C180229923AA2181818FB3C74A
:100B400007082396F180B7970040239E870803C7C4
:100B5000E70913474700238FE70803C7E70913771F
:100B6000C70F13672700238FE70883C781819397F7
:100B7000476063D60700971000E0E7802099379719
:100B800000408347E70993F7F707230FF7086FF053
:100B9000CFEC83C7A1803797004093F7F70FA301ED
:100BA000F700E1B7B7970040239E07087DBF834752
:100BB000E40A93F7C70F2307F40A8347E40A93C7AD
:100BC00047002307F40AB73700209387C75303C7AA
:100BD00047001377E70F2382E7008347B40A93F7B0
:100BE000C70F93E72700A305F40A8347E40A93F7A6
:100BF000F7072307F40A6FF04FE68347840093F763
:100C0000070499C7930700042304F4006FF0EFE48E
:100C100093F7260085CF89472304F4000347A400F7
:100C2000B7170020118B19CB03C7D74F13672700C5
:100C3000A38EE74E83C7D74F6FF02FE203C7D74F7E
:100C40001377D70FA38EE74E6FF02FE193F71600BF
:100C50008DC7A385018023850180B7170020A38E4F
:100C6000074EB7170020238E074EA30104009710EC
:100C700000E0E780A096854741BF2304D4006FF0D1
:100C8000CFDD411122C683A7C18191C783A7C1814E
:100C9000829723AE01803244410173002030B717A0
:100CA0000040984B41111367070198CB03C7070118
:100CB0001377E70F2388E70013078008733707804F
:100CC000137787083AC60F100000130770052380BA
:100CD000E704130780FA2380E7040F1000001307CE
:100CE000000C6319E50203D787001367070C2394F0
:100CF000E700B717004003C70701136717002388F1
:100D0000E70023800704B247F3A707800F10000015
:100D10004101828003C7A70093760520C9C2118BC9
:100D200039E703C7E70403C6E7041377F70F136631
:100D300036002387C70403C6A70013664600238531
:100D4000C70003D6870083D587003346060893E59E
:100D5000050C2394B700A5470100FD1793F7F70F83
:100D6000E5FFB71700402394C7002387E704937774
:100D70000510DDCB371700408347A70093E7070135
:100D80002305F7009377F50185E3B727004003C7F4
:100D9000578013670701A382E7801D4715A01367DB
:100DA00027002385E700E1B72547636BF704B727E2
:100DB000004003C757801377F70EA382E7800547EB
:100DC000A383E78033450508B71700401367050C78
:100DD0002394E7002394A700C9C203C7570483C61E
:100DE0005704418B858A558F09F703C72701418B2B
:100DF00009D303C7A7001377D70F2385E700D5BD15
:100E00009377050199EBB727004003C75780137705
:100E1000F70EA382E780094765B7B727004003C7ED
:100E200057801377F70E85BF9377850181EFB7273A
:100E3000004003C757801377F70EA382E78013079C
:100E40001005BDBFB727004003C757801377F70EC3
:100E5000A382E78013077005A5B703C7A700137720
:100E6000B70F61BF37E700E01C4354437D56A183B1
:100E7000E206D58F9306071890C2D0C2B7060020AD
:100E800037160020938506001306E6C703A88503DE
:100E900090DD23AEA1809165130507100CC11307E7
:100EA00007200CC39386060003A7C18175FF37E7AF
:100EB00000E011662320C7180F10000023AC0603C2
:100EC000939687002320D710E1832322F710828096
:100ED000170300E0E702235F411181460146814587
:100EE0001145012493078008F3B7078093F787081B
:100EF0003EC60F100000B71700401307700523808F
:100F0000E704130780FA2380E7040F10000003C7EB
:100F10006704136717002383E70423800704B2479D
:100F2000F3A707800F1000004101170300E06700DE
:100F3000C35B37E700E01C435443A183E206D58F2F
:100F40001CC1FD572320F7182322F7180F100000AB
:100F5000828013178500B7E700E023A0E7106181C6
:100F600023A2A71082804111814601468145114587
:100F70008D2A13078008F337078093F787083EC44C
:100F80000F100000B7170040130670052380C70438
:100F9000930680FA2380D7040F100000FD55239696
:100FA000B70223800704A245F3A505800F100000B7
:100FB00073370780137787083AC60F100000238025
:100FC000C7042380D7040F10000003C7670413670A
:100FD00017002383E70423800704B247F3A70780A1
:100FE0000F10000001A09307E0043305F5029547B8
:100FF0003355F50201007D1575FD8280170300E071
:10100000E702634C2A841305803E7D14E93F334494
:10101000040875F8170300E06700234D2E96AA8791
:101020000F70B67882802303048015472303E48081
:1010300001002302A480828083076480E3CE07FE40
:1010400023030480828083076480E3CE07FE034588
:101050004480828083076480E3CE07FE2302A4805D
:101060008280411126C44AC24EC006C61377F50BD2
:10107000AD47AA892E8995446306F700194565375F
:10108000653F8D444E854537FD59FD146398340105
:10109000B240A2441249824941018280135509019C
:1010A0001375F50F453F2209CDB7011126CC06CEA9
:1010B000B704080051371545BD37713769372AC65F
:1010C000A53F32459377150089EB1365150013751D
:1010D000F50FF240E24405618280FD14E9FC014510
:1010E000CDBF397126DC4ADA4ED852D656D45AD200
:1010F0005ED006DE62CE66CCB7E700E07D5783AAFD
:10110000070022C603AA470023A0E71823A2E71876
:10111000B7170040130770052380E704130780FA10
:101120002380E70483C74704930B75FFB684E20767
:1011300093FBFB0F8546AA892E8B3289372400400A
:10114000E187015763FA76016308D50089461307E2
:1011500000026313D5000157D98F93F7F70FB71C1F
:1011600000402382FC0411472303E4801305F00FA1
:101170005D3D094CD135636D7C11B7050700DA95EB
:1011800037870700795563F2E504B3879500636EEE
:10119000F702370B0800A94733EB65016399F9069D
:1011A00089E48144513D26850DA0DA850945553DE8
:1011B00005090345F9FFFD14050B693D81C49377CB
:1011C000FB0FFDF7DD3569FD7D55B71700401307AF
:1011D00070052380E704130780FA2380E70403C720
:1011E0004704418B2382E704F250B7E700E023A0D5
:1011F000571123A24711E25432445259C259325A6C
:10120000A25A125B825B724CE24C21618280A5473C
:101210006395F90685691309F00FB3069900B37455
:101220002B01B6941349F9FFB3749900856B337998
:101230006901416B9387F9FFB3F7270199E363FCD9
:10124000340193D94900C147E3E637FF99BF0569E7
:10125000C1697D19D9B71305800D6388690113052C
:1012600000026384790113051008CA85DD3B353D12
:1012700021DD4E99B3843441D9B7DA852D45D53374
:10128000CA94E30099F205097D3BA30FA9FED5BFDF
:101290009387F9FF93F7F70F6361FC0C83C71C0476
:1012A00013073008631FF70437070800636BEB046C
:1012B000B3079B00B706100063F5D704334BEB0070
:1012C00089476393F9068980D549E38C04ECDA8574
:1012D0000945413B11090327C9FF91472320E480B9
:1012E00003076480E34E07FE23033481FD17EDFB03
:1012F000FD14110B81C49377FB0FE9FF7D3371F56A
:10130000E1B5B717004003C75704B70708001377C4
:10131000070219E3B78707007955E378FBEA33073B
:101320009B00E3FFE7F855B58547E382F9F2DA85DC
:101330002D45053B9389F4FFE38504E6293393F7B4
:10134000390091EB832604800327090093074900A5
:10135000E39AE6E43E89CE84F1BFB5476396F9008F
:101360001305900BC93135BDB1471305B00AE38BA6
:10137000F9FE99476391F904B7050800B365BB000E
:101380002D45C53181448D4BA14975396396740152
:10139000832704802320F9008504E39834FF832702
:1013A000048013172B01635507002312F900D5BBE6
:1013B0002322F900FDB39D476399F9028145130586
:1013C000B0044531BD442320090023220900FD5902
:1013D0009D3993F77400CA9703C70700FD14398D30
:1013E0002380A700E39634FF6DBBA1476392F90405
:1013F0006D398144630D0B008D479304C00363086E
:10140000FB009304000563048B01930440041375EF
:10141000C507E30895D819453931393905452131D2
:1014200026850D3909453D314931E31C05D669BB97
:1014300091476399F90013056006F536F53E1305EB
:0C14400090090DB7E38F09D4F154A9BB4B
:10144C00971100209381C18A17F101201301C1BAB1
:10145C001305400097F5FF1F938505BA17F6FF1F7C
:10146C00130646DA63FAC5008322050023A0550053
:10147C0011059105E3EAC5FE17F5FF1F1305A5CD70
:10148C000285397101436EC619A0397141536AC87E
:10149C0066CA62CC5ECE19A0397101535AD056D2AD
:1014AC0052D44ED64AD826DA22DC06DE330161400D
:1014BC00828241114AC026C222C406C68282B24D23
:1014CC004101024D924C224CB24B4101024B924ACB
:1014DC00224AB2494101024992442244B24041019C
:1014EC0082802A8309CA83830500230073007D163A
:1014FC00050385056DFA828083C7818193F7F70711
:10150C00238CF18083D6E180130700106399E602E7
:10151C00B797004003C757001377070FA382E70064
:10152C0003C7570013671700A382E70037970040E3
:10153C008347570093E70708A302F700828083D6FE
:10154C00E18013070020639FE600B797004003C7B4
:10155C0057001377070FA382E70003C757001367E1
:10156C002700D9B783D6E18013070030639FE600CC
:10157C00B797004003C757001377070FA382E70004
:10158C0003C757001367870045B703D7E18093075C
:10159C000040E31DF7F8B797004003C757001377D7
:1015AC00070FA382E7003717002013078744F8C7FB
:1015BC00130750032396E70A09472387E70A03C753
:1015CC005700136747008DB7B797004013073005D6
:1015DC002398E7001307B0022399E70013070004D0
:1015EC00F8CF13070020B8D3F8D3B8D7F8D7B8DBA7
:1015FC00F8DB374700201307C7D498D337170020E0
:10160C0013078751B7460020D8D39386C6B4D4D7D6
:10161C00B74600209386C694D4DBB8C33737002076
:10162C001307C774F8C7373700201307C754F8CB14
:10163C00239E0708238F07080947A38FE708A38178
:10164C00E70AA385E70AA389E70A2390070A2381FF
:10165C00070A2396070A2387070A239A070A3737AC
:10166C000020238B070A1307C7538147C146330653
:10167C00F700230006008507E39BD7FE828031C567
:10168C00EFF23FE33794004091472300F4203717E3
:10169C0000408357A70193E70702231DF700A547D6
:1016AC002300F4009307F0052301F400313F854734
:1016BC00A300F400930780FB2300F400130700023F
:1016CC00B7E700E023A2E71039B5B797004003C78E
:1016DC000720B71600401377B70F2380E720984EEA
:1016EC001377F7FD98CE03C70700136727002380F5
:1016FC00E70003C707001377D70F2380E700B7E78E
:10170C0000E01307000223A2E7180F1000008280EC
:10171C00EFF29FD89307F5FF2A8493F7F70F39451B
:10172C00636CF508B797004003D50701B317802801
:10173C0005481375F50FE98F8544B9CFB7370020ED
:10174C001385C7532295834405001389C753858895
:10175C00A1E4B289A1E6B72700109387F740A297BE
:10176C008A078CC3B307890003C7070013671700E8
:10177C002380E700B7271010938777423E940A0422
:10178C00231034018347240093F7C70F2301F4007F
:10179C0093E727002301F40026850DBB639E060109
:1017AC00B72700109387F740A2978A078843B7079B
:1017BC0000203E953D337DB78544F9BFEFF27FCFD6
:1017CC00B7170040116723ACE70AC14505459D22B8
:1017DC0085452165CD208D451165F128B124E5B9EC
:1017EC00EFF29FCB1305503497F0FF1FE780604A50
:1017FC00F1370965130585AFB92C05454935B7E7B0
:10180C0000E01307000237340020B714002023A295
:10181C00E710371A0020130484519384845137E95C
:10182C0000E093090002C14A8347CA4FF5DF8347A2
:10183C002400A9CF83451400834714008146A605D4
:10184C00B3A7872003C6470083C75700A695054555
:10185C00A2075D8E753D1DE9232239190F1000007A
:10186C0083472400FD1793F7F70F2301F4008347F8
:10187C001400850793F7F70FA300F40083471400B7
:10188C0063945701A3000400232239110347240059
:10189C008D47E3EBE7F883473400D9D7A301040065
:1018AC00379700408347370A93F7C70F93E7270012
:1018BC00A301F70A95BF914763EAB7048967938739
:1018CC00C7BEB3C5F5209841B71700409387470BA7
:1018DC000287944337170040B3F6A64094C393068F
:1018EC00070B9C42B3F7A74019A894433717004045
:1018FC00B3F6A64094C39306070B9C42C98F9CC2B7
:10190C009307070A98433377A74098C38280944380
:10191C0037170040C98ED9B798433377A74098C37F
:10192C00B71700409387070A9843498FF9BF98432C
:10193C00498FF5B709C93717004083578701CD8FF9
:10194C00231CF7008280B717004003D78701B375BB
:10195C00B740239CB7008280B717004003D787009D
:10196C009306000C1377070C630FD70403D787007B
:10197C00137707101DC703D7870083D787007D8B8C
:10198C0009EB93F70720A1C73755E801130505802C
:10199C00828037C59812FD8B130505E03345F5029F
:1019AC00828003D7870083D7870013770720FD8BAE
:1019BC0011C73755E80113050580CDB73725F4005D
:1019CC0013050540E1BF2165130505D0828037253D
:1019DC00F40013050540828032858147373700407B
:1019EC00A14663C3A70082800346B700E30ED6FE70
:1019FC003386F5000346060085072304C700D5B7D8
:101A0C00EFF23FAB2A84893F2947B307E5028D8368
:101A1C00B3D787029507B3D7E70237370040B3C770
:101A2C0007082316F70045BCEFF2BFA87165130534
:101A3C000520F937B7370040130770F82381E7000A
:101A4C000D47A381E70013070004A380E7000547B7
:101A5C002387E70049B4011122CC26CA06CE83079E
:101A6C000500AA840144A307F100050499EFA947D6
:101A7C009305F10005460145A307F100B13FF24083
:101A8C0022856244D2440561828005469305F100AB
:101A9C0001459937B387840083870700E9B70000B5
:101AAC00AC0700207A050020DE0500203A06002055
:101ABC00DE0500203C05002042030020DE0500204E
:101ACC004A05002062050020A6070020FE03002026
:101ADC0062030020720300205E0400208C040020AE
:101AEC008C040020AC040020B4040020434833379D
:101AFC00324465766963652052756E6E696E672037
:101B0C004F6E20555342485320436F6E74726F6C66
:101B1C006C6572000A060002FFFFFF400100000026
:101B2C00160330003100320033003400350036002B
:101B3C0037003800390000000C0343004800350022
:101B4C00380035000E037700630068002E00630038
:101B5C006E00000009023C00010100803209040003
:101B6C000006FFFFFF00070501024000000705818A
:101B7C0002400000070503024000000705840240F4
:101B8C000000070505024000000705860240000022
:101B9C0009023C0001010080320904000006FFFF2D
:101BAC00FF00070501020002000705810200020088
:101BBC000705030200020007058402000200070566
:101BCC000502000200070586020002001201000255
:101BDC00FFFFFF40861A3755010001020301000088
:101BEC00DE180000F61800001A1900002419000075
:041BFC003A19000092
:101C0000000000000000000000AAAAAAAAAAAAAA2E
:101C1000AAEEEEEEEEEEEEEEEEFEFFFFFFFFFFFFB2
:101C2000FFFFFFFFFF7FBFDFEFF7FBFDFC7EBFDFA6
:101C3000EFF7FBFD7E000000090700000000000038
:101C40000000000000000000000000000000000094
:101C50000000000000000000000000000000000084
:101C60000000000000000000000000000000000074
:101C70000000000009070000000000000000000054
:101C80000000000000000000000000000000000054
:101C90000000000000000000000000000000000044
:101CA0000000000000000000000000000000000034
:041CB000040309041C
:00000001FF
