:040000006F30504AC3
:100004000000000000000000A00000200C080020F8
:10001400A9BDF9F3E0010020000000000000000089
:10002400E0010020A000002000000000000000000B
:10003400A000002000000000A0000020000000003C
:10004400A0000020A0000020A0000020A0000020AC
:10005400A00000208C080020A00000200000000068
:10006400A0000020A0000020A0000020A00000208C
:1000740038090020A0000020A0000020A0000020DB
:10008400A0000020A0000020A0000020A00000206C
:10009400A0000020A0000020A0000020A00000205C
:1000A40001A0B7170040984B41111367070198CB83
:1000B400982B1377E70F98AB1307800873370780E3
:1000C400137787083AC601000100130770052380DF
:1000D400E704130780FA2380E70401000100B8470E
:1000E400894613675700B8C703C7B7041377F70DDA
:1000F400A385E704B82713672701B8A7130750148B
:100104009AA737270040A303D78003C7E7041377D0
:10011400C70F136717002387E704982B136717008B
:1001240098AB23800704B247F3A7078001000100BE
:1001340041018280EFF0FFF61305401E9705000091
:100144009385450A174600001306C6B563FAC50031
:100154008322050023A0550011059105E3EAC5FE9D
:10016400175502E01305450497450000938585B3B0
:100174001386419063FAC5008322050023A055002D
:1001840011059105E3EAC5FE13858190976500008A
:100194009385C5066377B500232005001105E36D3B
:1001A400B5FE93025002739002BC8D42739042805C
:1001B4008542739012BC93028008739002309702B8
:1001C4000000938222E493E23200739052309752FB
:1001D40000E09382A2557390123473002030000023
:1001E4009305000273A045808245739015349240B4
:1001F4002242B2424243D2436244F24402559255EF
:100204002256B2564257D2576258F2580649964976
:10021400264AB64A464BD64B664CF64C065D965D6E
:10022400265EB65E465FD65F096173002030230305
:10023400048015472303E48001002302A480828004
:1002440083076480E3CE07FE230304808280830750
:100254006480E3CE07FE0345448082808307648084
:10026400E3CE07FE2302A4808280411126C44AC241
:100274004EC006C61377F50BAD47AA892E8995445F
:100284006306F70019456537653F8D444E8545374C
:10029400FD59FD1463983401B240A24412498249C5
:1002A40041018280135509011375F50F453F220959
:1002B400CDB7011126CC06CEB70408005137154539
:1002C400BD37713769372AC6A53F32459377150084
:1002D40089EB136515001375F50FF240E2440561CF
:1002E4008280FD14E9FC0145CDBF397126DC4ADA70
:1002F4004ED852D656D45AD25ED006DE62CE66CCE2
:10030400B7E700E07D5783AA070022C603AA470087
:1003140023A0E71823A2E718B717004013077005B6
:100324002380E704130780FA2380E70483C7470484
:10033400930B75FFB684E20793FBFB0F8546AA89EE
:100344002E8B328937240040E187015763FA760106
:100354006308D5008946130700026313D5000157CB
:10036400D98F93F7F70FB71C00402382FC04114781
:100374002303E4801305F00F5D3D094CD135636D13
:100384007C11B7050700DA9537870700795563F2C2
:10039400E504B3879500636EF702370B0800A9479D
:1003A40033EB65016399F90689E48144513D26855F
:1003B4000DA0DA850945553D05090345F9FFFD14EE
:1003C400050B693D81C49377FB0FFDF7DD3569FDAE
:1003D4007D55B7170040130770052380E704130702
:1003E40080FA2380E70403C74704418B2382E70490
:1003F400F250B7E700E023A0571123A24711E254BB
:1004040032445259C259325AA25A125B825B724C1C
:10041400E24C21618280A5476395F9068569130939
:10042400F00FB3069900B3742B01B6941349F9FF86
:10043400B3749900856B33796901416B9387F9FF34
:10044400B3F7270199E363FC340193D94900C14709
:10045400E3E637FF99BF0569C1697D19D9B713056B
:10046400800D638869011305000263847901130513
:100474001008CA85DD3B353D21DD4E99B3843441F6
:10048400D9B7DA852D45D533CA94E30099F2050925
:100494007D3BA30FA9FED5BF9387F9FF93F7F70F11
:1004A4006361FC0C83C71C0413073008631FF70443
:1004B40037070800636BEB04B3079B00B706100013
:1004C40063F5D704334BEB0089476393F9068980BE
:1004D400D549E38C04ECDA850945413B110903272E
:1004E400C9FF91472320E48003076480E34E07FE9D
:1004F40023033481FD17EDFBFD14110B81C49377A5
:10050400FB0FE9FF7D3371F5E1B5B717004003C771
:100514005704B70708001377070219E3B7870700E2
:100524007955E378FBEA33079B00E3FFE7F855B519
:100534008547E382F9F2DA852D45053B9389F4FF7B
:10054400E38504E6293393F7390091EB832604808D
:100554000327090093074900E39AE6E43E89CE8421
:10056400F1BFB5476396F9001305900BC93135BD4A
:10057400B1471305B00AE38BF9FE99476391F90477
:10058400B7050800B365BB002D45C53181448D4BCB
:10059400A149753963967401832704802320F900E7
:1005A4008504E39834FF8327048013172B016355D4
:1005B40007002312F900D5BB2322F900FDB39D47A0
:1005C4006399F90281451305B0044531BD442320E4
:1005D400090023220900FD599D3993F77400CA9735
:1005E40003C70700FD14398D2380A700E39634FF69
:1005F4006DBBA1476392F9046D398144630D0B000F
:100604008D479304C0036308FB009304000563044F
:100614008B01930440041375C507E30895D8194565
:10062400393139390545213126850D3909453D31A1
:100634004931E31C05D669BB91476399F900130559
:100644006006F536F53E130590090DB7E38F09D41E
:10065400F154A9BB4111B7170040985F3AC6945FA3
:100664003247E39CE6FE324541018280B7170040E1
:10067400984B41111367070198CB982B1377E70F19
:1006840098AB1307800873370780137787083AC637
:1006940001000100130770052380E704130780FAA3
:1006A4002380E704010001001307000C6315E50231
:1006B4009A271367070C9AA7B7170040982B13675C
:1006C400170098AB23800704B247F3A70780010003
:1006D400010041018280B82793760520DDC2118B89
:1006E40029E303C7E70403C6E7041377F70F136688
:1006F40036002387C704B02713664600B0A79227A5
:100704008E273346060893E5050C8EA7A5470100FE
:10071400FD1793F7F70FE5FFB717004092A723875C
:10072400E70493770510D5C7371700403C2793E7B4
:1007340007013CA79377F501A9EBB727004003C74E
:10074400578013670701A382E7801D47A383E780CF
:1007540033450508B71700401367050C9AA78AA705
:10076400D5C203C7570483C65704418B858A558F66
:1007740021F7B82B418B29D3B8271377D70FB8A704
:1007840025BF13672700B8A769BF2547636CF70027
:10079400B727004003C757801377F70EA382E7807B
:1007A40005476DB79377050199EBB727004003C759
:1007B40057801377F70EA382E780094741BFB72715
:1007C400004003C7578013670701A382E7800D47E2
:1007D400B5BF9377850181EFB727004003C75780E2
:1007E4001377F70EA382E7801307100585B7B727A1
:1007F400004003C757801377F70EA382E7801307DF
:100804007005A9B7B8271377B70F95BF4111814673
:10081400014681451145D13C13078008F337078011
:1008240093F787083EC401000100B7170040130680
:1008340070052380C704930680FA2380D70401003F
:100844000100FD55CEB723800704A245F3A505801A
:100854000100010073370780137787083AC6010047
:1008640001002380C7042380D7040100010003C7CB
:100874006704136717002383E70423800704B24740
:10088400F3A707800100010001A00000197106C24E
:1008940012C416C61AC81ECA22CC26CE2AD02ED2FC
:1008A40032D436D63AD83EDA42DC46DECAC0CEC2AC
:1008B400D2C4D6C6DAC8DECAE2CCE6CEEAD0EED2DC
:1008C400F2D4F6D6FAD8FEDA938501938841E7008C
:1008D400050092402242B2424243D2436244F2446F
:1008E400025592552256B2564257D2576258F25880
:1008F40006499649264AB64A464BD64B664CF64CB0
:10090400065D965D265EB65E465FD65F096173003E
:1009140020304111B7170040985F3AC6945F3247C0
:10092400E39CE6FE324541018280B7E700E03707E9
:10093400001023A0E7208280B717004013070003AC
:100944002388E702854723ACF192730020304111DC
:1009540006C67523FDBF23AC05FE1C4199E30CC1FB
:1009640082803E8783A787FFEDFF232CB7FE82801A
:10097400411126C2B7E400E04AC003A90400B70746
:10098400200006C622C43379F90023A0F4180F10FE
:10099400000009E523A02411014535A09565938540
:1009A40005D0C98D2A842105B3C50508334505083A
:1009B400EF10701D65D1FD572320050042A17CA1D5
:1009C40023A024112105B24022449244024941014A
:1009D40082804111B7E700E04AC003A9070026C29C
:1009E4003707200006C622C4AA843379E90023A06D
:1009F400E7180F10000083A7C1940144014685E362
:100A040001C8A2851385C194975000E0E78060D7A0
:100A1400A1652685975000E0E78000280DA003C754
:100A2400E7FF6319970205CCA2851385C1949750FB
:100A340000E0E78000D5A1652685EF206004B24080
:100A440022852244B7E700E023A0271192440249FB
:100A54004101828011E03E8683A787FF4DB73E8423
:100A6400E5BF37E700E01C43B70620002320D71872
:100A7400F58F0F10000019C191C111E637E700E0AE
:100A84002320F71082802E960F70B650D5BF37E71B
:100A940000E01C43B70620002320D718F58F0F1061
:100AA400000019C1014785E137E700E02320F71072
:100AB4008280B386E50003A80600B306E5007D1630
:100AC40023A00601110775F6C5B737E700E01C43FC
:100AD400B70620002320D718F58F0F10000001C59A
:100AE4003307C50011E637E700E02320F7108280C2
:100AF4000505A30FB5FEE31DE5FEF5B7B7E600E077
:100B04009C42370620002A87F18F23A0C6180F10B5
:100B140000000145B306A7008386060091E637E787
:100B240000E02320F71082800505EDB70111B7E737
:100B340000E026CA84434AC83707200006CE22CCE8
:100B44002A892E86F98C23A0E7180F10000093053C
:100B5400F00432C633450608EF10F0022A8401C5BA
:100B64003246CA85FD3DF24022856244B7E700E083
:100B740023A097104249D2440561828037E700E000
:100B84001C43B70620002320D718F58F0F10000050
:100B940001C599C1014711EA37E700E02320F710A6
:100BA400054582800507E309E6FE3308E500B386C0
:100BB400E500034808009422E306D8FE37E700E086
:100BC4002320F7100145828037E700E01C43B70675
:100BD40020002320D718F58F0F1000001307F6FF0D
:100BE400BA952A966317C50037E700E02320F7106B
:100BF40082809821FD150505A30FE5FEE5B737E7CB
:100C040000E01C43B70620002320D718F58F0F10EF
:100C1400000001C53307C50019E637E700E02320CB
:100C2400F7100145828014210505E398B6FEE31C04
:100C3400E5FE37E700E02320F7100545828079714F
:100C440026D29384419622D4804006D64AD04ECEF2
:100C540052CC56CA5AC85EC662C445C837C9C9010F
:100C6400814B938AC1951309F937175B0000130B65
:100C74002BF597590000938929F2175A0000130A9B
:100C84002AF93E2099EF5C44639A0B009CC0032C24
:100C9400C4002285EF10807B6284A9A823A6FB00F0
:100CA400FDB783A70A0082971C443307F540637697
:100CB400F50003278A001D8F2A97636BE90697576F
:100CC400000023A307EE2E200820EF10705B5C4089
:100CD4005844A1CB0C44175600000326E6F3AE9704
:100CE400BE8663E4B70063E4C700B386C74014C498
:100CF400A28B3A8459F4175700001307E7E91C4BF9
:100D0400854663FBF604FD171CCBB2502254925463
:100D14000259F249624AD24A424BB24B224C4561D3
:100D2400828063940B0098C09DB723A6EB0085B71F
:100D340003274B0219CB63EDA7003385A74083A794
:100D440009016374F50023A8A900A28B40445DB790
:100D540003278A00BA97D5B79757000023A607E45C
:100D64006DB70111B7E700E04AC803A907003707C8
:100D7400200006CE22CC26CA4EC652C43379E900DE
:100D840023A0E7180F10000097540000938444E850
:100D94009C288844A9CF975700009387271903D725
:100DA400C70A31C703A4870A6303A4049759000040
:100DB400938989DE83A709016388A70E138AC195E5
:100DC40083270A008297636EA40C83270A00098C88
:100DD400829783A7090198443354F40AB307A40003
:100DE4003E8563E4870063E4E7003385E740B7E7C3
:100DF40000E023A027119C44639BA7021754000022
:100E0400130484D9184883A7C1956311A70A82974C
:100E14009444374736FE130707C83697B307A7002D
:100E24003E8563E4E70063E4D7003385D740175475
:100E340000001304A4325C5C89CB83A681A79C4682
:100E44003707CDFF7D17F98F9CC611E1884485478C
:100E54005CD09757000083A7E7D8829715E15C5CC4
:100E640099CF5C5089CF97B001E0E78000D597A077
:100E740001E0E780005C9757000023A30730C133EB
:100E84005C5C81CB03A781A71C47B7063300D58FD1
:100E94001CC7F2406244D2444249B249224A056125
:100EA40082809C443E9415B7228591B7829714485A
:100EB4009844B387A6003E8563E4D700E3E9E7F6E8
:100EC4003385E740ADB723A8A19401C58547238A9C
:100ED400F194828083A7019581CF411106C6829740
:100EE40083C7419599E323A80194B24041018280CC
:100EF40083C7419581E723A80194828082804111B0
:100F040022C426C206C64AC097540000938404250E
:100F140083C7340217540000130444CEB9C31754D2
:100F24000000130464C713898196032709001C2059
:100F340014300146B3A5E7208E21B5C911C21CA007
:100F44000820636DD50697570000238707C483A73D
:100F5400C195D5E7B24022449244024941018280BE
:100F640082971C40F5FF9757000083C767CB85E342
:100F7400DC48858B89CFD84C9947631EF700975777
:100F8400000023A7071EEF1040095C4482971C440D
:100F9400D9D7829769B7D84C9D47E31AF7FE97577C
:100FA400000023A7071CEF1040071C48C5B785079E
:100FB40093F7F70F0546E3EFD7F651B73327E5204C
:100FC4000E2323100700239B019483A70196B347A4
:100FD400F5209C4382971C208326090003D7619542
:100FE4003377E540B3A6D7209222518F9AA299C3B2
:100FF40085071CA018201C30E36EF7F4A9B7975797
:10100400000083A767C11CC81D3983C73402B9F324
:1010140083C7140299CBDC4C89EB97570000A38F4C
:10102400071497A001E0E780205D9757000083A78D
:1010340067BB8DD3D84C9147E3EEE7F09757000098
:1010440083C707ED918BE39707F083C74195E3933B
:1010540007F018308326090063C8E7002244B24031
:10106400924402494101F5B933A6D7201222E31371
:1010740006EE8507D5B7B7C700401387C7201443CA
:101084001396264910C3010001009387872617553C
:101094000000032525B29C436A0514C393C7F7FFD8
:1010A40099835D8D8280411126C2975400009384F8
:1010B400E40A9C4422C406C6858B1754000003240A
:1010C40024EDA1C718289757000023AD07088947C6
:1010D400630DF7020146930550020145EF10C01E4F
:1010E400014681450545EF108007DC44858B91CF8F
:1010F4002244B24092448145173501E013056572DC
:101104004101175300E0670083D3EF20F0242285C8
:101114002244B240924441016F10D02F97570000EF
:1011240083A7C7EA6399071C011122CC2A840945C5
:1011340006CE26CA4AC84EC6938481A6EF20F0285C
:101144009040930780071389C1A57CD283270900A7
:10115400938981A7B7053300D8572285719B1367FC
:101164001700D8D798431377F7CF98C398431377CA
:10117400F7CF1367072098C303A709001447CD8E40
:1011840014C7B70603009386862534CA5457F59AC4
:1011940054D798433424137707F893F6F607558FFA
:1011A40098C3EF10903C9440370500827D15DC42D3
:1011B40093E71700DCC203260900030784065C5684
:1011C4009375F703E605E98FCD8F5CD69305A003ED
:1011D40083A7090063D9E50AF84FB70500074D8FC7
:1011E400F8CFB7C7898E938767ED1CC6B7575500EC
:1011F400938757555CC28347A40683494406B3E9E1
:10120400F9008947175700002328F7F6975700007D
:1012140023AC07F47C44BCDE9757000083C747A087
:10122400D9CFFC52FDFF0C384E859757000023ABF5
:1012340007F2EF00F06A18289D47172500001305F0
:1012440045F26306F70017050000130505E6A53906
:101254008327090098431317772998C3D857719B9C
:10126400D8D79757000023A507F09757000023A964
:1012740007EE9C40F2406244094798C3D244424975
:10128400B249056182809305200263DAE500F84FD4
:10129400B70500F9FD156D8FB705000589B7B705CA
:1012A40000F96945FD156357E500F84F6D8FB705E3
:1012B400000335B7F84F6D8F1317872915B7182812
:1012C4009D478145172500001305A5E96306F7002E
:1012D40017050000130565DD975000E0E78020B690
:1012E40010386244F240D2444249CE85B2490145A5
:1012F40005616F00D066828097570000938707C30B
:10130400E853054754256390E60203C7470791470E
:10131400631AF700011106CE2AC6EF10700B32458E
:10132400F2400561E5BB828083278511E5CB41113D
:1013340022C406C658258345E5049437D2272A8457
:101344001377C70F1395466063F7C5066351050607
:10135400882793F6F60794B7054693662700631427
:10136400C5009366170054A4D8430907D8C30325BE
:1013740004114CB82E86CC430905EFF08FEE832779
:1013840084115438D8433697D8C3DA27158FDAA78F
:1013940089473CBC034764039757000083C76783AE
:1013A4006369F706B2402244014541018280136714
:1013B400170058A46DBF9376F60F6355050288276E
:1013C4008545136627006314B5001366170050A4FF
:1013D40054B8A384070085473CBC832784119C43ED
:1013E400D5FBC9B71367170058A454B8A3840700E2
:1013F40003250411CC430905EFF0AFE683278411DC
:101404005438D8433697D8C3DA27158FDAA78D47CF
:10141400E1B75C2493E707015CA469B705458280C2
:10142400411183A741A422C406C6858B2A84C5E73B
:101434004165130525F5975001E0E780400741CD4C
:101444003C253EA583270412ADE32320A4122322C6
:10145400A41285472311F404232005007C28544159
:101464005EA5583418A5054718B5138517021757F4
:101474000000032767D215811C437D151375F50FF2
:101484009CC25C43DCC21C479CC65C47DCC61C4B4C
:101494009CCA5C4BDCCA1C4F9CCE5C4FDCCE0DC19D
:1014A4009386060213070702C1BF8327441288C329
:1014B400835724042322A4128507B3C7070859BFFE
:1014C40017570000130787A61E2785071EA7B240DB
:1014D4002244410182805C2423090400054593C70A
:1014E40047005CA4EDB7142D854763ECD70A1C3D77
:1014F4002A870145CDEB5C2713F507013C2B99CBDB
:10150400834667039747000083C7B76C63ECF60014
:1015140001E5828049E582808357271E0357671EB1
:10152400BA9721A08357271E75F90145ADCF93873C
:10153400C712174500000355656EB3B5A7023746B9
:101544000F00411113060624814622C426C206C692
:101554007D543385A702971002E0E7800076974414
:10156400000083C47467AA949757000083A747A513
:1015740003A707099C433354E40AFDFB83A7C195E1
:10158400829781476364A400B307A440B240224415
:1015940033B5970013451500924441018280814779
:1015A400B5BF01458280828003A781A63C5BFDFF15
:1015B40001000100828035C901116C0022CC06CEE5
:1015C4002A84EF20203429C9FD57630CF5041747FA
:1015D40000001307E75E5453B2479DC22547637B5F
:1015E400F700938567FF034594026244F240056166
:1015F4006F10E04C1747000003270762BA97D5B76E
:101604000C3F63E5B700B385B740F1BF174700004F
:1016140003278760BA97C5BF6244F24005616F1023
:101624007073F2406244056182808280797152CC89
:10163400175A0000130A8A8F26D283244A0906D631
:1016440022D44AD04ECEC5C897570000938707B11D
:10165400D44F15476384E604DC532A8989CF97A0C5
:1016640001E0E780805597A001E0E78080DC975790
:10167400000023A707B0FD596C002685EF208028C1
:101684001DE517250000130525EDEFF0DF8383A783
:1016940081A63707100098C70547B8DB0D45B2503F
:1016A400225492540259F249624A45618280637419
:1016B40035013244AA898440E1F0FD571305F00F47
:1016C400E38FF9FC914763F187029307B4FF23206A
:1016D400F9002324FA0A99E79747000083A7C75320
:1016E4002320F900014565BF9747000083A7C7522F
:1016F400ED17A297E9BF09455DB7797126D206D6E1
:1017040022D44AD04ECE52CC56CA5AC85EC683475B
:10171400550303447513AA843E941374F40F93077A
:10172400400263F687001304B4FD1374F40F03A995
:10173400841383A9C413A38B841222864A85CE857D
:10174400971002E0E7800015058915E503CBD41254
:10175400014A814A337B6403930B500252864A85C3
:10176400CE85971002E0E780E01205890DC56391EC
:101774006A031374FA0F238B8412B25022549254C6
:101784000259F249624AD24A424BB24B45618280C5
:10179400850A939A4A60050AE3127AFDE9BF832712
:1017A400850903560504797193D60701BD8EB3C626
:1017B4000608358E93575640898B135776485D8FAC
:1017C40093573640918B5D8F93571640A18B5D8F55
:1017D40093171600C18B5D8F9317360093F707029A
:1017E4005D8F9317560093F707045D8F9317760068
:1017F40093F7F70F22D45D8F2A849357D60013559D
:10180400B6001189898B93558600C98F1355F6004C
:101814002582C98F218AD18F13961500418AD18FD1
:101824001396350013760602D18F1396550013765E
:101834000604D18F139675001376F60FD18FA20785
:10184400C5455D8F3307B70226D24AD04ECE032951
:1018540084138329C4135AC806D652CC56CA369761
:101864003347070813565740098A93577748D18F4F
:1018740013563740118AD18F13561740218AD18FBE
:1018840013161700418AD18F1316370013760602F8
:10189400D18F1316570013760604D18F13167700D1
:1018A4001376F60FD18F1358B7001356D700137859
:1018B4004800098A13558700336606011358F70058
:1018C400258333660601218B518F13161500418A37
:1018D400518F1316350013760602518F13165500D7
:1018E40013760604518F131675001376F60F518F75
:1018F4002207D98FB387B7025EC6B697B3C7070866
:1019040013D55740098913D77748498F13D53740E2
:101914001189498F13D517402189498F13951700D1
:101924004189498F1395370013750502498F139523
:10193400570013750504498F139577001375F50F38
:10194400598D13D8B70013D7D70013784800098BE3
:1019540013D687003367070113D8F700A5833367CD
:101964000701A18BD98F13171600418BD98F131739
:10197400360013770702D98F13175600137707041D
:101984001E06D98F1376F60FD18FA2073367F500A1
:101994003307B702130650024A85CE853697B98EAF
:1019A400B3C4060833F6C402137BF60F971002E0A3
:1019B400E78040EE058905E9834AD412014A930B76
:1019C4005002B38A9A02814493DA0A0126864A8530
:1019D400CE85971002E0E780E0EB05890DC56391A1
:1019E4004A0313FBF40F230B6413B2502254925492
:1019F4000259F249624AD24A424BB24B4561828053
:101A0400050A137AFA0F8504E39274FDE9BF83276C
:101A1400C50803568508797193D60701BD8EB3C6F0
:101A24000608358E93575640898B135776485D8F39
:101A340093573640918B5D8F93571640A18B5D8FE2
:101A440093171600C18B5D8F9317360093F7070227
:101A54005D8F9317560093F707045D8F93177600F5
:101A640093F7F70F22D45D8F2A849357D60013552A
:101A7400B6001189898B93558600C98F1355F600DA
:101A84002582C98F218AD18F13961500418AD18F5F
:101A94001396350013760602D18F139655001376EC
:101AA4000604D18F139675001376F60FD18FA20713
:101AB400C5455D8F3307B70226D24AD04ECE0329DF
:101AC400040A8329440A5AC806D652CC56CA369701
:101AD4003347070813565740098A93577748D18FDD
:101AE40013563740118AD18F13561740218AD18F4C
:101AF40013161700418AD18F131637001376060286
:101B0400D18F1316570013760604D18F131677005E
:101B14001376F60FD18F1358B7001356D7001378E6
:101B24004800098A13558700336606011358F700E5
:101B3400258333660601218B518F13161500418AC4
:101B4400518F1316350013760602518F1316550064
:101B540013760604518F131675001376F60F518F02
:101B64002207D98FB387B7025EC6B697B3C70708F3
:101B740013D55740098913D77748498F13D5374070
:101B84001189498F13D517402189498F139517005F
:101B94004189498F1395370013750502498F1395B1
:101BA400570013750504498F139577001375F50FC6
:101BB400598D13D8B70013D7D70013784800098B71
:101BC40013D687003367070113D8F700A58333675B
:101BD4000701A18BD98F13171600418BD98F1317C7
:101BE400360013770702D98F1317560013770704AB
:101BF4001E06D98F1376F60FD18FA2073367F5002F
:101C04003307B702130650024A85CE853697B98E3C
:101C1400B3C4060833F6C402137BF60F971002E030
:101C2400E78040C7058905E9834A1408014A930BF4
:101C34005002B38A9A02814493DA0A0126864A85BD
:101C4400CE85971002E0E780E0C405890DC5639155
:101C54004A0313FBF40F230F6407B2502254925427
:101C64000259F249624AD24A424BB24B45618280E0
:101C7400050A137AFA0F8504E39274FDE9BF7971BA
:101C840022D426D22E84AA844146972502E0938545
:101C940025690A8506D6972000E0E78000054146BD
:101CA400972502E09385C5670808972000E0E78040
:101CB400C0033C3010088A85DC875C2026855C875D
:101CC4005C30DC86979001E0E780004F0347F10128
:101CD4001C200145631EF7000347E1011C30014548
:101CE4006318F7000345D1013C201D8D1335150001
:101CF400B2502254925445618280011122CC26CAEA
:101D04004AC84EC606CEAA84174400000324442EB3
:101D140013092500854905C09C303830858B630440
:101D2400F700405CCDBF1946930544004A85EFE0B7
:101D3400FFE4E31835FFF24022856244D24442496D
:101D4400B24905618280411122C426C24AC006C636
:101D5400174400000324C42993042500054901E81D
:101D6400B240228522449244024941018280A685E0
:101D74001305A4022937E30525FF405CCDB7011103
:101D840022CC26CA06CE2AC42EC617440000032439
:101D9400A425854419E001450DA09C841830858B49
:101DA4006304F7000044FDB719469305A100130529
:101DB4002400EFE0BFDCE31795FEF2406244D24416
:101DC40005618280EFF00F917300000000000000B5
:101DD400938241950383020023800200630F030072
:101DE400F32510342EC0970500009385E5FD73900C
:101DF4001534EF0020557300203086DCEF0080544A
:101E0400E6508280000041114AC01389C1A503270E
:101E1400090026C206C61C5F22C4938481A593D7F9
:101E24006748B5CF930700061CDF1744000013046E
:101E3400E432184C930700086317F7009C409C4356
:101E440093F707041CCC1C4093F7070489CB83A7A2
:101E5400C195829748D81C4093F7F7FB1CC01C40DF
:101E640093F7070289CF1C4003A781A6B706080091
:101E740093F7F7FD1CC05C5414C786077CD71C4835
:101E840093F7070489EF85475CC83707020083A7E7
:101E940081A698C71307000C18C81854F8D38327D1
:101EA4000900985F1357474811CF985F13670701DC
:101EB40098DF83A781A623A207068547174700005A
:101EC4002326F72A9C40D8431357174819C7D843E9
:101ED400759BD8C3D843799BD8C3B240224492445B
:101EE4000249410182800537730020309747000082
:101EF4009387C7263707040088DB698F01CF03A7C0
:101F040081A6FD5634D7974600009386E6C8D84E7E
:101F14000507D8CE1377850019CF984783A6C1A5A6
:101F24001367170098C71307000898CBD856719BFE
:101F340013671700D8D61377150001CFD84383A6AB
:101F4400C1A513671700D8C3D856719B1367170030
:101F5400D8D61377650019CF1377450059C3984332
:101F64001367170098C383A6C1A5D856719B13673E
:101F74001700D8D64167698F0DC39746000083C602
:101F84002602C18A17470000130747FAA5C28346F1
:101F9400470793E60602230AD70637070200698F2C
:101FA40001CF984B1377070819C3054798CB83A72C
:101FB40081A63707020098C7B70708007D8D0DC1B9
:101FC400174700000347D7FD058B97470000938709
:101FD400E7F51DCB03C7570713672700A38AE70656
:101FE4008280D84713671700D8C7B5BF8346470711
:101FF4000946BD8A6388C600834647070D46BD8AE5
:10200400E39DC6F8914641BF03C75707118B69DBAF
:1020140003C7570713678700D1B783A681A69747DD
:1020240000009387A7139843058B19E7D843058BC2
:1020340001E7F8526DFBDC4B9747000023AA071217
:1020440082809386C1A52A8788421C5D93D757480E
:10205400D1E781C51C59BD839CA115C69C42945BE4
:10206400C60693D7660163D6060093E707C0B3C7D5
:1020740007088316060093975760B9C6BE9689472A
:10208400B3C6F60216A283A781A6BC4B083393D726
:1020940057488DCF29C59746000083A6A60D93F611
:1020A40006049307950009459DCABA979C230547E2
:1020B400194593F6F7066394E60201459397476042
:1020C40063DF0700394582801EA275BF2A97483313
:1020D4001375F5077D153335A00082800545828090
:1020E40083A701A699CB944BD04B9842518F98C2A9
:1020F40094439C479842D98F9CC2138681A6054875
:10210400184283A6C1A59747000093872705631D3E
:10211400050388421365050888C283C62702B3C530
:10212400D5209385A50C54471395164948C70F101D
:102134000000184237060200860510C7130600087F
:1021440090CB6CD354C7828088421375F5F788C24C
:1021540083C62702B3E5D5209385E50EE9B741117F
:1021640026C2AA8706C622C42E85938481A6B28578
:10217400D9EB9C40F8537DFF3707020098C7974777
:10218400000023A107FEB7E700E03707200037F47B
:1021940000E023A0E728130404D01C48ED9B1CC8CE
:1021A4001C4893E787031CC873005010153F83A78E
:1021B400C1A598431317772998C3D857719BD8D7CB
:1021C4009747000023A607FA9747000023AA07F8B9
:1021D4009C40094798C31C4893E787001CC87300B8
:1021E4005010944017470000130747F71C47858B8E
:1021F40091E75C47858B99E3FC52EDFBB2402244A6
:102204009244410182800D476398E7049747000098
:1022140023AA07F49747000023A807F4B7E700E0D0
:102224003707200037F400E023A0E728130404D084
:102234001C48ED9B1CC81C4893E787031CC873000B
:102244005010793D83A7C1A598431317772998C3E4
:10225400D857719BD8D741B70547E394E7F837F7C8
:1022640000E0130707D0144BED9A14CB144B93E6FC
:10227400860314CB730050109840504793161649A8
:1022840054C70F1000009840B706020014C7930605
:1022940000089745000023ABD5EC83A6C1A5944262
:1022A40093D67648639FF6009307E0187CD350C713
:1022B40037F700E0832707D193E787002328F7D077
:1022C40039BF9307E01ADDB783A701A689CFD443AA
:1022D40003A8870098423367070198C2D447DC4BB0
:1022E4009842D98F9CC2054783A7C1A59505631B56
:1022F400E50298431367070898C3984F137707C0FC
:102304001367A71398CF13078007B8BB93973500BB
:102314009387C70319C29317160017470000232396
:10232400F7E6828098431377F7F798C3984F1377AB
:1023340007C01367271398CF1307F007B8BB939709
:102344004500F9B783A781A68847D847798D11C579
:1023540088C783A741A691C382878280896703A720
:1023640081A6938707F47CD383A681A783A7060954
:1023740093D7A74991C783A7060993D7974999E3A8
:102384007C53EDF782804111B7E700E022C480431B
:102394003707200006C6798C23A0E7180F10000029
:1023A40011C199E5B7E700E023A08710014549A8CA
:1023B4000D0533450508130740037199B347050814
:1023C4006362A70203A581B083A601B0639FA60040
:1023D400174700000327C78171D7C207DD8D054564
:1023E4000297C9B703A541B0C5B77A2131EF5A2185
:1023F400636CF704B306F740214817360000130650
:10240400A6796375D802832805000358660093866D
:1024140087001D8FAA966117DAA223A016012393C1
:10242400060014C15EA1130788FF7AA27A226EA166
:102434002105B307F7407EA2B7E700E023A0871089
:10244400B240224441018280084149B7B7E700E025
:102454008C433707200023A0E718F98D0F100000E4
:1024640001E523A0B710828003A381B083A801B043
:102474009A87814663F8170903A807006367F5087C
:102484006365A80813878700636EE506F223216756
:1024940005076317E600138631A21822050718A260
:1024A400173500001305456FD2237A2123930700C3
:1024B4003297334707087AA16383670203A341B0C5
:1024C400630FF30003D36600631B0300DE2223A023
:1024D400060121073E962106D2A27AA1B687984327
:1024E4006302170383A641B0630ED700762399EAEB
:1024F400D62352231843A106B296D6A398C37E21AD
:10250400A1077EA1B7E700E0A9BFBE86C2879DB739
:10251400AA8703A781B003A601B0B305B54063142D
:10252400E6003E8529A8930687001843E3E9D7FE11
:10253400E3F7E7FE2E85E3E4D5FEE3F2E5FE8280D1
:10254400411126C206C622C44AC09744000083A48F
:1025540064A36383041003A4C40AAA86054535C092
:102564003C241307700A6390E70858301C34173969
:1025740000001309E96903268900B387E7020357BA
:10258400C900B387E7021307003293870719B3D74B
:10259400E70203A744093E97BA846364F7006364BF
:1025A400C700B304C74083A7C19584C28297B38789
:1025B400A44063F5A40003278900BA9789EB1305A7
:1025C400F00FB240224492440249410182805830C3
:1025D4009306204E3307D702E3F3E7FE930780FA0E
:1025E4003CA40145F9BF1307800AE39AE7FC83A7DB
:1025F400C19582972A893545EF10205DAD4717476D
:102604000000232BF7B658301C341736000013068D
:102614002660B387E7025A261046B387E7021307FA
:10262400003293870719B3D7E70203A744093E97FB
:10263400BA866364F7006364C700B306C740E31057
:10264400D9F817F501E01305E514EFE0DF8783A758
:1026540081A60947F8D7A5B70545A5B7397156D25C
:10266400974A0000938A8AAF83A70A0337070800B2
:1026740026DA06DE22DC4AD84ED652D45AD05ECEB2
:1026840062CC66CA6AC86EC6F98F9744000083A4F8
:10269400648F6384071C83A9C40A83C7990003A4B5
:1026A400C90092073E942820B14705053305F50279
:1026B4005E203E9533450508EFE08FABAA8C630599
:1026C400051A130DC5002324A50134203146370B08
:1026D4000300B386C602231304000149138A81A6AA
:1026E400938BC1A5938D81A7130B8B15054CEA968B
:1026F40054C483C679009307D00783250A00B386A0
:10270400F602C1679CC5370833008606B4D183A698
:102714000B0090421376F6CF90C290421376F6CF18
:102724001366062090C203A50D001045336606010A
:1027340010C503A6090023A865059305500290C699
:1027440072205444B2962324DD0014300146CA9604
:10275400A301DD0003C504089746000023A206A0D8
:10276400A53683260A00CC4613961549D0C60F1009
:10277400000083260A003706020090C613060008EC
:1027840023A8CA0003A60B00104213567648631F01
:10279400860B1306E018F0D2CCC617460000232996
:1027A400069C17460000232D069A23A08601EFF00D
:1027B400DF86EF10603A83A64A00858AD9CAEA8583
:1027C4002685970002E0E780C0010DE903465D001D
:1027D40049C276204E20B29663DDB606B428AC48D2
:1027E40003258D00918E8906B695EFE08FA723020D
:1027F4000D0003465D007620B29676A003260A00FB
:10280400310D3452FDFE342005091379F90FE362CA
:10281400D9EE9C246685A381FC001C20A3820C00B5
:102824002383DC002382FC006254F250D2544259C8
:10283400B259225A925A025BF24B624CD24C424D2C
:10284400B24D2161170301E06700A3821306E01A69
:1028540099B7FD562302DD0055B783A781A6FC571F
:1028640081C78547238AF194F2506254D254425965
:10287400B259225A925A025BF24B624CD24C424DEC
:10288400B24D21618280AA8703A5419611E182801D
:102894003A216315B7001821E30BF7FE4845FDB74D
:1028A400411122C406C626C24AC02E848DCD13F916
:1028B40015008147414763020904131745003E97F9
:1028C400B1463307D70283A4C196B317F02833C99E
:1028D4000708BA949C40C840829723A0040023A20E
:1028E400040033448900B2402285224492440249C0
:1028F40041018280B356F448E9F28507E39CE7FE80
:10290400CDB7011126CA06CE22CC4AC84EC6AE8423
:10291400A1C593F7150001444147B1CB9317450076
:10292400A2973147B387E7029389C19603A90900A7
:102934003E998327090081C70325490082973147BF
:102944003307E40283A70900BA979C478DC7331461
:102954008028B3470408BD8CF24062444249B2491E
:102964002685D24405618280B3D68448C5FA05041D
:10297400E31CE4FECDB72320090023220900C1BFD4
:102984007971B7E700E022D4804352CC06D626D230
:102994004AD04ECE56CA5AC85EC662C43A8A37076F
:1029A4002000798C23A0E7180F10000005E123A074
:1029B40087100945B250225492540259F249624A8E
:1029C400D24A424BB24B224C4561828083A7C195C7
:1029D400B6892A89AE8A328B938BC196829703A7D4
:1029E4000B008144B146C147338CD40233068701BE
:1029F400104235EEC165938505F04145EFF0BF986F
:102A040019ED9737000083A7A71E81C7814511459B
:102A14008297B7E700E023A087102D4561BF138795
:102A240041961C43A1E308C323000500B317902873
:102A34003EA183A70B00232605002324650123223E
:102A44004501E29723A0270123A2570123A44701AC
:102A54006384090023809900B7E700E023A087106E
:102A6400014589BF3E87DC47F5FF48C775BF85042C
:102A7400E39CF4F6B7E700E023A0871021451DBFCF
:102A8400B7E700E09843B706200023A0D718758F56
:102A94000F1000009736000083C61610637DD50022
:102AA40083A681963325D5201621D58D0EA123A08A
:102AB400E7100145828023A0E7100D4582800111B3
:102AC400B7E700E022CC80433707200006CE26CAB1
:102AD4004AC8798C23A0E7180F100000BD4763E7AC
:102AE400A70431473307E50283A7C196BA979C43ED
:102AF40095CF3315A0282E89B345050801452EC668
:102B04005933AA8409C9B2450145973000E0E780EA
:102B1400A0DE23A42401B7E700E023A08710014529
:102B2400F2406244D244424905618280B7E700E042
:102B340023A087100945EDB79737000083C7573A9C
:102B4400AA86850703A5419F014712216307D60082
:102B540005071905E36BF7FE014582802A8703A563
:102B6400C19F11E182801C45B227636BC7000358E3
:102B74004500B306C8006355D70081466394060137
:102B84000841C5B703D3A700938807016316E30080
:102B940091C192A13E8582808506C687B3C6060888
:102BA400F1BF9736000083C6A63383A781A20147ED
:102BB4006394E60001458280AE231386C7036394C1
:102BC400A5003E85828005071377F70FB287CDB73E
:102BD400411122C406C6973700002383073C03A48F
:102BE40081A305C06C390145B315B028B3C50508E8
:102BF400973000E0E780201B930710273305F50288
:102C040002942244B240814501454101173300E05A
:102C14006700E322383D09C734256312D7024DBF4C
:102C24003C2DF5DF3825E30CF7FE3CA5814517E57F
:102C3400FFFF1305A56C173300E0670043203C2D0C
:102C440089C7E394F6FE38A5D5B7F1FAEDBF411173
:102C54004AC017390000130969508327890022C428
:102C640026C206C6973400009384442C858BE0501A
:102C74009DCB9737000023A7074E83C74407C18B1A
:102C840085CFEF00706D83C7440793F70702E5DF34
:102C940083C74407228593F7F70C238AF406971019
:102CA40001E0E78020D9EF00306B22852244B24056
:102CB40092440249410129BF83C75407858B91CBB4
:102CC400EF0090698D47230EF406BC582285829745
:102CD400D9BF83C744071547BD8B6395E704834772
:102CE400B406034534060146930550025D8DEFF0AA
:102CF400AFDD014681450545EFF06FC68327C90066
:102D0400858BD5D322859737000023AF07449710CE
:102D140001E0E78040BA41F9B240224492440249BA
:102D24004101828083C744071947BD8BE39DE7F6C1
:102D34008347B406034534060146930550025D8D6E
:102D4400EFF08FD8014681450545EFF04FC1832749
:102D5400C900858BA9DB22859737000023A607408D
:102D6400971001E0E780008F7DB7411122C426C28D
:102D740006C67C2578452A84BD8B1CA91CA31D4747
:102D840064456395E7340547B8A08347F5058D4648
:102D94006393D7185E2DCDE37C491147B18B638DC6
:102DA400E70831476398E700034715068347F507AB
:102DB4006304F7088547BCB019469305640313857B
:102DC4004400EFD01FCABC20990793F7F70FBCA0AB
:102DD400034704061377070401CFB83013670704C9
:102DE400B8B07844BA975838B8B3BC208507BCA0AB
:102DF400973700002386071ABC2013F7F70305074B
:102E040018B80347E4051A07D98FBCA083475403B5
:102E1400858B91E70347440389476317F700784498
:102E24001C2393E707041CA37C44183898B3B240CE
:102E34002244924441018280A147BCB08357C40616
:102E4400973500009385850E138681A6DCA08357F1
:102E5400C406034714067444A1831207BD8BD98F9B
:102E6400DCB2B4208547890693F6F60FB4A0173771
:102E740000000347E712631EF706183C9387E60039
:102E84008E07231AF4069387C708B387E7027945A8
:102E940010420948238A0507C1650CC6938707FBBE
:102EA400B3C7070893877716B3C7A70233C70708C2
:102EB400B387A70286073CD2BC3093E70701BCB0B6
:102EC4007C44B6978346240693E60604B4B3B42040
:102ED4007C44B697D8A3B4207C4421837D8BB697D9
:102EE400834634069606558FD8B3BC208D07BCA004
:102EF40021B71042F947385205833357F7023C5241
:102F040068528583FD8BAA977CD28D47238AF50668
:102F14003347070855B71946639BC7125E2DC1E3B3
:102F240093056503B8B013854400EFD09FB3BC206C
:102F34001385A4009907BCA0BC3093E72700BCB05C
:102F440083475403898B95CF0C58BC299DCB1946D4
:102F5400D105EFD01FB178441C2393E707F81CA3D5
:102F6400BC20990793F7F70FBCA003470406137717
:102F74000704E30F07E6B430784493E60604B4B0DC
:102F840095B58347D40391C778441C2393E707F886
:102F94001CA319469305E403EFD0BFACD1B7A147F6
:102FA400BCB08357C506DCA08357C5060346150687
:102FB4006C45A1831206BD8BD18FDCB1B0201735CF
:102FC40000001305A5F6938581A609061376F60F6E
:102FD400B0A09737000083C7A7FC6398E704183CA8
:102FE4009307E6008E07231AF4069387C708B3876E
:102FF400E70279488946230AD5069441C1658CC6FF
:10300400938707FBB3C7070893877716B3C70703EC
:1030140033C70708B38707038607BCD2BC3093E7DE
:103024000701BCB07C44B29771BD8C41B851F947DB
:1030340005833357F702BC5103A845068583FD8BEE
:10304400C297FCD1230AD50633470708C1BFA1475D
:10305400BCB08357C506DCA08357C50603461506D6
:103064006C45A1831206BD8BD18FDCB1B02017351E
:1030740000001305A5EB09061376F60FB0A09737E9
:10308400000083C7E7F183A581A6E391E7FA183C22
:103094009307E6008E07231AF4069387C708B387BD
:1030A400E702F9460948230A0507416588C593875D
:1030B40007FBB3C7070893877716B3C7D70233C78D
:1030C4000708B387D7028607BCD189BF0547639E2B
:1030D400E706B1471CB983475503898BA1CB0C592B
:1030E400BC29A9C71946D10513858400EFD07F9761
:1030F40078441C2393E707F81CA3684419469305F6
:1031040064030905EFD0FF9511679737000083A783
:10311400E7EEF98FE38C07CE7C24B98BE39807CED6
:1031240078441C2393E707021CA3CDB18347D4033F
:1031340089C79C2093E707F89CA068441946930527
:10314400E4032105EFD0FF914DBF522D0C55930799
:10315400660093F7F7031CB913858400E5B70111E2
:1031640026CA97340000938464FF9C4422CC06CE84
:1031740017340000130484DB858B6850C9C32AC646
:103184009737000023A007FEEF00101D03474407F4
:10319400894732456307F700034744078D47631C9B
:1031A400F70283A681A6BC520357450785831307FC
:1031B400C71263F2E702BC528583B1C39147034748
:1031C4004407E31EF7FE6244F240D244056117133C
:1031D40001E0670003AE382D3C3D09CF3425630977
:1031E400D7026388F60238A56244F240D2440561EE
:1031F4006FD0DFF299CF382509EF3CA5F5B72AC681
:10320400EF00901562443245F240D2440561C9B2E0
:10321400EDF7DC4CEDF70347440789476307F700F4
:10322400034744078D47E31CF7FC914703474407D2
:10323400E31EF7FE49BF630E0530011122CC06CE12
:1032440026CA4AC84EC652C456C2582585472A843F
:103254006316F72C97370000938747F0D44F154730
:10326400638AE600D44F0D476386E600D84FAD4726
:103274006312F7026C386244F240D2444249B249C4
:10328400224A924A01450561B315B028B3C5050821
:103294006FF00FFF16311307006497340000938416
:1032A400E4C83347D7029C20E8D0850793F7F70F8B
:1032B4009CA063CAE700973000E0E780A0F397374B
:1032C4000000238507C678249D47631FF7048347BE
:1032D4009406B1C38356040763ECF6020C249307E7
:1032E40030041CAC1305300493F6F60F014697B076
:1032F40001E0E780401422856244F240D24442490E
:10330400B249224A924A0561171301E067006348F3
:1033140085062318D406930530020545973000E04E
:10332400E780C0E52301A4060549238A2407183C45
:103334008D47631CF70E972000E0E78080550D89C8
:10334400630F051463162517930760023CA49307C3
:1033540050023CAC9307700278243CBC854763025E
:10336400F70889659385F57013051027173A00004F
:10337400130A0A8A83497401973000E0E78080E2E7
:103384000E30835ACA002A8913060064B385550394
:10339400814613850532B335B500970002E0E78016
:1033A400C091AA84B335590337460F001306062487
:1033B400814633055903970002E0E7800090832794
:1033C4000A00AA948297B307950003278A00BE8552
:1033D40063E4A70063E4E700B385E7404E85EFF0BC
:1033E4000FEE83475403898BE9CB8347C403F1C7AA
:1033F4000C58E1C5BC25F1C38947230AF4021946D8
:10340400B10513056403EFD0CFE50347C40789472B
:1034140063E9E70A22856244F240D2444249B24950
:10342400224A924A05616FD07FCF89467C34631566
:10343400D70213F7170019CB898B1307500291EBAE
:103444009307700238A43CAC814739B71307600274
:10345400C5BF93076002FDB799CF93F61700130712
:10346400500291E6898B13B717001307670238A43B
:10347400230D0400D1BF3C2C130740026368F700FE
:10348400930750023CAC3C2C3CA47DBF850793F7CA
:10349400F70F3CAC13077002E364F7FEEDB71307B4
:1034A4007002930750023CAC38A4930760026DB5D8
:1034B4001307500293077002FDB78547230AF402ED
:1034C400A9B70327C40A83A6C1953C27ADC31C37FB
:1034D4005833972400009384A4739044B387E7027D
:1034E400DA24B387E7021307003293870719B3D7A7
:1034F400E702032744093E973A896364F70063644B
:10350400C7003309C7408296B307A9406374A90072
:103514009844BA9703576407E3FEE7EEF240624427
:10352400D2444249B249224A924A056182808324A4
:103534008409829663E9A400835764073385A44011
:10354400E37AF5ECE1BF9727000083A7E76CBE940C
:10355400E5B7828001114EC6973900009389099D11
:1035640022CC03A4C90926CA972400009384446A80
:10357400DA244AC8035964088327040906CE3309A8
:10358400E90237470F009306F7231307072452C4B1
:1035940056C25AC036993359E90263EE2703138A97
:1035A400C1953389274183270A0082976368A9025A
:1035B4003305A9406347050283570404A30F04009D
:1035C40085072310F40483470414639707102285A6
:1035D400EFE0AF9229A29844BA97D1B79C443E99A0
:1035E400C1BF83270A008297032784086363E50A1F
:1035F400198D7E3CDA248E07B387E7021307003265
:1036040093870719B3D7E70263E9A708B74A0F00FE
:10361400138BFA23938A0A248357040485072310FF
:10362400F4048347041481E72285EFE00F8D22859B
:10363400972001E0E780E0FA631F052203260409CE
:103644000327C40894443297BA876364C700636449
:10365400D700B307D740783CD2242328F4080507C1
:1036640078BC035764083307C7025A973357570384
:103674003389E74063F5E700998E3389F6008327A1
:103684000A0082976365A9043305A940E34605F857
:1036940025B79C44998F3E95A9BFA14522859720C3
:1036A40001E0E78020ECA305A4029727000083A78C
:1036B40027546382071C6244F240D2444249B2490F
:1036C400224A924A024B89451545056182879C44EA
:1036D400CA973385A7405DBF2285EFE04F8C2285D2
:1036E400972001E0E780E0EF63170518CA248357A9
:1036F4006408B7460F001386F623B387A7029386A0
:10370400062403270409230B040283AA8400B29726
:10371400B3D7D702636BF716B307F7408326C40801
:103724002324F408014BB387E6003E8963E4D70001
:1037340063E45701338957411E3023282409A1CB60
:10374400835604045A3037460F0056B03387E64098
:10375400B387E7023A301306062481468145BA97B7
:10376400B3C707083385A7023EB097F001E0E780AE
:10377400C05411CD4A9533392501CA95AA876314DB
:10378400BB0063645501B30755412328F40883271C
:103794000A0082972A8983270A008297E30D25FF6E
:1037A40083270A000329840882976365A90E3305D9
:1037B400A9406300051003DAC4008357640837493D
:1037C4000F001307F923B387470313090924BA9792
:1037D400B3D727031727000003471740BA9763EAB4
:1037E400A70CB3352503035B2402528681463305B7
:1037F400250397F001E0E780404CB30AAB003305A2
:103804004B0337460F00130606248146814597F083
:1038140001E0E780804A15C1B3372503528681460B
:10382400B305B9023305A902BE9597F001E0E7801C
:10383400C048330BAB40231164033545792623AECE
:10384400890838348547631AF704930700FD7CA47C
:1038540003A501A59C28A1CBEFD0EFE69547173728
:103864000000232BF7903707100083A781A698C781
:10387400860A23A85707F2406244D2444249B24917
:10388400224A924A024B05618280B3065701B387EC
:10389400F64069B59C443E9919BF930710FC7CA47B
:1038A40003A581A445BF8145972000E0E780205906
:1038B40075B79727000023A907709C2895C303A513
:1038C400C1A3973000E0E78080926244DC40F2407C
:1038D400D2444249B249224A924A024B0561828744
:1038E400834594026244F240D2444249B249224A96
:1038F400924A024B01450561B315B028B3C50508CA
:103904006FF00F98011122CC26CA4EC606CE4AC8C3
:1039140052C456C25AC038358547832405092A84BF
:10392400AE896314F70C83570508835AC503172A15
:103934000000130AEA2D035BCA0063FC571914291B
:103944006399E61803278511631507180327450AA9
:103954006311071874351D47639DE6162A3DB38A23
:10396400FA409307204E330555030329440937468B
:103974000F001306062481463305F502972700003D
:1039840083C7872533592503B335AB023E993349A1
:103994000908231324093305AB0297F001E0E780FB
:1039A400C031B307950033B5A7002E9503278A00CD
:1039B400BE8419E163E4E700B384E740B307690315
:1039C40037470F009306F7231307072423A0990012
:1039D400B697B3D7E702D69763E4F4009D8C31A081
:1039E40003278A00B307F740BE941389C195832740
:1039F400090023A09900829763E2A4103385A440B0
:103A0400635D050A83270900172B0000130B4B2065
:103A1400829703A709006369E50E198D7E3C03575D
:103A2400CB008E07B387E702130700329387071989
:103A3400B3D7E70263EFA70C374A0F00930AFA23C0
:103A4400130A0A248357040485072310F4048347C4
:103A5400041481E72285EFD05FCA2285972001E014
:103A6400E78020B861E5832604098327C408032777
:103A74008B00B697BE8463E4D70063E4E700B384A5
:103A8400E7407C3C8356CB002328940885077CBC04
:103A940083576408B387D702D697B3D7470363E63F
:103AA400F40A9D8C8327090023A09900829763E17F
:103AB400A40A3385A440E34705F89727000083C789
:103AC400B71163E6A7069727000023AF874E014589
:103AD400B9A88357640837470F009306F723B387C1
:103AE400670313070724B697B3D7E702E3F8F4EEA6
:103AF40003278A002697B304F740C5BD9727000023
:103B040083A78711BE94DDBD83278B00998F3E95D3
:103B140031B7A1452285972001E0E780A0A4A30541
:103B2400A4029727000083A7A70C81EF7D55F240DC
:103B34006244D2444249B249224A924A024B056144
:103B44008280894515458297D5B71D8FBA9499BF50
:103B540083278B00BE94B1BF938681A69C42B84B49
:103B64001377F78FB8CB98431367870098C39C43A8
:103B740093D7374889C7010001000100010003A75A
:103B8400C1A51C4393F7F7CF93E707101CC303A603
:103B940081A71C463707CEFF7D17F98F1CC69C42B0
:103BA40037070300B8CB83A701A699CBD44390472A
:103BB4009842518F98C2944BDC4B9842D98F9CC247
:103BC4009727000023AA075A828083A781A69C43D3
:103BD4008D8BE9C74111B7E700E04AC003A907008C
:103BE40026C23707200006C622C4AA843379E90016
:103BF40023A0E7180F100000172400001304045634
:103C0400584C8D47631AF7009727000083A7872E27
:103C1400014681454545829719476391E4048347EA
:103C2400140289CB83470402639697009727000008
:103C3400A3860754584CA1476315F70093078010D7
:103C44001EB0238A0194093FB2402244B7E700E042
:103C540023A0271192440249410182809D47639B1E
:103C6400F40083471402F9D7034704028D47E31392
:103C7400F7FC6DBF544C6389E600584C6306F700AB
:103C8400584CA147E31FF7FA83471402DDFB5C4C51
:103C94002300F4028547A300F40265B78280000084
:103CA40097110020938141BB17C1012013014135B5
:103CB4001305400097C5FF1F9385853417C6FF1F62
:103CC4001306065263FAC5008322050023A055009B
:103CD40011059105E3EAC5FE17C5FF1F13058545C8
:103CE40002852A8309CA83830500230073007D1695
:103CF400050385056DFA82802A8311C62300B3006B
:103D04007D16050365FE8280B717004003C777055B
:103D14001377E70FA38BE704130700F8A38DE704D9
:103D24003D47238CE70413075003A38CE70403C720
:103D3400A7051377D70F238DE70482803717004038
:103D44008347E70412054111BD8BC98F93F7F70F21
:103D540093068008F3B6068093F6860836C60100FB
:103D64000100930670052300D704930680FA23000C
:103D7400D704010001002307F70423000704B24716
:103D8400F3A707800100010041018280B7170040BA
:103D940003C7E7020D8941111377C70F498F9306B3
:103DA4008008F3B6068093F6860836C60100010043
:103DB400930670052380D704930680FA2380D704E2
:103DC400010001002387E70223800704B247F3A719
:103DD4000780010001004101828041112A830148CA
:103DE400930E407E130F0019930F4006B348030847
:103DF40063EF1E0113030019337365028542FD430B
:103E040063F6B2088D4F214F930E4006A1A07D1397
:103E1400336EE3039308E016630E0E00336EF30370
:103E24009308D01663080E009378330093B81800F3
:103E34009388D816C29833C808084DBF93F8150064
:103E4400138EF5FF637CBF02F908C29833C80808D3
:103E5400B3450E08E394F5FF8545630B0300B3787F
:103E6400D5038145638608009375350093B5150025
:103E7400F105C29533C805088945E9BFB3881341E4
:103E8400C29833C80808B3450E089DBF7D16329802
:103E940079463307C70213D61700BE07334808080C
:103EA40032976146B3F6C60213068070B386C60223
:103EB4003697A166F58F4207D98FB716004003C71E
:103EC400F60213770708D883908303C7F6021377A3
:103ED4000708E316E6FE9883B71600404DCF130794
:103EE400800873370780137787083AC401000100FC
:103EF40037170040930670052300D704930680FA11
:103F04002300D70401000100232A07038346170373
:103F140093E60608A308D702230007042247732761
:103F24000780010001001166371700407D16545BBD
:103F34004C5FAD8EF18EE5FE93068008F3B60680E5
:103F440093F6860836C60100010093067005230027
:103F5400D704930680FA2300D704010001005CDB38
:103F64008347170393E70704A308F7022300070412
:103F7400B247F3A70780010001004101828003C713
:103F8400F60213770708D883908303C7F6021377E2
:103F94000708E316E6FE98837DD391B755714EDF8B
:103FA40086C7A2C5A6C3CAC152DD56DB5AD95ED79D
:103FB40062D566D36AD16ECFAA8982C0EF0050144D
:103FC40093078008F3B7078093F78708BEC2010000
:103FD4000100B7170040130770052380E704130797
:103FE40080FA2380E7040100010003C7F702137776
:103FF400770FA387E70203C7F70213678700A38736
:10400400E702238007049647F3A707800100010015
:10401400130B80C1334B65039167938707E8130A39
:1040240030029546B347F502330A4B033EC8FD8779
:104034003ED2BD67938707A6334AFA021357FA4163
:104044003ACA330740413AD47D873ACC1307A0FBE0
:104054003307EB02B347F7020567130707FA3ECEAF
:10406400FD873ED6938729003319F70063E43601B0
:104074003319370161671307076A3345E5021307EC
:104084000010B317F0288D873EC495473309A90261
:104094003349E902130740063309E9021307D0073D
:1040A4003349E9021357F9413AD8331730290D87B8
:1040B4003AC663E4374993075047B307F7023D67AD
:1040C400130707A6116C814A814B13048008371D1E
:1040D4000040930480FA7D1CB3876703B307F04064
:1040E400B3C7E7023ED0FD873EDA73370480137707
:1040F4008708BAC401000100130770052300ED040A
:10410400930D0D0423009D040100010003473D05A8
:104114001377870FA309ED0403473D0513671700C1
:10412400A309ED0423000D0426477327078001002B
:104134000100930C70057337048013778708BAC69F
:1041440001000100930770052380FD0023809D007A
:104154000100010003473D0513670702A309ED04AD
:1041640003570D051317E7282318ED0403570D050E
:104174001317F7282318ED0423800D0036477327FF
:1041840007800100010003473D0513770702630A16
:10419400073A03473D05218B6DDF8800EF00807DE2
:1041A4007337048013778708BACA0100010023809B
:1041B4009D0123809D000100010003473D05137705
:1041C400F70DA309ED0403473D0513670702A3098F
:1041D400ED0403570D051317E7282318ED040357BF
:1041E4000D051317F7282318ED0423800D005647F7
:1041F400732707800100010003473D051377070279
:104204006308073603473D05218B6DFF97C0FF1FE9
:10421400E78040442A873ADC97C0FF1FE780804349
:104224006257E30AE5FE03570D0506451317E72811
:104234002318ED04B12F03473D05218B6DDF035790
:104244000D0583462D05C24733778701B386860360
:1042540013D6F641BA96B388F640925733B7E600C0
:1042640032971D8FD247B3B61601158F63C6E70088
:10427400631CF700637A1A01E2476342F7326395DD
:10428400E700A25763EDF830894663FC7631733753
:10429400048013778708BAD0010001001307700562
:1042A4002300ED0423009D040100010003473D05A4
:1042B40093F6F90F1377870FA309ED0403473D0520
:1042C400558FA309ED0423000D04065773270780B7
:1042D400010001001306700503473D051D8B631A99
:1042E40037357337048013778708BAD40100010087
:1042F400130770052300ED0423009D040100010051
:1043040003473D051377F70DA309ED0403473D0566
:1043140013670702A309ED0403570D051317E728D4
:104324002318ED0403570D051317F7282318ED047C
:1043340023000D042657732707800100010093060C
:10434400700503473D0513770702630E07300347E3
:104354003D05218B6DDF8800312D73370480137781
:104364008708BAD801000100130770052300ED0483
:1043740023009D040100010003473D051377F70D59
:10438400A309ED0403473D0513670702A309ED04E0
:1043940003570D051317E7282318ED0403570D05DC
:1043A4001317F7282318ED0423000D044657732729
:1043B4000780010001009306700503473D0513774C
:1043C4000702630D072C03473D05218B6DFF97C042
:1043D400FF1FE7802028AA8C97C0FF1FE780802753
:1043E400E30C95FF03570D0506451317E72823181B
:1043F400ED04792B03473D05218B6DDF7337048072
:1044040013778708BADC0100010013077005230045
:10441400ED0423009D040100010003473D051377CB
:10442400F70DA309ED0423000D04665773270780D5
:104434000100010003570D0583462D05C25733774C
:104444008701B386860313D6F641BA9633B7E600DE
:10445400329733882641B3B606011D8F158F634604
:10446400E00063180726630608261305800C33074B
:10447400E5020256D256B335050333050503BA9552
:10448400EFE081459306150033B5A6002E9513572A
:10449400F501BA9633B7E6002A971316F701858219
:1044A4000587D18E6346E000631F072C638D062CBD
:1044B4000356CD021582B305D60033B6C500329734
:1044C4006348E000631007361307F00F637CB734CA
:1044D40009476371572793078008F3B7078093F759
:1044E4008708BEDE01000100B717004013077005FE
:1044F4002380E704130780FA2380E7040100010006
:10450400DA3789668116558F33470708DAB723806F
:104514000704F657F3A7078001000100BE402E44AC
:104524009E440E49FA596A5ADA5A4A5BBA5B2A5CC3
:104534009A5C0A5DFA4D696182802247930750476D
:10454400ADBE7337048013778708BAC80100010031
:1045540023809D0123809D000100010003473D0548
:1045640013670702A309ED0423800D00464701B930
:104574007337048013778708BACC010001002380C5
:104584009D0123809D000100010003473D05136741
:104594000702A309ED0423800D00664791B9E3984F
:1045A4000BCE7246B2569315170013D3F801139528
:1045B4001800B365B3003ADE46DCEFE0E131725730
:1045C400850B93FBFB0F6346E00031EFE258638CED
:1045D40008049306150033B5A600AA9513D7F50170
:1045E400BA9633B7E6002E9785827E07558FF33649
:1045F400048093F68608B6CE0100010023809D0155
:1046040023809D00010001008356CD023697334775
:1046140007082316ED0223800D00764773270780D1
:104624000100010009BE9306F5FF13351500898DBD
:1046340075B77337048013778708BAD20100010075
:104644002300CD0423009D040100010003473D0520
:10465400558FA309ED0423000D0416577327078013
:104664000100010095B97337048013778708BAD61F
:10467400010001002300DD0423009D04010001006A
:1046840003473D0513670702A309ED0423000D0446
:104694003657732707800100010065B17337048022
:1046A40013778708BADA010001002300DD04230030
:1046B4009D040100010003473D0513670702A30998
:1046C400ED0423000D0456577327078001000100F1
:1046D400EDB19305800C3387E50233850503B3B54B
:1046E4000503BA95154763733705A2471307504767
:1046F4003387E702330660413306E6023D6713075A
:1047040007A63346E6029356F641EFE0E11C130692
:10471400F5FF13351500898D13D7F5013A96333714
:10472400E6002E979316F70105829DBBB247130747
:1047340050477DBF130780087337078013778708B6
:104744003AC101000100B716004013077005238029
:10475400E604130780FA2380E60401000100DA3638
:10476400056601161377F70F518F33470708DAB63A
:10477400238006040A477327078001000100850A85
:1047840093FAFA0F9DB233E6E60049CE0356CD0202
:10479400B335D0003307E0400D8F3305D040158288
:1047A4006345E00041E3637FA6060947637E570340
:1047B40093078008F3B7078093F787083EC3010087
:1047C4000100B7170040130770052380E70413079F
:1047D40080FA2380E70401000100DA377D8BDAB721
:1047E400238007049A473DB37337048013778708FF
:1047F4003AC501000100130770052300ED042300EE
:104804009D04010001000357CD02856681161377CC
:10481400F70F558F334707082316ED0223000D04C5
:104824002A4791BF93078008F3B7078093F7870857
:104834003EC701000100B71700401307700523802D
:10484400E704130780FA2380E70401000100DA3744
:104854009606369733470708DAB723800704BA4722
:1048640055B9914763ECB70497070200938707ADE6
:10487400B3C5F52098413E97B71700409387470B7F
:104884000287944337170040B3F6A64094C39306B7
:10489400070B9C42B3F7A74019A89443371700406D
:1048A400B3F6A64094C39306070B9C42C98F9CC2DF
:1048B4009307070A98433377A74098C382809443A9
:1048C40037170040C98ED9B798433377A74098C3A8
:1048D400B71700409387070A9843498FF9BF984355
:1048E400498FF5B719C5371700401E2FCD8F1EAF5E
:1048F4008280B71700409A2FB375B7408EAF82807D
:10490400B71700409A279306000C1377070C630A25
:10491400D7049A27137707100DC79A279E277D8BF4
:1049240009EB93F70720B1C33755E8011305058058
:10493400828037C59812FD8B130505E03345F502D7
:1049440082809A279E2713770720FD8B11C737553E
:10495400E80113050580DDB73725F400130505408C
:10496400F1BF2165130505D082803725F4001305B6
:104974000540828037E700E01C435443A183E206EC
:10498400D58F1CC1FD572320F7182322F7188280E6
:1049940013178500B7E700E023A0E710618123A285
:1049A400A7108280B7F700E088478280328581476C
:1049B40037370040A14663C3A70082803037E30F36
:1049C400D6FE3386F5001022850710A7EDB797F6BB
:1049D400FF1F93866668AA8788421727002013075B
:1049E400A781AA9763E9E7000A87130707FC6364B2
:1049F400F7009CC282807D558280411122C406C684
:104A04002A84FD3D2947B307E502B2408D83B3D71D
:104A1400870222449507B3D7E70237370040B3C76C
:104A240007085EA7410182807165411113050520C5
:104A340006C6E137B7370040130770F8B8A30D472F
:104A4400B8B31307000498B30547F8A7B24041016F
:104A540082803285D041411106C60C3203480600DB
:104A64000D66A205B3E505019308A6A21398556047
:104A740063C80803130626A2635806037576130653
:104A8400C65DB2951946B3C505086363B602170837
:104A940002001308E88BB3C50521904142960286B3
:104AA400130606A5630DC80E23900600A94515A09C
:104AB4001D469D45636FE6002146198E3356F60A5E
:104AC4009385819092A2BA9597C0FF1FE78060F901
:104AD4008145B2402E85410182802D469D45E36A81
:104AE400E6FE3146198E3356F60A97050200938581
:104AF400E58E92A2C9BF31469D45E36CE6FC35467E
:104B0400198E3356F60A970502009385258C92A2D6
:104B14005DBF41469D45E36EE6FA4546198E335620
:104B2400F60A970502009385258992A269BF41463A
:104B34009D45E360E6FA4546198E3356F60A970515
:104B440002009385258692A2BDBF41469D45E3623E
:104B5400E6F84546198E3356F60A97050200938502
:104B6400258392A28DB741469D45E364E6F645460A
:104B7400198E3356F60A970502009385258092A272
:104B840099B735469D45E366E6F43946198E3356A2
:104B9400F60A97F501009385657D92A22DB7194613
:104BA4009D45E368E6F2998D33D6F50A97F5FF1F24
:104BB4009385C54A92A201BF97F6FF1F9386460EBE
:104BC4004146CD4517F5FF1F1305450E6F70904004
:104BD4002D4825E7328590210947631DE604D84115
:104BE400411106C6102318332207518F416613085A
:104BF40046FE63030703636CE8007D0705463347FD
:104C04000708637BE60023900600294805A01516D3
:104C1400E31BC7FE154711A00547CC4533D6E70A69
:104C240092A297C0FF1FE780C0E30148B2404285CB
:104C3400410182802390060005484285828001114B
:104C440006CE22CC26CA4AC84EC680251374040256
:104C540055E083C905000948AE87639F090903A885
:104C64004500B2843689034308000348180022082B
:104C7400336868004163130E13FE6304C8030D1305
:104C8400630E68048D679387279029446310F804A2
:104C94006244F240D2444249B249854705616F609B
:104CA400801D29EF0547636DD704C8470546A685CF
:104CB40097C0FF1FE780E0DA814983A7C19299C7B3
:104CC4009C4389C74A86A6854E858297F2402285F1
:104CD4006244D2444249B2490561828005E30547F2
:104CE4006360D702C8470546A68597C0FF1FE780C3
:104CF40040D7E1B72144D9BF0544C9BF2D44F9B712
:104D04003544E9B7C167F917630CF502411122C4B0
:104D140006C685472A84639AF50022852244B24058
:104D24009385819141016F70F03489476396F50052
:104D34008545EF90302975D1B240224441018280EB
:104D44008280411122C42A844165938581917D1515
:104D540006C6EF703032170500001305E5FA058822
:104D6400EF90701D05C02244B24097F6FF1F938652
:104D7400E6064146C54517F5FF1F1305E506410143
:104D84006F705025B240224401454101828009C51B
:104D940023A6A19201458280454582801147636E16
:104DA400A70697F60100938666643345D52018411B
:104DB4004111AE87369706C6B2850287054761451D
:104DC400639AE70005461385819297C0FF1FE78029
:104DD40040C90145B2404101828005476145E39BDA
:104DE400E7FE054613854192CDB705476145E39338
:104DF400E7FE054613850192C9BF05476145E39B5C
:104E0400E7FC05461385C191C9B715476145E3938E
:104E1400E7FC1546138501914DBF09458280411178
:104E240022C42E849385819126C206C6AA84EF509B
:104E3400B07F058919CD97F7FF1F83D787061EA07A
:104E4400A2852244B24026859244014641016F6006
:104E54009042B24022449244494541018280114526
:104E64006FF0CF93411193962500AA852D4506C670
:104E740097B0FF1FE7806047B2400145410182803F
:104E8400011122CC26CA939625002A84B284AA85CD
:104E94000146254506CE36C697B0FF1FE780E0449D
:104EA400B2462686A285294597B0FF1FE780E043D6
:104EB400F2406244D244014505618280011122CC52
:104EC40006CE3714004026CA4AC84EC652C483448C
:104ED4007405034AB4058349840503499405EFE046
:104EE400BFE28347A40593F4F40F137AFA0F93E710
:104EF4001700230DF40493F9F90F1379F90FB71779
:104F0400004003C7A705058B6DFF03D5C705A38D17
:104F14004705238C3705A38C2705A38B9704F24000
:104F24006244D2444249B249224A05618280411115
:104F340022C406C62E849397556063DF070097C08A
:104F4400FF1FE78000A919C1EF0010051315F468CD
:104F5400B24022444101828093F7150013C5150025
:104F6400E5FB8967ED8F85C3EF60D12CCD3D37F626
:104F74000200130606E0896503C54193EF00B028DB
:104F84001315D468F1B711656D8D79D117F501004A
:104F940013050547EFE0611F13060064916503C51F
:104FA4004193EF0050261315E4685DB71D7149461F
:104FB40097F501009385054517050200130545D1B2
:104FC40086CEA2CC97C0FF1FE78040BB01E917F54E
:104FD400010013056544EFE0411B01A037F700E031
:104FE40023240700F9571CCB0564B7E700E023A08E
:104FF4008710BD4614C323A087180100010017D7EA
:10500400FF1F1307E7DC23A8E192130700F8A38A24
:10501400E7401306C0038145480897C0FF1FE78097
:10502400C0AA97F7FF1F9387E7363ECA896793871D
:105034000780FC84A167938707E03ECEB70701058C
:10504400938707103ED0ED472312F10285472303CF
:10505400F10297070000938727E1BEC49707000079
:10506400938747E2BEC6930754D12314F1029707EE
:105074000000938767933EDAB7F5070097070000AF
:10508400938707E43EDE814697070000938767DD38
:105094007000E1051945BEC097B0FF1FE780E0240A
:1050A40019466C001305E102EFE0BFC3D24781C784
:1050B400BC8463F3870001A04808EF00106CAA8544
:1050C40001C917F5010013056536EFD0317801A049
:1050D400F6406644256182804111170500001305DE
:1050E40045E506C622C4EF00B0661384419308A0C8
:1050F400112808202244B240130600328965410178
:105104006F007010397106DE13078008F3370780CB
:1051140093F787083EC201000100B71700409305CA
:1051240070052380B704130680FA2380C7040100A6
:10513400010083C6F70293F6A60FA387D702238044
:1051440007049246F3A60680010001007337078026
:10515400137787083AC4010001002380B704238031
:10516400C7040100010003C7F70213672700A387E0
:10517400E70223800704A247F3A707800100010088
:105184000545EFE0BFC0E139814701478146054647
:1051940085451305407EEFE05FC4680013064002B6
:1051A400814597C0FF1FE7804092B707C0A83ECA59
:1051B400B787E803938707D03ECC97B7FF1F938741
:1051C40047753EC6680097B7FF1F938707763EC8AA
:1051D400EF108007F250216182802A86B305B04027
:1051E40017F50100130585266FD05166011106CE0F
:1051F40019C589476301F502F240056182806800A0
:1052040097C0FF1FE780E08517F50100130585258A
:10521400EFD0B177D5B7680097C0FF1FE7806084EF
:1052240017F501001305C525E5B713874194AE872B
:105234000E23639CA50052A317F501001305052650
:105244003E863EA376A36FD0716017F50100130567
:1052540065266FD091731387419456211E23639161
:10526400F604011106CE22CC1384B1820820C16752
:10527400F91789451CC323A40194EF007021082069
:105284009145EF00F02085471306F100854513058D
:105294005030DC87EFB0814BF2406244056182807C
:1052A40017F50100130505216FD0316E3D897D1579
:1052B400954763E6A71417F701001307A72B334597
:1052C400E5201C41411122C4BA9706C626C22E8489
:1052D400828717F501001305651E2244B2409244EB
:1052E40041016FD0916ABC2119476390E7022E8572
:1052F4009D376C2017F501001305451DEFD011559E
:1053040017F501001305451EC9BF0D47E38AE7FEE3
:10531400B2402244924441018280B8219547E31966
:10532400F7FE93874194962341677917AA25638FE3
:10533400E600EFB0416A17F501001305E51BEFD055
:10534400D16417F501001305A51D41BFFA25938407
:10535400B1828AA3BAA39A29882013060064DAA327
:10536400BA298945FAA3DD472390F182EF00A069A9
:105374008820096613060690A145EF00C0688820BE
:105384000566130606C89145BD2D72242E2417F513
:1053940001001305A517EFD0714B65B7B8218D47F0
:1053A40017F5010013058518E314F7F63DB7AC2192
:1053B40091476397F50017F501001305A51831BF50
:1053C4009947639FF500228579356C2017F5010014
:1053D4001305C50F2244B240924441016FD01147D6
:1053E40095476399F5001C30F9F717F5010013058B
:1053F4002517E5B517F5010013050517E1BF8280F0
:10540400011126CA06CE22CCAE849397556063D888
:10541400070803C5B18297B0FF1FE780805B2A8429
:1054240021C11C211307000B638CE7041307000D33
:105434006396E7023C214547638BE7026547639F18
:10544400E7000348A5001C351825743170214C3140
:1054540017F5010013058513EFD0513F22852D2E3A
:105464001395F468F2406244D2440561828070214D
:105474006C3117F5010013056514EFD0313DF9BF08
:1054840058219307F007E31BF7FC0E2517F50100DD
:10549400130585142390B182EFD0513BC1B793F724
:1054A400150091CF17F6FF1F130646AB938501B382
:1054B40003C5B182EFB0610013C5140065B793F75B
:1054C4002500ADC713060064894503C5B182252BA9
:1054D400930780F85C8203D701828D4763EBE70072
:1054E40017F5010013058510EFD0314A13C52400C8
:1054F40095BF138441940A20854701478146054698
:10550400ED457C85EF50A04B2AC66DD130854C000B
:1055140097B0FF1FE780E0540A202C00EFF03F9083
:1055240071D5ED452800EF500061C9B793F78500A8
:1055340085C383C7B182130740068146130640061C
:10554400994503D54194EFA0D17013C5840019BFC8
:1055540093F705019DC3014789460946814503D553
:105564004194EFB0A149AA8517F501001305050977
:10557400EFD0D12D13C50401F5B513F54500E303B0
:1055840005EE03D54194EFB0C1440566130606C881
:10559400914503C5B182852913C54400E1B57971EC
:1055A40017050000130505E606D622D426D2EF001F
:1055B400301A9384B1829947054488A0FC8210086C
:1055C40093074006854513055030FC842308810069
:1055D400EFB0C11717F6FF1F1306869AF14513059E
:1055E4007030EFB0A116138641829D4513056030DB
:1055F400EFB0C1155008894513051031EFB00115FE
:105604003008894513052031EFB041149305000596
:105614000D45EF206053930500051145EF20C0525E
:1056240085457945EF204052300891451305704077
:10563400408440862308810002CC230A0100EFA0A5
:10564400E1023000854513050040EFA021027000FF
:10565400854513051040EFA06101500885451305E9
:105664002040EFA0A1001008854513055040EF909D
:10567400F17F13053003EF40905413053003EF70AE
:10568400401CEFF06FD313053003EFF08FEB17F6E8
:10569400FF1F1306668DD5450145EF403035894718
:1056A4005C868D472308F1009147230AF100B70770
:1056B4000304938717203ECC300095478545014568
:1056C400230EF1004084EFF06FED70008545054531
:1056D400EFF0CFEC100885450945EFF02FEC5008AA
:1056E40085450D45EFF08FEB300895451145EFF0FA
:1056F400EFEAC16713874194F9171385C1811CC36D
:1057040023220700EFF0AFE81385C193EF80B15374
:1057140022548820B25092548545456117D3FF1F07
:10572400670003364111114506C6EFE02FE113056A
:10573400503497B0FF1FE78060F3B717004011673C
:1057440023ACE70AC1450545EFF0CF998D451165B6
:10575400EFF02F91EFF04FAD17F50100130545570A
:10576400EFD0B122EFF09F84EFF01F97EFB0412903
:105774003D3597B0FF1FE780801D184183A785FF43
:105784006319B7001CC1FD5723AC05FE238FF5FE3A
:105794008280232CF6FEC5BF411122C437E400E009
:1057A40026C204403707200006C6F98C2320E418DB
:1057B4000F10000009E9232094101545B24022443B
:1057C4009244410182800347E5FF9307F00F63068B
:1057D400F700232094101145D5B797D0FF1FE78019
:1057E400E0C6014523209410D1BF41114AC037E9D6
:1057F40000E022C403240900B707200006C626C21D
:105804007D8C2320F9180F10000089E523208910CE
:10581400154515A0AA849707002083C7B7372E859E
:1058240063F5F400894763EE9700BD37B7E700E0FE
:1058340023A087100D45B2402244924402494101FD
:10584400828083A785FF99E703C7E5FF9307F00FDD
:105854006308F7009137B7E700E023A087104DBF36
:10586400238F95FE1385C19497B0FF1FE780A00E88
:10587400A165268597D0FF1FE7808020014523205E
:10588400891055BF23A6019482804111B7E700E037
:1058940026C284433707200006C622C4F98C23A0FD
:1058A400E7180F1000009707002083A727331384FD
:1058B400C18291C782971C40AA971CC021A083A7CC
:1058C400C195EDFB0840B74703009387D73F3305E5
:1058D400F502B7A72600938737ECB2403E9508C07F
:1058E4002244B7E700E023A097109244410182804C
:1058F400B7E700E09843B706200023A0D718758FB8
:105904000F1000009706002083C6D628637ED500BA
:1059140083A681963325D5201621B3F5B6400EA172
:1059240023A0E7100145828023A0E7100D45828063
:105934007971B7E700E026D284433707200006D602
:1059440022D44AD04ECE52CCF98C23A0E7180F10A3
:105954000000930705FF93F7F70F7D47636FF70880
:1059640031473307E50283A7C196BA979C43D1C751
:10597400135445003D893315A028AE89B345050865
:1059840022852EC697D0FF1FE780E0EF2A8929C918
:10599400B2452285170A0020130A4A27913F83A79C
:1059A400C19582978357CA002A8481463387370377
:1059B40013060064B3B7370313050732B335E500A4
:1059C400BE95EFD0012FB307850083268A003E875A
:1059D40063E4A70063E4D7003387D7402324E900B6
:1059E400B7E700E023A097100145B2502254925427
:1059F4000259F249624A45618280B7E700E023A078
:105A040097100945DDB7797122D437E400E04AD014
:105A140003290400B707200006D626D24ECE52CC66
:105A240056CA5AC85EC63379F9002320F4180F10F9
:105A340000009707002083C7F7156376F50083AB52
:105A4400C19563970B00B7E700E023A0271199A045
:105A5400970A0020938A8A1B03AB8A00B74736FE55
:105A6400938707C83E9B83D7CA002E8AAA84B3852E
:105A7400C702B2898146B3B7C70213850532B3356D
:105A8400B50013060064BE95EFD0A1226370AB028B
:105A9400232024110145B250225492540259F24950
:105AA400624AD24A424BB24B45618280829B83D781
:105AB400CA002A8413060064B38537038146B3B74A
:105AC400370313850532B335B500BE95EFD0611E9B
:105AD400B307850003A78A003E8463E4A70063E458
