:040000006F40400904
:100004000000000000000000A0000020F407002011
:10001400A9BDF9F3E0010020000000000000000089
:10002400E0010020A000002000000000000000000B
:10003400A000002000000000A0000020000000003C
:10004400A0000020A0000020A0000020A0000020AC
:10005400A000002074080020A00000200000000080
:10006400A0000020A0000020A0000020A00000208C
:1000740020090020A0000020A0000020A0000020F3
:10008400A0000020A0000020A0000020A00000206C
:10009400A0000020A0000020A0000020A00000205C
:1000A40001A0B7170040984B41111367070198CB83
:1000B400982B1377E70F98AB1307800873370780E3
:1000C400137787083AC601000100130770052380DF
:1000D400E704130780FA2380E70401000100B8470E
:1000E400894613675700B8C703C7B7041377F70DDA
:1000F400A385E704B82713672701B8A7130750148B
:100104009AA737270040A303D78003C7E7041377D0
:10011400C70F136717002387E704982B136717008B
:1001240098AB23800704B247F3A7078001000100BE
:1001340041018280EFF0FFF61305401E9705000091
:100144009385450A174600001306C6F463FAC500F2
:100154008322050023A0550011059105E3EAC5FE9D
:1001640017B502E0130585FE97450000938585F2D7
:100174001386419063FAC5008322050023A055002D
:1001840011059105E3EAC5FE13858190977500007A
:10019400938545C76377B500232005001105E36DFA
:1001A400B5FE93025002739002BC8D42739042805C
:1001B4008542739012BC93028008739002309702B8
:1001C4000000938222E493E23200739052309752FB
:1001D40000E0938262A9739012347300203000000F
:1001E4009305000273A045808245739015349240B4
:1001F4002242B2424243D2436244F24402559255EF
:100204002256B2564257D2576258F2580649964976
:10021400264AB64A464BD64B664CF64C065D965D6E
:10022400265EB65E465FD65F096173002030230305
:10023400048015472303E48001002302A480828004
:1002440083076480E3CE07FE230304808280830750
:100254006480E3CE07FE0345448082808307648084
:10026400E3CE07FE2302A4808280411126C44AC241
:100274004EC006C61377F50BAD47AA892E8995445F
:100284006306F70019456537653F8D444E8545374C
:10029400FD59FD1463983401B240A24412498249C5
:1002A40041018280135509011375F50F453F220959
:1002B400CDB7011126CC06CEB70408005137154539
:1002C400BD37713769372AC6A53F32459377150084
:1002D40089EB136515001375F50FF240E2440561CF
:1002E4008280FD14E9FC0145CDBF397126DC4ADA70
:1002F4004ED852D656D45AD25ED006DE62CE66CCE2
:10030400B7E700E07D5783AA070022C603AA470087
:1003140023A0E71823A2E718B717004013077005B6
:100324002380E704130780FA2380E70483C7470484
:10033400930B75FFB684E20793FBFB0F8546AA89EE
:100344002E8B328937240040E187015763FA760106
:100354006308D5008946130700026313D5000157CB
:10036400D98F93F7F70FB71C00402382FC04114781
:100374002303E4801305F00F5D3D094CD135636D13
:100384007C11B7050700DA9537870700795563F2C2
:10039400E504B3879500636EF702370B0800A9479D
:1003A40033EB65016399F90689E48144513D26855F
:1003B4000DA0DA850945553D05090345F9FFFD14EE
:1003C400050B693D81C49377FB0FFDF7DD3569FDAE
:1003D4007D55B7170040130770052380E704130702
:1003E40080FA2380E70403C74704418B2382E70490
:1003F400F250B7E700E023A0571123A24711E254BB
:1004040032445259C259325AA25A125B825B724C1C
:10041400E24C21618280A5476395F9068569130939
:10042400F00FB3069900B3742B01B6941349F9FF86
:10043400B3749900856B33796901416B9387F9FF34
:10044400B3F7270199E363FC340193D94900C14709
:10045400E3E637FF99BF0569C1697D19D9B713056B
:10046400800D638869011305000263847901130513
:100474001008CA85DD3B353D21DD4E99B3843441F6
:10048400D9B7DA852D45D533CA94E30099F2050925
:100494007D3BA30FA9FED5BF9387F9FF93F7F70F11
:1004A4006361FC0C83C71C0413073008631FF70443
:1004B40037070800636BEB04B3079B00B706100013
:1004C40063F5D704334BEB0089476393F9068980BE
:1004D400D549E38C04ECDA850945413B110903272E
:1004E400C9FF91472320E48003076480E34E07FE9D
:1004F40023033481FD17EDFBFD14110B81C49377A5
:10050400FB0FE9FF7D3371F5E1B5B717004003C771
:100514005704B70708001377070219E3B7870700E2
:100524007955E378FBEA33079B00E3FFE7F855B519
:100534008547E382F9F2DA852D45053B9389F4FF7B
:10054400E38504E6293393F7390091EB832604808D
:100554000327090093074900E39AE6E43E89CE8421
:10056400F1BFB5476396F9001305900BC93135BD4A
:10057400B1471305B00AE38BF9FE99476391F90477
:10058400B7050800B365BB002D45C53181448D4BCB
:10059400A149753963967401832704802320F900E7
:1005A4008504E39834FF8327048013172B016355D4
:1005B40007002312F900D5BB2322F900FDB39D47A0
:1005C4006399F90281451305B0044531BD442320E4
:1005D400090023220900FD599D3993F77400CA9735
:1005E40003C70700FD14398D2380A700E39634FF69
:1005F4006DBBA1476392F9046D398144630D0B000F
:100604008D479304C0036308FB009304000563044F
:100614008B01930440041375C507E30895D8194565
:10062400393139390545213126850D3909453D31A1
:100634004931E31C05D669BB91476399F900130559
:100644006006F536F53E130590090DB7E38F09D41E
:10065400F154A9BBB7170040984B41111367070128
:1006640098CB982B1377E70F98AB13078008733751
:100674000780137787083AC6010001001307700545
:100684002380E704130780FA2380E70401000100B4
:100694001307000C6315E5029A271367070C9AA742
:1006A400B7170040982B1367170098AB23800704F3
:1006B400B247F3A707800100010041018280B827F7
:1006C40093760520DDC2118B29E303C7E70403C633
:1006D400E7041377F70F136636002387C704B027A0
:1006E40013664600B0A792278E273346060893E583
:1006F400050C8EA7A5470100FD1793F7F70FE5FF3B
:10070400B717004092A72387E70493770510D5C74E
:10071400371700403C2793E707013CA79377F5017F
:10072400A9EBB727004003C7578013670701A382CB
:10073400E7801D47A383E78033450508B7170040CA
:100744001367050C9AA78AA7D5C203C7570483C6A3
:100754005704418B858A558F21F7B82B418B29D3B8
:10076400B8271377D70FB8A725BF13672700B8A7F3
:1007740069BF2547636CF700B727004003C757805C
:100784001377F70EA382E78005476DB793770501CA
:1007940099EBB727004003C757801377F70EA3825E
:1007A400E780094741BFB727004003C75780136755
:1007B4000701A382E7800D47B5BF9377850181EFD9
:1007C400B727004003C757801377F70EA382E7804B
:1007D4001307100585B7B727004003C75780137761
:1007E400F70EA382E78013077005A9B7B82713771C
:1007F400B70F95BF41118146014681451145F53436
:1008040013078008F337078093F787083EC4010075
:100814000100B7170040130670052380C704930630
:1008240080FA2380D70401000100FD55CEB7238050
:100834000704A245F3A50580010001007337078072
:10084400137787083AC6010001002380C704238078
:10085400D7040100010003C767041367170023834B
:10086400E70423800704B247F3A7078001000100CF
:1008740001A00000197106C212C416C61AC81ECA05
:1008840022CC26CE2AD02ED232D436D63AD83EDA4C
:1008940042DC46DECAC0CEC2D2C4D6C6DAC8DECA7C
:1008A400E2CCE6CEEAD0EED2F2D4F6D6FAD8FEDA2C
:1008B400938501938841E700050092402242B242A9
:1008C4004243D2436244F244025592552256B256F0
:1008D4004257D2576258F25806499649264AB64AB0
:1008E400464BD64B664CF64C065D965D265EB65E70
:1008F400465FD65F0961730020304111B71700408D
:10090400985F3AC6945F3247E39CE6FE3245410164
:100914008280B7E700E03707001023A0E720828039
:10092400B7170040130700032388E702854723AC69
:10093400F19273002030411106C67523FDBF23AC2C
:1009440005FE1C4199E30CC182803E8783A787FF83
:10095400EDFF232CB7FE8280411126C2B7E400E0EC
:100964004AC003A90400B707200006C622C433798D
:10097400F90023A0F4180F10000009E523A02411A6
:10098400014535A09565938505D0C98D2A84210537
:10099400B3C5050833450508EF10F05D65D1FD5773
:1009A4002320050042A17CA123A024112105B240EB
:1009B400224492440249410182804111B7E700E098
:1009C4004AC003A9070026C23707200006C622C46E
:1009D400AA843379E90023A0E7180F10000083A745
:1009E40041950144014685E301C8A28513854195DB
:1009F400975000E0E78080A6A1652685975000E027
:100A0400E78020F70DA003C7E7FF6319970205CC21
:100A1400A28513854195975000E0E78020A4A16545
:100A24002685EF20E044B24022852244B7E700E067
:100A340023A02711924402494101828011E03E869D
:100A440083A787FF4DB73E84E5BF37E700E01C432B
:100A5400B70620002320D718F58F0F10000019C106
:100A640091C111E637E700E02320F71082802E962B
:100A74000F70B650D5BF37E700E01C43B70620001F
:100A84002320D718F58F0F10000019C1014785E105
:100A940037E700E02320F7108280B386E50003A83F
:100AA4000600B306E5007D1623A00601110775F6BE
:100AB400C5B737E700E01C43B70620002320D7184A
:100AC400F58F0F10000001C53307C50011E637E7A5
:100AD40000E02320F71082800505A30FB5FEE31D77
:100AE400E5FEF5B7B7E600E09C42370620002A870A
:100AF400F18F23A0C6180F1000000145B306A7000C
:100B04008386060091E637E700E02320F710828011
:100B14000505EDB70111B7E700E026CA84434AC8CA
:100B24003707200006CE22CC2A892E86F98C23A0F2
:100B3400E7180F1000009305F00432C63345060889
:100B4400EF1070432A8401C53246CA85FD3DF24048
:100B540022856244B7E700E023A097104249D244BB
:100B64000561828037E700E01C43B706200023209C
:100B7400D718F58F0F10000001C599C1014711EA7C
:100B840037E700E02320F710054582800507E309D5
:100B9400E6FE3308E500B386E50003480800942226
:100BA400E306D8FE37E700E02320F71001458280F2
:100BB40037E700E01C43B70620002320D718F58F41
:100BC4000F1000001307F6FFBA952A966317C500A5
:100BD40037E700E02320F71082809821FD150505F2
:100BE400A30FE5FEE5B737E700E01C43B706200096
:100BF4002320D718F58F0F10000001C53307C50057
:100C040019E637E700E02320F7100145828014211C
:100C14000505E398B6FEE31CE5FE37E700E0232074
:100C2400F71005458280797126D29384C19622D427
:100C3400804006D64AD04ECE52CC56CA5AC85EC65A
:100C440062C445C837C9C901814B938A41961309C7
:100C5400F937176B0000130B6BB797690000938982
:100C640069B4176A0000130A6ABB3E2099EF5C441A
:100C7400639A0B009CC0032CC4002285EF10103C27
:100C84006284A9A823A6FB00FDB783A70A00829764
:100C94001C443307F5406376F50003278A001D8F53
:100CA4002A97636BE9069767000023A507B02E20F7
:100CB4000820EF20E01B5C405844A1CB0C4417668D
:100CC4000000032626B6AE97BE8663E4B70063E44D
:100CD400C700B386C74014C4A28B3A8459F417677B
:100CE4000000130727AC1C4B854663FBF604FD1775
:100CF4001CCBB250225492540259F249624AD24A4D
:100D0400424BB24B224C4561828063940B0098C0E5
:100D14009DB723A6EB0085B703274B0219CB63EDE0
:100D2400A7003385A74083A709016374F50023A8AE
:100D3400A900A28B40445DB703278A00BA97D5B7B0
:100D44009767000023A807A66DB70111B7E700E075
:100D54004AC803A907003707200006CE22CC26CABA
:100D64004EC652C43379E90023A0E7180F100000DF
:100D740097640000938484AA9C288844A9CF976729
:100D84000000938727DB03D7C70A31C703A4870A68
:100D94006303A404976900009389C9A083A7090188
:100DA4006388A70E138A419683270A008297636E8D
:100DB400A40C83270A00098C829783A7090198440D
:100DC4003354F40AB307A4003E8563E4870063E464
:100DD400E7003385E740B7E700E023A027119C44F0
:100DE400639BA702176400001304C49B184883A7DD
:100DF40041966311A70A82979444374736FE130736
:100E040007C83697B307A7003E8563E4E70063E4A9
:100E1400D7003385D740176400001304A4F45C5C46
:100E240089CB83A601A89C463707CDFF7D17F98F90
:100E34009CC611E1884485475CD09767000083A76E
:100E4400279B829715E15C5C99CF5C5089CF97F022
:100E540001E0E780806997F001E0E780A0E397670D
:100E6400000023A307F2C1335C5C81CB03A701A874
:100E74001C47B7063300D58F1CC7F2406244D244E6
:100E84004249B249224A056182809C443E9415B786
:100E9400228591B7829714489844B387A6003E856B
:100EA40063E4D700E3E9E7F63385E740ADB723AC65
:100EB400A19401C58547238EF194828083A78195EF
:100EC40081CF411106C6829783C7C19599E323ACAC
:100ED4000194B2404101828083C7C19581E723AC6C
:100EE400019482808280411122C426C206C64AC06F
:100EF40097640000938404E783C7340217640000F6
:100F040013048490B9C3176400001304A4891389DB
:100F14000197032709001C2014300146B3A5E720DC
:100F24008E21B5C911C21CA00820636DD506976730
:100F340000002389078683A74196D5E7B24022445F
:100F4400924402494101828082971C40F5FF9767D1
:100F5400000083C7A78D85E3DC48858B89CFD84CF7
:100F64009947631EF7009767000023A707E0EF1077
:100F7400C0495C4482971C44D9D7829769B7D84C3E
:100F84009D47E31AF7FE9767000023A707DEEF10DB
:100F9400C0471C48C5B7850793F7F70F0546E3EF2D
:100FA400D7F651B73327E5200E2323100700239FDC
:100FB400019483A78196B347F5209C4382971C2014
:100FC4008326090003D7E1953377E540B3A6D720FC
:100FD4009222518F9AA299C385071CA018201C3015
:100FE400E36EF7F4A9B79767000083A7A7831CC82B
:100FF4001D3983C73402B9F383C7140299CBDC4C7F
:1010040089EB97670000A38F07D697F001E0E7808C
:10101400A0F19757000083A7A77D8DD3D84C9147A3
:10102400E3EEE7F09767000083C747AF918BE39740
:1010340007F083C7C195E39307F0183083260900AE
:1010440063C8E7002244B240924402494101F5B921
:1010540033A6D7201222E31306EE8507D5B7B7C708
:1010640000401387C72014431396264910C3010078
:1010740001009387872617550000032565749C4358
:101084006A0514C393C7F7FF99835D8D828041116C
:1010940026C2976400009384E4CC9C4422C406C610
:1010A400858B17640000032424AFA1C71828976711
:1010B400000023AD07CA8947630DF7020146930573
:1010C40050020145EF10405F014681450545EF1090
:1010D4000048DC44858B91CF2244B2409244814540
:1010E400173501E0130585754101175300E06700CA
:1010F400A3A2EF20706522852244B24092444101AC
:101104006F1050709767000083A7C7AC6399071CE2
:10111400011122CC2A84094506CE26CA4AC84EC6E5
:10112400938401A7EF207069904093078007138987
:1011340041A67CD283270900938901A8B70533000F
:10114400D8572285719B13671700D8D79843137714
:10115400F7CF98C398431377F7CF1367072098C343
:1011640003A709001447CD8E14C7B706030093865E
:10117400862534CA5457F59A54D7984334241377A0
:1011840007F893F6F607558F98C3EF10107D944037
:10119400370500827D15DC4293E71700DCC2032685
:1011A4000900030784065C569375F703E605E98F87
:1011B400CD8F5CD69305A00383A7090063D9E50A04
:1011C400F84FB70500074D8FF8CFB7C7898E9387BF
:1011D40067ED1CC6B7575500938757555CC28347C4
:1011E400A40683494406B3E9F90089471767000058
:1011F4002328F7B89767000023AC07B67C44BCDE0D
:101204009757000083C78762D9CFFC52FDFF0C3883
:101214004E859767000023AB07B4EF10602B1828A6
:101224009D47172500001305C5326306F70017050F
:101234000000130505E6A539832709009843131711
:10124400772998C3D857719BD8D79767000023A5EF
:1012540007B29767000023A907B09C40F24062449C
:10126400094798C3D2444249B24905618280930533
:10127400200263DAE500F84FB70500F9FD156D8F1C
:10128400B705000589B7B70500F96945FD1563572A
:10129400E500F84F6D8FB705000335B7F84F6D8F34
:1012A4001317872915B718289D478145172500006E
:1012B4001305252A6306F70017050000130565DDED
:1012C400975000E0E780408510386244F240D244F1
:1012D4004249CE85B249014505616F10402782809D
:1012E4009767000093870785E85305475425639063
:1012F400E60203C747079147631AF700011106CEB8
:101304002AC6EF10F04B3245F2400561E5BB8280FE
:1013140083278511E5CB411122C406C65825834590
:10132400E5049437D2272A841377C70F13954660B0
:1013340063F7C50663510506882793F6F60794B745
:101344000546936627006314C5009366170054A4EA
:10135400D8430907D8C3032504114CB82E86CC43BF
:101364000905EFF08FEE832784115438D84336975C
:10137400D8C3DA27158FDAA789473CBC034764032F
:101384009757000083C7A7456369F706B240224414
:101394000145410182801367170058A46DBF9376FD
:1013A400F60F6355050288278545136627006314E5
:1013B400B5001366170050A454B8A38407008547EA
:1013C4003CBC832784119C43D5FBC9B71367170022
:1013D40058A454B8A384070003250411CC43090579
:1013E400EFF0AFE6832784115438D8433697D8C337
:1013F400DA27158FDAA78D47E1B75C2493E7070155
:101404005CA469B705458280411183A7C1A422C4A5
:1014140006C6858B2A84C5E74165130525F59750D3
:1014240001E0E780600A41CD3C253EA583270412F4
:10143400ADE32320A4122322A41285472311F4042C
:10144400232005007C2854415EA5583418A505477F
:1014540018B51385170217670000032767941581D1
:101464001C437D151375F50F9CC25C43DCC21C47FD
:101474009CC65C47DCC61C4B9CCA5C4BDCCA1C4F3C
:101484009CCE5C4FDCCE0DC1938606021307070287
:10149400C1BF8327441288C3835724042322A41280
:1014A4008507B3C7070859BF175700001307876894
:1014B4001E2785071EA7B2402244410182805C2476
:1014C40023090400054593C747005CA4EDB7142D18
:1014D400854763ECD70A1C3D2A870145CDEB5C2781
:1014E40013F507013C2B99CB8346670397570000FC
:1014F40083C7F72E63ECF60001E5828049E582801C
:101504008357271E0357671EBA9721A08357271EA8
:1015140075F90145ADCF9387C712175500000355E0
:10152400A530B3B5A70237460F00411113060624B0
:10153400814622C426C206C67D543385A70297700D
:1015440002E0E78020429754000083C4B429AA949F
:101554009757000083A7476703A707099C433354A1
:10156400E40AFDFB83A74196829781476364A40044
:10157400B307A440B240224433B597001345150085
:101584009244410182808147B5BF014582808280B7
:1015940003A701A73C5BFDFF01000100828035C960
:1015A40001116C0022CC06CE2A84EF20A07429C934
:1015B400FD57630CF50417570000130727215453F4
:1015C400B2479DC22547637BF700938567FF0345B8
:1015D40094026244F24005616F10700D17570000C9
:1015E40003274724BA97D5B70C3F63E5B700B38503
:1015F400B740F1BF175700000327C722BA97C5BFEA
:101604006244F24005616F20E033F24062440561B8
:1016140082808280797152CC175A0000130A8A5151
:1016240026D283244A0906D622D44AD04ECEC5C82F
:101634009757000093870773D44F15476384E604D4
:10164400DC532A8989CF97F001E0E78000EA97E02C
:1016540001E0E78020649757000023A70772FD5933
:101664006C002685EF2000691DE517250000130591
:10167400A52DEFF0DF8383A701A73707100098C7D4
:101684000547B8DB0D45B250225492540259F24931
:10169400624A45618280637435013244AA89844078
:1016A400E1F0FD571305F00FE38FF9FC914763F167
:1016B40087029307B4FF2320F9002324FA0A99E749
:1016C4009757000083A707162320F900014565BF3B
:1016D4009757000083A70715ED17A297E9BF09459F
:1016E4005DB7797126D206D622D44AD04ECE52CCDA
:1016F40056CA5AC85EC68347550303447513AA8461
:101704003E941374F40F9307400263F687001304A6
:10171400B4FD1374F40F03A9841383A9C413A38B16
:10172400841222864A85CE85977002E0E780C01E27
:10173400058915E503CBD412014A814A337B64033E
:10174400930B500252864A85CE85977002E0E7805B
:10175400A01C05890DC563916A031374FA0F238BCA
:101764008412B250225492540259F249624AD24A23
:10177400424BB24B45618280850A939A4A60050ABE
:10178400E3127AFDE9BF83278509035605047971BD
:1017940093D60701BD8EB3C60608358E93575640BF
:1017A400898B135776485D8F93573640918B5D8FA5
:1017B40093571640A18B5D8F93171600C18B5D8FD5
:1017C4009317360093F707025D8F9317560093F72C
:1017D40007045D8F9317760093F7F70F22D45D8F7C
:1017E4002A849357D6001355B6001189898B9355D3
:1017F4008600C98F1355F6002582C98F218AD18F9F
:1018040013961500418AD18F13963500137606027C
:10181400D18F1396550013760604D18F1396750055
:101824001376F60FD18FA207C5455D8F3307B70234
:1018340026D24AD04ECE032984138329C4135AC80E
:1018440006D652CC56CA3697334707081356574024
:10185400098A93577748D18F13563740118AD18F0D
:1018640013561740218AD18F13161700418AD18F3E
:101874001316370013760602D18F1316570013760A
:101884000604D18F131677001376F60FD18F1358F1
:10189400B7001356D70013784800098A13558700F8
:1018A400336606011358F700258333660601218B3E
:1018B400518F13161500418A518F13163500137674
:1018C4000602518F1316550013760604518F131612
:1018D40075001376F60F518F2207D98FB387B7029D
:1018E4005EC6B697B3C7070813D55740098913D7FF
:1018F4007748498F13D537401189498F13D517403D
:101904002189498F139517004189498F1395370011
:1019140013750502498F1395570013750504498FF4
:10192400139577001375F50F598D13D8B70013D796
:10193400D70013784800098B13D687003367070153
:1019440013D8F700A58333670701A18BD98F131729
:101954001600418BD98F1317360013770702D98FDE
:1019640013175600137707041E06D98F1376F60F44
:10197400D18FA2073367F5003307B702130650026D
:101984004A85CE853697B98EB3C4060833F6C402A9
:10199400137BF60F977002E0E78000F8058905E9EC
:1019A400834AD412014A930B5002B38A9A028144A7
:1019B40093DA0A0126864A85CE85977002E0E7808D
:1019C400A0F505890DC563914A0313FBF40F230B9E
:1019D4006413B250225492540259F249624AD24AD0
:1019E400424BB24B45618280050A137AFA0F850493
:1019F400E39274FDE9BF8327C5080356850879710E
:101A040093D60701BD8EB3C60608358E935756404C
:101A1400898B135776485D8F93573640918B5D8F32
:101A240093571640A18B5D8F93171600C18B5D8F62
:101A34009317360093F707025D8F9317560093F7B9
:101A440007045D8F9317760093F7F70F22D45D8F09
:101A54002A849357D6001355B6001189898B935560
:101A64008600C98F1355F6002582C98F218AD18F2C
:101A740013961500418AD18F13963500137606020A
:101A8400D18F1396550013760604D18F13967500E3
:101A94001376F60FD18FA207C5455D8F3307B702C2
:101AA40026D24AD04ECE0329040A8329440A5AC8AE
:101AB40006D652CC56CA36973347070813565740B2
:101AC400098A93577748D18F13563740118AD18F9B
:101AD40013561740218AD18F13161700418AD18FCC
:101AE4001316370013760602D18F13165700137698
:101AF4000604D18F131677001376F60FD18F13587F
:101B0400B7001356D70013784800098A1355870085
:101B1400336606011358F700258333660601218BCB
:101B2400518F13161500418A518F13163500137601
:101B34000602518F1316550013760604518F13169F
:101B440075001376F60F518F2207D98FB387B7022A
:101B54005EC6B697B3C7070813D55740098913D78C
:101B64007748498F13D537401189498F13D51740CA
:101B74002189498F139517004189498F139537009F
:101B840013750502498F1395570013750504498F82
:101B9400139577001375F50F598D13D8B70013D724
:101BA400D70013784800098B13D6870033670701E1
:101BB40013D8F700A58333670701A18BD98F1317B7
:101BC4001600418BD98F1317360013770702D98F6C
:101BD40013175600137707041E06D98F1376F60FD2
:101BE400D18FA2073367F5003307B70213065002FB
:101BF4004A85CE853697B98EB3C4060833F6C40237
:101C0400137BF60F977002E0E78000D1058905E9A0
:101C1400834A1408014A930B5002B38A9A028144FE
:101C240093DA0A0126864A85CE85977002E0E7801A
:101C3400A0CE05890DC563914A0313FBF40F230F4E
:101C44006407B250225492540259F249624AD24A69
:101C5400424BB24B45618280050A137AFA0F850420
:101C6400E39274FDE9BF832745090356850879711A
:101C740093D60701BD8EB3C60608358E93575640DA
:101C8400898B135776485D8F93573640918B5D8FC0
:101C940093571640A18B5D8F93171600C18B5D8FF0
:101CA4009317360093F707025D8F9317560093F747
:101CB40007045D8F9317760093F7F70F22D45D8F97
:101CC4002A849357D6001355B6001189898B9355EE
:101CD4008600C98F1355F6002582C98F218AD18FBA
:101CE40013961500418AD18F139635001376060298
:101CF400D18F1396550013760604D18F1396750071
:101D04001376F60FD18FA207C5455D8F3307B7024F
:101D140026D24AD04ECE0329040B8329440B5AC839
:101D240006D652CC56CA369733470708135657403F
:101D3400098A93577748D18F13563740118AD18F28
:101D440013561740218AD18F13161700418AD18F59
:101D54001316370013760602D18F13165700137625
:101D64000604D18F131677001376F60FD18F13580C
:101D7400B7001356D70013784800098A1355870013
:101D8400336606011358F700258333660601218B59
:101D9400518F13161500418A518F1316350013768F
:101DA4000602518F1316550013760604518F13162D
:101DB40075001376F60F518F2207D98FB387B702B8
:101DC4005EC6B697B3C7070813D55740098913D71A
:101DD4007748498F13D537401189498F13D5174058
:101DE4002189498F139517004189498F139537002D
:101DF40013750502498F1395570013750504498F10
:101E0400139577001375F50F598D13D8B70013D7B1
:101E1400D70013784800098B13D68700336707016E
:101E240013D8F700A58333670701A18BD98F131744
:101E34001600418BD98F1317360013770702D98FF9
:101E440013175600137707041E06D98F1376F60F5F
:101E5400D18FA2073367F5003307B7021306500288
:101E64004A85CE853697B98EB3C4060833F6C402C4
:101E7400137BF60F977002E0E78000AA058905E955
:101E8400834AF408014A930B5002B38A9A028144AC
:101E940093DA0A0126864A85CE85977002E0E780A8
:101EA400A0A705890DC563914A0313FBF40F230F03
:101EB4006407B250225492540259F249624AD24AF7
:101EC400424BB24B45618280050A137AFA0F8504AE
:101ED400E39274FDE9BF797122D426D22E84AA84B8
:101EE4004146978502E09385E51B0A8506D697202F
:101EF40000E0E780801E4146978502E09385851ABD
:101F04000808972000E0E780401D3C3010088A85CF
:101F1400DC875C2026855C875C30DC8697E001E00A
:101F2400E780A0AF0347F1011C200145631EF700C1
:101F34000347E1011C3001456318F7000345D10153
:101F44003C201D8D13351500B25022549254456126
:101F54008280011122CC26CA4AC84EC606CEAA8463
:101F640017540000032444C913092500854905C0FA
:101F74009C303830858B6304F700405CCDBF194634
:101F8400930544004A85EFE0FFBDE31835FFF240B6
:101F940022856244D2444249B2490561828041119A
:101FA40022C426C24AC006C6175400000324C4C46F
:101FB40093042500054901E8B24022852244924455
:101FC400024941018280A6851305A4022937E3054D
:101FD40025FF405CCDB7411122C426C24AC006C6C3
:101FE40017540000032444C193042500054901E863
:101FF400B240228522449244024941018280A6854E
:102004001305A401C93DE30525FF405CCDB70111CB
:1020140026CA644122CC4AC84EC652C406CE2A847B
:102024001D4993096505054A3C4463E4F4000545EC
:10203400A1A05834DC2063192705034784026304F4
:10204400F7008440D5B7D83083475405E31BF7FE27
:1020540019469305640513856400EFE0BFB0854716
:10206400E311F5FED82483479402E31CF7FCFA2419
:102074003E34E318F7FC0145F2406244D24442493D
:10208400B249224A05618280E31DF7FAD8308347BA
:102094005405E318F7FA1946CE8513856400EFE07A
:1020A4007FACE31045FBC1BF411122C406C626C262
:1020B4004AC017540000032464AF5DC48347840BF3
:1020C4001307700A6391E7080347140E8347A40BB0
:1020D400174900001309897483268900B387E7022E
:1020E4000357C900B387E702130700329387071920
:1020F400B3D7E7020327440A3E97BA846364F70020
:102104006364D700B304D74083A7419604C1829780
:10211400B387A44063F5A40003278900BA9785CB4D
:102124000347140E9306204E3307D70263F1E702E8
:10213400930780FA230CF40A0145B24022449244E6
:102144000249410182801307800A639CE70017D586
:1021540001E0130585B4EFE09FD583A701A70947E4
:10216400F8D71305F00FD1BF0545C1BF011122CC2B
:1021740026CA06CE2AC42EC617540000032444A738
:10218400854419E001450DA09C841830858B6304B7
:10219400F7000044FDB719469305A1001305240078
:1021A400EFE05F9CE31795FEF2406244D244056180
:1021B40082800000EFE09FD0730000000000000068
:1021C4009382C1950383020023800200630F0300FE
:1021D400F32510342EC0970500009385E5FD739018
:1021E4001534EF0020557300203086DCEF00805456
:1021F400E6508280000041114AC0138941A603279A
:10220400090026C206C61C5F22C4938401A693D784
:102214006748B5CF930700061CDF1754000013046A
:1022240064B4184C930700086317F7009C409C4360
:1022340093F707041CCC1C4093F7070489CB83A7AE
:102244004196829748D81C4093F7F7FB1CC01C406A
:1022540093F7070289CF1C4003A701A7B70608001C
:1022640093F7F7FD1CC05C5414C786077CD71C4841
:1022740093F7070489EF85475CC83707020083A7F3
:1022840001A798C71307000C18C81854F8D383275C
:102294000900985F1357474811CF985F13670701E8
:1022A40098DF83A701A723A20706854717570000D5
:1022B4002322F7AC9C40D8431357174819C7D84377
:1022C400759BD8C3D843799BD8C3B2402244924467
:1022D400024941018280053773002030975700007E
:1022E400938747A83707040088DB698F01CF03A7CA
:1022F40001A7FD5634D7974600009386A64AD84EC8
:102304000507D8CE1377850019CF984783A641A631
:102314001367170098C71307000898CBD856719B0A
:1023240013671700D8D61377150001CFD84383A6B7
:1023340041A613671700D8C3D856719B13671700BB
:10234400D8D61377650019CF1377450059C398433E
:102354001367170098C383A641A6D856719B1367C9
:102364001700D8D64167698F0DC39756000083C6FE
:10237400A683C18A174700001307C77BA5C28346FB
:10238400470793E60602230AD70637070200698F38
:1023940001CF984B1377070819C3054798CB83A738
:1023A40001A73707020098C7B70708007D8D0DC144
:1023B400174700000347577F058B97470000938713
:1023C40067771DCB03C7570713672700A38AE70660
:1023D4008280D84713671700D8C7B5BF834647071D
:1023E4000946BD8A6388C600834647070D46BD8AF1
:1023F400E39DC6F8914641BF03C75707118B69DBBC
:1024040003C7570713678700D1B783A601A7975758
:102414000000938727959843058B19E7D843058BCC
:1024240001E7F8526DFBDC4B9757000023A6079495
:102434008280938641A62A8788421C5D93D7574899
:10244400D1E781C51C59BD839CA115C69C42945BF0
:10245400C60693D7660163D6060093E707C0B3C7E1
:1024640007088316060093975760B9C6BE96894736
:10247400B3C6F60216A283A701A7BC4B083393D7B1
:1024840057488DCF29C59756000083A6268F93F60B
:1024940006049307950009459DCABA979C230547EE
:1024A400194593F6F7066394E6020145939747604E
:1024B40063DF0700394582801EA275BF2A9748331F
:1024C4001375F5077D153335A0008280054582809C
:1024D40083A781A699CB944BD04B9842518F98C235
:1024E40094439C479842D98F9CC2138601A7054800
:1024F400184283A641A6975700009387A786631DB9
:10250400050388421365050888C283C62702B3C53C
:10251400D5209385A50C54471395164948C70F1029
:102524000000184237060200860510C7130600088B
:1025340090CB6CD354C7828088421375F5F788C258
:1025440083C62702B3E5D5209385E50EE9B741118B
:1025540026C2AA8706C622C42E85938401A7B28503
:10256400D9EB9C40F8537DFF3707020098C7974783
:10257400000023AD077EB7E700E03707200037F4FB
:1025840000E023A0E728130404D01C48ED9B1CC8DA
:102594001C4893E787031CC873005010153F83A79A
:1025A40041A698431317772998C3D857719BD8D756
:1025B4009747000023A2077C9747000023A6077AC9
:1025C4009C40094798C31C4893E787001CC87300C4
:1025D40050109440174700001307C7781C47858B99
:1025E40091E75C47858B99E3FC52EDFBB2402244B2
:1025F4009244410182800D476398E70497470000A5
:1026040023A607769747000023A40776B7E700E0E0
:102614003707200037F400E023A0E728130404D090
:102624001C48ED9B1CC81C4893E787031CC8730017
:102634005010793D83A741A698431317772998C36F
:10264400D857719BD8D741B70547E394E7F837F7D4
:1026540000E0130707D0144BED9A14CB144B93E608
:10266400860314CB730050109840504793161649B4
:1026740054C70F1000009840B706020014C7930611
:1026840000089745000023A7D56E83A641A694426F
:1026940093D67648639FF6009307E0187CD350C71F
:1026A40037F700E0832707D193E787002328F7D083
:1026B40039BF9307E01ADDB783A781A689CFD44336
:1026C40003A8870098423367070198C2D447DC4BBC
:1026D4009842D98F9CC2054783A741A69505631BE1
:1026E400E50298431367070898C3984F137707C008
:1026F4001367A71398CF13078007B8BB93973500C8
:102704009387C70319C29317160017470000232F96
:10271400F766828098431377F7F798C3984F137737
:1027240007C01367271398CF1307F007B8BB939715
:102734004500F9B783A701A78847D847798D11C504
:1027440088C783A7C1A691C382878280896703A7AC
:1027540001A7938707F47CD383A601A883A706095E
:1027640093D7A74991C783A7060993D7974999E3B4
:102774007C53EDF782804111B7E700E022C4804327
:102784003707200006C6798C23A0E7180F10000035
:1027940011C199E5B7E700E023A08710014549A8D6
:1027A4000D0533450508130740037199B347050820
:1027B4006362A70203A541B183A6C1B0639FA600CB
:1027C400174700000327870371D7C207DD8D05452E
:1027D4000297C9B703A501B1C5B77A2131EF5A21D0
:1027E400636CF704B306F74021481746000013064C
:1027F40066FB6375D8028328050003586600938638
:1028040087001D8FAA966117DAA223A016012393CD
:10281400060014C15EA1130788FF7AA27A226EA172
:102824002105B307F7407EA2B7E700E023A0871095
:10283400B240224441018280084149B7B7E700E031
:102844008C433707200023A0E718F98D0F100000F0
:1028540001E523A0B710828003A341B183A8C1B0CE
:102864009A87814663F8170903A807006367F50888
:102874006365A80813878700636EE506F223216762
:1028840005076317E6001386B1A21822050718A2EC
:1028940017450000130505F1D2237A21239307007D
:1028A4003297334707087AA16383670203A301B110
:1028B400630FF30003D36600631B0300DE2223A02F
:1028C400060121073E962106D2A27AA1B687984333
:1028D4006302170383A601B1630ED700762399EA36
:1028E400D62352231843A106B296D6A398C37E21B9
:1028F400A1077EA1B7E700E0A9BFBE86C2879DB746
:10290400AA8703A741B103A6C1B0B305B5406314B8
:10291400E6003E8529A8930687001843E3E9D7FE1D
:10292400E3F7E7FE2E85E3E4D5FEE3F2E5FE8280DD
:10293400411126C206C622C44AC09744000083A49B
:10294400E4246383041003A4C40AAA86054535C09D
:102954003C241307700A6390E70858301C34174965
:1029640000001309A9EB03268900B387E702035784
:10297400C900B387E7021307003293870719B3D757
:10298400E70203A744093E97BA846364F7006364CB
:10299400C700B304C74083A7419684C28297B38714
:1029A400A44063F5A40003278900BA9789EB1305B3
:1029B400F00FB240224492440249410182805830CF
:1029C4009306204E3307D702E3F3E7FE930780FA1A
:1029D4003CA40145F9BF1307800AE39AE7FC83A7E7
:1029E400419682972A893545EF10205DAD471747F8
:1029F40000002327F73858301C341746000013060C
:102A0400E6E1B387E7025A261046B387E7021307C5
:102A1400003293870719B3D7E70203A744093E9707
:102A2400BA866364F7006364C700B306C740E31063
:102A3400D9F8175502E0130525DEEFE04FC783A749
:102A440001A70947F8D7A5B70545A5B7397156D2E7
:102A5400974A0000938A0A3183A70A0337070800BC
:102A640026DA06DE22DC4AD84ED652D45AD05ECEBE
:102A740062CC66CA6AC86EC6F98F9744000083A404
:102A8400E4106384071C83A9C40A83C7990003A4C0
:102A9400C90092073E942820B14705053305F50285
:102AA4005E203E9533450508EFD01FEBAA8C6305E5
:102AB400051A130DC5002324A50134203146370B14
:102AC4000300B386C602231304000149138A01A735
:102AD400938B41A6938D01A8130B8B15054CEA9695
:102AE40054C483C679009307D00783250A00B386AC
:102AF400F602C1679CC5370833008606B4D183A6A5
:102B04000B0090421376F6CF90C290421376F6CF24
:102B14001366062090C203A50D0010453366060116
:102B240010C503A6090023A865059305500290C6A5
:102B340072205444B2962324DD0014300146CA9610
:102B4400A301DD0003C504089746000023AE062058
:102B5400A53683260A00CC4613961549D0C60F1015
:102B6400000083260A003706020090C613060008F8
:102B740023A8CA0003A60B00104213567648631F0D
:102B8400860B1306E018F0D2CCC6174600002325A6
:102B9400061E174600002329061C23A08601EFF019
:102BA400DF86EF10603A83A64A00858AD9CAEA858F
:102BB4002685976002E0E78000CB0DE903465D00BF
:102BC40049C276204E20B29663DDB606B428AC48DE
:102BD40003258D00918E8906B695EFD01FE7230259
:102BE4000D0003465D007620B29676A003260A0007
:102BF400310D3452FDFE342005091379F90FE362D7
:102C0400D9EE9C246685A381FC001C20A3820C00C1
:102C14002383DC002382FC006254F250D2544259D4
:102C2400B259225A925A025BF24B624CD24C424D38
:102C3400B24D216117F300E0670023441306E01A44
:102C440099B7FD562302DD0055B783A701A7FC57AA
:102C540081C78547238EF194F2506254D25442596D
:102C6400B259225A925A025BF24B624CD24C424DF8
:102C7400B24D21618280AA8703A5C19611E18280A9
:102C84003A216315B7001821E30BF7FE4845FDB759
:102C9400411122C406C626C24AC02E848DCD13F922
:102CA40015008147414763020904131745003E9705
:102CB400B1463307D70283A44197B317F02833C929
:102CC4000708BA949C40C840829723A0040023A21A
:102CD400040033448900B2402285224492440249CC
:102CE40041018280B356F448E9F28507E39CE7FE8C
:102CF400CDB7011126CA06CE22CC4AC84EC6AE8430
:102D0400A1C593F7150001444147B1CB9317450082
:102D1400A2973147B387E7029389419703A9090032
:102D24003E998327090081C70325490082973147CB
:102D34003307E40283A70900BA979C478DC733146D
:102D44008028B3470408BD8CF24062444249B2492A
:102D54002685D24405618280B3D68448C5FA050429
:102D6400E31CE4FECDB72320090023220900C1BFE0
:102D74007971B7E700E022D4804352CC06D626D23C
:102D84004AD04ECE56CA5AC85EC662C43A8A37077B
:102D94002000798C23A0E7180F10000005E123A080
:102DA40087100945B250225492540259F249624A9A
:102DB400D24A424BB24B224C4561828083A7419652
:102DC400B6892A89AE8A328B938B4197829703A75F
:102DD4000B008144B146C147338CD40233068701CA
:102DE400104235EEC165938505F04145EFF0BF987B
:102DF40019ED9747000083A767A081C78145114556
:102E04008297B7E700E023A087102D4561BF1387A1
:102E1400C1961C43A1E308C323000500B3179028FF
:102E24003EA183A70B00232605002324650123224A
:102E34004501E29723A0270123A2570123A44701B8
:102E44006384090023809900B7E700E023A087107A
:102E5400014589BF3E87DC47F5FF48C775BF850438
:102E6400E39CF4F6B7E700E023A0871021451DBFDB
:102E7400B7E700E09843B706200023A0D718758F62
:102E84000F1000009746000083C6D691637DD500DD
:102E940083A601973325D5201621D58D0EA123A015
:102EA400E7100145828023A0E7100D4582800111BF
:102EB400B7E700E022CC80433707200006CE26CABD
:102EC4004AC8798C23A0E7180F100000BD4763E7B8
:102ED400A70431473307E50283A74197BA979C4378
:102EE40095CF3315A0282E89B345050801452EC674
:102EF4005933AA8409C9B2450145972000E0E78007
:102F0400406D23A42401B7E700E023A08710014506
:102F1400F2406244D244424905618280B7E700E04E
:102F240023A087100945EDB79747000083C717BC56
:102F3400AA86850703A5C19F014712216307D6000E
:102F440005071905E36BF7FE014582802A8703A56F
:102F540041A011E182801C45B227636BC70003586E
:102F64004500B306C8006355D70081466394060143
:102F74000841C5B703D3A700938807016316E3008C
:102F840091C192A13E8582808506C687B3C6060894
:102F9400F1BF9746000083C666B583A701A3014726
:102FA4006394E60001458280AE231386C7036394CD
:102FB400A5003E85828005071377F70FB287CDB74A
:102FC400411122C406C697470000238F07BC03A4FF
:102FD40001A405C06C390145B315B028B3C5050873
:102FE400973000E0E780C0A9930710273305F50266
:102FF40002942244B240814501454101173300E067
:10300400670083B1383D09C734256312D7024DBF29
:103014003C2DF5DF3825E30CF7FE3CA5814517E58B
:10302400FFFF1305252C173300E06700E3AE3C2DAA
:1030340089C7E394F6FE38A5D5B7F1FAEDBF41117F
:103044004AC0174900001309E9D18327890022C423
:1030540026C206C6974400009384C4AD858BE05015
:103064009DCB9747000023A307D083C74407C18B98
:1030740085CFEF00706D83C7440793F70702E5DF40
:1030840083C74407228593F7F70C238AF406971025
:1030940001E0E780C09BEF00306B22852244B24000
:1030A40092440249410129BF83C75407858B91CBC0
:1030B400EF0090698D47230EF406BC582285829751
:1030C400D9BF83C744071547BD8B6395E70483477E
:1030D400B406034534060146930550025D8DEFF0B6
:1030E400AFDD014681450545EFF06FC68327C90072
:1030F400858BD5D322859747000023AB07C697005D
:1031040001E0E780E07C41F9B24022449244024964
:103114004101828083C744071947BD8BE39DE7F6CD
:103124008347B406034534060146930550025D8D7A
:10313400EFF08FD8014681450545EFF04FC1832755
:10314400C900858BA9DB22859747000023A207C20B
:10315400970001E0E780A0517DB7411122C426C247
:1031640006C67C2578452A84BD8B1CA91CA31D4753
:1031740064456395E7340547B8A08347F5058D4654
:103184006393D7185E2DCDE37C491147B18B638DD2
:10319400E70831476398E700034715068347F507B7
:1031A4006304F7088547BCB0194693056403138587
:1031B4004400EFD09F89BC20990793F7F70FBCA078
:1031C400034704061377070401CFB83013670704D5
:1031D400B8B07844BA975838B8B3BC208507BCA0B7
:1031E400974700002382079CBC2013F7F7030507C9
:1031F40018B80347E4051A07D98FBCA083475403C2
:10320400858B91E70347440389476317F7007844A4
:103214001C2393E707041CA37C44183898B3B240DA
:103224002244924441018280A147BCB08357C40622
:103234009745000093850590138601A7DCA083576A
:10324400C406034714067444A1831207BD8BD98FA7
:10325400DCB2B4208547890693F6F60FB4A017476D
:10326400000003476794631EF706183C9387E60043
:103274008E07231AF4069387C708B387E7027945B4
:1032840010420948238A0507C1650CC6938707FBCA
:10329400B3C7070893877716B3C7A70233C70708CE
:1032A400B387A70286073CD2BC3093E70701BCB0C2
:1032B4007C44B6978346240693E60604B4B3B4204C
:1032C4007C44B697D8A3B4207C4421837D8BB697E5
:1032D400834634069606558FD8B3BC208D07BCA010
:1032E40021B71042F947385205833357F7023C524D
:1032F40068528583FD8BAA977CD28D47238AF50675
:103304003347070855B71946639BC7125E2DC1E3BF
:1033140093056503B8B013854400EFD00FF3BC20C8
:103324001385A4009907BCA0BC3093E72700BCB068
:1033340083475403898B95CF0C58BC299DCB1946E0
:10334400D105EFD08FF078441C2393E707F81CA332
:10335400BC20990793F7F70FBCA003470406137723
:103364000704E30F07E6B430784493E60604B4B0E8
:1033740095B58347D40391C778441C2393E707F892
:103384001CA319469305E403EFD02FECD1B7A14752
:10339400BCB08357C506DCA08357C5060346150693
:1033A4006C45A1831206BD8BD18FDCB1B0201735DB
:1033B400000013052578938501A709061376F60FF7
:1033C400B0A09737000083C7277E6398E704183CB2
:1033D4009307E6008E07231AF4069387C708B3877A
:1033E400E70279488946230AD5069441C1658CC60B
:1033F400938707FBB3C7070893877716B3C70703F9
:1034040033C70708B38707038607BCD2BC3093E7EA
:103414000701BCB07C44B29771BD8C41B851F947E7
:1034240005833357F702BC5103A845068583FD8BFA
:10343400C297FCD1230AD50633470708C1BFA14769
:10344400BCB08357C506DCA08357C50603461506E2
:103454006C45A1831206BD8BD18FDCB1B02017352A
:1034640000001305256D09061376F60FB0A09737F3
:10347400000083C7677383A501A7E391E7FA183CAB
:103484009307E6008E07231AF4069387C708B387C9
:10349400E702F9460948230A0507416588C5938769
:1034A40007FBB3C7070893877716B3C7D70233C799
:1034B4000708B387D7028607BCD189BF0547639E37
:1034C400E706B1471CB983475503898BA1CB0C5937
:1034D400BC29A9C71946D10513858400EFD0EFD6BE
:1034E40078441C2393E707F81CA368441946930502
:1034F40064030905EFD06FD511679737000083A7E0
:103504006770F98FE38C07CE7C24B98BE39807CEE0
:1035140078441C2393E707021CA3CDB18347D4034B
:1035240089C79C2093E707F89CA068441946930533
:10353400E4032105EFD06FD14DBF522D0C559307F5
:10354400660093F7F7031CB913858400E5B70111EE
:1035540026CA974400009384E4809C4422CC06CE7F
:10356400173400001304045D858B6850C9C32AC650
:103574009737000023AC077EEF00101D0347440774
:10358400894732456307F700034744078D47631CA7
:10359400F70283A601A7BC52035745078583130787
:1035A400C71263F2E702BC528583B1C39147034754
:1035B4004407E31EF7FE6244F240D2440561170358
:1035C40001E06700A370382D3C3D09CF3425630921
:1035D400D7026388F60238A56244F240D2440561FA
:1035E4006FD05FB299CF382509EF3CA5F5B72AC64D
:1035F400EF00901562443245F240D2440561C9B2ED
:10360400EDF7DC4CEDF70347440789476307F70000
:10361400034744078D47E31CF7FC914703474407DE
:10362400E31EF7FE49BF630E0530011122CC06CE1E
:1036340026CA4AC84EC652C456C2582585472A844B
:103644006316F72C973700009387C771D44F15473B
:10365400638AE600D44F0D476386E600D84FAD4732
:103664006312F7026C386244F240D2444249B249D0
:10367400224A924A01450561B315B028B3C505082D
:103684006FF00FFF16311307006497340000938422
:10369400644A3347D7029C20E8D0850793F7F70F95
:1036A4009CA063CAE700973000E0E7804082973728
:1036B40000002381074878249D47631FF70483474C
:1036C4009406B1C38356040763ECF6020C249307F3
:1036D40030041CAC1305300493F6F60F0146970032
:1036E40002E0E780808C22856244F240D244424961
:1036F400B249224A924A0561171301E06700030B9D
:1037040085062318D406930530020545972000E06A
:10371400E78060742301A4060549238A2407183C22
:103724008D47631CF70E972000E0E78020E40D89A5
:10373400630F051463162517930760023CA49307CF
:1037440050023CAC9307700278243CBC854763026A
:10375400F70889659385F57013051027173A00005B
:10376400130ACA0B83497401972000E0E780207193
:103774000E30835ACA002A8913060064B3855503A0
:10378400814613850532B335B500975002E0E780D2
:10379400601DAA84B335590337460F001306062467
:1037A400814633055903975002E0E780A01B832725
:1037B4000A00AA948297B307950003278A00BE855E
:1037C40063E4A70063E4E700B385E7404E85EFF0C8
:1037D4000FEE83475403898BE9CB8347C403F1C7B6
:1037E4000C58E1C5BC25F1C38947230AF4021946E4
:1037F400B10513056403EFD04FA50347C4078947F8
:1038040063E9E70A22856244F240D2444249B2495C
:10381400224A924A05616FD0FF8E89467C34631533
:10382400D70213F7170019CB898B1307500291EBBA
:103834009307700238A43CAC814739B71307600280
:10384400C5BF93076002FDB799CF93F6170013071E
:10385400500291E6898B13B717001307670238A447
:10386400230D0400D1BF3C2C130740026368F7000A
:10387400930750023CAC3C2C3CA47DBF850793F7D6
:10388400F70F3CAC13077002E364F7FEEDB71307C0
:103894007002930750023CAC38A4930760026DB5E4
:1038A4001307500293077002FDB78547230AF402F9
:1038B400A9B70327C40A83A641963C27ADC31C3786
:1038C400583397340000938464F59044B387E70237
:1038D400DA24B387E7021307003293870719B3D7B3
:1038E400E702032744093E973A896364F700636457
:1038F400C7003309C7408296B307A9406374A9007F
:103904009844BA9703576407E3FEE7EEF240624433
:10391400D2444249B249224A924A056182808324B0
:103924008409829663E9A400835764073385A4401D
:10393400E37AF5ECE1BF9737000083A7A7EEBE94C6
:10394400E5B7828001114EC6973900009389891E1C
:1039540022CC03A4C90926CA97340000938404EC3A
:10396400DA244AC8035964088327040906CE3309B4
:10397400E90237470F009306F7231307072452C4BD
:1039840056C25AC036993359E90263EE2703138AA3
:1039940041963389274183270A0082976368A902E5
:1039A4003305A9406347050283570404A30F0400A9
:1039B40085072310F40483470414639707102285B2
:1039C400EFD03FD229A29844BA97D1B79C443E99EC
:1039D400C1BF83270A008297032784086363E50A2B
:1039E400198D7E3CDA248E07B387E7021307003271
:1039F40093870719B3D7E70263E9A708B74A0F000B
:103A0400138BFA23938A0A2483570404850723100B
:103A1400F4048347041481E72285EFD09FCC2285E8
:103A2400972001E0E78080BD631F05220326040977
:103A34000327C40894443297BA876364C700636455
:103A4400D700B307D740783CD2242328F4080507CD
:103A540078BC035764083307C7025A973357570390
:103A64003389E74063F5E700998E3389F6008327AD
:103A74000A0082976365A9043305A940E34605F863
:103A840025B79C44998F3E95A9BFA14522859720CF
:103A940001E0E780C0AEA305A4029737000083A726
:103AA400E7D56382071C6244F240D2444249B249DA
:103AB400224A924A024B89451545056182879C44F6
:103AC400CA973385A7405DBF2285EFD0DFCB22851F
:103AD400972001E0E78080B263170518CA24835752
:103AE4006408B7460F001386F623B387A7029386AC
:103AF400062403270409230B040283AA8400B29733
:103B0400B3D7D702636BF716B307F7408326C4080D
:103B14002324F408014BB387E6003E8963E4D7000D
:103B240063E45701338957411E3023282409A1CB6C
:103B3400835604045A3037460F0056B03387E640A4
:103B4400B387E7023A301306062481468145BA97C3
:103B5400B3C707083385A7023EB0975002E0E78059
:103B640060E011CD4A9533392501CA95AA876314BB
:103B7400BB0063645501B30755412328F408832728
:103B84000A0082972A8983270A008297E30D25FF7A
:103B940083270A000329840882976365A90E3305E5
:103BA400A9406300051003DAC40083576408374949
:103BB4000F001307F923B387470313090924BA979E
:103BC400B3D72703173700000347D7C1BA9763EA6F
:103BD400A70CB3352503035B2402528681463305C3
:103BE4002503975002E0E780E0D7B30AAB00330522
:103BF4004B0337460F001306062481468145975030
:103C040002E0E78020D615C1B337250352868146EA
:103C1400B305B9023305A902BE95975002E0E780C7
:103C240060D4330BAB40231164033545792623AEAE
:103C3400890838348547631AF704930700FD7CA488
:103C440003A581A59C28A1CBEFD06FA69547173774
:103C540000002327F7123707100083A701A798C78E
:103C6400860A23A85707F2406244D2444249B24923
:103C7400224A924A024B05618280B3065701B387F8
:103C8400F64069B59C443E9919BF930710FC7CA487
:103C940003A501A545BF8145972000E0E780C0E763
:103CA40075B79737000023A507F29C2895C303A591
:103CB40041A4972000E0E78020216244DC40F240E8
:103CC400D2444249B249224A924A024B0561828750
:103CD400834594026244F240D2444249B249224AA2
:103CE400924A024B01450561B315B028B3C50508D6
:103CF4006FF00F98011122CC26CA4EC606CE4AC8D0
:103D040052C456C25AC038358547832405092A84CB
:103D1400AE896314F70C83570508835AC503173A11
:103D24000000130AAAAF035BCA0063FC57191429E5
:103D34006399E61803278511631507180327450AB5
:103D44006311071874351D47639DE6162A3DB38A2F
:103D5400FA409307204E3305550303294409374697
:103D64000F001306062481463305F5029737000039
:103D740083C747A733592503B335AB023E9933496B
:103D84000908231324093305AB02975002E0E780A6
:103D940060BDB307950033B5A7002E9503278A00AD
:103DA400BE8419E163E4E700B384E740B307690321
:103DB40037470F009306F7231307072423A099001E
:103DC400B697B3D7E702D69763E4F4009D8C31A08D
:103DD40003278A00B307F740BE94138941968327CB
:103DE400090023A09900829763E2A4103385A440BC
:103DF400635D050A83270900173B0000130B0BA220
:103E0400829703A709006369E50E198D7E3C035769
:103E1400CB008E07B387E702130700329387071995
:103E2400B3D7E70263EFA70C374A0F00930AFA23CC
:103E3400130A0A248357040485072310F4048347D0
:103E4400041481E72285EFD0DF892285971001E0F1
:103E5400E780C07A61E5832604098327C408032721
:103E64008B00B697BE8463E4D70063E4E700B384B1
:103E7400E7407C3C8356CB002328940885077CBC10
:103E840083576408B387D702D697B3D7470363E64B
:103E9400F40A9D8C8327090023A09900829763E18B
:103EA400A40A3385A440E34705F89737000083C785
:103EB400779363E6A7069737000023AB87D00145C5
:103EC400B9A88357640837470F009306F723B387CD
:103ED400670313070724B697B3D7E702E3F8F4EEB2
:103EE40003278A002697B304F740C5BD973700001F
:103EF40083A74793BE94DDBD83278B00998F3E959E
:103F040031B7A1452285971001E0E7804067A305FA
:103F1400A4029737000083A7678E81EF7D55F24096
:103F24006244D2444249B249224A924A024B056150
:103F34008280894515458297D5B71D8FBA9499BF5C
:103F440083278B00BE94B1BF938601A79C42B84BD4
:103F54001377F78FB8CB98431367870098C39C43B4
:103F640093D7374889C7010001000100010003A766
:103F740041A61C4393F7F7CF93E707101CC303A68E
:103F840001A81C463707CEFF7D17F98F1CC69C423B
:103F940037070300B8CB83A781A699CBD4439047B6
:103FA4009842518F98C2944BDC4B9842D98F9CC253
:103FB4009737000023A607DC828083A701A79C43D0
:103FC4008D8BE9C74111B7E700E04AC003A9070098
:103FD40026C23707200006C622C4AA843379E90022
:103FE40023A0E7180F10000017340000130484D72F
:103FF400584C8D47631AF7009737000083A747B0E2
:10400400014681454545829719476391E4048347F6
:10401400140289CB83470402639697009737000004
:10402400A38207D6584CA1476315F7009307801065
:104034001EB0238E0194093FB2402244B7E700E04A
:1040440023A0271192440249410182809D47639B2A
:10405400F40083471402F9D7034704028D47E3139E
:10406400F7FC6DBF544C6389E600584C6306F700B7
:10407400584CA147E31FF7FA83471402DDFB5C4C5D
:104084002300F4028547A300F40265B78280000090
:10409400971100209381C1B917C10120130141F682
:1040A4001305400097C5FF1F938585F517C6FF1FAD
:1040B4001306061363FAC5008322050023A05500E6
:1040C40011059105E3EAC5FE17C5FF1F1305850613
:1040D40002852A8309CA83830500230073007D16A1
:1040E400050385056DFA82802A8311C62300B30077
:1040F4007D16050365FE8280B717004003C7770568
:104104001377E70FA38BE704130700F8A38DE704E5
:104114003D47238CE70413075003A38CE70403C72C
:10412400A7051377D70F238DE70482803717004044
:104134008347E70412054111BD8BC98F93F7F70F2D
:1041440093068008F3B6068093F6860836C6010007
:104154000100930670052300D704930680FA230018
:10416400D704010001002307F70423000704B24722
:10417400F3A70780010001004101828041112A83D5
:104184000148930E407E130F0019930F4006B34865
:10419400030863EF1E01130300193373650285429C
:1041A400FD4363F6B2088D4F214F930E4006A1A044
:1041B4007D13336EE3039308E016630E0E00336E33
:1041C400F3039308D01663080E009378330093B872
:1041D40018009388D816C29833C808084DBF93F8BE
:1041E4001500138EF5FF637CBF02F908C29833C82B
:1041F4000808B3450E08E394F5FF8545630B0300F7
:10420400B378D5038145638608009375350093B56B
:104214001500F105C29533C805088945E9BFB3887F
:104224001341C29833C80808B3450E089DBF7D16D4
:10423400329879463307C70213D61700BE073348AE
:10424400080832976146B3F6C60213068070B38637
:10425400C6023697A166F58F4207D98FB71600407C
:1042640003C7F60213770708D883908303C7F602BF
:1042740013770708E316E6FE9883B71600404DCF80
:104284001307800873370780137787083AC401003F
:10429400010037170040930670052300D7049306E6
:1042A40080FA2300D70401000100232A0703834670
:1042B400170393E60608A308D7022300070422473E
:1042C40073270780010001001166371700407D162F
:1042D400545B4C5FAD8EF18EE5FE93068008F3B619
:1042E400068093F6860836C6010001009306700521
:1042F4002300D704930680FA2300D70401000100A9
:104304005CDB8347170393E70704A308F702230042
:104314000704B247F3A7078001000100410182802E
:1043240003C7F60213770708D883908303C7F602FE
:1043340013770708E316E6FE98837DD391B7914778
:1043440063ECB70497670200938787D7B3C5F5205A
:1043540098413E97B71700409387470B02879443D1
:1043640037170040B3F6A64094C39306070B9C424C
:10437400B3F7A74019A8944337170040B3F6A640F3
:1043840094C39306070B9C42C98F9CC29307070AE8
:1043940098433377A74098C38280944337170040EB
:1043A400C98ED9B798433377A74098C3B71700404D
:1043B4009387070A9843498FF9BF9843498FF5B704
:1043C40019C5371700401E2FCD8F1EAF8280B71737
:1043D40000409A2FB375B7408EAF8280B717004064
:1043E4009A279306000C21651377070C630ED704F4
:1043F4009A27137707100DC79A279E277D8B09EB01
:1044040093F7072095CF3755E8011305058082807F
:1044140037C59812FD8B130505E03345F5028280FC
:104424009A279E2713770720FD8B11C73755E8017C
:1044340013050580DDB73725F40013050540F1BFEA
:104444003725F400130505408280B7F700E088475C
:1044540082803285814737370040A14663C3A70075
:1044640082803037E30FD6FE3386F50010228507AD
:1044740010A7EDB797060020938686FBAA8788428B
:10448400173700201307C797AA9763E9E7000A873D
:10449400130707FC6364F7009CC282807D55828009
:1044A400411122C406C62A84153F2947B307E502F1
:1044B400B2408D83B3D7870222449507B3D7E7026E
:1044C40037370040B3C707085EA741018280716592
:1044D40041111305052006C6E137B737004013071D
:1044E40070F8B8A30D47B8B31307000498B3054791
:1044F400F8A7B240410182803285D041411106C6FD
:104504000C32034806000D66A205B3E505019308C5
:10451400A6A21398556063C80803130626A263581D
:10452400060375761306C65DB2951946B3C505082C
:104534006363B602176802001308C8B9B3C505213E
:10454400904142960286130606A5630DC80E239079
:104554000600A94515A01D469D45636FE60021464A
:10456400198E3356F60A9385819092A2BA9597C014
:10457400FF1FE780804D8145B2402E854101828036
:104584002D469D45E36AE6FE3146198E3356F60AFA
:10459400976502009385C5BC92A2C9BF31469D456B
:1045A400E36CE6FC3546198E3356F60A976502002D
:1045B400938505BA92A25DBF41469D45E36EE6FA36
:1045C4004546198E3356F60A97650200938505B75A
:1045D40092A269BF41469D45E360E6FA4546198EBD
:1045E4003356F60A97650200938505B492A2BDBFBF
:1045F40041469D45E362E6F84546198E3356F60A70
:1046040097650200938505B192A28DB741469D45F9
:10461400E364E6F64546198E3356F60A97650200BA
:10462400938505AE92A299B735469D45E366E6F4B7
:104634003946198E3356F60A97650200938545ABC1
:1046440092A22DB719469D45E368E6F2998D33D6BB
:10465400F50A970500209385E5DD92A201BF970630
:1046640000209386E6A24146CD4517050020130598
:10467400E5A26F7050642D4825E7328590210947E3
:10468400631DE604D841411106C6102318332207DE
:10469400518F4166130846FE63030703636CE80009
:1046A4007D07054633470708637BE6002390060031
:1046B400294805A01516E31BC7FE154711A0054799
:1046C400CC4533D6E70A92A297C0FF1FE780E037B4
:1046D4000148B2404285410182802390060005488A
:1046E40042858280011106CE22CC26CA4AC84EC613
:1046F40080251374040255E083C905000948AE8778
:10470400639F090903A84500B2843689034308005E
:10471400034818002208336868004163130E13FE2F
:104724006304C8030D13630E68048D679387279091
:1047340029446310F8046244F240D2444249B24925
:10474400854705616F60204129EF0547636DD704F4
:10475400C8470546A68597C0FF1FE780002F8149FB
:1047640083A7C19299C79C4389C74A86A6854E856B
:104774008297F24022856244D2444249B24905619B
:10478400828005E305476360D702C8470546A685CE
:1047940097C0FF1FE780602BE1B72144D9BF0544D0
:1047A400C9BF2D44F9B73544E9B7C167F917630C9C
:1047B400F502411122C406C685472A84639AF5008E
:1047C40022852244B2409385819141016F70B05893
:1047D40089476396F5008545EF90F04C75D1B2405A
:1047E4002244410182808280411122C42A8441658D
:1047F400938581917D1506C6EF70F055170500006D
:104804001305E5FA0588EF90304105C02244B24013
:10481400970600209386869B4146C54517050020D0
:104824001305859B41016F701049B2402244014534
:104834004101828009C523A6A19201458280454594
:1048440082801147636EA70697660200938646929C
:104854003345D52018414111AE87369706C6B28537
:10486400028705476145639AE700054613858192EF
:1048740097C0FF1FE780601D0145B240410182805F
:1048840005476145E39BE7FE054613854192CDB795
:1048940005476145E393E7FE054613850192C9BFC9
:1048A40005476145E39BE7FC05461385C191C9B7FC
:1048B40015476145E393E7FC1546138501914DBF08
:1048C40009458280411122C42E849385819126C298
:1048D40006C6AA84EF602023058919CD9707002016
:1048E40083D7279B1EA0A2852244B24026859244EA
:1048F400014641016F605066B240224492444945EA
:1049040041018280411193962500AA852D4506C652
:1049140097C0FF1FE780609DB2400145410182803E
:10492400011122CC26CA939625002A84B284AA8532
:104934000146254506CE36C697C0FF1FE780E09A9C
:10494400B2462686A285294597C0FF1FE780E099D5
:10495400F2406244D244014505618280011122CCB7
:1049640006CE3714004026CA4AC84EC652C48344F1
:104974007405034AB4058349840503499405EFF09B
:10498400AFF78347A40593F4F40F137AFA0F93E770
:104994001700230DF40493F9F90F1379F90FB717DE
:1049A400004003C7A705058B6DFF03D5C705A38D7D
:1049B4004705238C3705A38C2705A38B9704F24066
:1049C4006244D2444249B249224A0561828041117B
:1049D40022C406C62E849397556063DF070097C0F0
:1049E400FF1FE78080FD19C1EF00B0281315F4689C
:1049F400B24022444101828093F7150013C515008B
:104A0400E5FB8967ED8F99CFEFB0D11537F602003A
:104A1400130606E0896503C54193EF00704C131536
:104A2400D468F9B711656D8D61D51755020013056A
:104A34006575EF40E24D13060064916503C541932B
:104A4400EF00104A1315E46865B71D714946975580
:104A5400020093856573176502001305A52186CEB0
:104A6400A2CC97C0FF1FE780E00F01E917550200B1
:104A74001305C572EF40C24901A037F700E02324B3
:104A84000700F9571CCB0564B7E700E023A08710A3
:104A9400BD4614C323A087180100010017D7FF1FC8
:104AA4001307077223A8E192130700F8A38AE740CB
:104AB4001306C0038145480897C0FF1FE78060FFC5
:104AC40097070020938787CA3ECA8967FC84A16739
:104AD400938707E03ECEB7070105938707103ED0C2
:104AE4009307B00F2312F10285472303F1029707BE
:104AF4000000938767E1BEC497070000938787E2AD
:104B0400BEC6930754D12314F102B7F507009707E3
:104B140000009387C7933EDA814697070000938786
:104B240027E47000E10519453EDE97B0FF1FE780DA
:104B3400C07B19466C001305E102EFF08FD9D24710
:104B440081C7BC8463F3870001A04808EF1080107C
:104B5400AA8501C91755020013058565EF40A219FE
:104B640001A0F640664425618280411117050000CA
:104B7400130525E606C622C4EF10200B13844193C7
:104B840008A0112808202244B24013060032896587
:104B940041016F00F034397106DE13078008F337E2
:104BA400078093F787083EC201000100B717004051
:104BB400930570052380B704130680FA2380C70485
:104BC4000100010083C6F70293F6D60FA387D7022C
:104BD400238007049246F3A6068001000100733780
:104BE4000780137787083AC4010001002380B704C3
:104BF4002380C7040100010003C7F70213675700AD
:104C0400A387E70223800704A247F3A707800100D4
:104C14000100814701478146054685451305407ECD
:104C2400EFF0CFD5680013064002814597C0FF1FFF
:104C3400E78020E8B707C0A83ECAB78732003ECC59
:104C440097C7FF1F938767CB3EC6680097C7FF1FB0
:104C5400938727CC3EC8EF10C02CF250216182808C
:104C64004111114506C6EFF06FCC1305503497C0BF
:104C7400FF1FE780209EB7170040116723ACE70AA7
:104C8400C1450545EFF0CFF38D451165EFF02FEBEE
:104C9400EFF0FF83176502001305C5FDEF404227BF
:104CA4006D33E135EF00D23FEF0092468D21EF00E6
:104CB400407897C0FF1FE78000C82A86B305B0403C
:104CC400175502001305C5506F40E202011106CECC
:104CD40089476301F5048D47630AF5040DE968000B
:104CE40097C0FF1FE78060D6175502001305C54F14
:104CF400EF40022293874194982311EB0547916575
:104D040003C5B18298A397E0FF1FE7806016F240C5
:104D140005618280680097C0FF1FE78000D31755A4
:104D240002001305254EEF40A21ED5B7F2401755D9
:104D340002001305E54E05616F40821D13878194BF
:104D4400AE870E23639CA50052A3175502001305DA
:104D5400A54F3E863EA376A36F30F2791755020025
:104D6400130505506F40C21A1387819456211E23E0
:104D74006394F604011106CE22CC1384B182082078
:104D8400C167F91789451CC323A60194EF00F03DC0
:104D940008209145EF00703D83D7019591EB85473D
:104DA4001306F100854513055030DC87EF0032000F
:104DB400F240624405618280175502001305454A9A
:104DC4006F4002153D897D15954763E3A714175776
:104DD4000200130727583345E5201C41411122C422
:104DE400BA9706C62E848287175502001305C54755
:104DF4002244B24041016F40A211BC211947639083
:104E0400E7022E8595376C20175502001305C54619
:104E1400EF30726E175502001305C547D1BF0D4719
:104E2400E38AE7FEB240224441018280B8219547DB
:104E3400E31AF7FE93878194962341677917AA258D
:104E4400638DE602EF00921F175502001305854596
:104E5400EF40020C6E281755020013052547EF306A
:104E640092696A28C167FD176304F500EF00D21C3C
:104E7400175502001305C548A5BFFA2505668AA380
:104E8400BAA39A29130606C803C5B182DAA3BA29BC
:104E94009145FAA3DD472390F182EF007004722458
:104EA4002E241755020013052541EF30D2645DB757
:104EB400B8218D471755020013054545E314F7F64D
:104EC40005BFAC2191476397F50017550200130500
:104ED400654539BF9947639EF500228571356C207D
:104EE40017550200130545392244B24041016F3081
:104EF400926095476399F5001C30E1FB1755020059
:104F040013050544F5B5175502001305E543E9BF3C
:104F14008280011126CA06CE22CCAE8493975560B6
:104F240063DC070A03C5B18297C0FF1FE780E0A8CE
:104F34002A8421CD1C211307000B6380E708130783
:104F4400000D6392E7043C2165476381E7027547DE
:104F54006384E70445476398E70270216C31175571
:104F640002001305A543EF30125931A80348A500E8
:104F74001C351825743170214C3117550200130566
:104F8400E53EEF3052572285ED211395F468F24047
:104F94006244D24405618280142D70390E25175560
:104FA400020013056541EF3012551E2403D5819488
:104FB4002398F194EF009208F9B758219307F0076A
:104FC400E313F7FC0E25175502001305A5402390A3
:104FD400B182EF30525245BF93F7150085C317F6DF
:104FE400FF1F1306A636971500209385257803C561
:104FF400B182EF00A23213C5140051BF93F725000C
:10500400B5C713060064894503C5B182EF00406D3E
:10501400930780F85C8003D701828D4763EBE70038
:10502400175502001305453CEF30926E13C524005A
:10503400B9BF138481940A208547014781460546F8
:10504400ED457C83EF5080652AC46DD130838A8519
:1050540097C0FF1FE780609F0A204C00EFF09F86F7
:1050640071D5ED454800EF50E07AC9B793F7850054
:1050740085C383C7B18213074006814613064006E1
:10508400994503D58194EF00E22213C5840001B74A
:1050940093F705019DC3014789460946814503D518
:1050A4008194EF00027CAA85175502001305C534CC
:1050B400EF30724413C50401D9BD93F7450099CF6D
:1050C40003D58194EF0002770566130606C891455F
:1050D40003C5B182312513C5440055BD11656D8DDD
:1050E400E30705EA83D781947C8289475C8348007F
:1050F4009307803E7C85EF000277AA85175502004E
:105104001305C530EF30323F1395E46849B5797122
:1051140017050000130525E006D622D426D2EF0099
:10512400D030238201949384B1829947054488A0A6
:10513400FC82100893074006854513055030FC8413
:1051440023088100EF00A24617F6FF1F13068621ED
:10515400C54513057030EF008245138641829D4595
:1051640013056030EF00A24450088945130510313F
:10517400EF00E2433008894513052031EF00224354
:10518400930500050D45EF20E069930500051145E1
:10519400EF20406985457945EF20C0683008914586
:1051A40013057040408440862308810002CC230A02
:1051B4000100EFF0C1313000854513050040EFF0E8
:1051C40001317000854513051040EFF0413050085F
:1051D400854513052040EFF0812F10088545130500
:1051E4005040EFF0C12E13053003EF40306B130530
:1051F4003003EF702033EFF08FC613053003EFF068
:10520400AFDE17F6FF1F13062615A9450145EF402B
:10521400D04B89475C868D472308F1009147230AC8
:10522400F100B7070304938717203ECC300095475D
:1052340085450145230EF1004084EFF08FE07000B6
:1052440085450545EFF0EFDF100885450945EFF08A
:105254004FDF500885450D45EFF0AFDE300895452A
:105264001145EFF00FDEC16713878194F917138599
:10527400C1811CC323220700EFF0CFDB1385C19348
:10528400EFD0B15322548820B250925485454561E1
:1052940017E3FF1F6700C3BD3C21797122D406D6F2
:1052A40026D24AD04ECE59472A846380E7045D470C
:1052B400638DE70E5547639BE70C2C3117550200AD
:1052C40013050517EF3032233C30E9E34E20225416
:1052D400B25092540259F2492398B19417550200DE
:1052E4001305C51545616F3012214E211755020073
:1052F400130545168144EF301220830564001755C9
:105304000200130525164149EF30F21E4C3417559F
:10531400020013052516975902009389A917EF3047
:10532400921D6C24175502001305C515EF30B21CED
:105334007C2463D4F400639224072945EF30521F80
:105344005C24A9E783D701957C823E2417170020AB
:105354001307874248007C83B70705049387071027
:105364003EC4930750603EBB8567938777805EBBDE
:1053740097170020938767433EC6EF0022528C851F
:105384001755020013058511EF30F216B25022545E
:1053940092540259F249456182801C484E85A69771
:1053A4008C238504EF30321561B74E211755020066
:1053B4001305451023980194EF30F213C16703D706
:1053C4008194F917E314F7FC8547500085451305CC
:1053D40050305C82EF00A21D55BF411122C406C6A5
:1053E4002E849397556063D0070203C5219597B027
:1053F400FF1FE780805C11C1AD281315F468B2402B
:1054040022444101828013F5150075D91756020014
:105414001306860C814503C52195EFD0B154AA85A6
:10542400175502001305050AEF30F20C134514005A
:10543400F9B7411117050000130565FA06C6EF0018
:10544400C07EB2402389A1948545410117E3FF1F23
:10545400670003A2184183A785FF6319B7001CC125
:10546400FD5723AC05FE238FF5FE8280232CF6FE28
:10547400C5BF411122C437E400E026C20440370707
:10548400200006C6F98C2320E4180F10000009E957
:10549400232094101545B240224492444101828055
:1054A4000347E5FF9307F00F6306F70023209410EA
:1054B4001145D5B797D0FF1FE78040380145232019
:1054C4009410D1BF41114AC037E900E022C403243B
:1054D4000900B707200006C626C27D8C2320F918D0
:1054E4000F10000089E523208910154515A0AA8412
:1054F4009717002083C7D72A2E8563F5F4008947C0
:1055040063EE9700BD37B7E700E023A087100D4591
:10551400B2402244924402494101828083A785FF1C
:1055240099E703C7E5FF9307F00F6308F700913786
:10553400B7E700E023A087104DBF238F95FE1385A6
:10554400419597B0FF1FE780803FA165268597E0CE
:10555400FF1FE780E09101452320891055BF23AA4E
:10556400019482804111B7E700E026C284433707E3
:10557400200006C622C4F98C23A0E7180F100000EF
:105584009717002083A747261384C18291C7829767
:105594001C40AA971CC021A083A74196EDFB08409C
:1055A400B74703009387D73F3305F502B7A7260013
:1055B400938737ECB2403E9508C02244B7E700E039
:1055C40023A09710924441018280B7E700E09843FA
:1055D400B706200023A0D718758F0F100000971668
:1055E400002083C6F61B637ED50083A6019733256E
:1055F400D5201621B3F5B6400EA123A0E71001452E
:10560400828023A0E7100D4582807971B7E700E01E
:1056140026D284433707200006D622D44AD04ECE61
:1056240052CCF98C23A0E7180F100000930705FF54
:1056340093F7F70F7D47636FF70831473307E502A8
:1056440083A74197BA979C43D1C7135445003D891A
:105654003315A028AE89B345050822852EC697D0F8
:10566400FF1FE78040612A8929C9B2452285171A9C
:105674000020130A6A1A913F83A7419682978357A1
:10568400CA002A8481463387370313060064B3B7FC
:10569400370313050732B335E500BE95EF30022C0E
:1056A400B307850083268A003E8763E4A70063E48A
:1056B400D7003387D7402324E900B7E700E023A0CD
:1056C40097100145B250225492540259F249624A49
:1056D40045618280B7E700E023A097100945DDB754
:1056E400797122D437E400E04AD003290400B707D3
:1056F400200006D626D24ECE52CC56CA5AC85EC612
:105704003379F9002320F4180F10000097170020B4
:1057140083C717096376F50083AB419663970B0043
:10572400B7E700E023A0271199A0971A0020938AD5
:10573400AA0E03AB8A00B74736FE938707C83E9B81
:1057440083D7CA002E8AAA84B385C702B289814648
:10575400B3B7C70213850532B335B5001306006429
:10576400BE95EF30A21F6370AB02232024110145C4
:10577400B250225492540259F249624AD24A424BDC
:10578400B24B45618280829B83D7CA002A84130668
:105794000064B38537038146B3B7370313850532F5
:1057A400B335B500BE95EF30621BB307850003A780
:1057B4008A003E8463E4A70063E4E7003384E7409F
:1057C400D285268597D0FF1FE780E04A01C900C52E
:1057D400B7E700E023A02711054559BF93E504F07E
:1057E4004145B3C5050897D0FF1FE780C0F811E90C
:1057F4009717002083A7470085D7A6851145829770
:1058040005B71387C1961C4389EF08C38547232630
:10581400050000C52311450104A11CB12322050084
:1058240045BF3E87DC47F5FF48C7CDB77971B7E779
:1058340000E026D284433707200006D622D44AD07B
:105844004ECE52CC56CA5AC85EC662C466C2F98CE1
:1058540023A0E7180F10000025C12A892E8AB28AD6
:10586400B6894144B14C138B4197130C0003B30B1D
:10587400940383270B00DE979C43B9EF13554440F0
:105884009375F40056861375F50FB315B028B3C598
:105894000508B93531C183270B00DE9723A0270102
:1058A40023A247016384090023808900B7E700E04D
:1058B40023A09710014521A023A097100945B250B9
:1058C400225492540259F249624AD24A424BB24B90
:1058D400224C924C456182800504E31A84F9B7E7AF
:1058E40000E023A097102145D9BF011122CC37E451
:1058F40000E026CA04404AC84EC652C406CEB707C2
:1059040020002A892E8AB289FD8C2320F4180F10D6
:105914000000F933D2854A8597D0FF1FE780A03570
:1059240001ED232094102145F2406244D2444249BF
:10593400B249224A056182809717002083D787EEF7
:10594400B38537032A89130600648146B3B7370346
:1059540013850532B335B500BE95EF3022002322FE
:10596400A900232094100145C1B7011126CAB7E448
:1059740000E04AC803A9040022CC4EC6B7072000A1
:1059840006CE52C4AA892E843379F90023A0F418D0
:105994000F10000097D0FF1FE780E02D171A00209A
:1059A400130A0AE01DE1A2854E85053183470A00EA
:1059B4006380370523A024111945F2406244D24480
:1059C4004249B249224A0561828023110500A28519
:1059D4004E85E53E83470A006386370123A02411E0
:1059E4000145E1BF1387E1951E23C18F1EA3FDB7B7
:1059F4009387E1959A23598C82A36DBF01114AC8FC
:105A040037E900E022CC03240900B707200006CEC2
:105A140026CA4EC67D8C2320F9180F100000930768
:105A2400F00263E5A704B144B30495029389419756
:105A340083A70900A6979C4395CB9375F500118124
:105A4400B315B028B3C505080D3783A70900014570
:105A5400A69723A0070023A2070023208910F24061
:105A64006244D2444249B24905618280B7E700E00A
:105A740023A087100945E5B74111B7E700E026C226
:105A8400844306C622C437072000F98C23A0E718F4
:105A94000F10000097D0FF1FE780E01D19E90145B2
:105AA400B2402244B7E700E023A09710924441019A
:105AB4008280004583A74196829797170020938799
:105AC400A7D56367A4029847B74636FE938606C8EF
:105AD4003305A4403697E374E5FC13070064B3353B
