:040000006F00902AD3
:10000400000000000000000000010020B8090020EA
:10001400A9BDF9F300010020000000000000000069
:10002400000100200001002000000000000000008A
:10003400000800200000000030070020000000003D
:10004400380A0020380A0020380A0020380A002024
:10005400380A002000010020380A002000000000B7
:10006400380A0020380A0020380A0020380A002004
:10007400380A0020380A0020380A0020380A0020F4
:10008400380A0020380A0020380A0020380A0020E4
:10009400380A0020380A0020380A0020380A0020D4
:1000A40000010020D60600200001002000010020ED
:1000B40000010020000100200001002000000000D9
:1000C40000010020000100200001002000010020A8
:1000D4000001002000010020000100200001002098
:1000E4000001002000010020000100200001002088
:1000F4000001002000010020000100200001002078
:100104006F000000B7170040984B411113670701B7
:1001140098CB982B1377E70F98AB130780087337A6
:100124000780137787083AC601000100130770059A
:100134002380E704130780FA2380E7040100010009
:10014400B847894613675700B8C703C7B70413777E
:10015400F70DA385E704B82713672701B8A713078A
:1001640050149AA737270040A303D78003C7E70496
:100174001377C70F136717002387E704982B1367B8
:10018400170098AB23800704B247F3A70780010048
:10019400010041018280EFF0FFF6130580259705E9
:1001A40000009385650B171600001306E68F63FCA9
:1001B400C5008322050023A055001305450093853F
:1001C4004500E3E8C5FE177500E01305E5C497157F
:1001D40000009385A58D1386418163FCC5008322AD
:1001E400050023A055001305450093854500E3E869
:1001F400C5FE13858181973500009385A537637803
:10020400B5002320050013054500E36CB5FE9302F9
:100214005002739002BC93023000739042809302A8
:100224000000739012BCB722000093820280739086
:100234000230970200009382E2DC93E23200739072
:100244005230971200E0938202AF7390123473001D
:040254002030000056
:100258002303048015472303E48001002302A480BC
:10026800828083076480E3CE07FE230304808280B4
:1002780083076480E3CE07FE0345448082808307BA
:100288006480E3CE07FE2302A4808280411126C445
:100298004AC24EC006C61377F50BAD47AA892E8908
:1002A80095446306F70019456537653F8D444E85CB
:1002B8004537FD59FD1463983401B240A2441249F0
:1002C800824941018280135509011375F50F453F95
:1002D8002209CDB7011126CC06CEB7040800513744
:1002E8001545BD37713769372AC6A53F324593771B
:1002F800150089EB136515001375F50FF240E244FC
:1003080005618280FD14E9FC0145CDBF397126DC09
:100318004ADA4ED852D656D45AD25ED006DE62CECB
:1003280066CCB7E700E07D5783AA070022C603AA78
:10033800470023A0E71823A2E718B71700401307C0
:1003480070052380E704130780FA2380E70483C736
:100358004704930B75FFB684E20793FBFB0F8546B2
:10036800AA892E8B328937240040E187015763FA26
:1003780076016308D5008946130700026313D50088
:100388000157D98F93F7F70FB71C00402382FC045D
:1003980011472303E4801305F00F5D3D094CD13567
:1003A800636D7C11B7050700DA9537870700795523
:1003B80063F2E504B3879500636EF702370B080014
:1003C800A94733EB65016399F90689E48144513DF6
:1003D80026850DA0DA850945553D05090345F9FF30
:1003E800FD14050B693D81C49377FB0FFDF7DD35DF
:1003F80069FD7D55B7170040130770052380E70492
:10040800130780FA2380E70403C74704418B23823C
:10041800E704F250B7E700E023A0571123A24711E1
:10042800E25432445259C259325AA25A125B825B80
:10043800724CE24C21618280A5476395F906856973
:100448001309F00FB3069900B3742B01B69413493E
:10045800F9FFB3749900856B33796901416B938710
:10046800F9FFB3F7270199E363FC340193D94900F5
:10047800C147E3E637FF99BF0569C1697D19D9B757
:100488001305800D638869011305000263847901EF
:1004980013051008CA85DD3B353D21DD4E99B3842F
:1004A8003441D9B7DA852D45D533CA94E30099F29A
:1004B80005097D3BA30FA9FED5BF9387F9FF93F7E5
:1004C800F70F6361FC0C83C71C0413073008631F14
:1004D800F70437070800636BEB04B3079B00B70604
:1004E800100063F5D704334BEB0089476393F90693
:1004F8008980D549E38C04ECDA850945413B11092B
:100508000327C9FF91472320E48003076480E34E53
:1005180007FE23033481FD17EDFBFD14110B81C485
:100528009377FB0FE9FF7D3371F5E1B5B71700400D
:1005380003C75704B70708001377070219E3B787FB
:1005480007007955E378FBEA33079B00E3FFE7F8F8
:1005580055B58547E382F9F2DA852D45053B938940
:10056800F4FFE38504E6293393F7390091EB8326FA
:1005780004800327090093074900E39AE6E43E89CB
:10058800CE84F1BFB5476396F9001305900BC931C6
:1005980035BDB1471305B00AE38BF9FE994763915E
:1005A800F904B7050800B365BB002D45C531814482
:1005B8008D4BA149753963967401832704802320E4
:1005C800F9008504E39834FF8327048013172B016F
:1005D800635507002312F900D5BB2322F900FDB3A8
:1005E8009D476399F90281451305B0044531BD441F
:1005F8002320090023220900FD599D3993F774002F
:10060800CA9703C70700FD14398D2380A700E39616
:1006180034FF6DBBA1476392F9046D398144630DC2
:100628000B008D479304C0036308FB009304000587
:1006380063048B01930440041375C507E30895D838
:100648001945393139390545213126850D3909458D
:100658003D314931E31C05D669BB91476399F900DF
:1006680013056006F536F53E130590090DB7E38FBF
:1006780009D4F154A9BB31712ED332D536D72A8685
:10068800541193050008080806CF22CD3AD93EDB5D
:1006980042DD46DF36C613848181975000E0E7804B
:1006A80040B50840FD55971000E0E78060660C08EB
:1006B800176500E01305C5A7975000E0E780608B39
:1006C8000840971000E0E780807AFA406A44296180
:1006D8008280B717004083D7C7094111056722C434
:1006E80006C633C40708F98F99C703A5C1819720A7
:1006F80000E0E780E073B7170040B240239E870808
:10070800224441018280B7E700E0116723A0E72077
:100718008280411106C6972000E0E780602C93870D
:10072800C18BD843B24098C341018280197106C277
:1007380016C41AC61EC822CA26CC2ACE2ED032D239
:1007480036D43AD63ED842DA46DC4ADECEC0D2C2E9
:10075800D6C4DAC6DEC8E2CAE6CCEACEEED0F2D219
:10076800F6D4FAD6FED892DA9305000273A0458033
:100778009382C18B83A2020023A02200F3221034AB
:1007880016C0EFF01FF99382C18B83A2020003A168
:1007980002008242739012349240A2423243C24312
:1007A8005244E244724582551256A2563257C257F5
:1007B8005258E25872598649164AA64A364BC64BD1
:1007C800564CE64C764D865D165EA65E365FC65F75
:1007D800565209617300203000001387818F1C4333
:1007E80085071CC382801387818F1C43FD171CC398
:1007F800828003A5818F3335A0008280F93F83A7CB
:10080800C18F91C38297B7F700E023A20700E13FA9
:1008180073002030B7170040984B41111367070148
:1008280098CB982B1377E70F98AB1307800873378B
:100838000780137787083AC601000100130770057F
:100848002380E704130780FA2380E70401000100EE
:100858001307000C6315E5029A271367070C9AA77C
:10086800B7170040982B1367170098AB238007042D
:10087800B247F3A707800100010041018280B82731
:1008880093760520DDC2118B29E303C7E70403C66D
:10089800E7041377F70F136636002387C704B027DA
:1008A80013664600B0A792278E273346060893E5BD
:1008B800050C8EA7A5470100FD1793F7F70FE5FF75
:1008C800B717004092A72387E70493770510D5C789
:1008D800371700403C2793E707013CA79377F501BA
:1008E800A9EBB727004003C7578013670701A38206
:1008F800E7801D47A383E78033450508B717004005
:100908001367050C9AA78AA7D5C203C7570483C6DD
:100918005704418B858A558F21F7B82B418B29D3F2
:10092800B8271377D70FB8A725BF13672700B8A72D
:1009380069BF2547636CF700B727004003C7578096
:100948001377F70EA382E78005476DB79377050104
:1009580099EBB727004003C757801377F70EA38298
:10096800E780094741BFB727004003C7578013678F
:100978000701A382E7800D47B5BF9377850181EF13
:10098800B727004003C757801377F70EA382E78085
:100998001307100585B7B727004003C7578013779B
:1009A800F70EA382E78013077005A9B7B827137756
:1009B800B70F95BF41118146014681451145B932AE
:1009C80013078008F337078093F787083EC40100B0
:1009D8000100B7170040130670052380C70493066B
:1009E80080FA2380D70401000100FD55CEB723808B
:1009F8000704A245F3A505800100010073370780AD
:100A0800137787083AC6010001002380C7042380B2
:100A1800D7040100010003C7670413671700238385
:100A2800E70423800704B247F3A707800100010009
:100A380001A00000EFF07FDAF3252034939525001C
:100A480017F5FFFF1305C5613305B500032505003C
:100A5800F32210BC13F31200631003047310013463
:100A680017F101001301C15973E010BC7360043021
:100A7800E700050073700430130000001300000045
:100A88001300000073F010BC130000007321003441
:100A9800EFF07FD573002030E70005006FF05FFFAF
:100AA800971100209381818817F1012013010155C6
:100AB8001305400097F5FF1F9385455417F6FF1F50
:100AC8001306067963FCC5008322050023A05500A0
:100AD8001305450093854500E3E8C5FE17F5FF1F9C
:100AE8001305256B67000500732500309302800805
:100AF80073B002308280732500309302800873A09F
:100B08000230828073100530828001009382C18B8D
:100B180003A3020003210300824273901234896206
:100B280093820288739002309240A2423243C243B9
:100B38005244E244724582551256A2563257C25761
:100B48005258E25872598649164AA64A364BC64B3D
:100B5800564CE64C764D865D165EA65E365FC65FE1
:100B6800565209617300203000002A8309CA838322
:100B78000500230073007D16050385056DFA828044
:100B880015C22A8385466367B500FD561307F6FF2D
:100B98003A93BA9583830500230073007D16369334
:100BA800B6956DFA82802A8311C62300B3007D169C
:100BB800050365FE8280411122C406C61754000051
:100BC800130404571305C012EF3020078A852285C5
:100BD80097000020E78020AAF5B7411122C406C675
:100BE80017540000130444571305401FEF30E00466
:100BF8008A85228597000020E780E0A7F5B7411194
:100C08009385C181014506C622C426C24AC0EF2089
:100C1800200D31E585450565EF30604A8945056554
:100C2800EF300052B7E700E03707020023A0E710D3
:100C38009384C181175400001304445517590000C8
:100C4800130909548840FD55EF20E00919E54A8544
:100C580097000020E78020A2F5B72285D5BF22445F
:100C6800B24092440249175500001305255341012B
:100C780017030020670023A03971814559461305E1
:100C8800A10106DE0D3797070000938787F73ECA54
:100C9800930700403ED297570000938767513ED490
:100CA8004C0899470808FC84EF20105919C51755B6
:100CB80000001305E550EF40C03F970700009387F9
:100CC80007F23ECA930700403ED297570000938729
:100CD800E7503ED44C0899472800FC84EF20D055B3
:100CE80019C5175500001305A550EF40803C97071C
:100CF8000000938787EC3ECA930700403ED297577F
:100D08000000938727503ED44C089D476800FC8418
:100D1800EF20905219C5175500001305E54FEF4015
:100D28004039F2500145216182804111114506C6C2
:100D380022C4EF30C0331305503497000020E780F9
:100D480060ADB7170040116723ACE70AC1450545F8
:100D5800EF30404685452165EF3060368D45116599
:100D6800EF30E035EF30E055175500001305054C1E
:100D7800EF402034EF00705F2A84FD3D13858181A8
:100D8800EF00B07001C9175500001305A54AEF40E0
:100D9800403201A019E0EF00105D1755000013055F
:100DA800A54AEF4000310100FDBF411122C426C20F
:100DB80006C6AA84153B83A701822A8499C326857F
:100DC800829722852244B2409244410125BB89473B
:100DD80063CEA70279158D4763F4A7000145828089
:100DE8004111054506C6E53711EDEF2090202A860A
:100DF8009755000093850547175500001305C5460C
:100E0800EF40A016B2400145410182807D558280A5
:100E180083A7418281CB411106C68297B240014522
:100E28004101828001458280635DB0042A87D947E9
:100E380039C9411106C611EA2E868145AD3393079B
:100E48006009B2403E854101828063F8D5002E8654
:100E58008145913B9307200AEDB7637DA60036963E
:100E68008147E370C5FE2E863A8581452D3B930761
:100E7800600BC1BF8147E376C5FCAA96E373D6FC35
:100E8800DDB7930720023E858280B28763EDD500E7
:100E980019C911CA63C9050099C66378A600330742
:100EA800D600637AE5003E8641B7E37EC5FE330788
:100EB800D500E36AE6FE41113686BE8506C6753161
:100EC800B240014541018280AE8763CF05021DC94A
:100ED800011106CEB285368663EED700970700006B
:100EE8009387A7CC3EC6B24782970147F2403A851E
:100EF8000561828013072002F5DB3E866D311307FA
:100F0800200AEDB7594799E1130720023A858280F4
:100F18001C415441D8433697D8C358413A951CC10F
:100F280082809307C53A63E7F5005C413E9533B587
:100F3800A500828001458280011122CC03A4C5FF4F
:100F48003707004006CE618FAA872E8505C76357ED
:100F580004020945AD3D11EDA2861306C0539765FD
:100F6800000093856599175500001305A530EF30EB
:100F7800D07F0145F2406244056182809316E449BE
:100F88000D8801E8B387F540E1173385D540E3F3D1
:100F9800D7FE094536C6253DB24661FD13064054C5
:100FA8007DBFF9472A8663F6B7009307F00763E524
:100FB800A702011109452EC632C406CE093D2246B4
:100FC800B24519E5175500001305852CEF30F07967
:100FD800F24001450561828013163500A11533568C
:100FE800B600130586FF8280411106C622C4930706
:100FF800F00763E4A702135425007D14F94763F949
:1010080087007D54A285713F3364A420130474F2D1
:10101800B240228522444101828013047003931751
:1010280005601D8C33440408F1BF411126C2AA840F
:10103800C84122C406C62E84453F9307E00DAA8501
:1010480063F8A7001755000013058527EF00702ED9
:10105800334795201C5B91C380C75CC423240400DC
:1010680000DB93D7550033C597205C49B240224432
:10107800B397B7285CC99244410182802A87814787
:101088006363B5026361A60236855443854763CC22
:1010980006000C43411106C66935B240B337A000BB
:1010A8003E85410182803E858280504179714AD0D7
:1010B80061162E892A969305C53AAA862AC64A85B4
:1010C80026D206D622D44ECE32C42EC2453FFD5477
:1010D80031C903244900FD5463560404B70900408C
:1010E800FD1933743401B246224692454A9422854A
:1010F80071370DC90040631724039245638C85023C
:1011080003290400B24622464A858D3F01CD832734
:101118004900B3F737013E99330424413334800042
:10112800B3048040B25022540259F24926859254A1
:10113800456182808144FDB733C7A520145B5C46B6
:101148006392C6021CDB81EF93D7550033C5A720F5
:101158005C49B315B028B3F5B7404CC9828023A4C5
:101168000700828018465CC791C398C78280011126
:1011780022CC2A84C84106CE2EC6BD35AA85228532
:1011880062443246F240056145BFDC41411122C448
:1011980026C24AC0B384C50006C6918FDCC08CC085
:1011A800D0C1C0402A890A04098026945C4004C042
:1011B80063C60700A285653F2285993B2244B24059
:1011C800A6854A8592440249410185B5011122CC80
:1011D8004AC84EC606CE26CA2A892E84F935AA8957
:1011E80015C10945ED3619E51755000013054510D9
:1011F800EF30306CF2406244D24442494E85B249E5
:10120800056182805C400327090104408A078983BD
:101218001D8F2328E9005CC091C8DC4063C8070023
:10122800A6854A85A9372285E531268444408A0463
:101238008980A294DC4063C707004A85A685053FDC
:101248002685F931A2854A85CD336DB75841931764
:1012580027008983635707023E85814605468147F3
:1012680098412A9798C1D8413E97D8C19845B377F5
:10127800F70A9CC5DC45B297DCC59C49B6979CC962
:101288008280854601460145E1BF011106CE22CC88
:1012980026CA4AC84EC652C40DC99309403BAE84FB
:1012A80063F5B9023369B500137939002A846308F4
:1012B80009020945293E11E991462686A285175556
:1012C800000013056504EF30504A7D59F24062442E
:1012D800D244B249224A4A854249056182801306AE
:1012E800C03A8145EFF03F8C1387C4C444C0E11471
:1012F8009307043800C0A294130AC43A98DBC4D7F1
:10130800D28522851D33B707008023A04401DCC0A5
:10131800232834012326340155BF011126CA06CEDD
:1013280022CC4AC8FD5421C19DCD3369B50013793B
:1013380039002A84631909021C45898B91E72EC656
:10134800EFF08FFAB2452A892285FD36FD5411C582
:10135800930585FF22859D3DAA841C44898B81E7DE
:101368004A85EFF02FFAF240624442492685D2447A
:1013780005618280630E052A1C45397122DC4ED630
:1013880006DE26DA4AD852D456D25AD05ECE62CC7D
:1013980066CA6AC86EC6898B2A84814981E7EFF0DC
:1013A800AFF4AA89032A44001C40611A229A6316E2
:1013B800F400137B3400630E0B040945093C11ED5E
:1013C8009306A068175600001306C651A285175544
:1013D8000000130565F9EF3050391309C43A370B8B
:1013E8000040CA847D1B63E2440F1C44898B638DD3
:1013F8000722F2506254D2544259B259225A925A90
:10140800025BF24B624CD24C424DB24D0145216118
:101418008280930B0403814A975C0000938CCCF77D
:10142800130CF00D83A40B0095EC850A910BE39B3C
:101438008AFFE3040BFA0545593A09E95040A285A9
:1014480017550000130505F9EF30303205454132D4
:1014580049F510484C44175500001305A5FAEF301C
:10146800D030A5BFA68522856D3C29C103A984007B
:1014780063060900CA8522856D340DC983ADC40091
:1014880063860D00EE852285693C0DC103AD04001D
:101498002285EA85793419C93369B90133E9240108
:1014A800336D2D01137D3D00630F0D000945EFF0ED
:1014B8001F9209E9DC44984494402686D6856685BF
:1014C800EF30B02A054BC44485B78C402285913C47
:1014D80045E90945EFF0BF8F11ED9440130600660A
:1014E800975500009385853E17550000130545F56F
:1014F800EF30B027639C24010545EFF05F8D19E5B7
:10150800175500001305C501EF30B03ADC4005451A
:1015180063DC070CEFF0BF8B09E9D0408C4017550E
:10152800000013052502EF305024832749000545A4
:1015380063DA070CEFF0BF8919E903264900832510
:1015480009001755000013056504EF3010222146E5
:10155800CA8513858191EFF04FE12146A685138551
:101568000192EFF08FE01C44898B81E74E85EFF004
:101578006FD94A86A6851755000013052505552BF2
:1015880083AA440063CD0A048C4485C52285513A58
:101598000DE10945EFF0BF8331FD94441306A064C3
:1015A800975500009385C530175500001305C5ED04
:1015B80081B7CC448DC52285AD3215E10945EFF0E0
:1015C8001F81E31905F2D4441306006597550000FE
:1015D8009385052E175500001305C5EF11BFB3FA03
:1015E8006A012689D69401B5EFF06FFE1DFDD8403B
:1015F8009444D0448C40175500001305A5F6EF30ED
:10160800D01625B7EFF0AFFC39F103274900832640
:1016180089000326C9008325090017550000130512
:10162800A5F8EF30901425B74E85EFF0AFCDD1B3C4
:101638007D558280011106CE22CC26CA4AC84EC6E4
:1016480052C456C25AC005E50545EFF04FF841E9C6
:1016580017550000130585FB6244F240D244424905
:10166800B249224A924A024B05616F3090242A847B
:101678002E8AB28A0133AA8411C90545EFF02FF5E5
:1016880039ED175500001305A5F9F9B71C44898BE6
:1016980081E7EFF06FC5AA8403294400370B0040A7
:1016A8009309C43A611922997D1B63E129031C44FB
:1016B800898B95E76244F2404249B249224A924AEC
:1016C800024B2685D24405616FF0CFC34E85D6857F
:1016D800029A83A74900B3F76701BE99F9B7F240A8
:1016E8006244D2444249B249224A924A024B0561B5
:1016F8008280411106C622C426C289ED0945EFF051
:101708000FED19E517550000130545F3EF30701A72
:101718007D55A9A82A8401C51C416380A7020945F3
:10172800EFF0EFEA75F51306D079A285175500009A
:10173800130505F3EF307003E1BFAE8461468145C0
:101748002685EFF04FC622852686970500009385EB
:1017580025B0CD351C440145898B99E3EFF0CFB80E
:101768005C44DCC81C44898B99C70145B2402244BB
:10177800924441018280EFF0EFB8C5BF5D71AD05BD
:10178800A6C2CAC04EDE86C6A2C413F9C5FF930717
:10179800F007AA84B28963EF270F93572900FD1732
:1017A80079471306F00D7D54636DF70E13D7570074
:1017B80033479720544B3317F0283307E040758F91
:1017C8000DC3B306E040758F13170760FD45998D6B
:1017D80013F707FEB3C50508BA951307F00D639F05
:1017E800E50E138717009387070281466373F70096
:1017F800FD46B307D700819B9305E00D63F0F50C18
:101808009307F00D6307F600B3479620805B631CCF
:1018180004100945EFF0AFDB19E517550000130573
:1018280065E6EF3010099C44898B81E74E85EFF01F
:101838006FAD614681452808EFF0EFB62C08268584
:101848004D3DFD576318F50E9C44898B99E3EFF0E5
:10185800AFA90945EFF0AFD701ED4A8697550000CB
:101868009385850A17550000130505FEEF30E06FD4
:101878000945EFF0CFD519E517550000130585E0A8
:10188800EF3030030145B640264496440649F259E4
:101898006161828013047003931709601D8C3344BF
:1018A8000408A2854A85EFF0CFEF930714FEB3E74B
:1018B800A7201386F70193870702CDBD13D75700DA
:1018C80033479720544BA9CE3307D040758FFD4539
:1018D80013170760998DB3C50508BE95B3C7952042
:1018E800805B05D822862685EFF01F855840930730
:1018F80009016367F7004A86A2852685EFF0FF880D
:101908005C401397F72958C098488A078983BA9783
:10191800D8449CC86373F700DCC413058400A5B7DA
:1019280093870702E1BD5C4063F427014044C5B5D5
:10193800B2854DBF0545EFF08FC919E51755000071
:10194800130505DBEF30E0760545EFF04FC819E5E4
:1019580017550000130505E2EF30A0750545EFF0B7
:101968000FC7E31305EEB257A25812583EC072478C
:101978008257E246D0408C40175500001305C5E752
:10198800EF30A05ED1B5011122CC06CE26CA4AC8D6
:101998002A8421C1B1C5A147B3F5F50A1C45814484
:1019A800898B91E72EC6EFF02F94B245AA8401499E
:1019B80063CA0500B7070040ED8F89E726862285B0
:1019C800753B2A891C44898B81E72685EFF08F9324
:1019D8004A84F24022856244D244424905618280A9
:1019E8000144C5BF797122D406D626D24AD04ECE3C
:1019F8002A843DCDD1C5328941C69304F6FF93E7C9
:101A08003400F18FB5EFA147B3F7F50A9305C6FF88
:101A1800BE9563E7F50663C50506B7090040B3F947
:101A28003501639F09041C45898B91E72EC6EFF0A9
:101A3800AF8BB245AA894E8622858933AA94330989
:101A48002041B3F42401630E95000327C5FFB38733
:101A5800A4409397E7291317E729232EE5FE23AE21
:101A6800F4FE1C44898B81E74E85EFF0AF8926840C
:101A7800B2502285225492540259F249456182801B
:101A88000144FDB741114AC00D6922C426C206C6E9
:101A980017F5FF1F1305051C9384818293050980A0
:101AA80088C0EFF08FFE2A841145EFF04FB211E99C
:101AB8008C4013060980175500001305A5DCEF308C
:101AC800C04AB240228522449244024941018280A0
:101AD80009C993074500232005001CC55CC10145C1
:101AE800828037250002130565C0828015CD41111B
:101AF80022C406C62A84EFE03FFF18449307440037
:101B0800630CF700EFF00F8037250002130585C03E
:101B1800B24022444101828023240400232204008D
:101B2800EFE05FFE0145EDB737250002130565C0FC
:101B38008280397122CC3EDA2A845C10094506CEAF
:101B48002ED232D436D63AD842DC46DE3EC6EFF044
:101B58000FA809E5B2452285EF3020410945EFF08D
:101B6800CFA4EF2000386F20E03D4111054506C69F
:101B780022C4EFF0CFA519E517550000130585D944
:101B8800EF30205301372A840DC10945EFF02FA407
:101B980001E9A28517550000130545D9EF30E03C4F
:101BA800B2402285224441018280EF202034EF2078
:101BB800C0232A8419C90945EFF06FA175F1A285E0
:101BC80017550000130545D8D1BFEF1070352A848A
:101BD80001CD0945EFF0AF9F61F5175500001305DA
:101BE800A5D8EF30004D6DBFEF1080002A844DF965
:101BF80089202A8455F5752E2A8411C90945EFF0E4
:101C08000F9D59FD17550000130545D7D9BFEF1093
:101C1800F0112A8411C90945EFF06F9B51F117554E
:101C280000001305E5D675BF2244B24041016F108C
:101C3800305B411122C406C61384C1829305000F8C
:101C480003A5818240C000C03D3B23AAA1820DC9E3
:101C5800210581472946230C05FE1840232EF5FE51
:101C680023240500544318C1850754C188C248C3BA
:101C78006105E392C7FE0145B240224441018280DA
:101C880037250002130505D0C5BF35C9411122C447
:101C980006C62A84EFE05FE51387C1825C43639A36
:101CA800E702EFE03FE637240002B7C5B2A10147DB
:101CB8008146130634D09385853F175500001305D8
:101CC80065CEEFF0EF94130534D0B24022444101C1
:101CD80082809843D44398C254C30547239D07FE86
:101CE800238CE7FE2396070023A40700DCC39CC3CC
:101CF80083A7C7FF1CC0EFE0FFE00145F9B7372510
:101D08000002130525D08280011106CE22CC26CAF6
:101D18004AC84EC652C4A54763FDA702372400022D
:101D2800B7C5B2A1130614D0014781469385853FF4
:101D380017550000130505C7EFF08F8D130414D055
:101D4800F24022856244D2444249B249224A05619E
:101D58008280E1473305F50283A441832E8AAA9441
:101D6800EFE09FD89C202A89638B070C97F0FF1F10
:101D7800E78020A82A846319050C83D7818BA1C327
:101D8800094537240002EFF08F84130464D019E565
:101D980017550000130545C2EF30A0314A85EFE022
:101DA8007FD6B7C5B2A10147814622869385853F74
:101DB80017550000130505BFEFF08F8551B783A9AC
:101DC800C18B83D749000567F98FC1E7BE2081EF32
:101DD8008547BEA083D7690023A83401DEA84A85B9
:101DE800EFE05FD2B1BF8848631535018507BEA013
:101DF800FDB763050A0683D569007E2123AE9902E3
:101E080063F4F500EF007029D28513858400EF0094
:101E1800B0214A85EFE01FCFEF00305CEFE0DFCC68
:101E280083D749002A8913F707045DDB93F7F7FB8B
:101E3800372400022392F900130474D085B737249D
:101E48000002130414D099BF37240002130454D09D
:101E5800B1B7372400021304D4D089B7372400025D
:101E6800130444D025BFE147B307F502411122C44A
:101E780003A4418326C24AC006C6AA843E94EFE062
:101E8800BFC6A5472A8963E497001C208DEB4A85C5
:101E9800EFE05FC737260002B7C5B2A10147814608
:101EA800130616D09385853F17550000130585AF97
:101EB800B7240002EFE0DFF5938414D025A897F04B
:101EC800FF1FE7800093AA840DCD4A85EFE09FC3EA
:101ED800B7240002B7C5B2A1138654D00147814682
:101EE8009385853F175500001305C5ABEFE05FF2FA
:101EF800938454D0B2402244024926859244410139
:101F080082803E2003A7C18BD9D30848E311E5F8A6
:101F1800FD17B3C707083EA089C74A85EFE09FBEF3
:101F2800D1BF4E287E216384B700EF0010175C44B0
:101F3800130784006384E70205473AA003D7E7FB49
:101F4800138587FB08C85AA823AA07FEEF0090103C
:101F58004A85EFE03FBBEF00504869BF23280400E3
:101F68006DBF954763E1A70285C51C429DC7A1C205
:101F7800411106C697F0FF1FE780A08705E50145D8
:101F8800B24041018280370500021305E560828076
:101F98003705000213052561828037050002130505
:101FA800356182803705000213059560D1BF014570
:101FB800828041119305001203A5818222C406C6BE
:101FC80013840184EFF03F9C08C029C593060012D2
:101FD800014693050012EFE03FEF1C409386818392
:101FE800D4C294C2938707020147194590422397A8
:101FF800E7FE05074C4290C333470708CCC39CC192
:102008005CC293870703E313A7FE0145B24022444D
:10201800410182803705000213051560C5BF79C6E6
:10202800C167ED1763E9E70C01114AC806CE22CC57
:1020380026CA4EC652C456C25AC02E89F1C169C3B7
:102048001107B3440708B3859502138B8182AA8AC6
:1020580003250B00328AEFF01F93AA895DC5EFE0D4
:10206800BFA893878183C0436317F402EFE09FA959
:1020780003250B00CE85EFF04FAA370500021305A4
:102088004560F2406244D2444249B249224A924AE7
:10209800024B0561828058401C401CC3D8C393077B
:1020A80004F823A25707231524FF231694FE23A020
:1020B800370705472314E4FE231A04FE231B24FFD5
:1020C800231804FE231904FE130784FFF8DFB8DF82
:1020D800930784005CC41CC440C000C0EFE09FA20A
:1020E8008357E4FE01452320FA0061BF370500024B
:1020F8001305C560828037050002130535608280AC
:10210800370500021305D560ADBF3705000213057A
:10211800256085BF797122D426D22A844ECE52CC2E
:1021280056CA06D64AD05AC82E8AB28AB6893AC63C
:10213800EFE09F9B93070003AA843305F40203A4EE
:1021480001842A941E246386071C13791A0003A7A6
:102158000900B245630609005E24F11763E0E71C35
:10216800B7070080F91763E0E71C332789205E2B47
:10217800A9EF99E937040002631C091A1304D46112
:102188002685EFE03F98FDA083D7818B6395071ADA
:102198001305390003ABC18B33658520712526856E
:1021A800EFE05F96EF007023EFE01F9483574B003A
:1021B800AA8413F7070401CF93F7F7FB370400024B
:1021C8002312FB001304746065BFFD175EAB9377A1
:1021D8003A000547638FE7020D476384E704A9EFD8
:1021E8001E2832240147938617006384C60033C72C
:1021F80006081AA84E240840137A4A00B387B70283
:102208003E9563080A08631209081C4123A0FA00D6
:1022180035A81E2891E33E24FD17B3C707081EA85A
:10222800D1BF3E2832240147938617006384C60035
:1022380033C706083AA87DBF0945EFE05FB919E53D
:102248001745000013058579EF20B066134919007A
:10225800B3678920C84F93073900B3E78720630124
:10226800F50A130585FBFD232685EFE0BF890144A8
:10227800EF00B016B2502285225492540259F24906
:10228800624AD24A424B4561828083A70A001CC138
:1022980075BF1387C5FF83A709002A97631309042D
:1022A800032A07002A86BE85335AFA0A5685D2863B
:1022B800EFE0BFBD05C52AC60945EFE05FB1B246EC
:1022C8001306C01541F597450000938565751745B8
:1022D800000013056572EF2050498DBF23A0490106
:1022E800B5B71CC3BE865686EFE03FBA25D12AC6CD
:1022F8000945EFE0DFADB24631F913065016E1B7F4
:10230800332989208357490101448507231AF90095
:1023180085BD370400021304A4609DB5370400028C
:1023280013045461B1BD370400021304046289BD6B
:1023380013046461B1B5370400021304646089B5FD
:10234800954763EBA70401114AC806CE22CC26CADA
:102358002E89A1C9328431C61C42A9CBAA843687EA
:1023680099EAA2866244F2404A8626854249D244C6
:102378008145056145B336C697E0FF1FE780604792
:10238800324765D13705000213058561F240624482
:10239800D244424905618280370500021305E56091
:1023A8008280370500021305F560CDB737050002B6
:1023B80013050561E1BF011132C6700022CC26CA9F
:1023C80006CE2A84AE8436C4EFF0BFB919E5224799
:1023D800740026868D452285353BF2406244D244FE
:1023E8000561828058411C411CC3D8C323220500C3
:1023F800232005008280411106C622C497E7FF1FEB
:102408009387C7727D56FD5603A4C18E90C3D4C36B
:102418009307803EB357F4021565130505E2374666
:102428000F0013060624814623A4F1841307B00481
:10243800B387E70213074006B3D7E702B335A40210
:1024480023A2F1843305A402EF10506A23A8A184C3
:1024580013052003B335A40237460F0013060624DC
:1024680081463305A402EF107068B240224423A6C7
:10247800A1844101828058511C516366E6006310B3
:10248800C70463FEF5024111054506C6EFE0FF915A
:10249800EFE08FE50945EFE09F930DE197460000D7
:1024A8009386465F1306E004974500009385C55858
:1024B800174500001305055BEF20302B01A01459C8
:1024C80003A7018B6388E6001845B387F540B30777
:1024D800F7401CC50CD150D182809387C187D8435F
:1024E8006317F7029346F6FF7D579387418703A842
:1024F8004700631EF8021345F6FFFD556366B700F3
:102508006396E50063F4A6003685BA858280144791
:102518003308C5005847B337A800AE976366F7007D
:10252800E395E7FCE3F306FDC2863E877DBF2A9666
:102538003335A600B307B5008325C80003258800F6
:1025480063E6F500E39CB7FAE37AC5FA3285BE85FF
:1025580075B7011106CE22CC26CA4AC84EC652C447
:1025680056C23289AA8AAE89EF10207903AA41841B
:1025780052862A84AE849537AA876366B900639F1A
:10258800250963FDA908B386374133B5D7003387DA
:10259800254103A681846314A7006371D608CE87FA
:1025A800CA85054617E9FF1F1309495883264900BC
:1025B8000327090063E6D5006399B60463F7E704C7
:1025C8003305F7403337A7008D8E01486394E60042
:1025D800636D450311E2FD5A33858740B3B7A70001
:1025E800858D23AC51859D8D6316B80063744501B4
:1025F80052858145EF10A07C2A943335A400A69516
:102608002E95232089002322A900F2406244D24457
:102618004249B249224A924A05618280014659B725
:1026280097E7FF1F93878750D843636BB7006315FD
:10263800B70098436366A7007D56FD5690C3D4C380
:10264800828083C78189B1C383D741859DEF83A7E2
:10265800C18B885B03A7018B6303E502904703A73F
:10266800C1846344C70003A601858C53DC53135708
:10267800F641B29533B6C500BA973E96D9BD83A543
:10268800418493C5F5FF7D56D5BF82805E2113F73F
:1026980047000DCF4111054506C6EFE00FF1EFE009
:1026A800AFC40945EFE0AFF20DE19746000093860D
:1026B800A63F1306200E974500009385E53717457A
:1026C80000001305253AEF20500A01A0145903A76A
:1026D800018B638AE6046E21032385009718002086
:1026E800938848D783A6C18433E715211306850448
:1026F80003284700139E350063DD6602631DE8006A
:102708001383C185B7060080B3D6B60083250300BE
:10271800CD8E2320D3002326050538C52320C800E5
:10272800F29823A2C80093F757F593E747005EA1F4
:10273800828083A6018514C5631DE8001388C185BE
:10274800B7060080B3D6B60083250800CD8E2320B7
:10275800D8001843544338C574C590C250C3E1B774
:10276800411126C2462106C622C44AC093F7440036
:10277800B1C3185983A7018B2A84630BF702035945
:10278800650013058504EFF0FFC5971700209387B0
:1027980067CCB367F920D843631CF7001387C1855A
:1027A8001443B7070080B3D72701B3F7F6401CC31B
:1027B800ED9846A0B24022449244024941018280E9
:1027C800411126C2462122C406C693F744002A8432
:1027D8009DC779375E2093F7070A89CB1305040153
:1027E800EF00007E5E2093F7F7F55EA05E20B24012
:1027F800924493E707105EA022444101828093F738
:102808008400E9DB13058504DD98EFF0BFBD46A021
:10281800D1B783A7C18B23A4070082805E214CC552
:1028280093E707025EA1828083A7C18BDA23138610
:10283800870493668700D6A31441C842B4C7E8C783
:1028480010C1D0C2FD566386D50013678708DAA386
:10285800CCC78280411122C42A841305850406C688
:10286800EFF05FB85E2013F777FF5AA093F70708D9
:1028780089CB13050401EF00A0745E2093F7F7F7E6
:102888005EA05E20C98B91E722852244B2404101B7
:10289800F5BBB2402244410182805E21411122C42D
:1028A80026C206C613F747002A84AE8419CB4D3DCD
:1028B800228566A0E13B0545B2402244924441018D
:1028C80082806EA013D54748C5BFC9B309C523A2E6
:1028D800A186014582807D558280411106C69717E1
:1028E8000020938727B7171700201307A7C6DCC354
:1028F8009CC3A107E39DE7FE054523AE0184EF00D5
:10290800A07023A0A1867D5709C5C523EFF0BFAEEF
:102918000147B2403A854101828083A7C18589CFAA
:1029280017170020130707B393970760B3E7E7204B
:10293800C843130585FB828083A7018B9E0703A5E7
:10294800418C3E9582800111054506CE22CC26CACF
:10295800EFE0EFC719E51745000013056512EF20F2
:102968004075EFE06F98553F5E212A8493E7070191
:102978005EA19387C18BC8C388C3EF100038AA84AF
:1029880008D04CD022852EC6E13BB2452685EF10F3
:10299800E05008504C50EF00F0308547238CF18808
:1029A8007D5697E7FF1F93876718FD5690C3D4C3DA
:1029B800FD570C5023ACF1841C445850085862440D
:1029C800F240D24413D6F741BE95B3B7F5003A9614
:1029D8003E9605616FF0FFB741114AC01389C18B5C
:1029E80026C28324090006C622C4EF1000312E86B1
:1029F800AA852685EFF03FA8DE2013F7070A41C70E
:102A0800D4448C50D050054713850401DD2131375B
:102A18002322A9002A840149638EA400DE2098504D
:102A28000549BD9BDEA05E2193E707015EA1DC504E
:102A380018D15CD122852D33085883A7018B630BED
:102A4800F50410440C5058509357F641B29533B6DC
:102A5800C500BA973E96985883A78185631CF700EE
:102A680097E7FF1F9387870C7D58FD5823A0070120
:102A780023A21701EFF0FFADB240224492444A85E9
:102A880002494101828093F7B710D1F32685EFF010
:102A9800FFBFB5BF83A5418493C5F5FF7D5665BFCC
:102AA80083C78189638A0712797106D65EC662C4B4
:102AB80066C222D426D24AD04ECE52CC56CA5AC862
:102AC8006AC0EFE06F82AA8BEF10202303A78185ED
:102AD800FD57AA8C2E8C6318F702138941858357FA
:102AE800090085072310F90083A7418691C38297BF
:102AF80083A9018603A449006392890683570900C4
:102B0800FD172310F9001384C18B08406286E685FF
:102B1800EFF07F960040EF10401E97E7FF1F938766
:102B2800E7007D56FD5690C3D4C308D04CD083D758
:102B3800818BC5E397E0FF1FE780E0BC2254B250C9
:102B480092540259F249624AD24A424B224C924C60
:102B5800024D5E85B24B45616FD0DFFAEF10E01988
:102B68002A8D2E8B7D5AFD5A5C44E369FBF86395E8
:102B780067011C44E364FDF82285EFF0BF868354A7
:102B880044FF232444012326540193F7840285C378
:102B980093F774F513F78400B3C7070811EF231AE6
:102BA800F4FE898889E4130504FFEFF03FAE03A41F
:102BB8004900E39B89FA99B793E70704231AF4FEBF
:102BC80013058403EFF01F82232604022324040242
:102BD800C9BFEFF01FA79DB7828083C7818981CBCA
:102BE80083D7818B89E717E3FF1F6700C3B1828012
:102BF800411122C406C61384C1869305003003A57B
:102C0800818240C000C0EFE01FD823A4A18615C967
:102C180021058147130600031840231FF5FE231CD6
:102C280005FE544318C1850754C188C248C3B3C7B9
:102C380007084105E392C7FE0145B240224441011D
:102C480082803705000213050570C5BF411106C60D
:102C580022C426C24AC041C22A89AE8463E8A506B6
:102C68003284EFD07FE81387C1865C436396E7021E
:102C780037040002EFD01FE913043470B7C5B2A1BE
:102C88000147814622869385853F17450000130535
:102C980065D1EFE0EF9725A09843D44398C254C379
:102CA8000547239D27FF239CE7FE239E97FEDCC351
:102CB8009CC383D7E7FF1CC0EFD0DFE40144B240D8
:102CC800228522449244024941018280370400024D
:102CD8001304847065B73704000213042470C5B761
:102CE8002E868545A5B7011106CE22CC26CA4AC82C
:102CF8004EC652C49307F00263FDA70237040002D0
:102D0800B7C5B2A113061470014781469385853F64
:102D180017450000130505C9EFE08F8F13041470E1
:102D2800F24022856244D2444249B249224A0561AE
:102D38008280120583A48186AA94AE89EFD0DFDA57
:102D48009E202A8AF9C397E0FF1FE78080AA2A8479
:102D580021C1094537040002EFE06F87130454705E
:102D680019E517450000130565D5EF208034528515
:102D7800EFD05FD9B7C5B2A10147814622869385B6
:102D8800853F174500001305E5C1EFE06F8849BF8F
:102D980083D7818B91CF094537040002EFE02F8359
:102DA8001304647069F517450000130525D375BF32
:102DB80003A9C18B835749000567F98FA1EFBE208E
:102DC80099C7FD17BEA05285EFD0DFD391BF6388A6
:102DD8000904CE8513858400232C9902EFF0DFA423
:102DE8005285EFD03FD2D53BEFD01FD08357490053
:102DF8002A8A13F7070469DB93F7F7FB3704000205
:102E08002312F900130474709DB7370400021304E9
:102E18001470B1BF370400021304B47089BF3704BB
:102E2800000213044470A1B79307F00263EAA70AEB
:102E3800411122C4120503A4818626C22A9406C61B
:102E4800EFD09FCA1E20AA84ADC73E205A20631B1C
:102E5800F702EFD03FCB37040002B7C5B2A1014754
:102E68008146130684709385853F17450000130536
:102E780065B3EFD0FFF913058470B2402244924441
:102E880041018280584493068400630FD7001305DC
:102E980087FB232807FEEFF0FF9B2685EFD09FC610
:102EA800EFF0BFD30145D1BF85073EA0EFD09FC546
:102EB800D5BFEFD03FC537060002B7C5B2A101475D
:102EC8008146130616709385853F17450000130544
:102ED80065ADEFD0FFF3370500021305157071BF1C
:102EE8003705000213051570828048C108C10145E5
:102EF8008280011122CC4AC84EC656C206CE26CAC6
:102F080052C485472A842E89B28AB689630EF7008F
:102F18008947BA8593844187630AF70017450000FB
:102F2800130505BEEFE0FFC09384C187EFD0DFBB78
:102F38002A8A03A5C18EB3B5A9021306803E81462D
:102F48003385A902EF10803A33072501B337A7006C
:102F580033865501D440B29718C45CC46391D40237
:102F680044C004C080C0C0C06244F240D244424958
:102F7800B249924A5285224A05616FD0BFB8D046FD
:102F88008C4663E6C7006318F6006376B70054C042
:102F980004C080C2C9BF631AB7006398C700DC4287
:102FA80014C05CC080C3C0C2C1B79440D04663E7B8
:102FB800C700E316F6FE9046E373C7FE9442FDB7DA
:102FC800411122C426C22A8406C6EFD0FFB1AA84C2
:102FD8000844FD574C446314F5006380A502EFF0E4
:102FE8002FE458401C401CC3D8C37D57FD572322EB
:102FF80004002320040018C45CC42244B24026857F
:10300800924441016FD01FB005476309E502AA87C2
:103018000947138541876386E7024111094506C6BA
:10302800EFD0FFDA09C5B24001454101828017455A
:1030380000001305A5AEEF20C007F5B71385C187BB
:10304800828082805C4555576369F7029907138728
:10305800818814435CC52302050014C108C31947BD
:10306800B3F7E702170500201305C54E9146014640
:10307800914533C5A7206FD03FE51947B3F7E7025D
:10308800F9B7397126DA4AD84ED652D456D25AD020
:1030980006DE22DC5ECEB14413890189ED59138A1C
:1030A800C188994A130B800303250900FD560A8637
:1030B8004C0026C0EFF0CFA865F98247E39697FE4B
:1030C8009247FDD3B247E3E1F9FEEFD0FFA1B24644
:1030D80083270A002A8433F7560333076703BA970E
:1030E800D8476385E600EFD0FFA17DBFD83319E349
:1030F8003E85893F2285EFD0FFA0EF00D05A924746
:103108002A842245AE8B8297EF00F059330485401C
:1031180033358500B3857541B38BA5406395A5000C
:103128008547E3F387F80D45EFD07FCA35FD1305D2
:10313800803EB30B75031306803E8146B335850286
:1031480033058502DE95EF10601A92452A861745E9
:1031580000001305259EEF105061B9B779714AD068
:1031680003A9C60222D44ECE5AC85EC606D626D2B7
:1031780052CC56CAAA8B8056AE893285368B63E606
:103188002501631FB90663FD8B0683A4C18EB3B501
:10319800A4021306803E814633848B40B3BB8B0068
:1031A800B3892941B38979413385A402EF1000140A
:1031B800AA8A03250B012E8A1306803EB3B5A40202
:1031C80081463385A402EF1060122A94B334A40018
:1031D800CE95AE942285A6855686D286EF10A04A53
:1031E8003305A4403334A4008D8C818C03240B0355
:1031F80083274B032A943335A400BE9433099500E2
:10320800B250228522549254F249624AD24A424B21
:10321800B24BCA850259456182807971F145F14600
:103228000146480006D6EFD03FCA970700009387AB
:1032380087E53EC29307002D3ECA4C009747000021
:103248009387C7911385C18A3ECC23140100EF00F0
:10325800A07E19E903A7C18A1E0783A7418CBA97E4
:10326800DA231317C728DAA3B250456182805C4677
:1032780019470111B3F7E70222CE83AF418817043B
:1032880000201304242D03A84F00370700017D17E1
:1032980026CC4ACA4EC852C656C45AC25EC0B3C724
:1032A800872083A8070033FEE80063840F0D32836C
:1032B800FD53FD52014F81469949B70400FF370974
:1032C80000C0337AEE00B70A00208327C8FEB3EEA9
:1032D800E400B3F73703B3C787209043B3FECE00AB
:1032E800B377E60033F62E01631C2605032608FF94
:1032F800832B0301130B08FE631D7601DA867244E3
:10330800E2445249C249324AA24A124B824B0561F1
:10331800B1B5B3F89800B3E8480133F658010DC2C7
:10332800B3FEEE00638E0E0033F6E80039C263E1A7
:10333800C70333E6C70309E6B3C7C70363E4570205
:1033480003284800E3930FF98DC20326030145BF04
:103358003366FE0275F6B347FE02E3F377FEBE83DB
:103368005A8FF9BFBE82DA86E1BF63040F00FA867E
:10337800E9BF7244E2445249C249324AA24A124B56
:10338800824B05618280411122C406C689475CA22E
:103398005C4619473284B3F7E70217070020130782
:1033A800671BB3C7E72098439356E74989CA634820
:1033B80007001317F72998C35D3D08D84CD814485F
:1033C8000C585058130504020947EFF09FB22244E5
:1033D800B24041016FF0EFA639714ED683A94188FA
:1033E80022DC03A4490006DE26DA4AD852D456D293
:1033F8005AD05ECE62CC014563858908EF00F00F94
:103408002A89AE8401457D5AFD5A938B0189054B63
:10341800094C5C44184463E6F406639497006362BD
:10342800E90618C85CC858401C4003A50B00814633
:103438001CC3D8C3930704F8B85F232004002322D1
:1034480004003AC2F85BFC572324440123265401A4
:1034580031464C003EC63AC4EFE0FFF5834754FEC0
:10346800639D6703834764FE130604FE4A85850748
:103478002303F4FEA685013F03A449000545E39A0A
:1034880089F8F2506254D2544259B259225A925A87
:10349800025BF24B624C21618280E39F87FD23022D
:1034A80064FFD9BF79714ECE83A9418822D403A481
:1034B800490026D24AD052CC56CA5AC85EC606D649
:1034C800AA842E897D5AFD5A170B0020130B8B08EE
:1034D800994B631D3401B250225492540259F24957
:1034E800624AD24A424BB24B4561828058401C40E6
:1034F800130604FE26851CC3D8C38327C4FE2322D3
:10350800040023200400B3F777032324440123266F
:103518005401CA85B3C7672198431317F74998C35D
:1035280004C8232A24018535404065B74111E14587
:10353800E1460146170500201305C50126C206C647
:1035480022C493848182EFD03F9888409305001568
:10355800EFE06FC355C52A8493060015014693050D
:103568000015EFD07F9623A6818823A4818823267F
:1035780004009307840305479946D8C723A4F7FC9A
:10358800050793878703E31AD7FE314781461386D9
:1035980001899945014513040415EFE05FA811CD91
:1035A8008840A285EFD07FD7370500021305B530D4
:1035B800B2402244924441018280EFF01FC611C9F3
:1035C8008840A285EFD07FD5370500021305C530A6
:1035D800C5B70945EFF05FA323A2A18819E5884084
:1035E800A285EFD09FD37D55E1B7EFF01F9065F925
:1035F80017050000130585DEEFF04FAD55D9C5B7A7
:10360800370500021305753065B783A7018B638CF6
:10361800A70083A7C18A638DA70083A7418B637E18
:10362800F500014582803705000213054521828097
:10363800370500021305152282803705000213059D
:103648007520828041119306000801469305000801
:1036580022C426C22A8406C60459EFD0FF868547AD
:103668005EA09387418AD44304D81307840474C4A2
:103678003CC4B240224498C2D8C3924441018280DB
:103688005E211317B0287D8F09CB585519C798C1EB
:103698009397B748232605025EA18317450063C3A5
:1036A80007004DB78280011122CC26CA4AC806CE2F
:1036B800EFD08FC32A849384C18913898182C8403B
:1036C800631A950022856244F240D244424905615A
:1036D8006FD04FC358411C416C00130585FB1CC3B8
:1036E800D8C3232605042324050402C6513F228596
:1036F800EFD04FC1B24503250900EFD01FC2EFD06C
:10370800AFBE2A846DBF411122C406C61384418905
:10371800593F1C4099C38297E5BFEF00F013CDBF16
:10372800411126C24AC006C622C4B5471389418B37
:103738009305007003A581822320F9009384418CAE
:10374800EFE06FA488C051C1930500709306007024
:103758000146EFD06FF79387C189DCC39CC39C40B7
:103768001387418A58C318C39387870401440545C2
:10377800B545144323A487FE239EA7FAD04294C3D9
:103788000504D0C31CC2DCC293870708E313B4FE48
:10379800A1460146A1451385C18BEFD0EFF203275F
:1037A80009009C40B2401E07BA9723AEF18A37073A
:1037B800200080DB45072244D8C392440249FD57C4
:1037C80023A8F18A41016FF04F91B2402244370596
:1037D800000392440249130505204101828083A712
:1037E800C18B99C3885B8280370500021305752059
:1037F800828003A5C18B11C1684182806304051AC8
:10380800411126C206C622C44AC0AE846381051A85
:10381800DC496383071A9C416385071AD6217D47D3
:103828006366D71A2A896398E6001707000013070A
:10383800C7ED639DE7189C480D6713070780636C05
:10384800F7188DEB9307002D9CC8EFF0DFE5EFD05C
:10385800AFA99387418AC0436317F402EFD08FAAB8
:103868003705000213051521B2402244924402494B
:10387800410182801307F012E369F7FC3705000263
:1038880013056520D5B758401C401CC3D8C3232254
:10389800040023200400EFD0EFA69844930704F80F
:1038A8001305C401B8DF9848B8D30947231EE4FAC2
:1038B800DA20232804FE232A04FE231FE4FA984072
:1038C800232004FC232204FCF8D77D5758CCD84881
:1038D80023240402F8DFFD577D57232AF4FC23280C
:1038E80004022328E4FCEFE0AF9E9C4C63DC070055
:1038F8008357C4FB6177D98F231EF4FA9307040119
:103908005CC81CC8DC448C48A5E361576363B700F6
:103918009D47BE95E1992320B4FE214603A58182E7
:10392800EFE04F8C2322A4FE39CD8357C4FB939735
:10393800B728231EF4FA130404F834506850130609
:10394800A00CB685EFD04FD87850B7D7CCCC93879A
:10395800C7CC1CC370502C502854512B3C5408DC45
:1039680001452320F90009B7E156014763E3F60052
:103978001D473E97619BAE97998FE19B2322E4FEFA
:103988002320F4FE4DBFEFD02F96AA84130584FBA5
:10399800EFF05FCB2685EFD0EF96370500031305D0
:1039A8000520D9B537050002130575208280370533
:1039B8000002130515204DBD3705000213055520DB
:1039C80065B5370500021305452079BD37050002A6
:1039D8001305352051BD370500021305052269B5C9
:1039E8007971F1460146F145480006D622D4EFD058
:1039F800AFCD97070000938747D13EC293070020B9
:103A08003ECA97370000938727163ECC4C00FD47E7
:103A18001385018B7C84EFF07FDE2A8409E983A774
:103A2800018B9E0703A5418C3E95EFE01FEAB2503B
:103A38002285225445618280411122C426C206C6CD
:103A48004AC0AA84EFF09FDB2A8405E59C4003A9BD
:103A5800418C9E073E99EFD02F89AA844A85EFE0D2
:103A6800FFC22685EFD00F8A83C7818999C3EFF0FB
:103A7800CF96B24022852244924402494101828075
:103A8800797126D24ECE06D622D44AD052CCAA89F3
:103A980002C6EFF09FB7AA840DE5138A418C032470
:103AA8000A00939779003E94EFD00F845E20056753
:103AB8002A897D8F05C3B7040002EFD0AF849384B1
:103AC8004421B25022540259F249624A268592543E
:103AD8004561828013F7170001CBB7040002EFD0CD
:103AE8006F829384A420F1BF13F7071001CBB704AA
:103AF8000002EFD02F8193847422E1B709677D8F8C
:103B080001CBB7040002EFC0FFFF9384942255BF96
:103B1800C18B85C383D7818B89CF1145EFD02FAB5C
:103B280019E5173500001305E504EF108058239CAC
:103B3800018A8317440063DB0700684C93078405F8
:103B48006306F500130585FBEFE0DFD02285EFE083
:103B58003FC713054406EFD07FF95A20FD577CD0A4
:103B68002328040693770701A1CB9317576063CFE7
:103B78000702936717005EA083A7C189D043930605
:103B880084043CC470C414C2D4C383270A0083A627
:103B9800418B9E06B69713671701DAA3585423AED4
:103BA800F18A23A83703D8D77840F8C34A85EFC0ED
:103BB8007FF5EFF08F8231B7EFF07FC26C0028D02D
:103BC8002285EFF0FFAB4A85EFC0DFF3B24503A5CE
:103BD8008182EFD08FF4F5B5411122C41E0503A4EC
:103BE800418C2A945C58284006C6829728D00858E9
:103BF800EFF01FE919CD0945EFD06F9D19E90C5871
:103C08002244B24017350000130545FA41016F10F0
:103C1800C035B240224441018280011106CEEFC076
:103C2800BFEC2AC6EFE0FFBE3245EFC0BFEDEFE0C4
:103C3800DFFAF240014505618280011126CA06CEED
:103C480022CC4AC84EC6AA8497D0FF1FE78060BA24
:103C580031E983D7818BA1EF9389C18B83A70900B1
:103C68000567DE23F98FA9EB81E86244F240D2446C
:103C78004249B249056155B72A84EFC0FFE62A894F
:103C880003A50900A685EFE07FB94A85EFC09FE745
:103C9800EFE0BFF4F24022856244D2444249B2497F
:103CA80005618280370400031304D420E5B7370484
:103CB80000021304E420F9BF37040002130444216E
:103CC800D1BF011106CE02C683C7818C8DE383A7BD
:103CD800418FDC4B680082971387818D1C43B24665
:103CE8005043BE96B3B7F600B29714C35CC3F24014
:103CF8002384018C05616FE0BFDA011106CE22CC66
:103D080026CA4AC802C6EFC03FDE83A7418FDC4BF4
:103D18002A89680082971386818D1C428328460071
:103D2800B384A7003387B80033B4F4003A941387F8
:103D3800018D5443032807006366D4006394860604
:103D480063F204073244A29733B487004694B384DD
:103D5800A7001CC240C2B3B7F4002E943E94854716
:103D68002384F18C6366D400639E860263FC04039B
:103D78000545EFD08F83EFC03FD70945EFD02F859A
:103D88000DE197360000938626E71306A0069735BF
:103D980000009385A5E3173500001305A5CCEF10A7
:103DA800C01C01A04A8504C340C3EFC0BFD5F24080
:103DB800A285624442492685D24405618280411128
:103DC80022C426C206C6AA842E84EFF01FF3938766
:103DD800818D88C3CCC383A7418FA2852244B2407A
:103DE8009C4F268592444101828741114AC006C6EC
:103DF80022C426C2A92C1C491389418F2320A9005B
:103E0800D1CB1C4DC1CB5C4DD1C71C51C1C75C493E
:103E1800D1C3405109E4170400001304C4EAEFC0F9
:103E2800BFCC83270900AA8422859C4B82972A84C9
:103E380009C52685EFC01FCD31A8032709009306C1
:103E4800703E1C4363EFF600268537040002EFC07E
:103E58007FCB4504B2402285224492440249410165
:103E68008280544313070002635AD700268537041B
:103E78000002EFC03FC913040440E9BF23A6F18E36
:103E88001307803EB3D7E70223A8F18E8547238422
:103E9800F18E45B73704000259046DBF9387018E30
:103EA80088C3CCC38280411106C6EFF01FE5138793
:103EB800018E1C43584303A6C18EB307F540333522
:103EC800F500998D898D1305803E3337F5028146BB
:103ED800B305B5023305F502BA950929B240410187
:103EE8008280411106C6EFC03FC001A085A84111DC
:103EF800B7D7CCCC22C426C206C69387C7CC9105B7
:103F08001CC22E961374C6FFAA841306C007130595
:103F180044F89305A00CEFC01FC9970700009387CA
:103F280087FC2322F4F897070000938727CB232EDA
:103F380094F8B2402320F4F8130504F8224492447C
:103F480041018280411106C6EFC01FBAEFE0BF9F52
:103F5800EFC0DFBBB2400145410182808280B78754
:103F680093039387077017D7FF1F232DF7B23D6779
:103F7800930707A623A8F18EB946B7E700E0238880
:103F8800D70497C6FF1F9386667A93E61600B4D3C4
:103F9800B146A388D70497D6FF1F9386268693E653
:103FA8001600F4D3930600F82386D7402387D7401A
:103FB80093870710856694C3916694C323AEA18E38
:103FC800B7F700E023A0070023A207001307F7A50F
:103FD80098CB23A407003D4798C301458280B7F7D3
:103FE80000E098438566799B98C31307F5FF98CB43
:103FF80023A4070023A2070037E700E02320D728DF
:1040080098431367170098C3828037F700E01C4372
:10401800F99B1CC3828037F700E01C4393E7170025
:104028001CC38280411106C622C426C22A84EFC05E
:10403800BFABB7F700E084479C4B1CC0EFC09FACF8
:10404800B24022442685814592444101828017D599
:10405800FF1F130525A5828037F700E0832707D1C6
:10406800DD9B2328F7D07300501001458280371755
:1040780000408347E70412054111BD8BC98F93F7B0
:10408800F70F93068008F3B6068093F6860836C6BF
:1040980001000100930670052300D704930680FAF7
:1040A8002300D704010001002307F70423000704B5
:1040B800B247F3A7078001000100410182809147C0
:1040C80063ECB70497370000938707B4B3C5F520AE
:1040D80098413E97B71700409387470B0287944350
:1040E80037170040B3F6A64094C39306070B9C42CB
:1040F800B3F7A74019A8944337170040B3F6A64072
:1041080094C39306070B9C42C98F9CC29307070A66
:1041180098433377A74098C3828094433717004069
:10412800C98ED9B798433377A74098C3B7170040CB
:104138009387070A9843498FF9BF9843498FF5B782
:10414800894733470508638BF50463E2B7021346D2
:10415800F7FF9DE9B717004083D64709F18E239AE8
:10416800D7089387C70A9443C98E94C321A08D4763
:10417800638CF502B7170040239EE70883D607092A
:10418800558F2398E7088280B717004083D64709E0
:10419800F18E239AD7089387870AF1B7B71700409B
:1041A80083D64709D98E65BFB717004083D647091C
:1041B800D98EC5B719C5371700401E2FCD8F1EAF32
:1041C8008280B71700409A2FB375B7408EAF8280B0
:1041D800B71700409A279306000C1377070C630A59
:1041E800D7049A27137707100DC79A279E277D8B28
:1041F80009EB93F70720B1C33755E801130505808C
:10420800828037C59812FD8B130505E03345F5020A
:1042180082809A279E2713770720FD8B11C7375571
:10422800E80113050580DDB73725F40013050540BF
:10423800F1BF2165130505D082803725F4001305E9
:10424800054082803285814737370040A14663C3E5
:10425800A70082803037E30FD6FE3386F5001022A0
:10426800850710A7EDB797D6FF1F9386A68CAA8758
:10427800884217F7FF1F1307672FAA9763E9E7001C
:104288000A87130707FC6364F7009CC282807D5588
:104298008280411122C406C62A84EFF07FF32947A1
:1042A800B307E502B2408D83B3D78702224495074E
:1042B800B3D7E70237370040B3C707085EA7410105
:1042C8008280716541111305052006C6D937B737B5
:1042D8000040130770F8B8A30D47B8B313070004DC
:1042E80098B30547F8A7B240410182803288AA886E
:1042F8002E87CDEA63FFC50EC167636AF618B70754
:104308000001B337F600B307F040E19BE1073353F0
:10431800F60097360000938666909A9694221303C7
:104328000002B697B306F340630BF3003397D5004A
:10433800B357F5003318D6005D8FB318D500135660
:1043480008013355C702B346080893D708013377E5
:10435800C702B385A6024207D98F63FAB700C2978E
:104368001307F5FF63E4070163E8B7303A858D8FDB
:1043780033D7C702B3C80808B3F7C702B386E60243
:10438800C207B3E8F80063FBD800C2989307F7FFA9
:1043980063E50801791763E3D8003E874205598D24
:1043A8008145828063F5D500814501458280C167DA
:1043B80063E5F618B7070001B3B7F600B307F04096
:1043C800E19BE10733D8F60017370000130707858C
:1043D80042971823930800023E973388E840639277
:1043E800E81863EDB6263335C50013451500814539
:1043F800828045C6C167637BF624133706101347CE
:1044080017000E07B356E600973700009387078119
:10441800B6979C2393060002BA97B38EF640639D25
:10442800F608B387C5408545935606013346060806
:1044380033D5D70213D70801B3F7D7023303C50220
:10444800C207D98F63FA6700C2971307F5FF63E4C1
:10445800070163E067223A85B387674033D7D702FD
:10446800B3C80808B3F7D7023306C702C207B3E8D0
:10447800F80063FBC800C2989307F7FF63E50801DB
:10448800791763E3C8003E874205598D82809337C8
:10449800061093C717008E079DBD81469727000019
:1044A8009387C777B6979C23014793060002BA976C
:1044B800B38EF640E387F6F63318D60133D3F5000A
:1044C80093560801335ED302B395D501B357F5006F
:1044D800CD8F3346080813D70701B318D5013373B6
:1044E800D302B305C603420333676700637BB70093
:1044F80042971305FEFF636A07176378B716791E9C
:1045080042970D8F3355D702B3C707083377D702C1
:104518003303A6024207D98F63FB6700C2971307CC
:10452800F5FF63E0071563FE67127915C2979315C7
:104538000E01B3876740C98DE5BD93B7061093C7D1
:1045480017008E0733D8F600172700001307076DEA
:1045580042971823930800023E973388E840E38285
:10456800E8E8335EE600B3960601336EDE00B3D8A2
:10457800E500935E0E01B3D7D803B3950501335711
:10458800E5004D8F33430E08935607013316060195
:10459800B3F8D803B305F302C208B3E6160163FB08
:1045A800B600F2969388F7FF63E3C60D63F1B60C85
:1045B800F917F2968D8EB3D5D60333470708B3F6AD
:1045C800D603B308B302C206558F637B17017297EF
:1045D8009386F5FF6369C70963771709F915729719
:1045E800C207C16ECD8F9386FEFFB3F5D70013D3F4
:1045F8000701F18E4182338ED50233071741B30686
:10460800D30293580E01B385C502B695C6953303F8
:10461800C30263F3D500769393D605019A96636334
:10462800D7026305D7003E8581458280C166FD16A5
:1046380033F7D5004207337EDE0033150501729744
:10464800E373E5FE1385F7FF81458280B707000114
:104658006377F6029356060141477DB381450545C8
:1046680082803A85E9B5B685A5BF2A8E59BDC68729
:1046780091B77915C297CDB37915C297CDB993562D
:104688008601614751B33288AA882E832E87DDE2DE
:1046980063FEC50EC167636FF616B7070001B3372F
:1046A800F600B307F040E19BE1073353F600972685
:1046B80000009386A6569A96942213030002B69792
:1046C800B306F340630BF3003397D500B357F500F7
:1046D8003318D6005D8FB318D500935508013356AB
:1046E800B7023343080893D708013377B702330674
:1046F80066024207D98F63F7C700C29763E40701D0
:1047080063EEC72E918F33D7B70233C50808B3F7C6
:10471800B70233076702C2075D8D6378E5004295EB
:10472800636505016373E5004295198D3355D5001E
:104738008145828063F3D5008280C16763E8F616FD
:10474800B7070001B3B7F600B307F040E19BE107F4
:1047580033D8F600172700001307474C4297182351
:10476800130E00023E973308EE406315EE1663E41D
:10477800B600636AC500B308C540B386D540333375
:1047880015013383664046859A85828051CAC16780
:10479800637AF62413370610134717000E07B3562B
:1047A800E6009727000093876747B6979C23130373
:1047B8000002BA97B306F3406313F3083387C54082
:1047C8001353060133460608B355670293D7080109
:1047D80033776702B385C5024207D98F63F8B700FC
:1047E800C29763E5070163F3B700C2978D8F33D78C
:1047F8006702B3C80808B3F767023307C7021395FF
:10480800070133E5A800E36CE5F0198D3355D500B1
:10481800814582809337061093C717008E0771B5BC
:104828008146972700009387673FB6979C230147E7
:1048380013030002BA97B306F340E301F3F8331801
:10484800D60033DEF50013530801B35E6E02B3954C
:10485800D5003357F5004D8F3346080893570701A5
:10486800B318D500337E6E02B385CE02420EB3E78D
:10487800C70163F8B700C29763E5070163F3B700A0
:10488800C2978D8FB3D5670233470708B3F767021E
:10489800B385C502C2075D8F6378B7004297636529
:1048A80007016373B70042970D8F39BF93B706109E
:1048B80093C717008E0733D8F60017270000130791
:1048C800E73542971823130E00023E973308EE404F
:1048D800E30FEEE8B3960601B358E600B3E8D80054
:1048E80033DEE50013DF0801B357EE03B356E500E6
:1048F80033130501B3CE0808B3950501D58D93D6BA
:10490800050133160601337EEE033385FE02420E9F
:10491800B3E6C60163FBA600C696138EF7FF63EDE8
:10492800160D63FBA60CF917C696898E33D5E603D8
:10493800B3C50508B3F6E603B38EAE02C206D58D3D
:1049480063FBD501C6959306F5FF63E5150B63F385
:10495800D50B7915C69593960701C162C98E138543
:10496800F2FF33FEA600935F0601C182718D330FFB
:10497800AE02B385D5413385A60293570F01330E96
:10498800FE032A9EF297B386F60363F3A700969672
:10499800C16EFD1E33F5D70113DE07014205337FD3
:1049A800DF01B307DE007A9563E5F5026381F5025E
:1049B8003305A3403333A3009D8DB38565403397FA
:1049C800E50033550501598DB3D505018280E371A2
:1049D800A3FE3306C5403335C500AA98B3871741EF
:1049E8003285F9B7B7070001637CF60093560601D4
:1049F800414745BB368585B7F28705BFC29719B3CE
:104A080093568601614771BB411122C406C62A84A8
:104A18004EA572A5232005002322050023240500A6
:104A28002322050623280500232A0500232C050038
:104A3800214681451305C505EFC0EF96970700008D
:104A48009387876A5CD0970700009387A76C1CD46C
:104A580097070000938767705CD4970700009387D7
:104A6800A772B24000D01CD8224441018280971519
:104A78000000938565ACBDAA411126C29307800644
:104A88009384F5FFB384F4024AC02E8922C406C673
:104A980093854407F1262A8401CD2320050023228B
:104AA8002501310508C4138684068145EFC0AF8F00
:104AB800B2402285224492440249410182801385F2
:104AC800419071AA1385419061AA1385819041AAEA
:104AD8001385819071A2411122C406C62A84F53734
:104AE8001C4C89C72244B2404101DDB7970700003A
:104AF800938727F81CD4232404042326040423289A
:104B0800040483A701816394870085471CCC228510
:104B1800152848C022853D2008C42285252048C480
:104B2800484001469145EFF03FEE08440546A5454B
:104B3800EFF09FED48440946C945EFF0FFEC854783
:104B48001CCC4DB7411126C24AC006C622C42A89C8
:104B5800EFF0FFF683A401819C4C81E72685EFF0F6
:104B68009FF7938484048044DC40FD1763D60700D4
:104B78009C40A5C78440C5BF0317C40021EFC17777
:104B880085075CC41305840523220406C128EFF0B9
:104B98007FF3214623200400232404002322040059
:104BA80023280400232A0400232C0400814513052C
:104BB800C405EFB05FFF232A0402232C0402232438
:104BC800040423260404B240228522449244024964
:104BD800410182801304840649BF91454A85EFF05C
:104BE800BFE988C02A8459F5EFF0DFEDB1472320EB
:104BF800F900D1BF797122D44AD04ECE52CC5AC8CE
:104C08005EC606D626D256CA2A892E8A1304850479
:104C18008149054BFD5B0444832A4400FD1A63D097
:104C28000A0200406DF8B250225492540259624A66
:104C3800D24A424BB24B4E85F24945618280DE240E
:104C4800637BFB008397E40063877701A6854A8529
:104C5800029AB3E9A90093848406C9B78280828046
:104C680082805971A2D42E848395E500A6D2CAD039
:104C780086D6B284368963D205025E2493F7070884
:104C880095EB13070040B65026542320F90098C02E
:104C9800065996540145656182803000EF00701214
:104CA800E34D05FC3247BD67F98F7977BA9793B71B
:104CB8001700C1BF814713070004F1B7DE257971DA
:104CC80022D406D626D24AD04ECE898B2E8491CFB6
:104CD800930774041CC01CC885475CC8B250225492
:104CE80092540259F2494561828074003000AA84C6
:104CF800EFF03FF7A2492A892685CE85952219E942
:104D08008317C40013F7072071FBF19B93E7270073
:104D18005EA47DBF970700009387A7D59CD45E2427
:104D280008C008C893E707085EA4B247232A3401DD
:104D380081CF8315E4002685EF00500B11C55E2452
:104D4800F19B93E717005EA45E2433E527014AA48C
:104D580071B793F5F50F2A966314C5000145828053
:104D68001C21E38EB7FE0505C5BFC5C183A7C5FFD6
:104D7800011122CC06CE1384C5FF63D307003E94ED
:104D88002AC6EF00F00B138701911C43324589EBCB
:104D98002322040000C36244F24005616F00D00A78
:104DA800637DF4001040B306C4006396D7009443B3
:104DB800DC43B29614C05CC0F1BF3E87DC4399C3A4
:104DC800E37DF4FE14433306D700631F86001040CA
:104DD800B29614C33306D700E39FC7FA9043DC4367
:104DE800B29614C35CC345BF6375C400B1471CC108
:104DF8005DB71040B306C4006396D7009443DC4304
:104E0800B29614C05CC040C379B7828041114AC0D1
:104E18001389C1908327090022C426C206C6AA8422
:104E28002E8489E78145592C2320A900A28526854F
:104E380071247D59631A25017D54B240228522448C
:104E48009244024941018280130435007198E306B7
:104E580085FEB305A44026859524E31025FFE9BF08
:104E6800011126CA93843500F1984AC8A104B147B4
:104E780006CE22CC4EC62A89B3F4F40A63C40400D1
:104E880063FDB400B1472320F9000145F2406244B4
:104E9800D2444249B24905618280EF00607A938921
:104EA800019183A709003E8421E8A6854A85EFF091
:104EB800FFF5FD572A846318F50A03A40900A287A1
:104EC800D1EB8329040081454A85A299C52A6396B6
:104ED800A9081C408D044A859D8CF198B147A1040E
:104EE800B3F4F40AA685EFF07FF2FD576307F506E1
:104EF8001C40A6971CC015A01440858E63C90604E3
:104F08002D47637ED70204C0330794006397870256
:104F180023A0E9005C4014C35CC34A85EF00C0725B
:104F28001305B4009307440061993307F540E30F74
:104F3800F5F43A94898F1CC091BFD8C3E1BF58409B
:104F48006395870023A0E900C9BFD8C3F9B7A28732
:104F5800404099BF3E84DC43A5B7B1472320F90000
:104F68004A85DD251DB704C14DBF5D7122D406D623
:104F78002A842EDA32DC36DEBAC0BEC2C2C4C6C645
:104F880003A5C18019C51C4D89E72AC6EFF0BFB437
:104F980032450C455418228636CEEF005065B25083
:104FA800225461618280011126CA06CE22CC4AC8E9
:104FB8004EC652C4AA8419E11C4502901C4D2E8984
:104FC800A5E7EFF05FB19C4C8044ADC39727000084
:104FD8009387C7D86310F406C0407C50858B81EB5B
:104FE8005E2493F7072081E7284CEFF05FC75E2423
:104FF800A18B99C31C48C5E7A2852685E52445C130
:10500800FD547C50858B81EB5E2493F7072081E764
:10501800284CEFF0FFC4F24062444249B249224AA8
:105028002685D2440561828000454DB72685EFF07C
:105038009FAA69BF97270000938747D06314F4009D
:10504800804461BF97270000938747CDE317F4F8A2
:10505800C04461B71CC4050963C807021C40138714
:10506800170018C08CA31C4483450900FD17FDF1E7
:105078001CC463D907022286A9452685BD2AFD5787
:10508800E300F5F8A944B5BF184C63C4E700E397FB
:1050980045FD228626859522E31735FD95B7FD59EE
:1050A800294AD1B71C401387170018C0294798A36D
:1050B800D1BFAA8503A5C1806FF0FFEE411122C4BC
:1050C8002A842E8523AA019006C6EFF0CF99FD57B2
:1050D8006316F50083A7419191C31CC0B2402244D6
:1050E80041018280411122C42E848395E50006C6C1
:1050F800EF00F07B634905007C48AA977CC8B24062
:105108002244410182805E249397C7485EA4C5BFAC
:10511800DE25011122CC26CA4AC84EC606CE93F710
:105128000710AA842E843289B68991C78395E50031
:1051380089460146C5215E248315E400F240939711
:10514800C7485EA46244CE864A86B249424926854B
:10515800D244056195A2411122C42E848395E500AD
:1051680006C64D297D575E246319E5009397C74805
:105178005EA4B2402244410182809397C72868C840
:105188005EA4C5BF8395E50081AC1971A2DCA6DADF
:1051980086DECAD8AA843284635C06009307B00806
:1051A8001CC17D55F6506654D65446590961828013
:1051B80093078020FC822EC42ECC36868147BA867F
:1051C80019C09307F4FF7D592C0026853EC83ECEB2
:1051D800231B2101C92B635525019307B0089CC0E7
:1051E80071D0A2472380070075BF3687B2862E8606
:1051F800AA8503A5C1806FF05FF9011122CC26CAE8
:105208004AC806CE4EC6AA842E89328409C51C4DCA
:1052180099E3EFF05F8C97270000938727B4631713
:10522800F402C0401C4C1CC45E24A18B99C31C48CA
:1052380095EFA28526857D2015C97D59F2406244E7
:10524800D244B2494A8542490561828097270000C5
:105258009387C7AE6314F4008044E9B7972700002A
:105268009387C7ABE310F4FCC0446DBF1C480840EB
:105278009379F90F1379F90F1D8D5C486346F50092
:10528800A2852685452C55F91C440505FD171CC427
:105298001C401387170018C0238037015C486388B7
:1052A800A7005E24858BD9DBA947E319F9F8A28505
:1052B8002685492441D551B7411122C42A842E8517
:1052C800B285368623AA019006C6EFE0BFF7FD57E0
:1052D8006316F50083A7419191C31CC0B2402244D4
:1052E80041018280411122C426C24AC006C683A455
:1052F800C1802A892E8491C49C4C81E72685EFF0D1
:105308008FFD97270000938767A56313F402C040B9
:105318008317C40013F787002DE713F707010DEB78
:1053280025472320E90093E707045EA47D5541A89B
:1053380097270000938787A06314F4008044C9BFAF
:10534800972700009387879DE314F4FCC044C9B7EE
:10535800918B85C74C5891C9930744046385F50020
:105368004A85EFF09FA0232A04025E24232204002A
:1053780093F7B7FD5EA41C481CC05E2493E7870022
:105388005EA41C4881EF5E241307002093F70728CA
:105398006386E700A2854A85EFF05F928317C40011
:1053A80013F717001DC35848232404003307E040AF
:1053B80018CC1848014501E713F707082DF7B24044
:1053C8002244924402494101828013F72700814612
:1053D80011E3544814C4F1BF411122C42A842E8514
:1053E80023AA019006C6EF007050FD576316F5001A
:1053F80083A7419191C31CC0B240224441018280DD
:105408008397C500011122CC26CA06CE4AC84EC6CB
:1054180013F78700AA842E8461E7D8416345E0002A
:10542800B8416357E008585441C703A9040023A0B2
:1054380004000C5093D7C748B1CB70485E24918BB9
:1054480099C75C401D8E5C5899C33C401D8E5C54C6
:105458000C50814626858297FD57630DF5041C483C
:105468000567232204001CC05E24F98F91C368C815
:105478004C5823A024018DCD930744046385F5007F
:105488002685EFF09F8E232A04021DA0014685463B
:1054980026850297FD572A86E312F5FA9C40D9DF44
:1054A80075476385E70059476395E70623A02401FC
:1054B8000145B5A098408317C40001CFF5466305A0
:1054C800D700D9466319D7041C48232204001CC0FE
:1054D80045B718482322040093D7C74818C079B79E
:1054E80083A90501E38609FC03A905008D8B23A088
:1054F800350133093941014791E3D84918C4E359C3
:1055080020FB1C540C50CA864E8626858297634F12
:10551800A0008317C40093E707045EA47D55F240FA
:105528006244D2444249B24905618280AA9933094A
:10553800A940F1B79C49411106C622C426C281EB95
:105548008144B24022442685924441018280AA8443
:105558002E8409C51C4D99E3EFF0EFD7971700008B
:105568009387C77F631FF402C0408317C400E9DB39
:105578007850058B19E793F7072081E7284CEFF05F
:105588000FEE2685A285EFF0BFE77C50AA84858BB5
:10559800CDFB5E2493F70720CDF7284CEFF04FECB6
:1055A8004DB797170000938767796314F400804418
:1055B8006DBF9717000093876776E318F4FAC04425
:1055C8006DB7411122C42A842E85B28523AA019081
:1055D80006C6EF007032FD576316F50083A74191A8
:1055E80091C31CC0B240224441018280411122C4AF
:1055F8002A842E8523AA019006C6EF00B030FD57F5
:105608006316F50083A7419191C31CC0B2402244A0
:1056180041018280411122C42A842E85B2853686B2
:1056280023AA019006C6EF00B02EFD576316F500B9
:1056380083A7419191C31CC0B2402244410182809A
:10564800138501906FF0AFE1138501906FF04FE182
:10565800011126CA06CE22CC4AC84EC652C4B2840C
:1056680099E96244F240D2444249B249224AB28599
:1056780005616FF0EFFE09EEEFF02FEF0144F24005
:1056880022856244D2444249B249224A0561828055
:105698002A8A2E84EF0050242A896366950093573E
:1056A8001500E3EE97FCA6855285EFF06FFBAA89FB
:1056B80071D5A28533D6240BEFB02FCBA2855285A6
:1056C800EFF0AFEA4E8465BF01114AC803A985000F
:1056D80022CC4EC652C456C206CE26CA5AC003AA07
:1056E80005002E84B28AB68963E526078397C5002C
:1056F80013F7074829CF58488D448C49B384E402EE
:105708000947330ABA4093F707402A8BB3C4E40227
:10571800138716005297B3F4E40AA5C7A685EFF0DD
:105728002FF42A8925C90C485286EFB00FC45E248D
:1057380093F7F7B793E707085EA42328240144C822
:105748005299B38444412320240104C44E8963F34D
:1057580029014E8908404A86D685EFB06FC21C449D
:105768000145B38727411CC41C40CA971CC0F2409E
:105778006244D2444249B249224A924A024B0561E4
:1057880082802686EFF0DFEC2A8945F90C485A8595
:10579800EFF0AFDDB1472320FB005E247D5593E792
:1057A80007045EA4E9B7DE25357122CD26CB4AC9A8
:1057B80052C506CF4EC756C35AC1DEDEE2DC93F7A8
:1057C80007082A8A2E89B2843684A1C39C4995EF9A
:1057D80093050004EFF0CFE82320A9002328A900AF
:1057E8000DE1B1472320FA007D55FA406A44DA44B6
:1057F8004A49BA492A4A9A4A0A4BF65B665C0D61DD
:10580800828093070004232AF90093070002A30467
:10581800F1029307000302D22305F10222C6930B7B
:105828005002971A0000938A6A55294B26841C2037
:1058380099C363997709330C9440630E9400E28608
:105848002686CA855285EFF03FE8FD576307F518AD
:105858009257E2973ED21C2063810718FD579304A4
:10586800140002C802CE3ECA02CCA309010482D4A5
:105878008C2015465685EFF0CFCDC247138414000F
:1058880021E513F7070109C713070002A309E1047B
:1058980013F7870009C71307B002A309E10494208E
:1058A8001307A0026389E602F2472684814625464B
:1058B800182093051400130707FD6372E60685C6D2
:1058C8003ECE15A00504A5B733055541B397A728C3
:1058D800A2843EC871BF324793064700184336C6B4
:1058E800634807023ACE18209307E002631CF704C6
:1058F80018309307A002631AF702B2470904138706
:1059080047009C433AC67D57B3E7E70A3ECA1DA83D
:105918003307E04093E727003ACE3EC8E9B7B3879C
:1059280067032E848546BA9761B7050402CA814683
:1059380081472546182093051400130707FD637453
:10594800E606E9F60C200D461715000013058543F9
:10595800EFF02FC011CD971700009387A7421D8D38
:10596800C247130700043317A700D98F05043EC8A0
:105978000C2019461715000013050541930414005F
:105988002304B102EFF0EFBC2DC19307000095E7A7
:105998004247B2471377071009CF91073EC692577F
:1059A800CE973ED261B5B38767032E848546BA97F2
:1059B80051B79D07E19BA107D5B77800970600006E
:1059C8009386C6D04A860C08528597000000E700E7
:1059D8000000FD57AA89E314F5FC8357C90093F723
:1059E8000704E39307E0125509B57800970600000D
:1059F8009386C6CD4A860C0852853922D9BF79715B
:105A080056CA9C49BA8A984522D44AD04ECE52CC1E
:105A180006D626D25AC85EC6B3E7E70A1CC203C731
:105A28003504AA892E843289368A19C385071CC28F
:105A38001C4093F7070291C7832709008907232091
:105A4800F9000440998891E8130B9401FD5B5C44CC
:105A580003270900998F63CCF40483473404B336D1
:105A6800F0001C4093F70702A5EB13063404D28517
:105A78004E85829AFD576303F5041C401147814403
:105A8800998B6399E7008327090044449D8C8147DB
:105A9800B3E4F40A1C4418486354F700998FBE9481
:105AA800014969047D5B63982405014509A8854679
:105AB8005A86D2854E85829A631E75017D55B250ED
:105AC800225492540259F249624AD24A424BB24B8A
