:040000006F30D05835
:100004000000000000000000A0000020F407002011
:10001400A9BDF9F3E0010020000000000000000089
:10002400E0010020A000002000000000000000000B
:10003400A000002000000000A0000020000000003C
:10004400A0000020A0000020A0000020A0000020AC
:10005400A000002074080020A00000200000000080
:10006400A0000020A0000020A0000020A00000208C
:1000740020090020A0000020A0000020A0000020F3
:10008400A0000020A0000020A0000020A00000206C
:10009400A0000020A0000020A0000020A00000205C
:1000A40001A0B7170040984B41111367070198CB83
:1000B400982B1377E70F98AB1307800873370780E3
:1000C400137787083AC601000100130770052380DF
:1000D400E704130780FA2380E70401000100B8470E
:1000E400894613675700B8C703C7B7041377F70DDA
:1000F400A385E704B82713672701B8A7130750148B
:100104009AA737270040A303D78003C7E7041377D0
:10011400C70F136717002387E704982B136717008B
:1001240098AB23800704B247F3A7078001000100BE
:1001340041018280EFF0FFF61305401E9705000091
:100144009385450A17460000130646C463FAC500A2
:100154008322050023A0550011059105E3EAC5FE9D
:1001640017B502E01305C5B397450000938505C292
:100174001386818663FAC5008322050023A05500F7
:1001840011059105E3EAC5FE138581869775000084
:100194009385C5A76377B500232005001105E36D9A
:1001A400B5FE93025002739002BC8D42739042805C
:1001B4008542739012BC93028008739002309702B8
:1001C4000000938222E493E23200739052309752FB
:1001D40000E0938202C9739012347300203000004F
:1001E4009305000273A045808245739015349240B4
:1001F4002242B2424243D2436244F24402559255EF
:100204002256B2564257D2576258F2580649964976
:10021400264AB64A464BD64B664CF64C065D965D6E
:10022400265EB65E465FD65F096173002030230305
:10023400048015472303E48001002302A480828004
:1002440083076480E3CE07FE230304808280830750
:100254006480E3CE07FE0345448082808307648084
:10026400E3CE07FE2302A4808280411126C44AC241
:100274004EC006C61377F50BAD47AA892E8995445F
:100284006306F70019456537653F8D444E8545374C
:10029400FD59FD1463983401B240A24412498249C5
:1002A40041018280135509011375F50F453F220959
:1002B400CDB7011126CC06CEB70408005137154539
:1002C400BD37713769372AC6A53F32459377150084
:1002D40089EB136515001375F50FF240E2440561CF
:1002E4008280FD14E9FC0145CDBF397126DC4ADA70
:1002F4004ED852D656D45AD25ED006DE62CE66CCE2
:10030400B7E700E07D5783AA070022C603AA470087
:1003140023A0E71823A2E718B717004013077005B6
:100324002380E704130780FA2380E70483C7470484
:10033400930B75FFB684E20793FBFB0F8546AA89EE
:100344002E8B328937240040E187015763FA760106
:100354006308D5008946130700026313D5000157CB
:10036400D98F93F7F70FB71C00402382FC04114781
:100374002303E4801305F00F5D3D094CD135636D13
:100384007C11B7050700DA9537870700795563F2C2
:10039400E504B3879500636EF702370B0800A9479D
:1003A40033EB65016399F90689E48144513D26855F
:1003B4000DA0DA850945553D05090345F9FFFD14EE
:1003C400050B693D81C49377FB0FFDF7DD3569FDAE
:1003D4007D55B7170040130770052380E704130702
:1003E40080FA2380E70403C74704418B2382E70490
:1003F400F250B7E700E023A0571123A24711E254BB
:1004040032445259C259325AA25A125B825B724C1C
:10041400E24C21618280A5476395F9068569130939
:10042400F00FB3069900B3742B01B6941349F9FF86
:10043400B3749900856B33796901416B9387F9FF34
:10044400B3F7270199E363FC340193D94900C14709
:10045400E3E637FF99BF0569C1697D19D9B713056B
:10046400800D638869011305000263847901130513
:100474001008CA85DD3B353D21DD4E99B3843441F6
:10048400D9B7DA852D45D533CA94E30099F2050925
:100494007D3BA30FA9FED5BF9387F9FF93F7F70F11
:1004A4006361FC0C83C71C0413073008631FF70443
:1004B40037070800636BEB04B3079B00B706100013
:1004C40063F5D704334BEB0089476393F9068980BE
:1004D400D549E38C04ECDA850945413B110903272E
:1004E400C9FF91472320E48003076480E34E07FE9D
:1004F40023033481FD17EDFBFD14110B81C49377A5
:10050400FB0FE9FF7D3371F5E1B5B717004003C771
:100514005704B70708001377070219E3B7870700E2
:100524007955E378FBEA33079B00E3FFE7F855B519
:100534008547E382F9F2DA852D45053B9389F4FF7B
:10054400E38504E6293393F7390091EB832604808D
:100554000327090093074900E39AE6E43E89CE8421
:10056400F1BFB5476396F9001305900BC93135BD4A
:10057400B1471305B00AE38BF9FE99476391F90477
:10058400B7050800B365BB002D45C53181448D4BCB
:10059400A149753963967401832704802320F900E7
:1005A4008504E39834FF8327048013172B016355D4
:1005B40007002312F900D5BB2322F900FDB39D47A0
:1005C4006399F90281451305B0044531BD442320E4
:1005D400090023220900FD599D3993F77400CA9735
:1005E40003C70700FD14398D2380A700E39634FF69
:1005F4006DBBA1476392F9046D398144630D0B000F
:100604008D479304C0036308FB009304000563044F
:100614008B01930440041375C507E30895D8194565
:10062400393139390545213126850D3909453D31A1
:100634004931E31C05D669BB91476399F900130559
:100644006006F536F53E130590090DB7E38F09D41E
:10065400F154A9BBB7170040984B41111367070128
:1006640098CB982B1377E70F98AB13078008733751
:100674000780137787083AC6010001001307700545
:100684002380E704130780FA2380E70401000100B4
:100694001307000C6315E5029A271367070C9AA742
:1006A400B7170040982B1367170098AB23800704F3
:1006B400B247F3A707800100010041018280B827F7
:1006C40093760520DDC2118B29E303C7E70403C633
:1006D400E7041377F70F136636002387C704B027A0
:1006E40013664600B0A792278E273346060893E583
:1006F400050C8EA7A5470100FD1793F7F70FE5FF3B
:10070400B717004092A72387E70493770510D5C74E
:10071400371700403C2793E707013CA79377F5017F
:10072400A9EBB727004003C7578013670701A382CB
:10073400E7801D47A383E78033450508B7170040CA
:100744001367050C9AA78AA7D5C203C7570483C6A3
:100754005704418B858A558F21F7B82B418B29D3B8
:10076400B8271377D70FB8A725BF13672700B8A7F3
:1007740069BF2547636CF700B727004003C757805C
:100784001377F70EA382E78005476DB793770501CA
:1007940099EBB727004003C757801377F70EA3825E
:1007A400E780094741BFB727004003C75780136755
:1007B4000701A382E7800D47B5BF9377850181EFD9
:1007C400B727004003C757801377F70EA382E7804B
:1007D4001307100585B7B727004003C75780137761
:1007E400F70EA382E78013077005A9B7B82713771C
:1007F400B70F95BF41118146014681451145F53436
:1008040013078008F337078093F787083EC4010075
:100814000100B7170040130670052380C704930630
:1008240080FA2380D70401000100FD55CEB7238050
:100834000704A245F3A50580010001007337078072
:10084400137787083AC6010001002380C704238078
:10085400D7040100010003C767041367170023834B
:10086400E70423800704B247F3A7078001000100CF
:1008740001A00000197106C212C416C61AC81ECA05
:1008840022CC26CE2AD02ED232D436D63AD83EDA4C
:1008940042DC46DECAC0CEC2D2C4D6C6DAC8DECA7C
:1008A400E2CCE6CEEAD0EED2F2D4F6D6FAD8FEDA2C
:1008B400938581868841E700050092402242B24236
:1008C4004243D2436244F244025592552256B256F0
:1008D4004257D2576258F25806499649264AB64AB0
:1008E400464BD64B664CF64C065D965D265EB65E70
:1008F400465FD65F0961730020304111B71700408D
:10090400985F3AC6945F3247E39CE6FE3245410164
:100914008280B7E700E03707001023A0E720828039
:10092400B7170040130700032388E702854723A86D
:10093400F18673002030411106C67523FDBF23AC38
:1009440005FE1C4199E30CC182803E8783A787FF83
:10095400EDFF232CB7FE8280411126C2B7E400E0EC
:100964004AC003A90400B707200006C622C433798D
:10097400F90023A0F4180F10000009E523A02411A6
:10098400014535A09565938505D0C98D2A84210537
:10099400B3C5050833450508EF10B02A65D1FD57E6
:1009A4002320050042A17CA123A024112105B240EB
:1009B400224492440249410182804111B7E700E098
:1009C4004AC003A9070026C23707200006C622C46E
:1009D400AA843379E90023A0E7180F10000083A745
:1009E40081880144014685E301C8A2851385818875
:1009F400975000E0E780808FA1652685975000E03E
:100A0400E78020E00DA003C7E7FF6319970205CC38
:100A1400A28513858188975000E0E780208DA16529
:100A24002685EF20A011B24022852244B7E700E0DA
:100A340023A02711924402494101828011E03E869D
:100A440083A787FF4DB73E84E5BF37E700E01C432B
:100A5400B70620002320D718F58F0F10000019C106
:100A640091C111E637E700E02320F71082802E962B
:100A74000F70B650D5BF37E700E01C43B70620001F
:100A84002320D718F58F0F10000019C1014785E105
:100A940037E700E02320F7108280B386E50003A83F
:100AA4000600B306E5007D1623A00601110775F6BE
:100AB400C5B737E700E01C43B70620002320D7184A
:100AC400F58F0F10000001C53307C50011E637E7A5
:100AD40000E02320F71082800505A30FB5FEE31D77
:100AE400E5FEF5B7B7E600E09C42370620002A870A
:100AF400F18F23A0C6180F1000000145B306A7000C
:100B04008386060091E637E700E02320F710828011
:100B14000505EDB70111B7E700E026CA84434AC8CA
:100B24003707200006CE22CC2A892E86F98C23A0F2
:100B3400E7180F1000009305F00432C63345060889
:100B4400EF1030102A8401C53246CA85FD3DF240BB
:100B540022856244B7E700E023A097104249D244BB
:100B64000561828037E700E01C43B706200023209C
:100B7400D718F58F0F10000001C599C1014711EA7C
:100B840037E700E02320F710054582800507E309D5
:100B9400E6FE3308E500B386E50003480800942226
:100BA400E306D8FE37E700E02320F71001458280F2
:100BB40037E700E01C43B70620002320D718F58F41
:100BC4000F1000001307F6FFBA952A966317C500A5
:100BD40037E700E02320F71082809821FD150505F2
:100BE400A30FE5FEE5B737E700E01C43B706200096
:100BF4002320D718F58F0F10000001C53307C50057
:100C040019E637E700E02320F7100145828014211C
:100C14000505E398B6FEE31CE5FE37E700E0232074
:100C2400F71005458280797126D29384018A22D4F3
:100C3400804006D64AD04ECE52CC56CA5AC85EC65A
:100C440062C445C837C9C901814B938A8189130994
:100C5400F937176B0000130BAB9797690000938962
:100C6400A994176A0000130AAA9B3E2099EF5C44DA
:100C7400639A0B009CC0032CC4002285EF10D0089B
:100C84006284A9A823A6FB00FDB783A70A00829764
:100C94001C443307F5406376F50003278A001D8F53
:100CA4002A97636BE9069767000023A707902E2015
:100CB4000820EF10B0685C405844A1CB0C44176680
:100CC400000003266696AE97BE8663E4B70063E42D
:100CD400C700B386C74014C4A28B3A8459F417677B
:100CE40000001307678C1C4B854663FBF604FD1755
:100CF4001CCBB250225492540259F249624AD24A4D
:100D0400424BB24B224C4561828063940B0098C0E5
:100D14009DB723A6EB0085B703274B0219CB63EDE0
:100D2400A7003385A74083A709016374F50023A8AE
:100D3400A900A28B40445DB703278A00BA97D5B7B0
:100D44009767000023AA07866DB70111B7E700E093
:100D54004AC803A907003707200006CE22CC26CABA
:100D64004EC652C43379E90023A0E7180F100000DF
:100D7400976400009384C48A9C288844A9CF976709
:100D84000000938727A703D7C70A31C703A4870A9C
:100D94006303A404976900009389098183A7090167
:100DA4006388A70E138A818983270A008297636E5A
:100DB400A40C83270A00098C829783A7090198440D
:100DC4003354F40AB307A4003E8563E4870063E464
:100DD400E7003385E740B7E700E023A027119C44F0
:100DE400639BA702175400001304047C184883A7CC
:100DF40081896311A70A82979444374736FE130703
:100E040007C83697B307A7003E8563E4E70063E4A9
:100E1400D7003385D740176400001304A4C05C5C7A
:100E240089CB83A6019A9C463707CDFF7D17F98F9E
:100E34009CC611E1884485475CD09757000083A77E
:100E4400677B829715E15C5C99CF5C5089CF97E012
:100E540001E0E780601397E001E0E780808D976709
:100E6400000023A307BEC1335C5C81CB03A7019AB6
:100E74001C47B7063300D58F1CC7F2406244D244E6
:100E84004249B249224A056182809C443E9415B786
:100E9400228591B7829714489844B387A6003E856B
:100EA40063E4D700E3E9E7F63385E740ADB723A66B
:100EB400A18801C585472388F188828083A7C188DA
:100EC40081CF411106C6829783C7018999E323A67E
:100ED4000188B2404101828083C7018981E723A64A
:100EE400018882808280411122C426C206C64AC07B
:100EF40097640000938404B383C73402175400003A
:100F04001304C470B9C3175400001304E4691389AB
:100F1400418A032709001C2014300146B3A5E720A9
:100F24008E21B5C911C21CA00820636DD506975740
:100F34000000238B076683A78189D5E7B24022444A
:100F4400924402494101828082971C40F5FF9757E1
:100F5400000083C7E76D85E3DC48858B89CFD84CD7
:100F64009947631EF7009767000023A707ACEF10AB
:100F740080165C4482971C44D9D7829769B7D84CB1
:100F84009D47E31AF7FE9767000023A707AAEF100F
:100F940080141C48C5B7850793F7F70F0546E3EFA0
:100FA400D7F651B73327E5200E23231007002399E2
:100FB400018883A7C189B347F5209C4382971C20ED
:100FC4008326090003D721893377E540B3A6D720C8
:100FD4009222518F9AA299C385071CA018201C3015
:100FE400E36EF7F4A9B79757000083A7E7631CC81B
:100FF4001D3983C73402B9F383C7140299CBDC4C7F
:1010040089EB97670000A38F07A297E001E0E780D0
:10101400809B9757000083A7E75D8DD3D84C9147F9
:10102400E3EEE7F09757000083C7077B918BE397C4
:1010340007F083C70189E39307F01830832609007A
:1010440063C8E7002244B240924402494101F5B921
:1010540033A6D7201222E31306EE8507D5B7B7C708
:1010640000401387C72014431396264910C3010078
:10107400010093878726175500000325A5549C4338
:101084006A0514C393C7F7FF99835D8D828041116C
:1010940026C2976400009384E4989C4422C406C644
:1010A400858B175400000324247BA1C71828976755
:1010B400000023AD07968947630DF70201469305A7
:1010C40050020145EF10002C014681450545EF1003
:1010D400C014DC44858B91CF2244B24092448145B4
:1010E400174501E0130545A24101175300E06700CD
:1010F400A38BEF20103522852244B2409244410153
:101104006F10F03F9757000083A7C7786399071CB7
:10111400011122CC2A84094506CE26CA4AC84EC6E5
:1011240093840199EF201039904093078007138925
:1011340041987CD2832709009389019AB70533002B
:10114400D8572285719B13671700D8D79843137714
:10115400F7CF98C398431377F7CF1367072098C343
:1011640003A709001447CD8E14C7B706030093865E
:10117400862534CA5457F59A54D7984334241377A0
:1011840007F893F6F607558F98C3EF10B04C9440C8
:10119400370500827D15DC4293E71700DCC2032685
:1011A4000900030784065C569375F703E605E98F87
:1011B400CD8F5CD69305A00383A7090063D9E50A04
:1011C400F84FB70500074D8FF8CFB7C7898E9387BF
:1011D40067ED1CC6B7575500938757555CC28347C4
:1011E400A40683494406B3E9F90089471767000058
:1011F4002328F7849767000023AC07827C44BCDE75
:101204009757000083C7C742D9CFFC52FDFF0C3863
:101214004E859767000023AB0780EF0030781828CD
:101224009D4717250000130565026306F70017059F
:101234000000130505E6A539832709009843131711
:10124400772998C3D857719BD8D79757000023A5FF
:10125400077E9757000023A9077C9C40F240624414
:10126400094798C3D2444249B24905618280930533
:10127400200263DAE500F84FB70500F9FD156D8F1C
:10128400B705000589B7B70500F96945FD1563572A
:10129400E500F84F6D8FB705000335B7F84F6D8F34
:1012A4001317872915B718289D478145172500006E
:1012B4001305C5F96306F70017050000130565DD7E
:1012C400974000E0E780406E10386244F240D24418
:1012D4004249CE85B249014505616F001074828090
:1012E4009757000093870751E853054754256390A7
:1012F400E60203C747079147631AF700011106CEB8
:101304002AC6EF10901B3245F2400561E5BB82808E
:1013140083278511E5CB411122C406C65825834590
:10132400E5049437D2272A841377C70F13954660B0
:1013340063F7C50663510506882793F6F60794B745
:101344000546936627006314C5009366170054A4EA
:10135400D8430907D8C3032504114CB82E86CC43BF
:101364000905EFF08FEE832784115438D84336975C
:10137400D8C3DA27158FDAA789473CBC034764032F
:101384009757000083C7E7256369F706B2402244F4
:101394000145410182801367170058A46DBF9376FD
:1013A400F60F6355050288278545136627006314E5
:1013B400B5001366170050A454B8A38407008547EA
:1013C4003CBC832784119C43D5FBC9B71367170022
:1013D40058A454B8A384070003250411CC43090579
:1013E400EFF0AFE6832784115438D8433697D8C337
:1013F400DA27158FDAA78D47E1B75C2493E7070155
:101404005CA469B705458280411183A7C19622C4B3
:1014140006C6858B2A84C5E74165130525F59750D3
:1014240001E0E780A03841CD3C253EA58327041286
:10143400ADE32320A4122322A41285472311F4042C
:10144400232005007C2854415EA5583418A505477F
:1014540018B5138517021757000003276760158115
:101464001C437D151375F50F9CC25C43DCC21C47FD
:101474009CC65C47DCC61C4B9CCA5C4BDCCA1C4F3C
:101484009CCE5C4FDCCE0DC1938606021307070287
:10149400C1BF8327441288C3835724042322A41280
:1014A4008507B3C7070859BF1757000013078734C8
:1014B4001E2785071EA7B2402244410182805C2476
:1014C40023090400054593C747005CA4EDB7142D18
:1014D400854763ECD70A1C3D2A870145CDEB5C2781
:1014E40013F507013C2B99CB8346670397570000FC
:1014F40083C7370F63ECF60001E5828049E58280FB
:101504008357271E0357671EBA9721A08357271EA8
:1015140075F90145ADCF9387C712175500000355E0
:10152400E510B3B5A70237460F0041111306062490
:10153400814622C426C206C67D543385A70297700D
:1015440002E0E78080E59754000083C4F409AA947C
:101554009757000083A7473303A707099C433354D5
:10156400E40AFDFB83A78189829781476364A40011
:10157400B307A440B240224433B597001345150085
:101584009244410182808147B5BF014582808280B7
:1015940003A701993C5BFDFF01000100828035C96E
:1015A40001116C0022CC06CE2A84EF20404429C9C4
:1015B400FD57630CF50417570000130767015453D4
:1015C400B2479DC22547637BF700938567FF0345B8
:1015D40094026244F24005616F10205A17570000CC
:1015E40003278704BA97D5B70C3F63E5B700B385E3
:1015F400B740F1BF1757000003270703BA97C5BFC9
:101604006244F24005616F208003F2406244056148
:1016140082808280797152CC175A0000130A8A1D85
:1016240026D283244A0906D622D44AD04ECEC5C82F
:10163400975700009387073FD44F15476384E60408
:10164400DC532A8989CF97E001E0E780E09397D0C3
:1016540001E0E780000E9757000023A7073EFD59DD
:101664006C002685EF20A0381DE517250000130522
:1016740045FDEFF0DF8383A701993707100098C772
:101684000547B8DB0D45B250225492540259F24931
:10169400624A45618280637435013244AA89844078
:1016A400E1F0FD571305F00FE38FF9FC914763F167
:1016B40087029307B4FF2320F9002324FA0A99E749
:1016C4009757000083A747F62320F900014565BF1B
:1016D4009757000083A747F5ED17A297E9BF09457F
:1016E4005DB7797126D206D622D44AD04ECE52CCDA
:1016F40056CA5AC85EC68347550303447513AA8461
:101704003E941374F40F9307400263F687001304A6
:10171400B4FD1374F40F03A9841383A9C413A38B16
:10172400841222864A85CE85977002E0E78020C223
:10173400058915E503CBD412014A814A337B64033E
:10174400930B500252864A85CE85977002E0E7805B
:1017540000C005890DC563916A031374FA0F238BC6
:101764008412B250225492540259F249624AD24A23
:10177400424BB24B45618280850A939A4A60050ABE
:10178400E3127AFDE9BF83278509035605047971BD
:1017940093D60701BD8EB3C60608358E93575640BF
:1017A400898B135776485D8F93573640918B5D8FA5
:1017B40093571640A18B5D8F93171600C18B5D8FD5
:1017C4009317360093F707025D8F9317560093F72C
:1017D40007045D8F9317760093F7F70F22D45D8F7C
:1017E4002A849357D6001355B6001189898B9355D3
:1017F4008600C98F1355F6002582C98F218AD18F9F
:1018040013961500418AD18F13963500137606027C
:10181400D18F1396550013760604D18F1396750055
:101824001376F60FD18FA207C5455D8F3307B70234
:1018340026D24AD04ECE032984138329C4135AC80E
:1018440006D652CC56CA3697334707081356574024
:10185400098A93577748D18F13563740118AD18F0D
:1018640013561740218AD18F13161700418AD18F3E
:101874001316370013760602D18F1316570013760A
:101884000604D18F131677001376F60FD18F1358F1
:10189400B7001356D70013784800098A13558700F8
:1018A400336606011358F700258333660601218B3E
:1018B400518F13161500418A518F13163500137674
:1018C4000602518F1316550013760604518F131612
:1018D40075001376F60F518F2207D98FB387B7029D
:1018E4005EC6B697B3C7070813D55740098913D7FF
:1018F4007748498F13D537401189498F13D517403D
:101904002189498F139517004189498F1395370011
:1019140013750502498F1395570013750504498FF4
:10192400139577001375F50F598D13D8B70013D796
:10193400D70013784800098B13D687003367070153
:1019440013D8F700A58333670701A18BD98F131729
:101954001600418BD98F1317360013770702D98FDE
:1019640013175600137707041E06D98F1376F60F44
:10197400D18FA2073367F5003307B702130650026D
:101984004A85CE853697B98EB3C4060833F6C402A9
:10199400137BF60F977002E0E780609B058905E9E9
:1019A400834AD412014A930B5002B38A9A028144A7
:1019B40093DA0A0126864A85CE85977002E0E7808D
:1019C400009905890DC563914A0313FBF40F230B9A
:1019D4006413B250225492540259F249624AD24AD0
:1019E400424BB24B45618280050A137AFA0F850493
:1019F400E39274FDE9BF8327C5080356850879710E
:101A040093D60701BD8EB3C60608358E935756404C
:101A1400898B135776485D8F93573640918B5D8F32
:101A240093571640A18B5D8F93171600C18B5D8F62
:101A34009317360093F707025D8F9317560093F7B9
:101A440007045D8F9317760093F7F70F22D45D8F09
:101A54002A849357D6001355B6001189898B935560
:101A64008600C98F1355F6002582C98F218AD18F2C
:101A740013961500418AD18F13963500137606020A
:101A8400D18F1396550013760604D18F13967500E3
:101A94001376F60FD18FA207C5455D8F3307B702C2
:101AA40026D24AD04ECE0329040A8329440A5AC8AE
:101AB40006D652CC56CA36973347070813565740B2
:101AC400098A93577748D18F13563740118AD18F9B
:101AD40013561740218AD18F13161700418AD18FCC
:101AE4001316370013760602D18F13165700137698
:101AF4000604D18F131677001376F60FD18F13587F
:101B0400B7001356D70013784800098A1355870085
:101B1400336606011358F700258333660601218BCB
:101B2400518F13161500418A518F13163500137601
:101B34000602518F1316550013760604518F13169F
:101B440075001376F60F518F2207D98FB387B7022A
:101B54005EC6B697B3C7070813D55740098913D78C
:101B64007748498F13D537401189498F13D51740CA
:101B74002189498F139517004189498F139537009F
:101B840013750502498F1395570013750504498F82
:101B9400139577001375F50F598D13D8B70013D724
:101BA400D70013784800098B13D6870033670701E1
:101BB40013D8F700A58333670701A18BD98F1317B7
:101BC4001600418BD98F1317360013770702D98F6C
:101BD40013175600137707041E06D98F1376F60FD2
:101BE400D18FA2073367F5003307B70213065002FB
:101BF4004A85CE853697B98EB3C4060833F6C40237
:101C0400137BF60F976002E0E7806074058905E9AD
:101C1400834A1408014A930B5002B38A9A028144FE
:101C240093DA0A0126864A85CE85976002E0E7802A
:101C3400007205890DC563914A0313FBF40F230F4A
:101C44006407B250225492540259F249624AD24A69
:101C5400424BB24B45618280050A137AFA0F850420
:101C6400E39274FDE9BF797122D426D22E84AA842A
:101C74004146978502E0938565E60A8506D6972056
:101C840000E0E78000154146978502E0938505E56D
:101C94000808972000E0E780C0133C3010088A85CC
:101CA400DC875C2026855C875C30DC8697D001E08D
:101CB400E78080800347F1011C200145631EF70083
:101CC4000347E1011C3001456318F7000345D101C6
:101CD4003C201D8D13351500B25022549254456199
:101CE4008280011122CC26CA4AC84EC606CEAA84D6
:101CF40017540000032444BC13092500854905C07A
:101D04009C303830858B6304F700405CCDBF1946A6
:101D1400930544004A85EFE0FFE4E31835FFF24001
:101D240022856244D2444249B2490561828041110C
:101D340022C426C24AC006C6175400000324C4B7EE
:101D440093042500054901E8B240228522449244C7
:101D5400024941018280A6851305A4022937E305BF
:101D640025FF405CCDB7411122C426C24AC006C635
:101D740017540000032444B493042500054901E8E2
:101D8400B240228522449244024941018280A685C0
:101D94001305A401C93DE30525FF405CCDB701113E
:101DA40026CA644122CC4AC84EC652C406CE2A84EE
:101DB4001D4993096505054A3C4463E4F40005455F
:101DC400A1A05834DC206319270503478402630467
:101DD400F7008440D5B7D83083475405E31BF7FE9A
:101DE40019469305640513856400EFE0BFD7854762
:101DF400E311F5FED82483479402E31CF7FCFA248C
:101E04003E34E318F7FC0145F2406244D2444249AF
:101E1400B249224A05618280E31DF7FAD83083472C
:101E24005405E318F7FA1946CE8513856400EFE0EC
:101E34007FD3E31045FBC1BF011122CC26CA06CED5
:101E44002AC42EC617540000032484A6854419E02E
:101E540001450DA09C841830858B6304F700004471
:101E6400FDB719469305A10013052400EFE09FCFA9
:101E7400E31795FEF2406244D2440561828000007B
:101E8400EFF0CF837300000000000000938201890B
:101E94000383020023800200630F0300F325103440
:101EA4002EC0970500009385E5FD73901534EF006F
:101EB40020557300203086DCEF008054E650828089
:101EC400000041114AC0138941980327090026C222
:101ED40006C61C5F22C49384019893D76748B5CF84
:101EE400930700061CDF175400001304A4B3184C16
:101EF400930700086317F7009C409C4393F707047B
:101F04001CCC1C4093F7070489CB83A78189829753
:101F140048D81C4093F7F7FB1CC01C4093F70702FA
:101F240089CF1C4003A70199B706080093F7F7FD72
:101F34001CC05C5414C786077CD71C4893F707045D
:101F440089EF85475CC83707020083A7019998C7C2
:101F54001307000C18C81854F8D383270900985F96
:101F64001357474811CF985F1367070198DF83A77A
:101F7400019923A20706854717570000232CF7AAC7
:101F84009C40D8431357174819C7D843759BD8C3E7
:101F9400D843799BD8C3B2402244924402494101B8
:101FA400828005377300203097570000938787A7F6
:101FB4003707040088DB698F01CF03A70199FD5619
:101FC40034D7974600009386265ED84E0507D8CEB0
:101FD4001377850019CF984783A641981367170094
:101FE40098C71307000898CBD856719B136717003E
:101FF400D8D61377150001CFD84383A64198136729
:102004001700D8C3D856719B13671700D8D6137717
:10201400650019CF1377450059C398431367170018
:1020240098C383A64198D856719B13671700D8D6D6
:102034004167698F0DC39756000083C6E682C18A43
:10204400174700001307077BA5C28346470793E69B
:102054000602230AD70637070200698F01CF984B7F
:102064001377070819C3054798CB83A70199370746
:10207400020098C7B70708007D8D0DC117470000FF
:102084000347977E058B974700009387A7761DCB60
:1020940003C7570713672700A38AE7068280D84738
:1020A40013671700D8C7B5BF834647070946BD8ADB
:1020B4006388C600834647070D46BD8AE39DC6F87C
:1020C400914641BF03C75707118B69DB03C7570705
:1020D40013678700D1B783A60199975700009387A8
:1020E40067949843058B19E7D843058B01E7F852A9
:1020F4006DFBDC4B9757000023A0079482809386E6
:1021040041982A8788421C5D93D75748D1E781C5F7
:102114001C59BD839CA115C69C42945BC60693D7EB
:10212400660163D6060093E707C0B3C707088316A2
:10213400060093975760B9C6BE968947B3C6F602A0
:1021440016A283A70199BC4B083393D757488DCF68
:1021540029C59756000083A6668E93F60604930756
:10216400950009459DCABA979C230547194593F6DE
:10217400F7066394E60201459397476063DF07001F
:10218400394582801EA275BF2A9748331375F50717
:102194007D153335A00082800545828083A7819810
:1021A40099CB944BD04B9842518F98C294439C47FF
:1021B4009842D98F9CC2138601990548184283A678
:1021C4004198975700009387E785631D050388426C
:1021D4001365050888C283C62702B3C5D520938535
:1021E400A50C54471395164948C70F100000184210
:1021F40037060200860510C71306000890CB6CD37F
:1022040054C7828088421375F5F788C283C62702B3
:10221400B3E5D5209385E50EE9B7411126C2AA8717
:1022240006C622C42E8593840199B285D9EB9C40BD
:10223400F8537DFF3707020098C79747000023A78C
:10224400077EB7E700E03707200037F400E023A05B
:10225400E728130404D01C48ED9B1CC81C4893E7D2
:1022640087031CC873005010153F83A741989843F7
:102274001317772998C3D857719BD8D7974700006D
:1022840023AC077A9747000023A0077A9C400947AC
:1022940098C31C4893E787001CC8730050109440EF
:1022A40017470000130707781C47858B91E75C47A5
:1022B400858B99E3FC52EDFBB240224492444101E8
:1022C40082800D476398E7049747000023A00776B0
:1022D4009747000023AE0774B7E700E037072000F4
:1022E40037F400E023A0E728130404D01C48ED9B36
:1022F4001CC81C4893E787031CC873005010793D21
:1023040083A7419898431317772998C3D857719B8B
:10231400D8D741B70547E394E7F837F700E0130748
:1023240007D0144BED9A14CB144B93E6860314CBCD
:1023340073005010984050479316164954C70F1015
:1023440000009840B706020014C79306000897459A
:10235400000023A1D56E83A64198944293D6764873
:10236400639FF6009307E0187CD350C737F700E06B
:10237400832707D193E787002328F7D039BF930732
:10238400E01ADDB783A7819889CFD44303A88700D7
:1023940098423367070198C2D447DC4B9842D98FDF
:1023A4009CC2054783A741989505631BE5029843A2
:1023B4001367070898C3984F137707C01367A713C9
:1023C40098CF13078007B8BB939735009387C7034B
:1023D40019C293171600174700002329F766828055
:1023E40098431377F7F798C3984F137707C0136789
:1023F400271398CF1307F007B8BB93974500F9B795
:1024040083A701998847D847798D11C588C783A7C1
:10241400C19891C382878280896703A701999387B2
:1024240007F47CD383A6019A83A7060993D7A74907
:1024340091C783A7060993D7974999E37C53EDF78E
:1024440082804111B7E700E022C4804337072000AF
:1024540006C6798C23A0E7180F10000011C199E576
:10246400B7E700E023A08710014549A80D053345CF
:102474000508130740037199B34705086362A7026F
:1024840003A541A383A6C1A2639FA600174700002A
:102494000327071771D7C207DD8D05450297C9B712
:1024A40003A501A3C5B77A2131EF5A21636CF70460
:1024B400B306F7402148174600001306E60E63757D
:1024C400D8028328050003586600938687001D8F71
:1024D400AA966117DAA223A016012393060014C159
:1024E4005EA1130788FF7AA27A226EA12105B307A1
:1024F400F7407EA2B7E700E023A08710B240224451
:1025040041018280084149B7B7E700E08C433707AF
:10251400200023A0E718F98D0F10000001E523A087
:10252400B710828003A341A383A8C1A29A878146DE
:1025340063F8170903A807006367F5086365A8082B
:1025440013878700636EE506F22321670507631787
:10255400E6001386B1941822050718A21745000057
:1025640013058504D2237A21239307003297334736
:1025740007087AA16383670203A301A3630FF3002F
:1025840003D36600631B0300DE2223A00601210798
:102594003E962106D2A27AA1B68798436302170316
:1025A40083A601A3630ED700762399EAD623522388
:1025B4001843A106B296D6A398C37E21A1077EA193
:1025C400B7E700E0A9BFBE86C2879DB7AA8703A765
:1025D40041A303A6C1A2B305B5406314E6003E853A
:1025E40029A8930687001843E3E9D7FEE3F7E7FE3B
:1025F4002E85E3E4D5FEE3F2E5FE8280411126C296
:1026040006C622C44AC09744000083A424246383DA
:10261400041003A4C40AAA86054535C03C24130744
:10262400700A6390E70858301C34174900001309F6
:1026340029FF03268900B387E7020357C900B3873C
:10264400E7021307003293870719B3D7E70203A7FA
:1026540044093E97BA846364F7006364C700B30413
:10266400C74083A7818984C28297B387A44063F556
:10267400A40003278900BA9789EB1305F00FB24031
:102684002244924402494101828058309306204EEC
:102694003307D702E3F3E7FE930780FA3CA401452E
:1026A400F9BF1307800AE39AE7FC83A7818982971D
:1026B4002A893545EF100060AD47174700002321F4
:1026C400F73858301C3417460000130666F5B387F4
:1026D400E7025A261046B387E702130700329387AE
:1026E4000719B3D7E70203A744093E97BA86636480
:1026F400F7006364C700B306C740E310D9F8175561
:1027040002E01305C5B4EFE08FFA83A701990947E6
:10271400F8D7A5B70545A5B7397156D2974A000031
:10272400938A4A3083A70A033707080026DA06DEAD
:1027340022DC4AD84ED652D45AD05ECE62CC66CA77
:102744006AC86EC6F98F9744000083A4241063847A
:10275400071C83A9C40A83C7990003A4C90092076C
:102764003E942820B14705053305F5025E203E95C9
:1027740033450508EFE04F9EAA8C6305051A130D37
:10278400C5002324A50134203146370B0300B3864A
:10279400C602231304000149138A0199938B4198BB
:1027A400938D019A130B8B15054CEA9654C483C67A
:1027B40079009307D00783250A00B386F602C16720
:1027C4009CC5370833008606B4D183A60B0090421B
:1027D4001376F6CF90C290421376F6CF1366062096
:1027E40090C203A50D0010453366060110C503A66B
:1027F400090023A865059305500290C6722054442D
:10280400B2962324DD0014300146CA96A301DD00EC
:1028140003C504089746000023A80620A53683268E
:102824000A00CC4613961549D0C60F100000832623
:102834000A003706020090C61306000823A8CA003F
:1028440003A60B00104213567648631F860B13062B
:10285400E018F0D2CCC617460000232F061C1746FA
:1028640000002323061C23A08601EFF0DF86EF106F
:10287400403D83A64A00858AD9CAEA8526859760A1
:1028840002E0E780A0A10DE903465D0049C276207D
:102894004E20B29663DDB606B428AC4803258D00FD
:1028A400918E8906B695EFE04F9A23020D000346F8
:1028B4005D007620B29676A003260A00310D3452CC
:1028C400FDFE342005091379F90FE362D9EE9C2447
:1028D4006685A381FC001C20A3820C002383DC00FA
:1028E4002382FC006254F250D2544259B259225A03
:1028F400925A025BF24B624CD24C424DB24D216172
:10290400170301E06700E3A31306E01A99B7FD5625
:102914002302DD0055B783A70199FC5781C785477A
:102924002388F188F2506254D2544259B259225A3F
:10293400925A025BF24B624CD24C424DB24D216131
:102944008280AA8703A5018A11E182803A21631556
:10295400B7001821E30BF7FE4845FDB7411122C427
:1029640006C626C24AC02E848DCD13F915008147B0
:10297400414763020904131745003E97B1463307E4
:10298400D70283A4818AB317F02833C90708BA94FD
:102994009C40C840829723A0040023A2040033442F
:1029A4008900B24022852244924402494101828036
:1029B400B356F448E9F28507E39CE7FECDB701116D
:1029C40026CA06CE22CC4AC84EC6AE84A1C593F709
:1029D400150001444147B1CB93174500A2973147F5
:1029E400B387E7029389818A03A909003E99832763
:1029F400090081C703254900829731473307E40260
:102A040083A70900BA979C478DC733148028B3471E
:102A14000408BD8CF24062444249B2492685D2443E
:102A240005618280B3D68448C5FA0504E31CE4FE3C
:102A3400CDB72320090023220900C1BF7971B7E76C
:102A440000E022D4804352CC06D626D24AD04ECEC1
:102A540056CA5AC85EC662C43A8A37072000798CBF
:102A640023A0E7180F10000005E123A087100945F3
:102A7400B250225492540259F249624AD24A424B09
:102A8400B24B224C4561828083A78189B6892A8909
:102A9400AE8A328B938B818A829703A70B00814481
:102AA400B146C147338CD40233068701104235EE58
:102AB400C165938505F04145EFF0BF9819ED97473F
:102AC400000083A7E7B381C7814511458297B7E723
:102AD40000E023A087102D4561BF1387018A1C43A2
:102AE400A1E308C323000500B31790283EA183A7E0
:102AF4000B00232605002324650123224501E297C8
:102B040023A0270123A2570123A4470163840900BA
:102B140023809900B7E700E023A08710014589BF0F
:102B24003E87DC47F5FF48C775BF8504E39CF4F690
:102B3400B7E700E023A0871021451DBFB7E700E0F9
:102B44009843B706200023A0D718758F0F100000F4
:102B54009746000083C656A5637DD50083A6418AA7
:102B64003325D5201621D58D0EA123A0E7100145CC
:102B7400828023A0E7100D4582800111B7E700E0B1
:102B840022CC80433707200006CE26CA4AC8798C57
:102B940023A0E7180F100000BD4763E7A7043147DF
:102BA4003307E50283A7818ABA979C4395CF3315EF
:102BB400A0282E89B345050801452EC65933AA8499
:102BC40009C9B2450145973000E0E780808923A414
:102BD4002401B7E700E023A087100145F2406244D6
:102BE400D244424905618280B7E700E023A0871000
:102BF4000945EDB79746000083C606BB83A701913C
:102C040001476394E600014582808E231386870280
:102C14006394A5003E85828005071377F70FB2877A
:102C2400CDB79747000083C737B8AA86850703A5A1
:102C3400C191014712216307D60005071905E36B0B
:102C4400F7FE014582802A8703A5419211E1828023
:102C54001C45B227636BC70003584500B306C80080
:102C64006355D7008146639406010841C5B703D371
:102C7400A700938807016316E30091C192A13E85E2
:102C840082808506C687B3C60608F1BF9746000052
:102C940083C686B183A7019501476394E600014585
:102CA4008280AE231386C7036394A5003E85828089
:102CB40005071377F70FB287CDB7411122C406C6B3
:102CC40097470000238207BA03A4019605C06C3914
:102CD4000145B315B028B3C50508973000E0E78077
:102CE40020C3930710273305F50202942244B2400F
:102CF400814501454101173300E06700E3CA383DCF
:102D040009C734256312D7024DBF3C2DF5DF3825A2
:102D1400E30CF7FE3CA5814517E5FFFF1305855C31
:102D2400173300E0670043C83C2D89C7E394F6FEDF
:102D340038A5D5B7F1FAEDBF41114AC017490000D3
:102D4400130949CE8327890022C426C206C69744A4
:102D54000000938424AA858BE0509DCB9747000004
:102D640023A607CC83C74407C18B85CFEF00706DC2
:102D740083C7440793F70702E5DF83C74407228527
:102D840093F7F70C238AF406971001E0E780E0F844
:102D9400EF00306B22852244B24092440249410143
:102DA40029BF83C75407858B91CBEF0090698D476A
:102DB400230EF406BC5822858297D9BF83C74407E3
:102DC4001547BD8B6395E7048347B4060345340672
:102DD4000146930550025D8DEFF0CFDA014681453F
:102DE4000545EFF08FC38327C900858BD5D3228592
:102DF4009747000023AE07C2971001E0E78000DA8E
:102E040041F9B2402244924402494101828083C77D
:102E140044071947BD8BE39DE7F68347B406034592
:102E240034060146930550025D8DEFF0AFD501469F
:102E340081450545EFF06FBE8327C900858BA9DB6B
:102E440022859747000023A507BE971001E0E7807D
:102E5400C0AE7DB7411122C426C206C67C25784582
:102E64002A84BD8B1CA91CA31D4764456395E734C4
:102E74000547B8A08347F5058D466393D7185E2DA3
:102E8400CDE37C491147B18B638DE70831476398E3
:102E9400E700034715068347F5076304F7088547EA
:102EA400BCB019469305640313854400EFD0FFB901
:102EB400BC20990793F7F70FBCA0034704061377C8
:102EC400070401CFB83013670704B8B07844BA9741
:102ED4005838B8B3BC208507BCA0974700002385A9
:102EE4000798BC2013F7F703050718B80347E40550
:102EF4001A07D98FBCA083475403858B91E70347F6
:102F0400440389476317F70078441C2393E70704B5
:102F14001CA37C44183898B3B24022449244410123
:102F24008280A147BCB08357C406974500009385AF
:102F3400658C13860199DCA08357C40603471406E5
:102F44007444A1831207BD8BD98FDCB2B4208547AA
:102F5400890693F6F60FB4A0174700000347C790FD
:102F6400631EF706183C9387E6008E07231AF406BF
:102F74009387C708B387E702794510420948238A33
:102F84000507C1650CC6938707FBB3C7070893877A
:102F94007716B3C7A70233C70708B387A702860704
:102FA4003CD2BC3093E70701BCB07C44B69783465F
:102FB400240693E60604B4B3B4207C44B697D8A39D
:102FC400B4207C4421837D8BB697834634069606D1
:102FD400558FD8B3BC208D07BCA021B71042F94748
:102FE400385205833357F7023C5268528583FD8B70
:102FF400AA977CD28D47238AF5063347070855B72D
:103004001946639BC7125E2DC1E393056503B8B0EF
:1030140013854400EFD07FA3BC201385A400990737
:10302400BCA0BC3093E72700BCB083475403898B12
:1030340095CF0C58BC299DCB1946D105EFD0FFA0E4
:1030440078441C2393E707F81CA3BC20990793F743
:10305400F70FBCA00347040613770704E30F07E642
:10306400B430784493E60604B4B095B58347D403EA
:1030740091C778441C2393E707F81CA319469305CA
:10308400E403EFD09F9CD1B7A147BCB08357C506DA
:10309400DCA08357C506034615066C45A1831206BA
:1030A400BD8BD18FDCB1B0201735000013058574BA
:1030B4009385019909061376F60FB0A0973700009F
:1030C40083C7877A6398E704183C9307E6008E0762
:1030D400231AF4069387C708B387E7027948894619
:1030E400230AD5069441C1658CC6938707FBB3C7F1
:1030F400070893877716B3C7070333C70708B3874F
:1031040007038607BCD2BC3093E70701BCB07C44FC
:10311400B29771BD8C41B851F94705833357F70213
:10312400BC5103A845068583FD8BC297FCD1230AB5
:10313400D50633470708C1BFA147BCB08357C506AE
:10314400DCA08357C506034615066C45A183120609
:10315400BD8BD18FDCB1B020173500001305856914
:1031640009061376F60FB0A09737000083C7C76F20
:1031740083A50199E391E7FA183C9307E6008E07CB
:10318400231AF4069387C708B387E702F946094868
:10319400230A0507416588C5938707FBB3C707085A
:1031A40093877716B3C7D70233C70708B387D70205
:1031B4008607BCD189BF0547639EE706B1471CB9A2
:1031C40083475503898BA1CB0C59BC29A9C7194640
:1031D400D10513858400EFD05F8778441C2393E7DF
:1031E40007F81CA368441946930564030905EFD046
:1031F400DF8511679737000083A7C76CF98FE38CCD
:1032040007CE7C24B98BE39807CE78441C2393E73C
:1032140007021CA3CDB18347D40389C79C2093E73D
:1032240007F89CA0684419469305E4032105EFD0F0
:10323400DF814DBF522D0C559307660093F7F703BA
:103244001CB913858400E5B7011126CA9734000020
:103254009384447D9C4422CC06CE1734000013048E
:103264006459858B6850C9C32AC69737000023AFB9
:10327400077AEF00101D0347440789473245630767
:10328400F700034744078D47631CF70283A601999F
:10329400BC520357450785831307C71263F2E7023D
:1032A400BC528583B1C3914703474407E31EF7FE2D
:1032B4006244F240D2440561171301E06700C3CDB4
:1032C400382D3C3D09CF34256309D7026388F602C3
:1032D40038A56244F240D24405616FD0BFE299CF71
:1032E400382509EF3CA5F5B72AC6EF0090156244CE
:1032F4003245F240D2440561C9B2EDF7DC4CEDF73A
:103304000347440789476307F700034744078D478A
:10331400E31CF7FC914703474407E31EF7FE49BF4C
:10332400630E0530011122CC06CE26CA4AC84EC609
:1033340052C456C2582585472A846316F72C9737FA
:1033440000009387276ED44F1547638AE600D44F55
:103354000D476386E600D84FAD476312F7026C3819
:103364006244F240D2444249B249224A924A014557
:103374000561B315B028B3C505086FF02FFC1631ED
:1033840013070064973400009384C4463347D7027C
:103394009C20E8D0850793F7F70F9CA063CAE70049
:1033A400973000E0E780A09B973700002384074410
:1033B40078249D47631FF70483479406B1C383565B
:1033C400040763ECF6020C24930730041CAC1305C9
:1033D400300493F6F60F014697F001E0E78040CC05
:1033E40022856244F240D2444249B249224A924A76
:1033F4000561171301E06700236885062318D406C6
:10340400930530020545973000E0E780C08D230125
:10341400A4060549238A2407183C8D47631CF70E2C
:10342400972000E0E78080FD0D89630F0514631683
:103434002517930760023CA4930750023CAC930702
:10344400700278243CBC85476302F708896593853C
:10345400F57013051027173A0000130A6A1C8349F4
:103464007401973000E0E780808A0E30835ACA00E6
:103474002A8913060064B3855503814613850532F2
:10348400B335B500975002E0E78020F1AA84B33544
:10349400590337460F0013060624814633055903A2
:1034A400975002E0E78060EF83270A00AA9482978E
:1034B400B307950003278A00BE8563E4A70063E48D
:1034C400E700B385E7404E85EFF02FEB83475403C5
:1034D400898BE9CB8347C403F1C70C58E1C5BC25EC
:1034E400F1C38947230AF4021946B105130564039D
:1034F400EFD0AFD50347C407894763E9E70A2285BC
:103504006244F240D2444249B249224A924A056195
:103514006FD05FBF89467C346315D70213F7170059
:1035240019CB898B1307500291EB9307700238A4CF
:103534003CAC814739B713076002C5BF93076002EB
:10354400FDB799CF93F617001307500291E6898BC4
:1035540013B717001307670238A4230D0400D1BF63
:103564003C2C130740026368F700930750023CACFD
:103574003C2C3CA47DBF850793F7F70F3CAC1307A5
:103584007002E364F7FEEDB713077002930750026D
:103594003CAC38A4930760026DB51307500293073F
:1035A4007002FDB78547230AF402A9B70327C40AAA
:1035B40083A681893C27ADC31C3758339734000058
:1035C400938404069044B387E702DA24B387E702BE
:1035D4001307003293870719B3D7E7020327440977
:1035E4003E973A896364F7006364C7003309C740B0
:1035F4008296B307A9406374A9009844BA97035705
:103604006407E3FEE7EEF2406244D2444249B24921
:10361400224A924A0561828083248409829663E95E
:10362400A400835764073385A440E37AF5ECE1BF33
:103634009737000083A747FFBE94E5B78280011146
:103644004EC6973900009389E91A22CC03A4C9090C
:1036540026CA973400009384A4FCDA244AC8035988
:1036640064088327040906CE3309E90237470F00AB
:103674009306F7231307072452C456C25AC0369937
:103684003359E90263EE2703138A81893389274179
:1036940083270A0082976368A9023305A940634718
:1036A400050283570404A30F040085072310F404C0
:1036B40083470414639707102285EFE08F8229A2C1
:1036C4009844BA97D1B79C443E99C1BF83270A0056
:1036D4008297032784086363E50A198D7E3CDA2404
:1036E4008E07B387E7021307003293870719B3D70E
:1036F400E70263E9A708B74A0F00138BFA23938AFA
:103704000A248357040485072310F404834704140C
:1037140081E72285EFD0FFFC2285972001E0E78036
:10372400201C631F0522032604090327C4089444AC
:103734003297BA876364C7006364D700B307D7407E
:10374400783CD2242328F408050778BC035764087E
:103754003307C7025A97335757033389E74063F552
:10376400E700998E3389F60083270A008297636500
:10377400A9043305A940E34605F825B79C44998F6D
:103784003E95A9BFA1452285972001E0E780600D01
:10379400A305A4029737000083A787E66382071C6A
:1037A4006244F240D2444249B249224A924A024B0C
:1037B40089451545056182879C44CA973385A7408E
:1037C4005DBF2285EFD03FFC2285972001E0E78092
:1037D400201163170518CA2483576408B7460F00DD
:1037E4001386F623B387A7029386062403270409C6
:1037F400230B040283AA8400B297B3D7D702636B66
:10380400F716B307F7408326C4082324F408014BB2
:10381400B387E6003E8963E4D70063E45701338944
:1038240057411E3023282409A1CB835604045A305F
:1038340037460F0056B03387E640B387E7023A3085
:103844001306062481468145BA97B3C70708338512
:10385400A7023EB0975002E0E78020B411CD4A950C
:1038640033392501CA95AA876314BB0063645501E3
:10387400B30755412328F40883270A0082972A892D
:1038840083270A008297E30D25FF83270A00032973
:10389400840882976365A90E3305A9406300051067
:1038A40003DAC4008357640837490F001307F92368
:1038B400B387470313090924BA97B3D727031737E4
:1038C4000000034777D2BA9763EAA70CB335250300
:1038D400035B24025286814633052503975002E098
:1038E400E780A0ABB30AAB0033054B0337460F00A8
:1038F4001306062481468145975002E0E780E0A93B
:1039040015C1B337250352868146B305B902330581
:10391400A902BE95975002E0E78020A8330BAB4084
:10392400231164033545792623AE89083834854745
:10393400631AF704930700FD7CA403A581979C28D0
:10394400A1CBEFD0CFD6954717370000232AF70E27
:103954003707100083A7019998C7860A23A8570739
:10396400F2406244D2444249B249224A924A024B4A
:1039740005618280B3065701B387F64069B59C445C
:103984003E9919BF930710FC7CA403A5019745BF7A
:103994008145972000E0E780200175B79737000044
:1039A40023A807EE9C2895C303A54196972000E021
:1039B400E780803A6244DC40F240D2444249B24952
:1039C400224A924A024B05618287834594026244EB
:1039D400F240D2444249B249224A924A024B01453A
:1039E4000561B315B028B3C505086FF02F95011113
:1039F40022CC26CA4EC606CE4AC852C456C25AC0A3
:103A040038358547832405092A84AE896314F70C65
:103A140083570508835AC503173A0000130A4AC09E
:103A2400035BCA0063FC571914296399E61803273A
:103A34008511631507180327450A631107187435A0
:103A44001D47639DE6162A3DB38AFA409307204E2C
:103A5400330555030329440937460F00130606248A
:103A640081463305F5029737000083C7E7B733591A
:103A74002503B335AB023E993349090823132409BE
:103A84003305AB02975002E0E7802091B30795001D
:103A940033B5A7002E9503278A00BE8419E163E499
:103AA400E700B384E740B307690337470F00930681
:103AB400F7231307072423A09900B697B3D7E70287
:103AC400D69763E4F4009D8C31A003278A00B307E2
:103AD400F740BE94138981898327090023A09900A4
:103AE400829763E2A4103385A440635D050A8327AB
:103AF4000900173B0000130BABB2829703A7090020
:103B04006369E50E198D7E3C0357CB008E07B3879E
:103B1400E7021307003293870719B3D7E70263EF6D
:103B2400A70C374A0F00930AFA23130A0A2483576F
:103B3400040485072310F4048347041481E72285D1
:103B4400EFD03FBA2285972001E0E78060D961E594
:103B5400832604098327C40803278B00B697BE84F1
:103B640063E4D70063E4E700B384E7407C3C835616
:103B7400CB002328940885077CBC83576408B3874B
:103B8400D702D697B3D7470363E6F40A9D8C8327FD
:103B9400090023A09900829763E1A40A3385A44015
:103BA400E34705F89737000083C717A463E6A70621
:103BB4009737000023AE87CC0145B9A88357640822
:103BC40037470F009306F723B387670313070724C8
:103BD400B697B3D7E702E3F8F4EE03278A002697F3
:103BE400B304F740C5BD9737000083A7E7A3BE948D
:103BF400DDBD83278B00998F3E9531B7A145228582
:103C0400972001E0E780E0C5A305A40297370000F0
:103C140083A7079F81EF7D55F2406244D244424915
:103C2400B249224A924A024B056182808945154570
:103C34008297D5B71D8FBA9499BF83278B00BE9402
:103C4400B1BF938601999C42B84B1377F78FB8CBD9
:103C540098431367870098C39C4393D7374889C711
:103C6400010001000100010003A741981C4393F7E0
:103C7400F7CF93E707101CC303A6019A1C46370726
:103C8400CEFF7D17F98F1CC69C4237070300B8CBC3
:103C940083A7819899CBD44390479842518F98C277
:103CA400944BDC4B9842D98F9CC29737000023A9D0
:103CB40007D8828083A701999C438D8BE9C7411162
:103CC400B7E700E04AC003A9070026C2370720006F
:103CD40006C622C4AA843379E90023A0E7180F108A
:103CE4000000173400001304E4D3584C8D47631AC2
:103CF400F7009737000083A767AC01468145454527
:103D0400829719476391E4048347140289CB83475C
:103D140004026396970097370000A38507D2584C96
:103D2400A1476315F700930780101EB0238801880C
:103D3400093FB2402244B7E700E023A02711924490
:103D44000249410182809D47639BF400834714022A
:103D5400F9D7034704028D47E313F7FC6DBF544CB6
:103D64006389E600584C6306F700584CA147E31FEB
:103D7400F7FA83471402DDFB5C4C2300F402854709
:083D8400A300F40265B7828080
:103D8C0097110020938141AA17C101201301C1266C
:103D9C001305400097C5FF1F9385052617C6FF1F07
:103DAC001306864363FAC5008322050023A0550041
:103DBC0011059105E3EAC5FE17C5FF1F130505376D
:103DCC0002852A8309CA83830500230073007D16AC
:103DDC00050385056DFA82802A8311C62300B30082
:103DEC007D16050365FE8280B717004003C7770573
:103DFC001377E70FA38BE704130700F8A38DE704F1
:103E0C003D47238CE70413075003A38CE70403C737
:103E1C00A7051377D70F238DE7048280371700404F
:103E2C008347E70412054111BD8BC98F93F7F70F38
:103E3C0093068008F3B6068093F6860836C6010012
:103E4C000100930670052300D704930680FA230023
:103E5C00D704010001002307F70423000704B2472D
:103E6C00F3A70780010001004101828041112A83E0
:103E7C000148930E407E130F0019930F4006B34870
:103E8C00030863EF1E0113030019337365028542A7
:103E9C00FD4363F6B2088D4F214F930E4006A1A04F
:103EAC007D13336EE3039308E016630E0E00336E3E
:103EBC00F3039308D01663080E009378330093B87D
:103ECC0018009388D816C29833C808084DBF93F8C9
:103EDC001500138EF5FF637CBF02F908C29833C836
:103EEC000808B3450E08E394F5FF8545630B030002
:103EFC00B378D5038145638608009375350093B577
:103F0C001500F105C29533C805088945E9BFB3888A
:103F1C001341C29833C80808B3450E089DBF7D16DF
:103F2C00329879463307C70213D61700BE073348B9
:103F3C00080832976146B3F6C60213068070B38642
:103F4C00C6023697A166F58F4207D98FB716004087
:103F5C0003C7F60213770708D883908303C7F602CA
:103F6C0013770708E316E6FE9883B71600404DCF8B
:103F7C001307800873370780137787083AC401004A
:103F8C00010037170040930670052300D7049306F1
:103F9C0080FA2300D70401000100232A070383467B
:103FAC00170393E60608A308D70223000704224749
:103FBC0073270780010001001166371700407D163A
:103FCC00545B4C5FAD8EF18EE5FE93068008F3B624
:103FDC00068093F6860836C601000100930670052C
:103FEC002300D704930680FA2300D70401000100B4
:103FFC005CDB8347170393E70704A308F70223004E
:10400C000704B247F3A70780010001004101828039
:10401C0003C7F60213770708D883908303C7F60209
:10402C0013770708E316E6FE98837DD391B7914783
:10403C0063ECB70497670200938787ABB3C5F52091
:10404C0098413E97B71700409387470B02879443DC
:10405C0037170040B3F6A64094C39306070B9C4257
:10406C00B3F7A74019A8944337170040B3F6A640FE
:10407C0094C39306070B9C42C98F9CC29307070AF3
:10408C0098433377A74098C38280944337170040F6
:10409C00C98ED9B798433377A74098C3B717004058
:1040AC009387070A9843498FF9BF9843498FF5B70F
:1040BC0019C5371700401E2FCD8F1EAF8280B71742
:1040CC0000409A2FB375B7408EAF8280B71700406F
:1040DC009A279306000C21651377070C630ED704FF
:1040EC009A27137707100DC79A279E277D8B09EB0C
:1040FC0093F7072095CF3755E8011305058082808B
:10410C0037C59812FD8B130505E03345F502828007
:10411C009A279E2713770720FD8B11C73755E80187
:10412C0013050580DDB73725F40013050540F1BFF5
:10413C003725F400130505408280B7F700E0884767
:10414C0082803285814737370040A14663C3A70080
:10415C0082803037E30FD6FE3386F50010228507B8
:10416C0010A7EDB797060020938606ECAA87884225
:10417C00173700201307C7A8AA9763E9E7000A8737
:10418C00130707FC6364F7009CC282807D55828014
:10419C00411122C406C62A84153F2947B307E502FC
:1041AC00B2408D83B3D7870222449507B3D7E70279
:1041BC0037370040B3C707085EA74101828071659D
:1041CC0041111305052006C6E137B7370040130728
:1041DC0070F8B8A30D47B8B31307000498B305479C
:1041EC00F8A7B24041018280411193962500AA851F
:1041FC002D4506C697C0FF1FE780A00EB2400145B3
:10420C0041018280011122CC26CA939625002A8472
:10421C00B284AA850146254506CE36C697C0FF1F37
:10422C00E780200CB2462686A285294597C0FF1F41
:10423C00E780200BF2406244D24401450561828044
:10424C00011122CC06CE3714004026CA4AC84EC6ED
:10425C0052C483447405034AB40583498405034955
:10426C00940559368347A40593F4F40F137AFA0F87
:10427C0093E71700230DF40493F9F90F1379F90F51
:10428C00B717004003C7A705058B6DFF03D5C705FE
:10429C00A38D4705238C3705A38C2705A38B970487
:1042AC00F2406244D2444249B249224A05618280BA
:1042BC00411122C406C62E849397556063DF070014
:1042CC0097C0FF1FE780E06E19C1EF1000031315B4
:1042DC00F468B24022444101828093F7150013C563
:1042EC001500E5FB8967ED8F99CFEFA0113137F6FB
:1042FC000200130606E0896503C5C186EF10C026CF
:10430C001315D468F9B711656D8D61D51755020079
:10431C001305457FEF40A26213060064916503C547
:10432C00C186EF1060241315E46865B71D7149460A
:10433C00975502009385457D1765020013050542CC
:10434C0086CEA2CC97D0FF1FE780408101E917559C
:10435C0002001305A57CEF40825E01A037F700E058
:10436C0023240700F9571CCB0564B7E700E023A012
:10437C008710BD4614C323A087180100010017E75E
:10438C00FF1F130727B023A4E186130700F8A38AA5
:10439C00E7401306C0038145480897C0FF1FE7801C
:1043AC00C07097070020938767173ECA8967FC8403
:1043BC00A167938707E03ECEB707010593870710E7
:1043CC003ED09307B00F2312F10285472303F1026D
:1043DC0097070000938787E1BEC497070000938777
:1043EC00A7E2BEC6930754D12314F102B7F5070018
:1043FC00970700009387A7D43EDA81469707000001
:10440C00938747E47000E10519453EDE97C0FF1F16
:10441C00E78020ED19466C001305E1025D32D247AE
:10442C0081C7BC8463F3870001A04808EF10006BC0
:10443C00AA8501C9175502001305856FEF40822E1E
:10444C0001A0F640664425618280411117050000E9
:10445C00130545E606C622C4EF10A0651384C18679
:10446C0008A0112808202244B240130600328965A6
:10447C0041016F10600F397106DE13078008F337A6
:10448C00078093F787083EC201000100B717004070
:10449C00930570052380B704130680FA2380C704A4
:1044AC000100010083C6F70293F6D60FA387D7024B
:1044BC00238007049246F3A606800100010073379F
:1044CC000780137787083AC4010001002380B704E2
:1044DC002380C7040100010003C7F70213675700CC
:1044EC00A387E70223800704A247F3A707800100F4
:1044FC000100814701478146054685451305407EED
:10450C00B532680013064002814597C0FF1FE78053
:10451C00C059B707C0A83ECAB78732003ECC97C770
:10452C00FF1F9387073D3EC6680097C7FF1F938701
:10453C00C73D3EC8EF107007F250216182804111D7
:10454C00175502001305C56006C6EF40A21DB24008
:10455C008547238BF18641018280B305B040175506
:10456C0002001305A5616F40E21B011122CC26CA83
:10457C0006CE2E84B684EF007067B7470F00938782
:10458C0007243376F50291C8B2851755020013053E
:10459C00E55F32C6EF400219324622856244F24092
:1045AC00D244814505616FE05163397126DA06DE2C
:1045BC0022DC4AD84ED652D4AE849397556063D041
:1045CC000726138931880345090097C0FF1FE78030
:1045DC00403E2A8405C518219307000B631DF70084
:1045EC0083C7118809474C21930985006382E70230
:1045FC004E85EF50905E2285EF0030501395F46895
:10460C00F2506254D2544259B259225A21618280DA
:10461C000D47638FE5000547639EE500182563177A
:10462C00F7024C251755020013054557EF40820F32
:10463C00238B018658209307F0076319F7000E248B
:10464C001755020013050557EF40C20D5C202D478E
:10465C006384E70285466398D7021824A946631E33
:10466C00D7024C241755020013058555EF40820BD9
:10467C00238B01864C20ADBF5C44175502001305FB
:10468C0025558C23E5B74D476397E7061755020070
:10469C0013054556EF40A22AE1BFC9466318D7005F
:1046AC004C24175502001305A553C9B703C701883D
:1046BC0071D3631EF7085C201D476398E708183018
:1046CC00E947E399E7FA83D7E187CDD77C8483D791
:1046DC00C1877C85F9779387271009477C862380CF
:1046EC00E188FD57034609002C0003D561805C87E7
:1046FC00EF50B00341B76D47639BE7005C4417551F
:10470C000200130525508C23EF40C201A5B703C747
:10471C0001882DD36317D7061D47E39EE7F81E24A7
:10472C00D9DB5C44175502001305054F8C339823D5
:10473C00B033A205D98D239FB186B8232206598E9A
:10474C00239EC186EF30127EBDB705479DBF8947BA
:10475C00631DF7065C2025476397E7061830E94789
:10476C00E39AE7F08D472380F18883D7E1877C8437
:10477C0083D7C1877C85930720207C869307900282
:10478C0095B789466319D7042547E395E7FC1E24A2
:10479C00F1D35C4403450900138AA18798239C3309
:1047AC001306006493050004A207D98F2310FA00A6
:1047BC00EF00905B83550A001755020013058548DE
:1047CC00EF30527641BF054761BF8D47E314F7EADE
:1047DC002380018845B58D46E31ED7E82547E3992C
:1047EC00E7FE1E24F5D75C4403450900138A818734
:1047FC0098239C331306006493050008A207D98FF5
:10480C002310FA00238B0186EF00105683550A0003
:10481C001755020013058545EF30D27055BF93F73D
:10482C00150085C317F6FF1F1306465697F5FF1F95
:10483C009385055503C53188EFD0512113C514005C
:10484C00C1B393F7052081CB41657D15EF00221094
:10485C0013C5042075B393F785009DC781577C84DD
:10486C00239D0186239E0186239F0186854783C64F
:10487C00318809462C0003D561802380F188EF50E4
:10488C00B00713C58400ADBB93F7050191CF130797
:10489C008025814613064006D14503D56180EF0083
:1048AC00820A13C50401A9BB93F705029DC30147F6
:1048BC0089460946814503D56180EF00A20BAA8584
:1048CC00175502001305053EEF30D26513C50402DF
:1048DC0005BB93F70504DDCF138961878347090076
:1048EC00D9E317F4FF1F130464741820138A618032
:1048FC0003550A0083D7A1873DCF7C8401478547A8
:10490C0081460546C945231801007C85EF50206976
:10491C002AC631C99307A005938931881CA103C607
:10492C00090003550A002C00EF50A06021E11C2067
:10493C0003C50900054A93B71700130600649305D5
:10494C0000041CA023004901EF001042938741870B
:10495C00982311EB03C509001306006491652380AD
:10496C004701EF00704013C5040459B9C94528002C
:10497C00EF50B026CDBF03C631882C007C84EF509D
:10498C00805A75F185472300F9001C2093B7170056
:10499C001CA0D1BF93F70508A5C3138461871C2005
:1049AC00A1E79389618003D5090083D781877C8433
:1049BC000147894781460946C945231801007C8572
:1049CC00EF50E05D2AC60DC1054923002501B24711
:1049DC0003D5090003C63188A38007002C00EF50D3
:1049EC00405511E52300240113C5040811B9C9452C
:1049FC002800EF50901ECDBF93F705108DC303D543
:104A0C006180EFF01174056613060696930500108D
:104A1C0003C53188EF00503513C50410D5B61165A8
:104A2C006D8DE30F05BC83D761807C8493075005A3
:104A3C007C85280085475C86EFF01174AA85175594
:104A4C00020013056527EF30F24D1395E4684DBE57
:104A5C00AE87175502001305A528B285A1C70547D7
:104A6C00639DE700175502001305C52809C61755A5
:104A7C000200130525296F30926C09476398E700F3
:104A8C0017550200130505297DD682800D47E39E3C
:104A9C00E7FE175502001305E52871DE17550200D5
:104AAC00130585296F30124801114AC806CE22CC55
:104ABC0026CA4EC652C4138921880347090093079E
:104ACC00F00463FAE708F2406244D2444249B24926
:104ADC00224A05618280B3659420194689054E856A
:104AEC0097C0FF1FE780800779FD05041374F40F4E
:104AFC0083470900E361F4FEB3E79720CE85138565
:104B0C002700194697C0FF1FE780A0F383470900D1
:104B1C00175502001305C5239385170093F5F50F60
:104B2C002300B90033E79720A300470162441386A2
:104B3C00F5FF33669620F240834876000348660002
:104B4C005C3258223432D2444249B249224A302291
:104B5C0005616F30323DAA892E8A014497F4FF1FFC
:104B6C009384C47371B73C214947636DF72217577F
:104B7C0002001307A72DB3C7E7209C43011122CCD9
:104B8C00BA9706CE26CA4AC84EC652C42A84828711
:104B9C00175502001305451EEF30725A13845187C6
:104BAC001C2091EB014685450D45EFD021721C2050
:104BBC0093E717001CA0F2406244D2444249B24928
:104BCC00224A05618280938451879C200144138979
:104BDC002188F99B9CA097F9FF1F9389296C17FAE0
:104BEC00FF1F130AEA4483470900637CF400B36592
:104BFC00342119468905528597C0FF1FE78000F6BE
:104C0C000DCD83470900639E8702175502001305DB
:104C1C00A517EF30D252238101889C2091EB0146DD
:104C2C0085450D45EFD0816A9C2093E717009CA029
:104C3C001755020013054514B9A005041374F40F9D
:104C4C005DB7A2851755020013054515EF30922D5F
:104C5C0097F7FF1F938787640E04930624003E94F6
:104C6C001030BE9681450145EFD0A1630566130651
:104C7C0006C89305002003C53188EF00F00E1755C8
:104C8C0002001305E5126244F240D2444249B24993
:104C9C00224A05616F30B24A93843188882093058B
:104CAC000020EF0010350C30B9E18947A380F18862
:104CBC003E248820130600642393F180A145854788
:104CCC00238BF186EF00500A88200564130604C874
:104CDC00C145EF0070098820130604969305001057
:104CEC00EF009008175502001305850D69BF175585
:104CFC0002001305E50DEF30F222175502001305E3
:104D0C00A507EF30D2432381018849BDA3800188D8
:104D1C00F9579305001003C531882393F180238044
:104D2C000188239D018623810188238B0186EF0056
:104D3C00502C6C20175502001305450B138451871A
:104D4C00EF30521E182083C75188D98FE39507E6A0
:104D5C00014685450D45EFD061571C2093E71700A0
:104D6C001CA0F9B5175502001305050A29BF1755E4
:104D7C0002001305650A01BF175502001305C50A89
:104D8C00EF30F23B4C20130554006244F240D24405
:104D9C004249B249224A056101BB1755020013056D
:104DAC00A509F9BF828001111705000013052580A4
:104DBC0006CE22CCEF00F04F13843188856508A015
:104DCC00938505960945EF20700ED1451D45EF20C2
:104DDC00F00D930540062145EF20500D930540063C
:104DEC003545EF20B00C85470D47700091451305F4
:104DFC00F0405C84DC845885DC8502C6EFE09104CD
:104E0C003000854513058040EFE0D1031306910077
:104E1C00854513059040EFE0F1021306A10085458E
:104E2C001305A040EFE011021306B10085451305F0
:104E3C00D040EFE03101EF6080040820EF50903358
:104E4C0008206244F2408545056117E3FF1F6700A7
:104E5C0063CE4111114506C6EFE05FFC13055034DB
:104E6C0097B0FF1FE780807EB7170040116723AC17
:104E7C00E70AC1450545EFF0AFA385452165EFF085
:104E8C000F9B8D451165EFF08F9AEFF04FB31765BF
:104E9C0002001305A58CEF30922AEFF02FC9EFF02A
:104EAC00CFDAEFF03133EFF0F139F53DAD2E97C09D
:104EBC00FF1FE780C0A7797122D426D24ECE06D62A
:104ECC00935945004AD052CC2A84AE8493F9F90008
:104EDC00B5CD17550200130525FCEF305226AC203A
:104EEC0017550200130545FDEF30D203CE8517553B
:104EFC000200130565FDEF30F202B7070001E18FE8
:104F0C008DC79375040FC11593B51500A382B18895
:104F1C0017550200130585FC2254B25092540259C5
:104F2C00F249624A45616F30E27FB7070002E18FB8
:104F3C0091CF2254B25092540259F249624A1755F9
:104F4C000200130525FB45616F30721F1379F400C5
:104F5C008D476302F90C1377C4000DEF054A630506
:104F6C00490509476307E904CA851755020013056B
:104F7C0065FFEF30227BCE85175502001305C5FF68
:104F8C00EF30427A93558400BD8917550200130502
:104F9C00E5FF59B7994717550200130525FCE31592
:104FAC00F9FCEF30D219C9B717550200130545F5B6
:104FBC00CDBFB820E31AF7FA17550200130545F5D3
:104FCC00EF30F2172383418983C7F180D1DF83C788
:104FDC0001815C80B7077C04938787413EC2B70789
:104FEC00040C938707043EC4930720207C860A8513
:104FFC00C14723014101A30041015C87EFF0111867
:10500C00AA8519E1A387018017550200130545F104
:10501C00EF30427191BFAC20914717550200130538
:10502C0065F1E380F5F817550200130565F2CDB76D
:10503C001D71CAC886CEA2CCA6CACEC6D2C4D6C250
:10504C00DAC05EDE62DC66DA6AD82E899397556028
:10505C0063D10716938A018103C50A0097C0FF1F0D
:10506C00E78020952A840DC118219307000D631B3E
:10507C00F7003C21130770026388E70213078002D4
:10508C00638EE70A2285952C1315F968F640664461
:10509C00D6444649B649264A964A064BF25B625CB0
:1050AC00D25C425D2561828017550200130545EFE5
:1050BC00EF30F2084C30914763F9B70011461755A1
:1050CC000200130565EFEF30E2658A849719002022
:1050DC009389C944014A268B914B314C930C800720
:1050EC00414D938A41884C306348BA005A8603C5B7
:1050FC006188EFF0B10D79B75C209375FA0FA3803E
:10510C007401AE979CA02381840123929401A38106
:10511C00A4014E85414697C0FF1FE780009983C7C5
:10512C000A0023A43401050A138717002380F90011
:10513C002380EA00B1049389090275B704458149BB
:10514C00130BF00F175C0200130C4CE9975C020078
:10515C00938C8CEA938BE1807C20E3D5F9F2DC20F4
:10516C00638E670383861400D030AC306285014AAD
:10517C00EF30425BDC306346FA022945EF30225EA9
:10518C0083C70B00639C670103C50A0093050040AD
:10519C0023803B0197E0FF1FE780C0998509B1048C
:1051AC0065BF9C446685D2978C23050AEF308257E5
:1051BC00D1B793F7150089CF17F6FF1F1306C6BD9D
:1051CC00814503C50181EFF04126134519007DBDD2
:1051DC0013F50540E30C05EA83C76188194697F57A
:1051EC00FF1F9385E5E45C80480083C7E180DC8089
:1051FC002311010097C0FF1FE780A084A9477C857D
:10520C00930720033EC60A8593070019FC80EFF034
:10521C00217CAA8517550200130585DEEF308250DC
:10522C0013450940A5B5011117050000130585E0CC
:10523C0006CE22CCEF00F00713840181AA8508A0CA
:10524C0017550200130585DDEF30C24D9D47DC86F6
:10525C005C871306E1008547854513058030DC87A4
:10526C00EFF0C1451306D10085451305B030EFF0C2
:10527C00E1441306F100854513055030EFF001446D
:10528C00930500050D45EF2060429305000511457F
:10529C00EF20C04185457945EF204041814717F605
:1052AC00FF1F130626B013070005B386C7009CA288
:1052BC008507E39CE7FE9305000517F6FF1F130611
:1052CC0066AE13055031EFF0613F08206244F240A6
:1052DC008545056117E3FF1F6700C385184183A748
:1052EC0085FF6319B7001CC1FD5723AC05FE238F46
:1052FC00F5FE8280232CF6FEC5BF411122C437E493
:10530C0000E026C204403707200006C6F98C232093
:10531C00E4180F10000009E9232094101545B24041
:10532C0022449244410182800347E5FF9307F00F2A
:10533C006306F700232094101145D5B797D0FF1FB3
:10534C00E780001C014523209410D1BF41114AC0B5
:10535C0037E900E022C403240900B707200006C681
:10536C0026C27D8C2320F9180F10000089E523201C
:10537C008910154515A0AA849717002083C71722FA
:10538C002E8563F5F400894763EE9700BD37B7E7C8
:10539C0000E023A087100D45B240224492440249FC
:1053AC004101828083A785FF99E703C7E5FF930737
:1053BC00F00F6308F7009137B7E700E023A08710E0
:1053CC004DBF238F95FE1385818897B0FF1FE78013
:1053DC008056A165268597D0FF1FE780A0750145F3
:1053EC002320891055BF23A4018882804111B7E77F
:1053FC0000E026C284433707200006C622C4F98C7D
:10540C0023A0E7180F1000009717002083A7871D13
:10541C001384418191C782971C40AA971CC021A07C
:10542C0083A78189EDFB0840B74703009387D73FDB
:10543C003305F502B7A72600938737ECB2403E95AB
:10544C0008C02244B7E700E023A097109244410122
:10545C008280B7E700E09843B706200023A0D71856
:10546C00758F0F1000009716002083C63613637ECD
:10547C00D50083A6418A3325D5201621B3F5B64035
:10548C000EA123A0E7100145828023A0E7100D4553
:10549C0082807971B7E700E026D284433707200079
:1054AC0006D622D44AD04ECE52CCF98C23A0E71883
:1054BC000F100000930705FF93F7F70F7D47636FFD
:1054CC00F70831473307E50283A7818ABA979C43D3
:1054DC00D1C7135445003D893315A028AE89B34577
:1054EC00050822852EC697D0FF1FE78000452A8924
:1054FC0029C9B2452285171A0020130AAA11913F17
:10550C0083A7818982978357CA002A84814633876F
:10551C00370313060064B3B7370313050732B335EB
:10552C00E500BE95EF207266B307850083268A00DE
:10553C003E8763E4A70063E4D7003387D740232476
:10554C00E900B7E700E023A097100145B2502254C0
:10555C0092540259F249624A45618280B7E700E0F1
:10556C0023A097100945DDB7797122D437E400E008
:10557C004AD003290400B707200006D626D24ECE07
:10558C0052CC56CA5AC85EC63379F9002320F41897
:10559C000F1000009717002083C757006376F500A3
:1055AC0083AB818963970B00B7E700E023A0271139
:1055BC0099A0971A0020938AEA0503AB8A00B74793
:1055CC0036FE938707C83E9B83D7CA002E8AAA84CF
:1055DC00B385C702B2898146B3B7C70213850532BA
:1055EC00B335B50013060064BE95EF20125A6370F4
:1055FC00AB02232024110145B2502254925402597B
:10560C00F249624AD24A424BB24B45618280829B3C
:10561C0083D7CA002A8413060064B38537038146F6
:10562C00B3B7370313850532B335B500BE95EF20FC
:10563C00D255B307850003A78A003E8463E4A70014
:10564C0063E4E7003384E740D285268597D0FF1FBB
:10565C00E780A02E01C900C5B7E700E023A0271101
:10566C00054559BF93E504F04145B3C5050897D0EE
:10567C00FF1FE78080DC11E99717002083A787F7CD
:10568C0085D7A6851145829705B71387018A1C43D8
:10569C0089EF08C385472326050000C52311450162
:1056AC0004A11CB12322050045BF3E87DC47F5FF52
:1056BC0048C7CDB77971B7E700E026D284433707E6
:1056CC00200006D622D44AD04ECE52CC56CA5AC846
:1056DC005EC662C466C2F98C23A0E7180F100000E6
:1056EC0025C12A892E8AB28AB6894144B14C138BC2
:1056FC00818A130C0003B30B940383270B00DE97F2
:10570C009C43B9EF135544409375F40056861375BA
:10571C00F50FB315B028B3C50508B93531C18327CA
:10572C000B00DE9723A0270123A247016384090005
:10573C0023808900B7E700E023A09710014521A042
:10574C0023A097100945B250225492540259F249A1
:10575C00624AD24A424BB24B224C924C45618280F7
:10576C000504E31A84F9B7E700E023A0971021455C
:10577C00D9BF011122CC37E400E026CA04404AC844
:10578C004EC652C406CEB70720002A892E8AB2898B
:10579C00FD8C2320F4180F100000F933D2854A85B4
:1057AC0097D0FF1FE780601901ED2320941021454D
:1057BC00F2406244D2444249B249224A0561828095
:1057CC009717002083D7C7E5B38537032A891306BB
:1057DC0000648146B3B7370313850532B335B50082
:1057EC00BE95EF20923A2322A90023209410014564
:1057FC00C1B7011126CAB7E400E04AC803A90400E6
:10580C0022CC4EC6B707200006CE52C4AA892E84DD
:10581C003379F90023A0F4180F10000097D0FF1F64
:10582C00E780A011171A0020130A4AD71DE1A285A0
:10583C004E85053183470A006380370523A0241168
:10584C001945F2406244D2444249B249224A0561A8
:10585C00828023110500A2854E85E53E83470A0010
:10586C006386370123A024110145E1BF13872189E9
:10587C001E23C18F1EA3FDB7938721899A23598CB0
:10588C0082A36DBF01114AC837E900E022CC032482
:10589C000900B707200006CE26CA4EC67D8C2320F1
:1058AC00F9180F1000009307F00263E5A704B14448
:1058BC00B30495029389818A83A70900A6979C4318
:1058CC0095CB9375F5001181B315B028B3C50508B8
:1058DC000D3783A709000145A69723A0070023A233
:1058EC00070023208910F2406244D2444249B24955
:1058FC0005618280B7E700E023A087100945E5B772
:10590C004111B7E700E026C2844306C622C437071C
:10591C002000F98C23A0E7180F10000097D0FF1F70
:10592C00E780A00119E90145B2402244B7E700E045
:10593C0023A09710924441018280004583A781895E
:10594C008297971700209387E7CC6367A402984748
:10595C00B74636FE938606C83305A4403697E374E3
:10596C00E5FC13070064B335E502D2278146330505
:10597C00E502EF2092214DBF98473A94C9BF4111DF
:10598C0006C623AAA1880295B2409717002023A32C
:10599C00A7C2014541018280914763E9B70097177F
:1059AC0000209387E7C5B3C5F52088C182804111DB
:1059BC005146814517150020130585C406C622C41F
:1059CC0026C223A0018A23AA018823AC018823883C
:1059DC00018823A6018897B0FF1FE780000D1306EE
:1059EC008002814517150020130545BB97B0FF1F9A
:1059FC00E780A00BEFF0E10E97170020938787BC90
:105A0C00E82BFC3B17140020130444B985453E9544
:105A1C008D473305F50299479384818A39051375AF
:105A2C00F50F28A03305F5021305052433450508A9
:105A3C0097D0FF1FE78060A088C03DC530209947F4
:105A4C0081453306F6021306062497B0FF1FE78044
:105A5C00C0059C4038209384C189938707249CC03F
:105A6C00B347F72023A2F18AEFF0FF9709291C30E6
:105A7C00944017D6FF1F130606F433C7D72010C364
:105A8C00138717001377F70F17D6FF1F130686EC33
:105A9C003347D72010C313873700890718B093F703
:105AAC00F70FB3C7D72090C3B240224492444101B0
:105ABC00828097160020938666AE2A87BC22883295
:105ACC00637BF5001306150083A7C18990B2B34719
