:040000006F009004F9
:100004000000000000000000A0000020C407002041
:10001400A9BDF9F3A00000200000000000000000CA
:10002400A0000020A000002000000000000000004C
:10003400A000002000000000A0000020000000003C
:10004400A0000020A0000020A0000020A0000020AC
:10005400A0000020A0000020A0000020000000005C
:10006400A0000020A0000020A0000020A00000208C
:10007400A0000020A0000020A0000020A00000207C
:10008400A0000020A0000020A0000020A00000206C
:10009400A0000020A0000020A0000020A00000205C
:1000A40001A0B7170040984B41111367070198CB83
:1000B400982B1377E70F98AB1307800873370780E3
:1000C400137787083AC60F100000130770052380C2
:1000D400E704130780FA2380E7040F100000B847F1
:1000E400B70600069506558FB8C703C7B70413773C
:1000F400F70DA385E704B82713672701B8A71307EB
:1001040050149AA7372700408346578093F6F60E7B
:10011400A302D7808946A303D78003C7E7041377D4
:10012400C70F136717002387E70403C7F702136792
:100134002700A387E702982B1367170098AB238047
:100144000704B247F3A707800F1000004101828023
:10015400EFF03FF513058020970500009385C50A4D
:10016400170600001306466E63FAC50083220500D5
:1001740023A0550011059105E3EAC5FE171500E01B
:100184001305859E970500009385056C17060000EE
:100194001306C66B63FAC5008322050023A055002D
:1001A40011059105E3EAC5FE170500001305056A6C
:1001B40097050000938585696377B50023200500C2
:1001C4001105E36DB5FE93025002739002BC8D429B
:1001D400739042808542739012BC9302800873909E
:1001E4000230970200009382E2E193E232007390BE
:1001F4005230970200E09382826973901234730044
:0402040020300000A6
:100208002303048015472303E48001002302A4800C
:10021800828083076480E3CE07FE23030480828004
:1002280083076480E3CE07FE03454480828083070A
:100238006480E3CE07FE2302A4808280411126C495
:100248004AC24EC006C61377F50BAD47AA892E8958
:1002580095446306F70019456537653F8D444E851B
:100268004537FD59FD1463983401B240A244124940
:10027800824941018280135509011375F50F453FE5
:100288002209CDB7011126CC06CEB7040800513794
:100298001545BD37713769372AC6A53F324593776B
:1002A800150089EB136515001375F50FF240E2444C
:1002B80005618280FD14E9FC0145CDBF397126DC5A
:1002C8004ADA4ED852D656D45AD25ED006DE62CE1C
:1002D80066CCB7E700E07D5783AA070022C603AAC9
:1002E800470023A0E71823A2E718B7170040130711
:1002F80070052380E704130780FA2380E70483C787
:100308004704930B75FFB684E20793FBFB0F854602
:10031800AA892E8B328937240040E187015763FA76
:1003280076016308D5008946130700026313D500D8
:100338000157D98F93F7F70FB71C00402382FC04AD
:1003480011472303E4801305F00F5D3D094CD135B7
:10035800636D7C11B7050700DA9537870700795573
:1003680063F2E504B3879500636EF702370B080064
:10037800A94733EB65016399F90689E48144513D46
:1003880026850DA0DA850945553D05090345F9FF80
:10039800FD14050B693D81C49377FB0FFDF7DD352F
:1003A80069FD7D55B7170040130770052380E704E2
:1003B800130780FA2380E70403C74704418B23828D
:1003C800E704F250B7E700E023A0571123A2471132
:1003D800E25432445259C259325AA25A125B825BD1
:1003E800724CE24C21618280A5476395F9068569C4
:1003F8001309F00FB3069900B3742B01B69413498F
:10040800F9FFB3749900856B33796901416B938760
:10041800F9FFB3F7270199E363FC340193D9490045
:10042800C147E3E637FF99BF0569C1697D19D9B7A7
:100438001305800D6388690113050002638479013F
:1004480013051008CA85DD3B353D21DD4E99B3847F
:100458003441D9B7DA852D45D533CA94E30099F2EA
:1004680005097D3BA30FA9FED5BF9387F9FF93F735
:10047800F70F6361FC0C83C71C0413073008631F64
:10048800F70437070800636BEB04B3079B00B70654
:10049800100063F5D704334BEB0089476393F906E3
:1004A8008980D549E38C04ECDA850945413B11097B
:1004B8000327C9FF91472320E48003076480E34EA4
:1004C80007FE23033481FD17EDFBFD14110B81C4D6
:1004D8009377FB0FE9FF7D3371F5E1B5B71700405E
:1004E80003C75704B70708001377070219E3B7874C
:1004F80007007955E378FBEA33079B00E3FFE7F849
:1005080055B58547E382F9F2DA852D45053B938990
:10051800F4FFE38504E6293393F7390091EB83264A
:1005280004800327090093074900E39AE6E43E891B
:10053800CE84F1BFB5476396F9001305900BC93116
:1005480035BDB1471305B00AE38BF9FE99476391AE
:10055800F904B7050800B365BB002D45C5318144D2
:100568008D4BA14975396396740183270480232034
:10057800F9008504E39834FF8327048013172B01BF
:10058800635507002312F900D5BB2322F900FDB3F8
:100598009D476399F90281451305B0044531BD446F
:1005A8002320090023220900FD599D3993F774007F
:1005B800CA9703C70700FD14398D2380A700E39667
:1005C80034FF6DBBA1476392F9046D398144630D13
:1005D8000B008D479304C0036308FB0093040005D8
:1005E80063048B01930440041375C507E30895D889
:1005F8001945393139390545213126850D390945DE
:100608003D314931E31C05D669BB91476399F9002F
:1006180013056006F536F53E130590090DB7E38F0F
:1006280009D4F154A9BBB7170040984B411113677F
:10063800070198CB982B1377E70F98AB130780081F
:1006480073370780137787083AC60F10000013071F
:1006580070052380E704130780FA2380E7040F104E
:1006680000001307000C6315E5029A271367070CAF
:100678009AA7B7170040982B1367170098AB2380E9
:100688000704B247F3A707800F10000041018280DA
:10069800B82793760520ADCA118B29E303C7E70471
:1006A80003C6E7041377F70F136636002387C704DA
:1006B800B02713664600B0A792278E273346060850
:1006C80093E5050C8EA7A5470100FD1793F7F70FD3
:1006D800E5FFB717004092A72387E7049377051033
:1006E800DDC3371700403C2793E707013CA7937702
:1006F800F50199EFB727004003C757801367070133
:10070800A382E7801D470DA013672700B8A7F9B794
:1007180025476366F704B727004003C75780137758
:10072800F70EA382E7800547A383E78033450508D2
:10073800B71700401367050C9AA78AA7B5CE03C759
:10074800570483C65704418B858A558F1DF3B82BF0
:10075800418B05D3B8271377D70FB8A719BF93775D
:10076800050199EBB727004003C757801377F70EA9
:10077800A382E78009474DBFB727004003C75780CA
:100788001377F70EB5BF9377850181EFB727004040
:1007980003C757801377F70EA382E7801307100566
:1007A80061B7B727004003C757801377F70EA382B6
:1007B800E780130770058DBFB8271377B70F71BF90
:1007C80041118146014681451145CD3C13078008FA
:1007D800F337078093F787083EC40F100000B71758
:1007E8000040130670052380C704930680FA23800F
:1007F800D7040F100000FD55CEB723800704A2458B
:10080800F3A505800F10000073370780137787085A
:100818003AC60F1000002380C7042380D7040F10A6
:10082800000003C76704136717002383E7042380C6
:100838000704B247F3A707800F10000001A00000CB
:10084800971100209381018017F101201301017B8A
:100858001305400097F5FF1F9385457A170600207A
:100868001306069A63FAC5008322050023A05500E3
:1008780011059105E3EAC5FE170500201305058D4E
:1008880002854111114506C65128130550349700B9
:100898000020E78040D98D450565C9288D45096543
:1008A800F1208D450545A1228D45414589228D457B
:1008B800130500042D2A8D45130500080D2A8D45C2
:1008C80011653522B75700401147B8B311454D227D
:1008D80085460546C1450545ED2A85460546C14577
:1008E8000945C52A85460546C1451145DD22854687
:1008F8000546C1452145F12A85460546C14541457C
:10090800C92A85460546C14513050002D9228546F0
:100918000546C145130500046D2A01A0371700409C
:100928008347E70412054111BD8BC98F93F7F70F71
:1009380093068008F3B6068093F6860836C60F102D
:100948000000930670052300D704930680FA23005D
:10095800D7040F1000002307F70423000704B24749
:10096800F3A707800F10000041018280914763ECD4
:10097800B704970700009387A71AB3C5F5209841D5
:100988003E97B71700409387470B02879443371762
:100998000040B3F6A64094C39306070B9C42B3F7F6
:1009A800A74019A8944337170040B3F6A64094C34C
:1009B8009306070B9C42C98F9CC29307070A98436A
:1009C8003377A74098C38280944337170040C98E75
:1009D800D9B798433377A74098C3B7170040938790
:1009E800070A9843498FF9BF9843498FF5B791474C
:1009F80063ECB704970700009387C713B3C5F520C6
:100A080098413E97B71700409387470D0287944354
:100A180037170040B3F6A64094C39306070D9C42CF
:100A2800B3F7A74019A8944337170040B3F6A64078
:100A380094C39306070D9C42C98F9CC29307070C69
:100A480098433377A74098C3828094433717004070
:100A5800C98ED9B798433377A74098C3B7170040D2
:100A68009387070C9843498FF9BF9843498FF5B787
:100A7800954763E1A702170700001307E70C334502
:100A8800E5201C41BA973757004082873C2393F7EB
:100A9800070F3CA382803C2393F7070F93E71700C7
:100AA800CDBF3C2393F7070F93E74700DDB73C23FF
:100AB80093F7070F93E75700E9BF3C2393F7070F16
:100AC80093E78700F9B73C2393F7070F93E797005D
:100AD800C9B781EAB757004098233375A74088A360
:100AE8008280375700401C331DC6C98F1CB3375747
:100AF800004081471107A1463356F54801C63386A1
:100B0800E7000CA28507E399D7FE375700401C235E
:100B1800C98F1CA38280B3F7A740C9BF70FEFFFF2F
:100B280088FEFFFFACFEFFFFB6FEFFFFCCFEFFFF17
:100B3800DEFEFFFFF6FEFFFF1AFFFFFF24FFFFFFA9
:100B48003AFFFFFF48FFFFFF52FFFFFF5EFFFFFF77
:0C0B58006AFFFFFF76FFFFFF82FFFFFF38
:00000001FF
