:040000006F00500B32
:100004000000000000000000A000002032080020D2
:10001400A9BDF9F3A00000200000000000000000CA
:10002400A0000020A000002000000000000000004C
:10003400A000002000000000A0000020000000003C
:10004400A0000020A0000020A0000020A0000020AC
:10005400A0000020A0000020A0000020000000005C
:10006400A0000020A0000020A0000020A00000208C
:10007400A000002002060020A0000020A000002014
:10008400A0000020A0000020A0000020A00000206C
:10009400A0000020A0000020A0000020A00000205C
:1000A40001A0B7170040984B41111367070198CB83
:1000B400982B1377E70F98AB1307800873370780E3
:1000C400137787083AC601000100130770052380DF
:1000D400E704130780FA2380E70401000100B8470E
:1000E400894613675700B8C703C7B7041377F70DDA
:1000F400A385E704B82713672701B8A7130750148B
:100104009AA737270040A303D78003C7E7041377D0
:10011400C70F136717002387E704982B136717008B
:1001240098AB23800704B247F3A7078001000100BE
:1001340041018280EFF0FFF61305001E97050000D1
:100144009385050A170600001306C67663FAC500F0
:100154008322050023A0550011059105E3EAC5FE9D
:10016400172500E01305C5339705000093858574B2
:100174001386C18063FAC5008322050023A05500BD
:1001840011059105E3EAC5FE1385C1809385818736
:100194006377B500232005001105E36DB5FE9302D6
:1001A4005002739002BC8D427390428085427390DA
:1001B40012BC93028008739002309702000093826D
:1001C40062E493E2320073905230970200E093822B
:0C01D4002276739012347300203000007B
:1001E0002303048015472303E48001002302A48035
:1001F000828083076480E3CE07FE2303048082802D
:1002000083076480E3CE07FE034544808280830732
:100210006480E3CE07FE2302A4808280411126C4BD
:100220004AC24EC006C61377F50BAD47AA892E8980
:1002300095446306F70019456537653F8D444E8543
:100240004537FD59FD1463983401B240A244124968
:10025000824941018280135509011375F50F453F0D
:100260002209CDB7011126CC06CEB70408005137BC
:100270001545BD37713769372AC6A53F3245937793
:10028000150089EB136515001375F50FF240E24474
:1002900005618280FD14E9FC0145CDBF397126DC82
:1002A0004ADA4ED852D656D45AD25ED006DE62CE44
:1002B00066CCB7E700E07D5783AA070022C603AAF1
:1002C000470023A0E71823A2E718B7170040130739
:1002D00070052380E704130780FA2380E70483C7AF
:1002E0004704930B75FFB684E20793FBFB0F85462B
:1002F000AA892E8B328937240040E187015763FA9F
:1003000076016308D5008946130700026313D50000
:100310000157D98F93F7F70FB71C00402382FC04D5
:1003200011472303E4801305F00F5D3D094CD135DF
:10033000636D7C11B7050700DA953787070079559B
:1003400063F2E504B3879500636EF702370B08008C
:10035000A94733EB65016399F90689E48144513D6E
:1003600026850DA0DA850945553D05090345F9FFA8
:10037000FD14050B693D81C49377FB0FFDF7DD3557
:1003800069FD7D55B7170040130770052380E7040A
:10039000130780FA2380E70403C74704418B2382B5
:1003A000E704F250B7E700E023A0571123A247115A
:1003B000E25432445259C259325AA25A125B825BF9
:1003C000724CE24C21618280A5476395F9068569EC
:1003D0001309F00FB3069900B3742B01B6941349B7
:1003E000F9FFB3749900856B33796901416B938789
:1003F000F9FFB3F7270199E363FC340193D949006E
:10040000C147E3E637FF99BF0569C1697D19D9B7CF
:100410001305800D63886901130500026384790167
:1004200013051008CA85DD3B353D21DD4E99B384A7
:100430003441D9B7DA852D45D533CA94E30099F212
:1004400005097D3BA30FA9FED5BF9387F9FF93F75D
:10045000F70F6361FC0C83C71C0413073008631F8C
:10046000F70437070800636BEB04B3079B00B7067C
:10047000100063F5D704334BEB0089476393F9060B
:100480008980D549E38C04ECDA850945413B1109A3
:100490000327C9FF91472320E48003076480E34ECC
:1004A00007FE23033481FD17EDFBFD14110B81C4FE
:1004B0009377FB0FE9FF7D3371F5E1B5B717004086
:1004C00003C75704B70708001377070219E3B78774
:1004D00007007955E378FBEA33079B00E3FFE7F871
:1004E00055B58547E382F9F2DA852D45053B9389B9
:1004F000F4FFE38504E6293393F7390091EB832673
:1005000004800327090093074900E39AE6E43E8943
:10051000CE84F1BFB5476396F9001305900BC9313E
:1005200035BDB1471305B00AE38BF9FE99476391D6
:10053000F904B7050800B365BB002D45C5318144FA
:100540008D4BA1497539639674018327048023205C
:10055000F9008504E39834FF8327048013172B01E7
:10056000635507002312F900D5BB2322F900FDB320
:100570009D476399F90281451305B0044531BD4497
:100580002320090023220900FD599D3993F77400A7
:10059000CA9703C70700FD14398D2380A700E3968F
:1005A00034FF6DBBA1476392F9046D398144630D3B
:1005B0000B008D479304C0036308FB009304000500
:1005C00063048B01930440041375C507E30895D8B1
:1005D0001945393139390545213126850D39094506
:1005E0003D314931E31C05D669BB91476399F90058
:1005F00013056006F536F53E130590090DB7E38F38
:1006000009D4F154A9BBB717004003C72706218BB3
:100610001DC703C717061377F707A380E706170759
:1006200000001307E7313E073D83B8D703C727060D
:10063000136787002381E70685472386F180B71774
:10064000004003C7E705131747606354070403C757
:10065000A705CD461377F70F238DE70403C6D18096
:100660001387D18063E2C602142303D6C70597051A
:1006700000009385E52CB3A6B62092A283C6A705F9
:1006800093E61600238DD7041C23850793F7F70FF5
:100690001CA373002030B7170040984B411113671B
:1006A000070198CB982B1377E70F98AB13078008B7
:1006B00073370780137787083AC6010001001307D4
:1006C00070052380E704130780FA2380E704010004
:1006D00001001307000C6315E5029A271367070C46
:1006E0009AA7B7170040982B1367170098AB238081
:1006F0000704B247F3A7078001000100410182808F
:10070000B82793760520DDC2118B29E303C7E704E0
:1007100003C6E7041377F70F136636002387C70471
:10072000B02713664600B0A792278E2733460608E7
:1007300093E5050C8EA7A5470100FD1793F7F70F6A
:10074000E5FFB717004092A72387E70493770510CA
:10075000D5C7371700403C2793E707013CA793779D
:10076000F501A9EBB727004003C7578013670701BE
:10077000A382E7801D47A383E78033450508B717A9
:1007800000401367050C9AA78AA7D5C203C7570470
:1007900083C65704418B858A558F21F7B82B418B2F
:1007A00029D3B8271377D70FB8A725BF136727001A
:1007B000B8A769BF2547636CF700B727004003C798
:1007C00057801377F70EA382E78005476DB79377BD
:1007D000050199EBB727004003C757801377F70E41
:1007E000A382E780094741BFB727004003C757806E
:1007F00013670701A382E7800D47B5BF9377850193
:1008000081EFB727004003C757801377F70EA38205
:10081000E7801307100585B7B727004003C7578047
:100820001377F70EA382E78013077005A9B7B827DF
:100830001377B70F95BF4111814601468145114598
:10084000B13C13078008F337078093F787083EC44D
:1008500001000100B7170040130670052380C7048C
:10086000930680FA2380D70401000100FD55CEB71E
:1008700023800704A245F3A505800100010073371A
:100880000780137787083AC6010001002380C70458
:100890002380D7040100010003C767041367170012
:1008A0002383E70423800704B247F3A707800100EE
:0408B000010001A0A2
:1008B400971100209381C18517F101201301417420
:1008C4001305400097F5FF1F9385857317060020D5
:1008D4001306C69063FAC5008322050023A05500C1
:1008E40011059105E3EAC5FE17050020130585846B
:1008F40002852A8311C62300B3007D16050365FE15
:100904008280411106C6B7170040116723ACE70A7D
:10091400C14505456D23854521650D238D4511652B
:10092400312BB240410145A57971114506D622D437
:1009340026D24AD04ECE52CC5529130550349700B6
:100944000020E78000D5753FB717004083C5170422
:10095400172500001305C593970400209384C4FD54
:10096400412D172500001305E593EF00807C8526B3
:100974004D2E1384018526896D262310A9000909AB
:10098400E31C89FE17090020130909FB37FA070045
:10099400972900009389C99283264A0103550900C7
:1009A400090936C605210356E9FFB246AA854E85D4
:1009B4008125E31389FE1725000013052591EF0017
:1009C4004077814541459D29894505456924F52A96
:1009D400AA85AA891725000013054591112DB7177B
:1009E4000040238C0704352E170900201309C9F48D
:1009F4000D2E4E952310A9000909E31B89FE170942
:100A04000020130969F3972900009389A98F83555E
:100A140009004E850909E92BE31B89FE172500000F
:100A24001305C58EEF00E0708145414501298945D4
:100A34003719004005450524230C0904DD2413055A
:100A4400000C052E81461386818797050020938527
:100A5400A5EE05452526B7E700E03707002023A0CB
:100A6400E710834719061387C18093E70708A3009B
:100A7400F9061C23FDDF8146014681450145238695
:100A8400018093898187DD2C170900201309C9EAA5
:100A9400172A0000130A0A87835509005285090999
:100AA400812BE31B39FF17250000130565885125A9
:100AB400056581454105592689450545D92AB71754
:100AC4000040238C0704B12C170900201309C9E640
:100AD400892C2310A9000909E31C89FE17090020A9
:100AE400130989E5972900009389C9818355090071
:100AF4004E850909F529E31B89FE17250000130516
:100B0400E584052D81450565152EE52AB7170040B6
:100B14000947238CE704170900201309E9E18145FB
:100B240041450D242310A9000909E31A89FE170978
:100B34000020130969E0971900009389A97C835563
:100B440009004E8509096D21E31B89FE1725000064
:100B540013054581F92B814513050002C5248945F8
:100B64000545D528371900408547230CF904552A33
:100B7400A38601808347A905370700209386D18087
:100B840093F7F70F230DF904B7E700E023A0E7106C
:100B94008347A90593E71700230DF904CD4798224D
:100BA400E3FFE7FEB7E700E03707002023A0E718DC
:100BB40001000100171900001309C9748E204A8529
:100BC40089043D21E39C84FE01A0B717004003C6BD
:100BD400870583C5970503C797051376F60F93F525
:100BE400F50F13678700A38CE70403C797051377F2
:100BF400B70FA38CE70403C7A70513671700238D5A
:100C0400E704371700408347A705858BEDFF056888
:100C1400C146371700407D180345A7051365150025
:100C2400230DA7040345A70505896DFD0355C705D5
:100C3400FD16B3C606083375A840AA97F1FEA107AE
:100C440091831315B028A30CB7041D8D230CC7047E
:100C5400131555608280B717004003C777051A053E
:100C64001377E70FA38BE70413974500598D13659A
:100C740035001375F50FA38CA70403C7A705C18915
:100C840091C513672700238DE70482801377D70F5C
:100C9400DDBFB717004003C777051A051377E70FC1
:100CA400A38BE70413974500598D136555001375FD
:100CB400F50FA38CA70403C7A705C18991C51367C2
:100CC4002700238DE70482801377D70FDDBFB71782
:100CD400004003C777051377E70FA38BE7041307D7
:100CE40000F8A38DE7043D47238CE7041307500362
:100CF400A38CE70403C7A7051377D70F238DE70455
:100D04008280B717004013073006A38CE70403C79B
:100D1400A7051377D70F238DE7040D47A38BE704AB
:100D24008280371700408347A70593E71700230DF8
:100D3400F7048347A705858BEDFF0355C7055205C7
:100D4400518182807D8996054D8DB71700401375BA
:100D5400F50F0547238AA704238BE70437170040C0
:100D640083476705858BEDFF0355C7055205518100
:100D74008280B7170040A381A706828011E9371744
:100D840000408347170693F7670FA300F706828096
:100D9400370702007D17B7170040F98DACD7798E5D
:100DA400F0D703C7170691C61367D700A380E706D9
:100DB40082801377B70FA380E70603C7170613676C
:100DC4009700EDB7B7F70700DC4B13D7070111E322
:100DD4006547B3C707081D8D930740063305F50221
:100DE4009307B0113345F5023A95828037170040D6
:100DF4008347E70412054111BD8BC98F93F7F70FA1
:100E040093068008F3B6068093F6860836C601007A
:100E14000100930670052300D704930680FA23008B
:100E2400D704010001002307F70423000704B24795
:100E3400F3A707800100010041018280914763EC20
:100E4400B704971700009387E754B3C5F52098417A
:100E54003E97B71700409387470B02879443371791
:100E64000040B3F6A64094C39306070B9C42B3F725
:100E7400A74019A8944337170040B3F6A64094C37B
:100E84009306070B9C42C98F9CC29307070A984399
:100E94003377A74098C38280944337170040C98EA4
:100EA400D9B798433377A74098C3B71700409387BF
:100EB400070A9843498FF9BF9843498FF5B719C575
:100EC400371700401E2FCD8F1EAF8280B71700400A
:100ED4009A2FB375B7408EAF8280B71700409A2718
:100EE4009306000C1377070C630AD7049A27137729
:100EF40007100DC79A279E277D8B09EB93F70720D0
:100F0400B1C33755E80113050580828037C59812AF
:100F1400FD8B130505E03345F50282809A279E2751
:100F240013770720FD8B11C73755E801130505809A
:100F3400DDB73725F40013050540F1BF216513051E
:100F440005D082803725F400130505408280328560
:100F5400814737370040A14663C3A70082803037FA
:100F6400E30FD6FE3386F5001022850710A7EDB7F0
:100F7400970600209386C699AA878842138781879B
:100F8400AA9763E9E7000A87130707FC6364F7007D
:100F94009CC282807D558280411122C406C62A8467
:100FA4002D3F2947B307E502B2408D83B3D78702AB
:100FB40022449507B3D7E70237370040B3C7070881
:100FC4005EA741018280716541111305052006C6A3
:100FD400E137B7370040130770F8B8A30D47B8B32B
:100FE4001307000498B30547F8A7B2404101828073
:100FF4005D7122D406D62A842EDA32DC36DEBAC0FB
:10100400BEC2C2C4C6C6170500200325A59011C5DB
:101014001C4D81E72AC6B12B32450C455418228653
:1010240036CEEF003021B25022546161828001112A
:1010340026CA06CE22CC4AC84EC652C4AA8419E196
:101044001C4502901C4D2E89ADE325239C4C804405
:10105400B9CF9717000093872739631DF404C04064
:101064007C50858B99E75E2493F7072099E3284CFD
:10107400AD2D5E24A18B99C31C48D5E3A28526859A
:10108400AD2A51CDFD547C50858B99E75E2493F7AE
:10109400072099E3284C992DF24062444249B24911
:1010A400224A2685D2440561828000455DB72685A3
:1010B400C92145B797170000938707316314F400DB
:1010C400804479BF971700009387072EE31AF4F83A
:1010D400C04479B71CC4050963C807021C401387C0
:1010E400170018C08CA31C4483450900FD17FDF1AB
:1010F4001CC463D907022286A94526858920FD5789
:10110400E302F5F8A94441B7184C63C4E700E39738
:1011140045FD228626852520E31735FDA5B7FD5913
:10112400294AD1B71C401387170018C0294798A330
:10113400D1BFAA8517F5FF1F0325C57DCDBD0111BC
:1011440022CC26CA4AC806CE4EC6AA842E89328428
:1011540001C51C4D91E33129971700009387C728D7
:101164006317F402C0401C4C1CC45E24A18B99C3B9
:101174001C4895EFA2852685492015C97D59F24062
:101184006244D244B2494A85424905618280971734
:101194000000938767236314F4008044E9B797172A
:1011A400000093876720E310F4FCC0446DBF1C4823
:1011B40008409379F90F1379F90F1D8D5C48634644
:1011C400F500A2852685A12C55F91C440505FD17BB
:1011D4001CC41C401387170018C0238037015C48C7
:1011E4006388A7005E24858BD9DBA947E319F9F846
:1011F400A28526852D2441D551B7411122C426C28A
:101204004AC006C697F4FF1F83A4C4702A892E849B
:1012140089C49C4C99E32685A92E971700009387CF
:10122400A71C6313F402C0408317C40013F787009C
:1012340025E713F707010DEB25472320E90093E782
:1012440007045EA47D5571A0971700009387C71704
:101254006314F4008044C9BF971700009387C71430
:10126400E314F4FCC044C9B7918B9DC34C5889C99D
:10127400930744046384F5004A85B92B232A0402A6
:101284005E242322040093F7B7FD5EA41C481CC00F
:101294005E2493E787005EA41C4899EB5E24130741
:1012A400002093F707286385E700A2854A85612912
:1012B4008317C40013F717001DC3584823240400E0
:1012C4003307E04018CC1848014501E713F7070835
:1012D4003DF7B2402244924402494101828013F70F
:1012E4002700814611E3544814C4F1BF8397C50015
:1012F400011122CC26CA06CE4AC84EC613F787006F
:10130400AA842E8479E3D8416345E000B84163564A
:10131400E008585459C303A9040023A004000C5046
:1013240093D7C748A9CB70485E24918B99C75C407A
:101334001D8E5C5899C33C401D8E5C540C508146F4
:1013440026858297FD57630CF5041C480567232204
:1013540004001CC05E24F98F91C368C84C5823A0B4
:10136400240185CD930744046384F5002685AD21CB
:10137400232A04021DA00146854626850297FD57AF
:101384002A86E313F5FA9C40C5D375476385E700C5
:1013940059476395E70623A024010145B5A0984069
:1013A4008317C40001CFF5466305D700D9466319F6
:1013B400D7041C48232204001CC04DB7184823221C
:1013C400040093D7C74818C041BF83A90501E38629
:1013D40009FC03A905008D8B23A03501330939418C
:1013E400014791E3D84918C4E35920FB1C540C501D
:1013F400CA864E8626858297634FA0008317C40051
:1014040093E707045EA47D55F2406244D244424906
:10141400B24905618280AA993309A940F1B79C4970
:10142400411106C622C426C281EB8144B240224443
:101434002685924441018280AA842E8401C51C4DD4
:1014440091E3052A97170000938707FA631CF402B7
:10145400C0408317C400F1DB7850058B11E793F784
:10146400072099E3284C51242685A28541357C50D8
:10147400AA84858BC5FF5E2493F70720C5FB284CFF
:10148400B5246DB797170000938707F46314F4002D
:101494008044C1B797170000938707F1E31BF4FA60
:1014A400C04445BF411122C406C62A844EA572A574
:1014B40023200500232205002324050023220506FA
:1014C40023280500232A0500232C050021468145F5
:1014D4001305C505EFF0EFC1971700009387478305
:1014E4005CD097170000938747851CD4971700009A
:1014F400938707895CD4971700009387478BB24082
:1015040000D01CD8224441018280970500009385B5
:1015140045F1BDA2411126C2930780069384F5FFCD
:10152400B384F4024AC02E8922C406C693854407B4
:10153400692E2A8401CD23200500232225013105AB
:1015440008C4138684068145EFF0AFBAB240228501
:10155400224492440249410182801385418171A24F
:101564001385418161A21385818141A21385818103
:10157400B5AA411122C406C62A84F5371C4C89C772
:101584002244B2404101DDB797070000938727F852
:101594001CD423240404232604042328040483A73A
:1015A40081806394870085471CCC22853D2048C0F8
:1015B4002285252008C422850D2048C448400146C0
:1015C4009145CD3508440546A545E93D48440946BD
:1015D400C945C93D85471CCC65B7411126C24AC0DF
:1015E40006C622C42A89953F83A481809C4C99E332
:1015F40026854137938484048044DC40FD1763D6F8
:1016040007009C40BDC38440C5BF0317C40039EB29
:10161400C17785075CC41305840523220406E920E9
:1016240081372146232004002324040023220400BC
:1016340023280400232A0400232C040081451305D5
:10164400C405EFF00FAB232A0402232C0402232445
:10165400040423260404B24022852244924402490D
:10166400410182801304840651BF91454A855D354A
:1016740088C02A8449F9ED35B1472320F900E1BF38
:10168400797122D44AD04ECE52CC5AC85EC606D600
:1016940026D256CA2A892E8A130485048149054B09
:1016A400FD5B0444832A4400FD1A63D00A0200400F
:1016B4006DF8B250225492540259624AD24A424BB3
:1016C400B24B4E85F24945618280DE24637BFB0088
:1016D4008397E40063877701A6854A85029AB3E974
:1016E400A90093848406C9B782808280828059715C
:1016F400A2D42E848395E500A6D2CAD086D6B2841D
:10170400368963D205025E2493F707088DEB13072D
:101714000040B65026542320F90098C00659965428
:101724000145656182803000E92DE34E05FC3247B6
:10173400BD67F98F7977BA9793B71700C9BF814707
:1017440013070004F9B7DE25797122D406D626D210
:101754004AD04ECE898B2E8491CF930774041CC03B
:101764001CC885475CC8B250225492540259F249AD
:101774004561828074003000AA84953FA2492A8979
:101784002685CE85992219E98317C40013F707200B
:1017940079FBF19B93E727005EA4C1B7970700008C
:1017A4009387E7D69CD45E2408C008C893E707084B
:1017B4005EA4B247232A340199CB8315E40026851D
:1017C400AD2511C55E24F19B93E717005EA45E244A
:1017D40033E527014AA441BFD1CD83A7C5FF011139
:1017E40022CC06CE1384C5FF63D307003E942AC6D9
:1017F4004D25138701821C43324581EB23220400CB
:1018040000C36244F240056149AD637DF4001040B9
:10181400B306C4006396D7009443DC43B29614C065
:101824005CC0F9BF3E87DC4399C3E37DF4FE1443F7
:101834003306D700631F86001040B29614C33306E4
:10184400D700E390C7FC9043DC43B29614C35CC357
:101854004DBF6375C400B1471CC165B71040B306E2
:10186400C4006396D7009443DC43B29614C05CC0B2
:1018740040C341BF828041114AC01389C18183277B
:10188400090022C426C206C6AA842E8489E781459B
:1018940091292320A900A2852685A9217D59631AAF
:1018A40025017D54B24022852244924402494101DB
:1018B4008280130435007198E30685FEB305A440C5
:1018C40026850D21E31025FFE9BF011126CA938463
:1018D4003500F1984AC8A104B14706CE22CC4EC6C1
:1018E4002A89B3F4F40A63C4040063FDB400B14765
:1018F4002320F9000145F2406244D2444249B249EE
:101904000561828079239389018283A709003E843B
:1019140031E4A6854A858537FD572A846316F50A7E
:1019240003A40900A287C1EB8329040081454A85E9
:10193400A2994D2E6394A9081C408D044A859D8C60
:10194400F198B147A104B3F4F40AA6852D37FD57E5
:101954006306F5061C40A6971CC015A01440858E8E
:1019640063C806042D47637DD70204C0330794007F
:101974006396870223A0E9005C4014C35CC34A85D4
:10198400292B1305B4009307440061993307F540EC
:10199400E303F5F63A94898F1CC0B1BFD8C3E9BFFD
:1019A40058406395870023A0E900D1BFD8C3C1BFC5
:1019B400A2874040B1BF3E84DC43B5B7B147232082
:1019C400F9004A85D9293DB704C155BF1C46FD1706
:1019D4001CC663DA0700184E63C5E700A947639481
:1019E400F5006FF0CFF51C422E851387170018C23F
:1019F4008CA38280011122CC26CA4AC84EC652C486
:101A040006CE2A89AE893284B304D6007D5A631483
:101A14009400014501A80C204E864A85453F0504E3
:101A2400E31745FFF2406244D2444249B249224A94
:101A340005618280357122CD26CB4AC94EC706CFB7
:101A440052C556C35AC1DEDEE2DCAA892E8432892D
:101A5400B68401C51C4D91E3293E97170000938776
:101A6400A7986317F40403A449007C50858B99E775
:101A74005E2493F7072099E3284C85395E24A18BD3
:101A840099C31C48B9EFA2854E85EFF00FF731C911
:101A94007C50858BA1C37D55FA406A44DA444A4997
:101AA400BA492A4A9A4A0A4BF65B665C0D618280FF
:101AB40097170000938747916315F40003A48900E6
:101AC4006DB7971700009387278EE310F4FA03A4E9
:101AD400C90061BF5E2493F70720D5FF284C393134
:101AE4005DBF93070002A304F1029307000302D22F
:101AF4002305F10226C6930B5002971A0000938A1D
:101B0400AA90294BCA849C2099C363997709338C82
:101B14002441638D2401E2864A86A2854E85D93DFF
:101B2400FD576306F5189257E2973ED29C206380D6
:101B34000718FD571389140002C802CE3ECA02CC0E
:101B4400A309010482D48345090015465685352628
:101B5400C2479304190029E513F7070109C71307BE
:101B64000002A309E10413F7870009C71307B002B1
:101B7400A309E104834609001307A0026389E6026E
:101B8400F247CA848146254698209385140013079A
:101B940007FD6372E60685C63ECE15A08504A5B78B
:101BA40033055541B397A72826893EC869BF3247F4
:101BB40093064700184336C6634807023ACE982076
:101BC4009307E002631CF70498309307A002631A9A
:101BD400F702B2478904138747009C433AC67D57EE
:101BE400B3E7E70A3ECA1DA83307E04093E727009E
:101BF4003ACE3EC8E9B7B3876703AE848546BA9741
:101C040061B7850402CA8146814725469820938599
:101C14001400130707FD6372E606E9F68C200D46EF
:101C2400170500001305C57E892C11CD9707000008
:101C34009387077E1D8DC247130700043317A7003F
:101C4400D98F85043EC88C2019461705000013055A
:101C5400657C138914002304B102052435C9930754
:101C6400000095E74247B2471377071009CF910761
:101C74003EC69257D2973ED271B5B3876703AE84FE
:101C84008546BA9761B79D07E19BA107D5B7780050
:101C940097060000938646D622860C084E85970048
:101CA4000000E7000000FD572A8AE314F5FC7C508D
:101CB400858B81EB5E2493F7072081E7284CEFF0B6
:101CC400FFA25E2493F70704E39707DC1255E9B3F8
:101CD400780097060000938626D222860C084E854B
:101CE400F124D1B7411122C42A842E8523A2018272
:101CF40006C6EFF0EFA7FD576316F50083A74182F0
:101D040091C31CC0B240224441018280411122C4CB
:101D14002E848395E50006C63123634905007C487B
:101D2400AA977CC8B2402244410182805E249397E2
:101D3400C7485EA4C5BFDE25011122CC26CA4AC805
:101D44004EC606CE93F70710AA842E843289B6892C
:101D540091C78395E50089460146DD285E248315F5
:101D6400E400F2409397C7485EA46244CE864A8654
:101D7400B24942492685D24405611DA8411122C4B5
:101D84002E848395E50006C6E1207D575E24631901
:101D9400E5009397C7485EA4B24022444101828083
:101DA4009397C72868C85EA4C5BF8395E5003DA086
:101DB400411122C42A842E85B285368623A201824B
:101DC40006C6EFF0CF98FD576316F50083A741824E
:101DD40091C31CC0B240224441018280411122C4FB
:101DE4002A842E8523A2018206C69521FD576316F7
:101DF400F50083A7418291C31CC0B2402244410133
:101E04008280411122C42A842E85B28523A20182B4
:101E140006C6A121FD576316F50083A7418291C32D
:101E24001CC0B240224441018280411122C42A8450
:101E34002E8523A2018206C63D21FD576316F500B7
:101E440083A7418291C31CC0B240224441018280D5
:101E5400411122C42A842E85B285368623A20182AA
:101E640006C60129FD576316F50083A7418291C375
:101E74001CC0B24022444101828093F5F50F2A969A
:101E84006314C500014582801C21E38EB7FE05055D
:101E9400C5BF138501816FF05F85138501816FF0E4
:101EA400FF84797156CA9C49BA8A984522D44AD08B
:101EB4004ECE52CC06D626D25AC85EC6B3E7E70A3F
:101EC4001CC203C73504AA892E843289368A19C3F1
:101ED40085071CC21C4093F7070291C7832709009A
:101EE40089072320F9000440998891E8130B940191
:101EF400FD5B5C4403270900998F63CCF40483479A
:101F04003404B336F0001C4093F70702A5EB130624
:101F14003404D2854E85829AFD576303F5041C4030
:101F240011478144998B6399E7008327090044444E
:101F34009D8C8147B3E4F40A1C4418486354F700A9
:101F4400998FBE94014969047D5B6398240501451A
:101F540009A885465A86D2854E85829A631E7501E4
:101F64007D55B250225492540259F249624AD24ADF
:101F7400424BB24B456182808504A5BF3307D40030
:101F840013060003A301C7040347540493871600F0
:101F9400A2978906A381E7049DBF85462286D28540
:101FA4004E85829AE30E65FB050945B7797122D403
:101FB4004AD04ECE52CC06D626D256CA5AC803C8E8
:101FC4008501930780072A892E84B289368A63E2C1
:101FD4000703930720069386350463E10703630B25
:101FE400081C9307800517060000130626436307A1
:101FF400F814930424042301040515A89307D8F9BD
:1020040093F7F70F5546E366F6FE1706000013062E
:102014006643B3C7C7209C43B29782871C4393840B
:102024002504938647009C4314C32381F504854704
:1020340065A290411C43137506089385470029C186
:102044009C430CC3584063DE07129305D002A301DE
:10205400B40418C4635E0702B307F0401706000017
:102064001306C63B2948B68433F70703FD14329799
:10207400182398A03E87B3D70703E37707FF85A00B
:102084009C43137506040CC355DD939757605DBFDD
:102094006D9A10C0D1B790411C43137506089385FF
:1020A400470001C50CC39C4331A0137606040CC33E
:1020B4007DDA9E231307F006170600001306063682
:1020C400631FE80A2148A3010404584018C4E34CE0
:1020D40007F80C40ED990CC0D9F7B68449F7A1472D
:1020E400631EF8001C40858B91CB58401C4863C785
:1020F400E70093070003A38FF4FEFD14858E14C834
:102104005287CE867000A2854A85613BFD5A6319C9
:10211400550D7D55B250225492540259F249624AE7
:10212400D24A424B456182809C4193E707029CC19D
:1021340013088007170600001306862FA302040560
:102144000C401C4313F80508138547006305080079
:1021540008C39C4339A013F8050408C3E30B08FE25
:102164009E2313F7150001C793E505020CC099C31C
:10217400414891BF18401377F7FD18C0D5BF2948CF
:1021840099B7170600001306662929483DBF9041F8
:102194001C43CC49137806081385470063060800DE
:1021A40008C39C438CC339A008C3137606049C431C
:1021B40075DA8EA323280400B68499B71C43D04152
:1021C40081459386470014C3844326857D3101C528
:1021D400B30795405CC05C401CC8A30104040DB760
:1021E40014482686CE854A85029AE30455F31C409A
:1021F400898B85E74844B2473365F50A21BF854694
:102204005686CE854A85029AE30565F185045C44C9
:102214003247998FE3C5F4FEF1BF8144930A9401D8
:102224007D5BF5B7411122C42A842E85B28536869A
:1022340023A2018206C6A120FD576316F50083A7D9
:10224400418291C31CC0B240224441018280930761
:10225400800523A2F1827D5582809307800523A205
:10226400F1827D5582809307800523A2F182014586
:1022740082809307800523A2F1827D558280930793
:10228400800523A2F1827D5582800000537461721F
:102294007420404368697049443D253032580A002F
:1022A4000A312E54656D70657261747572652073A0
:1022B400616D706C696E672E2E2E000025642025DA
:1022C40064202564200A00000A322E53696E676C6C
:1022D40065206368616E6E656C2073616D706C69F6
:1022E4006E672E2E2E000000526F75676843616C76
:1022F40069625F56616C7565203D2564200A0000A3
:102304002564200A000000000A332E53696E676CAE
:1023140065206368616E6E656C20444D4120736175
:102324006D706C696E672E2E2E0000000A342E44E8
:10233400696666206368616E6E656C2073616D709A
:102344006C696E672E2E2E000A352E546F756368E5
:102354004B65792073616D706C696E672E2E2E004B
:102364000A362E53696E676C65206368616E6E650C
:102374006C2073616D706C696E6720696E20696E84
:1023840074657272757074206D6F64652E2E2E00E4
:10239400CCEAFFFFE4EAFFFF08EBFFFF12EBFFFFCD
:1023A40028EBFFFF00000000000000000000000018
:1023B4000000000000000000000000000000000019
:1023C4000000000000000000000000000000000009
:1023D40000000000000000000000000000000000F9
:1023E40000000000000000000000000000000000E9
:1023F40000000000000000000000000000000000D9
:1024040000000000232D302B20000000686C4C00DD
:102414006566674546470000303132333435363718
:1024240038394142434445460000000030313233DC
:1024340034353637383961626364656600000000FC
:10244400DCFBFFFFF2FBFFFFB2FBFFFFB2FBFFFF72
:10245400B2FBFFFFB2FBFFFFF2FBFFFFB2FBFFFF8C
:10246400B2FBFFFFB2FBFFFFB2FBFFFF4EFDFFFF1E
:1024740056FCFFFFE8FCFFFFB2FBFFFFB2FBFFFFD0
:102484007CFDFFFFB2FBFFFF56FCFFFFB2FBFFFF2B
:08249400B2FBFFFFF0FCFFFFAB
:10249C0000000000E8230000C8230000A82300006F
:1024AC000000000000000000000000000000000020
:1024BC000000000000000000000000000000000010
:1024CC000000000000000000000000000000000000
:1024DC0000000000000000000000000000000000F0
:1024EC0000000000000000000000000000000000E0
:0C24FC0088090020B0080020B008002073
:00000001FF
