:040000006F20801FCE
:100004000000000000000000A0000020A00B002061
:10001400A9BDF9F3FC01002000000000000000006D
:10002400FC010020A00000200000000000000000EF
:10003400A000002000000000A0000020000000003C
:10004400A0000020A0000020A0000020A0000020AC
:10005400A0000020200C0020A000002000000000D0
:10006400A0000020A0000020A0000020A00000208C
:10007400CC0C0020A0000020A0000020A000002044
:10008400A0000020A0000020A0000020A00000206C
:10009400A0000020A0000020A0000020A00000205C
:1000A40001A0B7170040984B41111367070198CB83
:1000B400982B1377E70F98AB1307800873370780E3
:1000C400137787083AC60F100000130770052380C2
:1000D400E704130780FA2380E7040F100000B847F1
:1000E400B70600069506558FB8C703C7B70413773C
:1000F400F70DA385E704B82713672701B8A71307EB
:1001040050149AA7372700408346578093F6F60E7B
:10011400A302D7808946A303D78003C7E7041377D4
:10012400C70F136717002387E70403C7F702136792
:100134002700A387E702982B1367170098AB238047
:100144000704B247F3A707800F1000004101828023
:10015400EFF03FF513050020970500009385450A4D
:10016400172600001306460963FAC500832205001A
:1001740023A0550011059105E3EAC5FE17D501E05A
:10018400130545659725000093854507138601836C
:1001940063FAC5008322050023A0550011059105CB
:1001A400E3EAC5FE1385018397550000938505C7CF
:1001B4006377B500232005001105E36DB5FE9302B6
:1001C4005002739002BC8D427390428085427390BA
:1001D40012BC93028008739002309702000093824D
:1001E40062E293E2320073905230974200E09382CD
:0C01F40062B173901234730020300000E0
:100200009305000273A04580824573901534924097
:100210002242B2424243D2436244F24402559255D2
:100220002256B2564257D2576258F258064996495A
:10023000264AB64A464BD64B664CF64C065D965D52
:10024000265EB65E465FD65F0961730020302303E9
:10025000048015472303E48001002302A4808280E8
:1002600083076480E3CE07FE230304808280830734
:100270006480E3CE07FE0345448082808307648068
:10028000E3CE07FE2302A4808280411126C44AC225
:100290004EC006C61377F50BAD47AA892E89954443
:1002A0006306F70019456537653F8D444E85453730
:1002B000FD59FD1463983401B240A24412498249A9
:1002C00041018280135509011375F50F453F22093D
:1002D000CDB7011126CC06CEB7040800513715451D
:1002E000BD37713769372AC6A53F32459377150068
:1002F00089EB136515001375F50FF240E2440561B3
:100300008280FD14E9FC0145CDBF397126DC4ADA53
:100310004ED852D656D45AD25ED006DE62CE66CCC5
:10032000B7E700E07D5783AA070022C603AA47006B
:1003300023A0E71823A2E718B7170040130770059A
:100340002380E704130780FA2380E70483C7470468
:10035000930B75FFB684E20793FBFB0F8546AA89D2
:100360002E8B328937240040E187015763FA7601EA
:100370006308D5008946130700026313D5000157AF
:10038000D98F93F7F70FB71C00402382FC04114765
:100390002303E4801305F00F5D3D094CD135636DF7
:1003A0007C11B7050700DA9537870700795563F2A6
:1003B000E504B3879500636EF702370B0800A94781
:1003C00033EB65016399F90689E48144513D268543
:1003D0000DA0DA850945553D05090345F9FFFD14D2
:1003E000050B693D81C49377FB0FFDF7DD3569FD92
:1003F0007D55B7170040130770052380E7041307E6
:1004000080FA2380E70403C74704418B2382E70473
:10041000F250B7E700E023A0571123A24711E2549E
:1004200032445259C259325AA25A125B825B724C00
:10043000E24C21618280A5476395F906856913091D
:10044000F00FB3069900B3742B01B6941349F9FF6A
:10045000B3749900856B33796901416B9387F9FF18
:10046000B3F7270199E363FC340193D94900C147ED
:10047000E3E637FF99BF0569C1697D19D9B713054F
:10048000800D6388690113050002638479011305F7
:100490001008CA85DD3B353D21DD4E99B3843441DA
:1004A000D9B7DA852D45D533CA94E30099F2050909
:1004B0007D3BA30FA9FED5BF9387F9FF93F7F70FF5
:1004C0006361FC0C83C71C0413073008631FF70427
:1004D00037070800636BEB04B3079B00B7061000F7
:1004E00063F5D704334BEB0089476393F9068980A2
:1004F000D549E38C04ECDA850945413B1109032712
:10050000C9FF91472320E48003076480E34E07FE80
:1005100023033481FD17EDFBFD14110B81C4937788
:10052000FB0FE9FF7D3371F5E1B5B717004003C755
:100530005704B70708001377070219E3B7870700C6
:100540007955E378FBEA33079B00E3FFE7F855B5FD
:100550008547E382F9F2DA852D45053B9389F4FF5F
:10056000E38504E6293393F7390091EB8326048071
:100570000327090093074900E39AE6E43E89CE8405
:10058000F1BFB5476396F9001305900BC93135BD2E
:10059000B1471305B00AE38BF9FE99476391F9045B
:1005A000B7050800B365BB002D45C53181448D4BAF
:1005B000A149753963967401832704802320F900CB
:1005C0008504E39834FF8327048013172B016355B8
:1005D00007002312F900D5BB2322F900FDB39D4784
:1005E0006399F90281451305B0044531BD442320C8
:1005F000090023220900FD599D3993F77400CA9719
:1006000003C70700FD14398D2380A700E39634FF4C
:100610006DBBA1476392F9046D398144630D0B00F2
:100620008D479304C0036308FB0093040005630433
:100630008B01930440041375C507E30895D8194549
:10064000393139390545213126850D3909453D3185
:100650004931E31C05D669BB91476399F90013053D
:100660006006F536F53E130590090DB7E38F09D402
:10067000F154A9BBBD66014717460000130686F377
:10068000938606A685458347060093F7F70F91C327
:1006900082800507E3F9E6FE97470000238CB7F058
:1006A000DDB77D166206618693178601E18763D404
:1006B000070001458280931726003307F500AE97A7
:1006C00018439C4363E7E7007D16E37FF7FC7D5505
:1006D000828005458280FD15E205E185139785013D
:1006E000618793F7F50F63480700FD151397250001
:1006F0002A97584365D71385170062056185828064
:100700003308B5021C4283A80600B335B502C29770
:1007100033B50701AE98469585486367B500639485
:10072000A50063E3070181480C43C6950CC388C24A
:100730001CC2828081471397870161876343B7009A
:100740008280139727002A97232007008507E5B7A3
:100750008147014793968701E18663C5B60013354B
:100760001700828093962700AA9694428507558F9A
:10077000D5B793D755408A07AA979C4305453315AB
:10078000B5007D8D8280172300E0E70283AE2A84C6
:10079000993705C5931725003E940327C4FF814769
:1007A00011EB7D1516053E9542054185172300E0A6
:1007B000670063AE05838507E5B70145C5BF81477F
:1007C0001397870161876343C700828013972700CF
:1007D000B386E50094422A97850714C3D5B77D16E2
:1007E00062066186014793178601E18763D507009A
:1007F00013351700828093172600B306F500AE97D5
:1008000094429C437D16B58F5D8FF1BF8A05AA95F2
:1008100001476363B500828083A6C5FFF11593D7B6
:100820001600D98F9CC11397F601E5B72A830148BA
:10083000014701456343D7008280B387050183A840
:100840000700B30706019C43C697AA976384F80084
:1008500033B517010507B3080301620723A0F800A9
:1008600061871108C1BF2A8301478147014563C3DE
:10087000D70082803388E50083280800330EE60025
:10088000032E0E003388A8403308C8416384080152
:1008900033B508018507B308E300E20723A0080188
:1008A000E1871107E9B7172300E0E702839C0111F4
:1008B000B286B2842E86AA850A8575372A84A685D3
:1008C0000A85793533348000060413351500018D0F
:1008D0000561172300E06700039C172300E0E7028F
:1008E000C3964111AA89AE8A328BB68402C202C471
:1008F00002C60144131C8401135C8C4163499C02B1
:10090000939B1400FD1B0549138CF4FFF15C330429
:10091000890162046184634D740592478E04CE940C
:1009200023AEF4FE4101172300E0670083951319FD
:100930002400B30B2B01014A93172A00D69783A5F5
:100940000B0088437800340050005D3B050A931784
:100950008A01E187F11BE351FCFE92474E990504A1
:100960002320F900A2473EC2B24702C63EC459B78F
:10097000131A8901135A8A41131D240093178A01FF
:10098000E18763CF970092470A044E941CC0A247A8
:1009900005091379F90F3EC2B24702C63EC485BFAE
:1009A000B3079A0313152A005695084178003400BE
:1009B0005000050AEA97DA978C439933C1B7411181
:1009C000B7170040985F3AC6945F3247E39CE6FE53
:1009D000324541018280B7170040984B411113679F
:1009E000070198CB982B1377E70F98AB1307800874
:1009F00073370780137787083AC60F100000130774
:100A000070052380E704130780FA2380E7040F10A2
:100A100000001307000C6315E5029A271367070C03
:100A20009AA7B7170040982B1367170098AB23803D
:100A30000704B247F3A707800F100000410182802E
:100A4000B82793760520ADCA118B29E303C7E704C5
:100A500003C6E7041377F70F136636002387C7042E
:100A6000B02713664600B0A792278E2733460608A4
:100A700093E5050C8EA7A5470100FD1793F7F70F27
:100A8000E5FFB717004092A72387E7049377051087
:100A9000DDC3371700403C2793E707013CA7937756
:100AA000F50199EFB727004003C757801367070187
:100AB000A382E7801D470DA013672700B8A7F9B7E9
:100AC00025476366F704B727004003C757801377AD
:100AD000F70EA382E7800547A383E7803345050827
:100AE000B71700401367050C9AA78AA7B5CE03C7AE
:100AF000570483C65704418B858A558F1DF3B82B45
:100B0000418B05D3B8271377D70FB8A719BF9377B1
:100B1000050199EBB727004003C757801377F70EFD
:100B2000A382E78009474DBFB727004003C757801E
:100B30001377F70EB5BF9377850181EFB727004094
:100B400003C757801377F70EA382E78013071005BA
:100B500061B7B727004003C757801377F70EA3820A
:100B6000E780130770058DBFB8271377B70F71BFE4
:100B700037E700E01C435443A183E206D58F1CC134
:100B8000FD572320F7182322F7180F10000082804A
:100B900013178500B7E700E023A0E710618123A2C7
:100BA000A710828041118146014681451145EFF031
:100BB000CFF513078008F337078093F787083EC403
:100BC0000F100000B7170040130670052380C704FC
:100BD000930680FA2380D7040F100000FD55CEB78E
:100BE00023800704A245F3A505800F10000073378A
:100BF0000780137787083AC60F1000002380C704C8
:100C00002380D7040F10000003C767041367170081
:100C10002383E70423800704B247F3A707800F105C
:100C2000000001A0197106C212C416C61AC81ECA55
:100C300022CC26CE2AD02ED232D436D63AD83EDA9C
:100C400042DC46DECAC0CEC2D2C4D6C6DAC8DECACC
:100C5000E2CCE6CEEAD0EED2F2D4F6D6FAD8FEDA7C
:100C6000938581838841E700050092402242B24289
:100C70004243D2436244F244025592552256B25640
:100C80004257D2576258F25806499649264AB64A00
:100C9000464BD64B664CF64C065D965D265EB65EC0
:100CA000465FD65F0961730020304111B7170040DD
:100CB000985F3AC6945F3247E39CE6FE32454101B5
:100CC0008280B7E700E03707001023A0E72082808A
:100CD000B7170040130700032388E702854723A0C6
:100CE000F18473002030411106C6152BFDBF23ACE3
:100CF00005FE1C4199E30CC182803E8783A787FFD4
:100D0000EDFF232CB7FE8280411126C2B7E400E03C
:100D10004AC003A90400B707200006C622C43379DD
:100D2000F90023A0F4180F10000009E523A02411F6
:100D3000014535A09565938505D0C98D2A84210587
:100D4000B3C5050833450508EF00105965D1FD57B7
:100D50002320050042A17CA123A024112105B2403B
:100D6000224492440249410182804111B7E700E0E8
:100D70004AC003A9070026C23707200006C622C4BE
:100D8000AA843379E90023A0E7180F10000083A795
:100D900081850144014685E301C8A28513858185CB
:100DA000976001E0E78080F9A1652685976001E002
:100DB000E780802B0DA003C7E7FF6319970205CCDE
:100DC000A28513858185976001E0E78020F7A16502
:100DD0002685EF10800BB24022852244B7E700E061
:100DE00023A02711924402494101828011E03E86EE
:100DF00083A787FF4DB73E84E5BF37E700E01C437C
:100E0000B70620002320D718F58F0F10000019C156
:100E100091C111E637E700E02320F71082802E967B
:100E20000F70B650D5BF37E700E01C43B70620006F
:100E30002320D718F58F0F10000001C53307C50018
:100E400011E637E700E02320F71082800505A30FA5
:100E5000B5FEE31DE5FEF5B737E700E01C43B70636
:100E600020002320D718F58F0F10000001C599C16D
:100E7000014711EA37E700E02320F710054582809B
:100E80000507E309E6FE3308E500B386E5000348FD
:100E900008009422E306D8FE37E700E02320F7108D
:100EA0000145828037E700E01C43B706200023207D
:100EB000D718F58F0F1000001307F6FFBA952A9682
:100EC0006317C50037E700E02320F71082809821E0
:100ED000FD150505A30FE5FEE5B737E700E01C4368
:100EE000B70620002320D718F58F0F10000001C58A
:100EF0003307C50019E637E700E02320F710014566
:100F0000828014210505E398B6FEE31CE5FE37E771
:100F100000E02320F71005458280797126D2938462
:100F2000018722D4804006D64AD04ECE52CC56CA33
:100F30005AC85EC662C44DC437C9C901814B138B00
:100F400081861309F937174A0000130A2AB5974A10
:100F50000000938A2AB297490000938929B93E205C
:100F600099EF5C44639A0B009CC0032CC40022855B
:100F7000EF00F042628489A823A6FB00FDB7832717
:100F80000B0082971C443307F5406376F50003A7F6
:100F900089001D8F2A976368E9062E200820EF003C
:100FA000D06E5C405844A9CB0C4417460000032681
:100FB00066B4AE97BE8663E4B70063E4C700B38649
:100FC000C74014C4A28B3A8459F81747000003277E
:100FD00067AB894763E6E7009747000023A407AAA9
:100FE000B250225492540259F249624AD24A424BB8
:100FF000B24B224C4561828063940B0098C0B5B718
:1010000023A6EB009DB703274A021DCB63EDA70281
:101010003385A7401C2099EF03479A0183A68900D6
:101020006117B307A7003E8563E4E70063E4D700D8
:101030003385D74083A70A016374F50023A8AA006B
:10104000A28B404451B703A78900BA97D1B70111C9
:1010500026CA06CE97440000938444A922CC4AC8ED
:101060004EC652C49C288844D9CFB7E700E003A9F4
:1010700007003707200023A0E7183379E9000F1095
:10108000000003C7018619CB23A02711F240624458
:10109000D2444249B249224A056182801747000082
:1010A000130707B18357C70AA1CB9C440324870ABF
:1010B0006304F404974900009389C99B03A70901BD
:1010C0002285630BF702138A818683270A008297A1
:1010D0006368A40C83270A00098C829783A70901FF
:1010E00098443354F40AB307A4003E8563E48700B0
:1010F00063E4E7003385E740B7E700E023A027116A
:101100009C44639BA702174400001304A49618484C
:1011100083A781866319A70882979444374736FED0
:10112000130707C83697B307A7003E8563E4E700B7
:1011300063E4D7003385D74017440000130444CA42
:101140005C5C89CB83A6818C9C463707CDFF7D17DD
:10115000F98F9CC611E1884485475CD09747000011
:1011600083A70796829715E15C5C99CF5C5089CF85
:10117000979001E0E78040C5979001E0E7804098B4
:101180009747000023A007C8493B5C5CE38007F059
:1011900003A7818C1C47B7063300D58F1CC7FDB54C
:1011A0009C443E9405BF829714489844B387A60098
:1011B0003E8563E4D700E3E1E7F83385E740ADBF60
:1011C00023AEA18401C585472380F1868280AA874A
:1011D00099E5174700000347679209C7D5B711473C
:1011E0006369B700174700001307078FB3C5E520F1
:1011F0009CC1828083A7C18581CF411106C6829799
:1012000083C7018699E323AE0184B2404101828005
:1012100083C7018681E723AE0184828082804111E9
:1012200022C426C206C64AC097440000938444BB29
:1012300083C73402174400001304048AB9C3174457
:1012400000001304248313894187032709001C200D
:1012500014300146B3A5E7208E21A5C911C21CA0F8
:101260000820636BD506974700002385078083A776
:101270008186C5E7B24022449244024941018280FE
:1012800082971C40F5FF9747000083C7278799EF97
:10129000DC48858B81CFD84C9947631DF700974771
:1012A000000023A907B495215C4482971C44C1DB4C
:1012B000829771B7D84C9D47E31AF7FE9747000015
:1012C00023AA07B299211C48CDB7850793F7F70FDA
:1012D0000546E3E1D7F861B73327E5200E23231055
:1012E00007002391018683A7C186B347F5209C435D
:1012F00082971C208326090003D721863377E54097
:10130000B3A6D7209222518F9AA299C385071CA019
:1013100018201C30E360F7F6B9B79737000083A7B1
:10132000677D1CC8DD3E83C73402A9F783C714025A
:1013300099CBDC4C89EB97470000A38307AC9790CF
:1013400001E0E780C0879737000083A767779DD3C8
:101350001C488DD3183083260900814763C7E702F4
:10136000D84C9147E3E8E7F09747000083C7C7826E
:10137000918BE39107F083C70186E39D07EE22443A
:10138000B240924402494101D9B133A6D72012227A
:10139000E31206EE8507D9B7B7C700401387C72009
:1013A00014431396264910C3010001009387872632
:1013B000173500000325C56D9C436A0514C393C708
:1013C000F7FF99835D8D8280173600001306067A39
:1013D000973600009386867BDC36383E4C4ABA97B7
:1013E000FD8B33D7F5001CB2DCB6058B0DE7943AC4
:1013F00013050002B3F7D702814633D8E5486309E5
:1014000008006394D70018B28280850693F6F60F21
:101410000507E314A7FE8280011126CA83A78186EF
:1014200006CE22CC4AC84EC652C4829797340000DA
:101430009384C4759844AA870145630DF70463E358
:10144000E706998F173900001309497293F9F701DC
:1014500013D457008347A901636AF402173A0000C6
:10146000130ACA6895370347A9018C4403268A00EA
:1014700093175700AE97198CBE8663E4B70063E4F8
:10148000C700B386C74094C4E37EE4FC1315540040
:1014900033653501F2406244D2444249B249224A9E
:1014A000056182809736000083A6C6643387E640D4
:1014B000BA9749BFEFF01FD473000000000000008E
:1014C000938201860383020023800200630F0300DE
:1014D000F32510342EC0970500009385E5FD739029
:1014E0001534EF00405B7300203086DCEF00A05A1B
:1014F000E6508280000041114AC01389818A032787
:10150000090026C206C61C5F22C49384418A93D771
:101510006748B5CF930700061CDF1744000013048B
:10152000248C184C930700086317F7009C409C43D9
:1015300093F707041CCC1C4093F7070489CB83A7BF
:101540008186829748D81C4093F7F7FB1CC01C404B
:1015500093F7070289CF1C4003A7818BB7060800C9
:1015600093F7F7FD1CC05C5414C786077CD71C4852
:1015700093F7070489EF85475CC83707020083A704
:10158000818B98C71307000C18C81854F8D3832709
:101590000900985F1357474811CF985F13670701F9
:1015A00098DF83A7818B23A2070685471747000092
:1015B0002320F7849C40D8431357174819C7D843B2
:1015C000759BD8C3D843799BD8C3B2402244924478
:1015D000024941018280053773002030974700009F
:1015E000938707803707040088DB698F01CF03A743
:1015F000818BFD5634D7973600009386A647D84E88
:101600000507D8CE1377850019CF984783A6818A1E
:101610001367170098C71307000898CBD856719B1B
:1016200013671700D8D61377150001CFD84383A6C8
:10163000818A13671700D8C3D856719B13671700A8
:10164000D8D61377650019CF1377450059C398434F
:101650001367170098C383A6818AD856719B1367B6
:101660001700D8D64167698F0DC39736000083C62F
:10167000665BC18A1737000013078753A5C28346EC
:10168000470793E60602230AD70637070200698F49
:1016900001CF984B1377070819C3054798CB83A749
:1016A000818B3707020098C7B70708007D8D0DC1F1
:1016B0001737000003471757058B973700009387AC
:1016C000274F1DCB03C7570713672700A38AE706D9
:1016D0008280D84713671700D8C7B5BF834647072E
:1016E0000946BD8A6388C600834647070D46BD8A02
:1016F000E39DC6F8914641BF03C75707118B69DBCD
:1017000003C7570713678700D1B783A6818B1737A5
:1017100000001307E76C1C43858B91E75C43858BC6
:1017200099E3FC52EDFB9737000023A5076C8280FC
:101730009386818A2A8788421C5D93D75748D1E7D0
:1017400081C51C59BD839CA115C69C42945BC606ED
:1017500093D7660163D6060093E707C0B3C70708AF
:101760008316060093975760B9C6BE968947B3C6DD
:10177000F60216A283A7818BBC4B083393D7574838
:101780008DCF29C59736000083A6066793F6060419
:101790009307950009459DCABA979C2305471945AB
:1017A00093F6F7066394E60201459397476063DF7B
:1017B0000700394582801EA275BF2A9748331375EA
:1017C000F5077D153335A00082800545828083A70B
:1017D000018B99CB944BD04B9842518F98C2944334
:1017E0009C479842D98F9CC21386818B054818422A
:1017F00083A6818A973700009387875E6312050569
:1018000003A806001368080823A0060183C6270260
:10181000B3C5D52054479385A50C139816492326A4
:1018200007010F100000184237060200860510C796
:101830001306000890CB6CD354C72386A18A8280FC
:1018400088421375F5F788C283C62702B3E5D52011
:1018500054479385E50E1395164948C70F100000AD
:10186000184237060200860510C71306000890CB01
:101870006CD354C70945D1B7411122C4AA8706C603
:1018800026C22E851384818BB285DDE71C40F85378
:101890007DFF3707020098C79737000023A607543B
:1018A000973400009384841FDC5085C7B7E700E0BD
:1018B0003707200023A0E728B7F700E0938707D079
:1018C000984B6D9B98CB984B1367870398CB73000D
:1018D0005010F53D83A7818A98431317772998C341
:1018E000D857719BD8D79737000023A50750973753
:1018F000000023A9074E1C40094798C3DC5099CB30
:1019000037F700E0832707D193E787002328F7D034
:10191000730050101440173700001307674C1C4722
:10192000858B91E75C47858B99E3FC52EDFBB240D8
:1019300022449244410182800D47639EE704973719
:10194000000023A3074A9737000023A1074A9734D2
:1019500000009384A414DC5085C7B7E700E0370784
:10196000200023A0E728B7F700E0938707D0984B23
:101970006D9B98CB984B1367870398CB73005010DF
:10198000B93583A7818A98431317772998C3D85705
:10199000719BD8D7A5B70547E39EE7F697360000B9
:1019A0009386C60FDC5285C7B7E700E037072000F3
:1019B00023A0E728B7F700E0938707D0984B6D9BEB
:1019C00098CB984B1367870398CB730050101C403B
:1019D000D04713171649D8C70F1000001C4037070F
:1019E000020098C7130700089735000023A2E540BE
:1019F00003A7818A18431357774819C71307E018BC
:101A0000F8D3D0C7DC52E5BD1307E01AD5BF83A7D2
:101A1000018B89CFD44303A887009842336707011D
:101A200098C2D447DC4B9842D98F9CC2054783A704
:101A3000818A9505631EE50298431367070898C3DA
:101A4000984F137707C01367A71398CF1307800722
:101A5000B8BB939735009387C70317370000130768
:101A600027381CD72386A18A19C2060610D7828080
:101A7000984309451377F7F798C3984F137707C032
:101A80001367271398CF1307F007B8BB9397450048
:101A90009387C703D9B783A7818B8847D847798DA8
:101AA00011C588C783A7418B91C3828782808967CC
:101AB00003A7818B938707F47CD383A6818C83A7AC
:101AC000060993D7A74991C783A7060993D79749D2
:101AD00099E37C53EDF782804111B7E700E022C41F
:101AE00080433707200006C6798C23A0E7180F1023
:101AF000000011C199E5B7E700E023A08710014578
:101B000049A80D0533450508130740037199B347EC
:101B100005086362A70203A5818D83A6018D639FDB
:101B2000A60017370000032767FA71D7C207DD8DBB
:101B300005450297C9B703A5418DC5B77A2131EF95
:101B40005A21636CF704B306F740214817360000AA
:101B5000130646F26375D802832805000358660011
:101B6000938687001D8FAA966117DAA223A016011B
:101B70002393060014C15EA1130788FF7AA27A227C
:101B80006EA12105B307F7407EA2B7E700E023A0CE
:101B90008710B240224441018280084149B7B7E72B
:101BA00000E08C433707200023A0E718F98D0F10C1
:101BB000000001E523A0B710828003A3818D83A8D4
:101BC000018D9A87814663F8170903A807006367A8
:101BD000F5086365A80813878700636EE506F2239E
:101BE000216705076317E600138661891822050738
:101BF00018A2173500001305E5E7D2237A212393B5
:101C000007003297334707087AA16383670203A36B
:101C1000418D630FF30003D36600631B0300DE22D4
:101C200023A0060121073E962106D2A27AA1B687FB
:101C300098436302170383A6418D630ED700762372
:101C400099EAD62352231843A106B296D6A398C385
:101C50007E21A1077EA1B7E700E0A9BFBE86C287AB
:101C60009DB7AA8703A7818D03A6018DB305B54053
:101C70006314E6003E8529A8930687001843E3E92C
:101C8000D7FEE3F7E7FE2E85E3E4D5FEE3F2E5FEBB
:101C90008280411122C406C626C24AC02E848DCD40
:101CA00013F91500814741476302090413174500E2
:101CB0003E97B1463307D70283A48187B317F02834
:101CC00033C90708BA949C40C840829723A00400F7
:101CD00023A2040033448900B24022852244924466
:101CE000024941018280B356F448E9F28507E39C3A
:101CF000E7FECDB7011126CA06CE22CC4AC84EC691
:101D0000AE84A1C593F7150001444147B1CB9317A9
:101D10004500A2973147B387E7029389818703A9DA
:101D200009003E998327090081C70325490082974E
:101D300031473307E40283A70900BA979C478DC750
:101D400033148028B3470408BD8CF24062444249F2
:101D5000B2492685D24405618280B3D68448C5FA4B
:101D60000504E31CE4FECDB723200900232209006B
:101D7000C1BFAA8703A5018711E182803A216315BB
:101D8000B7001821E30BF7FE4845FDB77971B7E7B7
:101D900000E022D4804352CC06D626D24AD04ECE82
:101DA00056CA5AC85EC662C43A8A37072000798C80
:101DB00023A0E7180F10000005E123A087100945B4
:101DC000B250225492540259F249624AD24A424BCA
:101DD000B24B224C4561828083A78186B6892A89CD
:101DE000AE8A328B938B8187829703A70B00814445
:101DF000B146C147338CD4023306870110422DEE21
:101E0000C165938505F04145C13919ED973700004B
:101E100083A7C7CB81C7814511458297B7E700E00B
:101E200023A087102D4569BF138701871C43A1E3B9
:101E300008C323000500B31790283EA183A70B0019
:101E4000232605002324650123224501E29723A0D0
:101E5000270123A2570123A447016384090023809B
:101E60009900B7E700E023A08710014591BF3E87A6
:101E7000DC47F5FF48C775BF8504E39DF4F6B7E777
:101E800000E023A08710214525BFB7E700E0984375
:101E9000B706200023A0D718758F0F1000009736C3
:101EA000000083C636BD6371D50283A64187332502
:101EB000D5201621D58D0EA19736000023A406BC8F
:101EC00023A0E7100145828023A0E7100D45828002
:101ED0000111B7E700E022CC80433707200006CE8F
:101EE00026CA4AC8798C23A0E7180F100000BD4706
:101EF00063E7A70431473307E50283A78187BA97D1
:101F00009C4395CF3315A0282E89B345050801457C
:101F10002EC68535AA8409C9B2450145975001E00E
:101F2000E780C0FB23A42401B7E700E023A08710CB
:101F30000145F2406244D244424905618280B7E7DC
:101F400000E023A087100945EDB79737000083C74D
:101F5000B7C1AA86850703A58188014712216307B7
:101F6000D60005071905E36BF7FE014582802A8735
:101F700003A5C18811E182801C45B227636BC700AD
:101F800003584500B306C8006355D70081466394E3
:101F900006010841C5B703D3A7009388070163165C
:101FA000E30091C192A13E8582808506C687B3C6B3
:101FB0000608F1BF9736000083C606BB83A7C18918
:101FC00001476394E60001458280AE231386C70370
:101FD0006394A5003E85828005071377F70FB287CB
:101FE000CDB783A7818A98433706CEFF7D16137736
:101FF000F7CF1367071098C303A7818C14473708DE
:1020000003001375F51FF18E14C783A6818B23A8D7
:10201000060523A40700904B93F5F50713088815D0
:102020001366F60390CB90431366060890C3F04FF7
:10203000137606E0498EF0CF23AC070423A00706F1
:102040005057759A50D79043137606F84D8E90C32B
:102050001306401FF0D217360000232D06D817367E
:102060000000232106D8054690C29043B7053300EF
:102070001376F6CF90C390431376F6CF13660620FF
:1020800090C310474D8E10C723A80605D8531317C9
:10209000F728D8D32547F05201C6B04FE37DC7FEDD
:1020A000D8531317F748D8D3A85313354500828067
:1020B0009386818B9C42B84B1377F78FB8CB9843AC
:1020C0001367870098C39C4393D7374889C701009B
:1020D00001000100010003A7818A1C4393F7F7CF99
:1020E00093E707101CC303A6818C1C463707CEFF5D
:1020F0007D17F98F1CC69C4237070300B8CB83A716
:10210000018B99CBD44390479842518F98C2944BFE
:10211000DC4B9842D98F9CC29737000023A007CE92
:10212000828083A7818B9C438D8BE9C74111B7E7E0
:1021300000E04AC003A9070026C23707200006C6F0
:1021400022C4AA843379E90023A0E7180F10000005
:10215000173400001304C4C8584C8D47631AF700A5
:102160009737000083A787A101468145454582979F
:1021700019476391E4048347140289CB834704021F
:102180006396970097370000A38C07C6584CA14769
:102190006315F700930780101EB023800186093F66
:1021A000B2402244B7E700E023A02711924402493D
:1021B000410182809D47639BF40083471402F9D755
:1021C000034704028D47E313F7FC6DBF544C63894A
:1021D000E600584C6306F700584CA147E31FF7FA96
:1021E00083471402DDFB5C4C2300F4028547A30007
:0821F000F40265B782800000D3
:1021F80097110020938101BB17E10120130101E031
:102208001305400097E5FF1F938545DF17E6FF1F7D
:10221800130686FE63FAC5008322050023A0550035
:1022280011059105E3EAC5FE17E5FF1F130505F241
:102238000285397101436EC619A0397141536AC8C4
:1022480066CA62CC5ECE19A0397101535AD056D2F3
:1022580052D44ED64AD826DA22DC06DE3301614053
:10226800828241114AC026C222C406C68282B24D69
:102278004101024D924C224CB24B4101024B924A11
:10228800224AB2494101024992442244B2404101E2
:1022980082802A8309CA83830500230073007D1680
:1022A800050385056DFA82802A8311C62300B300D1
:1022B8007D16050365FE828010219421050585059C
:1022C8006313D60075FA3305D6408280B7170040ED
:1022D80003C777051377E70FA38BE704130700F805
:1022E800A38DE7043D47238CE70413075003A38C11
:1022F800E70403C7A7051377D70F238DE704828068
:10230800371700408347E70412054111BD8BC98F79
:1023180093F7F70F93068008F3B6068093F68608BE
:1023280036C60F100000930670052300D7049306E5
:1023380080FA2300D7040F1000002307F7042300B6
:102348000704B247F3A707800F10000041018280FD
:10235800B717004003C7E7020D8941111377C70F6C
:10236800498F93068008F3B6068093F6860836C62A
:102378000F100000930670052380D704930680FA97
:102388002380D7040F1000002387E7022380070467
:10239800B247F3A707800F10000041018280411166
:1023A8002A830148930E407E130F0019930F4006AD
:1023B800B348030863EF1E01130300193373650262
:1023C8008542FD4363F6B2088D4F214F930E4006B8
:1023D800A1A07D13336EE3039308E016630E0E008D
:1023E800336EF3039308D01663080E009378330016
:1023F80093B818009388D816C29833C808084DBFF8
:1024080093F81500138EF5FF637CBF02F908C29894
:1024180033C80808B3450E08E394F5FF8545630BF8
:102428000300B378D50381456386080093753500AA
:1024380093B51500F105C29533C805088945E9BF6C
:10244800B3881341C29833C80808B3450E089DBF26
:102458007D16329879463307C70213D61700BE0790
:102468003348080832976146B3F6C60213068070EF
:10247800B386C6023697A166F58F4207D98FB7167D
:10248800004003C7F60213770708D883908303C771
:10249800F60213770708E316E6FE9883B71600409E
:1024A8004DCF1307800873370780137787083AC41E
:1024B8000F10000037170040930670052300D7045B
:1024C800930680FA2300D7040F100000232A07037D
:1024D8008346170393E60608A308D70223000704D8
:1024E8002247732707800F10000011663717004036
:1024F8007D16545B4C5FAD8EF18EE5FE9306800829
:10250800F3B6068093F6860836C60F1000009306C9
:1025180070052300D704930680FA2300D7040F1010
:1025280000005CDB8347170393E70704A308F7025F
:1025380023000704B247F3A707800F1000004101EA
:10254800828003C7F60213770708D883908303C7EE
:10255800F60213770708E316E6FE98837DD391B752
:1025680055714EDF86C7A2C5A6C3CAC152DD56DB68
:102578005AD95ED762D566D36AD16ECFAA8982C08E
:10258800EF00B01593078008F3B7078093F7870823
:10259800BEC20F100000B717004013077005238054
:1025A800E704130780FA2380E7040F10000003C72D
:1025B800F7021377770FA387E70203C7F7021367BA
:1025C8008700A387E702238007049647F3A70780BD
:1025D8000F100000130B80C1334B6503916793877D
:1025E80007E8130A30029546B347F502330A4B034E
:1025F8003EC8FD873ED2BD67938707A6334AFA02D5
:102608001357FA413ACA330740413AD47D873ACC46
:102618001307A0FB3307EB02B347F702056713075D
:1026280007FA3ECEFD873ED6938729003319F70077
:1026380063E436013319370161671307076A3345C5
:10264800E50213070010B317F0288D873EC495479D
:102658003309A9023349E902130740063309E9029D
:102668001307D0073349E9021357F9413AD833170A
:1026780030290D873AC663EF374993075047B307A8
:10268800F7023D67130707A6116C814A814B1304B3
:102698008008371D0040930480FA7D1CB3876703C8
:1026A800B307F040B3C7E7023ED0FD873EDA733781
:1026B800048013778708BAC40F1000001307700549
:1026C8002300ED04930D0D0423009D040F1000005A
:1026D80003473D051377870FA309ED0403473D051D
:1026E80013671700A309ED0423000D042647732779
:1026F80007800F100000930C700573370480137760
:102708008708BAC60F100000930770052380FD00E4
:1027180023809D000F10000003473D051367070243
:10272800A309ED0403570D051317E7282318ED0433
:1027380003570D051317F7282318ED0423800D0000
:102748003647732707800F10000003473D051377AE
:1027580007026305073C03473D05218B6DDF8800B1
:1027680097E0FF1FE780404073370480137787089E
:10277800BACA0F10000023809D0123809D000F100E
:10278800000003473D051377F70DA309ED04034740
:102798003D0513670702A309ED0403570D05131739
:1027A800E7282318ED0403570D051317F7282318F6
:1027B800ED0423800D005647732707800F10000093
:1027C80003473D05137707026301073803473D05B3
:1027D800218B6DFF97E0FF1FE780E01D2A873ADC19
:1027E80097E0FF1FE780201D6257E30AE5FE0357C5
:1027F8000D0506451317E7282318ED0497E0FF1F7A
:10280800E780803803473D05218B6DDF03570D05B1
:1028180083462D05C24733778701B386860313D6CF
:10282800F641BA96B388F640925733B7E600329726
:102838001D8FD247B3B61601158F63C6E700631C18
:10284800F700637A1A01E2476348F7326395E700B5
:10285800A25763E3F832894663F27633733704800C
:1028680013778708BAD00F100000130770052300EC
:10287800ED0423009D040F10000003473D0593F667
:10288800F90F1377870FA309ED0403473D05558F0B
:10289800A309ED0423000D040657732707800F10C2
:1028A80000001306700503473D051D8B631037377D
:1028B8007337048013778708BAD40F100000130702
:1028C80070052300ED0423009D040F10000003474A
:1028D8003D051377F70DA309ED0403473D0513677D
:1028E8000702A309ED0403570D051317E72823185A
:1028F800ED0403570D051317F7282318ED042300DB
:102908000D042657732707800F10000093067005E3
:1029180003473D05137707026304073203473D0564
:10292800218B6DDF880097E0FF1FE780E023733776
:10293800048013778708BAD80F10000013077005B2
:102948002300ED0423009D040F10000003473D05FC
:102958001377F70DA309ED0403473D051367070235
:10296800A309ED0403570D051317E7282318ED04F1
:1029780003570D051317F7282318ED0423000D043A
:102988004657732707800F1000009306700503470A
:102998003D05137707026300072E03473D05218B8A
:1029A8006DFF97E0FF1FE7800001AA8C97E0FF1FEB
:1029B800E7806000E30C95FF03570D0506451317E4
:1029C800E7282318ED0497E0FF1FE780E01B034783
:1029D8003D05218B6DDF7337048013778708BADCD8
:1029E8000F100000130770052300ED0423009D0459
:1029F8000F10000003473D051377F70DA309ED04F9
:102A080023000D046657732707800F100000035733
:102A18000D0583462D05C25733778701B386860394
:102A280013D6F641BA9633B7E60032973388264173
:102A3800B3B606011D8F158F6346E000631807269D
:102A4800630608261305800C3307E5020256D256A2
:102A5800B335050333050503BA95EF70F17F930687
:102A6800150033B5A6002E951357F501BA9633B75E
:102A7800E6002A971316F70185820587D18E6346EB
:102A8800E000631F072C638D062C0356CD021582C8
:102A9800B305D60033B6C50032976348E00063102B
:102AA80007361307F00F637CB7340947637157275C
:102AB80093078008F3B7078093F78708BEDE0F10E7
:102AC8000000B7170040130770052380E7041307B9
:102AD80080FA2380E7040F100000DA378966811630
:102AE800558F33470708DAB723800704F657F3A74B
:102AF80007800F100000BE402E449E440E49FA592C
:102B08006A5ADA5A4A5BBA5B2A5C9A5C0A5DFA4DE1
:102B18006961828022479307504795B673370480CE
:102B280013778708BAC80F10000023809D012380FF
:102B38009D000F10000003473D0513670702A30916
:102B4800ED0423800D004647EDBE733704801377EC
:102B58008708BACC0F10000023809D0123809D00B8
:102B68000F10000003473D0513670702A309ED0492
:102B780023800D00664789B1E3920BCE7246B256A8
:102B88009315170013D3F80113951800B365B30014
:102B98003ADE46DCEF70516C7257850B93FBFB0FE6
:102BA8006346E00031EFE258638C08049306150091
:102BB80033B5A600AA9513D7F501BA9633B7E60040
:102BC8002E9785827E07558FF336048093F6860804
:102BD800B6CE0F10000023809D0123809D000F10AA
:102BE80000008356CD023697334707082316ED02B7
:102BF80023800D007647732707800F100000F5BC6F
:102C08009306F5FF13351500898D75B77337048062
:102C180013778708BAD20F1000002300CD042300D1
:102C28009D040F10000003473D05558FA309ED04CF
:102C380023000D041657732707800F100000A5B155
:102C48007337048013778708BAD60F100000230063
:102C5800DD0423009D040F10000003473D051367A2
:102C68000702A309ED0423000D04365773270780D4
:102C78000F10000071B97337048013778708BADA28
:102C88000F1000002300DD0423009D040F10000036
:102C980003473D0513670702A309ED0423000D044C
:102CA8005657732707800F100000D5B19305800C85
:102CB8003387E50233850503B3B50503BA95154790
:102CC80063733705A247130750473387E702330674
:102CD80060413306E6023D67130707A63346E6025E
:102CE8009356F641EF7051571306F5FF133515004B
:102CF800898D13D7F5013A963337E6002E97931648
:102D0800F70105829DBBB247130750477DBF1307E4
:102D1800800873370780137787083AC10F100000BF
:102D2800B7160040130770052380E604130780FADE
:102D38002380E6040F100000DA36056601161377C3
:102D4800F70F518F33470708DAB6238006040A477E
:102D5800732707800F100000850A93FAFA0F81BACB
:102D680033E6E60049CE0356CD02B335D00033072B
:102D7800E0400D8F3305D04015826345E00041E304
:102D8800637FA6060947637E570393078008F3B756
:102D9800078093F787083EC30F100000B71700405D
:102DA800130770052380E704130780FA2380E704DC
:102DB8000F100000DA377D8BDAB7238007049A47B3
:102DC8003DB373370480137787083AC50F100000A6
:102DD800130770052300ED0423009D040F10000065
:102DE8000357CD02856681161377F70F558F334742
:102DF80007082316ED0223000D042A4791BF930705
:102E08008008F3B7078093F787083EC70F100000C4
:102E1800B7170040130770052380E704130780FAEB
:102E28002380E7040F100000DA37960636973347F9
:102E38000708DAB723800704BA4755B9914763EC06
:102E4800B704979701009387A778B3C5F5209841F1
:102E58003E97B71700409387470B0287944337176D
:102E68000040B3F6A64094C39306070B9C42B3F701
:102E7800A74019A8944337170040B3F6A64094C357
:102E88009306070B9C42C98F9CC29307070A984375
:102E98003377A74098C38280944337170040C98E80
:102EA800D9B798433377A74098C3B717004093879B
:102EB800070A9843498FF9BF9843498FF5B719C551
:102EC800371700401E2FCD8F1EAF8280B7170040E6
:102ED8009A2FB375B7408EAF8280B71700409A27F4
:102EE8009306000C1377070C630AD7049A27137705
:102EF80007100DC79A279E277D8B09EB93F70720AC
:102F0800B1C33755E80113050580828037C598128B
:102F1800FD8B130505E03345F50282809A279E272D
:102F280013770720FD8B11C73755E8011305058076
:102F3800DDB73725F40013050540F1BF21651305FA
:102F480005D082803725F400130505408280B7F745
:102F580000E0884782803285814737370040A146A4
:102F680063C3A70082803037E30FD6FE3386F500AF
:102F78001022850710A7EDB797F6FF1F9386866284
:102F8800AA878842172700201307C7E8AA9763E98A
:102F9800E7000A87130707FC6364F7009CC2828076
:102FA8007D558280411122C406C62A843D372947AF
:102FB800B307E502B2408D83B3D787022244950751
:102FC800B3D7E70237370040B3C707085EA7410108
:102FD8008280716541111305052006C6E137B737B0
:102FE8000040130770F8B8A30D47B8B313070004DF
:102FF80098B30547F8A7B24041018280238A01822D
:1030080023A80182B71700401387070C144393873E
:10301800070D9396664914C394439396662994C3FF
:103028001443BD9A14C398431367070198C3828059
:1030380023A8A18213064006894503C5C1836F30C2
:10304800F16C371700401307470C1C43B7064000C4
:10305800F58F1443138741831023C18A13B51700D2
:1030680091EA13652500630DA60008A383A70183D1
:1030780081CB82876306A60008A399E30545FDB7BF
:10308800828011456FF0CFCD411193962500AA8516
:103098002D4506C697D0FF1FE780A026B240014500
:1030A80041018280011122CC26CA939625002A84E8
:1030B800B284AA850146254506CE36C697D0FF1F9D
:1030C800E7802024B2462686A285294597D0FF1F8F
:1030D800E7802023F2406244D244014505618280A2
:1030E800011122CC06CE3714004026CA4AC84EC663
:1030F80052C483447405034AB405834984050349CB
:103108009405EFF0AF9C8347A40593F4F40F137A6A
:10311800FA0F93E71700230DF40493F9F90F1379C5
:10312800F90FB717004003C7A705058B6DFF03D537
:10313800C705A38D4705238C3705A38C2705A38BCB
:103148009704F2406244D2444249B249224A056196
:103158008280411122C406C62E849397556063DF8E
:10316800070097E0FF1FE780C0BF19C1EF30F13DAE
:103178001315F468B24022444101828093F7150088
:1031880013C51500E5FB93F7250081CF5D3D1306B8
:10319800000A894503C5C183EF3051571345240000
:1031A800D1BF8967ED8F85C3EF603129D93D37F6E7
:1031B8000200130606E0896503C5C183EF30115587
:1031C8001315D46845BF11656D8D4DD51795010050
:1031D80013054541EF80612313060064916503C51B
:1031E800C183EF30B1521315E46869B71D714946C0
:1031F800979501009385453F17A501001305453CA8
:1032080086CEA2CC97E0FF1FE78080C401E917951E
:1032180001001305A53EEF80411F01A037F700E02C
:1032280023240700F9571CCB0564B7E700E023A067
:103238008710BD4614C323A087180F10000017E796
:10324800FF1F1307672723ACE182130700F8A38A3F
:10325800E7401306C0038145480897E0FF1FE78051
:1032680000BC970700209387A7193ECAA1679387D8
:1032780007E03ECEB7070105938707103ED0ED471C
:103288002312F10285472303F10297070000938771
:10329800E7DFBEC497070000938707E1BEC6930720
:1032A80054D12314F10297070000938787CA3EDAA6
:1032B800B7F50700970700009387C7E23EDE81460F
:1032C80097070000938727DC7000E1051945BEC009
:1032D800E08497D0FF1FE780C00219466C001305F1
:1032E800E102EFE01FFBD24781C7BC8463F387008C
:1032F80001A04808EF30117CAA8501C91795010083
:1033080013050531EF70D16E01A0F64066442561C2
:1033180082804111170500001305E5E306C622C4A3
:10332800EF30B1761384C18308A01928C139082069
:103338002244B24013060032896541016F30113DC5
:10334800397106DE13078008F337078093F787087B
:103358003EC20F100000B717004093057005238088
:10336800B704130680FA2380C7040F10000083C631
:10337800F70293F6A60FA387D70223800704924685
:10338800F3A606800F1000007337078013778708AD
:103398003AC40F1000002380B7042380C7040F101D
:1033A800000003C7F70213672700A387E7022380FB
:1033B8000704A247F3A707800F1000000545EFE0B8
:1033C8003FF9C131814701478146054685451305C7
:1033D800407EEFE0DFFC680013064002814597E07D
:1033E800FF1FE780C0A3B707C0A83ECAB787E80396
:1033F800938707D03ECC97E7FF1F9387878A3EC6FF
:10340800680097E7FF1F9387478B3EC8EF40A107E7
:10341800F250216182804111979501009385C55E24
:10342800179501001305C52006C6EF70715C179546
:1034380001001305E520EF70B15BB2402945410159
:103448006F70B15E4111979501009385A55A179544
:1034580001001305E51D06C6EF7091591795010087
:103468001305451FEF70D158B240294541016F70CF
:10347800D15B4111979501009385854F1795010000
:103488001305051B06C6EF70B156B2402945410128
:103498006F70B159797122D426D24AD02E842A89E4
:1034A800B28481457146480006D6EFE0FFDF97F702
:1034B800FF1F83A7E7D59E23231421017C83EF00F8
:1034C800F0408547DC859307001948853EC6268667
:1034D800FD57A2854800230AF100EF00F040B250E2
:1034E80022549254025945618280411122C406C671
:1034F80026C21C212A849DC3979501009385854D7A
:10350800179501001305C512EF70914E4C401795A1
:10351800010013056515EF70B14D59A85841B7075B
:10352800CF009387777D6313F71A979501009385EA
:10353800654A179501001305A50FEF70714B1C44E0
:1035480076244E2490231795010013056513938460
:10355800818FEF70F1492945EF70314D52240C44A9
:103568001385818F97E0FF1FE780A0889C201307B1
:10357800200A638BE7001307300A638EE710B24016
:1035880022449244410182805A248D479795010034
:103598009385454417950100130585096301F702D2
:1035A800EF701145179501001305850FEF70514411
:1035B8002244B2409244294541016F701147EF708F
:1035C8003143179501001305250FEF707142294506
:1035D800EF70B1456A24930720F80546A6859CA09C
:1035E800553D9377F50F2A8495C7979501009385E4
:1035F800653E179501001305A503EF70713F93759C
:10360800F40F179501001305E50EEF70713E29457B
:10361800EF70B141979501009385C53B179501005F
:1036280013050501EF70D13C179501001305C50D71
:10363800EF70113C2945EF70513F4165930730FA0F
:1036480005469385818F7D159CA0A9359377F50F45
:103658002A8495C7979501009385C537179501006A
:10366800130505FDEF70D1389375F40F1795010018
:1036780013054508EF70D1372945EF70113B0566F2
:10368800130606C889452244B240924403C5E18422
:1036980041016F30B1075A2485476301F7029795B6
:1036A80001009385253317950100130565F8EF7020
:1036B80031341795010013056508CDBD7E240566D4
:1036C800130606C82393F184914575BFB707CC004C
:1036D8009387777D6317F702979501009385852F68
:1036E800179501001305C5F4EF7091301C4476243A
:1036F8004E24902317950100130585F8EF70512F7C
:1037080045BDB707CE009387777DE30AF7E697951F
:1037180001009385252C17950100130565F1EF70BD
:10372800312D4C401795010013050503EDB3011128
:1037380022CC979501009385E5272A8417950100E7
:10374800130505EF06CEEF70B12AA2851795010083
:103758001305C53DEF70D1292945EF70112DB70725
:103768000203938707103EC4B7070607938747509D
:1037780021462C0005453EC6313B15C52A84979540
:1037880001009385252317950100130565EAEF705D
:103798003126A28517950100130585FDEF70512587
:1037A8002945EF709128F2406244056182804111F9
:1037B80022C406C61C212A8485CB979501009385CF
:1037C8002520179501001305A5E6EF7071224C40DE
:1037D800179501001305C5FAEF7091212244B240F4
:1037E800294541016F70712458411DEF97950100DB
:1037F8009385051D17950100130585E3EF70511F8B
:1038080017950100130545F9EF70911E2945EF70D2
:10381800D1212244B240116603C5E184130606E8AB
:10382800894541016F30816EA1679386D703631183
:10383800D702979501009385A518179501001305E0
:1038480025DFEF70F11A179501001305E5F56DBF37
:10385800ED07979501009385A516179501001305A7
:1038680025DD6315F702EF70B118179501001305F0
:10387800E5F4EF70F1172945EF70311B2244B2408F
:1038880003C5E184894541016F30017DEF70511610
:103898004C4017950100130525EC3DBF411122C48A
:1038A80006C693F715002E8499CF0566130606966B
:1038B800854503C5E184EF30616513451400B240C6
:1038C80022444101828093F725008DCB9795010012
:1038D8009385C50717950100130585D5EF7051111C
:1038E80017950100130585EFEF7091102945EF70CA
:1038F800D113EF20800913452400D1B713F54500F3
:103908005DDD854503D56184EFF0C05F97950100C3
:103918009385C50317950100130585D1EF70510DE7
:10392800179501001305C5ECEF70910C2945EF7050
:10393800D10F1345440061B7411122C41795010006
:10394800130505CF2E84979501009385250306C698
:10395800EF70110A2945EF70510D05C897950100C0
:103968009385C50117950100130585CCEF705108A3
:10397800A285179501001305E5E9EF707107224448
:10398800B240294541016F70510AB24022444101B9
:103998008280411126C206C622C48547AA84639A3A
:1039A800F502979501009385A5FB1795010013056E
:1039B80025C8EF70F103A68517950100130545E6A4
:1039C800EF7011032244B2409244294541016F70BF
:1039D800D1052E84894797950100938565F8179539
:1039E80001001305E5C4631AF400EF707100A685A1
:1039F800179501001305C5E5E1B7EF70617FA28552
:103A0800179501001305C5E765BF011122CC2EC625
:103A18002A8497950100938525F7179501001305CA
:103A280025C106CEEF70C17C3246A28517950100EC
:103A3800130505E6EF70C17B2945EF70017F83C749
:103A4800418491EB97E7FF1F83A7877C9A23C1677F
:103A5800FD17631DF7006244F240116603C5E18457
:103A6800130606E8894505616F30414AF240624411
:103A780005618280411106C6EF90F07619E5EF10D6
:103A8800F011B24041016F20204CB24041018280C8
:103A9800411197950100938525F0179501001305AD
:103AA80025B906C6EF70C1742945EF700178B24098
:103AB8004101C9B70111354697950100938585DE07
:103AC800179501001305052506CE22CC97D0FF1FB8
:103AD800E780003801E917950100130525B2EF705A
:103AE800D11201A097F7FF1F938787D13EC485673E
:103AF800938707C0970500009385E5E917850000BF
:103B08001305E5063EC6EF802005B7F50700814698
:103B180013868184E105194597C0FF1FE780607E01
:103B28001946938581841385C1A497D0FF1FE78028
:103B3800402C34001386818497950100938585F67F
:103B480017950100130585F7EF1030302A840DC949
:103B580097950100938505E517950100130545AD77
:103B6800EF700169A285179501001305A5D4EF70C0
:103B780021682945EF70616BF240624405618280DB
:103B8800EF80D041179501001305C5EDEF00D05027
:103B9800EF401033EFF0C05F17E5FF1F130585797D
:103BA800EFF0A04C17950100130545E7EFF0006012
:103BB8002A84EF10402AEFB02005EF10417EEF2055
:103BC8002040EF10D004EFD0006297950100938554
:103BD80065DD179501001305A5A509C8EF704161BA
:103BE800A28517950100130525CF51B7EF704160E5
:103BF80017950100130585D0EF70815F2945EF7097
:103C0800C162EFD0A04485472382F184EF90B05D74
:103C180029C5979501009385E5D8179501001305E7
:103C280025A1EF70E15C179501001305A5CEEF7093
:103C3800215C2945EF70615F97950100938585D6D2
:103C4800179501001305C59EEF70815A179501005D
:103C5800130585CEEF70C15929BF293DF1BF411128
:103C6800170500001305C5C306C622C4EF30E1617D
:103C78001384E18408A017E5FF1F1305A558EF007A
:103C8800607A0D3DEFF08FB717050000130565AAA0
:103C9800EFF00FBA08202244B240130600648545AD
:103CA80041016F30A1264111354697950100938552
:103CB80065BF179501001305E50506C622C497D010
:103CC800FF1FE780E01801E917950100130505DCDF
:103CD800EF70A17301A0EF50B1262A840545EF804B
:103CE800502BEF10512EEF10510DEF607060B24065
:103CF80022852244410182804111114506C6EFE028
:103D08002FE01305503497D0FF1FE78040CCB7173A
:103D18000040116723ACE70AC1450545EFF02F9A2B
:103D280085452165EFF08F918D451165EFF00F9175
:103D3800EFF02FAA17A5010013058588EF70E16C35
:103D480017950100130505FDEF70216CEFF00FCA00
:103D5800EFF02FDC893F213797D0FF1FE78020F84D
:103D6800014582804111B2862E86AA852D4506C658
:103D780097C0FF1FE780E058B240014541018280AB
:103D8800AE860146AA85254517C3FF1F67006357FE
:103D98001D7186CEA2CC9307000432C663E2C70227
:103DA8002A840808EFE0EFCEB2461008A28529451C
:103DB80097C0FF1FE780E054F64066442561828083
:103DC8003955DDBF184283A70185D6210823CC27A2
:103DD80052226395A500EE276389D502011106CE0C
:103DE800C8A7F6A7B705CF00DC4B9385757D0507F7
:103DF8007D162EC2230001003AC47086748799C3C9
:103E08000A858297F2400561828082806D713C0844
:103E18003EC6B707E500232291103EC8AA843C0895
:103E28003285232611103ECA232481102320211114
:103E38002E89EF20C0382A8497950100938585E262
:103E4800178501001305C57EEF70813AA285179585
:103E58000100130565CAEF70A1392945EF70E13CEF
:103E6800B705CB009385757D6800EF00901CA2858F
:103E78006800EF20602A014781467000CA852685C0
:103E8800EF00703B15C52A8497950100938585DD61
:103E9800178501001305C579EF708135A28517953F
:103EA8000100130525C6EF70A1342945EF70E137ED
:103EB8008320C11003248110832441100329011099
:103EC800516182801842797122D406D683A7018570
:103ED8000348070083C807012A84D6214A2263962B
:103EE800080183D82701638AD802238807010507B8
:103EF800B6AB3708CC00DC4B1308787D3ACC1307F7
:103F0800F5FF42CA23080100F886F48799C7080814
:103F180032C62EC482973246A2452285C53DB2508C
:103F28002254456182806D713C083EC0B707E500A8
:103F3800232481103EC217E4FF1F130464403C0889
:103F48003EC41E202326111023229110231701009E
:103F58002318010023190100231A0100231B010063
:103F680099E3C167FD177C863E2091E783A7018509
:103F78009C43DC479E23584C7C875E20484BFC8042
:103F880005ED979501009385A5CA178501001305CE
:103F9800256AEF70E12517950100130565B9EF70E3
:103FA80021252945EF7061288320C1100324811041
:103FB80083244110516182807C3099E7EF20F158C9
:103FC8005C4C23AA0700CDB7FD17122B4C477CB0D9
:103FD8001C280A85230BF100EF20201283A70185F6
:103FE8008843014781460A866C00EF00D024AA84E2
:103FF80005C9979501009385A5C317850100130589
:104008002563EF70E11EA68517950100130505B31A
:10401800EF70011E2945EF7041215C4CC84B79BFF8
:104028007C30E5DF1044854503C54185EF20116EDE
:10403800A5BFDC4DDC4B99C7904503C5418591452B
:104048006F20D16C82805C4EDC4BA1CB411122C425
:1040580006C62E849DCD979501009385A5BC17852E
:1040680001001305E55CEF70A118A2851795010002
:10407800130505AFEF70C1172945EF70011B2244E6
:10408800B24003C5418513064006914541016F20A2
:10409800F167B2402244410182808280411122C4EA
:1040A80017E4FF1F1304C42B1C4C06C689C7DC4346
:1040B80099C34C4882975C4CC84BEF2011495C4C23
:1040C800B240224423AA0700410182809387E180FD
:1040D80088231307F00B05051375F50F6374A70004
:1040E8001305000888A382805E21638C070C0111E8
:1040F8004AC817E9FF1F1309A92452C4032AC90192
:1041080022CC06CE83274A0126CA4EC62A84715578
:10411800B1EB9307D00DB2847D5563E5C704130551
:104128008600AE893345050897D0FF1FE78040BD5C
:10413800232AAA000325C9015C498DEF9795010040
:10414800938545B0178501001305854EEF70410A28
:10415800179501001305C5A2EF7081092945EF7075
:10416800C10C5D55F2406244D2444249B249224AE8
:104178000561828093874400B705CF003EA99385E7
:10418800757D3105EF00E06A0325C9016C20310512
:10419800EF1090780325C9012686CE853105EF10EA
:1041A800D0757146A2854A85EFE0AF8E504401CAAA
:1041B800854503C54185EF207155014565B7A53390
:1041C800EDBF7D558280411122C417E4FF1F1304FF
:1041D80024175C4C06C6C84BEF2031375C4C224490
:1041E800B24023AA070003C54185854541016F20D8
:1041F800B166411126C2938401859C4006C622C43B
:104208004AC0ADCFDC43BDCB5CC10CA12A849795D5
:1042180001009385E5A61785010013056541EF6048
:10422800317D2945EF7061009C4023A4070023A23B
:10423800070097E7FF1F83A76714DC4B99C329552D
:10424800B13D97E7FF1F83A76711DC4B91C3A53FDB
:1042580013894185034509008945EF20F15F03452E
:1042680009009145EF20515F9C40DC4B81CB2285B2
:104278002244B2409244024941018287B24022441A
:1042880092440249410182800111328506CE22CC36
:1042980026CA2E84EF10B072AA84979501009385E0
:1042A800A59F178501001305A538EF6071740307F2
:1042B800840072204E20A686179501001305C5922A
:1042C800EF6011732945EF60517697E7FF1F83C7A9
:1042D8008709639797000145D13381450A85113FC6
:1042E800F2406244D244056182806D7123248110BA
:1042F800232611102322911093F745002E846388FA
:10430800070E3C083EC0B707E5003EC23C083EC465
:1043180097E7FF1F9387C7049A23231701002318E1
:10432800010023190100231A0100231B010019E3CE
:1043380041677D177886BA2311E703A701851843DB
:1043480058471A23D44F7887DA23F880D84A15EFCC
:10435800979501009385058C178501001305452D58
:10436800EF601169178501001305857CEF605168BE
:104378002945EF60916B134544008320C110032445
:1043880081108324411051618280F833255531CF43
:104398007D17922ACC46F8B39C2B0A85230BF10093
:1043A800EF10B05583A70185884317E7FF1F130750
:1043B80027FB938681810A866C00B52DAA8445DD8A
:1043C80097950100938505851785010013054526F6
:1043D800EF601162A6851785010013052576EF6049
:1043E80031612945EF60716426854D3969B793F7C6
:1043F80025008DC341468145280897D0FF1FE780D7
:1044080000A22555613928089305F00FDD331345BF
:104418002400A5B713F515002DD1EFF0DFB0134533
:104428001400A1BF5C4D411106C688C317050000E2
:104438001305E5EB23A8F184EF203165B240238A08
:10444800A184014541018280EFD21FE02A840845FA
:104458002E89B28909C900C1970500009385C573E3
:104468006105EF10A10681447D5AEF10800363C3F4
:10447800A4048144EF10E00363C6A4049707002056
:10448800938787FB9C43DC47B307F9409187230256
:10449800F400638109048327C900B307F4409587B2
:1044A800A302F4001C4C89C79C4799C322858297B4
:1044B8006FD0DFDC5C44139714008504BA9723900F
:1044C800470165B71C48139714008504BA972390D1
:1044D80007004DB7832789000547B307F440958740
:1044E800A302F40083570400638EE7028DC30947D3
:1044F8006384E7040D47E397E7FA979701009387EA
:1045080067D31CCC979701009387C7D311A89797B7
:104518000100938767961CCC979701009387C796ED
:104528005CC849B797970100938707821CCC979777
:10453800010093876782EDB797970100938747D467
:104548001CCC979701009387A7D4D9BF85E1EFD2F8
:104558005FD1004618448347940075839D8B63158B
:10456800F700EF00701948C46FD0FFD18280EFD2F6
:10457800BFCD13893500C16442094111AA8901449C
:10458800F11413590901054A2EC6EF009071B2457E
:104598006346A400014541016FD05FCE83A709009F
:1045A80013171400BA9783D707006388B70063947A
:1045B800970063742A010504C1BF0545E9BFEFD21E
:1045C800DFC7AA892E89328BB6843A8ABE8AEF90D1
:1045D80080414DC12685EF10302E8D4763E5A70039
:1045E8007D556FD01FC983DB4400EF0090712A848A
:1045F800EF0070729307740031443305850263C578
:10460800A702EF001070EF00D06F2A84EF00B0709F
:104618009307740031443305850263CDA702EF0088
:10462800506E9307450019A8EF00F06E3305850218
:104638001307F0179307C017E357A7FC2D55E3C2DC
:1046480077FB63000B02D6865286A6854A85EFF073
:10465800506941BFEF00306C330585029307C5FFF1
:10466800F1BF832749001385C90083D52700013787
:1046780079F9BDB76955B5B7970700202390A7DC2E
:1046880097070020938747DB904381470C46330701
:10469800F500420741836393B7008280544613981C
:1046A80047008507C2962390E600D5B797070020F4
:1046B800938787D89C4303C587008280170500200D
:1046C8000355C5D78280EFD2DFB9C1671387D7FFFB
:1046D8006307E5026368A700F117630EF50001455B
:1046E8006FD07FBA1387E7FF630EE500FD171D8DB6
:1046F80013351500F5B7EF4020357D15D5BFEF40D0
:10470800A012E5BFEF400011CDBFEFD29FB5411118
:10471800AA8401442EC6EF00D059B2456346A400CE
:10472800014541016FD03FB69C48131514003E95D2
:1047380083570500E387B7FE0504E9BF0348550022
:10474800814693F7F60F63E5070181473E8582802E
:10475800584593975600BA9703D727006316B700B2
:1047680003D70700E304C7FE8506E1BF834645007B
:1047780001479377F70F63E4D700814711A81C45D9
:10478800131657000507B29703D60700E313B6FEC2
:104798003E858280EFD25FAB93170501C187970AE8
:1047A8000020938A6AC96353F00883A70A00C047A8
:1047B8009C4703570400198D420541816366F50043
:1047C800014422856FD09FAB12052A94DDBFDC47D8
:1047D80013944900014A3E94834744006341FA0216
:1047E800014A834754006346FA028509C20993D9EE
:1047F800090183A70A009847E3EBE9FCD1B71C44F9
:1048080013195A00A6853E994A85013709ED050A0C
:10481800E1B75C4413195A00A6853E994A85F535D7
:1048280019E1050A7DBFE30209FC61BFAA84814939
:10483800C9B7EFD21FA31C452A8481E79307C50097
:104848001CC51C44231204001CC09307F00F63E925
:10485800B70093F5F50F2285EF10100C6FD0BFA2AB
:1048680093940501C167C18063F7F500A685228589
:10487800EF10300EE5B7C18193F5F50F2285EF10E3
:10488800B009A6852285EF10700AC9BF97070020D6
:10489800938787BA884382801C4599C79707002069
:1048A80023ACA7B8014582807D55828097070020F8
:1048B800938787B8984383474500484792073E95B2
:1048C8008280EFD21F9A617100451C183EC6B70757
:1048D80080013EC81C183ECA8357440002CE02D04D
:1048E80002CC231EF100834784002A8902D22301C7
:1048F800F1023C083ED402D6553F835705002316E3
:10490800F102EF30F0632307A1025C400355640015
:10491800F18313F717008347F10252055181F99B80
:10492800D98FA307F102EFF0302D39C5AA840355BA
:104938000500EF90200C83D704002AD26800231CBE
:10494800F10083D72400231DF1001C4803D647003B
:104958008C43EF10807A8347B400CA86178601001B
:10496800130606388117A305F4006C004810EFF011
:1049780050375D616FD03F912155E5BF1C45B1CFE0
:1049880003C5A700894613576500630BD7028D46F8
:10499800630ED70285466300D70213074006330526
:1049A800E50203C7B700418B15CB83C7B700BD8BA2
:1049B8003355F54082801375F5031307803EC5B75C
:1049C80009671375F50313070771D1BF3727090066
:1049D8001375F5031307077CD9B701458280EFD219
:1049E8005F8803A98500630409048347B900AE847E
:1049F80093F7070E91CF03459900930520030D8186
:104A08000505B305B50288446105EF00513805A0D6
:104A18002E85AD372A8401CDC5218325C900B3076A
:104A2800B54063F887002E94B305A440E9FD6FD024
:104A38009F858545C9BFEFD2DF822A8403D505004B
:104A4800011132C636C43AC22EC002CA02CC02CE06
:104A5800EF80507A82452ACA22852ECC813D0357A1
:104A68000500231EE100EF30B04DA24632469247C2
:104A7800230FA10036874C08B28622850146EFF045
:104A88001FB405616FD03F80EFD2AFFD61711C1874
:104A98003EC6B70780013EC81C183ECA3C08004500
:104AA8003ED4AA8402CC02CE02D002D202D6FD3B6A
:104AB8008357050035592316F102EF307048230754
:104AC800A10209C48357440091E721594A855D61D1
:104AD8006FD06FFB0355640052055181EFF0D01180
:104AE8002A8965D58347B40093F7070E89C713054C
:104AF8008401EF00512B83574400231EF1008347A4
:104B080084002301F1025C4003550900D98313F79F
:104B1800070883471102231CA10093F7F707D98FD1
:104B2800A300F10283572900231DF1005C40F183A3
:104B380013F717008347F102F99BD98FA307F102F6
:104B4800EF80506B2AD251D18347940068001397A5
:104B580057008347B400FD8BD98FA305F4001C4888
:104B680003D647008C43EF104059A68717870100EA
:104B780013070717740005464C102685EFF03FA46D
:104B88002A8929D58347B400A685FD8BA305F4009F
:104B9800B9352DBFEFD2EFEC832485FE2A8441116D
:104BA8002685E93B834734FF93F7070E95C32AC64A
:104BB8002685013B19C9834734FFB245FD8BA309FC
:104BC800F4FE81C52285EF00911C41016FD0AFEB47
:104BD8006DDD8327C4FF2685829765F9834734FFF7
:104BE80093F7070E81C72285EF00F11B032584FE8A
:104BF800613DE1BFEFD2EFE39C4141112A8903C730
:104C0800070089472E8493566700638CF6020D4689
:104C18006382C6049307F0076302F7022E85EF103C
:104C2800005AAA848149C16B130C490097070020D8
:104C3800938787809C43984763ECE90241016FD0D2
:104C48000FE303D745008547E3FAE7FE2E85EF100B
:104C5800E05AC1BF03D74500E3F2E7FE2E85EF1007
:104C68000056AA842285EF10E056C204C98C5DBFA5
:104C7800DC470355A900139A49003E9A931705018A
:104C8800C187635DF00083570A006395A70263E557
:104C980074038327CA00034D5A001DA0A16721672A
:104CA800A98F1307F7EFE374F7FE63950900EFF098
:104CB8009FA171FD85099DBF83278A00034D4A0086
:104CC800835DA90003576900216A138BC7003AC6A0
:104CD800814A33CA4D01631E5D0197F7FF1F938711
:104CE80027769C43E1DBA2866286814526858297EA
:104CF800D1B7A1679387F7EF930C4BFF63F0470396
:104D0800B2455A85EFF0BF8619CD03278B001047AF
:104D180019CA10436380C4023107D5BFEE85668582
:104D2800EFF0BF9E71FD93861A0093FAF60F130BEE
:104D38000B0255B7835644005C43E3EDF6F6228533
:104D48003AC6EF10C036A1679387D7042A8A035D55
:104D58004400324763E897008347D90093E707F890
:104D6800A306F9001C4766852286E2858297C167FB
:104D78000844FD17337AFA00529508C02312A4019B
:104D880015BF97F7FF1F9387276B9843814715C374
:104D98001447814763FFD500939745004C47BE955C
:104DA80019C903C7550081476375E600DC45160637
:104DB800B2973E85828003C745008147E37BE6FEC4
:104DC80016069C45F5B7EFD22FC8AA892E8A8144CA
:104DD80097FAFF1F938A4A6683A70A00984763E4F5
:104DE800E4006FD0AFC9DC471394440001493E94F6
:104DF80013BB140083474400634BF900014913BBFC
:104E0800140083475400634FF9008504F1B7084440
:104E1800931759005287DA860146A2853E958299F2
:104E28000509C9BF4844931759005287DA860546D1
:104E3800A2853E9582990509E9B7EFD28FC28145CF
:104E480017F5FFFF1305856097F7FF1F2398075E87
:104E58009D3F6FD04FC397F7FF1F9387E75D9C4334
:104E680099CBEFD20FC0814517F5FFFF1305055EFB
:104E7800993F6FD04FC18280EFD20FBD41112315EA
:104E8800E1002E89B284B6893A8681460147ED450C
:104E98002A84EF2031172AC61DCD0356A100CE85DE
:104EA800EFD02FBFCA852285EF20F12A058915C1C9
:104EB800228501462C0023149100EF2091382A8482
:104EC80009C5ED452800EF201123228541016FD047
:104ED800EFBA4944FDB76554CDBF5C41FD175CC1CD
:104EE8008280EFD20FB8EF10117C95473305F50299
:104EF80081450D816FD02FB9EFD2AFB6EF10B17ADF
:104F080095473305F5020D816FD0EFB7EFD26FB536
:104F180003550500EF20A16F6FD0EFB6EFD26FB445
:104F2800035505003287AE8617D6FF1F0356264A5B
:104F380097F5FF1F9385055181376FD0CFB4EFD216
:104F48004FB2EF50110D6FD00FB4EFD28FB197F56C
:104F5800FF1F9385254FEF20713601456FD0AFB203
:104F6800EFD22FB0814517D5FF1F03554542EF20DB
:104F780031286FD04FB1EFD2CFAE97F5FF1F938591
:104F8800654DEF20B13301456FD0EFAFEFD26FAD74
:104F9800814517D5FF1F03558545EF2071256FD033
:104FA8008FAEEFD20FAC2E85EF708051EF70B00747
:104FB8006FD06FADEFD2EFAAEF70D0116FD0AFAC5A
:104FC8005C49E1175CC95CC583572501A107231912
:104FD800F50083570501A1072318F5008280F147E2
:104FE8003305F50297F7FF1F9387C7489C433E9503
:104FF80082808D476317F60603D74600854763F21C
:10500800E706EFD20FA6368536842E89EF10201BCF
:1050180039C18357440093140501C18063ED970299
:105028002285EF10C019FD14231294009307A002E3
:10503800630EF5009307B0026301F502930790022F
:10504800631BF5002285EFE0600A31A00146CA859E
:105058002285EF90E0096FD00FA32285EF00D0568C
:10506800DDBF828097F6FF1F938606419C4201456B
:1050780099CF9843D44217F6FF1F232FE63E639635
:10508800D70097F6FF1F23ABE63E1385C7FE828045
:10509800EFD22F9D7D2E7144330585029145EF8017
:1050A800405D01E565556FD00F9E97F7FF1F23A15F
:1050B800A73C4526330585029145EF80805B7DD16D
:1050C80097F7FF1F23A8A73A692697F7FF1F239B87
:1050D800A738412697F7FF1F2397A738978701001E
:1050E800938747C517F7FF1F2322F7389707000054
:1050F800938747ED17F7FF1F2328F736014565B754
:10510800EFD22F96AA8517F5FF1F1305A535EF10C7
:10511800E01E6FD04F97EFD2CF94DD37EF10801F8E
:1051280097F7FF1F938747359C4381CF1387C7FEA7
:1051380009CB83D5C7FF17F5FF1F13056534EF00AB
:1051480001456FD04F94EFD2CF91293F11C98347C2
:1051580085002A8493F7070491E70355E500653F26
:105168006FD06F928347C5009304450117F9FF1F5D
:105178001309893085E3832709005CC997F7FF1F66
:1051880023AC972E83274900E1FF97F7FF1F23A73A
:10519800972EF9B7FD172306F5006105EF704079E2
:1051A8008307840063C907048347840093E707F8EB
:1051B8002304F400EF10D1484205A9474181337513
:1051C800F5028347840093F707FCC98F2304F40092
:1051D8008347D4003E951C402318A40089CF9843E8
:1051E80019CB8347C4005040814585073305F50234
:1051F800420541810297832709005CC897F7FF1F82
:1052080023AC97268327490089E797F7FF1F23A731
:1052180097268347C400A9D78355040117F5FF1FB4
:1052280013050526EF00A13625BFEFD28F8397F728
:10523800FF1F9387274A9C4701448583858B81EF0D
:10524800AE84B2853A86EF1040122A8409C5EF1061
:105258004009829408CC22856FD0EF82EFC2DFFE2E
:1052680041112E8932C6AA89692C324713060502D4
:10527800CA86970500009385C5D617F5FF1F130545
:10528800651E65372A8429CD9304C5004D2E19461D
:10529800AA852685EF00706685452685EF00506350
:1052A800178501001305C5A64E958345050026857B
:1052B800EF0090665C4831468145A1075CC85CC434
:1052C80083572401E1172319F40083570401E117D8
:1052D8002318F4001C4C3E85EFC01FFDA3042501D4
:1052E800228541016FC09FF9EFC2BFF74111AA841F
:1052F8002EC632C4EF104001004DB2452246834706
:1053080084000CC050C093F7F70393E70704230405
:10531800F400231804002685EF00B07C834794002E
:10532800A9462317A40013D7370005073307D70268
:105338009D8B85072306F400A306E40083C70401B8
:10534800D8488507230FF7FE17F7FF1F1307C71263
:105358005843232A0400930744011DEB17F7FF1F46
:10536800232EF71017F7FF1F2328F71017F4FF1F36
:10537800130404112285EF0001171C44858B5D8DF1
:1053880009E581452285EF00812041016FC0BFEF0B
:105398001CC317F7FF1F2323F70EC9BFEFC27FEC0B
:1053A80097050000938525C50145EFF09FBF01458E
:1053B8006FC07FEDEFC2FFEAEFF0DFBF6FC0BFEC59
:1053C8008347C500A1E7EFC2DFE92A840355E5005A
:1053D800EFF01FD315C98347840093F7F7FB230425
:1053E800F4001C4091C7DC4381C74C4001458297BB
:1053F800EFF05FC717F5FF1F13058508EF00A11A27
:105408000355E400EFF03FD16FC0FFE78280EFC2A1
:105418005FE597F7FF1F9387270697050000938599
:10542800C5D217F5FF1F1305A50523A0070023A262
:105438000700EF00A1096FC01FE51C4D91CBDC43AD
:1054480081CBEFC21FE28345070082976FC0BFE39D
:10545800828097F7FF1F9387E7049C4303C50700E3
:10546800828097F7FF1F9387E7039C4303C51700C4
:10547800828097F7FF1F9387E7029C4303C52700A5
:10548800828097F7FF1F9387E7019C4303C5470076
:10549800828097F7FF1F9387E7009C4303C5370077
:1054A800828097F7FF1F9387E7FF9C4303C5570048
:1054B800828097F7FF1F9387E7FE9C4303C5670029
:1054C800828097F7FF1F9387E7FD9C4303C577000A
:1054D800828097F7FF1F9387E7FC9C4303C58700EB
:1054E800828097F7FF1F9387E7FB9C4303C59700CC
:1054F800828097F7FF1F9387E7FA9C4303C5A700AD
:10550800828097F7FF1F9387E7F99C4303C5B7008D
:1055180011E11D45828097F7FF1F9387A7F89C43E9
:1055280003C5C700828097F7FF1F9387A7F79C439F
:1055380003C5D700828097F7FF1F9387A7F69C4380
:1055480003C5E700828097F7FF1F9387A7F59C4361
:1055580003D50701828097F7FF1F9387A7F49C4321
:1055680003C52701828097F7FF1F9387A7F39C4302
:1055780003D54701828097F7FF1F9387A7F29C43C3
:1055880003D56701828097F7FF1F9387A7F19C4394
:1055980003D58701828097F7FF1F9387A7F09C4365
:1055A80003C5A701828097F7FF1F9387A7EF9C4346
:1055B80003C5B701828097F7FF1F9387A7EE9C4327
:1055C80003C5C701828097F7FF1F9387A7ED9C4308
:1055D80003C5D701828097F7FF1F9387A7EC9C43E9
:1055E80003D5E701828097F7FF1F9387A7EB9C43BA
:1055F8008857828097F7FF1F9387C7EA9C4303D594
:10560800C702828097F7FF1F9387C7E99C4303D59A
:10561800E702828097F7FF1F9387C7E89C4303C57B
:105628000703828097F7FF1F9387C7E79C43C85BF0
:10563800828097F7FF1F938767E68843828097F7F2
:10564800FF1F9387E7E58843828019E17D558280B3
:10565800F5DE984265DFFDD917F7FF1F13078707A7
:105668001847AA877155058B6316072203C50700DB
:105678001547E37DA7FC03C737001305F0057D1721
:105688001377F70FE364E5FC03C35700E30003FC5B
:1056980083C86700E38C08FA03C777004945791780
:1056A8001377F70FE364E5FA03C7A700114813055A
:1056B800F7FF1375F50FE36BA8F803CE97000D48B5
:1056C8001305FEFF1375F50FE362A8F803C8B700CA
:1056D8006309080065181378F80F1305600DE36770
:1056E80005F703C5C700794879151375F50FE36FFA
:1056F800A8F403C8D7000D457D181378F80FE367A1
:1057080005F503D80701930E40175118420813589E
:105718000801E3ED0EF303C8E7007D181378F80FCE
:10572800E36605F303C827017D181378F80FE36FC4
:1057380005F103C88700C54E75181378F80FE3E71D
:105748000EF103D86701856E938EBEE06D1842088E
:1057580013580801E3EC0EEF03D847016D1842080F
:1057680013580801E3E40EEF03D8870179184208BB
:1057780013580801E36C05ED03C8A7017D181378D9
:10578800F80FE36505ED03C5B7011D487D151375D1
:10579800F50FE36DA8EA03C5D701714879151375AC
:1057A800F50FE365A8EA03D5E7011308E00F7D15B7
:1057B80042054181E36CA8E803C507024948791509
:1057C8001375F50FE364A8E883AE470237C53400C4
:1057D8001308F5BFE36CD8E703A88702130555BF84
:1057E8005918E36505E717F5FF1F232BC5CA03C63C
:1057F800050117F5FF1F2327F5CA0545E378C5E41A
:1058080003D82501D04933760603E31106E403C61D
:105818001501E30D06E217F6FF1F2321B6C883C55D
:10582800270001466387A50003C61700F145330624
:10583800B60283C707039305C00272971A071307B6
:10584800C70516031A9796084697B387B7024155B6
:105858003E97329742074183636EE802EFC27FA00A
:105868003685EF70306BEFE0F02D2A84EF90F02949
:105878002A94EFD0D0312A94EF80A0022A94EFF036
:105888003F812A94EF2050612A94EF50F04C2295E2
:105898006FC07F9F8280EFC2DF9C4111A307A100E8
:1058A800EF90C02A9305F10017050000130525B9EC
:1058B800EFF06FD1014541016FC0FF9CEFC2FF9728
:1058C80017F4FF1F130404E103288400795993682F
:1058D800180097F4FF1F23A314E113781800631E20
:1058E8000800BA84BE89368B328A2E89AA8AEFE0EC
:1058F800FFDB7D15269509E531594A856FC07F97ED
:10590800EFE0DFDA7D152695A167E357F5FE97F7F7
:10591800FF1F9387271398433E8C814B11C701457E
:10592800EFD0F04A933B15004A85DA865686D28531
:10593800EF8050322A8911CD1C44F99B17F7FF1FBD
:10594800232EF7D883270C00CDDBE3880BFA829748
:105958006DB7268597F7FF1F23A007D8EFE0DFD1A3
:105968004146CE8517F5FF1F130545E0EFC07F922E
:10597800EFB0B0140325040BEFB0B0160545EFB037
:10598800B01C0545EFF03FF18DBF97F7FF1F9387D8
:1059980067D49C47858BD5C7EFC2BF8C17F5FF1F0F
:1059A800130505DB97F7FF1F23A607D297F7FF1FFD
:1059B80023A407D297F7FF1F23A207D2EFF0B03E28
:1059C800EF400000EFF01016EFF0901A97F7FF1F66
:1059D8009387C7CE9C4381C70545EF70102F97F773
:1059E800FF1F938767B79C4389C741657D15EF50B3
:1059F800B07DEFD0B046EFB0300D97F7FF1F93871B
:105A080067E29C431397170163540700EFD0E051F6
:105A180097F7FF1F23AC07D497F7FF1F23AA07D4D4
:105A280097F7FF1F23A807D497F7FF1F23A607D4CC
:105A3800EFF05F989D23EFF04FC0EFD0C0736FC0B9
:105A48009F848280EFC25F802A849304140201112C
:105A58002E85B289A685214636C63A89EF50017748
:105A68001DE1B24638082686CE8513059404EF401A
:105A7800C04021462C084A85EF5041751335150062
:105A880005616FC0AFFF0145E5BFEFC28FFD93050C
:105A9800450617F5FF1F130525A1EFF0502F6FC01E
:105AA8008FFEEFC20FFC41112EC6EFF0EFC4B245D6
:105AB80088C141016FC02FFDEFC20FF9AA842E845F
:105AC800EF707075AA8985452285B92583C7E401D9
