:040000006F10D0436A
:100004000000000000000000A00000200C080020F8
:10001400A9BDF9F3E0010020000000000000000089
:10002400E0010020A000002000000000000000000B
:10003400A000002000000000A0000020000000003C
:10004400A0000020A0000020A0000020A0000020AC
:10005400A00000208C080020A00000200000000068
:10006400A0000020A0000020A0000020A00000208C
:1000740038090020A0000020A0000020A0000020DB
:10008400A0000020A0000020A0000020A00000206C
:10009400A0000020A0000020A0000020A00000205C
:1000A40001A0B7170040984B41111367070198CB83
:1000B400982B1377E70F98AB1307800873370780E3
:1000C400137787083AC601000100130770052380DF
:1000D400E704130780FA2380E70401000100B8470E
:1000E400894613675700B8C703C7B7041377F70DDA
:1000F400A385E704B82713672701B8A7130750148B
:100104009AA737270040A303D78003C7E7041377D0
:10011400C70F136717002387E704982B136717008B
:1001240098AB23800704B247F3A7078001000100BE
:1001340041018280EFF0FFF61305401E9705000091
:100144009385450A17260000130646AF63FAC500D7
:100154008322050023A0550011059105E3EAC5FE9D
:10016400179500E01305059297250000938505ADCA
:100174001386418163FAC5008322050023A055003C
:1001840011059105E3EAC5FE1385818197350000C9
:10019400938545716377B500232005001105E36D50
:1001A400B5FE93025002739002BC8D42739042805C
:1001B4008542739012BC93028008739002309702B8
:1001C4000000938222E493E232007390523097321B
:1001D40000E09382A2EF7390123473002030000089
:1001E4009305000273A045808245739015349240B4
:1001F4002242B2424243D2436244F24402559255EF
:100204002256B2564257D2576258F2580649964976
:10021400264AB64A464BD64B664CF64C065D965D6E
:10022400265EB65E465FD65F096173002030230305
:10023400048015472303E48001002302A480828004
:1002440083076480E3CE07FE230304808280830750
:100254006480E3CE07FE0345448082808307648084
:10026400E3CE07FE2302A4808280411126C44AC241
:100274004EC006C61377F50BAD47AA892E8995445F
:100284006306F70019456537653F8D444E8545374C
:10029400FD59FD1463983401B240A24412498249C5
:1002A40041018280135509011375F50F453F220959
:1002B400CDB7011126CC06CEB70408005137154539
:1002C400BD37713769372AC6A53F32459377150084
:1002D40089EB136515001375F50FF240E2440561CF
:1002E4008280FD14E9FC0145CDBF397126DC4ADA70
:1002F4004ED852D656D45AD25ED006DE62CE66CCE2
:10030400B7E700E07D5783AA070022C603AA470087
:1003140023A0E71823A2E718B717004013077005B6
:100324002380E704130780FA2380E70483C7470484
:10033400930B75FFB684E20793FBFB0F8546AA89EE
:100344002E8B328937240040E187015763FA760106
:100354006308D5008946130700026313D5000157CB
:10036400D98F93F7F70FB71C00402382FC04114781
:100374002303E4801305F00F5D3D094CD135636D13
:100384007C11B7050700DA9537870700795563F2C2
:10039400E504B3879500636EF702370B0800A9479D
:1003A40033EB65016399F90689E48144513D26855F
:1003B4000DA0DA850945553D05090345F9FFFD14EE
:1003C400050B693D81C49377FB0FFDF7DD3569FDAE
:1003D4007D55B7170040130770052380E704130702
:1003E40080FA2380E70403C74704418B2382E70490
:1003F400F250B7E700E023A0571123A24711E254BB
:1004040032445259C259325AA25A125B825B724C1C
:10041400E24C21618280A5476395F9068569130939
:10042400F00FB3069900B3742B01B6941349F9FF86
:10043400B3749900856B33796901416B9387F9FF34
:10044400B3F7270199E363FC340193D94900C14709
:10045400E3E637FF99BF0569C1697D19D9B713056B
:10046400800D638869011305000263847901130513
:100474001008CA85DD3B353D21DD4E99B3843441F6
:10048400D9B7DA852D45D533CA94E30099F2050925
:100494007D3BA30FA9FED5BF9387F9FF93F7F70F11
:1004A4006361FC0C83C71C0413073008631FF70443
:1004B40037070800636BEB04B3079B00B706100013
:1004C40063F5D704334BEB0089476393F9068980BE
:1004D400D549E38C04ECDA850945413B110903272E
:1004E400C9FF91472320E48003076480E34E07FE9D
:1004F40023033481FD17EDFBFD14110B81C49377A5
:10050400FB0FE9FF7D3371F5E1B5B717004003C771
:100514005704B70708001377070219E3B7870700E2
:100524007955E378FBEA33079B00E3FFE7F855B519
:100534008547E382F9F2DA852D45053B9389F4FF7B
:10054400E38504E6293393F7390091EB832604808D
:100554000327090093074900E39AE6E43E89CE8421
:10056400F1BFB5476396F9001305900BC93135BD4A
:10057400B1471305B00AE38BF9FE99476391F90477
:10058400B7050800B365BB002D45C53181448D4BCB
:10059400A149753963967401832704802320F900E7
:1005A4008504E39834FF8327048013172B016355D4
:1005B40007002312F900D5BB2322F900FDB39D47A0
:1005C4006399F90281451305B0044531BD442320E4
:1005D400090023220900FD599D3993F77400CA9735
:1005E40003C70700FD14398D2380A700E39634FF69
:1005F4006DBBA1476392F9046D398144630D0B000F
:100604008D479304C0036308FB009304000563044F
:100614008B01930440041375C507E30895D8194565
:10062400393139390545213126850D3909453D31A1
:100634004931E31C05D669BB91476399F900130559
:100644006006F536F53E130590090DB7E38F09D41E
:10065400F154A9BB4111B7170040985F3AC6945FA3
:100664003247E39CE6FE324541018280B7170040E1
:10067400984B41111367070198CB982B1377E70F19
:1006840098AB1307800873370780137787083AC637
:1006940001000100130770052380E704130780FAA3
:1006A4002380E704010001001307000C6315E50231
:1006B4009A271367070C9AA7B7170040982B13675C
:1006C400170098AB23800704B247F3A70780010003
:1006D400010041018280B82793760520DDC2118B89
:1006E40029E303C7E70403C6E7041377F70F136688
:1006F40036002387C704B02713664600B0A79227A5
:100704008E273346060893E5050C8EA7A5470100FE
:10071400FD1793F7F70FE5FFB717004092A723875C
:10072400E70493770510D5C7371700403C2793E7B4
:1007340007013CA79377F501A9EBB727004003C74E
:10074400578013670701A382E7801D47A383E780CF
:1007540033450508B71700401367050C9AA78AA705
:10076400D5C203C7570483C65704418B858A558F66
:1007740021F7B82B418B29D3B8271377D70FB8A704
:1007840025BF13672700B8A769BF2547636CF70027
:10079400B727004003C757801377F70EA382E7807B
:1007A40005476DB79377050199EBB727004003C759
:1007B40057801377F70EA382E780094741BFB72715
:1007C400004003C7578013670701A382E7800D47E2
:1007D400B5BF9377850181EFB727004003C75780E2
:1007E4001377F70EA382E7801307100585B7B727A1
:1007F400004003C757801377F70EA382E7801307DF
:100804007005A9B7B8271377B70F95BF4111814673
:10081400014681451145D13C13078008F337078011
:1008240093F787083EC401000100B7170040130680
:1008340070052380C704930680FA2380D70401003F
:100844000100FD55CEB723800704A245F3A505801A
:100854000100010073370780137787083AC6010047
:1008640001002380C7042380D7040100010003C7CB
:100874006704136717002383E70423800704B24740
:10088400F3A707800100010001A00000197106C24E
:1008940012C416C61AC81ECA22CC26CE2AD02ED2FC
:1008A40032D436D63AD83EDA42DC46DECAC0CEC2AC
:1008B400D2C4D6C6DAC8DECAE2CCE6CEEAD0EED2DC
:1008C400F2D4F6D6FAD8FEDA938581818841E7001E
:1008D400050092402242B2424243D2436244F2446F
:1008E400025592552256B2564257D2576258F25880
:1008F40006499649264AB64A464BD64B664CF64CB0
:10090400065D965D265EB65E465FD65F096173003E
:1009140020304111B7170040985F3AC6945F3247C0
:10092400E39CE6FE324541018280B7E700E03707E9
:10093400001023A0E7208280B717004013070003AC
:100944002388E702854723A0F182730020303D67A6
:100954008147938651821307073C8545902211C233
:100964008280850701000100E37AF7FE8CA2FDB7BF
:100974003D678147938641821307073C8545902252
:1009840011C28280850701000100E37AF7FE8CA280
:10099400FDB7411106C63D29FDBF4111B7E700E08F
:1009A4004AC003A9070026C23707200006C622C48E
:1009B400AA843379E90023A0E7180F10000083A765
:1009C40081820144014685E301C8A28513858182A1
:1009D400972000E0E780E075A1652685973000E068
:1009E400E780E09B0DA003C7E7FF6319970205CCDE
:1009F400A28513858182972000E0E7808073A1653A
:100A04002685EF106003B24022852244B7E700E058
:100A140023A02711924402494101828011E03E86BD
:100A240083A787FF4DB73E84E5BF37E700E01C434B
:100A3400B70620002320D718F58F0F10000019C126
:100A440091C111E637E700E02320F71082802E964B
:100A54000F70B650D5BF37E700E01C43B70620003F
:100A64002320D718F58F0F10000001C53307C500E8
:100A740011E637E700E02320F71082800505A30F75
:100A8400B5FEE31DE5FEF5B737E700E01C43B70606
:100A940020002320D718F58F0F10000001C599C13D
:100AA400014711EA37E700E02320F710054582806B
:100AB4000507E309E6FE3308E500B386E5000348CD
:100AC40008009422E306D8FE37E700E02320F7105D
:100AD4000145828037E700E01C43B706200023204D
:100AE400D718F58F0F10000001C53307C50019E6AC
:100AF40037E700E02320F710014582801421050523
:100B0400E398B6FEE31CE5FE37E700E02320F71088
:100B140005458280797126D29384018422D4804051
:100B240006D64AD04ECE52CC56CA5AC85EC662C405
:100B340045C837C9C901814B938A81831309F937A1
:100B4400173B0000130B8BA397390000938989A0EE
:100B5400173A0000130A8AA73E2099EF5C44639A6F
:100B64000B009CC0032CC4002285EF00304162843A
:100B7400A9A823A6FB00FDB783A70A0082971C44FB
:100B84003307F5406376F50003278A001D8F2A9703
:100B9400636BE9069737000023A6079C2E200820E4
:100BA400EF0090695C405844A1CB0C441736000018
:100BB400032646A2AE97BE8663E4B70063E4C7008B
:100BC400B386C74014C4A28B3A8459F41737000083
:100BD400130747981C4B854663FBF604FD171CCB93
:100BE400B250225492540259F249624AD24A424BB8
:100BF400B24B224C4561828063940B0098C09DB730
:100C040023A6EB0085B703274B0219CB63EDA7009E
:100C14003385A74083A709016374F50023A8A900BD
:100C2400A28B40445DB703278A00BA97D5B797379C
:100C3400000023A907926DB70111B7E700E04AC885
:100C440003A907003707200006CE22CC26CA4EC6C9
:100C540052C43379E90023A0E7180F100000973439
:100C640000009384A4969C288844A9CF9737000059
:100C74009387479C03D7C70A31C703A4870A630332
:100C8400A404973900009389E98C83A70901638838
:100C9400A70E138A818383270A008297636EA40CAC
:100CA40083270A00098C829783A709019844335447
:100CB400F40AB307A4003E8563E4870063E4E70015
:100CC4003385E740B7E700E023A027119C44639BEA
:100CD400A702173400001304E487184883A781830C
:100CE4006311A70A82979444374736FE130707C84F
:100CF4003697B307A7003E8563E4E70063E4D700B3
:100D04003385D740173400001304C4B55C5C89CB29
:100D140083A641879C463707CDFF7D17F98F9CC674
:100D240011E1884485475CD09737000083A7478743
:100D3400829715E15C5C99CF5C5089CF975000E0B5
:100D4400E780A045975000E0E780E0E79737000090
:100D540023AC07B2C1335C5C81CB03A741871C473A
:100D6400B7063300D58F1CC7F2406244D2444249CF
:100D7400B249224A056182809C443E9415B722857B
:100D840091B7829714489844B387A6003E8563E4DC
:100D9400D700E3E9E7F63385E740ADB723A6A182A0
:100DA40001C585472388F182828083A7C18281CFD0
:100DB400411106C6829783C7018399E323A6018262
:100DC400B2404101828083C7018381E723A6018267
:100DD40082808280411122C426C206C64AC097344A
:100DE4000000938424A883C734021724000013044A
:100DF400A47CB9C3172400001304C4751389418467
:100E0400032709001C2014300146B3A5E7208E21D6
:100E1400A5C911C21CA00820636BD5069727000042
:100E2400238A077283A78183C5E7B2402244924490
:100E340002494101828082971C40F5FF97270000F8
:100E440083C7C77999EFDC48858B81CFD84C994704
:100E5400631DF7009737000023A007A2FD215C441F
:100E640082971C44C1DB829771B7D84C9D47E31A23
:100E7400F7FE9737000023A107A0C1291C48CDB76E
:100E8400850793F7F70F0546E3E1D7F861B73327F2
:100E9400E5200E23231007002399018283A7C18331
:100EA400B347F5209C4382971C208326090003D76F
:100EB40021833377E540B3A6D7209222518F9AA29B
:100EC40099C385071CA018201C30E360F7F6B9B756
:100ED4009727000083A707701CC82D3983C73402E5
:100EE400A9F783C7140299CBDC4C89EB9737000030
:100EF400A38A0798975000E0E78020DF9727000037
:100F040083A7076A9DD3D84C9147E3E0E7F297277C
:100F1400000083C7A770918BE39907F083C701830F
:100F2400E39507F018308326090063C8E7002244DC
:100F3400B24092440249410101B333A6D7201222A0
:100F4400E31506EE8507D5B7B7C700401387C7205A
:100F540014431396264910C3010001009387872682
:100F6400172500000325C5609C436A0514C393C775
:100F7400F7FF99835D8D828017260000130646676C
:100F8400972600009386C668DC36383E4C4ABA97EA
:100F9400FD8B33D7F5001CB2DCB6058B0DE7943A14
:100FA40013050002B3F7D702814633D8E548630935
:100FB40008006394D70018B28280850693F6F60F72
:100FC4000507E314A7FE82809737000083A7C78A2A
:100FD400D1E341114AC083A7818306C622C426C235
:100FE4008297172900001309A96283278900638D5A
:100FF400A7046363F5041D8D972400009384445F64
:10100400BC2C135455006361F404BD37BC2C032776
:1010140089009396570036971D8C2324E900E376C4
:10102400F4FE22448830B240924402498145410191
:10103400173300E06700E3DA172700000327875916
:10104400B307F7403E954DBFB24022449244024953
:10105400410182808280011126CA83A7818306CE42
:1010640022CC4AC84EC652C4829797240000938467
:10107400245A9844AA870145630DF70463E3E706FD
:10108400998F172900001309A95693F9F70113D46E
:1010940057008347A901636AF402172A0000130A60
:1010A400EA52D93D0347A9018C4403268A009317C9
:1010B4005700AE97198CBE8663E4B70063E4C7009B
:1010C400B386C74094C4E37EE4FC1315540033652F
:1010D4003501F2406244D2444249B249224A056190
:1010E40082809726000083A6E64E3387E640BA97AF
:1010F40049BF0000EFF07FCB730000000000000048
:10110400938201830383020023800200630F0300A0
:10111400F32510342EC0970500009385E5FD7390E8
:101124001534EF0020557300203086DCEF00805426
:10113400E6508280000041114AC01389818503274B
:10114400090026C206C61C5F22C49384418593D736
:101154006748B5CF930700061CDF1724000013046B
:101164006470184C930700086317F7009C409C4375
:1011740093F707041CCC1C4093F7070489CB83A77F
:101184008183829748D81C4093F7F7FB1CC01C400E
:1011940093F7070289CF1C4003A74186B7060800CE
:1011A40093F7F7FD1CC05C5414C786077CD71C4812
:1011B40093F7070489EF85475CC83707020083A7C4
:1011C400418698C71307000C18C81854F8D383270E
:1011D4000900985F1357474811CF985F13670701B9
:1011E40098DF83A7418623A20706854717270000B7
:1011F4002322F7689C40D8431357174819C7D8438C
:10120400759BD8C3D843799BD8C3B2402244924437
:10121400024941018280053773002030972700007E
:10122400938747643707040088DB698F01CF03A7DE
:101234004186FD5634D7972600009386A631D84EB2
:101244000507D8CE1377850019CF984783A68185E3
:101254001367170098C71307000898CBD856719BDB
:1012640013671700D8D61377150001CFD84383A688
:10127400818513671700D8C3D856719B136717006D
:10128400D8D61377650019CF1377450059C398430F
:101294001367170098C383A68185D856719B13677B
:1012A4001700D8D64167698F0DC39726000083C6FF
:1012B400A63FC18A172700001307C737A5C2834674
:1012C400470793E60602230AD70637070200698F09
:1012D40001CF984B1377070819C3054798CB83A709
:1012E40041863707020098C7B70708007D8D0DC1F6
:1012F400172700000347573B058B97270000938768
:1013040067331DCB03C7570713672700A38AE70674
:101314008280D84713671700D8C7B5BF83464707ED
:101324000946BD8A6388C600834647070D46BD8AC1
:10133400E39DC6F8914641BF03C75707118B69DB8C
:1013440003C7570713678700D1B783A6418697273A
:101354000000938727519843058B19E7D843058BE1
:1013640001E7F8526DFBDC4B9727000023A60750DA
:101374008280938681852A8788421C5D93D757484B
:10138400D1E781C51C59BD839CA115C69C42945BC1
:10139400C60693D7660163D6060093E707C0B3C7B2
:1013A40007088316060093975760B9C6BE96894707
:1013B400B3C6F60216A283A74186BC4B083393D763
:1013C40057488DCF29C59726000083A6264B93F650
:1013D40006049307950009459DCABA979C230547BF
:1013E400194593F6F7066394E6020145939747601F
:1013F40063DF0700394582801EA275BF2A974833F0
:101404001375F5077D153335A0008280054582806C
:1014140083A7C18599CB944BD04B9842518F98C2E6
:1014240094439C479842D98F9CC2138641860548B1
:10143400184283A68185972700009387A742631DDE
:10144400050388421365050888C283C62702B3C50D
:10145400D5209385A50C54471395164948C70F10FA
:101464000000184237060200860510C7130600085C
:1014740090CB6CD354C7828088421375F5F788C229
:1014840083C62702B3E5D5209385E50EE9B741115C
:1014940026C2AA8706C622C42E8593844186B285B5
:1014A400D9EB9C40F8537DFF3707020098C7972774
:1014B400000023AD073AB7E700E03707200037F410
:1014C40000E023A0E728130404D01C48ED9B1CC8AB
:1014D4001C4893E787031CC873005010153F83A76B
:1014E400818598431317772998C3D857719BD8D708
:1014F4009727000023A207389727000023A6073662
:101504009C40094798C31C4893E787001CC8730094
:1015140050109440172700001307C7341C47858BCD
:1015240091E75C47858B99E3FC52EDFBB240224482
:101534009244410182800D476398E7049727000095
:1015440023A607329727000023A40732B7E700E059
:101554003707200037F400E023A0E728130404D061
:101564001C48ED9B1CC81C4893E787031CC87300E8
:101574005010793D83A7818598431317772998C321
:10158400D857719BD8D741B70547E394E7F837F7A5
:1015940000E0130707D0144BED9A14CB144B93E6D9
:1015A400860314CB73005010984050479316164985
:1015B40054C70F1000009840B706020014C79306E2
:1015C40000089725000023A7D52A83A68185944285
:1015D40093D67648639FF6009307E0187CD350C7F0
:1015E40037F700E0832707D193E787002328F7D054
:1015F40039BF9307E01ADDB783A7C18589CFD443E8
:1016040003A8870098423367070198C2D447DC4B8C
:101614009842D98F9CC2054783A781859505631B92
:10162400E50298431367070898C3984F137707C0D8
:101634001367A71398CF13078007B8BB9397350098
:101644009387C70319C29317160017270000232F87
:10165400F722828098431377F7F798C3984F13774C
:1016640007C01367271398CF1307F007B8BB9397E6
:101674004500F9B783A741868847D847798D11C5B6
:1016840088C783A7018691C382878280896703A75D
:101694004186938707F47CD383A6418783A70609F1
:1016A40093D7A74991C783A7060993D7974999E385
:1016B4007C53EDF782804111B7E700E022C48043F8
:1016C4003707200006C6798C23A0E7180F10000006
:1016D40011C199E5B7E700E023A08710014549A8A7
:1016E4000D0533450508130740037199B3470508F1
:1016F4006362A70203A5418883A6C187639FA600EE
:1017040017270000032787EA71D7C207DD8D054537
:101714000297C9B703A50188C5B77A2131EF5A21C9
:10172400636CF704B306F74021481726000013063C
:1017340066E26375D8028328050003586600938621
:1017440087001D8FAA966117DAA223A0160123939E
:10175400060014C15EA1130788FF7AA27A226EA143
:101764002105B307F7407EA2B7E700E023A0871066
:10177400B240224441018280084149B7B7E700E002
:101784008C433707200023A0E718F98D0F100000C1
:1017940001E523A0B710828003A3418883A8C187F1
:1017A4009A87814663F8170903A807006367F50859
:1017B4006365A80813878700636EE506F223216733
:1017C40005076317E600138681881822050718A207
:1017D40017250000130505D8D2237A212393070087
:1017E4003297334707087AA16383670203A301880A
:1017F400630FF30003D36600631B0300DE2223A000
:10180400060121073E962106D2A27AA1B687984303
:101814006302170383A60188630ED700762399EA2F
:10182400D62352231843A106B296D6A398C37E2189
:10183400A1077EA1B7E700E0A9BFBE86C2879DB716
:10184400AA8703A5018411E182803A216315B700B8
:101854001821E30BF7FE4845FDB7411122C406C623
:1018640026C24AC02E848DCD13F915008147414705
:1018740063020904131745003E97B1463307D702A4
:1018840083A48184B317F02833C90708BA949C4011
:10189400C840829723A0040023A204003344890093
:1018A400B240228522449244024941018280B356C7
:1018B400F448E9F28507E39CE7FECDB7011126CA97
:1018C40006CE22CC4AC84EC6AE84A1C593F71500F5
:1018D40001444147B1CB93174500A2973147B387E1
:1018E400E7029389818403A909003E9983270900AB
:1018F40081C703254900829731473307E40283A750
:101904000900BA979C478DC733148028B34704084D
:10191400BD8CF24062444249B2492685D2440561F5
:101924008280B3D68448C5FA0504E31CE4FECDB72F
:101934002320090023220900C1BF7971B7E700E021
:1019440022D4804352CC06D626D24AD04ECE56CA92
:101954005AC85EC662C43A8A37072000798C23A02D
:10196400E7180F10000005E123A087100945B250C5
:10197400225492540259F249624AD24A424BB24B1F
:10198400224C4561828083A78183B6892A89AE8AE5
:10199400328B938B8184829703A70B008144B146D9
:1019A400C147338CD4023306870110422DEEC16542
:1019B400938505F04145013319ED9727000083A76E
:1019C400E7BE81C7814511458297B7E700E023A0B0
:1019D40087102D4569BF138701841C43A1E308C305
:1019E40023000500B31790283EA183A70B002326EC
:1019F40005002324650123224501E29723A0270142
:101A040023A2570123A4470163840900238099007A
:101A1400B7E700E023A08710014591BF3E87DC476C
:101A2400F5FF48C775BF8504E39DF4F6B7E700E00A
:101A340023A08710214525BFB7E700E09843B706E8
:101A4400200023A0D718758F0F10000097260000E0
:101A540083C656B0637DD50083A641843325D52043
:101A64001621D58D0EA123A0E7100145828023A065
:101A7400E7100D4582800111B7E700E022CC8043D6
:101A84003707200006CE26CA4AC8798C23A0E71857
:101A94000F100000BD4763E7A70431473307E50291
:101AA40083A78184BA979C4395CF3315A0282E89A8
:101AB400B345050801452EC66133AA8409C9B24558
:101AC4000145971000E0E780C07423A42401B7E720
:101AD40000E023A087100145F2406244D244424909
:101AE40005618280B7E700E023A087100945EDB7C0
:101AF400938641869C42B84B1377F78FB8CB9843B3
:101B04001367870098C39C4393D7374889C701005C
:101B140001000100010003A781851C4393F7F7CF5F
:101B240093E707101CC303A641871C463707CEFF63
:101B34007D17F98F1CC69C4237070300B8CB83A7D7
:101B4400C18599CBD44390479842518F98C2944B06
:101B5400DC4B9842D98F9CC29727000023A207D25E
:101B6400828083A741869C438D8BE9C74111B7E7E7
:101B740000E04AC003A9070026C23707200006C6B2
:101B840022C4AA843379E90023A0E7180F100000C7
:101B940017240000130404CD584C8D47631AF70032
:101BA4009727000083A7C7A501468145454582972D
:101BB40019476391E4048347140289CB83470402E1
:101BC4006396970097270000A38E07CA584CA14735
:101BD4006315F700930780101EB023880182093F24
:101BE400B2402244B7E700E023A0271192440249FF
:101BF400410182809D47639BF40083471402F9D717
:101C0400034704028D47E313F7FC6DBF544C63890B
:101C1400E600584C6306F700584CA147E31FF7FA57
:101C240083471402DDFB5C4C2300F4028547A300C8
:081C3400F40265B78280000094
:101C3C00971100209381C18617E101201301C13B4C
:101C4C001305400097E5FF1F9385053B17E6FF1F23
:101C5C001306865863FAC5008322050023A055009D
:101C6C0011059105E3EAC5FE17E5FF1F1305054CA9
:101C7C0002852A8309CA83830500230073007D161D
:101C8C00050385056DFA82802A8311C62300B300F3
:101C9C007D16050365FE8280B717004003C77705E4
:101CAC001377E70FA38BE704130700F8A38DE70462
:101CBC003D47238CE70413075003A38CE70403C7A9
:101CCC00A7051377D70F238DE704828037170040C1
:101CDC008347E70412054111BD8BC98F93F7F70FAA
:101CEC0093068008F3B6068093F6860836C6010084
:101CFC000100930670052300D704930680FA230095
:101D0C00D704010001002307F70423000704B2479E
:101D1C00F3A707800100010041018280B717004042
:101D2C0003C7E7020D8941111377C70F498F93063B
:101D3C008008F3B6068093F6860836C601000100CB
:101D4C00930670052380D704930680FA2380D7046A
:101D5C00010001002387E70223800704B247F3A7A1
:101D6C000780010001004101828041112A83014852
:101D7C00930E407E130F0019930F4006B3480308CF
:101D8C0063EF1E0113030019337365028542FD4393
:101D9C0063F6B2088D4F214F930E4006A1A07D1320
:101DAC00336EE3039308E016630E0E00336EF303F9
:101DBC009308D01663080E009378330093B818007C
:101DCC009388D816C29833C808084DBF93F81500ED
:101DDC00138EF5FF637CBF02F908C29833C808085C
:101DEC00B3450E08E394F5FF8545630B0300B37808
:101DFC00D5038145638608009375350093B51500AE
:101E0C00F105C29533C805088945E9BFB38813416C
:101E1C00C29833C80808B3450E089DBF7D1632988A
:101E2C0079463307C70213D61700BE073348080894
:101E3C0032976146B3F6C60213068070B386C602AB
:101E4C003697A166F58F4207D98FB716004003C7A6
:101E5C00F60213770708D883908303C7F60213772B
:101E6C000708E316E6FE9883B71600404DCF13071C
:101E7C00800873370780137787083AC40100010084
:101E8C0037170040930670052300D704930680FA99
:101E9C002300D70401000100232A070383461703FC
:101EAC0093E60608A308D7022300070422477327EA
:101EBC000780010001001166371700407D16545B46
:101ECC004C5FAD8EF18EE5FE93068008F3B606806E
:101EDC0093F6860836C601000100930670052300B0
:101EEC00D704930680FA2300D704010001005CDBC1
:101EFC008347170393E70704A308F702230007049B
:101F0C00B247F3A70780010001004101828003C79B
:101F1C00F60213770708D883908303C7F60213776A
:101F2C000708E316E6FE98837DD391B755714EDF13
:101F3C0086C7A2C5A6C3CAC152DD56DB5AD95ED725
:101F4C0062D566D36AD16ECFAA8982C0EF00B01376
:101F5C0093078008F3B7078093F78708BEC2010088
:101F6C000100B7170040130770052380E70413071F
:101F7C0080FA2380E7040100010003C7F7021377FE
:101F8C00770FA387E70203C7F70213678700A387BE
:101F9C00E702238007049647F3A70780010001009E
:101FAC00130A803E334A45039307007D2167930A49
:101FBC00D0FD9546B307FA02B3C7E702B30A5A033A
:101FCC003EC8FD873ED2BD67938707A6B3CAFA0207
:101FDC0013D7FA413ACA330750413AD47D873ACCE9
:101FEC00130760043307EA02B347F70205671307C8
:101FFC0007FA3ECEFD873ED6938729003319F700AA
:10200C0063E436013319370161671307076A3345F7
:10201C00E50213070010B317F0288D873EC49547CF
:10202C003309A9023349E902130740063309E902CF
:10203C00130700083349E9021357F9413AD833170B
:10204C0030290D873AC663E1374993075047B307E8
:10205C00F7023D67130707A6116C014B814B130464
:10206C008008371D0040930480FA7D1CB38747031A
:10207C00B3C7E7023ED0FD873EDA7337048013778F
:10208C008708BAC401000100130770052300ED0492
:10209C00930D0D0423009D040100010003473D0531
:1020AC001377870FA309ED0403473D05136717004A
:1020BC00A309ED0423000D042647732707800100B4
:1020CC000100930C70057337048013778708BAC628
:1020DC0001000100930770052380FD0023809D0003
:1020EC000100010003473D0513670702A309ED0436
:1020FC0003570D051317E7282318ED0403570D0597
:10210C001317F7282318ED0423800D003647732787
:10211C0007800100010003473D051377070263099F
:10212C00073A03473D05218B6DDF8800E1277337A4
:10213C00048013778708BACA0100010023809D012F
:10214C0023809D000100010003473D051377F70D27
:10215C00A309ED0403473D0513670702A309ED042A
:10216C0003570D051317E7282318ED0403570D0526
:10217C001317F7282318ED0423800D0056477327F7
:10218C0007800100010003473D0513770702630830
:10219C00073603473D05218B6DFF97E0FF1FE78056
:1021AC00E04A2A873ADC97E0FF1FE780204A625713
:1021BC00E30AE5FE03570D0506451317E728231818
:1021CC00ED04B92703473D05218B6DDF03570D0542
:1021DC0083462D05C24733778701B386860313D612
:1021EC00F641BA96B388F640925733B7E600329769
:1021FC001D8FD247B3B61601158F63C6E700631C5B
:10220C00F70063FA1A01E2476342F7326395E7007D
:10221C00A25763EDF830894663FC7631733704803E
:10222C0013778708BAD0010001001307700523004B
:10223C00ED0423009D040100010003473D0593F6C6
:10224C00F90F1377870FA309ED0403473D05558F4D
:10225C00A309ED0423000D04065773270780010022
:10226C0001001306700503473D051D8B631A3735B6
:10227C007337048013778708BAD401000100130761
:10228C0070052300ED0423009D04010001000347A9
:10229C003D051377F70DA309ED0403473D051367BF
:1022AC000702A309ED0403570D051317E72823189C
:1022BC00ED0403570D051317F7282318ED0423001D
:1022CC000D04265773270780010001009306700543
:1022DC0003473D0513770702630E073003473D059F
:1022EC00218B6DDF880039257337048013778708BD
:1022FC00BAD801000100130770052300ED04230078
:10230C009D040100010003473D051377F70DA30958
:10231C00ED0403473D0513670702A309ED040357BA
:10232C000D051317E7282318ED0403570D05131794
:10233C00F7282318ED0423000D0446577327078054
:10234C00010001009306700503473D051377070252
:10235C00630D072C03473D05218B6DFF97E0FF1F95
:10236C00E780C02EAA8C97E0FF1FE780202EE30C9D
:10237C0095FF03570D0506451317E7282318ED04A1
:10238C00412B03473D05218B6DDF73370480137799
:10239C008708BADC01000100130770052300ED0467
:1023AC0023009D040100010003473D051377F70D41
:1023BC00A309ED0423000D04665773270780010061
:1023CC00010003570D0583462D05C257337787014E
:1023DC00B386860313D6F641BA9633B7E600329726
:1023EC0033882641B3B606011D8F158F6346E00076
:1023FC0063180726630608261305800C3307E502CD
:10240C000256D256B335050333050503BA95EF4092
:10241C00F0039306150033B5A6002E951357F5015E
:10242C00BA9633B7E6002A971316F701858205870B
:10243C00D18E6346E000631B072C6389062C035680
:10244C00CD021582B305D60033B6C500329763486A
:10245C00E000631C07341307F00F6378B7340947A7
:10246C00637D672593078008F3B7078093F7870888
:10247C00BEDE01000100B717004013077005238072
:10248C00E704130780FA2380E70401000100DA3720
:10249C0089668116558F33470708DAB723800704FE
:1024AC00F657F3A7078001000100BE402E449E445E
:1024BC000E49FA596A5ADA5A4A5BBA5B2A5C9A5C38
:1024CC000A5DFA4D6961828022479307504741B6F5
:1024DC007337048013778708BAC801000100238082
:1024EC009D0123809D000100010003473D051367FA
:1024FC000702A309ED0423800D00464709B9733781
:10250C00048013778708BACC0100010023809D0159
:10251C0023809D000100010003473D05136707025E
:10252C00A309ED0423800D00664791B9E3980BCE07
:10253C007246B2569315170013D3F8011395180071
:10254C00B365B3003ADE46DCEF4040707257850B42
:10255C0093FBFB0F6346E00031EFE258638C0804F9
:10256C009306150033B5A600AA9513D7F501BA96B4
:10257C0033B7E6002E9785827E07558FF33604809D
:10258C0093F68608B6CE0100010023809D012380BE
:10259C009D00010001008356CD0236973347070892
:1025AC002316ED0223800D00764773270780010068
:1025BC00010011BE9306F5FF13351500898D75B713
:1025CC007337048013778708BAD201000100230007
:1025DC00CD0423009D040100010003473D05558FE8
:1025EC00A309ED0423000D0416577327078001007F
:1025FC00010095B97337048013778708BAD60100A8
:10260C0001002300DD0423009D04010001000347A9
:10261C003D0513670702A309ED0423000D0436578B
:10262C00732707800100010065B1733704801377AD
:10263C008708BADA010001002300DD0423009D04A1
:10264C000100010003473D0513670702A309ED04D0
:10265C0023000D0456577327078001000100EDB1CC
:10266C009305800C3387E502130650473385050329
:10267C00B3B50503BA951547637F3703A247338675
:10268C00C7023D67130707A63306CA023346E602A4
:10269C009356F641EF40805B1306F5FF133515009A
:1026AC00898D13D7F5013A963337E6002E9793169A
:1026BC00F7010582ADBBB247D9B713078008733752
:1026CC000780137787083AC101000100B716004054
:1026DC00130770052380E604130780FA2380E604B1
:1026EC0001000100DA36056601161377F70F518FDA
:1026FC0033470708DAB6238006040A477327078096
:10270C0001000100050B137BFB0F85BA33E6E600D5
:10271C0049CE0356CD02B335D0003307E0400D8FC0
:10272C003305D04015826345E00041E3637FA60684
:10273C000947637E670393078008F3B7078093F715
:10274C0087083EC301000100B7170040130770054E
:10275C002380E704130780FA2380E70401000100BB
:10276C00DA377D8BDAB7238007049A471DBB7337A2
:10277C000480137787083AC5010001001307700520
:10278C002300ED0423009D04010001000357CD023A
:10279C00856681161377F70F558F33470708231675
:1027AC00ED0223000D042A4791BF93078008F3B76D
:1027BC00078093F787083EC701000100B717004058
:1027CC00130770052380E704130780FA2380E704BE
:1027DC0001000100DA379606369733470708DAB757
:1027EC0023800704BA4775B9914763ECB704976720
:1027FC000000938767F4B3C5F52098413E97B7174F
:10280C0000409387470B0287944337170040B3F679
:10281C00A64094C39306070B9C42B3F7A74019A894
:10282C00944337170040B3F6A64094C39306070BA6
:10283C009C42C98F9CC29307070A98433377A740E1
:10284C0098C38280944337170040C98ED9B79843F8
:10285C003377A74098C3B71700409387070A98436C
:10286C00498FF9BF9843498FF5B719C53717004001
:10287C001E2FCD8F1EAF8280B71700409A2FB375D5
:10288C00B7408EAF8280B71700409A279306000C92
:10289C0021651377070C630ED7049A27137707105B
:1028AC000DC79A279E277D8B09EB93F7072095CFB1
:1028BC003755E80113050580828037C59812FD8BCA
:1028CC00130505E03345F50282809A279E2713777E
:1028DC000720FD8B11C73755E80113050580DDB7BF
:1028EC003725F40013050540F1BF3725F400130517
:1028FC000540828037E700E01C435443A183E20685
:10290C00D58F1CC1FD572320F7182322F71882807E
:10291C0013178500B7E700E023A0E710618123A21D
:10292C00A7108280B7F700E0884782803285814704
:10293C0037370040A14663C3A70082803037E30FCE
:10294C00D6FE3386F5001022850710A7EDB797F653
:10295C00FF1F9386E634AA878842171700201307B7
:10296C00A7F3AA9763E9E7000A87130707FC6364D8
:10297C00F7009CC282807D558280411122C406C61C
:10298C002A8411372947B307E502B2408D83B3D7A8
:10299C00870222449507B3D7E70237370040B3C705
:1029AC0007085EA74101828071654111130505205E
:1029BC0006C6E137B7370040130770F8B8A30D47C8
:1029CC00B8B31307000498B30547F8A7B240410108
:1029DC00828011456FF08FD5411193962500AA8501
:1029EC002D4506C697E0FF1FE780A08FB24001453A
:1029FC0041018280011122CC26CA939625002A849B
:102A0C00B284AA850146254506CE36C697E0FF1F3F
:102A1C00E780208DB2462686A285294597E0FF1FC8
:102A2C00E780208CF2406244D244014505618280EB
:102A3C00011122CC06CE3714004026CA4AC84EC615
:102A4C0052C483447405034AB4058349840503497D
:102A5C009405EFF06FA48347A40593F4F40F137A55
:102A6C00FA0F93E71700230DF40493F9F90F137978
:102A7C00F90FB717004003C7A705058B6DFF03D5EA
:102A8C00C705A38D4705238C3705A38C2705A38B7E
:102A9C009704F2406244D2444249B249224A056149
:102AAC008280411122C406C62E849397556063DE42
:102ABC00070097E0FF1FE780C0ED11C151251315EA
:102ACC00F468B24022444101828093F7150013C58B
:102ADC001500E5FB8967ED8F85C3EF306053D53D5D
:102AEC0037F60200130606E0896503C5C181EF00C5
:102AFC0040751315D468F1B711656D8D79D11765D3
:102B0C0000001305A5C4EF40502D13060064916519
:102B1C0003C5C181EF00E0721315E4685DB71D7148
:102B2C004946976500009385A5C2176500001305FB
:102B3C00E5D386CEA2CC97E0FF1FE78060F401E9D5
:102B4C0017650000130505C2EF40302901A037F7C7
:102B5C0000E023240700F9571CCB0564B7E700E01D
:102B6C0023A08710BD4614C323A0871801000100C1
:102B7C0017E7FF1F1307475823ACE180130700F832
:102B8C00A38AE7401306C0038145480897E0FF1F5E
:102B9C00E780E0EB97F7FF1F9387071B3ECA896717
:102BAC0093870780FC84A167938707E03ECEB70725
:102BBC000105938707103ED0ED472312F10285479C
:102BCC002303F10297070000938747E1BEC49707E0
:102BDC000000938767E2BEC6930754D12314F10219
:102BEC0097070000938747D43EDAB7F5070097079D
:102BFC000000938727E43EDE814697070000938709
:102C0C0087DD7000E1051945BEC097D0FF1FE78036
:102C1C00406D19466C001305E102EFF08F85D24729
:102C2C0081C7BC8463F3870001A04808EF0010152E
:102C3C00AA8501C917650000130505B4EF4040785B
:102C4C0001A0F64066442561828041111705000001
:102C5C00130565E506C622C4EF00B00F1384C181CD
:102C6C0008A0092808202244B240130600328965C6
:102C7C004101C1AB397106DE13078008F3370780B9
:102C8C0093F787083EC201000100B7170040930577
:102C9C0070052380B704130680FA2380C704010053
:102CAC00010083C6F70293F6A60FA387D7022380F1
:102CBC0007049246F3A606800100010073370780D3
:102CCC00137787083AC4010001002380B7042380DE
:102CDC00C7040100010003C7F70213672700A3878D
:102CEC00E70223800704A247F3A707800100010035
:102CFC000545EFF0AF82F139814701478146054622
:102D0C0085451305407EEFF04F86680013064002A0
:102D1C00814597E0FF1FE78080D3B707C0A83ECA64
:102D2C00B787E8033ECC97E7FF1F938707BE3EC6E5
:102D3C00680097E7FF1F9387C7BE3EC8EF00D025FA
:102D4C00F25021618280411122C406C62E849397D1
:102D5C00556063DE070097E0FF1FE78080C311C159
:102D6C00C5261315F468B24022444101828093F7C2
:102D7C00150091CB1306803E894503C56182D12194
:102D8C0013451400CDB793F72500A9C3EF20603984
:102D9C0017F5FF1F1305C5E91C219306F00F130649
:102DAC00F00FFD17A9451CA1A3820182EF1090170B
:102DBC0009E597E0FF1FE78000B91306803E8945BF
:102DCC0003C56182BD291345240071BF93F74500EB
:102DDC0095C7EF20003517F5FF1F130565E51C217E
:102DEC009306F00F1306F00F8507A9451CA123824B
:102DFC000182EF10F03513454400B5B793F7850009
:102E0C008DCB1765000013052599EF40007D4145DA
:102E1C00EF1060609387618209C913064006A145D3
:102E2C0088230521134584003DBF1306803E894548
:102E3C00C5BF13F50501E30805F21765000013057E
:102E4C006597EF4080791305800CEF20A06111C9C4
:102E5C0013060019C14503C56182E526134504011B
:102E6C0019B79306F00F1306F00FA94517F5FF1FBE
:102E7C00130505DC23820182EF10902DC5B7C947DD
:102E8C006304F50E411106C622C426C24AC063EC87
:102E9C00A70291476304F50463E0A70289472E84D7
:102EAC00B2846301F5048D476309F50EB2402244E8
:102EBC009244024941018280C547E319F5FE8547DA
:102ECC00A382F182E5B7930720026303F50A930707
:102EDC0040026300F514D147E31AF5FC85472382C1
:102EEC00F182E9B78547A382F182A9E9830506003F
:102EFC00176500001305C58C176900001309098EAE
:102F0C00EF40004C8C30176500001305A58CEF408A
:102F1C00204B9C30636AF4002244B2409244024934
:102F2C00294541016F40604DB3878400AC234A852D
:102F3C000504EF40E0481374F40FE1BF93F715005C
:102F4C0099C7176500001305A589EF40006909882A
:102F5C0031DC2244B240924402491765000013054B
:102F6C00E58841016F4060678547A382F1828280CA
:102F7C008547176500001305A588A382F182EF40F1
:102F8C00C065A1452244B2409244024903C5618206
:102F9C00410117F3FF1F6700A3A9B1E997E0FF1FD9
:102FAC00E780809C838504001765000013058586E7
:102FBC001769000013098982EF4080408C30176537
:102FCC00000013052581EF40A03F9C306367F4009F
:102FDC002945EF408042914575B7B3878400AC23F7
:102FEC004A850504EF40C03D1374F40FF9BF93F705
:102FFC00150099C7175500001305857EEF40E05D5D
:10300C00098871D8175500001305457EEF40E05C28
:10301C00D9B71765000013052581EF40005C854783
:10302C002382F182C145B9BF797113060002814533
:10303C000A8506D622D497E0FF1FE78040A117052A
:10304C000000130585D03123B7477671938797120B
:10305C003EC4B7575500938757553EC6FD573ECAD9
:10306C0085475C80970700009387A7E113846182F2
:10307C003EC8ED5708A0230EF1000A859147A30C1A
:10308C00F100EF106056AA85175500001305057B5B
:10309C00EF40003397E0FF1FE780008D17550000CD
:1030AC001305057BEF4060530820A14597F0FF1FE7
:1030BC00E7800098B250225445618280411111453D
:1030CC0006C6EFE0BFC01305503497D0FF1FE78052
:1030DC006059B7170040116723ACE70AC145054595
:1030EC00EFF0AFF885452165EFF00FF08D451165D8
:1030FC00EFF08FEFEFF05F8B17550000130505769F
:10310C00EF40A04D1755000013054576EF40E04CFD
:10311C003934253EEF20B00C013F97E0FF1FE780CC
:10312C00C086184183A785FF6319B7001CC1FD57E2
:10313C0023AC05FE238FF5FE8280232CF6FEC5BF43
:10314C00411122C437E400E026C2044037072000B6
:10315C0006C6F98C2320E4180F10000009E923207F
:10316C0094101545B2402244924441018280034799
:10317C00E5FF9307F00F6306F70023209410114529
:10318C00D5B797E0FF1FE780E05E01452320941040
:10319C00D1BF23A4018282804111B7E700E026C28F
:1031AC0084433707200006C622C4F98C23A0E718F5
:1031BC000F1000009707002083A7873D17F4FF1F0F
:1031CC00130444AE91C782971C40AA971CC021A03F
:1031DC0083A78183EDFB0840B74703009387D73F54
:1031EC003305F502B7A72600938737ECB2403E951E
:1031FC0008C02244B7E700E023A097109244410195
:10320C008280B7E700E09843B706200023A0D718C8
:10321C00758F0F1000009706002083C6F632637E70
:10322C00D50083A641843325D5201621B3F5B640AD
:10323C000EA123A0E7100145828023A0E7100D45C5
:10324C008280797122D437E400E04AD0032904004B
:10325C00B707200006D626D24ECE52CC56CA5AC834
:10326C005EC63379F9002320F4180F10000097077D
:10327C00002083C7772D6376F50083AB818363973A
:10328C000B00B7E700E023A0271199A0970A0020B4
:10329C00938A0A3303AB8A00B74736FE938707C875
:1032AC003E9B83D7CA002E8AAA84B385C702B289F3
:1032BC008146B3B7C70213850532B335B500130683
:1032CC000064BE95EF3030566370AB02232024119E
:1032DC000145B250225492540259F249624AD24AE0
:1032EC00424BB24B45618280829B83D7CA002A84B1
:1032FC0013060064B38537038146B3B737031385D0
:10330C000532B335B500BE95EF30F051B3078500EB
:10331C0003A78A003E8463E4A70063E4E7003384D8
:10332C00E740D285268597E0FF1FE780E05001C972
:10333C0000C5B7E700E023A02711054559BF93E569
:10334C0004F04145B3C5050897E0FF1FE780203620
:10335C0011E99707002083A7A72485D7A6851145D7
:10336C00829705B7138701841C4389EF08C38547EF
:10337C002326050000C52311450104A11CB12322FD
:10338C00050045BF3E87DC47F5FF48C7CDB70111A7
:10339C0026CAB7E400E04AC803A9040022CC4EC6F2
:1033AC00B707200006CE52C4AA892E843379F900BF
:1033BC0023A0F4180F10000097E0FF1FE780C04710
:1033CC00170A0020130A4A181DE1A2854E85153DE7
:1033DC0083470A006380370523A024111945F24066
:1033EC006244D2444249B249224A05618280231187
:1033FC000500A2854E85313583470A006386370167
:10340C0023A024110145E1BF138721831E23C18F03
:10341C001EA3FDB7938721839A23598C82A36DBF7A
:10342C00411106C623AAA1820295B240970700203B
:10343C0023A8A712014541018280914763E9B70097
:10344C009707002093878716B3C5F52088C1828023
:10345C00411151468145170500201305251506C657
:10346C0022C426C223A0018423AA018223AC018298
:10347C002388018223A6018297D0FF1FE780205D5D
:10348C00130680028145170500201305E50B97D024
:10349C00FF1FE780C05BEF30206297070020938707
:1034AC00270DE82BFC3B170400201304E409854589
:1034BC003E958D473305F5029947938481843905F0
:1034CC001375F50F28A03305F502130505243345B4
:1034DC00050897E0FF1FE780801D88C035C53020A8
:1034EC00994781453306F6021306062497D0FF1F31
:1034FC00E780E0559C4038209384C1839387072450
:10350C009CC0B347F72023A2F184613185261C307F
:10351C00944017E6FF1F1306E63933C7D72010C3B4
:10352C00138717001377F70F17E6FF1F1306663282
:10353C003347D72010C313873700890718B093F788
:10354C00F70FB3C7D72090C3B24022449244410135
:10355C00828097060020938626FF2A87BC22883219
:10356C00637BF5001306150083A7C18390B2B347A4
:10357C00F52098C382801305F00F82801C41F5C79B
:10358C00370700F07D8FB706002089476310D70EF0
:10359C005A21411122C406C62A8479C319469305BF
:1035AC00F00F690597D0FF1FE780405205478D4704
:1035BC006308E50A1C4491C75858994755C3185CD1
:1035CC0045C31306C003814517050020130545FAB2
:1035DC0097D0FF1FE780A0471306C003A2851705ED
:1035EC0000201305E5F897D0FF1FE780804397076D
:1035FC0000209387E7F7DA2701E713070010DAA713
:10360C00F82719E30547F8A79A2B19E36D479AABEE
:10361C00F83719E31547F8B7B82B19E30547B8ABDA
:10362C00B83B19E3F837B8BBD83B11C793763700D2
:10363C000983F4ABF8BBD82B19E35547D8AB182C3E
:10364C0001E71307C00398AF9C5791C78297970760
:10365C000020239FA7EEFD57238CF186D53B814795
:10366C00B24022443E854101828089473E8582805A
:10367C0079714ECE97090020938989F483A70900AC
:10368C0006D622D426D24AD052CC82971309006493
:10369C00B335250303D6C9008146170A0020130A47
:1036AC00AAEA32C633052503EF30F01783248A01CA
:1036BC002A8401456386840232463305944063EFC5
:1036CC00840003A589008146B335A9023305A902FC
:1036DC00EF307015B307954033858700232C8A0093
:1036EC00B250225492540259F249624A4561828086
:1036FC00411122C426C22E84AA8406C6058C693CBC
:10370C00B327A402B2402244338597001375F50FFA
:10371C00924441018280411122C426C22E84AA8483
:10372C0006C6058C953CB327A402B24022443385CF
:10373C0097003345050892444101828041114AC0EB
:10374C00170900201309C9E28327890206C622C47F
:10375C0026C28DCF8297970400209384E4DE9E24AA
:10376C002A848DC733F7A70A33470708B3D7A70AAC
:10377C00B3C70708B307F74051476359F7008327CE
:10378C00C90291C38297EF20B00882A4B2402244B0
:10379C009244024941018280011122CC23A601846A
:1037AC00170400201304C4DC5C5406CEAA8581C720
:1037BC002AC68297B245B5CD9C410545BDC79C45EF
:1037CC00ADC7DE25BDC3FE25ADC39C2981CB7C28AE
:1037DC007838BA97634BF504DC41A1CB1306400251
:1037EC00170500201305C5DD97D0FF1FE780602368
:1037FC00970700209387C7DC984323ACE182183CE1
:10380C0019EFCA279307805737460F003305F50287
:10381C001306062481468145EF30F00008BC1705DD
:10382C000000130525E5ED3E0145F24062440561BB
:10383C0082809707002023A707D297070020938741
:10384C0027D817D7FF1F1307A76F98C337873200E6
:10385C00FD56130727A194C7D8C7970700202389C3
:10386C0007D6B7C7004023A4D72659B7011122CCDD
:10387C00170400201304C4CF084406CE26CA4AC835
:10388C0001E90545F2406244D24442490561828017
:10389C005C58E5DB185C75D7700085458297184439
:1038AC00B247E300F7FE4A249305E0041709002011
:1038BC00130989C997E0FF1FE78060DF2320A90265
:1038CC0069D152249305F00F814497D0FF1FE780F4
:1038DC0000187C240326090263C1F402328597E0A8
:1038EC00FF1FE78020E901459707002023AE07C69C
:1038FC009707002023AC07C671B74E241844B38732
:10390C009502898185043385E7001C5C08C2829787
:10391C00C9B7011122CC17040020130464C51C4440
:10392C0026CA4EC656C206CE4AC852C45AC0AA842B
:10393C00AE89B28A6388071A585839CB1307F01F1F
:10394C006366A710170A0020130A0AC003290A028B
:10395C00631209044A249565938515E097E0FF1FCF
:10396C00E780E0D42320AA022A861DC14E245C588D
:10397C000844898182971C4403290A022322FA02F3
:10398C008947639EF402C1479305090C6381F904CE
:10399C002945BDA003274A02E384E7FE4A24956526
:1039AC00938525E097E0FF1FE78060D02A896DD1D1
:1039BC004E242A865C58084489818297D1B78D475A
:1039CC00639AF404C1479305490DE393F9FCB821BC
:1039DC009307A0056312F7069E21639F97044E86FA
:1039EC009105568597D0FF1FE780A00383270A0215
:1039FC00638727014A8597E0FF1FE780A0D7014521
:103A0C00F2406244D2444249B249224A924A024BA1
:103A1C000561828091476397F4009305890EE399C1
:103A2C0099F675B793070010E394F4F6A147E3E118
:103A3C0037F79305090F61BF83270A02E38A27F53D
:103A4C004A8597E0FF1FE780E0D299B71D67637F37
:103A5C00E506130705E099463347D7025624170BA2
:103A6C000020130B6BAE3307D702330AF700832702
:103A7C004B026396470103290B02631109024A2486
:103A8C009305E00497E0FF1FE78060C22A8909D103
:103A9C004E245C582A86898152858297914513075A
:103AAC00A00593F5C50FB307B900B4236399E602DB
:103ABC0096236394960291054E86CA95568597D0A7
:103ACC00FF1FE78000F683270B021DB7A166F916CE
:103ADC00E3E0A6EC3307E54051B7AC33D9B7832705
:103AEC000B02A9BF9705002083A505A8E38205EA70
:103AFC0091479306A00593F7C70F3387F500302342
:103B0C00E318D6E81223631B960091074E86BE95E8
:103B1C00568597D0FF1FE780C0F0D5B53C33E1BF89
:103B2C00970700209387C7A4984721C7985F31C394
:103B3C0085466310D504411122C4170400201304D8
:103B4C00A4A0105006C615C2CE27485089810297F2
:103B5C00085097E0FF1FE780E0C19707002023A5DE
:103B6C0007A09707002023A307A0B24022444101DD
:103B7C008280828001114AC8170900201309499FCD
:103B8C004EC68329890022CC26CA52C406CE56C200
:103B9C00AA842E84328A638D091A8327890399EBB0
:103BAC002945F2406244D2444249B249224A924ADF
:103BBC000561828083274903E5D79307F01F63E0F3
:103BCC00A70C970900209389299883A7090295CF00
:103BDC000325890083A749026395A7048947639F3E
:103BEC00F404C147E31EF4FA03A509021305050CFE
:103BFC009307A0053CA106A12286D285110597D07A
:103C0C00FF1FE78000E2014569BF0355C90093051A
:103C1C00E00497E0FF1FE78080A923A0A9024DF9DB
:103C2C0041B78355C9008327490303A6090289813B
:103C3C0082978327890023A2F9024DB78D47639A97
:103C4C00F400C147E31EF4F403A509021305450D66
:103C5C0045B791476399F400E31494F403A5090262
:103C6C001305850E71B793070010E39BF4F2A1477F
:103C7C00E3E887F203A509021305050F95BF9D67BD
:103C8C006373F506930705E01947B3C7E7020357BB
:103C9C00C900970A0020938A2A8BB387E702BE9942
:103CAC0083A70A02A1CB83A74A026391370703A516
:103CBC000A0291479305A0051308F00F13F7C70FDD
:103CCC00B306E500B0226313B60683D80600B03203
:103CDC00639C9804B307F64063C6870411072286D9
:103CEC00D2853A9529BF21677917E36BA7EAB30709
:103CFC00F54071BF0355C9009305E00497E0FF1F21
:103D0C00E780E09A23A0AA0259FD59BD8355C9004A
:103D1C008327490303A60A0289814E85829723A231
:103D2C003A0371B723900601B28749BF33868700E7
:103D3C0011061308F00B6374C8002D459DB5ACA299
:103D4C0013063400719A1106B29786A2BCB279B7E9
:103D5C0097F9FF1F9389497F83A709029DCB03A580
:103D6C00090291471308A0059305F00F13F7C70F2D
:103D7C00B306E500B0226310060583D80600B03206
:103D8C0063979800B307F640E3DA87F48EA2B28704
:103D9C00F1BF8347E9000355C9009305E0043305DF
:103DAC00F5023345050897E0FF1FE780409023A0FC
:103DBC00A90255F5F5B30356C9008345E900B3854F
:103DCC00C502338687001106E3E9C5F62381060197
:103DDC0085BF170800201308E8800345180003A7C7
:103DEC00418783A681851375F507D1C5904283273A
:103DFC004800137606F8498E90C213F6150001CAD6
:103E0C0093F5050341466385C506938787C14165D4
:103E1C00130505A0B3D5A7025057B70810FEFD181F
:103E2C001366260050D7704333761601B3F7A702FA
:103E3C00FD89D2054D8E70C31306A00FB705FCFF8C
:103E4C00AA07B3D7C70270436D8EBA07B983D18F57
:103E5C007CC383470800898B99CB98429C4213778B
:103E6C00F7071367070493F707F8D98F9CC2828072
:103E7C009387078369BF5C57F59B5CD79C4293F78C
:103E8C0007F8C98F9CC2F1B7411106C697F7FF1FFF
:103E9C002381077897E0FF1FE78000C5B2400145FA
:103EAC0041018280170700201307079B5C474111D3
:103EBC0006C6858B85C7C93F9707002023A4079AA0
:103ECC009707002023A2079A97F7FF1F83A78772F3
:103EDC00014681450545B2404101828783A7418651
:103EEC00FC5391EF55379707002023AF079697F7B0
:103EFC00FF1F83A72770014681454545E9BF584FF1
:103F0C008D476315F70085472388F182B240410144
:103F1C008280411126C2970400209384E4939C4430
:103F2C004AC006C622C4858B13894186F9CF9707F0
:103F3C00002023A7079203A741875C5717F4FF1FA4
:103F4C001304446A082093D71748A9CB50409376A2
:103F5C000503C145930786C16394B6009307068396
:103F6C00C165938505A033D6B7027443370810FE9C
:103F7C007D18B3F60601B3F7B7027D8A5206D18ECF
:103F8C0074C39306A00F3706FCFFAA07B3D7D7025A
:103F9C007443F18EBA07B983D58F7CC34C2C118531
:103FAC0001460D8997D0FF1FE7808064170500003C
:103FBC001305A50997D0FF1FE780C0DD83270900F3
:103FCC00D44713971649D8C70F1000008327090050
:103FDC003707020098C71307000898C803A7818504
:103FEC0018431357774819CF1307E018F8D3D4C7E1
:103FFC001C480146814505452244B2409244024981
:10400C00410182871307E01AD5B783270900FC53B7
:10401C0091EF9D3D9707002023A8078497F7FF1F7A
:10402C0083A7475D014681454545F9B7D84C8D4777
:10403C006315F70085472388F182B24022449244ED
:10404C00024941018280011122CC17040020130483
:10405C00A4805C4406CE26CA858BD1C73535485C16
:10406C009707002023A007809305F100014697F7DE
:10407C00FF1F23AB077E97D0FF1FE780002F97F41D
:10408C00FF1F938424589315456099ED5C5C93064F
:10409C00F00F9823630AD7009C306387D700998F61
:1040AC00B337F0009395170097F7FF1F938787534B
:1040BC000387070063450700585C948714A39C4B47
:1040CC00505C93F5F50F09458297DC24898B99C7D1
:1040DC008828854597E0FF1FE7808095F240624471
:1040EC00D2440561828083A74186FC5395E3693BEA
:1040FC006244F240D24497F7FF1F23A7077697F745
:10410C00FF1F83A7274F01468145494505618287DB
:10411C00584C8D47E314F7FC85472388F1827DBF0B
:10412C00011106CE22CC26CA4AC84EC652C417F478
:10413C00FF1F1304244BAE84B2892A8997E0FF1F1A
:10414C00E780809A08308145138A418659310820CE
:10415C004C2C014611850D8997D0FF1FE7804049F3
:10416C00184483A7818583260A0098C758443706CC
:10417C00330017F4FF1F1304246ED8C3D842CA852A
:10418C0013671700D8C298431377F7CF98C3984397
:10419C001377F7CF1367072098C303A741871C47F2
:1041AC00085CD18F1CC7B707030093878715BCCA5F
:1041BC002300350104B12686090597D0FF1FE7803F
:1041CC00408617F7FF1F1307E7437C2793E7470049
:1041DC007CA783270A0037070200F24023A20706B8
:1041EC0098C7232804001307000418C0232A0400CE
:1041FC00232204006244054798C3D2444249B24981
:10420C00224A05618280797126D24AD05AC806D6D4
:10421C0022D44ECE52CC56CA5EC6930700082A8BC7
:10422C00AE8432896317F602BD4917F4FF1F1304DD
:10423C00643B97D0FF1FE78080E1E3FCA9FE3C2C98
:10424C009607C117E3E7A7FE83A7418613078007EC
:10425C00F8D3138A818503240A0097F9FF1F9389E9
:10426C00693881455C54938A418697FBFF1F938B79
:10427C00AB5EF19B93E717005CD403C51900913E2C
:10428C001C40B706330093F7F7CF1CC01C4093F7C4
:10429C00F7CF93E707201CC003A741871C47D58F96
:1042AC001CC783A70A003707030013078725B8CB61
:1042BC0003A7890018C403A7C90058C0D84317F432
:1042CC00FF1F1304243413671700D8C37C2405473D
:1042DC0093E727007CA49307F9FF93F7F70F63622A
:1042EC00F70C03A58B032686DA852300250104B180
:1042FC00090597C0FF1FE780C07203A78B0383A734
:10430C000A00B8DF17F7FF1F232C075417F7FF1FFE
:10431C00232A075417F7FF1F232807540D4723AEF2
:10432C00EB0013070008631BE908F8537DFF83A714
:10433C00818382971844636CE506198D03A78B0360
:10434C000D81B70780009387F72F62055D8D08C339
:10435C0003C50900A68511850D8997D0FF1FE7803D
:10436C00A00A83270A0098431317772998C3D857B4
:10437C00719BD8D797F7FF1F23AA074E97F7FF1FFC
:10438C0023AE074C83A70A00094798C3B2502254A6
:10439C0092540259F249624AD24A424BB24B45619D
:1043AC00828093070008E31AF9F48944B9B797F7A8
:1043BC00FF1F83A76721998F3E9549B703C5090055
:1043CC00A68511850D8997D0FF1FE780E003832711
:1043DC000A00171500001305E544984313177729B5
:1043EC0098C3D857719BD8D797D0FF1FE780809A76
:1043FC0097F7FF1F238E072097F7FF1F23A8074669
:10440C0097F7FF1F23AC074483A70A00094798C3FB
:10441C005C24FDDFA5BF39714ED606DE22DC26DA20
:10442C004AD852D456D25AD05ECE62CC83C90183BC
:10443C00639609122A84354597D0FF1FE780E071F7
:10444C0013067100994513050010EFF08FCC97F40B
:10445C00FF1F9384E41169E519469305F00F1305CA
:10446C00710097C0FF1FE78060668547630AF50AF5
:10447C0089475C80194697F5FF1F93850511130535
:10448C00110097C0FF1FE780C059C82897F4FF1F81
:10449C0093844417138A8183EF10C07DF83497F707
:1044AC00FF1F93872714C88698B3D848856A216B59
:1044BC0098C783270A001389418697FBFF1F938BAC
:1044CC00AB39829788CC938AEAEB17FCFF1F130C4D
:1044DC002C0F130B0BD01080B9450A852D33D82423
:1044EC0089476314F70618808547631EF70017F693
:1044FC00FF1F1306E612994513050010EFF08FE726
:10450C000545EFF0EFE1F2506254D2544259225A71
:10451C00925A025BF24B624C4E85B25921618280F9
:10452C008547194697F5FF1F93852506130511003E
:10453C005C8097C0FF1FE780C04E1946974500006E
:10454C0093854532130571002DBF19C87D14137462
:10455C00F40F19E497F7FF1F238C070A854965B7F9
:10456C0014800947832709006399E604D8479316FA
:10457C001749D4C70F10000083270900B7060200A3
:10458C0094C79306000823A8DB009306E06EF4D3CF
:10459C00D8C7032709007C53FDFF83270A008297A5
:1045AC00984C636EE502198DE377ABF2EFF00F993F
:1045BC0083270A00829788CC39BFD84793161749AE
:1045CC00D4C70F10000083270900B706020094C758
:1045DC009306000823A8DB0023A2570755BF8327A7
:1045EC008C00998F3E95C9B71C49638B07124111FA
:1045FC0026C206C622C41C21AA8493F7070481C7CD
:10460C005C410945CDCF13060002814517F5FF1F0C
:10461C00130545FD97C0FF1FE7806043130600029A
:10462C00A68517F5FF1F1305E5FB97C0FF1FE78055
:10463C00403F17F4FF1F1304E4FA1C3C81E7930777
:10464C0080021CBC3C2C99E3A1473CAC3C3C99E35C
:10465C00C5473CBC5C2C99E3ED575CAC5C3C99E3E6
:10466C00ED575CBC9C2093F7070499CB5C4037B7A3
:10467C0024001307F7E96369F704930750021CB091
:10468C0097F4FF1F938404F8C84009C597D0FF1F07
:10469C00E780400E97F7FF1F23A807F61C20858B99
:1046AC0091CB483C93059004090597D0FF1FE780F8
:1046BC000000C8C01C300145FCB41C44DCC8B2402E
:1046CC002244924441018280370725009306F74823
:1046DC0063EDF6003767DBFF13070793BA971307F1
:1046EC00007DB3D7E702FD1759BF13070749639540
:1046FC00E7009307600261B737D725001307F777F8
:10470C00636DF7003767DBFF13070793BA9713073F
:10471C00007DB3D7E702F9179DB79307700285B7F1
:10472C0005458280797126D297F4FF1F938484EB20
:10473C009C4406D622D44AD04ECE52CC56CA5AC825
:10474C005EC662C466C26AC06382072017FBFF1F85
:10475C00130B8B100327CB0195472A8C0945630B50
:10476C00F71A0D452E84B28BB68C97D0FF1FE780BD
:10477C00C03E97F7FF1F83C7A7E9898B97F9FF1FE7
:10478C00938949E895C33D4997D0FF1FE780208C5A
:10479C00E37CA9FEBC2C9607C117E3E7A7FE83A711
:1047AC00418613078007F8D3938A818503A90A00F1
:1047BC008327C902F19B93E717002326F90283C7CD
:1047CC00C90003CD0400898B89E793770D046391AD
:1047DC00071688308145EFF0CFDF83270900B70635
:1047EC003300138A418693F7F7CF2320F9008327F0
:1047FC000900137D1D0093F7F7CF93E707202320C3
:10480C00F90003A741871C47D58F1CC703270A0053
:10481C00B7070300938787253CCB9C442324F900DE
:10482C00DC442322F9005C43F99BB3E7A7015CC38A
:10483C0083C7E90023807901A380990193E72700BE
:10484C002387F90003258B0363070C0E23007501E6
:10485C0000B12286E285090597C0FF1FE780601C26
:10486C0083278B0303270A003CDF97F7FF1F23A93D
:10487C0007FE97F7FF1F23A707FE97F7FF1F23A538
:10488C0007FE8D47232EFB0083C7C900898B95C774
:10489C007C53FDFF83A78183829703A78900636004
:1048AC00E50A198D83278B0309041374F40F80B365
:1048BC000D81A2972380070088B38820A2851185DB
:1048CC000D8997D0FF1FE78020B49C2017F5FFFFC0
:1048DC0013056564858B89E717F5FFFF1305C55C28
:1048EC0097C0FF1FE780004B83A70A000145984340
:1048FC001317772998C3D857719BD8D797F7FF1FF1
:10490C0023A607F697F7FF1F23AA07F483270A00AD
:10491C00094798C3B250225492540259F249624A40
:10492C00D24A424BB24B224C924C024D4561828092
:10493C00C84089454DB523207501014415B797F73B
:10494C00FF1F83A767C8998F3E95A9BF0545D9B7A7
:10495C007971B7E700E026D284433707200006D6EA
:10496C0022D44AD04ECE52CC56CA5AC85EC6F98C06
:10497C0023A0E7180F10000017F4FF1F130484C6C0
:10498C00184419EF23A097100545B25022549254A5
:10499C000259F249624AD24A424BB24B456182807B
:1049AC0017F7FF1F032747D209C723A09710094504
:1049BC00E9BF1C20328BB68A858BADC317F9FF1F5C
:1049CC00130949C4832749002A8AAE8999EB483CCC
:1049DC0093059004090597D0FF1FE78040CD232253
:1049EC00A9008327490099E7B7E700E023A09710B7
:1049FC000D4561BF0347290098A383274900630D28
:104A0C000A04638B0904A3803701032549004E86F1
:104A1C00D285090597C0FF1FE780A00097F9FF1FFB
:104A2C00938989E303A7C9019547630AF70083C7F4
:104A3C00090219476385E7000D476392E70283C7B4
:104A4C00190289E7930780102390F902B7E700E079
:104A5C0023A09710014515BFA3800700C1B7138A87
:104A6C00418683270A0098430D8B1DC3238801823E
:104A7C00B84B1377F78FB8CB98431367870098C35D
:104A8C009C4393D7374889C70100010001000100FE
:104A9C0083270A0037070200834B040023A2070672
:104AAC0098C797F7FF1F23A107DC97F7FF1F83C752
:104ABC0027B6918B17F9FF1F1309C9B489E793F730
:104ACC000B046399070E08308145EFF08FB04C2C26
:104ADC0013D54B4001460D8997D0FF1FE78040B19D
:104AEC00938B818583A70B001844142098C75844D6
:104AFC00858AD8C303270A005C43F99BD58F5CC316
:104B0C0083274900A3016901230159013CDF834735
:104B1C00E90093E747002307F9009307000423A05B
:104B2C00F90097F7FF1F23A107D4A14723AEF90083
:104B3C0097F7FF1F83A747A681CB034509011306EF
:104B4C000064C145EFE0EFEF83270A001705000072
:104B5C001305452CDC43858B89E7170500001305ED
:104B6C00650697C0FF1FE780E02203A70B00B7067E
:104B7C0033001C4393F7F7CF1CC31C4393F7F7CFB9
:104B8C0093E707201CC303A741871C47D58F1CC77D
:104B9C0003270A00B7070300938787153CCB97F7C9
:104BAC00FF1F23A507CC97F7FF1F23A907CA85472B
:104BBC001CC369BD93F50B03484093E5150031B751
:104BCC00797122D417F4FF1F130404C95C4006D674
:104BDC0026D24AD04ECE858B6386071E97F7FF1FD1
:104BEC0023AE07C68329C403A3070100EFF0CFA9A6
:104BFC0097F7FF1F83C7C7A1918B97F4FF1F93846F
:104C0C0064A017F9FF1F1309E99D6383071683C777
:104C1C001900CE979823930700086318F700834771
:104C2C00090093E787002300F9005C580D47637671
:104C3C00F70EF1175CD85C58984463E6E70E33879F
:104C4C00E74083C71900D424CE979C3393964660D3
:104C5C008E0763D9060E63FEE70C1D8F93060002C8
:104C6C0063E8E60058586369F70CB307F7409CC437
:104C7C008828894597D0FF1FE78080DB8345090092
:104C8C0093F78500EDC383A641869307800CFCD275
:104C9C001C5C1307F00F3706330098C397F7FF1F00
:104CAC0023A007BC97F7FF1F23AE07BA97F7FF1F88
:104CBC0023AC07BA97F7FF1F23AA07BA03A781856E
:104CCC001C4391858D8993F7F7CF1CC31C43014579
:104CDC0093F7F7CF93E707201CC303A741871C4723
:104CEC00D18F1CC7B707030093878725BCCA05461D
:104CFC0097C0FF1FE780207983470900B420B030AC
:104D0C00DD9B814501452300F9009931B2502254B5
:104D1C0092540259F2494561828017F7FF1F03270D
:104D2C00A78ABA9739B797F6FF1F83A6E689B69775
:104D3C0039B73387E7401DB797F6FF1F83A6C688A0
:104D4C00369725B75858636AF700B307F7409CC4E9
:104D5C00DC2493E70708DCA421BF97F6FF1F83A68A
:104D6C00A6863697DDB783C71900F917A380F9001B
:104D7C00485C01469305F10097C0FF1FE780E05E99
:104D8C005C5C9306F00F98236303D702BC306380FE
:104D9C00D702630EF7009365250093954560832732
:104DAC000901505C93F5F50F0D45829785B7830784
:104DBC00090093154560E3C407FEF5F19C87238039
:104DCC00F900F1BF83A74186FC539DEBEFF0CF8B2D
:104DDC0097E7FF1F83A7C77C89C785451305100874
:104DEC008297225497F7FF1F9387C781B250925432
:104DFC000259F249B423B03381450145456189BE5E
:104E0C00584CA147E314F7F085472388F182FDBD88
:104E1C00797126D297F4FF1F938404A49C4006D684
:104E2C0022D44AD04ECE52CC858B6383072083A9E3
:104E3C00C40301469305F1004E85A307010097F7C3
:104E4C00FF1F23AB07A097C0FF1FE780005217E49A
:104E5C00FF1F1304247B17E9FF1F1309A978131AEA
:104E6C004560631F0A123C309306F00F6389D7002C
:104E7C00D85C18236305D700094A6313F71283071C
:104E8C00090063C507009C872380F9005C24918B83
:104E9C00ADCFDC580D476373F714F117DCD8DC5831
:104EAC00184463E3E7143387E74083C7190054249D
:104EBC00CE979C33939646608E0763D6061463FB9D
:104ECC00E7121D8F9306000263E8E600D85863666C
:104EDC00F712B307F7401CC40828894597D0FF1F69
:104EEC00E78000B583C719003387F9001423130733
:104EFC000008639BE6129C5C1307F00F98C3834772
:104F0C00090093E787002300F90003A741875C574A
:104F1C0093D71748A1C383274900C165938505A082
:104F2C0033D6B7027443370510FE7D15E98EB3F7FF
:104F3C00B7027D8A5206D18E74C39306A00F370632
:104F4C00FCFFAA07B3D7D7027443F18EBA07B98313
:104F5C00D58F7CC35C40034509008C3311850D89CA
:104F6C0097C0FF1FE780404A170500001305251264
:104F7C0097C0FF1FE78000E283A781859843131732
:104F8C00772998C3D857719BD8D783470900A18B31
:104F9C009DEB83270901D05C81450D45829725A0A7
:104FAC0097D0FF1FE78040B4D05C832709010D45E3
:104FBC009375FA0F829748403420303009CD0C316C
:104FCC000905EFF0FF98B250225492540259F2495D
:104FDC00624A4561828081450145E5B717E7FF1FAD
:104FEC000327875EBA9755BD97E6FF1F83A6C65D5C
:104FFC00B69755BD3387E740F1B597E6FF1F83A6FB
:10500C00A65C3697F9B5D858636AF700B307F74032
:10501C001CC45C2493E707085CA47DBD97E6FF1FC6
:10502C0083A6865A3697DDB7F917A380F900F1BD30
:10503C0083A74186FC53B1E3EFE01FE597E7FF1F21
:10504C0083A7075689C7894513051008829797E7E8
:10505C00FF1F9387275BC843B033B42301CD0C31BA
:10506C0009052254B25092540259F249624A4561E0
:10507C006FF01F8E81450145EDB7D84CA147E31465
:10508C00F7F485472388F1823DBF411197E7FF1F55
:10509C0083A7C77C06C622C4858B95C797E7FF1FDD
:1050AC0023AE077A17E4FF1F1304C453EFE0DFDDD0
:1050BC001C20A18B8DEF1C480146814511452244D3
:1050CC00B2404101828783A74186FC53B9E797E739
:1050DC00FF1F23AB077817E4FF1F1304A4501C20F9
:1050EC00A18B91E71C48014681455145C9BF97E703
:1050FC00FF1F93872751C843B033B42301CD0C3124
:10510C000905EFF0FF841C20DD9B1CA0B24022445B
:10511C004101828081450145EDB785472388F182A5
:10512C00F5B74111B7E700E022C4804337072000F0
:10513C0006C626C2798C23A0E7180F10000097E44E
:10514C00FF1F9384244CC84097E7FF1F2383074C11
:10515C0009C597C0FF1FE780E06197E7FF1F23A5F4
:10516C00074A97E7FF1F9387276F03C7170211CBD7
:10517C0083C6070221476396E60017E7FF1FA30DBE
:10518C00076ED44F19476386E600D44F1D476398CA
:10519C00E600D84F2380E7020547A380E70297D0AB
:1051AC00FF1FE78060948828C14523880182EFE0C7
:1051BC000F9EB7E700E0B24023A087102244924430
:1051CC00014541018280411106C622C426C217E462
:1051DC00FF1F13042443B1377C3497E4FF1F9384DF
:1051EC00644008289CB05C48A1459CC4EFE02F9A11
:1051FC0008289145EFE0AF995C24898B9DC39C48AE
:10520C00014681451305200282972244B240924404
:10521C0097E7FF1F238E073E8945014541016FE04B
:10522C00CFA15C24918BF5D39C4801468145130595
:10523C004002D9BF97E7FF1F83C7873D898B6387E0
:10524C000712797126D297E4FF1F9384E460D84C3F
:10525C0022D406D64AD04ECE52CC56CA5AC85EC6B6
:10526C008D4717E4FF1F1304E43991456308F70ACF
:10527C003545056A97D0FF1FE780208EA14997EA34
:10528C00FF1F938A2A36130A2AF913060008814550
:10529C000145EFE05FF713894186370B0200930B52
:1052AC0000089C44858B9DE383270900FC53F5FB88
:1052BC00FD19E39C09FC2254B25092540259F24954
:1052CC00624AD24A424BB24B4561F5BD03C50A0056
:1052DC0001469305F00F11850D8997E7FF1F23A158
:1052EC00075897C0FF1FE780A03083C50A0013063C
:1052FC00F00F054591858D8997C0FF1FE780A01899
:10530C00DC44858B9DCB97E7FF1F23AD0754EFE063
:10531C00BFB75C24854593E707085CA40828225492
:10532C00B25092540259F249624AD24A424BB24BA1
:10533C00456117C3FF1F6700A36FEFE0FFB483271E
:10534C000900D84793161749D4C70F1000008327BC
:10535C00090023A4670123A8740123A24707D8C717
:10536C0083270900FC53A9D30100DDBF82804111C2
:10537C0022C406C693F715002E84A1C797E7FF1F1A
:10538C0083C70729898B17E7FF1F1307A72785C733
:10539C005C27082B130600059397476063DA070018
:1053AC0017E6FF1F034696259307000A3306F602FD
:1053BC009145EFD01FE913451400B240224441013E
:1053CC00828093F72500B9C397E7FF1F83C7472453
:1053DC00918B17E7FF1F1307E72295C75C27082B54
:1053EC001306000A9397476063DC070017E6FF1F5C
:1053FC000346D6209307000A3306F60213068602EC
:10540C00A145EFD01FE41345240045BF93F7450099
:10541C0089C70D35134544004DB793F7850099CBDB
:10542C0097E7FF1F83C7C71E918B91C3693B134539
:10543C00840061B713F5050149D1EFE02FB017E7F0
:10544C00FF1F03272743A147631BF70013060064C4
:10545C00C14517E5FF1F0345E51BEFD09FDE134544
:10546C000401A1BF597186D6A2D4A6D2CAD0CECE81
:10547C00D2CCD6CADAC8DEC6E2C4E6C2EAC06EDE58
:10548C0097E7FF1F83A747246398073097E4FF1F14
:10549C00938444159C446381073017E4FF1F130465
:1054AC00A43B584C9947094A6306F728584C9D472A
:1054BC006302F728584CA147630EF726034B1402DE
:1054CC00631A0B262A8997E9FF1F9389A91397C0A2
:1054DC00FF1FE780606197E7FF1F238B071283C7CD
:1054EC00F900194697E5FF1F9385250A9CB083A701
:1054FC00490113055101938A81839CC49547230A62
:10550C00F10097B0FF1FE780C051EF00F0229357D6
:10551C0085002301F10293570501A301F1029C3C84
:10552C00A300A1026181A302F102BE2C2302A102FD
:10553C0017E5FF1F034505052313F102DC483ED494
:10554C009C2C2306F1023D27A306A1026304090249
:10555C0083A70A008297131759003A952A8997E76F
:10556C00FF1F83A767066364E5006364F5003309D6
:10557C00F540054B83A70A00938B418617EDFF1F5F
:10558C00130D0D04829783A70B00185C23ACA900A4
:10559C001546B8DFE9454808EFE09FB8A167938747
:1055AC0007D03EC6138C8185854C5C48858B6388FF
:1055BC00071C97E7FF1F23AB072A97C0FF1FE78045
:1055CC0040D81C40858B6387071A832DC4031C5C51
:1055DC000146930531016E853EC4A309010017E70E
:1055EC00FF1F232B072697C0FF1FE78000D82A8AAE
:1055FC006312051803C72D00631E97152257630FFE
:10560C000718A247194693853D001385970097B05C
:10561C00FF1FE78000418820E94511850D8997C05F
:10562C00FF1FE78060DE83270C0098431317772950
:10563C0098C3D857719BD8D797C0FF1FE78060D00D
:10564C005C40858B6388071297E7FF1F23A8072010
:10565C0097E7FF1F23A20720930D40060100FD1DB5
:10566C00E39E0DFE83A70B00D44713971649D8C7AA
:10567C000F10000083A70B003707020098C7130711
:10568C00000818C803270C00184313577748630504
:10569C0007141307E018F8D3D4C797C0FF1FE7808F
:1056AC0040CA1C40858BF9C797E7FF1F23A6071A32
:1056BC005C5C98239947631FF70A83A70A008297BB
:1056CC0023A4A900EFF0FFA597E7FF1FA38C07F019
:1056DC0097E7FF1FA38E07F20257834741028945C4
:1056EC002183E207D98F9CC417C5FF1F1305458D75
:1056FC0091472386F900EFD05FD4D04897E7FF1F7E
:10570C00A38A07F08147014793060002B355B649B7
:10571C0089C5850793F7F70F0547850DE398DDFEDF
:10572C0019C3A388F90003C50901894597C0FF1F58
:10573C00E7800030B650265496540659F649D64A9E
:10574C00464BB64B264C964C064DF25D5285664A3E
:10575C00656182808947631FF700194697E5FF1F33
:10576C009385A5E213859D0097B0FF1FE78040311C
:10577C00E30695E91546E9454808EFE07F9A83A7CB
:10578C000A0063020B068297636B250533052541DE
:10579C00634B0504EFF0FF98054A69BF97C0FF1FE4
:1057AC00E780803403453101FD5797E5FF1F938552
:1057BC00A5E45915DCC8131545606D2317E5FF1FCB
:1057CC00130585E3B12C914763F5A700DC483ED463
:1057DC0055B783C7F900E5BF1307E01A6DBD330554
:1057EC00A940E34905FA83A70A00829703A7890118
:1057FC006363E502198DB247E3F9A7DAEFD01FF422
:10580C0083A70A00829723ACA9001546E9454808EE
:10581C00EFE01F9151BB83278D00998F3E95E1BF1F
:10582C0001114EC697E9FF1F9389090383A78900CD
:10583C0052C406CE22CC26CA4AC8858B17EAFF1F53
:10584C00130A4ADC638E071697E4FF1F938484D9EE
:10585C00882001469305000211850D8997E7FF1FEB
:10586C0023A0070097C0FF1FE78080D88C20130669
:10587C00F00F054591858D8997C0FF1FE780A0C06B
:10588C0083A7C900858B638D071203A5C90397E70E
:10589C00FF1F23A907FC0146814597E7FF1F23A1A2
:1058AC0007FC97C0FF1FE78040AC2A89631A0510DC
:1058BC0003A4C903954738206314F710194697E5DC
:1058CC00FF1F938585CC1305940097B0FF1FE780CD
:1058DC00201B85476316F50E83A7890319470146DC
:1058EC0098C38C200D4591858D8997C0FF1FE7804B
:1058FC0080B983A78900858BE1C797E7FF1F23A198
:10590C0007F683A7818382972324AA00EFF07F8177
:10591C0097E7FF1FA38807CC97E7FF1FA38A07CE43
:10592C003C388146130600029CBC5C28BCAC5C383D
:10593C00BCBC1C287834A207D98F183842075D8F5D
:10594C003C28E207D98F9CC47C387828A207D98FD1
:10595C00182C42075D8F1C3CE207D98FDCC801472D
:10596C00B3D5E74889C505091379F90F85460507AD
:10597C00E318C7FEB9E297E7FF1FA38D07C83C2CBD
:10598C009305340019469CAC17E5FF1F130545C958
:10599C0089472306FA0097B0FF1FE780800862440E
:1059AC0003450A01F240D2444249B249224A130645
:1059BC008002914505616FD0DF88A3082A01C1B729
:1059CC0097C0FF1FE7804012FD572306FA00F240F4
:1059DC006244D2444249B249224A05618280411153
:1059EC0006C622C40D2713064002814517E5FF1F8A
:1059FC00130545C197B0FF1FE780600517E4FF1F33
:105A0C00130444C0FD5717050000130585961CC0F0
:105A1C00EFD03FB408A8B240224401454101828036
:105A2C001C3118215421A207D98F3821FD8A9305E6
:105A3C00000242075D8F3C310145E207D98F0147D7
:105A4C003316E0287D8E01C605051375F50F050785
:105A5C00E318B7FE8147214733D6F64801C6050542
:105A6C001375F50F8507E399E7FE8280011122CCAF
:105A7C0017E4FF1F130444DE584C26CA06CE4AC84E
:105A8C004EC6954797E4FF1F83A484C16306F700B5
:105A9C00584C8D47631FF7008347140281E7930727
:105AAC0060101EB0F2406244D2444249B2490561D2
:105ABC0082805C4C138941868327090037070200DA
:105ACC00194523A2070698C797E7FF1F23AE07D8EF
