:040000006F30903895
:100004000000000000000000A000002056080020AE
:10001400A9BDF9F3FC01002000000000000000006D
:10002400FC010020A00000200000000000000000EF
:10003400A000002000000000A0000020000000003C
:10004400A0000020A0000020A0000020A0000020AC
:10005400A0000020D4080020A00000200000000020
:10006400A0000020A0000020A0000020A00000208C
:1000740080090020A0000020A0000020A000002093
:10008400A0000020A0000020A0000020A00000206C
:10009400A0000020A0000020A0000020A00000205C
:1000A40001A0B7170040984B41111367070198CB83
:1000B400982B1377E70F98AB1307800873370780E3
:1000C400137787083AC60F100000130770052380C2
:1000D400E704130780FA2380E7040F100000B847F1
:1000E400B70600069506558FB8C703C7B70413773C
:1000F400F70DA385E704B82713672701B8A71307EB
:1001040050149AA7372700408346578093F6F60E7B
:10011400A302D7808946A303D78003C7E7041377D4
:10012400C70F136717002387E70403C7F702136792
:100134002700A387E702982B1367170098AB238047
:100144000704B247F3A707800F1000004101828023
:10015400EFF03FF513050020970500009385450A4D
:1001640017460000130646A263FAC5008322050061
:1001740023A0550011059105E3EAC5FE17F501E03A
:10018400130545DB97450000938505A01386C185BB
:1001940063FAC5008322050023A0550011059105CB
:1001A400E3EAC5FE1385018697650000938585B44F
:1001B4006377B500232005001105E36DB5FE9302B6
:1001C4005002739002BC8D427390428085427390BA
:1001D40012BC93028008739002309702000093824D
:1001E40062E293E2320073905230975200E09382BD
:0C01F400E2BB7390123473002030000056
:100200009305000273A04580824573901534924097
:100210002242B2424243D2436244F24402559255D2
:100220002256B2564257D2576258F258064996495A
:10023000264AB64A464BD64B664CF64C065D965D52
:10024000265EB65E465FD65F0961730020302303E9
:10025000048015472303E48001002302A4808280E8
:1002600083076480E3CE07FE230304808280830734
:100270006480E3CE07FE0345448082808307648068
:10028000E3CE07FE2302A4808280411126C44AC225
:100290004EC006C61377F50BAD47AA892E89954443
:1002A0006306F70019456537653F8D444E85453730
:1002B000FD59FD1463983401B240A24412498249A9
:1002C00041018280135509011375F50F453F22093D
:1002D000CDB7011126CC06CEB7040800513715451D
:1002E000BD37713769372AC6A53F32459377150068
:1002F00089EB136515001375F50FF240E2440561B3
:100300008280FD14E9FC0145CDBF397126DC4ADA53
:100310004ED852D656D45AD25ED006DE62CE66CCC5
:10032000B7E700E07D5783AA070022C603AA47006B
:1003300023A0E71823A2E718B7170040130770059A
:100340002380E704130780FA2380E70483C7470468
:10035000930B75FFB684E20793FBFB0F8546AA89D2
:100360002E8B328937240040E187015763FA7601EA
:100370006308D5008946130700026313D5000157AF
:10038000D98F93F7F70FB71C00402382FC04114765
:100390002303E4801305F00F5D3D094CD135636DF7
:1003A0007C11B7050700DA9537870700795563F2A6
:1003B000E504B3879500636EF702370B0800A94781
:1003C00033EB65016399F90689E48144513D268543
:1003D0000DA0DA850945553D05090345F9FFFD14D2
:1003E000050B693D81C49377FB0FFDF7DD3569FD92
:1003F0007D55B7170040130770052380E7041307E6
:1004000080FA2380E70403C74704418B2382E70473
:10041000F250B7E700E023A0571123A24711E2549E
:1004200032445259C259325AA25A125B825B724C00
:10043000E24C21618280A5476395F906856913091D
:10044000F00FB3069900B3742B01B6941349F9FF6A
:10045000B3749900856B33796901416B9387F9FF18
:10046000B3F7270199E363FC340193D94900C147ED
:10047000E3E637FF99BF0569C1697D19D9B713054F
:10048000800D6388690113050002638479011305F7
:100490001008CA85DD3B353D21DD4E99B3843441DA
:1004A000D9B7DA852D45D533CA94E30099F2050909
:1004B0007D3BA30FA9FED5BF9387F9FF93F7F70FF5
:1004C0006361FC0C83C71C0413073008631FF70427
:1004D00037070800636BEB04B3079B00B7061000F7
:1004E00063F5D704334BEB0089476393F9068980A2
:1004F000D549E38C04ECDA850945413B1109032712
:10050000C9FF91472320E48003076480E34E07FE80
:1005100023033481FD17EDFBFD14110B81C4937788
:10052000FB0FE9FF7D3371F5E1B5B717004003C755
:100530005704B70708001377070219E3B7870700C6
:100540007955E378FBEA33079B00E3FFE7F855B5FD
:100550008547E382F9F2DA852D45053B9389F4FF5F
:10056000E38504E6293393F7390091EB8326048071
:100570000327090093074900E39AE6E43E89CE8405
:10058000F1BFB5476396F9001305900BC93135BD2E
:10059000B1471305B00AE38BF9FE99476391F9045B
:1005A000B7050800B365BB002D45C53181448D4BAF
:1005B000A149753963967401832704802320F900CB
:1005C0008504E39834FF8327048013172B016355B8
:1005D00007002312F900D5BB2322F900FDB39D4784
:1005E0006399F90281451305B0044531BD442320C8
:1005F000090023220900FD599D3993F77400CA9719
:1006000003C70700FD14398D2380A700E39634FF4C
:100610006DBBA1476392F9046D398144630D0B00F2
:100620008D479304C0036308FB0093040005630433
:100630008B01930440041375C507E30895D8194549
:10064000393139390545213126850D3909453D3185
:100650004931E31C05D669BB91476399F90013053D
:100660006006F536F53E130590090DB7E38F09D402
:10067000F154A9BB4111B7170040985F3AC6945F87
:100680003247E39CE6FE324541018280B7170040C5
:10069000984B41111367070198CB982B1377E70FFD
:1006A00098AB1307800873370780137787083AC61B
:1006B0000F100000130770052380E704130780FA6A
:1006C0002380E7040F1000001307000C6315E502F8
:1006D0009A271367070C9AA7B7170040982B136740
:1006E000170098AB23800704B247F3A707800F10C9
:1006F000000041018280B82793760520ADCA118B96
:1007000029E303C7E70403C6E7041377F70F13666B
:1007100036002387C704B02713664600B0A7922788
:100720008E273346060893E5050C8EA7A5470100E2
:10073000FD1793F7F70FE5FFB717004092A7238740
:10074000E70493770510DDC3371700403C2793E794
:1007500007013CA79377F50199EFB727004003C73E
:10076000578013670701A382E7801D470DA0136719
:100770002700B8A7F9B725476366F704B7270040F5
:1007800003C757801377F70EA382E7800547A3833B
:10079000E78033450508B71700401367050C9AA793
:1007A0008AA7B5CE03C7570483C65704418B858AF1
:1007B000558F1DF3B82B418B05D3B8271377D70F6F
:1007C000B8A719BF9377050199EBB727004003C776
:1007D00057801377F70EA382E78009474DBFB727ED
:1007E000004003C757801377F70EB5BF9377850195
:1007F00081EFB727004003C757801377F70EA38216
:10080000E7801307100561B7B727004003C757807B
:100810001377F70EA382E780130770058DBFB82703
:100820001377B70F71BF37E700E01C435443A18330
:10083000E206D58F1CC1FD572320F7182322F71895
:100840000F100000828013178500B7E700E023A097
:10085000E710618123A2A7108280411181460146E1
:10086000814511455D3413078008F337078093F7FE
:1008700087083EC40F100000B7170040130670052C
:100880002380C704930680FA2380D7040F1000004A
:10089000FD55CEB723800704A245F3A505800F10B0
:1008A000000073370780137787083AC60F100000DF
:1008B0002380C7042380D7040F10000003C76704F8
:1008C000136717002383E70423800704B247F3A7C5
:1008D00007800F10000001A0197106C212C416C6CD
:1008E0001AC81ECA22CC26CE2AD02ED232D436D650
:1008F0003AD83EDA42DC46DECAC0CEC2D2C4D6C640
:10090000DAC8DECAE2CCE6CEEAD0EED2F2D4F6D62F
:10091000FAD8FEDA938501868841E7000500924007
:100920002242B2424243D2436244F24402559255BB
:100930002256B2564257D2576258F2580649964943
:10094000264AB64A464BD64B664CF64C065D965D3B
:10095000265EB65E465FD65F0961730020304111A6
:10096000B7170040985F3AC6945F3247E39CE6FEB3
:10097000324541018280B7E700E03707001023A02D
:10098000E7208280B7170040130700032388E7029F
:10099000854723A4F18673002030411106C6C52B7C
:1009A000FDBF23AC05FE1C4199E30CC182803E874C
:1009B00083A787FFEDFF232CB7FE8280411126C25B
:1009C000B7E400E04AC003A90400B707200006C648
:1009D00022C43379F90023A0F4180F10000009E5B0
:1009E00023A02411014535A09565938505D0C98DB7
:1009F0002A842105B3C5050833450508EF10C077E3
:100A000065D1FD572320050042A17CA123A024111C
:100A10002105B240224492440249410182804111A1
:100A2000B7E700E04AC003A9070026C23707200045
:100A300006C622C4AA843379E90023A0E7180F1060
:100A4000000083A701870144014685E301C8A28510
:100A500013850187974000E0E780A03AA1652685CD
:100A6000975000E0E780408B0DA003C7E7FF6319B4
:100A7000970205CCA28513850187974000E0E780A7
:100A80004038A1652685EF10D05EB2402285224411
:100A9000B7E700E023A02711924402494101828078
:100AA00011E03E8683A787FF4DB73E84E5BF37E759
:100AB00000E01C43B70620002320D718F58F0F1045
:100AC000000019C191C111E637E700E02320F710BB
:100AD00082802E960F70B650D5BF37E700E01C43DA
:100AE000B70620002320D718F58F0F10000019C17A
:100AF000014785E137E700E02320F7108280B386C5
:100B0000E50003A80600B306E5007D1623A0060154
:100B1000110775F6C5B737E700E01C43B70620009C
:100B20002320D718F58F0F10000001C53307C5002B
:100B300011E637E700E02320F71082800505A30FB8
:100B4000B5FEE31DE5FEF5B7B7E600E09C423706CB
:100B500020002A87F18F23A0C6180F10000001453E
:100B6000B306A7008386060091E637E700E023205E
:100B7000F71082800505EDB70111B7E700E026CA3E
:100B800084434AC83707200006CE22CC2A892E8605
:100B9000F98C23A0E7180F1000009305F00432C66B
:100BA00033450608EF10405D2A8401C53246CA85E8
:100BB000FD3DF24022856244B7E700E023A0971094
:100BC0004249D2440561828037E700E01C43B70602
:100BD00020002320D718F58F0F10000001C599C100
:100BE000014711EA37E700E02320F710054582802E
:100BF0000507E309E6FE3308E500B386E500034890
:100C000008009422E306D8FE37E700E02320F7101F
:100C10000145828037E700E01C43B706200023200F
:100C2000D718F58F0F1000001307F6FFBA952A9614
:100C30006317C50037E700E02320F7108280982172
:100C4000FD150505A30FE5FEE5B737E700E01C43FA
:100C5000B70620002320D718F58F0F10000001C51C
:100C60003307C50019E637E700E02320F7100145F8
:100C7000828014210505E398B6FEE31CE5FE37E704
:100C800000E02320F71005458280797126D29384F5
:100C9000818822D4804006D64AD04ECE52CC56CA45
:100CA0005AC85EC662C44DC437C9C901814B138B93
:100CB00001881309F937175A0000130A6AA2975AD4
:100CC0000000938A6A9F97590000938969A63E2085
:100CD00099EF5C44639A0B009CC0032CC4002285EE
:100CE000EF10E055628489A823A6FB00FDB7832797
:100CF0000B0082971C443307F5406376F50003A789
:100D000089001D8F2A976368E9062E200820EF10BE
:100D100050365C405844A9CB0C44175600000326BB
:100D2000A6A1AE97BE8663E4B70063E4C700B386AE
:100D3000C74014C4A28B3A8459F817570000032700
:100D4000A798894763E6E7009757000023AE079608
:100D5000B250225492540259F249624AD24A424B4A
:100D6000B24B224C4561828063940B0098C0B5B7AA
:100D700023A6EB009DB703274A021DCB63EDA70214
:100D80003385A7401C2099EF03479A0183A6890069
:100D90006117B307A7003E8563E4E70063E4D7006B
:100DA0003385D74083A70A016374F50023A8AA00FE
:100DB000A28B404451B703A78900BA97D1B701115C
:100DC00026CA06CE975400009384849622CC4AC843
:100DD0004EC652C49C288844D9CFB7E700E003A987
:100DE00007003707200023A0E7183379E9000F1028
:100DF000000003C7818719CB23A02711F24062446A
:100E0000D2444249B249224A056182801757000004
:100E1000130707AF8357C70AA1CB9C440324870A53
:100E20006304F404975900009389098903A7090111
:100E30002285630BF702138A018883270A008297B1
:100E40006368A40C83270A00098C829783A7090191
:100E500098443354F40AB307A4003E8563E4870042
:100E600063E4E7003385E740B7E700E023A02711FC
:100E70009C44639BA702175400001304E4831848A2
:100E800083A701886319A70882979444374736FEE1
:100E9000130707C83697B307A7003E8563E4E7004A
:100EA00063E4D7003385D74017540000130444C8C7
:100EB0005C5C89CB83A681979C463707CDFF7D1765
:100EC000F98F9CC611E1884485475CD09757000094
:100ED00083A74783829715E15C5C99CF5C5089CFEB
:100EE000975001E0E7806095974001E0E780601C43
:100EF0009757000023A007C6493B5C5CE38007F0DE
:100F000003A781971C47B7063300D58F1CC7FDB5D3
:100F10009C443E9405BF829714489844B387A6002A
:100F20003E8563E4D700E3E1E7F83385E740ADBFF2
:100F300023AAA18601C58547238CF1868280AA87D2
:100F400099E5174700000347A77F09C7D5B71147A1
:100F50006369B700174700001307477CB3C5E52056
:100F60009CC1828083A7418781CF411106C68297A9
:100F700083C7818799E323AA0186B2404101828019
:100F800083C7818781E723AA0186828082804111FD
:100F900022C426C206C64AC097540000938444B9AE
:100FA00083C734021744000013044477B9C31744BD
:100FB0000000130464701389C188032709001C20F2
:100FC00014300146B3A5E7208E21B5C911C21CA07B
:100FD0000820636DD50697470000238F076C83A711
:100FE0000188D5E7B24022449244024941018280FF
:100FF00082971C40F5FF9747000083C7677485E31D
:10100000DC48858B89CFD84C9947631EF7009757EA
:10101000000023A907B2EF0050595C4482971C449A
:10102000D9D7829769B7D84C9D47E31AF7FE9757EF
:10103000000023A907B0EF0050571C48C5B785072B
:1010400093F7F70F0546E3EFD7F651B73327E520BF
:101050000E2323100700239D018683A74188B347F1
:10106000F5209C4382971C208326090003D7A18783
:101070003377E540B3A6D7209222518F9AA299C325
:1010800085071CA018201C30E36EF7F4A9B797471A
:10109000000083A7676A1CC8CD3E83C73402B9F33A
:1010A00083C7140299CBDC4C89EB97570000A381CE
:1010B00007AA974001E0E780201C9747000083A71C
:1010C00067648DD31C4899DF183083260900814757
:1010D00063C7E702D84C9147E3E6E7F09757000073
:1010E00083C78780918BE39F07EE83C78187E39B4C
:1010F00007EE2244B240924402494101C9B133A6ED
:10110000D7201222E31006EE8507D9B7B7C70040F3
:101110001387C72014431396264910C3010001000A
:1011200093878726174500000325C55A9C436A0507
:1011300014C393C7F7FF99835D8D828023AAA1888A
:101140008280411122C4175400001304649E1C4481
:1011500026C206C6858B9754000083A4A48091EB19
:10116000EF20100E2244B2402685924441016F10B8
:10117000D00998289757000023A0079C8947E301CE
:10118000F7FE0146930550020145EF00507281457C
:10119000172501E0130585B65D33014681450545F8
:1011A000EF0090575C44858BC5DFB24022449244E7
:1011B000410182809747000083A7877E639B0716C3
:1011C000011122CC2A84094506CE26CA4AC84EC639
:1011D000EF20300E9389819603A6090093078007BC
:1011E000138981957CD2238C0186832709009384FF
:1011F0008197B7053300D8572285719B1367170075
:10120000D8D798431377F7CF98C398431377F7CF7E
:101210001367072098C398401447CD8E14C7B706AC
:1012200003009386862534CA5457F59A54D79843B9
:101230003424137707F893F6F607558F98C3EF1009
:10124000F01383A60900370500827D15DC4293E781
:101250001700DCC203260900030784065C56937559
:10126000F703E605E98FCD8F5CD69305A0039C407C
:1012700063D5E508F84FB70500074D8FF8CFB7C71E
:10128000898E938767ED1CC6B757550093875755CE
:101290005CC28347A40683444406DD8C8947175704
:1012A00000002325F78A9757000023A907887C446C
:1012B000BCDE9747000083C7A74899C7FC52FDFFD3
:1012C0009757000023AA078618289D4781451725B0
:1012D0000000130525CA6306F70017050000130573
:1012E00085E6B13910386244F2404249B249A685D8
:1012F000D244014505616F0030429305200263DA54
:10130000E500F84FB70500F9FD156D8FB70500052D
:10131000ADB7B70500F96945FD156357E500F84F0E
:101320006D8FB705000391BFF84F6D8F1317872995
:10133000B1B78280974700009387875CE8530547E1
:1013400054256390E60203C747079147631AF700E5
:10135000011106CE2AC6EF1040673245F240056102
:1013600091BD828039C901116C0022CC06CE2A843D
:10137000EF20E03A15C9FD57630DF502B2479745D6
:10138000000083C5753763EBB700034594026244E0
:10139000F240B385B74005616F1000521747000057
:1013A00003278739BA97D5B76244F24005616F10B9
:1013B000907BF2406244056182808280797152CCD8
:1013C000174A0000130ACA5326D283244A0906D6B4
:1013D00022D44AD04ECEDDC497470000938747758C
:1013E000D44F15476383E604DC532A8989CF97409D
:1013F00001E0E7808044974001E0E78080CB974799
:10140000000023A90774FD596C002685EF202031C8
:1014100015E517250000130545F5193E83A78196AC
:101420003707100098C70547B8DB0D45B250225466
:1014300092540259F249624A4561828063743501CF
:101440003244AA898440E9F0FD571305F00FE38F79
:10145000F9FC914763F187029307B4FF2320F90059
:101460002324FA0A99E79747000083A7E72C232053
:10147000F900014565BF9747000083A7E72BED17EB
:10148000A297E9BF09455DB7797126D206D622D465
:101490004AD04ECE52CC56CA5AC85EC68347550370
:1014A00003447513AA843E941374F40F9307400207
:1014B00063F687001304B4FD1374F40F03A98413B7
:1014C00083A9C413A38B841222864A85CE8597B044
:1014D00001E0E7806065058915E503CBD412014A78
:1014E000814A337B6403930B500252864A85CE8532
:1014F00097B001E0E780406305890DC563916A03F9
:101500001374FA0F238B8412B2502254925402594E
:10151000F249624AD24A424BB24B45618280850A07
:10152000939A4A60050AE3127AFDE9BF8327850989
:1015300003560504797193D60701BD8EB3C606081C
:10154000358E93575640898B135776485D8F935746
:101550003640918B5D8F93571640A18B5D8F93170B
:101560001600C18B5D8F9317360093F707025D8FCE
:101570009317560093F707045D8F9317760093F740
:10158000F70F22D45D8F2A849357D6001355B600E7
:101590001189898B93558600C98F1355F6002582D2
:1015A000C98F218AD18F13961500418AD18F139646
:1015B000350013760602D18F139655001376060474
:1015C000D18F139675001376F60FD18FA207C545FC
:1015D0005D8F3307B70226D24AD04ECE032984133B
:1015E0008329C4135AC806D652CC56CA36973347F5
:1015F000070813565740098A93577748D18F1356D7
:101600003740118AD18F13561740218AD18F131674
:101610001700418AD18F1316370013760602D18F37
:101620001316570013760604D18F1316770013761E
:10163000F60FD18F1358B7001356D7001378480010
:10164000098A13558700336606011358F70025836E
:1016500033660601218B518F13161500418A518F75
:101660001316350013760602518F131655001376A4
:101670000604518F131675001376F60F518F22074B
:10168000D98FB387B7025EC6B697B3C7070813D51D
:101690005740098913D77748498F13D537401189A7
:1016A000498F13D517402189498F13951700418918
:1016B000498F1395370013750502498F139557000D
:1016C00013750504498F139577001375F50F598D20
:1016D00013D8B70013D7D70013784800098B13D657
:1016E00087003367070113D8F700A5833367070125
:1016F000A18BD98F13171600418BD98F1317360082
:1017000013770702D98F13175600137707041E06A5
:10171000D98F1376F60FD18FA2073367F500330701
:10172000B702130650024A85CE853697B98EB3C4E8
:10173000060833F6C402137BF60F97B001E0E7808A
:10174000A03E058905E9834AD412014A930B500251
:10175000B38A9A02814493DA0A0126864A85CE85A5
:1017600097B001E0E780403C05890DC563914A03CD
:1017700013FBF40F230B6413B250225492540259FA
:10178000F249624AD24A424BB24B45618280050A15
:10179000137AFA0F8504E39274FDE9BF8327C50825
:1017A00003568508797193D60701BD8EB3C6060826
:1017B000358E93575640898B135776485D8F9357D4
:1017C0003640918B5D8F93571640A18B5D8F931799
:1017D0001600C18B5D8F9317360093F707025D8F5C
:1017E0009317560093F707045D8F9317760093F7CE
:1017F000F70F22D45D8F2A849357D6001355B60075
:101800001189898B93558600C98F1355F60025825F
:10181000C98F218AD18F13961500418AD18F1396D3
:10182000350013760602D18F139655001376060401
:10183000D18F139675001376F60FD18FA207C54589
:101840005D8F3307B70226D24AD04ECE0329040A51
:101850008329440A5AC806D652CC56CA369733470B
:10186000070813565740098A93577748D18F135664
:101870003740118AD18F13561740218AD18F131602
:101880001700418AD18F1316370013760602D18FC5
:101890001316570013760604D18F131677001376AC
:1018A000F60FD18F1358B7001356D700137848009E
:1018B000098A13558700336606011358F7002583FC
:1018C00033660601218B518F13161500418A518F03
:1018D0001316350013760602518F13165500137632
:1018E0000604518F131675001376F60F518F2207D9
:1018F000D98FB387B7025EC6B697B3C7070813D5AB
:101900005740098913D77748498F13D53740118934
:10191000498F13D517402189498F139517004189A5
:10192000498F1395370013750502498F139557009A
:1019300013750504498F139577001375F50F598DAD
:1019400013D8B70013D7D70013784800098B13D6E4
:1019500087003367070113D8F700A58333670701B2
:10196000A18BD98F13171600418BD98F131736000F
:1019700013770702D98F13175600137707041E0633
:10198000D98F1376F60FD18FA2073367F50033078F
:10199000B702130650024A85CE853697B98EB3C476
:1019A000060833F6C402137BF60F97B001E0E78018
:1019B000A017058905E9834A1408014A930B5002D0
:1019C000B38A9A02814493DA0A0126864A85CE8533
:1019D00097B001E0E780401505890DC563914A0382
:1019E00013FBF40F230F6407B25022549254025990
:1019F000F249624AD24A424BB24B45618280050AA3
:101A0000137AFA0F8504E39274FDE9BF797122D449
:101A100026D22E84AA84414697D501E0938505B647
:101A20000A8506D6972000E0E780A01A414697D5A0
:101A300001E09385A5B40808972000E0E7806019CD
:101A40003C3010088A85DC875C2026855C875C300A
:101A5000DC86973001E0E780E04A0347F1011C2073
:101A60000145631EF7000347E1011C30014563187F
:101A7000F7000345D1013C201D8D13351500B250F0
:101A80002254925445618280011122CC26CA4AC850
:101A90004EC606CEAA84174400000324A4F21309FC
:101AA0002500854905C09C303830858B6304F700DC
:101AB000405CCDBF1946930544004A85EFF0CF90B6
:101AC000E31835FFF24022856244D2444249B249CC
:101AD00005618280411122C426C24AC006C617444D
:101AE0000000032424EE93042500054901E8B240D8
:101AF000228522449244024941018280A685130531
:101B0000A4022937E30525FF405CCDB7011122CCA3
:101B100026CA06CE2AC42EC617440000032404EAAF
:101B2000854419E001450DA09C841830858B630421
:101B3000F7000044FDB719469305A10013052400E2
:101B4000EFF08F88E31795FEF2406244D2440561BE
:101B500082800000EFF00FC1730000000000000061
:101B6000938281870383020023800200630F0300B6
:101B7000F32510342EC0970500009385E5FD739082
:101B80001534EF00405B7300203086DCEF00A05A74
:101B9000E6508280000041114AC0138981950327D5
:101BA000090026C206C61C5F22C49384419593D7C0
:101BB0006748B5CF930700061CDF174400001304E5
:101BC00024F7184C930700086317F7009C409C43C8
:101BD00093F707041CCC1C4093F7070489CB83A719
:101BE0000188829748D81C4093F7F7FB1CC01C4023
:101BF00093F7070289CF1C4003A78196B706080018
:101C000093F7F7FD1CC05C5414C786077CD71C48AB
:101C100093F7070489EF85475CC83707020083A75D
:101C2000819698C71307000C18C81854F8D3832757
:101C30000900985F1357474811CF985F1367070152
:101C400098DF83A7819623A20706854717470000E0
:101C50002328F7EE9C40D8431357174819C7D84399
:101C6000759BD8C3D843799BD8C3B24022449244D1
:101C700002494101828005377300203097470000F8
:101C8000938707EB3707040088DB698F01CF03A731
:101C90008196FD5634D7974600009386E6A1D84E2C
:101CA0000507D8CE1377850019CF984783A681956D
:101CB0001367170098C71307000898CBD856719B75
:101CC00013671700D8D61377150001CFD84383A622
:101CD000819513671700D8C3D856719B13671700F7
:101CE000D8D61377650019CF1377450059C39843A9
:101CF0001367170098C383A68195D856719B136705
:101D00001700D8D64167698F0DC39746000083C678
:101D100066C6C18A17470000130787BEA5C283465F
:101D2000470793E60602230AD70637070200698FA2
:101D300001CF984B1377070819C3054798CB83A7A2
:101D400081963707020098C7B70708007D8D0DC13F
:101D500017470000034717C2058B9747000093877A
:101D600027BA1DCB03C7570713672700A38AE706C7
:101D70008280D84713671700D8C7B5BF8346470787
:101D80000946BD8A6388C600834647070D46BD8A5B
:101D9000E39DC6F8914641BF03C75707118B69DB26
:101DA00003C7570713678700D1B783A681961747E4
:101DB00000001307E7D71C43858B91E75C43858BB5
:101DC00099E3FC52EDFB9747000023AD07D68280D4
:101DD000938681952A8788421C5D93D75748D1E71F
:101DE00081C51C59BD839CA115C69C42945BC60647
:101DF00093D7660163D6060093E707C0B3C7070809
:101E00008316060093975760B9C6BE968947B3C636
:101E1000F60216A283A78196BC4B083393D7574886
:101E20008DCF29C59746000083A606D293F60604F7
:101E30009307950009459DCABA979C230547194504
:101E400093F6F7066394E60201459397476063DFD4
:101E50000700394582801EA275BF2A974833137543
:101E6000F5077D153335A00082800545828083A764
:101E7000019699CB944BD04B9842518F98C2944382
:101E80009C479842D98F9CC2138681960548184278
:101E900083A6819597470000938787C9631205053C
:101EA00003A806001368080823A0060183C62702BA
:101EB000B3C5D52054479385A50C139816492326FE
:101EC00007010F100000184237060200860510C7F0
:101ED0001306000890CB6CD354C7238EA194828044
:101EE00088421375F5F788C283C62702B3E5D5206B
:101EF00054479385E50E1395164948C70F10000007
:101F0000184237060200860510C71306000890CB5A
:101F10006CD354C70945D1B7411122C4AA8706C65C
:101F200026C22E8513848196B285DDE71C40F853C6
:101F30007DFF3707020098C79747000023AE07BE12
:101F4000973400009384C479DC5085C7B7E700E07C
:101F50003707200023A0E728B7F700E0938707D0D2
:101F6000984B6D9B98CB984B1367870398CB730066
:101F70005010F53D83A7819598431317772998C38F
:101F8000D857719BD8D79747000023AD07BA97471A
:101F9000000023A107BA1C40094798C3DC5099CB25
:101FA00037F700E0832707D193E787002328F7D08E
:101FB00073005010144017470000130767B71C4701
:101FC000858B91E75C47858B99E3FC52EDFBB24032
:101FD00022449244410182800D47639EE704974763
:101FE000000023AB07B49747000023A907B4973438
:101FF00000009384E46EDC5085C7B7E700E0370744
:10200000200023A0E728B7F700E0938707D0984B7C
:102010006D9B98CB984B1367870398CB7300501038
:10202000B93583A7819598431317772998C3D85753
:10203000719BD8D7A5B70547E39EE7F69736000012
:102040009386066ADC5285C7B7E700E037072000B1
:1020500023A0E728B7F700E0938707D0984B6D9B44
:1020600098CB984B1367870398CB730050101C4094
:10207000D04713171649D8C70F1000001C40370768
:10208000020098C7130700089745000023AAE5AA95
:1020900003A7819518431357774819C71307E0180A
:1020A000F8D3D0C7DC52E5BD1307E01AD5BF83A72C
:1020B000019689CFD44303A887009842336707016C
:1020C00098C2D447DC4B9842D98F9CC2054783A75E
:1020D00081959505631EE50298431367070898C329
:1020E000984F137707C01367A71398CF130780077C
:1020F000B8BB939735009387C703174700001307B2
:1021000027A31CD7238EA19419C2060610D782805C
:10211000984309451377F7F798C3984F137707C08B
:102120001367271398CF1307F007B8BB93974500A1
:102130009387C703D9B783A781968847D847798DF6
:1021400011C588C783A7419691C38287828089671A
:1021500003A78196938707F47CD383A6819783A7EF
:10216000060993D7A74991C783A7060993D797492B
:1021700099E37C53EDF782804111B7E700E022C478
:1021800080433707200006C6798C23A0E7180F107C
:10219000000011C199E5B7E700E023A087100145D1
:1021A00049A80D0533450508130740037199B34746
:1021B00005086362A70203A581A083A601A0639F0F
:1021C000A600173700000327A75471D7C207DD8D7B
:1021D00005450297C9B703A541A0C5B77A2131EFDC
:1021E0005A21636CF704B306F74021481736000004
:1021F0001306864C6375D8028328050003586600D1
:10220000938687001D8FAA966117DAA223A0160174
:102210002393060014C15EA1130788FF7AA27A22D5
:102220006EA12105B307F7407EA2B7E700E023A027
:102230008710B240224441018280084149B7B7E784
:1022400000E08C433707200023A0E718F98D0F101A
:10225000000001E523A0B710828003A381A083A81A
:1022600001A09A87814663F8170903A807006367EE
:10227000F5086365A80813878700636EE506F223F7
:10228000216705076317E6001386319218220507B8
:1022900018A21735000013052542D2237A21239373
:1022A00007003297334707087AA16383670203A3C5
:1022B00041A0630FF30003D36600631B0300DE221B
:1022C00023A0060121073E962106D2A27AA1B68755
:1022D00098436302170383A641A0630ED7007623B9
:1022E00099EAD62352231843A106B296D6A398C3DF
:1022F0007E21A1077EA1B7E700E0A9BFBE86C28705
:102300009DB7AA8703A781A003A601A0B305B54086
:102310006314E6003E8529A8930687001843E3E985
:10232000D7FEE3F7E7FE2E85E3E4D5FEE3F2E5FE14
:102330008280411126C206C622C44AC097340000DA
:1023400083A484616383041003A4C40AAA86054598
:1023500035C03C241307700A6390E70858301C34DA
:10236000173900001309C93C03268900B387E70227
:102370000357C900B387E702130700329387071991
:10238000B3D7E70203A744093E97BA846364F70012
:102390006364C700B304C74083A7018884C28297DF
:1023A000B387A44063F5A40003278900BA9789EB9B
:1023B0001305F00FB2402244924402494101828049
:1023C00058309306204E3307D702E3F3E7FE930716
:1023D00080FA3CA40145F9BF1307800AE39AE7FCA1
:1023E00083A7018882972A893545EF10806CAD4715
:1023F00017370000232CF77458301C3417360000B0
:1024000013060633B387E7025A261046B387E7025E
:102410001307003293870719B3D7E70203A74409CC
:102420003E97BA866364F7006364C700B306C7408B
:10243000E310D9F8179501E01305C55DEFE05FAF34
:1024400083A781960947F8D7A5B70545A5B7397180
:1024500056D2973A0000938AAA6D83A70A033707DA
:10246000080026DA06DE22DC4AD84ED652D45AD0EC
:102470005ECE62CC66CA6AC86EC6F98F9734000019
:1024800083A4844D6384071C83A9C40A83C799006D
:1024900003A4C90092073E942820B14705053305DF
:1024A000F5025E203E9533450508EFE02FD1AA8C5A
:1024B0006305051A130DC5002324A50134203146F8
:1024C000370B0300B386C602231304000149138AA5
:1024D0008196938B8195938D8197130B8B15054C6A
:1024E000EA9654C483C679009307D00783250A006F
:1024F000B386F602C1679CC5370833008606B4D19F
:1025000083A60B0090421376F6CF90C290421376CA
:10251000F6CF1366062090C203A50D001045336662
:10252000060110C503A6090023A8650593055002FE
:1025300090C672205444B2962324DD001430014624
:10254000CA96A301DD0003C504089736000023A343
:10255000065EB13E83260A00CC4613961549D0C6C6
:102560000F10000083260A003706020090C61306EB
:10257000000823A8CA0003A60B0010421356764891
:10258000631F860B1306E018F0D2CCC61736000086
:10259000232A065A17360000232E065823A0860148
:1025A000EFF0BF80EF10C04983A64A00858AD9CAE0
:1025B000EA85268597A001E0E780E04B0DE9034618
:1025C0005D0049C276204E20B29663DDB606B4287F
:1025D000AC4803258D00918E8906B695EFE02FCD8E
:1025E00023020D0003465D007620B29676A00326F6
:1025F0000A00310D3452FDFE342005091379F90F1C
:10260000E362D9EE9C246685A381FC001C20A38292
:102610000C002383DC002382FC006254F250D2546D
:102620004259B259225A925A025BF24B624CD24C36
:10263000424DB24D216117E300E0670023F013061D
:10264000E01A99B7FD562302DD0055B783A781969E
:10265000FC5781C78547238CF186F2506254D254CF
:102660004259B259225A925A025BF24B624CD24CF6
:10267000424DB24D21618280411122C406C626C25C
:102680004AC02E848DCD13F915008147414763025E
:102690000904131745003E97B1463307D70283A4B8
:1026A0000189B317F02833C90708BA949C40C84081
:1026B000829723A0040023A2040033448900B2407F
:1026C000228522449244024941018280B356F44853
:1026D000E9F28507E39CE7FECDB7011126CA06CED5
:1026E00022CC4AC84EC6AE84A1C593F7150001445A
:1026F0004147B1CB93174500A2973147B387E70213
:102700009389018903A909003E998327090081C79C
:1027100003254900829731473307E40283A7090064
:10272000BA979C478DC733148028B3470408BD8CE3
:10273000F24062444249B2492685D2440561828012
:10274000B3D68448C5FA0504E31CE4FECDB72320C4
:10275000090023220900C1BFAA8703A5818811E1CE
:1027600082803A216315B7001821E30BF7FE484534
:10277000FDB77971B7E700E022D4804352CC06D68A
:1027800026D24AD04ECE56CA5AC85EC662C43A8ACB
:1027900037072000798C23A0E7180F10000005E10F
:1027A00023A087100945B250225492540259F2498D
:1027B000624AD24A424BB24B224C4561828083A787
:1027C0000188B6892A89AE8A328B938B01898297D8
:1027D00003A70B008144B146C147338CD4023306B2
:1027E0008701104235EEC165938505F04145EFF054
:1027F000BF9819ED9737000083A787F181C78145FE
:1028000011458297B7E700E023A087102D4561BFEF
:10281000138781881C43A1E308C323000500B31775
:1028200090283EA183A70B002326050023246501E1
:1028300023224501E29723A0270123A2570123A4C5
:1028400047016384090023809900B7E700E023A0D3
:102850008710014589BF3E87DC47F5FF48C775BF34
:102860008504E39CF4F6B7E700E023A08710214538
:102870001DBFB7E700E09843B706200023A0D71894
:10288000758F0F1000009736000083C6F6E2637163
:10289000D50283A6C1883325D5201621D58D0EA15A
:1028A0009736000023A206E223A0E71001458280AC
:1028B00023A0E7100D4582800111B7E700E022CC8C
:1028C00080433707200006CE26CA4AC8798C23A049
:1028D000E7180F100000BD4763E7A704314733072F
:1028E000E50283A70189BA979C4395CF3315A028A9
:1028F0002E89B345050801452EC6B93DAA8409C9EC
:10290000B2450145972000E0E780006723A4240139
:10291000B7E700E023A087100145F2406244D244AB
:10292000424905618280B7E700E023A0871009458E
:10293000EDB79737000083C737F8AA86850703A548
:10294000418F014712216307D60005071905E36B84
:10295000F7FE014582802A8703A5C18F11E182809D
:102960001C45B227636BC70003584500B306C80077
:102970006355D7008146639406010841C5B703D368
:10298000A700938807016316E30091C192A13E85D9
:1029900082808506C687B3C60608F1BF9736000059
:1029A00083C686F183A7819201476394E6000145BF
:1029B0008280AE231386C7036394A5003E85828080
:1029C00005071377F70FB287CDB7411122C406C6AA
:1029D00097370000238007FA03A4819305C06C3960
:1029E0000145B315B028B3C50508973000E0E7806E
:1029F00080A3930710273305F50202942244B240C6
:102A00008145014541016FE08FD3411106C6383D34
:102A100019C73425631ED702B24041017DB73C2D52
:102A2000E5DF3825E30AF7FE3CA5814517F5FFFFF2
:102A300013058590EFE0AFD09737000083C747D0EC
:102A400089C783A781965147F8D3B240410182805C
:102A50003C2D89C7E39AF6FC38A5C1BFD5FEEDBF72
:102A600041114AC0173900001309890C83278900D6
:102A700022C426C206C697340000938464E8858B7E
:102A8000E0509DCB9737000023A8070A83C744076F
:102A9000C18B85CFEF00D07A83C7440793F7070235
:102AA000E5DF83C74407228593F7F70C238AF406F2
:102AB00097F000E0E780E044EF0090782285224420
:102AC000B24092440249410109B783C75407858B3C
:102AD00091CBEF00F0768D47230EF406BC5822858B
:102AE0008297D9BF83C744071547BD8B6395E70419
:102AF0008347B406034534060146930550025D8DB5
:102B0000EFF0EFDA014681450545EFF0EFC083278E
:102B1000C900858BD5D322859737000023A00702F3
:102B200097F000E0E780A02541F9B24022449244AA
:102B300002494101828083C744071947BD8BE39D49
:102B4000E7F68347B4060345340601469305500271
:102B50005D8DEFF0CFD5014681450545EFF0CFBB48
:102B60008327C900858BA9DB22859737000023A71F
:102B700007FC97F000E0E78000FA7DB7411122C41E
:102B800026C206C67C2578452A84BD8B1CA91CA3B9
:102B90001D4764456395E7340547B8A08347F505AD
:102BA0008D466393D7185E2DCDE37C491147B18BD9
:102BB000638DE70831476398E700034715068347AD
:102BC000F5076304F7088547BCB01946930564030D
:102BD00013854400EFD0BFEDBC20990793F7F70FA2
:102BE000BCA0034704061377070401CFB83013676E
:102BF0000704B8B07844BA975838B8B3BC208507F2
:102C0000BCA097370000238707D6BC2013F7F70333
:102C1000050718B80347E4051A07D98FBCA08347F6
:102C20005403858B91E70347440389476317F700F3
:102C300078441C2393E707041CA37C44183898B3FA
:102C4000B2402244924441018280A147BCB08357E4
:102C5000C406973500009385A5CA13868196DCA02B
:102C60008357C406034714067444A1831207BD8B1F
:102C7000D98FDCB2B4208547890693F6F60FB4A04D
:102C800017370000034707CF631EF706183C9387EA
:102C9000E6008E07231AF4069387C708B387E70276
:102CA000794510420948238A0507C1650CC69387F8
:102CB00007FBB3C7070893877716B3C7A70233C7C5
:102CC0000708B387A70286073CD2BC3093E7070109
:102CD000BCB07C44B6978346240693E60604B4B39E
:102CE000B4207C44B697D8A3B4207C4421837D8B48
:102CF000B697834634069606558FD8B3BC208D0709
:102D0000BCA021B71042F947385205833357F70268
:102D10003C5268528583FD8BAA977CD28D47238ACB
:102D2000F5063347070855B71946639BC7125E2D52
:102D3000C1E393056503B8B013854400EFD03FD7D6
:102D4000BC201385A4009907BCA0BC3093E72700E2
:102D5000BCB083475403898B95CF0C58BC299DCBBD
:102D60001946D105EFD0BFD478441C2393E707F868
:102D70001CA3BC20990793F7F70FBCA003470406D8
:102D800013770704E30F07E6B430784493E60604AC
:102D9000B4B095B58347D40391C778441C2393E717
:102DA00007F81CA319469305E403EFD05FD0D1B711
:102DB000A147BCB08357C506DCA08357C5060346B0
:102DC00015066C45A1831206BD8BD18FDCB1B020F6
:102DD000173500001305C5B2938581960906137651
:102DE000F60FB0A09737000083C7C7B86398E70411
:102DF000183C9307E6008E07231AF4069387C7084A
:102E0000B387E70279488946230AD5069441C1650C
:102E10008CC6938707FBB3C7070893877716B3C79A
:102E2000070333C70708B38707038607BCD2BC3044
:102E300093E70701BCB07C44B29771BD8C41B85197
:102E4000F94705833357F702BC5103A8450685832C
:102E5000FD8BC297FCD1230AD50633470708C1BFB3
:102E6000A147BCB08357C506DCA08357C5060346FF
:102E700015066C45A1831206BD8BD18FDCB1B02045
:102E8000173500001305C5A709061376F60FB0A085
:102E90009737000083C707AE83A58196E391E7FAD1
:102EA000183C9307E6008E07231AF4069387C70899
:102EB000B387E702F9460948230A0507416588C533
:102EC000938707FBB3C7070893877716B3C7D70263
:102ED00033C70708B387D7028607BCD189BF054728
:102EE000639EE706B1471CB983475503898BA1CB85
:102EF0000C59BC29A9C71946D10513858400EFD008
:102F00001FBB78441C2393E707F81CA368441946A9
:102F1000930564030905EFD09FB911679737000047
:102F200083A707ABF98FE38C07CE7C24B98BE3989A
:102F300007CE78441C2393E707021CA3CDB1834737
:102F4000D40389C79C2093E707F89CA068441946DE
:102F50009305E4032105EFD09FB54DBF522D0C55CD
:102F60009307660093F7F7031CB913858400E5B750
:102F7000011126CA97340000938484BB9C4422CC60
:102F800006CE173400001304A497858B6850C9C37C
:102F90002AC69737000023A107BAEF00702A03471B
:102FA0004407894732456307F700034744078D47C5
:102FB000631CF70283A68196BC520357450785839D
:102FC0001307C71263F2E702BC528583B1C391476E
:102FD00003474407E31EF7FE6244F240D244056112
:102FE00017F300E06700031A382D3C3D09CF342564
:102FF0006309D7026388F60238A56244F240D244DE
:1030000005616FE02F9B99CF382509EF3CA5F5B7F7
:103010002AC6EF00F02262443245F240D2440561F4
:103020006DB2EDF7DC4CEDF70347440789476307C2
:10303000F700034744078D47E31CF7FC914703471C
:103040004407E31EF7FE49BF630E0530011122CC91
:1030500006CE26CA4AC84EC652C456C2582585470F
:103060002A846316F72C97370000938767ACD44FF8
:103070001547638AE600D44F0D476386E600D84FB4
:10308000AD476312F7026C386244F240D2444249C1
:10309000B249224A924A01450561B315B028B3C529
:1030A00005086FF00FFD1631130700649734000018
:1030B000938404853347D7029C20E8D0850793F793
:1030C000F70F9CA063CAE700972000E0E780A07498
:1030D000973700002386078278249D47631FF704F3
:1030E00083479406B1C38356040763ECF6020C24AD
:1030F000930730041CAC1305300493F6F60F014619
:10310000975001E0E780A0EC22856244F240D2446F
:103110004249B249224A924A0561170301E0670019
:10312000E3B485062318D40693053002054597209D
:1031300000E0E78020672301A4060549238A2407CD
:10314000183C8D47631CF70E972000E0E78060DC99
:103150000D89630F051463162517930760023CA4BD
:10316000930750023CAC9307700278243CBC85471F
:103170006302F70889659385F57013051027172AF0
:103180000000130AEA5A83497401972000E0E7809F
:10319000E0630E30835ACA002A8913060064B3859F
:1031A0005503814613850532B335B50097A001E07C
:1031B000E78080D7AA84B335590337460F0013063A
:1031C000062481463305590397A001E0E780C0D566
:1031D00083270A00AA948297B307950003278A00E1
:1031E000BE8563E4A70063E4E700B385E7404E854E
:1031F000EFF08FEC83475403898BE9CB8347C403FB
:10320000F1C70C58E1C5BC25F1C38947230AF40274
:103210001946B10513056403EFD07F890347C4073E
:10322000894763E9E70A22856244F240D244424971
:10323000B249224A924A05616FD0DFF789467C3451
:103240006315D70213F7170019CB898B13075002A8
:1032500091EB9307700238A43CAC814739B7130750
:103260006002C5BF93076002FDB799CF93F61700C0
:103270001307500291E6898B13B7170013076702F3
:1032800038A4230D0400D1BF3C2C1307400263680F
:10329000F700930750023CAC3C2C3CA47DBF850753
:1032A00093F7F70F3CAC13077002E364F7FEEDB73A
:1032B00013077002930750023CAC38A493076002D6
:1032C0006DB51307500293077002FDB78547230AB7
:1032D000F402A9B70327C40A83A601883C27ADC31B
:1032E0001C37583397240000938484449044B38758
:1032F000E702DA24B387E70213070032938707193E
:10330000B3D7E702032744093E973A896364F7007D
:103310006364C7003309C7408296B307A94063744A
:10332000A9009844BA9703576407E3FEE7EEF2401A
:103330006244D2444249B249224A924A056182809B
:1033400083248409829663E9A40083576407338544
:10335000A440E37AF5ECE1BF9727000083A7C73DBF
:10336000BE94E5B7828001114EC69729000093896B
:10337000295922CC03A4C9094AC8172900001309F6
:10338000293B0357C90026CA8354640883270409CC
:1033900006CEB384E40237470F009306F7231307E2
:1033A000072452C456C25AC0B694B3D4E40263EEA2
:1033B0009702138A0188B384974083270A00829773
:1033C00063E9A4023385A4406349050283570404DA
:1033D000A30F040085072310F40483470414639E9D
:1033E00007102285EFE04F8A21AA03278900BA97A8
:1033F000C9B783278900BE94F1B783270A00829753
:10340000032784086366E50A198D7E3C0357C900CB
:103410008E07B387E7021307003293870719B3D7E4
:10342000E70263ECA708B74A0F00138BFA23938ACD
:103430000A248357040485072310F40483470414E3
:1034400081E72285EFE04F842285970001E0E78045
:10345000400B63130524032604090327C4088326AD
:1034600089003297BA876364C7006364D700B307E3
:10347000D740783C0356C9002328F408050778BCD8
:10348000035764083307C7025A9733575703B38467
:10349000E74063F5E700998EB384F60083270A00BE
:1034A000829763E6A4043385A440E34405F839BF5A
:1034B00083278900998F3E9589BFA1452285970072
:1034C00001E0E78020FCA305A4029727000083A762
:1034D00027246383071C6244F240D2444249B24924
:1034E000224A924A024B8945154505618287832706
:1034F0008900A6973385A7404DBF2285EFE00F8353
:103500002285970001E0E780C0FF63170518035587
:10351000C90083576408B7460F001386F623B387A4
:10352000A7029386062403270409230B0402832A97
:103530008900B297B3D7D702636AF716B307F7408B
:103540008326C4082324F408014BB387E600BE8415
:1035500063E4D70063E45701B38457411E30232846
:103560009408A1CB835604045A3037460F0056B056
:103570003387E640B387E7023A30130606248146D4
:103580008145BA97B3C707083385A7023EB097A015
:1035900001E0E780609911CD2695B3349500A6959A
:1035A000AA876314BB0063645501B3075541232800
:1035B000F40883270A008297AA8483270A00829747
:1035C000E30D95FE83270A0083248408829763E431
:1035D000A40E3385A440630B050E035AC90083571C
:1035E0006408B7440F001387F423B3874703938419
:1035F0000424BA97B3D79702172700000347D70FC1
:10360000BA9763E5A70CB3359502835A2402528614
:1036100081463305950297A001E0E780E090338969
:10362000AA0033854A0337460F0013060624814655
:10363000814597A001E0E780208F15C1B33795023F
:1036400052868146B385B4023385A402BE9597A005
:1036500001E0E780608DB38AAA4023115403354509
:10366000892923AE890838348547631AF7049307FC
:1036700000FD7CA4814503A50195EFD05F8C9547A3
:10368000172700002324F74C3707100083A78196E3
:1036900098C7060923A82707F2406244D24442494A
:1036A000B249224A924A024B05618280B306570111
:1036B000B387F64071B583278900BE9419BF93077D
:1036C00010FC7CA4814503A5819445BF9727000089
:1036D00023A6072C834709018DC303A5C193EFD00F
:1036E000FFA5624483274900F240D2444249B249CF
:1036F000224A924A024B05618287834594026244C2
:10370000F240D2444249B249224A924A024B014510
:103710000561B315B028B3C505086FF08F95011189
:1037200022CC26CA4EC606CE4AC852C456C25AC079
:1037300038358547832405092A84AE896314F70C3C
:1037400083570508835AC503172A0000130A4AFE47
:10375000035BCA0063FC571914296399E618032711
:103760008511631507180327450A63110718743577
:103770001D47639DE6162A3DB38AFA409307204E03
:10378000330555030329440937460F001306062461
:1037900081463305F5029727000083C7E7F53359C3
:1037A0002503B335AB023E99334909082313240995
:1037B0003305AB02979001E0E7800077B3079500EF
:1037C00033B5A7002E9503278A00BE8419E163E470
:1037D000E700B384E740B307690337470F00930658
:1037E000F7231307072423A09900B697B3D7E7025E
:1037F000D69763E4F4009D8C31A003278A00B307B9
:10380000F740BE94138901888327090023A09900FB
:10381000829763E2A4103385A440635D050A832781
:103820000900172B0000130BABF0829703A70900C8
:103830006369E50E198D7E3C0357CB008E07B38775
:10384000E7021307003293870719B3D7E70263EF44
:10385000A70C374A0F00930AFA23130A0A24835746
:10386000040485072310F4048347041481E72285A8
:10387000EFD09FC12285970001E0E78080C861E515
:10388000832604098327C40803278B00B697BE84C8
:1038900063E4D70063E4E700B384E7407C3C8356ED
:1038A000CB002328940885077CBC83576408B38722
:1038B000D702D697B3D7470363E6F40A9D8C8327D4
:1038C000090023A09900829763E1A40A3385A440EC
:1038D000E34705F89727000083C717E263E6A706CA
:1038E0009727000023AC870A0145B9A883576408CD
:1038F00037470F009306F723B3876703130707249F
:10390000B697B3D7E702E3F8F4EE03278A002697C9
:10391000B304F740C5BD9727000083A7E7E1BE9435
:10392000DDBD83278B00998F3E9531B7A145228558
:10393000970001E0E78000B5A305A40297270000E7
:1039400083A707DD81EF7D55F2406244D2444249AE
:10395000B249224A924A024B056182808945154547
:103960008297D5B71D8FBA9499BF83278B00BE94D9
:10397000B1BF83A7819598433706CEFF7D16137795
:10398000F7CF1367071098C303A781971447370829
:1039900003001375F51FF18E14C783A6819623A823
:1039A000060523A40700904B93F5F5071308881527
:1039B0001366F60390CB90431366060890C3F04F4E
:1039C000137606E0498EF0CF23AC070423A0070648
:1039D0005057759A50D79043137606F84D8E90C382
:1039E0001306401FF0D217260000232D06141726B9
:1039F000000023210614054690C29043B70533000A
:103A00001376F6CF90C390431376F6CF1366062055
:103A100090C310474D8E10C723A80605D85313171F
:103A2000F728D8D32547F05201C6B04FE37DC7FE33
:103A3000D8531317F748D8D3A853133545008280BD
:103A4000938681969C42B84B1377F78FB8CB9843F7
:103A50001367870098C39C4393D7374889C70100F1
:103A600001000100010003A781951C4393F7F7CFE4
:103A700093E707101CC303A681971C463707CEFFA8
:103A80007D17F98F1CC69C4237070300B8CB83A76C
:103A9000019699CBD44390479842518F98C2944B4A
:103AA000DC4B9842D98F9CC29727000023A0070ABD
:103AB000828083A781969C438D8BE9C74111B7E72C
:103AC00000E04AC003A9070026C23707200006C647
:103AD00022C4AA843379E90023A0E7180F1000005C
:103AE000172400001304C404584C8D47631AF700D0
:103AF0009727000083A787DD0146814545458297CA
:103B000019476391E4048347140289CB8347040275
:103B10006396970097270000A38C0702584CA14793
:103B20006315F700930780101EB0238C0186093FB0
:103B3000B2402244B7E700E023A027119244024993
:103B4000410182809D47639BF40083471402F9D7AB
:103B5000034704028D47E313F7FC6DBF544C6389A0
:103B6000E600584C6306F700584CA147E31FF7FAEC
:103B700083471402DDFB5C4C2300F4028547A3005D
:083B8000F40265B78280000029
:103B8800971100209381818D17C1012013010147EE
:103B98001305400097C5FF1F9385454617C6FF1FAD
:103BA8001306866563FAC5008322050023A0550025
:103BB80011059105E3EAC5FE17C5FF1F1305055951
:103BC80002852A8309CA83830500230073007D16B2
:103BD800050385056DFA82802A8311C62300B30088
:103BE8007D16050365FE8280B717004003C7770579
:103BF8001377E70FA38BE704130700F8A38DE704F7
:103C08003D47238CE70413075003A38CE70403C73D
:103C1800A7051377D70F238DE70482803717004055
:103C28008347E70412054111BD8BC98F93F7F70F3E
:103C380093068008F3B6068093F6860836C60F10FA
:103C48000000930670052300D704930680FA23002A
:103C5800D7040F1000002307F70423000704B24716
:103C6800F3A707800F10000041018280B7170040BA
:103C780003C7E7020D8941111377C70F498F9306D0
:103C88008008F3B6068093F6860836C60F10000043
:103C9800930670052380D704930680FA2380D704FF
:103CA8000F1000002387E70223800704B247F3A719
:103CB80007800F1000004101828041112A830148CA
:103CC800930E407E130F0019930F4006B348030864
:103CD80063EF1E0113030019337365028542FD4328
:103CE80063F6B2088D4F214F930E4006A1A07D13B5
:103CF800336EE3039308E016630E0E00336EF3038E
:103D08009308D01663080E009378330093B8180010
:103D18009388D816C29833C808084DBF93F8150081
:103D2800138EF5FF637CBF02F908C29833C80808F0
:103D3800B3450E08E394F5FF8545630B0300B3789C
:103D4800D5038145638608009375350093B5150042
:103D5800F105C29533C805088945E9BFB388134101
:103D6800C29833C80808B3450E089DBF7D1632981F
:103D780079463307C70213D61700BE073348080829
:103D880032976146B3F6C60213068070B386C60240
:103D98003697A166F58F4207D98FB716004003C73B
:103DA800F60213770708D883908303C7F6021377C0
:103DB8000708E316E6FE9883B71600404DCF1307B1
:103DC800800873370780137787083AC40F100000FC
:103DD80037170040930670052300D704930680FA2E
:103DE8002300D7040F100000232A07038346170374
:103DF80093E60608A308D70223000704224773277F
:103E080007800F1000001166371700407D16545BBD
:103E18004C5FAD8EF18EE5FE93068008F3B6068002
:103E280093F6860836C60F10000093067005230027
:103E3800D704930680FA2300D7040F1000005CDB38
:103E48008347170393E70704A308F702230007042F
:103E5800B247F3A707800F1000004101828003C713
:103E6800F60213770708D883908303C7F6021377FF
:103E78000708E316E6FE98837DD391B755714EDFA8
:103E880086C7A2C5A6C3CAC152DD56DB5AD95ED7BA
:103E980062D566D36AD16ECFAA8982C0EF00B01509
:103EA80093078008F3B7078093F78708BEC20F10FF
:103EB8000000B7170040130770052380E7041307B5
:103EC80080FA2380E7040F10000003C7F702137776
:103ED800770FA387E70203C7F70213678700A38753
:103EE800E702238007049647F3A707800F10000016
:103EF800130B80C1334B65039167938707E8130A57
:103F080030029546B347F502330A4B033EC8FD8796
:103F18003ED2BD67938707A6334AFA021357FA4180
:103F28003ACA330740413AD47D873ACC1307A0FBFD
:103F38003307EB02B347F7020567130707FA3ECECC
:103F4800FD873ED6938729003319F70063E43601CD
:103F58003319370161671307076A3345E502130709
:103F68000010B317F0288D873EC495473309A9027E
:103F78003349E902130740063309E9021307D0075A
:103F88003349E9021357F9413AD8331730290D87D5
:103F98003AC663EF374993075047B307F7023D67BF
:103FA800130707A6116C814A814B13048008371D3B
:103FB8000040930480FA7D1CB3876703B307F04081
:103FC800B3C7E7023ED0FD873EDA73370480137724
:103FD8008708BAC40F100000130770052300ED040A
:103FE800930D0D0423009D040F10000003473D05A9
:103FF8001377870FA309ED0403473D0513671700DF
:10400800A309ED0423000D042647732707800F102A
:104018000000930C70057337048013778708BAC6BD
:104028000F100000930770052380FD0023809D007A
:104038000F10000003473D0513670702A309ED04AD
:1040480003570D051317E7282318ED0403570D052B
:104058001317F7282318ED0423800D00364773271C
:1040680007800F10000003473D051377070263051B
:10407800073C03473D05218B6DDF880097C0FF1F74
:10408800E780E0797337048013778708BACA0F107E
:10409800000023809D0123809D000F10000003472E
:1040A8003D051377F70DA309ED0403473D05136795
:1040B8000702A309ED0403570D051317E728231872
:1040C800ED0403570D051317F7282318ED04238073
:1040D8000D005647732707800F10000003473D0562
:1040E800137707026301073803473D05218B6DFFEE
:1040F80097C0FF1FE78080572A873ADC97C0FF1FC9
:10410800E780C0566257E30AE5FE03570D050645EA
:104118001317E7282318ED0497C0FF1FE7802072C4
:1041280003473D05218B6DDF03570D0583462D059C
:10413800C24733778701B386860313D6F641BA960A
:10414800B388F640925733B7E60032971D8FD247AF
:10415800B3B61601158F63C6E700631CF700637AD0
:104168001A01E2476348F7326395E700A25763E311
:10417800F832894663F276337337048013778708F9
:10418800BAD00F100000130770052300ED042300B8
:104198009D040F10000003473D0593F6F90F1377B0
:1041A800870FA309ED0403473D05558FA309ED04C7
:1041B80023000D040657732707800F10000013060D
:1041C800700503473D051D8B63103737733704802F
:1041D80013778708BAD40F1000001307700523005F
:1041E800ED0423009D040F10000003473D051377DD
:1041F800F70DA309ED0403473D0513670702A3095B
:10420800ED0403570D051317E7282318ED0403578A
:104218000D051317F7282318ED0423000D0426575E
:10422800732707800F1000009306700503473D05AC
:10423800137707026304073203473D05218B6DDFBF
:10424800880097C0FF1FE780805D7337048013776D
:104258008708BAD80F100000130770052300ED0473
:1042680023009D040F10000003473D051377F70D49
:10427800A309ED0403473D0513670702A309ED04ED
:1042880003570D051317E7282318ED0403570D05E9
:104298001317F7282318ED0423000D044657732736
:1042A80007800F1000009306700503473D0513773C
:1042B80007026300072E03473D05218B6DFF97C05A
:1042C800FF1FE780A03AAA8C97C0FF1FE780003A3B
:1042D800E30C95FF03570D0506451317E728231828
:1042E800ED0497C0FF1FE780805503473D05218BEC
:1042F8006DDF7337048013778708BADC0F1000006E
:10430800130770052300ED0423009D040F1000001F
:1043180003473D051377F70DA309ED0423000D04AA
:104328006657732707800F10000003570D05834653
:104338002D05C25733778701B386860313D6F64116
:10434800BA9633B7E600329733882641B3B60601EA
:104358001D8F158F6346E00063180726630608263D
:104368001305800C3307E5020256D256B335050310
:1043780033050503BA95EF80817C9306150033B5A4
:10438800A6002E951357F501BA9633B7E6002A977B
:104398001316F70185820587D18E6346E000631FF7
:1043A800072C638D062C0356CD021582B305D60063
:1043B80033B6C50032976348E00063100736130729
:1043C800F00F637CB7340947637157279307800858
:1043D800F3B7078093F78708BEDE0F100000B71702
:1043E8000040130770052380E704130780FA238031
:1043F800E7040F100000DA3789668116558F3347B6
:104408000708DAB723800704F657F3A707800F10C9
:104418000000BE402E449E440E49FA596A5ADA5AA0
:104428004A5BBA5B2A5C9A5C0A5DFA4D69618280D4
:1044380022479307504795B6733704801377870848
:10444800BAC80F10000023809D0123809D000F1023
:10445800000003473D0513670702A309ED04238005
:104468000D004647EDBE7337048013778708BACC32
:104478000F10000023809D0123809D000F10000075
:1044880003473D0513670702A309ED0423800D00C8
:10449800664789B1E3920BCE7246B2569315170060
:1044A80013D3F80113951800B365B3003ADE46DC60
:1044B800EF80E1687257850B93FBFB0F6346E000C2
:1044C80031EFE258638C08049306150033B5A60053
:1044D800AA9513D7F501BA9633B7E6002E978582C9
:1044E8007E07558FF336048093F68608B6CE0F10F4
:1044F800000023809D0123809D000F10000083563B
:10450800CD023697334707082316ED0223800D00A6
:104518007647732707800F100000F5BC9306F5FF58
:1045280013351500898D75B773370480137787089D
:10453800BAD20F1000002300CD0423009D040F10F1
:10454800000003473D05558FA309ED0423000D0422
:104558001657732707800F100000A5B17337048022
:1045680013778708BAD60F1000002300DD04230054
:104578009D040F10000003473D0513670702A309B8
:10458800ED0423000D043657732707800F10000031
:1045980071B97337048013778708BADA0F100000EF
:1045A8002300DD0423009D040F10000003473D0590
:1045B80013670702A309ED0423000D045657732758
:1045C80007800F100000D5B19305800C3387E502F2
:1045D80033850503B3B50503BA95154763733705E6
:1045E800A247130750473387E70233066041330673
:1045F800E6023D67130707A63346E6029356F641DF
:10460800EF80E1531306F5FF13351500898D13D795
:10461800F5013A963337E6002E979316F70105828F
:104628009DBBB247130750477DBF130780087337F8
:104638000780137787083AC10F100000B7160040AB
:10464800130770052380E604130780FA2380E60425
:104658000F100000DA36056601161377F70F518F31
:1046680033470708DAB6238006040A47732707800A
:104678000F100000850A93FAFA0F81BA33E6E600B4
:1046880049CE0356CD02B335D0003307E0400D8F35
:104698003305D04015826345E00041E3637FA606F9
:1046A8000947637E570393078008F3B7078093F79A
:1046B80087083EC30F100000B717004013077005A6
:1046C8002380E704130780FA2380E7040F10000013
:1046D800DA377D8BDAB7238007049A473DB37337FF
:1046E8000480137787083AC50F1000001307700578
:1046F8002300ED0423009D040F1000000357CD0292
:10470800856681161377F70F558F334707082316E9
:10471800ED0223000D042A4791BF93078008F3B7E1
:10472800078093F787083EC70F100000B7170040AF
:10473800130770052380E704130780FA2380E70432
:104748000F100000DA379606369733470708DAB7AE
:1047580023800704BA4755B9914763ECB70497A774
:1047680001009387E7E2B3C5F52098413E97B71754
:1047780000409387470B0287944337170040B3F6EE
:10478800A64094C39306070B9C42B3F7A74019A809
:10479800944337170040B3F6A64094C39306070B1B
:1047A8009C42C98F9CC29307070A98433377A74056
:1047B80098C38280944337170040C98ED9B798436D
:1047C8003377A74098C3B71700409387070A9843E1
:1047D800498FF9BF9843498FF5B719C53717004076
:1047E8001E2FCD8F1EAF8280B71700409A2FB3754A
:1047F800B7408EAF8280B71700409A279306000C07
:104808001377070C630AD7049A27137707100DC785
:104818009A279E277D8B09EB93F70720B1C337555D
:10482800E80113050580828037C59812FD8B1305B2
:1048380005E03345F50282809A279E2713770720E3
:10484800FD8B11C73755E80113050580DDB73725FE
:10485800F40013050540F1BF2165130505D08280DA
:104868003725F400130505408280B7F700E0884734
:1048780082803285814737370040A14663C3A7004D
:1048880082803037E30FD6FE3386F5001022850785
:1048980010A7EDB797F6FF1F9386463CAA87884274
:1048A8001717002013078744AA9763E9E7000A87C8
:1048B800130707FC6364F7009CC282807D558280E1
:1048C800411122C406C62A843D372947B307E502A9
:1048D800B2408D83B3D7870222449507B3D7E70246
:1048E80037370040B3C707085EA74101828071656A
:1048F80041111305052006C6E137B73700401307F5
:1049080070F8B8A30D47B8B31307000498B3054768
:10491800F8A7B2404101828011456FF02FD64111AE
:1049280093962500AA852D4506C697C0FF1FE780E8
:10493800409DB240014541018280011122CC26CA26
:10494800939625002A84B284AA850146254506CE79
:1049580036C697C0FF1FE780C09AB2462686A28552
:10496800294597C0FF1FE780C099F2406244D244AE
:10497800014505618280011122CC06CE3714004022
:1049880026CA4AC84EC652C483447405034AB405AD
:104998008349840503499405EFF00FA58347A405CF
:1049A80093F4F40F137AFA0F93E71700230DF40426
:1049B80093F9F90F1379F90FB717004003C7A70543
:1049C800058B6DFF03D5C705A38D4705238C3705D8
:1049D800A38C2705A38B9704F2406244D244424932
:1049E800B249224A05618280411122C406C62E843A
:1049F8009397556063DE070097C0FF1FE780A0010B
:104A080011C139211315F468B24022444101828052
:104A180093F7150013C51500E5FB8967ED8F99CF4E
:104A2800EF00D148D53D37F60200130606E0896548
:104A380003C54186A9251315D468F9B711656D8D8D
:104A480061D517A501001305E5B5EF80711A1306A6
:104A58000064916503C541861D251315E4686DB78B
:104A68001D71494697A50100938505B417A5010056
:104A7800130505F986CEA2CC97C0FF1FE780401426
:104A880001E917A50100130565B3EF80711601A0B0
:104A980037F700E023240700F9571CCB0564B7E774
:104AA80000E023A08710BD4614C323A087180F1069
:104AB800000017D7FF1F1307270A23A0E186130753
:104AC80000F8A38AE7401306C0038145480897C049
:104AD800FF1FE780C00397F7FF1F9387273D3ECA54
:104AE800896793870780FC84A167938707E03ECE98
:104AF800B7070105938707103ED0ED472312F1024F
:104B080085472303F10297070000938787E1BEC416
:104B1800970700009387A7E2BEC6930754D12314D2
:104B2800F10297070000938787D43EDAB7F50700AC
:104B380097070000938767E43EDE814697070000E9
:104B48009387C7DD7000E1051945BEC097B0FF1F08
:104B5800E780207B19466C001305E102EFF06F86B1
:104B6800D24781C7BC8463F3870001A04808EF00DF
:104B7800D026AA8501C917A50100130565A5EF80F0
:104B8800417301A0F64066442561828041111705F2
:104B980000001305A5E506C622C4EF0070211384A2
:104BA800418608A0092808202244B2401306003292
:104BB80089654101E9A1397106DE13078008F337D9
:104BC800078093F787083EC20F100000B717004010
:104BD800930570052380B704130680FA2380C70461
:104BE8000F10000083C6F70293F6A60FA387D7021B
:104BF800238007049246F3A606800F10000073373F
:104C08000780137787083AC40F1000002380B70481
:104C18002380C7040F10000003C7F702136727009B
:104C2800A387E70223800704A247F3A707800F1092
:104C380000000545EFF08F83C53181470147814664
:104C4800054685451305407EEFF02F87680013065B
:104C58004002814597C0FF1FE78060EBB707C0A8F7
:104C68003ECAB787E803938707D03ECC97C7FF1F94
:104C7800938767CE3EC6680097C7FF1F938727CFE5
:104C88003EC8EF00103EF25021618280411122C4DB
:104C980006C62E849397556063D0070203C5C18664
:104CA80097C0FF1FE78020D711C19D221315F46814
:104CB800B24022444101828013F5150075D917F5D9
:104CC800FF1F1305E5F9EF30415C13451400CDB71C
:104CD8008D47630AF50263E9A7008547630AF50073
:104CE8008947630DF500828099476303F502828046
:104CF80017A501001305C58F6F80816F17A50100E7
:104D080013050590D5BF17A5010013056590EDB7EC
:104D180017A5010013058591C5B7011117050000F6
:104D2800130505F706CE22CCEF0090081384C18640
:104D3800854708A05C871306E1008D478545130564
:104D48005030DC87EF5081121306F10085451305BA
:104D58008030EF50A11117F6FF1F130666E3C14517
:104D680013057030EF50811017F6FF1F130646E148
:104D7800B54513056030EF50610F9305000A0D45E6
:104D8800EF20A0339305000A1145EF2000330820D7
:104D98006244F2408545056117E3FF1F6700E3ACF5
:104DA8004111114506C6EFE07FE71305503497C05F
:104DB800FF1FE780208DB7170040116723ACE70A73
:104DC800C1450545193C8545216579328D451165F3
:104DD8006132313E17A50100130585C2EF8041619C
:104DE80041316D33EF50E1300D3F97C0FF1FE78031
:104DF80040BA184183A785FF6319B7001CC1FD5746
:104E080023AC05FE238FF5FE8280232CF6FEC5BF5A
:104E1800411122C437E400E026C2044037072000CD
:104E280006C6F98C2320E4180F10000009E9232096
:104E380094101545B24022449244410182800347B0
:104E4800E5FF9307F00F6306F70023209410114540
:104E5800D5B797D0FF1FE780003E01452320941067
:104E6800D1BF41114AC037E900E022C40324090038
:104E7800B707200006C626C27D8C2320F9180F101C
:104E8800000089E523208910154515A0AA849717E5
:104E9800002083C7B7812E8563F5F400894763EE48
:104EA8009700BD37B7E700E023A087100D45B24053
:104EB8002244924402494101828083A785FF99E7F1
:104EC80003C7E5FF9307F00F6308F7009137B7E7CB
:104ED80000E023A087104DBF238F95FE138501871F
:104EE80097C0FF1FE78060ABA165268597E0FF1F8D
:104EF800E780A09701452320891055BF23A8018684
:104F080082804111B7E700E026C2844337072000BA
:104F180006C622C4F98C23A0E7180F1000009707D3
:104F2800002083A7277D1384C18091C782971C40E6
:104F3800AA971CC021A083A70188EDFB0840B747AA
:104F480003009387D73F3305F502B7A72600938759
:104F580037ECB2403E9508C02244B7E700E023A0F2
:104F68009710924441018280B7E700E09843B70662
:104F7800200023A0D718758F0F1000009706002077
:104F880083C6D672637ED50083A6C1883325D52013
:104F98001621B3F5B6400EA123A0E7100145828083
:104FA80023A0E7100D4582807971B7E700E026D28B
:104FB80084433707200006D622D44AD04ECE52CC9E
:104FC800F98C23A0E7180F100000930705FF93F74B
:104FD800F70F7D47636FF70831473307E50283A76B
:104FE8000189BA979C43D1C7135445003D893315AD
:104FF800A028AE89B345050822852EC697D0FF1F85
:10500800E78000752A8929C9B2452285170A002038
:10501800130A4A71913F83A7018882978357CA0070
:105028002A8481463387370313060064B3B73703EE
:1050380013050732B335E500BE95EF70F16DB30780
:10504800850083268A003E8763E4A70063E4D700CF
:105058003387D7402324E900B7E700E023A097105F
:105068000145B250225492540259F249624A4561AC
:105078008280B7E700E023A097100945DDB7797172
:1050880022D437E400E04AD003290400B7072000FF
:1050980006D626D24ECE52CC56CA5AC85EC63379E8
:1050A800F9002320F4180F1000009707002083C789
:1050B800F75F6376F50083AB018863970B00B7E76A
:1050C80000E023A0271199A0970A0020938A8A65F7
:1050D80003AB8A00B74736FE938707C83E9B83D742
:1050E800CA002E8AAA84B385C702B2898146B3B79B
:1050F800C70213850532B335B50013060064BE95A3
:10510800EF7091616370AB02232024110145B25006
:10511800225492540259F249624AD24A424BB24B43
:1051280045618280829B83D7CA002A841306006463
:10513800B38537038146B3B7370313850532B335D3
:10514800B500BE95EF70515DB307850003A78A00CF
:105158003E8463E4A70063E4E7003384E740D28534
:10516800268597D0FF1FE780A05E01C900C5B7E775
:1051780000E023A02711054559BF93E504F04145F8
:10518800B3C5050897D0FF1FE78080FE11E9970790
:10519800002083A7275785D7A6851145829705B78D
:1051A800138781881C4389EF08C385472326050098
:1051B80000C52311450104A11CB12322050045BFE8
:1051C8003E87DC47F5FF48C7CDB77971B7E700E000
:1051D80026D284433707200006D622D44AD04ECEA2
:1051E80052CC56CA5AC85EC662C466C2F98C23A09D
:1051F800E7180F10000025C12A892E8AB28AB689BD
:105208004144B14C138B0189130C0003B30B940375
:1052180083270B00DE979C43B9EF135544409375E1
:10522800F40056861375F50FB315B028B3C50508F5
:10523800B93531C183270B00DE9723A0270123A2AC
:1052480047016384090023808900B7E700E023A0B1
:105258009710014521A023A097100945B250225468
:1052680092540259F249624AD24A424BB24B224CFA
:10527800924C456182800504E31A84F9B7E700E09F
:1052880023A097102145D9BF011122CC37E400E0B3
:1052980026CA04404AC84EC652C406CEB7072000E4
:1052A8002A892E8AB289FD8C2320F4180F10000059
:1052B800F933D2854A8597D0FF1FE780604901ED11
:1052C800232094102145F2406244D2444249B24915
:1052D800224A056182809707002083D76745B385F6
:1052E80037032A89130600648146B3B73703138549
:1052F8000532B335B500BE95EF7011422322A900DF
:10530800232094100145C1B7011126CAB7E400E073
:105318004AC803A9040022CC4EC6B707200006CE0F
:1053280052C4AA892E843379F90023A0F4180F10E7
:10533800000097D0FF1FE780A041170A0020130A3A
:10534800EA361DE1A2854E85053183470A00638050
:10535800370523A024111945F2406244D24442493A
:10536800B249224A0561828023110500A2854E8533
:10537800E53E83470A006386370123A024110145CF
:10538800E1BF1387A1871E23C18F1EA3FDB7938793
:10539800A1879A23598C82A36DBF01114AC837E9A6
:1053A80000E022CC03240900B707200006CE26CA55
:1053B8004EC67D8C2320F9180F1000009307F002C9
:1053C80063E5A704B144B30495029389018983A7CF
:1053D8000900A6979C4395CB9375F5001181B315E9
:1053E800B028B3C505080D3783A709000145A6975E
:1053F80023A0070023A2070023208910F24062445B
:10540800D2444249B24905618280B7E700E023A04F
:1054180087100945E5B74111B7E700E026C2844384
:1054280006C622C437072000F98C23A0E7180F10FE
:10543800000097D0FF1FE780A03119E90145B2406D
:105448002244B7E700E023A09710924441018280EC
:10545800004583A701888297970700209387872CA8
:105468006367A4029847B74636FE938606C8330595
:10547800A4403697E374E5FC13070064B335E502EE
:10548800D22781463305E502EF7011294DBF9847B1
:105498003A94C9BF411106C623AEA1860295B2400F
:1054A8009707002023A0A7220145410182804111CE
:1054B80051468145170500201305852506C622C4D7
:1054C80026C223A4018823AE018623A00188238C49
:1054D800018623AA018697B0FF1FE7804063130661
:1054E80080028145170500201305451C97B0FF1F52
:1054F800E780E061EF40B148970700209387871D58
:10550800E82BFC3B170400201304441A85453E95FC
:105518008D473305F5029947938401893905137539
:10552800F50F28A03305F5021305052433450508B2
:1055380097D0FF1FE780C0C388C035C53020994782
:1055480081453306F6021306062497B0FF1FE7804D
:10555800005C9C40382093844188938707249CC032
:10556800B347F72023A6F188513AE12E1C30944026
:1055780017D6FF1F1306E61533C7D72010C31387A6
:1055880017001377F70F17D6FF1F1306660E33475A
:10559800D72010C313873700890718B093F7F70F80
:1055A800B3C7D72090C3B2402244924441018280BD
:1055B800970600209386860F2A87BC228832637B51
:1055C800F5001306150083A7418890B2B347F5206C
:1055D80098C382801305F00F82801C41F5C73707F6
:1055E80000F07D8FB706002089476310D70E5A2137
:1055F800411122C406C62A8479C319469305F00FBF
:10560800690597B0FF1FE780C06305478D476308AA
:10561800E50A1C4491C75858994755C3185C45C3B7
:105628001306C0038145170500201305A50A97B086
:10563800FF1FE780C04D1306C003A2851705002091
:105648001305450997B0FF1FE780E045970700203D
:1056580093874708DA2701E713070010DAA7F82726
:1056680019E30547F8A79A2B19E36D479AABF83762
:1056780019E31547F8B7B82B19E30547B8ABB83B9A
:1056880019E3F837B8BBD83B11C7937637000983BD
:10569800F4ABF8BBD82B19E35547D8AB182C01E766
:1056A8001307C00398AF9C5791C7829797070020AC
:1056B8002392A700FD57238EF19ED53B8147B24028
:1056C80022443E854101828089473E8582807971E6
:1056D8004ECE970900209389E90483A7090006D6CE
:1056E80022D426D24AD052CC829713090064B3350B
:1056F800250303D6C9008146170A0020130A0AFBAE
:1057080032C633052503EF70310183248A012A84C8
:1057180001456386840232463305944063EF840072
:1057280003A589008146B335A9023305A902EF70A4
:10573800A17EB307954033858700232C8A00B25099
:10574800225492540259F249624A4561828097076D
:10575800002083D707FE51471D45637CF702794730
:1057680019456378F7021307200315456373F70299
:105778001307B0041145637EF700130740060D4573
:105788006379F7001307600909456374F70013B5D7
:10579800B70F8280411122C426C22E84AA8406C66D
:1057A800058CEFF00FF6B327A402B24022443385EC
:1057B80097001375F50F924441018280411122C46C
:1057C80026C22E84AA8406C6058CEFF08FF3B32771
:1057D800A402B24022443385970033450508924419
:1057E80041018280411122C426C22E84AA8406C6A1
:1057F800058CEFF00FF13335A402B2402244269510
:1058080092444101828041114AC0170900201309BE
:1058180069EC8327890206C622C426C28DCF8297E7
:1058280097040020938484E89E242A848DC733F744
:10583800A70A33470708B3D7A70AB3C70708B307A8
:10584800F74051476359F7008327C90291C38297EC
:10585800EFF0D06582A4B24022449244024941014B
:105868008280011122CC23AA018817040020130486
:1058780064E65C5406CEAA8581C72AC68297B245DB
:10588800C1C59C410545ADCF9C45BDCBDE25ADCB03
:10589800FE25BDC79C2981CB7C287838BA976341FF
:1058A800F506DC41B1CF13064002170500201305A9
:1058B80065E797B0FF1FE780001F970700209387D1
:1058C80067E6984323A0E188183C19EFCA27930795
:1058D800805737460F003305F50213060624814624
:1058E8008145EF70616308BC183C9D4763E4E7009D
:1058F800A1471CBC170500001305A5DD613E014545
:10590800F2406244056182809707002023AE07DADF
:1059180097070020938707E117B7FF1F1307877EB4
:1059280098C337873200FD56130727A194C7D8C7F5
:1059380097070020238007E0B7C7004023A4D72695
:10594800ADBF011122CC170400201304A4D80844C9
:1059580006CE26CA4AC801E90545F2406244D24447
:105968004249056182805C58E5DB185C75D7700098
:10597800854582971844B247E300F7FE4A24930509
:10598800E00417090020130969D297C0FF1FE780B8
:10599800207E2320A90269D152249305F00F814467
:1059A80097B0FF1FE780A0167C240326090263C175
:1059B800F402328597D0FF1FE780E08701459707FB
:1059C800002023A507D09707002023A307D071B78D
:1059D8004E241844B3879502898185043385E700EE
:1059E8001C5C08C28297C9B7011122CC1704002099
:1059F800130444CE1C4426CA4EC656C206CE4AC814
:105A080052C45AC0AA84AE89B28A6388071A585801
:105A180039CB1307F01F6366A710170A0020130A73
:105A2800EAC803290A02631209044A249565938582
:105A380015E097C0FF1FE780A0732320AA022A86DB
:105A48001DC14E245C580844898182971C4403294F
:105A58000A022322FA028947639EF402C14793058A
:105A6800090C6381F9042945BDA003274A02E38490
:105A7800E7FE4A249565938525E097C0FF1FE780D8
:105A8800206F2A896DD14E242A865C580844898162
:105A98008297D1B78D47639AF404C1479305490D9E
:105AA800E393F9FCB8219307A0056312F7069E213A
:105AB800639F97044E869105568597B0FF1FE78030
:105AC80080FE83270A02638727014A8597C0FF1F44
