:020000024000BC
:04D000006F0090022B
:10D004000000000000000000A0500020A6570020EF
:10D01400A9BDF9F3A05000200000000000000000AA
:10D02400A0500020A05000200000000000000000DC
:10D03400A050002000000000A050002000000000CC
:10D04400A0500020A0500020A0500020A05000209C
:10D05400A0500020A0500020A0500020000000009C
:10D06400A0500020A0500020A0500020A05000207C
:10D07400A0500020A0500020A0500020A05000206C
:10D08400A0500020A0500020A0500020A05000205C
:10D09400A0500020A0500020A0500020A05000204C
:10D0A40001A0B7170040984B41111367070198CBB3
:10D0B400982B1377E70F98AB130780087337078013
:10D0C400137787083AC6010001001307700523800F
:10D0D400E704130780FA2380E70401000100B8473E
:10D0E400894613675700B8C703C7B7041377F70D0A
:10D0F400A385E704B82713672701B8A713075014BB
:10D104009AA737270040A303D78003C7E704137700
:10D11400C70F136717002387E704982B13671700BB
:10D1240098AB23800704B247F3A7078001000100EE
:10D1340041018280EFF0FFF6178504E01305C50A6C
:10D14400970500009385050A170600001306C66DAF
:10D1540063FAC5008322050023A05500110591053B
:10D16400E3EAC5FE179504E01305458B9705000017
:10D174009385856B1386818063FAC500832205003D
:10D1840023A0550011059105E3EAC5FE13858180AE
:10D19400938581816377B500232005001105E36D34
:10D1A400B5FE93025002739002BC8D42739042808C
:10D1B4008542739012BC8962938282887390023094
:10D1C40097020000938202E493E23200739052309B
:10D1D400979204E093826282739012347300203039
:10D1E4002303048015472303E48001002302A48061
:10D1F400828083076480E3CE07FE23030480828059
:10D2040083076480E3CE07FE03454480828083075E
:10D214006480E3CE07FE2302A4808280411126C4E9
:10D224004AC24EC006C61377F50BAD47AA892E89AC
:10D2340095446306F70019456537653F8D444E856F
:10D244004537FD59FD1463983401B240A244124994
:10D25400824941018280135509011375F50F453F39
:10D264002209CDB7011126CC06CEB70408005137E8
:10D274001545BD37713769372AC6A53F32459377BF
:10D28400150089EB136515001375F50FF240E244A0
:10D2940005618280FD14E9FC0145CDBF397126DCAE
:10D2A4004ADA4ED852D656D45AD25ED006DE62CE70
:10D2B40066CCB7E700E07D5783AA070022C603AA1D
:10D2C400470023A0E71823A2E718B7170040130765
:10D2D40070052380E704130780FA2380E70483C7DB
:10D2E4004704930B75FFB684E20793FBFB0F854657
:10D2F400AA892E8B328937240040E187015763FACB
:10D3040076016308D5008946130700026313D5002C
:10D314000157D98F93F7F70FB71C00402382FC0401
:10D3240011472303E4801305F00F5D3D094CD1350B
:10D33400636D7C11B7050700DA95378707007955C7
:10D3440063F2E504B3879500636EF702370B0800B8
:10D35400A94733EB65016399F90689E48144513D9A
:10D3640026850DA0DA850945553D05090345F9FFD4
:10D37400FD14050B693D81C49377FB0FFDF7DD3583
:10D3840069FD7D55B7170040130770052380E70436
:10D39400130780FA2380E70403C74704418B2382E1
:10D3A400E704F250B7E700E023A0571123A2471186
:10D3B400E25432445259C259325AA25A125B825B25
:10D3C400724CE24C21618280A5476395F906856918
:10D3D4001309F00FB3069900B3742B01B6941349E3
:10D3E400F9FFB3749900856B33796901416B9387B5
:10D3F400F9FFB3F7270199E363FC340193D949009A
:10D40400C147E3E637FF99BF0569C1697D19D9B7FB
:10D414001305800D63886901130500026384790193
:10D4240013051008CA85DD3B353D21DD4E99B384D3
:10D434003441D9B7DA852D45D533CA94E30099F23E
:10D4440005097D3BA30FA9FED5BF9387F9FF93F789
:10D45400F70F6361FC0C83C71C0413073008631FB8
:10D46400F70437070800636BEB04B3079B00B706A8
:10D47400100063F5D704334BEB0089476393F90637
:10D484008980D549E38C04ECDA850945413B1109CF
:10D494000327C9FF91472320E48003076480E34EF8
:10D4A40007FE23033481FD17EDFBFD14110B81C42A
:10D4B4009377FB0FE9FF7D3371F5E1B5B7170040B2
:10D4C40003C75704B70708001377070219E3B787A0
:10D4D40007007955E378FBEA33079B00E3FFE7F89D
:10D4E40055B58547E382F9F2DA852D45053B9389E5
:10D4F400F4FFE38504E6293393F7390091EB83269F
:10D5040004800327090093074900E39AE6E43E896F
:10D51400CE84F1BFB5476396F9001305900BC9316A
:10D5240035BDB1471305B00AE38BF9FE9947639102
:10D53400F904B7050800B365BB002D45C531814426
:10D544008D4BA14975396396740183270480232088
:10D55400F9008504E39834FF8327048013172B0113
:10D56400635507002312F900D5BB2322F900FDB34C
:10D574009D476399F90281451305B0044531BD44C3
:10D584002320090023220900FD599D3993F77400D3
:10D59400CA9703C70700FD14398D2380A700E396BB
:10D5A40034FF6DBBA1476392F9046D398144630D67
:10D5B4000B008D479304C0036308FB00930400052C
:10D5C40063048B01930440041375C507E30895D8DD
:10D5D4001945393139390545213126850D39094532
:10D5E4003D314931E31C05D669BB91476399F90084
:10D5F40013056006F536F53E130590090DB7E38F64
:10D6040009D4F154A9BBB7170040984B41111367D3
:10D61400070198CB982B1377E70F98AB1307800873
:10D6240073370780137787083AC601000100130790
:10D6340070052380E704130780FA2380E7040100C0
:10D6440001001307000C6315E5029A271367070C02
:10D654009AA7B7170040982B1367170098AB23803D
:10D664000704B247F3A7078001000100410182804B
:10D67400B82793760520DDC2118B29E303C7E7049D
:10D6840003C6E7041377F70F136636002387C7042E
:10D69400B02713664600B0A792278E2733460608A4
:10D6A40093E5050C8EA7A5470100FD1793F7F70F27
:10D6B400E5FFB717004092A72387E7049377051087
:10D6C400D5C7371700403C2793E707013CA793775A
:10D6D400F501A9EBB727004003C75780136707017B
:10D6E400A382E7801D47A383E78033450508B71766
:10D6F40000401367050C9AA78AA7D5C203C757042D
:10D7040083C65704418B858A558F21F7B82B418BEB
:10D7140029D3B8271377D70FB8A725BF13672700D6
:10D72400B8A769BF2547636CF700B727004003C754
:10D7340057801377F70EA382E78005476DB7937779
:10D74400050199EBB727004003C757801377F70EFD
:10D75400A382E780094741BFB727004003C757802A
:10D7640013670701A382E7800D47B5BF937785014F
:10D7740081EFB727004003C757801377F70EA382C2
:10D78400E7801307100585B7B727004003C7578004
:10D794001377F70EA382E78013077005A9B7B8279C
:10D7A4001377B70F95BF4111814601468145114555
:10D7B400F53413078008F337078093F787083EC4CE
:10D7C40001000100B7170040130670052380C70449
:10D7D400930680FA2380D70401000100FD55CEB7DB
:10D7E40023800704A245F3A50580010001007337D7
:10D7F4000780137787083AC6010001002380C70415
:10D804002380D7040100010003C7670413671700CE
:10D814002383E70423800704B247F3A707800100AA
:04D82400010001A05E
:10D828009791FB1F938101801721FD1F1301017D33
:10D8380017F5FFFF1305C57C9775FB1F9385057CBE
:10D848001786FB1F1306869963FAC5008322050015
:10D8580023A0550011059105E3EAC5FE1785FB1FB6
:10D868001305058D0285371700408347E704120525
:10D878004111BD8BC98F93F7F70F93068008F3B654
:10D88800068093F6860836C60100010093067005E7
:10D898002300D704930680FA2300D704010001006F
:10D8A8002307F70423000704B247F3A70780010002
:10D8B8000100410182800D06719A81473307F50006
:10D8C8006393C700828014433387F500910714C31C
:10D8D800F5B7411122C491462A841786FB1F130607
:10D8E800E6F49D652D4506C69780FB1FE780C09A24
:10D8F8009306001001469D6525459780FB1FE7802C
:10D90800A0991786FB1F130666F200A22244B240B4
:10D9180091469D65294541011783FB1F6700C39701
:10D928001787FB1F034707F08D476316F708130196
:10D9380001BFB7660200014685650545232481407D
:10D9480023229140232021412326114037740200CD
:10D958009780FB1FE780409437A9FDFFB7D40400E8
:10D968002285130600408A85B937B305240193063A
:10D9780000400A860945130404409780FB1FE7808E
:10D98800A091E31F94FC0545A937B766020001463C
:10D99800B775020005459780FB1FE780E08F0324D9
:10D9A80081408320C1408324414003290140856789
:10D9B8001301014182878567F5BF01119146700007
:10D9C8009D652D4506CE9780FB1FE780E08C1C8661
:10D9D80089461387F7FF1377F70F63F3E600854748
:10D9E800F2401787FB1F230FF7E205618280411180
:10D9F800114506C68D3D130550349780FB1FE780FF
:10DA080040C0653F313FB24001454101828000007E
:0CDA180000000000FF0000000000000003
:040000034000D000E9
:00000001FF
