:040000006F2000036A
:100004000000000000000000A0000020560B0020AB
:10001400A9BDF9F3E0010020000000000000000089
:10002400E0010020A000002000000000000000000B
:10003400A000002000000000A0000020000000003C
:10004400A0000020A0000020A0000020A0000020AC
:10005400A0000020D80B0020A00000200000000019
:10006400A0000020A0000020A0000020A00000208C
:10007400840C0020A0000020A0000020A00000208C
:10008400A0000020A0000020A0000020A00000206C
:10009400A0000020A0000020A0000020A00000205C
:1000A40001A0B7170040984B41111367070198CB83
:1000B400982B1377E70F98AB1307800873370780E3
:1000C400137787083AC601000100130770052380DF
:1000D400E704130780FA2380E70401000100B8470E
:1000E400894613675700B8C703C7B7041377F70DDA
:1000F400A385E704B82713672701B8A7130750148B
:100104009AA737270040A303D78003C7E7041377D0
:10011400C70F136717002387E704982B136717008B
:1001240098AB23800704B247F3A7078001000100BE
:1001340041018280EFF0FFF61305401E9705000091
:100144009385450A17260000130686EE63FAC50058
:100154008322050023A0550011059105E3EAC5FE9D
:1001640017C501E01305C54B97250000938585EC61
:100174001386818363FAC5008322050023A05500FA
:1001840011059105E3EAC5FE1385818397450000B7
:10019400938545656377B500232005001105E36D5C
:1001A400B5FE93025002739002BC8D42739042805C
:1001B4008542739012BC93028008739002309702B8
:1001C4000000938222E493E232007390523097420B
:1001D40000E09382E2A67390123473002030000092
:1001E4009305000273A045808245739015349240B4
:1001F4002242B2424243D2436244F24402559255EF
:100204002256B2564257D2576258F2580649964976
:10021400264AB64A464BD64B664CF64C065D965D6E
:10022400265EB65E465FD65F096173002030230305
:10023400048015472303E48001002302A480828004
:1002440083076480E3CE07FE230304808280830750
:100254006480E3CE07FE0345448082808307648084
:10026400E3CE07FE2302A4808280411126C44AC241
:100274004EC006C61377F50BAD47AA892E8995445F
:100284006306F70019456537653F8D444E8545374C
:10029400FD59FD1463983401B240A24412498249C5
:1002A40041018280135509011375F50F453F220959
:1002B400CDB7011126CC06CEB70408005137154539
:1002C400BD37713769372AC6A53F32459377150084
:1002D40089EB136515001375F50FF240E2440561CF
:1002E4008280FD14E9FC0145CDBF397126DC4ADA70
:1002F4004ED852D656D45AD25ED006DE62CE66CCE2
:10030400B7E700E07D5783AA070022C603AA470087
:1003140023A0E71823A2E718B717004013077005B6
:100324002380E704130780FA2380E70483C7470484
:10033400930B75FFB684E20793FBFB0F8546AA89EE
:100344002E8B328937240040E187015763FA760106
:100354006308D5008946130700026313D5000157CB
:10036400D98F93F7F70FB71C00402382FC04114781
:100374002303E4801305F00F5D3D094CD135636D13
:100384007C11B7050700DA9537870700795563F2C2
:10039400E504B3879500636EF702370B0800A9479D
:1003A40033EB65016399F90689E48144513D26855F
:1003B4000DA0DA850945553D05090345F9FFFD14EE
:1003C400050B693D81C49377FB0FFDF7DD3569FDAE
:1003D4007D55B7170040130770052380E704130702
:1003E40080FA2380E70403C74704418B2382E70490
:1003F400F250B7E700E023A0571123A24711E254BB
:1004040032445259C259325AA25A125B825B724C1C
:10041400E24C21618280A5476395F9068569130939
:10042400F00FB3069900B3742B01B6941349F9FF86
:10043400B3749900856B33796901416B9387F9FF34
:10044400B3F7270199E363FC340193D94900C14709
:10045400E3E637FF99BF0569C1697D19D9B713056B
:10046400800D638869011305000263847901130513
:100474001008CA85DD3B353D21DD4E99B3843441F6
:10048400D9B7DA852D45D533CA94E30099F2050925
:100494007D3BA30FA9FED5BF9387F9FF93F7F70F11
:1004A4006361FC0C83C71C0413073008631FF70443
:1004B40037070800636BEB04B3079B00B706100013
:1004C40063F5D704334BEB0089476393F9068980BE
:1004D400D549E38C04ECDA850945413B110903272E
:1004E400C9FF91472320E48003076480E34E07FE9D
:1004F40023033481FD17EDFBFD14110B81C49377A5
:10050400FB0FE9FF7D3371F5E1B5B717004003C771
:100514005704B70708001377070219E3B7870700E2
:100524007955E378FBEA33079B00E3FFE7F855B519
:100534008547E382F9F2DA852D45053B9389F4FF7B
:10054400E38504E6293393F7390091EB832604808D
:100554000327090093074900E39AE6E43E89CE8421
:10056400F1BFB5476396F9001305900BC93135BD4A
:10057400B1471305B00AE38BF9FE99476391F90477
:10058400B7050800B365BB002D45C53181448D4BCB
:10059400A149753963967401832704802320F900E7
:1005A4008504E39834FF8327048013172B016355D4
:1005B40007002312F900D5BB2322F900FDB39D47A0
:1005C4006399F90281451305B0044531BD442320E4
:1005D400090023220900FD599D3993F77400CA9735
:1005E40003C70700FD14398D2380A700E39634FF69
:1005F4006DBBA1476392F9046D398144630D0B000F
:100604008D479304C0036308FB009304000563044F
:100614008B01930440041375C507E30895D8194565
:10062400393139390545213126850D3909453D31A1
:100634004931E31C05D669BB91476399F900130559
:100644006006F536F53E130590090DB7E38F09D41E
:10065400F154A9BBBD660147174600001306069274
:10066400938606A685458347060093F7F70F91C343
:1006740082800507E3F9E6FE974700002380B790E0
:10068400DDB77D166206618693178601E18763D420
:10069400070001458280931726003307F500AE97C3
:1006A40018439C4363E7E7007D16E37FF7FC7D5521
:1006B400828005458280FD15E205E1851397850159
:1006C400618793F7F50F63480700FD15139725001D
:1006D4002A97584365D71385170062056185828080
:1006E4003308B5021C4283A80600B335B502C2978D
:1006F40033B50701AE98469585486367B5006394A2
:10070400A50063E3070181480C43C6950CC388C266
:100714001CC2828081471397870161876343B700B6
:100724008280139727002A97232007008507E5B7BF
:100734008147014793968701E18663C5B600133567
:100744001700828093962700AA9694428507558FB6
:10075400D5B793D755408A07AA979C4305453315C7
:10076400B5007D8D8280172300E0E702C3932A84BD
:10077400993705C5931725003E940327C4FF814785
:1007840011EB7D1516053E9542054185172300E0C2
:100794006700A39305838507E5B70145C5BF814776
:1007A4001397870161876343C700828013972700EB
:1007B400B386E50094422A97850714C3D5B77D16FE
:1007C40062066186014793178601E18763D50700B6
:1007D40013351700828093172600B306F500AE97F1
:1007E40094429C437D16B58F5D8FF1BF8A05AA950F
:1007F40001476363B500828083A6C5FFF11593D7D3
:100804001600D98F9CC11397F601E5B72A830148D6
:10081400014701456343D7008280B387050183A85C
:100824000700B30706019C43C697AA976384F800A0
:1008340033B517010507B3080301620723A0F800C5
:1008440061871108C1BF2A8301478147014563C3FA
:10085400D70082803388E50083280800330EE60041
:10086400032E0E003388A8403308C841638408016E
:1008740033B508018507B308E300E20723A00801A4
:10088400E1871107E9B7172300E0E702C3810111EB
:10089400B286B2842E86AA850A8575372A84A685EF
:1008A4000A85793533348000060413351500018D2B
:1008B4000561172300E067004381171300E0E70296
:1008C400037C4111AA89AE8A328BB68402C202C467
:1008D40002C60144131C8401135C8C4163499C02CD
:1008E400939B1400FD1B0549138CF4FFF15C330446
:1008F400890162046184634D740592478E04CE9429
:1009040023AEF4FE4101171300E06700C37A131904
:100914002400B30B2B01014A93172A00D69783A511
:100924000B0088437800340050005D3B050A9317A0
:100934008A01E187F11BE351FCFE92474E990504BD
:100944002320F900A2473EC2B24702C63EC459B7AB
:10095400131A8901135A8A41131D240093178A011B
:10096400E18763CF970092470A044E941CC0A247C4
:1009740005091379F90F3EC2B24702C63EC485BFCA
:10098400B3079A0313152A005695084178003400DA
:100994005000050AEA97DA978C439933C1B741119D
:1009A400B7170040985F3AC6945F3247E39CE6FE6F
:1009B400324541018280B7170040984B41111367BB
:1009C400070198CB982B1377E70F98AB1307800890
:1009D40073370780137787083AC6010001001307AD
:1009E40070052380E704130780FA2380E7040100DD
:1009F40001001307000C6315E5029A271367070C1F
:100A04009AA7B7170040982B1367170098AB238059
:100A14000704B247F3A70780010001004101828067
:100A2400B82793760520DDC2118B29E303C7E704B9
:100A340003C6E7041377F70F136636002387C7044A
:100A4400B02713664600B0A792278E2733460608C0
:100A540093E5050C8EA7A5470100FD1793F7F70F43
:100A6400E5FFB717004092A72387E70493770510A3
:100A7400D5C7371700403C2793E707013CA7937776
:100A8400F501A9EBB727004003C757801367070197
:100A9400A382E7801D47A383E78033450508B71782
:100AA40000401367050C9AA78AA7D5C203C7570449
:100AB40083C65704418B858A558F21F7B82B418B08
:100AC40029D3B8271377D70FB8A725BF13672700F3
:100AD400B8A769BF2547636CF700B727004003C771
:100AE40057801377F70EA382E78005476DB7937796
:100AF400050199EBB727004003C757801377F70E1A
:100B0400A382E780094741BFB727004003C7578046
:100B140013670701A382E7800D47B5BF937785016B
:100B240081EFB727004003C757801377F70EA382DE
:100B3400E7801307100585B7B727004003C7578020
:100B44001377F70EA382E78013077005A9B7B827B8
:100B54001377B70F95BF4111814601468145114571
:100B6400EFF0AFF813078008F337078093F787088F
:100B74003EC401000100B71700401306700523802E
:100B8400C704930680FA2380D70401000100FD55B1
:100B9400CEB723800704A245F3A505800100010018
:100BA40073370780137787083AC601000100238052
:100BB400C7042380D7040100010003C76704136737
:100BC40017002383E70423800704B247F3A70780B1
:100BD4000100010001A00000197106C212C416C66A
:100BE4001AC81ECA22CC26CE2AD02ED232D436D649
:100BF4003AD83EDA42DC46DECAC0CEC2D2C4D6C639
:100C0400DAC8DECAE2CCE6CEEAD0EED2F2D4F6D628
:100C1400FAD8FEDA938501848841E7000500924002
:100C24002242B2424243D2436244F24402559255B4
:100C34002256B2564257D2576258F258064996493C
:100C4400264AB64A464BD64B664CF64C065D965D34
:100C5400265EB65E465FD65F09617300203041119F
:100C6400B7170040985F3AC6945F3247E39CE6FEAC
:100C7400324541018280B7E700E03707001023A026
:100C8400E7208280B7170040130700032388E70298
:100C9400854723A4F18473002030411106C6C52979
:100CA400FDBF23AC05FE1C4199E30CC182803E8745
:100CB40083A787FFEDFF232CB7FE8280411126C254
:100CC400B7E400E04AC003A90400B707200006C641
:100CD40022C43379F90023A0F4180F10000009E5A9
:100CE40023A02411014535A09565938505D0C98DB0
:100CF4002A842105B3C5050833450508EF00704E65
:100D040065D1FD572320050042A17CA123A0241115
:100D14002105B2402244924402494101828041119A
:100D2400B7E700E04AC003A9070026C2370720003E
:100D340006C622C4AA843379E90023A0E7180F1059
:100D4400000083A781860144014685E301C8A2858A
:100D540013858186975001E0E78040DBA1652685F5
:100D6400975001E0E780400D0DA003C7E7FF63192A
:100D7400970205CCA28513858186975001E0E78010
:100D8400E0D8A1652685EF10E000B2402285224418
:100D9400B7E700E023A02711924402494101828071
:100DA40011E03E8683A787FF4DB73E84E5BF37E752
:100DB40000E01C43B70620002320D718F58F0F103E
:100DC400000019C191C111E637E700E02320F710B4
:100DD40082802E960F70B650D5BF37E700E01C43D3
:100DE400B70620002320D718F58F0F10000001C587
:100DF4003307C50011E637E700E02320F7108280AF
:100E04000505A30FB5FEE31DE5FEF5B737E700E0E2
:100E14001C43B70620002320D718F58F0F100000BD
:100E240001C599C1014711EA37E700E02320F71013
:100E3400054582800507E309E6FE3308E500B3862D
:100E4400E500034808009422E306D8FE37E700E0F3
:100E54002320F7100145828037E700E01C43B706E2
:100E640020002320D718F58F0F1000001307F6FF7A
:100E7400BA952A966317C50037E700E02320F710D8
:100E840082809821FD150505A30FE5FEE5B737E738
:100E940000E01C43B70620002320D718F58F0F105D
:100EA400000001C53307C50019E637E700E0232039
:100EB400F7100145828014210505E398B6FEE31C72
:100EC400E5FE37E700E02320F710054582807971BD
:100ED40026D29384018822D4804006D64AD04ECEAE
:100EE40052CC56CA5AC85EC662C445C837C9C9017D
:100EF400814B938A81871309F937173B0000130B41
:100F04002B569739000093892953173A0000130A86
:100F14002A5A3E2099EF5C44639A0B009CC0032C30
:100F2400C4002285EF0050386284A9A823A6FB00E0
:100F3400FDB783A70A0082971C443307F540637604
:100F4400F50003278A001D8F2A97636BE9069737FC
:100F5400000023AB074E2E200820EF00B0635C4056
:100F64005844A1CB0C44173600000326E654AE9730
:100F7400BE8663E4B70063E4C700B386C74014C405
:100F8400A28B3A8459F4173700001307E74A1C4B25
:100F9400854663FBF604FD171CCBB25022549254D1
:100FA4000259F249624AD24A424BB24B224C456141
:100FB400828063940B0098C09DB723A6EB0085B78D
:100FC40003274B0219CB63EDA7003385A74083A702
:100FD40009016374F50023A8A900A28B40445DB7FE
:100FE40003278A00BA97D5B79737000023AE074482
:100FF4006DB70111B7E700E04AC803A90700370736
:10100400200006CE22CC26CA4EC652C43379E9004B
:1010140023A0E7180F10000097340000938444497C
:101024009C288844A9CF973700009387A75403D7F7
:10103400C70A31C703A4870A6303A40497390000CD
:101044009389893F83A709016388A70E138A81873F
:1010540083270A008297636EA40C83270A00098CF5
:10106400829783A7090198443354F40AB307A40070
:101074003E8563E4870063E4E7003385E740B7E730
:1010840000E023A027119C44639BA70217340000AF
:101094001304843A184883A781876311A70A8297A7
:1010A4009444374736FE130707C83697B307A7009B
:1010B4003E8563E4E70063E4D7003385D740173403
:1010C40000001304246E5C5C89CB83A6418D9C468E
:1010D4003707CDFF7D17F98F9CC611E188448547FA
:1010E4005CD09737000083A7E739829715E15C5CF1
:1010F40099CF5C5089CF978001E0E78040AA977030
:1011040001E0E780407D9737000023AF076AC133D1
:101114005C5C81CB03A7418D1C47B7063300D58F98
:101124001CC7F2406244D2444249B249224A056192
:1011340082809C443E9415B7228591B782971448C7
:101144009844B387A6003E8563E4D700E3E9E7F655
:101154003385E740ADB723A6A18601C5854723881B
:10116400F186828083A7C18681CF411106C682970A
:1011740083C7018799E323A60186B2404101828097
:1011840083C7018781E723A601868280828041117B
:1011940022C426C206C64AC09734000093848460E1
:1011A40083C73402173400001304442FB9C317341F
:1011B40000001304642813894188032709001C20B4
:1011C40014300146B3A5E7208E21A5C911C21CA085
:1011D4000820636BD50697370000238F072483A765
:1011E4008187C5E7B240224492440249410182808A
:1011F40082971C40F5FF9737000083C7672C99EF4F
:10120400DC48858B81CFD84C9947631DF70097370D
:10121400000023A3075A85215C4482971C44C1DB48
:10122400829771B7D84C9D47E31AF7FE97370000B1
:1012340023A4075889211C48CDB7850793F7F70FD6
:101244000546E3E1D7F861B73327E5200E232310E1
:1012540007002399018683A7C187B347F5209C43E0
:1012640082971C208326090003D721873377E54022
:10127400B3A6D7209222518F9AA299C385071CA0A6
:1012840018201C30E360F7F6B9B79737000083A73E
:10129400A7221CC82D3983C73402A9F783C71402B7
:1012A40099CBDC4C89EB97370000A38D07509770DE
:1012B40001E0E780206E9737000083A7A71C9DD329
:1012C400D84C9147E3E0E7F29737000083C707293A
:1012D400918BE39907F083C70187E39507F01830F2
:1012E4008326090063C8E7002244B24092440249BD
:1012F400410101B333A6D7201222E31506EE850778
:10130400D5B7B7C700401387C7201443139626499F
:1013140010C30100010093878726173500000325B9
:1013240065139C436A0514C393C7F7FF99835D8DC6
:101334008280173600001306A61F97360000938696
:101344002621DC36383E4C4ABA97FD8B33D7F5005C
:101354001CB2DCB6058B0DE7943A13050002B3F713
:10136400D702814633D8E548630908006394D7005F
:1013740018B28280850693F6F60F0507E314A7FEDC
:101384008280011126CA83A7818706CE22CC4AC84F
:101394004EC652C48297973400009384641B9844C9
:1013A400AA870145630DF70463E3E706998F1739AC
:1013B40000001309E91793F9F70113D45700834781
:1013C400A901636AF402173A0000130A6A0E9537FA
:1013D4000347A9018C4403268A0093175700AE974C
:1013E400198CBE8663E4B70063E4C700B386C740C4
:1013F40094C4E37EE4FC1315540033653501F240D4
:101404006244D2444249B249224A056182809736F5
:10141400000083A6660A3387E640BA9749BF0000F6
:10142400EFF05FD473000000000000009382018796
:101434000383020023800200630F0300F3251034AA
:101444002EC0970500009385E5FD73901534EF00D9
:1014540020557300203086DCEF008054E6508280F3
:10146400000041114AC01389818B0327090026C259
:1014740006C61C5F22C49384418B93D76748B5CFBB
:10148400930700061CDF173400001304A431184C22
:10149400930700086317F7009C409C4393F70704E5
:1014A4001CCC1C4093F7070489CB83A781878297C0
:1014B40048D81C4093F7F7FB1CC01C4093F7070265
:1014C40089CF1C4003A7418CB706080093F7F7FDAA
:1014D4001CC05C5414C786077CD71C4893F70704C8
:1014E40089EF85475CC83707020083A7418C98C7FA
:1014F4001307000C18C81854F8D383270900985F01
:101504001357474811CF985F1367070198DF83A7E4
:10151400418C23A20706854717370000232CF728A0
:101524009C40D8431357174819C7D843759BD8C351
:10153400D843799BD8C3B240224492440249410122
:101544008280053773002030973700009387872502
:101554003707040088DB698F01CF03A7418CFD5650
:1015640034D797360000938626EDD84E0507D8CE9B
:101574001377850019CF984783A6818B13671700CB
:1015840098C71307000898CBD856719B13671700A8
:10159400D8D61377150001CFD84383A6818B136760
:1015A4001700D8C3D856719B13671700D8D6137782
:1015B400650019CF1377450059C398431367170083
:1015C40098C383A6818BD856719B13671700D8D60E
:1015D4004167698F0DC39736000083C6E600C18A50
:1015E40017370000130707F9A5C28346470793E698
:1015F4000602230AD70637070200698F01CF984BEA
:101604001377070819C3054798CB83A7418C37077D
:10161400020098C7B70708007D8D0DC11737000079
:10162400034797FC058B973700009387A7F41DCBDE
:1016340003C7570713672700A38AE7068280D847A2
:1016440013671700D8C7B5BF834647070946BD8A45
:101654006388C600834647070D46BD8AE39DC6F8E6
:10166400914641BF03C75707118B69DB03C757076F
:1016740013678700D1B783A6418C973700009387FF
:1016840067129843058B19E7D843058B01E7F85295
:101694006DFBDC4B9737000023A0071282809386F2
:1016A400818B2A8788421C5D93D75748D1E781C52F
:1016B4001C59BD839CA115C69C42945BC60693D756
:1016C400660163D6060093E707C0B3C7070883160D
:1016D400060093975760B9C6BE968947B3C6F6020B
:1016E40016A283A7418CBC4B083393D757488DCFA0
:1016F40029C59736000083A6660C93F60604930763
:10170400950009459DCABA979C230547194593F648
:10171400F7066394E60201459397476063DF070089
:10172400394582801EA275BF2A9748331375F50781
:101734007D153335A00082800545828083A7C18B47
:1017440099CB944BD04B9842518F98C294439C4769
:101754009842D98F9CC21386418C0548184283A6AF
:10176400818B973700009387E703631D0503884245
:101774001365050888C283C62702B3C5D52093859F
:10178400A50C54471395164948C70F10000018427A
:1017940037060200860510C71306000890CB6CD3E9
:1017A40054C7828088421375F5F788C283C627021E
:1017B400B3E5D5209385E50EE9B7411126C2AA8782
:1017C40006C622C42E859384418CB285D9EB9C40F5
:1017D400F8537DFF3707020098C79737000023A707
:1017E40007FCB7E700E03707200037F400E023A048
:1017F400E728130404D01C48ED9B1CC81C4893E73D
:1018040087031CC873005010153F83A7818B98432E
:101814001317772998C3D857719BD8D797370000E7
:1018240023AC07F89737000023A007F89C4009472A
:1018340098C31C4893E787001CC873005010944059
:1018440017370000130707F61C47858B91E75C47A1
:10185400858B99E3FC52EDFBB24022449244410152
:1018640082800D476398E7049737000023A007F4AC
:101874009737000023AE07F2B7E700E037072000F0
:1018840037F400E023A0E728130404D01C48ED9BA0
:101894001CC81C4893E787031CC873005010793D8B
:1018A40083A7818B98431317772998C3D857719BC3
:1018B400D8D741B70547E394E7F837F700E01307B3
:1018C40007D0144BED9A14CB144B93E6860314CB38
:1018D40073005010984050479316164954C70F1080
:1018E40000009840B706020014C793060008973515
:1018F400000023A1D5EC83A6818B944293D676482D
:10190400639FF6009307E0187CD350C737F700E0D5
:10191400832707D193E787002328F7D039BF93079C
:10192400E01ADDB783A7C18B89CFD44303A887000E
:1019340098423367070198C2D447DC4B9842D98F49
:101944009CC2054783A7818B9505631BE5029843D9
:101954001367070898C3984F137707C01367A71333
:1019640098CF13078007B8BB939735009387C703B5
:1019740019C293171600173700002329F7E4828051
:1019840098431377F7F798C3984F137707C01367F3
:10199400271398CF1307F007B8BB93974500F9B7FF
:1019A40083A7418C8847D847798D11C588C783A7F9
:1019B400018C91C382878280896703A7418C9387B6
:1019C40007F47CD383A6418D83A7060993D7A7493F
:1019D40091C783A7060993D7974999E37C53EDF7F9
:1019E40082804111B7E700E022C48043370720001A
:1019F40006C6798C23A0E7180F10000011C199E5E1
:101A0400B7E700E023A08710014549A80D05334539
:101A14000508130740037199B34705086362A702D9
:101A240003A5418E83A6C18D639FA60017370000CE
:101A3400032707A671D7C207DD8D05450297C9B7ED
:101A440003A5018EC5B77A2131EF5A21636CF704DF
:101A5400B306F7402148173600001306E69D637568
:101A6400D8028328050003586600938687001D8FDB
:101A7400AA966117DAA223A016012393060014C1C3
:101A84005EA1130788FF7AA27A226EA12105B3070B
:101A9400F7407EA2B7E700E023A08710B2402244BB
:101AA40041018280084149B7B7E700E08C4337071A
:101AB400200023A0E718F98D0F10000001E523A0F2
:101AC400B710828003A3418E83A8C18D9A87814673
:101AD40063F8170903A807006367F5086365A80896
:101AE40013878700636EE506F223216705076317F2
:101AF400E6001386618A1822050718A2173500002C
:101B040013058593D2237A21239307003297334711
:101B140007087AA16383670203A3018E630FF300AE
:101B240003D36600631B0300DE2223A00601210702
:101B34003E962106D2A27AA1B68798436302170380
:101B440083A6018E630ED700762399EAD623522307
:101B54001843A106B296D6A398C37E21A1077EA1FD
:101B6400B7E700E0A9BFBE86C2879DB7AA8703A7CF
:101B7400418E03A6C18DB305B5406314E6003E85CE
:101B840029A8930687001843E3E9D7FEE3F7E7FEA5
:101B94002E85E3E4D5FEE3F2E5FE8280AA8703A561
:101BA400018811E182803A216315B7001821E30B03
:101BB400F7FE4845FDB7411122C406C626C24AC0F5
:101BC4002E848DCD13F91500814741476302090422
:101BD400131745003E97B1463307D70283A4818883
:101BE400B317F02833C90708BA949C40C8408297B9
:101BF40023A0040023A2040033448900B2402285B8
:101C040022449244024941018280B356F448E9F2E5
:101C14008507E39CE7FECDB7011126CA06CE22CC88
:101C24004AC84EC6AE84A1C593F715000144414786
:101C3400B1CB93174500A2973147B387E702938945
:101C4400818803A909003E998327090081C70325D8
:101C54004900829731473307E40283A70900BA9702
:101C64009C478DC733148028B3470408BD8CF240C9
:101C740062444249B2492685D24405618280B3D682
:101C84008448C5FA0504E31CE4FECDB7232009000B
:101C940023220900C1BF7971B7E700E022D4804351
:101CA40052CC06D626D24AD04ECE56CA5AC85EC6A2
:101CB40062C43A8A37072000798C23A0E7180F10F2
:101CC400000005E123A087100945B2502254925424
:101CD4000259F249624AD24A424BB24B224C456104
:101CE400828083A78187B6892A89AE8A328B938BB7
:101CF4008188829703A70B008144B146C147338C86
:101D0400D4023306870110422DEEC165938505F098
:101D14004145C13919ED9727000083A7677781C72B
:101D2400814511458297B7E700E023A087102D4530
:101D340069BF138701881C43A1E308C3230005007E
:101D4400B31790283EA183A70B0023260500232464
:101D5400650123224501E29723A0270123A257010D
:101D640023A447016384090023809900B7E700E0B6
:101D740023A08710014591BF3E87DC47F5FF48C784
:101D840075BF8504E39DF4F6B7E700E023A0871050
:101D9400214525BFB7E700E09843B706200023A0FC
:101DA400D718758F0F1000009726000083C6D668D9
:101DB400637DD50083A641883325D5201621D58D92
:101DC4000EA123A0E7100145828023A0E7100D4552
:101DD40082800111B7E700E022CC8043370720005E
:101DE40006CE26CA4AC8798C23A0E7180F10000033
:101DF400BD4763E7A70431473307E50283A781881A
:101E0400BA979C4395CF3315A0282E89B34505086E
:101E140001452EC66133AA8409C9B24501459740DC
:101E240001E0E780A0E823A42401B7E700E023A0B1
:101E340087100145F2406244D244424905618280E0
:101E4400B7E700E023A087100945EDB79727000006
:101E540083C7D76DAA86850703A581890147122107
:101E64006307D60005071905E36BF7FE0145828079
:101E74002A8703A5C18911E182801C45B227636BBF
:101E8400C70003584500B306C8006355D700814610
:101E9400639406010841C5B703D3A70093880701DB
:101EA4006316E30091C192A13E8582808506C687B0
:101EB400B3C60608F1BF9726000083C6266783A72A
:101EC400C18A01476394E60001458280AE231386EC
:101ED400C7036394A5003E85828005071377F70F37
:101EE400B287CDB79386418C9C42B84B1377F78F5A
:101EF400B8CB98431367870098C39C4393D737485C
:101F040089C7010001000100010003A7818B1C4364
:101F140093F7F7CF93E707101CC303A6418D1C4624
:101F24003707CEFF7D17F98F1CC69C423707030085
:101F3400B8CB83A7C18B99CBD44390479842518F98
:101F440098C2944BDC4B9842D98F9CC297370000BF
:101F540023A80786828083A7418C9C438D8BE9C785
:101F64004111B7E700E04AC003A9070026C23707BA
:101F7400200006C622C4AA843379E90023A0E71806
:101F84000F100000173400001304C481584C8D470F
:101F9400631AF7009727000083A7875A01468145F3
:101FA4004545829719476391E4048347140289CB1A
:101FB400834704026396970097370000A384078041
:101FC400584CA1476315F700930780101EB023886F
:101FD4000186093FB2402244B7E700E023A027115D
:101FE40092440249410182809D47639BF4008347E8
:101FF4001402F9D7034704028D47E313F7FC6DBFBE
:10200400544C6389E600584C6306F700584CA147CA
:10201400E31FF7FA83471402DDFB5C4C2300F40250
:0C2024008547A300F40265B7828000002D
:1020300097110020938181BF17E10120130181FCDA
:102040001305400097E5FF1F9385C5FB17E6FF1FAB
:102050001306461963FAC5008322050023A0550024
:1020600011059105E3EAC5FE17E5FF1F1305C50C31
:102070000285397101436EC619A0397141536AC88E
:1020800066CA62CC5ECE19A0397101535AD056D2BD
:1020900052D44ED64AD826DA22DC06DE330161401D
:1020A000828241114AC026C222C406C68282B24D33
:1020B0004101024D924C224CB24B4101024B924ADB
:1020C000224AB2494101024992442244B2404101AC
:1020D00082802A8309CA83830500230073007D164A
:1020E000050385056DFA82802A8311C62300B3009B
:1020F0007D16050365FE8280102194210505850566
:102100006313D60075FA3305D6408280B7170040B6
:1021100003C777051377E70FA38BE704130700F8CE
:10212000A38DE7043D47238CE70413075003A38CDA
:10213000E70403C7A7051377D70F238DE704828031
:10214000371700408347E70412054111BD8BC98F43
:1021500093F7F70F93068008F3B6068093F6860888
:1021600036C601000100930670052300D7049306CC
:1021700080FA2300D704010001002307F70423009D
:102180000704B247F3A707800100010041018280E4
:10219000B717004003C7E7020D8941111377C70F36
:1021A000498F93068008F3B6068093F6860836C6F4
:1021B00001000100930670052380D704930680FA7E
:1021C0002380D704010001002387E702238007044E
:1021D000B247F3A70780010001004101828041114D
:1021E0002A830148930E407E130F0019930F400677
:1021F000B348030863EF1E0113030019337365022C
:102200008542FD4363F6B2088D4F214F930E400681
:10221000A1A07D13336EE3039308E016630E0E0056
:10222000336EF3039308D01663080E0093783300DF
:1022300093B818009388D816C29833C808084DBFC1
:1022400093F81500138EF5FF637CBF02F908C2985E
:1022500033C80808B3450E08E394F5FF8545630BC2
:102260000300B378D5038145638608009375350074
:1022700093B51500F105C29533C805088945E9BF36
:10228000B3881341C29833C80808B3450E089DBFF0
:102290007D16329879463307C70213D61700BE075A
:1022A0003348080832976146B3F6C60213068070B9
:1022B000B386C6023697A166F58F4207D98FB71647
:1022C000004003C7F60213770708D883908303C73B
:1022D000F60213770708E316E6FE9883B716004068
:1022E0004DCF1307800873370780137787083AC4E8
:1022F0000100010037170040930670052300D70442
:10230000930680FA2300D70401000100232A070363
:102310008346170393E60608A308D70223000704A1
:10232000224773270780010001001166371700401C
:102330007D16545B4C5FAD8EF18EE5FE93068008F2
:10234000F3B6068093F6860836C6010001009306B0
:1023500070052300D704930680FA2300D7040100F8
:1023600001005CDB8347170393E70704A308F70228
:1023700023000704B247F3A70780010001004101D1
:10238000828003C7F60213770708D883908303C7B8
:10239000F60213770708E316E6FE98837DD391B71C
:1023A00055714EDF86C7A2C5A6C3CAC152DD56DB32
:1023B0005AD95ED762D566D36AD16ECFAA8982C058
:1023C000EF00501493078008F3B7078093F787084E
:1023D000BEC201000100B71700401307700523803B
:1023E000E704130780FA2380E7040100010003C714
:1023F000F7021377770FA387E70203C7F702136784
:102400008700A387E702238007049647F3A7078086
:1024100001000100130B80C1334B65039167938763
:1024200007E8130A30029546B347F502330A4B0317
:102430003EC8FD873ED2BD67938707A6334AFA029E
:102440001357FA413ACA330740413AD47D873ACC10
:102450001307A0FB3307EB02B347F7020567130727
:1024600007FA3ECEFD873ED6938729003319F70041
:1024700063E436013319370161671307076A33458F
:10248000E50213070010B317F0288D873EC4954767
:102490003309A9023349E902130740063309E90267
:1024A0001307D0073349E9021357F9413AD83317D4
:1024B00030290D873AC663E4374993075047B3077D
:1024C000F7023D67130707A6116C814A814B13047D
:1024D0008008371D0040930480FA7D1CB387670392
:1024E000B307F040B3C7E7023ED0FD873EDA73374B
:1024F000048013778708BAC4010001001307700530
:102500002300ED04930D0D0423009D040100010040
:1025100003473D051377870FA309ED0403473D05E6
:1025200013671700A309ED0423000D042647732742
:10253000078001000100930C700573370480137746
:102540008708BAC601000100930770052380FD00CB
:1025500023809D000100010003473D05136707022A
:10256000A309ED0403570D051317E7282318ED04FD
:1025700003570D051317F7282318ED0423800D00CA
:102580003647732707800100010003473D05137795
:102590000702630A073A03473D05218B6DDF880078
:1025A000EF00807D7337048013778708BACA010073
:1025B000010023809D0123809D000100010003474D
:1025C0003D051377F70DA309ED0403473D05136798
:1025D0000702A309ED0403570D051317E728231875
:1025E000ED0403570D051317F7282318ED04238076
:1025F0000D005647732707800100010003473D0582
:10260000137707026308073603473D05218B6DFFEB
:1026100097E0FF1FE780E0382A873ADC97E0FF1F4A
:10262000E78020386257E30AE5FE03570D050645AB
:102630001317E7282318ED04B12F03473D05218B1D
:102640006DDF03570D0583462D05C247337787019C
:10265000B386860313D6F641BA96B388F6409257EE
:1026600033B7E60032971D8FD247B3B61601158FE8
:1026700063C6E700631CF700637A1A01E24763420E
:10268000F7326395E700A25763EDF830894663FCA3
:1026900076317337048013778708BAD001000100C0
:1026A000130770052300ED0423009D0401000100C1
:1026B00003473D0593F6F90F1377870FA309ED0440
:1026C00003473D05558FA309ED0423000D0406576C
:1026D00073270780010001001306700503473D05BD
:1026E0001D8B631A37357337048013778708BAD484
:1026F00001000100130770052300ED0423009D0471
:102700000100010003473D051377F70DA309ED0410
:1027100003473D0513670702A309ED0403570D05A1
:102720001317E7282318ED0403570D051317F7288F
:102730002318ED0423000D0426577327078001009A
:1027400001009306700503473D0513770702630EEA
:10275000073003473D05218B6DDF8800312D73372E
:10276000048013778708BAD80100010013077005A9
:102770002300ED0423009D040100010003473D05F3
:102780001377F70DA309ED0403473D05136707020F
:10279000A309ED0403570D051317E7282318ED04CB
:1027A00003570D051317F7282318ED0423000D0414
:1027B0004657732707800100010093067005034701
:1027C0003D0513770702630D072C03473D05218B59
:1027D0006DFF97E0FF1FE780C01CAA8C97E0FF1FEA
:1027E000E780201CE30C95FF03570D0506451317E2
:1027F000E7282318ED04792B03473D05218B6DDF76
:102800007337048013778708BADC010001001307CF
:1028100070052300ED0423009D040100010003471F
:102820003D051377F70DA309ED0423000D0466574A
:10283000732707800100010003570D0583462D050E
:10284000C25733778701B386860313D6F641BA960B
:1028500033B7E600329733882641B3B606011D8FA1
:10286000158F6346E00063180726630608261305E4
:10287000800C3307E5020256D256B3350503330503
:102880000503BA95EF60717B9306150033B5A6007A
:102890002E951357F501BA9633B7E6002A9713160B
:1028A000F70185820587D18E6346E000631F072C00
:1028B000638D062C0356CD021582B305D60033B6C0
:1028C000C50032976348E000631007361307F00F26
:1028D000637CB73409476371572793078008F3B7C0
:1028E000078093F78708BEDE01000100B71700409C
:1028F000130770052380E704130780FA2380E70499
:1029000001000100DA3789668116558F33470708C1
:10291000DAB723800704F657F3A707800100010008
:10292000BE402E449E440E49FA596A5ADA5A4A5B0E
:10293000BA5B2A5C9A5C0A5DFA4D69618280224723
:1029400093075047ADBE7337048013778708BAC822
:102950000100010023809D0123809D0001000100F2
:1029600003473D0513670702A309ED0423800D000B
:10297000464701B97337048013778708BACC010042
:10298000010023809D0123809D0001000100034779
:102990003D0513670702A309ED0423800D00664778
:1029A00091B9E3980BCE7246B2569315170013D324
:1029B000F80113951800B365B3003ADE46DCEF600A
:1029C000D1677257850B93FBFB0F6346E00031EF35
:1029D000E258638C08049306150033B5A600AA9547
:1029E00013D7F501BA9633B7E6002E9785827E0796
:1029F000558FF336048093F68608B6CE01000100A9
:102A000023809D0123809D00010001008356CD029B
:102A10003697334707082316ED0223800D007647CB
:102A2000732707800100010009BE9306F5FF1335E7
:102A30001500898D75B77337048013778708BAD26C
:102A4000010001002300CD0423009D0401000100CA
:102A500003473D05558FA309ED0423000D041657C8
:102A6000732707800100010095B97337048013773D
:102A70008708BAD6010001002300DD0423009D046D
:102A80000100010003473D0513670702A309ED0498
:102A900023000D043657732707800100010065B13C
:102AA0007337048013778708BADA01000100230026
:102AB000DD0423009D040100010003473D05136769
:102AC0000702A309ED0423000D045657732707805E
:102AD00001000100EDB19305800C3387E5023385D9
:102AE0000503B3B50503BA95154763733705A247C8
:102AF000130750473387E702330660413306E60287
:102B00003D67130707A63346E6029356F641EF608A
:102B1000D1521306F5FF13351500898D13D7F50132
:102B20003A963337E6002E979316F70105829DBB40
:102B3000B247130750477DBF1307800873370780DC
:102B4000137787083AC101000100B7160040130748
:102B500070052380E604130780FA2380E604010051
:102B60000100DA36056601161377F70F518F3347E8
:102B70000708DAB6238006040A4773270780010096
:102B80000100850A93FAFA0F9DB233E6E60049CEBA
:102B90000356CD02B335D0003307E0400D8F330527
:102BA000D04015826345E00041E3637FA6060947F4
:102BB000637E570393078008F3B7078093F787086E
:102BC0003EC301000100B7170040130770052380C2
:102BD000E704130780FA2380E70401000100DA37D5
:102BE0007D8BDAB7238007049A473DB3733704809F
:102BF000137787083AC50100010013077005230009
:102C0000ED0423009D04010001000357CD028566F9
:102C100081161377F70F558F334707082316ED02F8
:102C200023000D042A4791BF93078008F3B707805C
:102C300093F787083EC701000100B717004013074C
:102C400070052380E704130780FA2380E70401005E
:102C50000100DA379606369733470708DAB723803C
:102C60000704BA4755B9914763ECB7049787010049
:102C700093870774B3C5F52098413E97B717004076
:102C80009387470B0287944337170040B3F6A6405B
:102C900094C39306070B9C42B3F7A74019A894432B
:102CA00037170040B3F6A64094C39306070B9C4227
:102CB000C98F9CC29307070A98433377A74098C3EC
:102CC0008280944337170040C98ED9B79843337731
:102CD000A74098C3B71700409387070A9843498FC6
:102CE000F9BF9843498FF5B719C5371700401E2F14
:102CF000CD8F1EAF8280B71700409A2FB375B740B3
:102D00008EAF8280B71700409A279306000C137786
:102D1000070C630AD7049A27137707100DC79A2761
:102D20009E277D8B09EB93F70720B1C33755E80148
:102D300013050580828037C59812FD8B130505E0C9
:102D40003345F50282809A279E2713770720FD8B53
:102D500011C73755E80113050580DDB73725F400A5
:102D600013050540F1BF2165130505D08280372585
:102D7000F40013050540828037E700E01C4354430C
:102D8000A183E206D58F1CC1FD572320F71823220B
:102D9000F718828013178500B7E700E023A0E7103B
:102DA000618123A2A7108280B7F700E08847828064
:102DB0003285814737370040A14663C3A700828030
:102DC0003037E30FD6FE3386F5001022850710A7B3
:102DD000EDB797F6FF1F93866665AA878842172787
:102DE0000020130727A0AA9763E9E7000A871307C3
:102DF00007FC6364F7009CC282807D55828041118C
:102E000022C406C62A84FD3D2947B307E502B24025
:102E10008D83B3D7870222449507B3D7E7023737AC
:102E20000040B3C707085EA7410182807165411168
:102E30001305052006C6E137B7370040130770F8C1
:102E4000B8A30D47B8B31307000498B30547F8A714
:102E5000B24041018280238E018223AC0182B717E8
:102E600000401387070C14439387070D9396664918
:102E700014C394439396662994C31443BD9A14C310
:102E800098431367070198C3828023ACA18213067D
:102E90004006894503C541846F20116537170040FE
:102EA0001307470C1C43B7064000F58F14431387E4
:102EB000C1831023C18A13B5170091EA1365250059
:102EC000630DA60008A383A7818381CB8287630655
:102ED000A60008A399E30545FDB7828011456FF070
:102EE0002FCC411193962500AA852D4506C697D073
:102EF000FF1FE780C03FB2400145410182800111C0
:102F000022CC26CA939625002A84B284AA8501463B
:102F1000254506CE36C697D0FF1FE780403DB24616
:102F20002686A285294597D0FF1FE780403CF240C6
:102F30006244D244014505618280011122CC06CE53
:102F40003714004026CA4AC84EC652C4834474058A
:102F5000034AB4058349840503499405EFF00F9BA8
:102F60008347A40593F4F40F137AFA0F93E717003D
:102F7000230DF40493F9F90F1379F90FB7170040F3
:102F800003C7A705058B6DFF03D5C705A38D4705AF
:102F9000238C3705A38C2705A38B9704F24062444A
:102FA000D2444249B249224A05618280411122C479
:102FB00006C62E849397556063DF070097E0FF1FD6
:102FC000E78020D619C1EF2011361315F468B240FE
:102FD00022444101828093F7150013C51500E5FBDB
:102FE00093F7250081CF5D3D1306000A894503C58F
:102FF0004184EF20714F13452400D1BF8967ED8FC5
:1030000085C3EF50B121D93D37F60200130606E023
:10301000896503C54184EF20314D1315D46845BF40
:1030200011656D8D4DD5178501001305A539EF701C
:10303000E11B13060064916503C54184EF20D14A6A
:103040001315E46869B71D7149469785010093859A
:10305000A537179501001305E53B86CEA2CC97E076
:10306000FF1FE780E0DA01E9178501001305053746
:10307000EF70C11701A037F700E023240700F957CC
:103080001CCB0564B7E700E023A08710BD4614C33E
:1030900023A087180100010017E7FF1F1307473916
:1030A00023A0E184130700F8A38AE7401306C003B6
:1030B0008145480897E0FF1FE78060D2970700200E
:1030C000938747D13ECAA167938707E03ECEB707F3
:1030D0000105938707103ED0ED472312F102854783
:1030E0002303F102970700009387E7DFBEC4970729
:1030F0000000938707E1BEC6930754D12314F10261
:1031000097070000938787CA3EDAB7F5070097074D
:1031100000009387C7E23EDE814697070000938751
:1031200027DC7000E1051945BEC0E08497D0FF1F81
:10313000E780E01B19466C001305E102EFE07FF920
:10314000D24781C7BC8463F3870001A04808EF2001
:103150009175AA8501C91785010013056529EF60DE
:10316000516701A0F6406644256182804111170530
:1031700000001305E5E306C622C4EF203170138476
:10318000418408A01928C13908202244B2401306FE
:103190000032896541016F203135397106DE130730
:1031A0008008F337078093F787083EC201000100CB
:1031B000B7170040930570052380B704130680FA03
:1031C0002380C7040100010083C6F70293F6A60F0F
:1031D000A387D702238007049246F3A60680010046
:1031E000010073370780137787083AC40100010094
:1031F0002380B7042380C7040100010003C7F7023E
:1032000013672700A387E70223800704A247F3A7D9
:103210000780010001000545EFE09FF7C1318147BC
:1032200001478146054685451305407EEFE03FFB9B
:10323000680013064002814597E0FF1FE78020BA2F
:10324000B707C0A83ECAB787E803938707D03ECC2C
:1032500097E7FF1F9387E7A03EC6680097E7FF1F29
:103260009387A7A13EC8EF302101F25021618280EF
:103270004111978501009385A55E1785010013050F
:10328000251906C6EF60F15417850100130545198D
:10329000EF603154B240294541016F60315741110F
:1032A000978501009385855A1785010013054516FA
:1032B00006C6EF601152178501001305A517EF60D0
:1032C0005151B240294541016F605154411122C40E
:1032D00006C61C212A849DC39785010093858552CB
:1032E000178501001305C512EF60B14E4C401785DC
:1032F000010013056515EF60D14D1DA058411DE774
:103300009785010093850550178501001305451029
:10331000EF60314C1785010013058514EF60714B88
:103320002244B240294541016F60514EA167938606
:10333000D7036311D702978501009385A54C1785A4
:1033400001001305E50CEF60D14817850100130556
:103350002512E9B7ED07978501009385A54A1785E2
:1033600001001305E50A6319F700EF609146178520
:103370000100130525115DB7EF60B1454C4017857D
:1033800001001305251285BF411197850100938522
:103390006542178501001305A50706C6EF60714356
:1033A000B240294541016F607146797122D426D21D
:1033B0004AD02E842A89B28481457146480006D6B7
:1033C000EFE09FD297F7FF1F83A787C89E232314A0
:1033D00021017C83EF00D0438547DC8593070019EA
:1033E00048853EC62686FD57A2854800230AF1007F
:1033F000EF00D043B250225492540259456182806A
:10340000411122C406C626C21C212A849DC3978569
:1034100001009385654017850100130565FFEF6086
:10342000513B4C401785010013054509EF60713A87
:103430006DA85841B707CF009387777D6319F71EB2
:10344000978501009385453D17850100130545FCCF
:10345000EF6031381C4476244E24902317850100F8
:103460001305450793844190EF60B1362945EF601D
:10347000F13952240C441385419097E0FF1FE780F7
:1034800040939C201307200A638DE7021307300A3C
:103490006384E71613072008639CE71E5A248547B8
:1034A0006308F7129785010093850537178501009A
:1034B000130505F6EF60F131178501001305450D81
:1034C0001DA05A248D47978501009385E534178503
:1034D00001001305E5F36301F702EF60912F1785F3
:1034E000010013052501EF60D12E2244B240924421
:1034F000294541016F609131EF60B12D17850100C1
:103500001305C500EF60F12C2945EF6031306A24C6
:10351000930720F80546A6859CA0413D9377F50FBB
:103520002A8495C7978501009385052F178501008B
:10353000130505EEEF60F1299375F40F178501006F
:1035400013058500EF60F1282945EF60312C978540
:1035500001009385652C17850100130565EBEF606D
:10356000512717850100130565FFEF609126294556
:10357000EF60D1294165930730FA05469385419064
:103580007D159CA01D359377F50F2A8495C79785E7
:1035900001009385652817850100130565E7EF6035
:1035A00051239375F40F178501001305E5F9EF60BA
:1035B00051222945EF6091250566130606C89145FD
:1035C0002244B240924403C5E18541016F20C1719C
:1035D000894503C5E185EF20F105978501009385B5
:1035E000A523178501001305A5E2EF60911E17853D
:1035F00001001305A5FBC5BD5A2485476301F702E9
:10360000978501009385452117850100130545E045
:10361000EF60311C178501001305C5FAE9B57E245A
:103620000566130606C8239AF184A14551BFB70762
:10363000CC009387777D6317F70297850100938508
:10364000A51D178501001305A5DCEF6091181C442A
:1036500076244E249023178501001305A5E7EF601B
:10366000511761B5B707CE009387777D6302F702E4
:10367000978501009385451A17850100130545D9E3
:10368000EF6031154C40178501001305A5E179BBAA
:10369000B2402244924441018280011122CC97859C
:1036A0000100938565152A8417850100130545D609
:1036B00006CEEF601112A285178501001305852F34
:1036C000EF6031112945EF607114B707020393874A
:1036D00007103EC43165B707060793874750214658
:1036E0002C0005053EC6D13115C52A8497850100F9
:1036F0009385851017850100130585D1EF60710D45
:10370000A285178501001305A5EDEF60910C2945F1
:10371000EF60D10FF24062440561828041119785CC
:1037200001009385A50B17850100130565CE06C61C
:10373000EF60310A2945EF60710DEF90E01919E54E
:10374000EF10303AB24041016F20C073B2404101E6
:103750008280411122C4978501009385E50D2A845A
:10376000178501001305C5CA06C6EF6091064C40D7
:10377000178501001305C5E7EF60B1052945EF6026
:10378000F10818209307F00F6319F70297850100DD
:103790009385850A17850100130585C7EF607103BE
:1037A0004C40178501001305A5E5EF609102224406
:1037B000B240294541016F607105B2402244410188
:1037C000828085CD411122C417850100130545C4AF
:1037D0002E84978501009385A5FE06C6EF60617F64
:1037E000A28517850100130525E3EF60817E224441
:1037F000B240294541016F6071018280411122C4AC
:1038000026C22E84AA8497850100938525FC1785FE
:1038100001001305E5BF06C6EF60A17B2945EF60F7
:10382000E17E9387C184054782A3BAA3C6A397F715
:10383000FF1F83A7E7819A23C167FD17631DF70068
:103840002244B240924403C5E1851306000A85452F
:1038500041016F206149B24022449244410182807B
:10386000411122C406C626C293F715002E84638137
:10387000070E8146178601001306C606854503D547
:103880000185EF50306805C597850100938505F0E7
:10389000178501001305C5B7EF60A17317850100F7
:1038A000130545D8EF60E1722945EF6021769785D1
:1038B00001009385A5ED17850100130565B5EF603F
:1038C000417117850100130525D7EF6081702945E7
:1038D000EF60C17397E4FF1F9384C476DC4405470F
:1038E00026859AA3EFC0A07097850100938505EA0D
:1038F000178501001305C5B1EF60A16D17850100A3
:103900001305C5D4EF60E16C2945EF60217098483C
:10391000F17785071EA32685EFC0006F978501000C
:103920009385C5E617850100130585AEEF60616AD2
:1039300017850100130505D3EF60A1692945EF60E4
:10394000E16C13451400B24022449244410182804C
:1039500093F725009DC797850100938565E417853A
:1039600001001305E5AAEF60C16617850100130584
:10397000E5D0EF6001662945EF60416913452400F9
:10398000D9B793F745008DCB97850100938545E125
:10399000178501001305C5A7EF60A1631785010016
:1039A000130505CFEF60E1622945EF602166EF1056
:1039B00090711345440041BF13F5850049D58545F5
:1039C00003D54185EFE0C03197850100938545DD42
:1039D000178501001305C5A3EF60A15F17850100DE
:1039E000130545CCEF60E15E2945EF602162134588
:1039F000840091BF01113546978501009385C5CCA0
:103A0000178501001305851906CE22CC97D0FF1F1C
:103A1000E780004001E9178501001305259CEF6050
:103A2000E17C01A097F7FF1F9387C7BAB7F507009E
:103A300081463EC4138681859317B028E105194558
:103A40003EC697D0FF1FE780808A194693858185FF
:103A50001385819997D0FF1FE780A0353400138626
:103A6000818597850100938565EC17850100130515
:103A700065EDEF1050312A840DC9978501009385BB
:103A8000A5D6178501001305A598EF608154A2857E
:103A900017850100130545C4EF60A1532945EF6068
:103AA000E156F240624405618280EF70303F178535
:103AB00001001305A5E0EF007052EF403034EFE055
:103AC000E04A17E5FF1F1305656FEFE0C037178564
:103AD0000100130525DAEFE0204B2A84EF10002CBB
:103AE000EF905070EF006169EF204041EF109006B9
:103AF000EFC0204D97850100938505CF1785010004
:103B00001305059109C8EF60C14CA2851785010016
:103B10001305C5BE51B7EF60C14B178501001305F2
:103B200025C0EF60014B2945EF60414EEFC0C02F2B
:103B3000EF80905A29C5978501009385E5CA1785BE
:103B400001001305E58CEF60C148178501001305DE
:103B5000A5BEEF6001482945EF60414B9785010004
:103B6000938585C8178501001305858AEF60614636
:103B700017850100130545C0EF60A14505B797877C
:103B80000100938727D70547814601468145178560
:103B90000100130525D7EF1030462A8461D197859F
:103BA0000100938565C41785010013056586EF60E4
:103BB0004142A28517850100130545BAF1BD4111A7
:103BC00017050000130505CA06C6EF20214B238FF9
:103BD000A18417E5FF1F1305E546EF00E078193DC6
:103BE000EFF06FA7B24017050000130545AB410188
:103BF0006FF0AFA901113546978501009385C5ACDB
:103C000017850100130585F906CE97D0FF1FE780C1
:103C1000202001E9178501001305C5CFEF60015D84
:103C200001A0EF4011102AC6EF00B117EF00A176F6
:103C3000EF609060F240324505618280411111458C
:103C400006C6EFE0EFCF1305503497D0FF1FE78093
:103C5000C0D6B7170040116723ACE70AC145054538
:103C6000EFF08F8885452165EFE0FFFF8D451165F9
:103C7000EFE07FFFEFF08F9B17850100130585793B
:103C8000EF60C15617850100130545F1EF6001563D
:103C9000EFF06FBBEFF08FCDB13F153797D0FF1F1F
:103CA000E780E0FF014582804111B2862E86AA8519
:103CB0002D4506C697C0FF1FE7806063B2400145EF
:103CC00041018280AE860146AA85254517C3FF1FA4
:103CD0006700E3611D7186CEA2CC9307000432C653
:103CE00063E2C7022A840808EFE0AFBEB2461008BC
:103CF000A285294597C0FF1FE780605FF6406644B4
:103D0000256182803955DDBF184283A70186D621FF
:103D10000823CC2752226395A500EE276389D5029C
:103D2000011106CEC8A7F6A7B705CF00DC4B9385D7
:103D3000757D05077D162EC2230001003AC47086EA
:103D4000748799C30A858297F240056182808280D8
:103D50006D713C083EC6B707E500232291103EC8AE
:103D6000AA843C083285232611103ECA23248110E0
:103D7000232021112E89EF2040382A8497850100C5
:103D80009385C5D61775010013058568EF6061241A
:103D9000A285178501001305A5BEEF608123294583
:103DA000EF60C126B705CB009385757D6800EF00F5
:103DB000901CA2856800EF20E02901478146700031
:103DC000CA852685EF00703B15C52A8497850100BA
:103DD0009385C5D11775010013058563EF60611FD9
:103DE000A28517850100130565BAEF60811E29457C
:103DF000EF60C1218320C11003248110832441106E
:103E000003290110516182801842797122D406D6AB
:103E100083A701860348070083C807012A84D621A7
:103E20004A226396080183D82701638AD80223882F
:103E300007010507B6AB3708CC00DC4B1308787DCB
:103E40003ACC1307F5FF42CA23080100F886F4872D
:103E500099C7080832C62EC482973246A2452285E9
:103E6000C53DB2502254456182806D713C083EC010
:103E7000B707E500232481103EC217E4FF1F130497
:103E8000A4343C083EC41E20232611102322911086
:103E9000231701002318010023190100231A010030
:103EA000231B010099E3C167FD177C863E2091E743
:103EB00083A701869C43DC479E23584C7C875E2069
:103EC000484BFC8005ED978501009385E5BE17758D
:103ED00001001305E553EF60C10F178501001305BD
:103EE000A5ADEF60010F2945EF6041128320C1109D
:103EF0000324811083244110516182807C3099E732
:103F0000EF1071425C4C23AA0700CDB7FD17122BAE
:103F10004C477CB01C280A85230BF100EF20A01130
:103F200083A701868843014781460A866C00EF001B
:103F3000D024AA8405C9978501009385E5B7177534
:103F400001001305E54CEF60C108A6851785010047
:103F5000130545A7EF60E1072945EF60210B5C4C95
:103F6000C84B79BF7C30E5DF1044854503C54186E9
:103F7000EF109157A5BFDC4DDC4B99C7904503C5A9
:103F8000418691456F10515682805C4EDC4BA1CB2F
:103F9000411122C406C62E849DCD978501009385CC
:103FA000E5B0177501001305A546EF608102A285F3
:103FB00017850100130545A3EF60A1012945EF60B6
:103FC000E1042244B24003C54186130640069145F0
:103FD00041016F107151B2402244410182808280C0
:103FE000411122C417E4FF1F130404201C4C06C611
:103FF00089C7DC4399C34C4882975C4CC84BEF108F
:1040000091325C4CB240224423AA070041018280D5
:104010009387218188231307F00B05051375F50F8E
:104020006374A7001305000888A382805E21638C57
:10403000070C01114AC817E9FF1F1309E91852C4F8
:10404000032AC90122CC06CE83274A0126CA4EC6BE
:104050002A847155B1EB9307D00DB2847D5563E589
:10406000C70413058600AE893345050897D0FF1FA6
:10407000E78000C5232AAA000325C9015C498DEF0A
:1040800097850100938585A41775010013054538B0
:10409000EF5031741785010013050597EF507173C8
:1040A0002945EF50B1765D55F2406244D244424911
:1040B000B249224A0561828093874400B705CF0048
:1040C0003EA99385757D3105EF00E06A0325C9019E
:1040D0006C203105EF1010780325C9012686CE85A6
:1040E0003105EF1050757146A2854A85EFD07FFEED
:1040F000504401CA854503C54186EF10F13E014594
:1041000065B7A533EDBF7D558280411122C417E408
:10411000FF1F1304640B5C4C06C6C84BEF10B120A4
:104120005C4C2244B24023AA070003C54186854562
:1041300041016F103150411126C2938401869C4089
:1041400006C622C44AC0ADCFDC43BDCB5CC10CA1C6
:104150002A84978501009385259B17750100130517
:10416000252BEF5011672945EF50516A9C4023A43D
:10417000070023A2070097E7FF1F83A7A708DC4BD0
:1041800099C32955B13D97E7FF1F83A7A705DC4BCE
:1041900091C3A53F13894186034509008945EF1066
:1041A0007149034509009145EF10D1489C40DC4B13
:1041B00081CB22852244B240924402494101828748
:1041C000B240224492440249410182800111328569
:1041D00006CE22CC26CA2E84EF103072AA84978590
:1041E00001009385E5931775010013056522EF50D3
:1041F000515E0307840072204E20A68617850100B9
:1042000013050587EF50F15C2945EF50316097E7C2
:10421000FF1F83C7C7FD639797000145D1338145D1
:104220000A85113FF2406244D244056182806D717B
:1042300023248110232611102322911093F7450087
:104240002E846388070E3C083EC0B707E5003EC2D7
:104250003C083EC497E7FF1F938707F99A2323176B
:1042600001002318010023190100231A0100231B58
:10427000010019E341677D177886BA2311E703A788
:104280000186184358471A23D44F7887DA23F880D9
:10429000D84A15EF97850100938545801775010071
:1042A00013050517EF50F152177501001305C5707E
:1042B000EF5031522945EF5071551345440083208A
:1042C000C110032481108324411051618280F8338E
:1042D000255531CF7D17922ACC46F8B39C2B0A8501
:1042E000230BF100EF10305583A70186884317E7B1
:1042F000FF1F130767EF938601820A866C00B52DB6
:10430000AA8445DD977501009385457917750100ED
:1043100013050510EF50F14BA68517750100130525
:10432000656AEF50114B2945EF50514E26854D39A6
:1043300069B793F725008DC341468145280897D07A
:10434000FF1FE780C0A92555613928089305F00FA4
:10435000DD3313452400A5B713F515002DD1EFF07B
:10436000DFB013451400A1BF5C4D411106C688C3E0
:10437000170500001305E5EB23A0F186EF1011509F
:10438000B2402382A186014541018280EFD2DFCF76
:104390002A8408452E89B28909C900C19705000001
:1043A0009385C5736105EFF0307081447D5AEF103D
:1043B000A00363C3A4048144EF10000463C6A404F3
:1043C00097070020938787A49C43DC47B307F940F5
:1043D00091872302F400638109048327C900B3078E
:1043E000F4409587A302F4001C4C89C79C4799C3ED
:1043F000228582976FD09FCC5C441397140085046C
:10440000BA972390470165B71C4813971400850499
:10441000BA97239007004DB7832789000547B30754
:10442000F4409587A302F40083570400638EE702EB
:104430008DC309476384E7040D47E397E7FA97873D
:104440000100938767C41CCC978701009387C7C47A
:1044500011A8978701009387A78A1CCC9787010032
:104460009387078B5CC849B7977701009387477696
:104470001CCC977701009387A776EDB7978701004B
:10448000938747C51CCC978701009387A7C5D9BFE1
:1044900085E1EFD21FC1004618448347940075831D
:1044A0009D8B6315F700EF00901948C46FD0BFC112
:1044B0008280EFD27FBD13893500C164420941116A
:1044C000AA890144F11413590901054A2EC6EF00C7
:1044D000B071B2456346A400014541016FD01FBED3
:1044E00083A7090013171400BA9783D707006388BE
:1044F000B7006394970063742A010504C1BF0545A2
:10450000E9BFEFD29FB7AA892E89328BB6843A8A47
:10451000BE8AEF80603C4DC12685EF10B02D8D47DF
:1045200063E5A7007D556FD0DFB883DB4400EF0063
:10453000B0712A84EF009072930774003144330500
:10454000850263C5A702EF003070EF00F06F2A8488
:10455000EF00D0709307740031443305850263CDBA
:10456000A702EF00706E9307450019A8EF00106FC7
:10457000330585021307F0179307C017E357A7FC0D
:104580002D55E3C277FB63000B02D6865286A685C3
:104590004A85EFE0D05241BFEF00506C33058502F1
:1045A0009307C5FFF1BF832749001385C90083D551
:1045B0002700013779F9BDB76955B5B797070020CE
:1045C0002398A784970700209387478490438147C7
:1045D0000C463307F500420741836393B70082809E
:1045E0005446139847008507C2962390E600D5B736
:1045F00097070020938787819C4303C587008280AB
:10460000170500200355C5808280EFD29FA9C1679E
:104610001387D7FF6307E5026368A700F117630EEE
:10462000F50001456FD03FAA1387E7FF630EE50051
:10463000FD171D8D13351500F5B7EF40A0347D151E
:10464000D5BFEF402012E5BFEF408010CDBFEFD2C5
:104650005FA54111AA8401442EC6EF00F059B2456E
:104660006346A400014541016FD0FFA59C48131586
:1046700014003E9583570500E387B7FE0504E9BFA4
:1046800003485500814693F7F60F63E5070181471C
:104690003E858280584593975600BA9703D72700E6
:1046A0006316B70003D70700E304C7FE8506E1BF22
:1046B0008346450001479377F70F63E4D7008147AE
:1046C00011A81C45131657000507B29703D607001B
:1046D000E313B6FE3E858280EFD21F9B9317050140
:1046E000C18797FAFF1F938A6A726353F00883A702
:1046F0000A00C0479C4703570400198D42054181B9
:104700006366F500014422856FD05F9B12052A94F1
:10471000DDBFDC4713944900014A3E9483474400BF
:104720006341FA02014A834754006346FA0285094D
:10473000C20993D9090183A70A009847E3EBE9FC72
:10474000D1B71C4413195A00A6853E994A850137F2
:1047500009ED050AE1B75C4413195A00A6853E9994
:104760004A85F53519E1050A7DBFE30209FC61BF01
:10477000AA848149C9B7EFD2DF921C452A8481E718
:104780009307C5001CC51C44231204001CC09307DA
:10479000F00F63E9B70093F5F50F2285EF10900B4A
:1047A0006FD07F9293940501C167C18063F7F500D4
:1047B000A6852285EF10B00DE5B7C18193F5F50F01
:1047C0002285EF103009A6852285EF10F009C9BFB8
:1047D00097F7FF1F93878763884382801C4599C79B
:1047E00097F7FF1F23A4A762014582807D55828031
:1047F00097F7FF1F93878761984383474500484792
:1048000092073E958280EFD2DF89617100451C18C6
:104810003EC6B70780013EC81C183ECA83574400F5
:1048200002CE02D002CC231EF100834784002A89E5
:1048300002D22301F1023C083ED402D6553F8357F1
:1048400005002316F102EF3070632307A1025C40DC
:1048500003556400F18313F717008347F1025205F3
:104860005181F99BD98FA307F102EFE0B01639C54A
:10487000AA8403550500EF80000783D704002AD2DD
:104880006800231CF10083D72400231DF1001C487D
:1048900003D647008C43EF10007A8347B400CA86E2
:1048A000177601001306462C8117A305F4006C004F
:1048B0004810EFE0D0205D616FD0FF802155E5BF4B
:1048C0001C45B1CF03C5A700894613576500630B8C
:1048D000D7028D46630ED70285466300D7021307C1
:1048E00040063305E50203C7B700418B15CB83C7EC
:1048F000B700BD8B3355F54082801375F503130760
:10490000803EC5B709671375F50313070771D1BF5B
:10491000372709001375F5031307077CD9B701453D
:104920008280EFD20FF803A985006304090483474E
:10493000B900AE8493F7070E91CF03459900930514
:1049400020030D810505B305B50288446105EFF02C
:10495000D02105A02E85AD372A8401CDCD21832518
:10496000C900B307B54063F887002E94B305A4408F
:10497000E9FD6FD04FF58545C9BFEFD28FF22A848C
:1049800003D50500011132C636C43AC22EC002CA90
:1049900002CC02CEEF70307582452ACA22852ECC19
:1049A000813D03570500231EE100EF30304DA24644
:1049B00032469247230FA10036874C08B2862285E3
:1049C0000146EFF01FB405616FD0EFEFEFD26FED4E
:1049D00061711C183EC6B70780013EC81C183ECA4C
:1049E0003C0800453ED4AA8402CC02CE02D002D2BA
:1049F00002D6FD3B8357050035592316F102EF30EF
:104A0000F0472307A10209C48357440091E72159C5
:104A10004A855D616FD02FEB0355640052055181CB
:104A2000EFE0407B2A8965D58347B40093F7070EF2
:104A300089C713058401EFF0D01483574400231E67
:104A4000F100834784002301F1025C400355090013
:104A5000D98313F7070883471102231CA10093F79A
:104A6000F707D98FA300F10283572900231DF10016
:104A70005C40F18313F717008347F102F99BD98F4C
:104A8000A307F102EF7030662AD251D18347940018
:104A90006800139757008347B400FD8BD98FA30597
:104AA000F4001C4803D647008C43EF10C058A6877B
:104AB000177701001307470B740005464C10268535
:104AC000EFF03FA42A8929D58347B400A685FD8B42
:104AD000A305F400B9352DBFEFD2AFDC832485FEEA
:104AE0002A8441112685E93B834734FF93F7070E5B
:104AF0009DC32AC62685EFF01FD119C9834734FF0D
:104B0000B245FD8BA309F4FE81C52285EFF0F005C7
:104B100041016FD04FDB6DDD8327C4FF268582976F
:104B200065F9834734FF93F7070E81C72285EFF0BD
:104B30005005032584FE593DE1BFEFD28FD39C4140
:104B400041112A8903C7070089472E8493566700BD
:104B5000638CF6020D466382C6049307F007630276
:104B6000F7022E85EF106059AA848149C16B130C9E
:104B7000490097F7FF1F938767299C43984763EC89
:104B8000E90241016FD0AFD203D745008547E3FA70
:104B9000E7FE2E85EF10405AC1BF03D74500E3F270
:104BA000E7FE2E85EF106055AA842285EF1040564F
:104BB000C204C98C5DBFDC470355A900139A4900A4
:104BC0003E9A93170501C187635DF00083570A0081
:104BD0006395A70263E574038327CA00034D5A0057
:104BE0001DA0A1672167A98F1307F7EFE374F7FEF4
:104BF00063950900EFF07FA171FD85099DBF8327B3
:104C00008A00034D4A00835DA90003576900216AA9
:104C1000138BC7003AC6814A33CA4D01631E5D013A
:104C200097F7FF1F9387071F9C43E1DBA2866286ED
:104C3000814526858297D1B7A1679387F7EF930CBB
:104C40004BFF63F04703B2455A85EFF09F8619CDBD
:104C500003278B00104719CA10436380C402310731
:104C6000D5BFEE856685EFF09F9E71FD93861A0095
:104C700093FAF60F130B0B0255B7835644005C43AF
:104C8000E3EDF6F622853AC6EF102036A16793874A
:104C9000D7042A8A035D4400324763E897008347BC
:104CA000D90093E707F8A306F9001C47668522861A
:104CB000E2858297C1670844FD17337AFA0052955E
:104CC00008C02312A40115BF97F7FF1F938707148D
:104CD0009843814715C31447814763FFD5009397D5
:104CE00045004C47BE9519C903C7550081476375F8
:104CF000E600DC451606B2973E85828003C7450074
:104D00008147E37BE6FE16069C45F5B7EFD2CFB7A9
:104D1000AA892E8A814497FAFF1F938A2A0F83A7B4
:104D20000A00984763E4E4006FD04FB9DC4713945E
:104D3000440001493E9413BB140083474400634B75
:104D4000F900014913BB140083475400634FF90075
:104D50008504F1B70844931759005287DA86014653
:104D6000A2853E9582990509C9BF48449317590009
:104D70005287DA860546A2853E9582990509E9B7EC
:104D8000EFD22FB2814517F5FFFF1305656097F746
:104D9000FF1F239F07069D3F6FD0EFB297F7FF1FBE
:104DA0009387C7069C4399CBEFD2AFAF814517F5E8
:104DB000FFFF1305E55D993F6FD0EFB08280EFD222
:104DC000AFAC41112315E1002E89B284B6893A8631
:104DD00081460147ED452A84EF1031012AC61DCDD9
:104DE0000356A100CE85EFD0CFAECA852285EF1045
:104DF000F114058915C1228501462C002314910068
:104E0000EF1091222A8409C5ED452800EF10110DFD
:104E1000228541016FD08FAA4944FDB76554CDBFAB
:104E20005C41FD175CC18280EFD2AFA7EF007165D6
:104E300095473305F50281450D816FD0CFA8EFD29C
:104E40004FA6EF00116495473305F5020D816FD031
:104E50008FA7EFD20FA503550500EF10A1596FD012
:104E60008FA6EFD20FA4035505003287AE8617D662
:104E7000FF1F0356463E97F5FF1F9385E5F98137DF
:104E80006FD06FA4EFD2EFA1EF40C1766FD0AFA388
:104E9000EFD22FA197F5FF1F938505F8EF10712032
:104EA00001456FD04FA2EFD2CF9F814517D5FF1F8D
:104EB00003556536EF1031126FD0EFA0EFD26F9E21
:104EC00097F5FF1F938545F6EF10B11D01456FD093
:104ED0008F9FEFD20F9D814517D5FF1F0355A53931
:104EE000EF10710F6FD02F9EEFD2AF9B2E85EF602A
:104EF000C04DEF6050036FD00F9DEFD28F9AEF60DF
:104F0000700D6FD04F9C5C49E1175CC95CC583573D
:104F10002501A1072319F50083570501A1072318CF
:104F2000F5008280F1473305F50297F7FF1F93875D
:104F3000A7F19C433E9582808D476317F60603D701
:104F40004600854763F2E706EFD2AF953685368493
:104F50002E89EF10801A39C183574400931405013C
:104F6000C18063ED97022285EF102019FD142312F2
:104F700094009307A002630EF5009307B00263014B
:104F8000F50293079002631BF5002285EFC0D073F2
:104F900031A00146CA852285EF80A0046FD0AF9270
:104FA0002285EF003056DDBF828097F6FF1F938683
:104FB000E6E99C42014599CF9843D44217F6FF1F7A
:104FC0002326E6E86396D70097F6FF1F23A2E6E8BC
:104FD0001385C7FE8280EFD2CF8C7D2E71443305BE
:104FE00085029145EF70005801E565556FD0AF8D92
:104FF00097F7FF1F23A8A7E44526330585029145AF
:10500000EF7040567DD197F7FF1F23AFA7E26926C7
:1050100097F7FF1F2392A7E2412697F7FF1F239ED2
:10502000A7E097770100938767B917F7FF1F232938
:10503000F7E097070000938747ED17F7FF1F232F2F
:10504000F7DE014565B7EFD2CF85AA8517F5FF1FBB
:10505000130585DEEF10401E6FD0EF86EFD26F8410
:10506000DD37EF10E01E97F7FF1F938727DE9C4385
:1050700081CF1387C7FE09CB83D5C7FF17F5FF1F65
:10508000130545DDEFF0602E6FD0EF83EFD26F8117
:10509000293F11C9834785002A8493F7070491E7C4
:1050A0000355E500653F6FD00F828347C500930429
:1050B000450117F9FF1F130969D985E38327090003
:1050C0005CC997F7FF1F23A397D883274900E1FF07
:1050D00097F7FF1F23AE97D6F9B7FD172306F50004
:1050E0006105EF60E0748307840063C907048347A8
:1050F000840093E707F82304F400EF0031324205FF
:10510000A94741813375F5028347840093F707FC73
:10511000C98F2304F4008347D4003E951C40231814
:10512000A40089CF984319CB8347C40050408145E0
:1051300085073305F502420541810297832709005F
:105140005CC897F7FF1F23A397D08327490089E7FF
:1051500097F7FF1F23AE97CE8347C400A9D7835587
:10516000040117F5FF1F1305E5CEEFF0002025BF62
:10517000EFC23FF397F7FF1F938707F39C47014464
:105180008583858B81EFAE84B2853A86EF10A011BE
:105190002A8409C5EF10A008829408CC22856FC02C
:1051A0009FF2EFC27FEE41112E8932C6AA89692C87
:1051B000324713060502CA86970500009385C5D6B7
:1051C00017F5FF1F130545C765372A8429CD9304BA
:1051D000C50065261946AA852685EF00D065854558
:1051E0002685EF00B062177501001305E59A4E950C
:1051F000834505002685EF00F0655C483146814512
:10520000A1075CC85CC483572401E1172319F4008B
:1052100083570401E1172318F4001C4C3E85EFC0AE
:10522000BFECA3042501228541016FC03FE9EFC215
:105230005FE74111AA842EC632C4EF10A000004DD2
:10524000B2452246834784000CC050C093F7F70351
:1052500093E707042304F400231804002685EF00D5
:10526000107C83479400A9462317A40013D7370066
:1052700005073307D7029D8B85072306F400A30695
:10528000E40083C70401D8488507230FF7FE17F70A
:10529000FF1F1307A7BB5843232A040093074401A9
:1052A0001DEB17F7FF1F2325F7BA17F7FF1F232F53
:1052B000F7B817F4FF1F1304E4B92285EFF060007C
:1052C0001C44858B5D8D09E581452285EFF0E00961
:1052D00041016FC05FDF1CC317F7FF1F232AF7B61A
:1052E000C9BFEFC21FDC97050000938525C50145A6
:1052F000EFF09FBF01456FC01FDDEFC29FDAEFF0F7
:10530000DFBF6FC05FDC8347C500A1E7EFC27FD975
:105310002A840355E500EFF01FD315C983478400A5
:1053200093F7F7FB2304F4001C4091C7DC4381C7CB
:105330004C4001458297EFF05FC717F5FF1F13053B
:1053400065B1EFF000040355E400EFF03FD16FC00A
:105350009FD78280EFC2FFD497F7FF1F938707AFD5
:10536000970500009385C5D217F5FF1F130585AE7D
:1053700023A0070023A20700EFE010736FC0BFD483
:105380001C4D91CBDC4381CBEFC2BFD183450700DD
:1053900082976FC05FD3828097F7FF1F9387C7AD57
:1053A0009C4303C50700828097F7FF1F9387C7AC14
:1053B0009C4303C51700828097F7FF1F9387C7ABF5
:1053C0009C4303C52700828097F7FF1F9387C7AAD6
:1053D0009C4303C54700828097F7FF1F9387C7A9A7
:1053E0009C4303C53700828097F7FF1F9387C7A8A8
:1053F0009C4303C55700828097F7FF1F9387C7A779
:105400009C4303C56700828097F7FF1F9387C7A659
:105410009C4303C57700828097F7FF1F9387C7A53A
:105420009C4303C58700828097F7FF1F9387C7A41B
:105430009C4303C59700828097F7FF1F9387C7A3FC
:105440009C4303C5A700828097F7FF1F9387C7A2DD
:105450009C4303C5B70011E11D45828097F7FF1FEC
:10546000938787A19C4303C5C700828097F7FF1FDE
:10547000938787A09C4303C5D700828097F7FF1FBF
:105480009387879F9C4303C5E700828097F7FF1FA0
:105490009387879E9C4303D50701828097F7FF1F60
:1054A0009387879D9C4303C52701828097F7FF1F41
:1054B0009387879C9C4303D54701828097F7FF1F02
:1054C0009387879B9C4303D56701828097F7FF1FD3
:1054D0009387879A9C4303D58701828097F7FF1FA4
:1054E000938787999C4303C5A701828097F7FF1F85
:1054F000938787989C4303C5B701828097F7FF1F66
:10550000938787979C4303C5C701828097F7FF1F46
:10551000938787969C4303C5D701828097F7FF1F27
:10552000938787959C438857828097F7FF1F9387BF
:10553000A7949C4303D5C702828097F7FF1F9387E8
:10554000A7939C4303D5E70219E11305800C8280E1
:1055500097F7FF1F938747929C4303C507038280F9
:1055600097F7FF1F938747919C43C85B828097F70B
:10557000FF1F9387E78F8843828097F7FF1F9387EA
:10558000678F8843828019E17D558280F5DE9842DD
:1055900065DFFDD917F7FF1F130707B11847AA8763
:1055A0007155058B6316072203C507001547E37D78
:1055B000A7FC03C737001305F0057D171377F70F16
:1055C000E364E5FC03C35700E30003FC83C8670002
:1055D000E38C08FA03C77700494579171377F70F6B
:1055E000E364E5FA03C7A70011481305F7FF137535
:1055F000F50FE36BA8F803CE97000D481305FEFFE7
:105600001375F50FE362A8F803C8B7006309080033
:1056100065181378F80F1305600DE36705F703C5E8
:10562000C700794879151375F50FE36FA8F403C81F
:10563000D7000D457D181378F80FE36705F503D8FB
:105640000701930E40175118420813580801E3ED63
:105650000EF303C8E7007D181378F80FE36605F32F
:1056600003C827017D181378F80FE36F05F103C80D
:105670008700C54E75181378F80FE3E70EF103D8CD
:105680006701856E938EBEE06D18420813580801BD
:10569000E3EC0EEF03D847016D18420813580801D8
:1056A000E3E40EEF03D88701791842081358080184
:1056B000E36C05ED03C8A7017D181378F80FE365C7
:1056C00005ED03C5B7011D487D151375F50FE36D95
:1056D000A8EA03C5D701714879151375F50FE3657D
:1056E000A8EA03D5E7011308E00F7D1542054181C3
:1056F000E36CA8E803C50702494879151375F50F4F
:10570000E364A8E883AE470237C534001308F5BF49
:10571000E36CD8E703A88702130555BF5918E36562
:1057200005E717E5FF1F2327C57403C6050117E525
:10573000FF1F2323F5740545E378C5E403D825014D
:10574000D04933760603E31106E403C61501E30DE1
:1057500006E217E6FF1F232DB67083C5270001461A
:105760006387A50003C61700F1453306B60283C759
:1057700007039305C00272971A071307C70516039C
:105780001A9796084697B387B70241553E973297C6
:1057900042074183636EE802EFC2BF903685EF6037
:1057A0009066EFD0F0172A84EF80F0132A94EFC0B0
:1057B000D01B2A94EF60107E2A94EFF0DF812A94A8
:1057C000EF2050612A94EF50A06222956FC0BF8FE6
:1057D0008280EFC21F8D4111A307A100EF80C0148A
:1057E0009305F100170500001305C5B9EFF00FD2BE
:1057F000014541016FC03F8DEFC23F8817F4FF1F85
:105800001304848A0328840079599368180097F454
:10581000FF1F23AF148913781800631E0800BA8491
:10582000BE89368B328A2E89AA8AEFE07FDC7D150D
:10583000269509E531594A856FC0BF87EFE05FDBE8
:105840007D152695A167E357F5FE97F7FF1F938710
:1058500067BC98433E8C814B11C70145EFC0F034C3
:10586000933B15004A85DA865686D285EF70B02DB7
:105870002A8911CD1C44F99B17F7FF1F232AF782B1
:1058800083270C00CDDBE3880BFA82976DB7268562
:1058900097F7FF1F23AC0780EFE05FD24146CE852C
:1058A00017F5FF1F1305C589EFC0BF82EFA0A07ECB
:1058B0000325040BEFA0B0000545EFA0B006054599
:1058C000EFF03FF18DBF97E7FF1F9387E77D9C4780
:1058D000858BD5C7EFC2EFFC17F5FF1F1305858435
:1058E00097E7FF1F23A2077C97E7FF1F23A0077CF2
:1058F00097E7FF1F23AE077AEFE0B028EF40C00024
:10590000EFE01000EFE0900497E7FF1F93874778E0
:105910009C4381C70545EF60702A97E7FF1F938777
:10592000E7609C4389C741657D15EF500068EFC073
:10593000B030EFA0207797F7FF1F9387A78B9C438A
:105940001397170163540700EFC0E03B97E7FF1F71
:1059500023A8077E97E7FF1F23A6077E97E7FF1F71
:1059600023A4077E97E7FF1F23A2077EEFF0FF988F
:105970009D23EFF0EFC0EFC0C05D6FC0CFF4828019
:10598000EFC28FF02A849304140201112E85B2898C
:10599000A685214636C63A89EF4061611DE1B246CF
:1059A00038082686CE8513059404EF4080412146B1
:1059B0002C084A85EF40A15F1335150005616FC0C3
:1059C000EFEF0145E5BFEFC2CFED9305450617E5C3
:1059D000FF1F1305A54AEFE050196FC0CFEEEFC2CD
:1059E0004FEC41112EC6EFF08FC5B24588C1410181
:1059F0006FC06FEDEFC24FE9AA842E84EF60D070C4
:105A0000AA8985452285B92583C7E40113899408AD
:105A100099E313890403CE8522852D2D2146930514
:105A200019022285092D97E7FF1F9387E7678C43AB
:105A30002285EF00A0682146938584022285E52B0C
:105A40006FC0CFE7EFC26FE33971EFC0E046930557
:105A5000400645EDEF605068630E051097E7FF1FA5
:105A600083C7874313B7170097E6FF1F2386E642D5
:105A7000014489CFC16417E9FF1F1309E962930943
:105A8000400EFD14EFF05F9A6348A408EFF02FBBBF
:105A90004169B7290900096AFD7A2A8B81447D1979
:105AA0009389F97B130A0A71938A8AC7EFF0DF970B
:105AB00063D5A4041304400EB387840217E7FF1FC5
:105AC0001307875E0324070B3E948357C401638644
:105AD000270918403307EB4063EAE9008347440095
