:040000006F2000036A
:100004000000000000000000A0000020560B0020AB
:10001400A9BDF9F3E0010020000000000000000089
:10002400E0010020A000002000000000000000000B
:10003400A000002000000000A0000020000000003C
:10004400A0000020A0000020A0000020A0000020AC
:10005400A0000020D80B0020A00000200000000019
:10006400A0000020A0000020A0000020A00000208C
:10007400840C0020A0000020A0000020A00000208C
:10008400A0000020A0000020A0000020A00000206C
:10009400A0000020A0000020A0000020A00000205C
:1000A40001A0B7170040984B41111367070198CB83
:1000B400982B1377E70F98AB1307800873370780E3
:1000C400137787083AC601000100130770052380DF
:1000D400E704130780FA2380E70401000100B8470E
:1000E400894613675700B8C703C7B7041377F70DDA
:1000F400A385E704B82713672701B8A7130750148B
:100104009AA737270040A303D78003C7E7041377D0
:10011400C70F136717002387E704982B136717008B
:1001240098AB23800704B247F3A7078001000100BE
:1001340041018280EFF0FFF61305401E9705000091
:100144009385450A17260000130686EE63FAC50058
:100154008322050023A0550011059105E3EAC5FE9D
:1001640017D501E01305C5A997250000938585ECF3
:100174001386818463FAC5008322050023A05500F9
:1001840011059105E3EAC5FE1385818497450000B6
:100194009385C5666377B500232005001105E36DDB
:1001A400B5FE93025002739002BC8D42739042805C
:1001B4008542739012BC93028008739002309702B8
:1001C4000000938222E493E232007390523097420B
:1001D40000E0938262C873901234730020300000F0
:1001E4009305000273A045808245739015349240B4
:1001F4002242B2424243D2436244F24402559255EF
:100204002256B2564257D2576258F2580649964976
:10021400264AB64A464BD64B664CF64C065D965D6E
:10022400265EB65E465FD65F096173002030230305
:10023400048015472303E48001002302A480828004
:1002440083076480E3CE07FE230304808280830750
:100254006480E3CE07FE0345448082808307648084
:10026400E3CE07FE2302A4808280411126C44AC241
:100274004EC006C61377F50BAD47AA892E8995445F
:100284006306F70019456537653F8D444E8545374C
:10029400FD59FD1463983401B240A24412498249C5
:1002A40041018280135509011375F50F453F220959
:1002B400CDB7011126CC06CEB70408005137154539
:1002C400BD37713769372AC6A53F32459377150084
:1002D40089EB136515001375F50FF240E2440561CF
:1002E4008280FD14E9FC0145CDBF397126DC4ADA70
:1002F4004ED852D656D45AD25ED006DE62CE66CCE2
:10030400B7E700E07D5783AA070022C603AA470087
:1003140023A0E71823A2E718B717004013077005B6
:100324002380E704130780FA2380E70483C7470484
:10033400930B75FFB684E20793FBFB0F8546AA89EE
:100344002E8B328937240040E187015763FA760106
:100354006308D5008946130700026313D5000157CB
:10036400D98F93F7F70FB71C00402382FC04114781
:100374002303E4801305F00F5D3D094CD135636D13
:100384007C11B7050700DA9537870700795563F2C2
:10039400E504B3879500636EF702370B0800A9479D
:1003A40033EB65016399F90689E48144513D26855F
:1003B4000DA0DA850945553D05090345F9FFFD14EE
:1003C400050B693D81C49377FB0FFDF7DD3569FDAE
:1003D4007D55B7170040130770052380E704130702
:1003E40080FA2380E70403C74704418B2382E70490
:1003F400F250B7E700E023A0571123A24711E254BB
:1004040032445259C259325AA25A125B825B724C1C
:10041400E24C21618280A5476395F9068569130939
:10042400F00FB3069900B3742B01B6941349F9FF86
:10043400B3749900856B33796901416B9387F9FF34
:10044400B3F7270199E363FC340193D94900C14709
:10045400E3E637FF99BF0569C1697D19D9B713056B
:10046400800D638869011305000263847901130513
:100474001008CA85DD3B353D21DD4E99B3843441F6
:10048400D9B7DA852D45D533CA94E30099F2050925
:100494007D3BA30FA9FED5BF9387F9FF93F7F70F11
:1004A4006361FC0C83C71C0413073008631FF70443
:1004B40037070800636BEB04B3079B00B706100013
:1004C40063F5D704334BEB0089476393F9068980BE
:1004D400D549E38C04ECDA850945413B110903272E
:1004E400C9FF91472320E48003076480E34E07FE9D
:1004F40023033481FD17EDFBFD14110B81C49377A5
:10050400FB0FE9FF7D3371F5E1B5B717004003C771
:100514005704B70708001377070219E3B7870700E2
:100524007955E378FBEA33079B00E3FFE7F855B519
:100534008547E382F9F2DA852D45053B9389F4FF7B
:10054400E38504E6293393F7390091EB832604808D
:100554000327090093074900E39AE6E43E89CE8421
:10056400F1BFB5476396F9001305900BC93135BD4A
:10057400B1471305B00AE38BF9FE99476391F90477
:10058400B7050800B365BB002D45C53181448D4BCB
:10059400A149753963967401832704802320F900E7
:1005A4008504E39834FF8327048013172B016355D4
:1005B40007002312F900D5BB2322F900FDB39D47A0
:1005C4006399F90281451305B0044531BD442320E4
:1005D400090023220900FD599D3993F77400CA9735
:1005E40003C70700FD14398D2380A700E39634FF69
:1005F4006DBBA1476392F9046D398144630D0B000F
:100604008D479304C0036308FB009304000563044F
:100614008B01930440041375C507E30895D8194565
:10062400393139390545213126850D3909453D31A1
:100634004931E31C05D669BB91476399F900130559
:100644006006F536F53E130590090DB7E38F09D41E
:10065400F154A9BBBD6601471746000013068693F3
:10066400938606A685458347060093F7F70F91C343
:1006740082800507E3F9E6FE97470000238CB790D4
:10068400DDB77D166206618693178601E18763D420
:10069400070001458280931726003307F500AE97C3
:1006A40018439C4363E7E7007D16E37FF7FC7D5521
:1006B400828005458280FD15E205E1851397850159
:1006C400618793F7F50F63480700FD15139725001D
:1006D4002A97584365D71385170062056185828080
:1006E4003308B5021C4283A80600B335B502C2978D
:1006F40033B50701AE98469585486367B5006394A2
:10070400A50063E3070181480C43C6950CC388C266
:100714001CC2828081471397870161876343B700B6
:100724008280139727002A97232007008507E5B7BF
:100734008147014793968701E18663C5B600133567
:100744001700828093962700AA9694428507558FB6
:10075400D5B793D755408A07AA979C4305453315C7
:10076400B5007D8D8280172300E0E702C3932A84BD
:10077400993705C5931725003E940327C4FF814785
:1007840011EB7D1516053E9542054185172300E0C2
:100794006700A39305838507E5B70145C5BF814776
:1007A4001397870161876343C700828013972700EB
:1007B400B386E50094422A97850714C3D5B77D16FE
:1007C40062066186014793178601E18763D50700B6
:1007D40013351700828093172600B306F500AE97F1
:1007E40094429C437D16B58F5D8FF1BF8A05AA950F
:1007F40001476363B500828083A6C5FFF11593D7D3
:100804001600D98F9CC11397F601E5B72A830148D6
:10081400014701456343D7008280B387050183A85C
:100824000700B30706019C43C697AA976384F800A0
:1008340033B517010507B3080301620723A0F800C5
:1008440061871108C1BF2A8301478147014563C3FA
:10085400D70082803388E50083280800330EE60041
:10086400032E0E003388A8403308C841638408016E
:1008740033B508018507B308E300E20723A00801A4
:10088400E1871107E9B7172300E0E702C3810111EB
:10089400B286B2842E86AA850A8575372A84A685EF
:1008A4000A85793533348000060413351500018D2B
:1008B4000561172300E067004381171300E0E70296
:1008C400037C4111AA89AE8A328BB68402C202C467
:1008D40002C60144131C8401135C8C4163499C02CD
:1008E400939B1400FD1B0549138CF4FFF15C330446
:1008F400890162046184634D740592478E04CE9429
:1009040023AEF4FE4101171300E06700C37A131904
:100914002400B30B2B01014A93172A00D69783A511
:100924000B0088437800340050005D3B050A9317A0
:100934008A01E187F11BE351FCFE92474E990504BD
:100944002320F900A2473EC2B24702C63EC459B7AB
:10095400131A8901135A8A41131D240093178A011B
:10096400E18763CF970092470A044E941CC0A247C4
:1009740005091379F90F3EC2B24702C63EC485BFCA
:10098400B3079A0313152A005695084178003400DA
:100994005000050AEA97DA978C439933C1B741119D
:1009A400B7170040985F3AC6945F3247E39CE6FE6F
:1009B400324541018280B7170040984B41111367BB
:1009C400070198CB982B1377E70F98AB1307800890
:1009D40073370780137787083AC6010001001307AD
:1009E40070052380E704130780FA2380E7040100DD
:1009F40001001307000C6315E5029A271367070C1F
:100A04009AA7B7170040982B1367170098AB238059
:100A14000704B247F3A70780010001004101828067
:100A2400B82793760520DDC2118B29E303C7E704B9
:100A340003C6E7041377F70F136636002387C7044A
:100A4400B02713664600B0A792278E2733460608C0
:100A540093E5050C8EA7A5470100FD1793F7F70F43
:100A6400E5FFB717004092A72387E70493770510A3
:100A7400D5C7371700403C2793E707013CA7937776
:100A8400F501A9EBB727004003C757801367070197
:100A9400A382E7801D47A383E78033450508B71782
:100AA40000401367050C9AA78AA7D5C203C7570449
:100AB40083C65704418B858A558F21F7B82B418B08
:100AC40029D3B8271377D70FB8A725BF13672700F3
:100AD400B8A769BF2547636CF700B727004003C771
:100AE40057801377F70EA382E78005476DB7937796
:100AF400050199EBB727004003C757801377F70E1A
:100B0400A382E780094741BFB727004003C7578046
:100B140013670701A382E7800D47B5BF937785016B
:100B240081EFB727004003C757801377F70EA382DE
:100B3400E7801307100585B7B727004003C7578020
:100B44001377F70EA382E78013077005A9B7B827B8
:100B54001377B70F95BF4111814601468145114571
:100B6400EFF0AFF813078008F337078093F787088F
:100B74003EC401000100B71700401306700523802E
:100B8400C704930680FA2380D70401000100FD55B1
:100B9400CEB723800704A245F3A505800100010018
:100BA40073370780137787083AC601000100238052
:100BB400C7042380D7040100010003C76704136737
:100BC40017002383E70423800704B247F3A70780B1
:100BD4000100010001A00000197106C212C416C66A
:100BE4001AC81ECA22CC26CE2AD02ED232D436D649
:100BF4003AD83EDA42DC46DECAC0CEC2D2C4D6C639
:100C0400DAC8DECAE2CCE6CEEAD0EED2F2D4F6D628
:100C1400FAD8FEDA938501858841E7000500924001
:100C24002242B2424243D2436244F24402559255B4
:100C34002256B2564257D2576258F258064996493C
:100C4400264AB64A464BD64B664CF64C065D965D34
:100C5400265EB65E465FD65F09617300203041119F
:100C6400B7170040985F3AC6945F3247E39CE6FEAC
:100C7400324541018280B7E700E03707001023A026
:100C8400E7208280B7170040130700032388E70298
:100C9400854723ACF18473002030411106C6C52971
:100CA400FDBF23AC05FE1C4199E30CC182803E8745
:100CB40083A787FFEDFF232CB7FE8280411126C254
:100CC400B7E400E04AC003A90400B707200006C641
:100CD40022C43379F90023A0F4180F10000009E5A9
:100CE40023A02411014535A09565938505D0C98DB0
:100CF4002A842105B3C5050833450508EF00704E65
:100D040065D1FD572320050042A17CA123A0241115
:100D14002105B2402244924402494101828041119A
:100D2400B7E700E04AC003A9070026C2370720003E
:100D340006C622C4AA843379E90023A0E7180F1059
:100D4400000083A701860144014685E301C8A2850A
:100D540013850186975001E0E780403BA165268515
:100D6400975001E0E780406D0DA003C7E7FF6319CA
:100D7400970205CCA28513850186975001E0E78090
:100D8400E038A1652685EF10E000B24022852244B8
:100D9400B7E700E023A02711924402494101828071
:100DA40011E03E8683A787FF4DB73E84E5BF37E752
:100DB40000E01C43B70620002320D718F58F0F103E
:100DC400000019C191C111E637E700E02320F710B4
:100DD40082802E960F70B650D5BF37E700E01C43D3
:100DE400B70620002320D718F58F0F10000001C587
:100DF4003307C50011E637E700E02320F7108280AF
:100E04000505A30FB5FEE31DE5FEF5B737E700E0E2
:100E14001C43B70620002320D718F58F0F100000BD
:100E240001C599C1014711EA37E700E02320F71013
:100E3400054582800507E309E6FE3308E500B3862D
:100E4400E500034808009422E306D8FE37E700E0F3
:100E54002320F7100145828037E700E01C43B706E2
:100E640020002320D718F58F0F1000001307F6FF7A
:100E7400BA952A966317C50037E700E02320F710D8
:100E840082809821FD150505A30FE5FEE5B737E738
:100E940000E01C43B70620002320D718F58F0F105D
:100EA400000001C53307C50019E637E700E0232039
:100EB400F7100145828014210505E398B6FEE31C72
:100EC400E5FE37E700E02320F710054582807971BD
:100ED40026D29384818722D4804006D64AD04ECE2F
:100EE40052CC56CA5AC85EC662C445C837C9C9017D
:100EF400814B938A01871309F937173B0000130BC1
:100F0400AB57973900009389A954173A0000130A84
:100F1400AA5B3E2099EF5C44639A0B009CC0032CAF
:100F2400C4002285EF0050386284A9A823A6FB00E0
:100F3400FDB783A70A0082971C443307F540637604
:100F4400F50003278A001D8F2A97636BE9069737FC
:100F5400000023A707502E200820EF00B0635C4058
:100F64005844A1CB0C441736000003266656AE97AE
:100F7400BE8663E4B70063E4C700B386C74014C405
:100F8400A28B3A8459F4173700001307674C1C4BA3
:100F9400854663FBF604FD171CCBB25022549254D1
:100FA4000259F249624AD24A424BB24B224C456141
:100FB400828063940B0098C09DB723A6EB0085B78D
:100FC40003274B0219CB63EDA7003385A74083A702
:100FD40009016374F50023A8A900A28B40445DB7FE
:100FE40003278A00BA97D5B79737000023AA074684
:100FF4006DB70111B7E700E04AC803A90700370736
:10100400200006CE22CC26CA4EC652C43379E9004B
:1010140023A0E7180F100000973400009384C44AFB
:101024009C288844A9CF973700009387275603D775
:10103400C70A31C703A4870A6303A40497390000CD
:101044009389094183A709016388A70E138A01873D
:1010540083270A008297636EA40C83270A00098CF5
:10106400829783A7090198443354F40AB307A40070
:101074003E8563E4870063E4E7003385E740B7E730
:1010840000E023A027119C44639BA70217340000AF
:101094001304043C184883A701876311A70A8297A5
:1010A4009444374736FE130707C83697B307A7009B
:1010B4003E8563E4E70063E4D7003385D740173403
:1010C40000001304A46F5C5C89CB83A6C18C9C468E
:1010D4003707CDFF7D17F98F9CC611E188448547FA
:1010E4005CD09737000083A7673B829715E15C5C6F
:1010F40099CF5C5089CF978001E0E780400A9780C0
:1011040001E0E78040DD9737000023AB076CC13373
:101114005C5C81CB03A7C18C1C47B7063300D58F19
:101124001CC7F2406244D2444249B249224A056192
:1011340082809C443E9415B7228591B782971448C7
:101144009844B387A6003E8563E4D700E3E9E7F655
:101154003385E740ADB723A2A18601C58547238423
:10116400F186828083A7418681CF411106C682978A
:1011740083C7818699E323A20186B240410182801C
:1011840083C7818681E723A2018682808280411100
:1011940022C426C206C64AC097340000938404625F
:1011A40083C73402173400001304C430B9C317349E
:1011B40000001304E4291389C187032709001C20B4
:1011C40014300146B3A5E7208E21A5C911C21CA085
:1011D4000820636BD50697370000238B072683A767
:1011E4000187C5E7B240224492440249410182800A
:1011F40082971C40F5FF9737000083C7E72D99EFCE
:10120400DC48858B81CFD84C9947631DF70097370D
:10121400000023AF075A85215C4482971C44C1DB3C
:10122400829771B7D84C9D47E31AF7FE97370000B1
:1012340023A0075A89211C48CDB7850793F7F70FD8
:101244000546E3E1D7F861B73327E5200E232310E1
:1012540007002395018683A74187B347F5209C4364
:1012640082971C208326090003D7A1863377E540A3
:10127400B3A6D7209222518F9AA299C385071CA0A6
:1012840018201C30E360F7F6B9B79737000083A73E
:1012940027241CC82D3983C73402A9F783C7140235
:1012A40099CBDC4C89EB97370000A38907529780D0
:1012B40001E0E78020CE9737000083A7271E9DD347
:1012C400D84C9147E3E0E7F29737000083C7872AB9
:1012D400918BE39907F083C78186E39507F0183073
:1012E4008326090063C8E7002244B24092440249BD
:1012F400410101B333A6D7201222E31506EE850778
:10130400D5B7B7C700401387C7201443139626499F
:1013140010C30100010093878726173500000325B9
:10132400E5149C436A0514C393C7F7FF99835D8D45
:101334008280173600001306262197360000938614
:10134400A622DC36383E4C4ABA97FD8B33D7F500DB
:101354001CB2DCB6058B0DE7943A13050002B3F713
:10136400D702814633D8E548630908006394D7005F
:1013740018B28280850693F6F60F0507E314A7FEDC
:101384008280011126CA83A7018706CE22CC4AC8CF
:101394004EC652C48297973400009384E41C984448
:1013A400AA870145630DF70463E3E706998F1739AC
:1013B40000001309691993F9F70113D457008347FF
:1013C400A901636AF402173A0000130AEA0F953779
:1013D4000347A9018C4403268A0093175700AE974C
:1013E400198CBE8663E4B70063E4C700B386C740C4
:1013F40094C4E37EE4FC1315540033653501F240D4
:101404006244D2444249B249224A056182809736F5
:10141400000083A6E60B3387E640BA9749BF000075
:10142400EFF05FD473000000000000009382818617
:101434000383020023800200630F0300F3251034AA
:101444002EC0970500009385E5FD73901534EF00D9
:1014540020557300203086DCEF008054E6508280F3
:10146400000041114AC01389018B0327090026C2D9
:1014740006C61C5F22C49384C18A93D76748B5CF3C
:10148400930700061CDF1734000013042433184CA0
:10149400930700086317F7009C409C4393F70704E5
:1014A4001CCC1C4093F7070489CB83A70187829740
:1014B40048D81C4093F7F7FB1CC01C4093F7070265
:1014C40089CF1C4003A7C18BB706080093F7F7FD2B
:1014D4001CC05C5414C786077CD71C4893F70704C8
:1014E40089EF85475CC83707020083A7C18B98C77B
:1014F4001307000C18C81854F8D383270900985F01
:101504001357474811CF985F1367070198DF83A7E4
:10151400C18B23A207068547173700002328F72A23
:101524009C40D8431357174819C7D843759BD8C351
:10153400D843799BD8C3B240224492440249410122
:101544008280053773002030973700009387072780
:101554003707040088DB698F01CF03A7C18BFD56D1
:1015640034D7973600009386A6EED84E0507D8CE1A
:101574001377850019CF984783A6018B136717004B
:1015840098C71307000898CBD856719B13671700A8
:10159400D8D61377150001CFD84383A6018B1367E0
:1015A4001700D8C3D856719B13671700D8D6137782
:1015B400650019CF1377450059C398431367170083
:1015C40098C383A6018BD856719B13671700D8D68E
:1015D4004167698F0DC39736000083C66602C18ACE
:1015E40017370000130787FAA5C28346470793E617
:1015F4000602230AD70637070200698F01CF984BEA
:101604001377070819C3054798CB83A7C18B3707FE
:10161400020098C7B70708007D8D0DC11737000079
:10162400034717FE058B97370000938727F61DCBDA
:1016340003C7570713672700A38AE7068280D847A2
:1016440013671700D8C7B5BF834647070946BD8A45
:101654006388C600834647070D46BD8AE39DC6F8E6
:10166400914641BF03C75707118B69DB03C757076F
:1016740013678700D1B783A6C18B97370000938780
:10168400E7139843058B19E7D843058B01E7F85214
:101694006DFBDC4B9737000023AC071282809386E6
:1016A400018B2A8788421C5D93D75748D1E781C5AF
:1016B4001C59BD839CA115C69C42945BC60693D756
:1016C400660163D6060093E707C0B3C7070883160D
:1016D400060093975760B9C6BE968947B3C6F6020B
:1016E40016A283A7C18BBC4B083393D757488DCF21
:1016F40029C59736000083A6E60D93F606049307E2
:10170400950009459DCABA979C230547194593F648
:10171400F7066394E60201459397476063DF070089
:10172400394582801EA275BF2A9748331375F50781
:101734007D153335A00082800545828083A7418BC7
:1017440099CB944BD04B9842518F98C294439C4769
:101754009842D98F9CC21386C18B0548184283A630
:10176400018B9737000093876705631D0503884243
:101774001365050888C283C62702B3C5D52093859F
:10178400A50C54471395164948C70F10000018427A
:1017940037060200860510C71306000890CB6CD3E9
:1017A40054C7828088421375F5F788C283C627021E
:1017B400B3E5D5209385E50EE9B7411126C2AA8782
:1017C40006C622C42E859384C18BB285D9EB9C4076
:1017D400F8537DFF3707020098C79737000023A30B
:1017E40007FEB7E700E03707200037F400E023A046
:1017F400E728130404D01C48ED9B1CC81C4893E73D
:1018040087031CC873005010153F83A7018B9843AE
:101814001317772998C3D857719BD8D797370000E7
:1018240023A807FA9737000023AC07F89C40094720
:1018340098C31C4893E787001CC873005010944059
:1018440017370000130787F71C47858B91E75C4720
:10185400858B99E3FC52EDFBB24022449244410152
:1018640082800D476398E7049737000023AC07F4A0
:101874009737000023AA07F4B7E700E037072000F2
:1018840037F400E023A0E728130404D01C48ED9BA0
:101894001CC81C4893E787031CC873005010793D8B
:1018A40083A7018B98431317772998C3D857719B43
:1018B400D8D741B70547E394E7F837F700E01307B3
:1018C40007D0144BED9A14CB144B93E6860314CB38
:1018D40073005010984050479316164954C70F1080
:1018E40000009840B706020014C793060008973515
:1018F400000023ADD5EC83A6018B944293D67648A1
:10190400639FF6009307E0187CD350C737F700E0D5
:10191400832707D193E787002328F7D039BF93079C
:10192400E01ADDB783A7418B89CFD44303A887008E
:1019340098423367070198C2D447DC4B9842D98F49
:101944009CC2054783A7018B9505631BE502984359
:101954001367070898C3984F137707C01367A71333
:1019640098CF13078007B8BB939735009387C703B5
:1019740019C293171600173700002325F7E6828053
:1019840098431377F7F798C3984F137707C01367F3
:10199400271398CF1307F007B8BB93974500F9B7FF
:1019A40083A7C18B8847D847798D11C588C783A77A
:1019B400818B91C382878280896703A7C18B9387B8
:1019C40007F47CD383A6C18C83A7060993D7A749C0
:1019D40091C783A7060993D7974999E37C53EDF7F9
:1019E40082804111B7E700E022C48043370720001A
:1019F40006C6798C23A0E7180F10000011C199E5E1
:101A0400B7E700E023A08710014549A80D05334539
:101A14000508130740037199B34705086362A702D9
:101A240003A5C18D83A6418D639FA60017370000CF
:101A3400032787A771D7C207DD8D05450297C9B76C
:101A440003A5818DC5B77A2131EF5A21636CF70460
:101A5400B306F7402148173600001306669F6375E6
:101A6400D8028328050003586600938687001D8FDB
:101A7400AA966117DAA223A016012393060014C1C3
:101A84005EA1130788FF7AA27A226EA12105B3070B
:101A9400F7407EA2B7E700E023A08710B2402244BB
:101AA40041018280084149B7B7E700E08C4337071A
:101AB400200023A0E718F98D0F10000001E523A0F2
:101AC400B710828003A3C18D83A8418D9A87814674
:101AD40063F8170903A807006367F5086365A80896
:101AE40013878700636EE506F223216705076317F2
:101AF400E6001386E1891822050718A217350000AD
:101B040013050595D2237A2123930700329733478F
:101B140007087AA16383670203A3818D630FF3002F
:101B240003D36600631B0300DE2223A00601210702
:101B34003E962106D2A27AA1B68798436302170380
:101B440083A6818D630ED700762399EAD623522388
:101B54001843A106B296D6A398C37E21A1077EA1FD
:101B6400B7E700E0A9BFBE86C2879DB7AA8703A7CF
:101B7400C18D03A6418DB305B5406314E6003E85CF
:101B840029A8930687001843E3E9D7FEE3F7E7FEA5
:101B94002E85E3E4D5FEE3F2E5FE8280AA8703A561
:101BA400818711E182803A216315B7001821E30B84
:101BB400F7FE4845FDB7411122C406C626C24AC0F5
:101BC4002E848DCD13F91500814741476302090422
:101BD400131745003E97B1463307D70283A4018803
:101BE400B317F02833C90708BA949C40C8408297B9
:101BF40023A0040023A2040033448900B2402285B8
:101C040022449244024941018280B356F448E9F2E5
:101C14008507E39CE7FECDB7011126CA06CE22CC88
:101C24004AC84EC6AE84A1C593F715000144414786
:101C3400B1CB93174500A2973147B387E702938945
:101C4400018803A909003E998327090081C7032558
:101C54004900829731473307E40283A70900BA9702
:101C64009C478DC733148028B3470408BD8CF240C9
:101C740062444249B2492685D24405618280B3D682
:101C84008448C5FA0504E31CE4FECDB7232009000B
:101C940023220900C1BF7971B7E700E022D4804351
:101CA40052CC06D626D24AD04ECE56CA5AC85EC6A2
:101CB40062C43A8A37072000798C23A0E7180F10F2
:101CC400000005E123A087100945B2502254925424
:101CD4000259F249624AD24A424BB24B224C456104
:101CE400828083A70187B6892A89AE8A328B938B37
:101CF4000188829703A70B008144B146C147338C06
:101D0400D4023306870110422DEEC165938505F098
:101D14004145C13919ED9727000083A7E77881C7AA
:101D2400814511458297B7E700E023A087102D4530
:101D340069BF138781871C43A1E308C323000500FF
:101D4400B31790283EA183A70B0023260500232464
:101D5400650123224501E29723A0270123A257010D
:101D640023A447016384090023809900B7E700E0B6
:101D740023A08710014591BF3E87DC47F5FF48C784
:101D840075BF8504E39DF4F6B7E700E023A0871050
:101D9400214525BFB7E700E09843B706200023A0FC
:101DA400D718758F0F1000009726000083C6566A57
:101DB400637DD50083A6C1873325D5201621D58D13
:101DC4000EA123A0E7100145828023A0E7100D4552
:101DD40082800111B7E700E022CC8043370720005E
:101DE40006CE26CA4AC8798C23A0E7180F10000033
:101DF400BD4763E7A70431473307E50283A701889A
:101E0400BA979C4395CF3315A0282E89B34505086E
:101E140001452EC66133AA8409C9B24501459740DC
:101E240001E0E780A04823A42401B7E700E023A051
:101E340087100145F2406244D244424905618280E0
:101E4400B7E700E023A087100945EDB79727000006
:101E540083C7576FAA86850703A501890147122105
:101E64006307D60005071905E36BF7FE0145828079
:101E74002A8703A5418911E182801C45B227636B3F
:101E8400C70003584500B306C8006355D700814610
:101E9400639406010841C5B703D3A70093880701DB
:101EA4006316E30091C192A13E8582808506C687B0
:101EB400B3C60608F1BF9726000083C6A66883A7A9
:101EC400418A01476394E60001458280AE2313866C
:101ED400C7036394A5003E85828005071377F70F37
:101EE400B287CDB79386C18B9C42B84B1377F78FDB
:101EF400B8CB98431367870098C39C4393D737485C
:101F040089C7010001000100010003A7018B1C43E4
:101F140093F7F7CF93E707101CC303A6C18C1C46A5
:101F24003707CEFF7D17F98F1CC69C423707030085
:101F3400B8CB83A7418B99CBD44390479842518F18
:101F440098C2944BDC4B9842D98F9CC297370000BF
:101F540023A40788828083A7C18B9C438D8BE9C708
:101F64004111B7E700E04AC003A9070026C23707BA
:101F7400200006C622C4AA843379E90023A0E71806
:101F84000F1000001734000013044483584C8D478D
:101F9400631AF7009727000083A7075C0146814571
:101FA4004545829719476391E4048347140289CB1A
:101FB400834704026396970097370000A380078243
:101FC400584CA1476315F700930780101EB0238473
:101FD4000186093FB2402244B7E700E023A027115D
:101FE40092440249410182809D47639BF4008347E8
:101FF4001402F9D7034704028D47E313F7FC6DBFBE
:10200400544C6389E600584C6306F700584CA147CA
:10201400E31FF7FA83471402DDFB5C4C2300F40250
:0C2024008547A300F40265B7828000002D
:1020300097110020938101B717E10120130181FC62
:102040001305400097E5FF1F9385C5FB17E6FF1FAB
:102050001306461963FAC5008322050023A0550024
:1020600011059105E3EAC5FE17E5FF1F1305C50C31
:102070000285397101436EC619A0397141536AC88E
:1020800066CA62CC5ECE19A0397101535AD056D2BD
:1020900052D44ED64AD826DA22DC06DE330161401D
:1020A000828241114AC026C222C406C68282B24D33
:1020B0004101024D924C224CB24B4101024B924ADB
:1020C000224AB2494101024992442244B2404101AC
:1020D00082802A8309CA83830500230073007D164A
:1020E000050385056DFA82802A8311C62300B3009B
:1020F0007D16050365FE8280102194210505850566
:102100006313D60075FA3305D6408280B7170040B6
:1021100003C777051377E70FA38BE704130700F8CE
:10212000A38DE7043D47238CE70413075003A38CDA
:10213000E70403C7A7051377D70F238DE704828031
:10214000371700408347E70412054111BD8BC98F43
:1021500093F7F70F93068008F3B6068093F6860888
:1021600036C601000100930670052300D7049306CC
:1021700080FA2300D704010001002307F70423009D
:102180000704B247F3A707800100010041018280E4
:10219000B717004003C7E7020D8941111377C70F36
:1021A000498F93068008F3B6068093F6860836C6F4
:1021B00001000100930670052380D704930680FA7E
:1021C0002380D704010001002387E702238007044E
:1021D000B247F3A70780010001004101828041114D
:1021E0002A830148930E407E130F0019930F400677
:1021F000B348030863EF1E0113030019337365022C
:102200008542FD4363F6B2088D4F214F930E400681
:10221000A1A07D13336EE3039308E016630E0E0056
:10222000336EF3039308D01663080E0093783300DF
:1022300093B818009388D816C29833C808084DBFC1
:1022400093F81500138EF5FF637CBF02F908C2985E
:1022500033C80808B3450E08E394F5FF8545630BC2
:102260000300B378D5038145638608009375350074
:1022700093B51500F105C29533C805088945E9BF36
:10228000B3881341C29833C80808B3450E089DBFF0
:102290007D16329879463307C70213D61700BE075A
:1022A0003348080832976146B3F6C60213068070B9
:1022B000B386C6023697A166F58F4207D98FB71647
:1022C000004003C7F60213770708D883908303C73B
:1022D000F60213770708E316E6FE9883B716004068
:1022E0004DCF1307800873370780137787083AC4E8
:1022F0000100010037170040930670052300D70442
:10230000930680FA2300D70401000100232A070363
:102310008346170393E60608A308D70223000704A1
:10232000224773270780010001001166371700401C
:102330007D16545B4C5FAD8EF18EE5FE93068008F2
:10234000F3B6068093F6860836C6010001009306B0
:1023500070052300D704930680FA2300D7040100F8
:1023600001005CDB8347170393E70704A308F70228
:1023700023000704B247F3A70780010001004101D1
:10238000828003C7F60213770708D883908303C7B8
:10239000F60213770708E316E6FE98837DD391B71C
:1023A00055714EDF86C7A2C5A6C3CAC152DD56DB32
:1023B0005AD95ED762D566D36AD16ECFAA8982C058
:1023C000EF00901C93078008F3B7078093F7870806
:1023D000BEC201000100B71700401307700523803B
:1023E000E704130780FA2380E7040100010003C714
:1023F000F7021377770FA387E70203C7F702136784
:102400008700A387E702238007049647F3A7078086
:1024100001000100130B80C1334B65039167938763
:1024200007E8130A30029546B347F502330A4B0317
:102430003EC8FD873ED2BD67938707A6334AFA029E
:102440001357FA413ACA330740413AD47D873ACC10
:102450001307A0FB3307EB02B347F7020567130727
:1024600007FA3ECEFD873ED6938729003319F70041
:1024700063E436013319370161671307076A33458F
:10248000E50213070010B317F0288D873EC4954767
:102490003309A9023349E902130740063309E90267
:1024A0001307D0073349E9021357F9413AD83317D4
:1024B00030290D873AC663E5374993075047B3077C
:1024C000F7023D67130707A6116C814A814B13047D
:1024D0008008371D0040930480FA7D1CB387670392
:1024E000B307F040B3C7E7023ED0FD873EDA73374B
:1024F000048013778708BAC4010001001307700530
:102500002300ED04930D0D0423009D040100010040
:1025100003473D051377870FA309ED0403473D05E6
:1025200013671700A309ED0423000D042647732742
:10253000078001000100930C700573370480137746
:102540008708BAC601000100930770052380FD00CB
:1025500023809D000100010003473D05136707022A
:10256000A309ED0403570D051317E7282318ED04FD
:1025700003570D051317F7282318ED0423800D00CA
:102580003647732707800100010003473D05137795
:102590000702630B073A03473D05218B6DDF880077
:1025A000EF00D0057337048013778708BACA01009B
:1025B000010023809D0123809D000100010003474D
:1025C0003D051377F70DA309ED0403473D05136798
:1025D0000702A309ED0403570D051317E728231875
:1025E000ED0403570D051317F7282318ED04238076
:1025F0000D005647732707800100010003473D0582
:10260000137707026309073603473D05218B6DFFEA
:1026100097E0FF1FE780E0382A873ADC97E0FF1F4A
:10262000E78020386257E30AE5FE03570D050645AB
:102630001317E7282318ED04EF00007E03473D053C
:10264000218B6DDF03570D0583462D05C247337778
:102650008701B386860313D6F641BA96B388F6404F
:10266000925733B7E60032971D8FD247B3B61601A3
:10267000158F63C6E700631CF700637A1A01E2470F
:102680006342F7326395E700A25763EDF83089465D
:1026900063FC76317337048013778708BAD0010062
:1026A0000100130770052300ED0423009D040100C1
:1026B000010003473D0593F6F90F1377870FA30930
:1026C000ED0403473D05558FA309ED0423000D04D8
:1026D00006577327078001000100130670050347A2
:1026E0003D051D8B631A37357337048013778708D0
:1026F000BAD401000100130770052300ED04230084
:102700009D040100010003473D051377F70DA30960
:10271000ED0403473D0513670702A309ED040357C2
:102720000D051317E7282318ED0403570D0513179C
:10273000F7282318ED0423000D042657732707807C
:10274000010001009306700503473D05137707025A
:10275000630E073003473D05218B6DDF8800792D1F
:102760007337048013778708BAD801000100130774
:1027700070052300ED0423009D04010001000347C0
:102780003D051377F70DA309ED0403473D051367D6
:102790000702A309ED0403570D051317E7282318B3
:1027A000ED0403570D051317F7282318ED04230034
:1027B0000D0446577327078001000100930670053A
:1027C00003473D0513770702630D072C03473D05BB
:1027D000218B6DFF97E0FF1FE780A01CAA8C97E07C
:1027E000FF1FE780001CE30C95FF03570D0506450E
:1027F0001317E7282318ED04052503473D05218B12
:102800006DDF7337048013778708BADC010001009D
:10281000130770052300ED0423009D04010001004F
:1028200003473D051377F70DA309ED0423000D04BD
:102830006657732707800100010003570D05834683
:102840002D05C25733778701B386860313D6F64129
:10285000BA9633B7E600329733882641B3B60601FD
:102860001D8F158F6346E000631807266306082650
:102870001305800C3307E5020256D256B335050323
:1028800033050503BA95EF70415B9306150033B528
:10289000A6002E951357F501BA9633B7E6002A978E
:1028A0001316F70185820587D18E6346E000631F0A
:1028B000072C638D062C0356CD021582B305D60076
:1028C00033B6C50032976348E0006310073613073C
:1028D000F00F637CB734094763715727930780086B
:1028E000F3B7078093F78708BEDE01000100B71732
:1028F0000040130770052380E704130780FA238044
:10290000E70401000100DA3789668116558F3347E5
:102910000708DAB723800704F657F3A707800100FA
:102920000100BE402E449E440E49FA596A5ADA5AB2
:102930004A5BBA5B2A5C9A5C0A5DFA4D69618280E7
:10294000224793075047A5BE733704801377870843
:10295000BAC80100010023809D0123809D00010071
:10296000010003473D0513670702A309ED04238017
:102970000D00464739B17337048013778708BACC06
:102980000100010023809D0123809D0001000100C2
:1029900003473D0513670702A309ED0423800D00DB
:1029A000664789B9E3980BCE7246B2569315170065
:1029B00013D3F80113951800B365B3003ADE46DC73
:1029C000EF70A1477257850B93FBFB0F6346E00046
:1029D00031EFE258638C08049306150033B5A60066
:1029E000AA9513D7F501BA9633B7E6002E978582DC
:1029F0007E07558FF336048093F68608B6CE010025
:102A0000010023809D0123809D0001000100835669
:102A1000CD023697334707082316ED0223800D00B9
:102A20007647732707800100010001BE9306F5FF7A
:102A300013351500898D75B77337048013778708B0
:102A4000BAD2010001002300CD0423009D0401003F
:102A5000010003473D05558FA309ED0423000D0434
:102A60001657732707800100010095B9733704805A
:102A700013778708BAD6010001002300DD04230084
:102A80009D040100010003473D0513670702A309E8
:102A9000ED0423000D043657732707800100010061
:102AA00065B17337048013778708BADA0100010033
:102AB0002300DD0423009D040100010003473D05C0
:102AC00013670702A309ED0423000D04565773276B
:102AD000078001000100EDB19305800C3387E5020A
:102AE00033850503B3B50503BA95154763733705F9
:102AF000A247130750473387E70233066041330686
:102B0000E6023D67130707A63346E6029356F641F1
:102B1000EF70A1321306F5FF13351500898D13D719
:102B2000F5013A963337E6002E979316F7010582A2
:102B30009DBBB247130750477DBF1307800873370B
:102B40000780137787083AC101000100B7160040DB
:102B5000130770052380E604130780FA2380E60438
:102B600001000100DA36056601161377F70F518F61
:102B700033470708DAB6238006040A47732707801D
:102B800001000100850A93FAFA0F95B233E6E600D8
:102B900049CE0356CD02B335D0003307E0400D8F48
:102BA0003305D04015826345E00041E3637FA6060C
:102BB0000947637E570393078008F3B7078093F7AD
:102BC00087083EC301000100B717004013077005D6
:102BD0002380E704130780FA2380E7040100010043
:102BE000DA377D8BDAB7238007049A473DB3733712
:102BF0000480137787083AC50100010013077005A8
:102C00002300ED0423009D04010001000357CD02C1
:102C1000856681161377F70F558F334707082316FC
:102C2000ED0223000D042A4791BF93078008F3B7F4
:102C3000078093F787083EC701000100B7170040DF
:102C4000130770052380E704130780FA2380E70445
:102C500001000100DA379606369733470708DAB7DE
:102C600023800704BA4755B9914763ECB704979797
:102C700001009387E7D4B3C5F52098413E97B71775
:102C800000409387470B0287944337170040B3F601
:102C9000A64094C39306070B9C42B3F7A74019A81C
:102CA000944337170040B3F6A64094C39306070B2E
:102CB0009C42C98F9CC29307070A98433377A74069
:102CC00098C38280944337170040C98ED9B7984380
:102CD0003377A74098C3B71700409387070A9843F4
:102CE000498FF9BF9843498FF5B7914763ECB70413
:102CF00097970100938707CEB3C5F52098413E977B
:102D0000B71700409387470D028794433717004059
:102D1000B3F6A64094C39306070D9C42B3F7A740B1
:102D200019A8944337170040B3F6A64094C39306FE
:102D3000070D9C42C98F9CC29307070C98433377B9
:102D4000A74098C38280944337170040C98ED9B7F3
:102D500098433377A74098C3B71700409387070C71
:102D60009843498FF9BF9843498FF5B719C537176D
:102D700000401E2FCD8F1EAF8280B71700409A2FC4
:102D8000B375B7408EAF8280B71700409A2793067D
:102D9000000C1377070C630AD7049A2713770710E0
:102DA0000DC79A279E277D8B09EB93F70720B1C3A8
:102DB0003755E80113050580828037C59812FD8BD1
:102DC000130505E03345F50282809A279E27137785
:102DD0000720FD8B11C73755E80113050580DDB7C6
:102DE0003725F40013050540F1BF2165130505D013
:102DF00082803725F40013050540828037E700E024
:102E00001C435443A183E206D58F1CC1FD572320E8
:102E1000F7182322F718828013178500B7E700E020
:102E200023A0E710618123A2A7108280B7F700E0FA
:102E3000884782803285814737370040A14663C387
:102E4000A70082803037E30FD6FE3386F5001022CC
:102E5000850710A7EDB797F6FF1F9386A654AA879C
:102E600088421727002013076799AA9763E9E700AC
:102E70000A87130707FC6364F7009CC282807D55B4
:102E80008280411122C406C62A84FD3D2947B3072A
:102E9000E502B2408D83B3D7870222449507B3D7AA
:102EA000E70237370040B3C707085EA741018280B9
:102EB000716541111305052006C6E137B73700409B
:102EC000130770F8B8A30D47B8B31307000498B3FD
:102ED0000547F8A7B240410182802386018423A4DC
:102EE0000184B71700401387070C14439387070D1D
:102EF0009396664914C394439396662994C31443E6
:102F0000BD9A14C398431367070198C3828023A412
:102F1000A18413064006894503C541856F30C13C35
:102F2000371700401307470C1C43B7064000F58FC6
:102F300014431387C1841023C18A13B5170091EA83
:102F400013652500630DA60008A383A7818481CBA8
:102F500082876306A60008A399E30545FDB7828032
:102F600011456FF0EFC3411193962500AA852D45B9
:102F700006C697D0FF1FE7808037B2400145410168
:102F80008280011122CC26CA939625002A84B2841D
:102F9000AA850146254506CE36C697D0FF1FE78095
:102FA0000035B2462686A285294597D0FF1FE780C7
:102FB0000034F2406244D24401450561828001112F
:102FC00022CC06CE3714004026CA4AC84EC652C488
:102FD00083447405034AB405834984050349940571
:102FE000EFF0CF928347A40593F4F40F137AFA0F0E
:102FF00093E71700230DF40493F9F90F1379F90FF0
:10300000B717004003C7A705058B6DFF03D5C7059C
:10301000A38D4705238C3705A38C2705A38B970425
:10302000F2406244D2444249B249224A0561828058
:10303000411122C406C62E849397556063DF0700B2
:1030400097E0FF1FE780E0CD19C1EF30C10D1315E8
:10305000F468B24022444101828093F7150013C501
:103060001500E5FB93F7250081CF5D3D1306000AAF
:10307000894503C54185EF30212713452400D1BF81
:103080008967ED8F85C3EF507179D93D37F602001E
:10309000130606E0896503C54185EF30E124131569
:1030A000D46845BF11656D8D4DD517950100130589
:1030B000A593EF70A17313060064916503C5418564
:1030C000EF3081221315E46869B71D714946979561
:1030D00001009385A59117A501001305A59186CE42
:1030E000A2CC97E0FF1FE780A0D201E9179501006D
:1030F00013050591EF70816F01A037F700E02324DD
:103100000700F9571CCB0564B7E700E023A0871040
:10311000BD4614C323A087180100010017E7FF1F55
:103120001307073123A8E184130700F8A38AE740B7
:103130001306C0038145480897E0FF1FE78020CAB7
:1031400097070020938707C03ECAA167938707E0CF
:103150003ECEB7070105938707103ED0ED472312F7
:10316000F10285472303F102970700009387E7DF09
:10317000BEC497070000938707E1BEC6930754D1EA
:103180002314F10297070000938787CA3EDAB7F548
:103190000700970700009387C7E23EDE8146970746
:1031A0000000938727DC7000E1051945BEC0E0846C
:1031B00097D0FF1FE780A01319466C001305E102AA
:1031C000EFE03FF1D24781C7BC8463F3870001A0E1
:1031D0004808EF30414DAA8501C917950100130534
:1031E0006583EF70013F01A0F6406644256182804F
:1031F0004111170500001305E5E306C622C4EF30B0
:10320000E1471384418508A01928C13908202244C8
:10321000B24013060032896541016F30E10C39710B
:1032200006DE13078008F337078093F787083EC24E
:1032300001000100B7170040930570052380B70413
:10324000130680FA2380C7040100010083C6F70239
:1032500093F6A60FA387D702238007049246F3A60E
:1032600006800100010073370780137787083AC48E
:10327000010001002380B7042380C704010001007E
:1032800003C7F70213672700A387E7022380070419
:10329000A247F3A70780010001000545EFE05FEFBB
:1032A000C131814701478146054685451305407E6A
:1032B000EFE0FFF2680013064002814597E0FF1F30
:1032C000E780E0B1B707C0A83ECAB787E803938795
:1032D00007D03ECC97E7FF1F9387A7983EC66800AC
:1032E00097E7FF1F938767993EC8EF30E158F25088
:1032F000216182804111979501009385E5891785A9
:1033000001001305257306C6EF70A12C1785010077
:1033100013054573EF70E12B2945EF70212FB24063
:1033200041016F20A0764111979501009385458357
:10333000178501001305057006C6EF708129130576
:103340000002EF70A12C2945EF70412CEF20116D88
:103350008567138707773376E502B240938787380E
:1033600003C5C185854541013E966F20F177411126
:10337000978501009385457D178501001305856BB1
:1033800006C6EF70012513050002EF7021282945BC
:10339000EF70C127B24003C5C185854541016F303B
:1033A0006109411106C6171700201307A7A65C374D
:1033B000F99B5CB7EF90A06E05E1EF20E00EEF20E7
:1033C000D048B2403726090003C5C1851306067CE4
:1033D000854541016F205171B24041018280411108
:1033E000978501009385C5781785010013058564CD
:1033F00006C6EF70011E2945EF704121B240410120
:103400004DB74111978501009385C574178501005B
:103410001305456206C622C426C24AC0EF70611B6E
:103420002945EF70A11EEF90806719E52244B24054
:10343000924402494101B5B797F4FF1F938484C0B9
:10344000BC48757471797D1423902701A2A317F5E8
:10345000FF1F130525C3EFC09057FC4417F5FF1F4E
:10346000130545C223900700EFC0D054BC5817F590
:10347000FF1F130525C323902701A2A3EFC03055DA
:10348000FC5417F5FF1F1305E5C123900700EFC09B
:10349000705217F5FF1F1305A5CC1C492390270177
:1034A000A2A3EFC0D05217F5FF1F130565CB5C45F3
:1034B0002244B240924402492390070041016FC068
:1034C000704F4111978501009385057017850100A4
:1034D0001305455606C622C426C2EF70810F294542
:1034E000EF70C112EF90A05B05E99785010093850D
:1034F000A56D178501001305E553EF70810D178544
:10350000010013052555EF70C10C2244B2409244CE
:10351000294541016F70810F13050002EF00F05340
:103520002A8405E1978501009385056A17850100C6
:1035300013054550EF70E109178501001305055388
:10354000D9B7A5471CB19307C0125CC1FD575CA554
:10355000EF00D04F08A0084CB705D4009385851A1A
:103560003105EF10403D084C0C203105EF20F04AAA
:10357000084C930500103105EF20704B044C056595
:10358000EF004072B104AA852685EF201049084C4F
:10359000930510123105EF209049084CC165FD15C7
:1035A0003105EF20D04822852244B24092444101A7
:1035B0006F00B05013F5150021C9411122C41785C1
:1035C0000100130525472E84978501009385C55674
:1035D00006C6EF7001002945EF704103EF90204CC3
:1035E00001C9C535B240134514002244410182800F
:1035F00017170020130707825C37F99B93E7170022
:103600005CB7EF10F06BF9BF82807971978501008C
:103610009385855A178501001305C54106D6EF60CD
:10362000517B2945EF60917E614681452800EFE09E
:10363000BFABEF00B041A547DC849307C0124884BC
:103640003EC60565FD57230AF100EF00C079EF90F3
:1036500000451DE5978501009385055617850100F6
:103660001305453DEF60F176178501001305853E92
:10367000EF6031762945EF607179B2504561828003
:103680002800EF005044D5BF411197850100938574
:103690006551178501001305E53906C622C4EF60A0
:1036A00051732945EF609176EF90603F1DE5978556
:1036B00001009385254F178501001305A537EF609D
:1036C0005171178501001305E538EF6091702244B0
:1036D000B240294541016F6071734145EF00F037F9
:1036E0002A8405E1978501009385C54B1785010064
:1036F00013054534EF60F16D17850100130505379B
:10370000E9B7A5471CB19307C0125CC1938701823A
:103710005CC9FD575CA5EF00703308A0084CB705E5
:10372000D4009385851A3105EF10E020084C0C2059
:103730003105EF20902E084CBD65A5053105EF2021
:10374000102F084C930530023105EF20102D2285F3
:103750002244B24041016F005036411122C4978586
:1037600001009385A5422A84178501001305852C45
:1037700006C6EF601166A285178501001305853026
:10378000EF6031652945EF60716885476309F40092
:103790008947630AF400B2402244410182802244F6
:1037A000B24041019DB52244B2404101F1BD011139
:1037B0003546978501009385A52D179501001305C2
:1037C000E58B06CE22CC97D0FF1FE78060640DE525
:1037D000978501009385853A178501001305852596
:1037E000EF60315F1785010013058521EF7001003F
:1037F0002945EF60B16101A097F7FF1F938787D438
:103800003EC434009317B0281386018397850100C6
:103810009385855E178501001305855F3EC6EF1011
:10382000F0722A840DC99785010093852535178587
:10383000010013052520EF60D159A28517850100ED
:1038400013050526EF60F1582945EF60315CF24021
:10385000624405618280EF80C00017850100130576
:10386000653CEF10A013EF40D075EFE0300A17F57C
:10387000FF1F1305258EEFE0007717850100130564
:10388000E535EFE0700A2A84EF10606DEFA0E031BB
:10389000EF00B128EF20F002EF103048EFC0D00E5B
:1038A000978501009385852D1785010013058518DF
:1038B00009C8EF601152A285178501001305852004
:1038C00051B7EF601151178501001305E521EF6035
:1038D00051502945EF609153EFC06071EF90201C6B
:1038E00029C5978501009385652917850100130572
:1038F0006514EF60114E1785010013056520EF6018
:10390000514D2945EF60915097850100938505271A
:103910001785010013050512EF60B14B17850100F3
:1039200013054520EF60F14A05B7A53CF1BF4111F1
:1039300017050000130545C806C6EF203154238E35
:10394000A18417F5FF1F1305A581EF001029853508
:10395000EFF0AFD817050000130565E0EFF02FDB9F
:10396000B240814505654101B1A64111978501002D
:1039700093850539178501001305C50B06C622C4BA
:10398000EF603145138421810E2017850100130556
:10399000652AEF6011442945EF6051470A20B24083
:1039A00022444101828039711C0822DC3EC22E84EF
:1039B000B7072000A16526DA9385E524AA843EC4D2
:1039C00048001C0806DE3EC6EF00F0760565713F34
:1039D000AA854800EF20B005978501009385052E44
:1039E0001785010013050505EF60B13E0E24722016
:1039F0001785010013054525A18193F5F507EF60B3
:103A0000513D2945EF6091401C340147814693F7B1
:103A1000F707D917B337F000B307F0403CA45000C4
:103A2000A2852685EF10601115C52A8497850100AF
:103A30009385C528178501001305C5FFEF6071390F
:103A4000A285178501001305A521EF60913829454E
:103A5000EF60D13BF2506254D25421618280411117
:103A600022C426C22A84AE8417850100130585FC72
:103A7000978501009385452306C6EF6091351305B0
:103A80000002EF60B1382945EF60513822852244A9
:103A9000B240A6859244410139B7797122D426D229
:103AA0002E84B284814561464AD02A89280006D6F0
:103AB000EFE08FE3EF008079A547DC849307C01225
:103AC0003EC64884EF208175930720033375F502C5
:103AD00097850100938505202AC8178501001305E5
:103AE00065F5EF60112F9C400E2483068400982317
:103AF0009C337220A181A2075D8F93F5F50717858E
:103B0000010013056517EF60D12C2945EF601130D6
:103B10009C4098239C33A207D98F2399F1801C34B1
:103B2000294793F7F7076385E700FD57230AF1005C
:103B3000831764006359F000FD57230AF1009307CF
:103B4000400602C83EC62800EF009000A2854A85C4
:103B5000993DB250225492540259456182804111DC
:103B6000978501009385451817850100130585EC9D
:103B700006C622C43284EF60D12513050002EF602F
:103B8000F1282945EF6091280565C5331C4098232D
:103B90009C33A207D98F6304F5002399F180B240CA
:103BA00022444101828039711C0822DC3EC22E84ED
:103BB000B7072000A16526DA3EC4AA841C089385B5
:103BC0004520480006DE3EC6EF00F056B71700401D
:103BD00083A5470C48009395C56893D5C548EF2049
:103BE000C06397850100938525191785010013058A
:103BF00065E4EF60111E0E24722017850100130585
:103C0000A504A18193F5F507EF60B11C2945EF608C
:103C1000F11F1C340147814693F7F707D917B337D3
:103C2000F000B307F0403CA45000A2852685EF00C9
:103C3000D07015C52A84978501009385E5131785F3
:103C40000100130525DFEF60D118A285178501005B
:103C500013050501EF60F1172945EF60311BF250A4
:103C60006254D25421618280411122C426C22A8426
:103C7000AE84178501001305E5DB97850100938568
:103C8000A50E06C6EF60F11413050002EF601118CF
:103C90002945EF60B11722852244B240A68592449F
:103CA000410111B7B717004083A7470C7D8D13352D
:103CB00015008280411126C2AE848D4522C406C6FD
:103CC0002A84EFF08F82B717004081C823A6870CA3
:103CD000B240224492444101828023AC870CCDBF84
:103CE0004111978501009385650B17850100130528
:103CF00065D406C622C43284EF60B10D13050002FC
:103D0000EF60D1102945EF6071101840B7170040DF
:103D100083A7470C0C239397C76893D7C74863873B
:103D2000F5002244B2400565410169B7B240224422
:103D300041018280797122D426D22E844AD08145D5
:103D40003289AA846146280006D6EFE0EFB9FD2942
:103D5000A547DC849307C0123EC64884EF20014C7F
:103D6000930720033375F5029785010093850502BB
:103D70002AC8178501001305E5CBEF6091050E24D5
:103D8000830684007220A18193F5F5071785010051
:103D9000130545FBEF60F1032945EF6031078327E9
:103DA000090005658C2339371C34294793F7F70739
:103DB0006385E700FD57230AF10083176400635908
:103DC000F000FD57230AF1009307400602C83EC6E3
:103DD0002800D529A2852685F933B2502254925461
:103DE00002594561828041118D4522C406C62A844C
:103DF000EFE0BFEFB71700409387870C9843B240BE
:103E000033458700224488C3410182800111354631
:103E1000978501009385C5C7178501001305052601
:103E200006CE97D0FF1FE780A0FE01E917850100AD
:103E3000130505FBEF60911B01A0EF40914E2AC6D0
:103E4000EF003110EF00216FEF60705BF240324500
:103E5000056182804111114506C6EFE06FAE130582
:103E6000503497D0FF1FE78040B5B7170040116767
:103E700023ACE70AC1450545EFE05FEF85452165C5
:103E8000EFE09FDE8D451165EFE01FDEEFF04F8222
:103E900017950100130505B6EF6051151785010050
:103EA0001305C51DEF609114EFF02FA2EFF04FB492
:103EB000B13FEFF0DFA797D0FF1FE78040DE01455D
:103EC00082804111B2862E86AA852D4506C697C0EE
:103ED000FF1FE780C041B240014541018280AE86AC
:103EE0000146AA85254517C3FF1F670043401D7182
:103EF00086CEA2CC9307000432C663E2C7022A84AE
:103F00000808EFE00F9DB2461008A285294597C02A
:103F1000FF1FE780C03DF640664425618280395529
:103F2000DDBF2E96178701001307C7FD6393C500F9
:103F300082809C21090585059183BA979C23230FD4
:103F4000F5FE83C7F5FFBD8BBA979C23A30FF5FE43
:103F5000F1BF411197850100938585061785010002
:103F6000130545AD06C6EF60C16613050002EF609C
:103F7000E169B240294541016F604169411197856E
:103F800001009385E501178501001305A5AA06C662
:103F9000EF60216413050002EF604167B2402945DC
:103FA00041016F60A166411197850100938505FE6F
:103FB00017850100130505A806C6EF60816113058A
:103FC0000002EF60A164B240294541016F600164C5
:103FD0004111978501009385A5FA17850100130506
:103FE00065A506C6EF60E15E13050002EF600162A1
:103FF000B240294541016F6061614111978501001F
:10400000938545F7178501001305C5A206C6EF6025
:10401000415C13050002EF60615FB2402945410138
:104020006F60C15E5C49411122C406C62A8491C7F3
:10403000DC4381C72E850C4882971C4CC84BEF206F
:10404000810E1C4CB240224423AA07004101828009
:104050004111328506C622C426C22E844AC0EF20F2
:104060002026AA8497850100938585F41785010091
:104070001305459CEF60E1550307840072204E2034
:10408000A68617850100130565DCEF60815429457C
:10409000EF60C15717040020130484CB17090020D8
:1040A000130909D11C20639A9700814522859D3F01
:1040B0004C2C03C5E185EF20E13713040402E31320
:1040C00024FFB240224492440249410182801D7182
:1040D000A2CCCAC886CEA6CACEC6D2C417040020B7
:1040E000130404C75C2C2E89ED8FC9E78347C403F2
:1040F000ED8FD9E38347C4050145ED8FA5C78947F7
:10410000139A57001C103EC4B70720003EC697E91B
:10411000FF1F9389E9041C103EC883A7C90002CA87
:1041200002CC02CE9E23B3044401984CFC83FD775D
:10413000FC845C4BA1E797850100938525DF1785FB
:1041400001001305258FEF60C14817850100130595
:10415000A5D2EF6001482945EF60414B5294482CAD
:104160003345A900F6406644D6444649B649264A36
:1041700025618280814769B7854759B79C30A5552D
:10418000B1CBFD17122B4C479CB0DC242800230F29
:10419000F100EF20A0064E852687938681823000AD
:1041A0004C08EF009019AA8955D99785010093858D
:1041B000E5D7178501001305E587EF608141CE85BE
:1041C00017850100130505CCEF60A1402945EF607C
:1041D000E143D5552685B93551B79C4DDC4B99C780
:1041E000D041CC2D03C5E1856F20011082801C4E8B
:1041F000DC4BA1CF411126C206C622C4AE84A9C1A0
:1042000097850100938545D61785010013058582A2
:104210003284EF60013CA685178501001305C5C8EF
:10422000EF60213B2945EF60613E4C2C2244B240B7
:10423000924403C5E1851306400641016F20C10A7F
:10424000B240224492444101828082809387D1858A
:1042500088231307150098A382809707002093876F
:1042600027AF984F411126C2584B06C622C44AC0F8
:10427000AA8421C3985F584B1DCFB84F584B1DE3FC
:10428000094716073384E70026850329840197D060
:10429000FF1FE780E0A21C4C232AA9002285A6ABC1
:1042A000DC4B91E30145B240224492440249410172
:1042B00082800147F9B70547E9B710454C2D03C582
:1042C000E1856F206102411126C2AA84414506C6DC
:1042D00022C4613705E9978501009385A5C7177545
:1042E000010013052575EF60C12E17750100130538
:1042F000E577EF60012E2244B24092442945410106
:104300006F60C1306146A6852A84EFD09FDC084CDF
:10431000B705D4009385851A3105312D084C8C20C2
:104320003105EF10906F084C930500103105EF1028
:104330001070044C0565EFF0FF96B104AA85268540
:10434000EF10B06D22852244B24092444101B5B7CE
:10435000411126C2AA84414506C622C4FD3D05E995
:1043600097850100938585BD177501001305856C40
:10437000EF602126177501001305456FEF60612579
:104380002244B2409244294541016F602128614690
:10439000A6852A84EFD0FFD3084CB705D4009385B7
:1043A000851A3105492B084C8C203105EF10F06639
:1043B000084C930510123105EF107067044C056529
:1043C000EFF0AFDAB104AA852685EF10506622859A
:1043D0002244B24092444101CDB515713707B19CDA
:1043E00086CF970700209387E7A2A2CD1307871AED
:1043F00098C337770098130727B9D8C337576C1479
:104400001307479598C7881013078021D8C7EF0076
:10441000C15EB777929C938707B011464C00281075
:104420003EC2EFF01FB0978501009385E5A90818FB
:10443000EF60613C194697850100938525BF130500
:104440001103EFF01FAE978501009385E5A71305D3
:10445000D103EF60413A414697850100938565BDE0
:104460001305E103EFF0FFAB130660032C10881077
:10447000EF00615F8547630CF50897850100938520
:10448000A5A9177501001305E55AEF60811417857A
:1044900001001305A5A3EF60C1132945EF600117C3
:1044A000EF10D1579386D1859C22135785002A9708
:1044B000BA9713570501BA976181AA979CA217076B
:1044C00000201307E78E970700209387678898CF0F
:1044D0000547D8AF170700201307478F98DF094714
:1044E000238EE7021707002013070790B8CF1705A0
:1044F0000000130505BE1147238EE704EF200118C5
:10450000FE406E44238FA18401452D6182802A8460
:104510008C102800EF00415B630185029785010044
:104520009385859F177501001305C550EF60610ADB
:10453000178501001305059BB9BF41462C001705DF
:1045400000201305258CEFD0DFB899BFEFD2DFB381
:104550002A8408452E89B28909C900C1970500003F
:104560009385C5736105EFF0306E81447D5AEF107D
:10457000000463C3A4048144EF10600463C6A40470
:10458000970700209387078A9C43DC47B307F940CD
:1045900091872302F400638109048327C900B307CC
:1045A000F4409587A302F4001C4C89C79C4799C32B
:1045B000228582976FD09FB05C44139714008504C6
:1045C000BA972390470165B71C48139714008504D8
:1045D000BA97239007004DB7832789000547B30793
:1045E000F4409587A302F40083570400638EE7022A
:1045F0008DC309476384E7040D47E397E7FA97877C
:104600000100938767F61CCC978701009387C7F654
:1046100011A8978701009387A7BC1CCC978701003E
:10462000938707BD5CC849B797870100938747A860
:104630001CCC978701009387A7A8EDB79787010047
:10464000938747F71CCC978701009387A7F7D9BFBB
:1046500085E1EFD21FA50046184483479400758377
:104660009D8B6315F700EF00B01948C46FD0BFA54C
:104670008280EFD27FA113893500C16442094111C4
:10468000AA890144F11413590901054A2EC6EF0005
:104690001072B2456346A400014541016FD01FA2CC
:1046A00083A7090013171400BA9783D707006388FC
:1046B000B7006394970063742A010504C1BF0545E0
:1046C000E9BFEFD29F9BAA892E89328BB6843A8AA2
:1046D000BE8AEF80C03C4DC12685EF10102E8D475D
:1046E00063E5A7007D556FD0DF9C83DB4400EF00BE
:1046F00010722A84EF00F07293077400314433057E
:10470000850263C5A702EF009070EF0050702A8405
:10471000EF0030719307740031443305850263CD97
:10472000A702EF00D06E9307450019A8EF00706F45
:10473000330585021307F0179307C017E357A7FC4B
:104740002D55E3C277FB63000B02D6865286A68501
:104750004A85EFE0D05041BFEF00B06C33058502D1
:104760009307C5FFF1BF832749001385C90083D58F
:104770002700013779F9BDB76955B5B797F7FF1F1E
:104780002394A76A97F7FF1F9387C76990438147D0
:104790000C463307F500420741836393B7008280DC
:1047A0005446139847008507C2962390E600D5B774
:1047B00097F7FF1F938707679C4303C58700828095
:1047C00017F5FF1F035545668280EFD29F8DC167A5
:1047D0001387D7FF6307E5026368A700F117630E2D
:1047E000F50001456FD03F8E1387E7FF630EE500AC
:1047F000FD171D8D13351500F5B7EF4000357D15FC
:10480000D5BFEF408012E5BFEF40E010CDBFEFD243
:104810005F894111AA8401442EC6EF00505AB24567
:104820006346A400014541016FD0FF899C481315E0
:1048300014003E9583570500E387B7FE0504E9BFE2
:1048400003485500814693F7F60F63E5070181475A
:104850003E858280584593975600BA9703D7270024
:104860006316B70003D70700E304C7FE8506E1BF60
:104870008346450001479377F70F63E4D7008147EC
:1048800011A81C45131657000507B29703D6070059
:10489000E313B6FE3E858280EFD20FFF931705012A
:1048A000C18797FAFF1F938AEA576353F00883A7DB
:1048B0000A00C0479C4703570400198D42054181F7
:1048C0006366F500014422856FD04FFF12052A94DC
:1048D000DDBFDC4713944900014A3E9483474400FE
:1048E0006341FA02014A834754006346FA0285098C
:1048F000C20993D9090183A70A009847E3EBE9FCB1
:10490000D1B71C4413195A00A6853E994A85013730
:1049100009ED050AE1B75C4413195A00A6853E99D2
:104920004A85F53519E1050A7DBFE30209FC61BF3F
:10493000AA848149C9B7EFD2CFF61C452A8481E702
:104940009307C5001CC51C44231204001CC0930718
:10495000F00F63E9B70093F5F50F2285EF10F00B28
:104960006FD06FF693940501C167C18063F7F500BE
:10497000A6852285EF10100EE5B7C18193F5F50FDE
:104980002285EF109009A6852285EF10500AC9BF35
:1049900097F7FF1F93870749884382801C4599C773
:1049A00097F7FF1F23A0A748014582807D5582808D
:1049B00097F7FF1F9387074798438347450048476A
:1049C00092073E958280EFD2CFED617100451C18B1
:1049D0003EC6B70780013EC81C183ECA8357440034
:1049E00002CE02D002CC231EF100834784002A8924
:1049F00002D22301F1023C083ED402D6553F835730
:104A000005002316F102EF30D0632307A1025C40BA
:104A100003556400F18313F717008347F102520531
:104A20005181F99BD98FA307F102EFE0B01439C58A
:104A3000AA8403550500EF80600783D704002AD2BB
:104A40006800231CF10083D72400231DF1001C48BB
:104A500003D647008C43EF10607A8347B400CA86C0
:104A6000177601001306465E8117A305F4006C005B
:104A70004810EFE0D01E5D616FD0EFE42155E5BF37
:104A80001C45B1CF03C5A700894613576500630BCA
:104A9000D7028D46630ED70285466300D7021307FF
:104AA00040063305E50203C7B700418B15CB83C72A
:104AB000B700BD8B3355F54082801375F50313079E
:104AC000803EC5B709671375F50313070771D1BF9A
:104AD000372709001375F5031307077CD9B701457C
:104AE0008280EFD20FDC03A98500630409048347A9
:104AF000B900AE8493F7070E91CF03459900930553
:104B000020030D810505B305B50288446105EFF06A
:104B1000D01F05A02E85AD372A8401CDD521832550
:104B2000C900B307B54063F887002E94B305A440CD
:104B3000E9FD6FD04FD98545C9BFEFD28FD62A8402
:104B400003D50500011132C636C43AC22EC002CACE
:104B500002CC02CEEF70907582452ACA22852ECCF7
:104B6000813D03570500231EE100EF30904DA24622
:104B700032469247230FA10036874C08B286228521
:104B80000146EFF01FB405616FD0EFD3EFD26FD1C4
:104B900061711C183EC6B70780013EC81C183ECA8A
:104BA0003C0800453ED4AA8402CC02CE02D002D2F8
:104BB00002D6FD3B8357050035592316F102EF302D
:104BC00050482307A10209C48357440091E72159A3
:104BD0004A855D616FD02FCF035564005205518126
:104BE000EFE040792A8965D58347B40093F7070E33
:104BF00089C713058401EFF0D01283574400231EA8
:104C0000F100834784002301F1025C400355090051
:104C1000D98313F7070883471102231CA10093F7D8
:104C2000F707D98FA300F10283572900231DF10054
:104C30005C40F18313F717008347F102F99BD98F8A
:104C4000A307F102EF7090662AD251D183479400F6
:104C50006800139757008347B400FD8BD98FA305D5
:104C6000F4001C4803D647008C43EF102059A68758
:104C7000177701001307473D740005464C10268541
:104C8000EFF03FA42A8929D58347B400A685FD8B80
:104C9000A305F400B9352DBFEFD2AFC0832485FE44
:104CA0002A8441112685EFF0BFDD834734FF93F757
:104CB000070E9DC32AC62685EFF0FFD019C983478A
:104CC00034FFB245FD8BA309F4FE81C52285EFF0C8
:104CD000D00341016FD02FBF6DDD8327C4FF268530
:104CE000829765F9834734FF93F7070E81C72285C2
:104CF000EFF03003032584FE513DE1BFEFD26FB7E3
:104D00009C4141112A8903C7070089472E84935685
:104D10006700638CF6020D466382C6049307F007B2
:104D20006302F7022E85EF10A059AA848149C16B56
:104D3000130C490097F7FF1F9387C70E9C439847B2
:104D400063ECE90241016FD08FB603D74500854778
:104D5000E3FAE7FE2E85EF10805AC1BF03D7450066
:104D6000E3F2E7FE2E85EF10A055AA842285EF100E
:104D70008056C204C98C5DBFDC470355A900139A55
:104D800049003E9A93170501C187635DF000835780
:104D90000A006395A70263E574038327CA00034DE5
:104DA0005A001DA0A1672167A98F1307F7EFE374CD
:104DB000F7FE63950900EFF05FA171FD85099DBFC6
:104DC00083278A00034D4A00835DA90003576900C9
:104DD000216A138BC7003AC6814A33CA4D01631E4C
:104DE0005D0197F7FF1F938767049C43E1DBA28671
:104DF0006286814526858297D1B7A1679387F7EFB1
:104E0000930C4BFF63F04703B2455A85EFF07F8662
:104E100019CD03278B00104719CA10436380C402C1
:104E20003107D5BFEE856685EFF07F9E71FD9386D5
:104E30001A0093FAF60F130B0B0255B78356440072
:104E40005C43E3EDF6F622853AC6EF106036A167C3
:104E50009387D7042A8A035D4400324763E89700AA
:104E60008347D90093E707F8A306F9001C47668536
:104E70002286E2858297C1670844FD17337AFA00DB
:104E8000529508C02312A40115BF97F7FF1F9387FF
:104E900067F99843814715C31447814763FFD500DD
:104EA000939745004C47BE9519C903C755008147E4
:104EB0006375E600DC451606B2973E85828003C71F
:104EC00045008147E37BE6FE16069C45F5B7EFD229
:104ED000AF9BAA892E8A814497FAFF1F938A8AF48E
:104EE00083A70A00984763E4E4006FD02F9DDC4756
:104EF0001394440001493E9413BB140083474400BB
:104F0000634BF900014913BB140083475400634FFE
:104F1000F9008504F1B70844931759005287DA86DF
:104F20000146A2853E9582990509C9BF4844931759
:104F300059005287DA860546A2853E958299050971
:104F4000E9B7EFD20F96814517F5FFFF13054560CE
:104F500097F7FF1F239A07EC9D3F6FD0CF9697F7E7
:104F6000FF1F938727EC9C4399CBEFD28F9381450A
:104F700017F5FFFF1305C55D993F6FD0CF94828071
:104F8000EFD28F9041112315E1002E89B284B689AA
:104F90003A8681460147ED452A84EF1011452AC61D
:104FA0001DCD0356A100CE85EFD0AF92CA852285D4
:104FB000EF10D158058915C1228501462C00231414
:104FC0009100EF1071662A8409C5ED452800EF10A5
:104FD000F150228541016FD06F8E4944FDB7655471
:104FE000CDBF5C41FD175CC18280EFD28F8BEF108B
:104FF000412995473305F50281450D816FD0AF8C6E
:10500000EFD22F8AEF10E12795473305F5020D8186
:105010006FD06F8BEFD2EF8803550500EF10911D15
:105020006FD06F8AEFD2EF87035505003287AE86C7
:1050300017D6FF1F0356A61997F5FF1F938545DF67
:1050400081376FD04F88EFD2CF85EF40B13A6FD024
:105050008F87EFD20F8597F5FF1F938565DDEF10E2
:10506000516401456FD02F86EFD2AF83814517D5AC
:10507000FF1F0355C511EF1011566FD0CF84EFD22B
:105080004F8297F5FF1F9385A5DBEF1091610145D6
:105090006FD06F83EFD2EF80814517D5FF1F035587
:1050A0000515EF1051536FD00F82EFC29FFF2E8571
:1050B000EF60004EEF6090036FD0EF80EFC27FFE95
:1050C000EF60B00D6FD02F805C49E1175CC95CC503
:1050D00083572501A1072319F50083570501A1076F
:1050E0002318F5008280F1473305F50297F7FF1F7B
:1050F000938707D79C433E9582808D476317F606BA
:1051000003D74600854763F2E706EFC29FF936856D
:1051100036842E89EF10C01A39C183574400931486
:105120000501C18063ED97022285EF106019FD141F
:10513000231294009307A002630EF5009307B002B8
:105140006301F50293079002631BF5002285EFC00F
:10515000B07131A00146CA852285EF80E0046FC09E
:105160009FF62285EF007056DDBF828097F6FF1F05
:10517000938646CF9C42014599CF9843D44217F677
:10518000FF1F2321E6CE6396D70097F6FF1F23ADBE
:10519000E6CC1385C7FE8280EFC2BFF0C9267144FA
:1051A000330585029145EF70405801E565556FC0A4
:1051B0009FF197F7FF1F23A3A7CA55263305850242
:1051C0009145EF7080567DD197F7FF1F23AAA7C89E
:1051D000792697F7FF1F239DA7C6512697F7FF1F34
:1051E0002399A7C697770100938747EB17F7FF1F0F
:1051F0002324F7C697070000938747ED17F7FF1F93
:10520000232AF7C4014565B7EFC2BFE9AA8517F5A0
:10521000FF1F1305E5C3EF10801E6FC0DFEAEFC26A
:105220005FE8DD37EF10201F97F7FF1F938787C3D5
:105230009C4381CF1387C7FE09CB83D5C7FF17F5E2
:10524000FF1F1305A5C2EFF0402C6FC0DFE7EFC2D0
:105250005FE5EFF0BFF111C9834785002A8493F71A
:10526000070491E70355E5005D3F6FC0DFE5834725
:10527000C5009304450117F9FF1F1309A9BE85E373
:10528000832709005CC997F7FF1F23AD97BC8327CD
:105290004900E1FF97F7FF1F23A897BCF9B7FD1757
:1052A0002306F5006105EF6000758307840063C97C
:1052B00007048347840093E707F82304F400EF0012
:1052C000F1754205A94741813375F5028347840092
:1052D00093F707FCC98F2304F4008347D4003E955D
:1052E0001C402318A40089CF984319CB8347C400DE
:1052F0005040814585073305F502420541810297FB
:10530000832709005CC897F7FF1F23AD97B4832755
:10531000490089E797F7FF1F23A897B48347C40084
:10532000A9D78355040117F5FF1F130525B4EFF026
:10533000C01D25BFEFC2FFD697F7FF1F938747D841
:105340009C4701448583858B81EFAE84B2853A8684
:10535000EF10C0112A8409C5EF10C008829408CC50
:1053600022856FC05FD6EFC23FD241112E8932C66F
:10537000AA89712C324713060502CA8697050000D8
:105380009385A5D617F5FF1F130585ACEFF09FFA9F
:105390002A8429CD9304C50065261946AA85268549
:1053A000EF00D06585452685EF00B06217750100D6
:1053B000130585CC4E95834505002685EF00F065E5
:1053C0005C4831468145A1075CC85CC48357240111
:1053D000E1172319F40083570401E1172318F4009F
:1053E0001C4C3E85EFC05FD0A304250122854101FE
:1053F0006FC0DFCCEFC2FFCA4111AA842EC632C4EF
:10540000EF10A000004DB2452246834784000CC037
:1054100050C093F7F70393E707042304F40023181D
:1054200004002685EF00107C83479400A9462317CB
:10543000A40013D7370005073307D7029D8B8507D4
:105440002306F400A306E40083C70401D8488507B7
:10545000230FF7FE17F7FF1F1307C7A05843232A90
:105460000400930744011DEB17F7FF1F232EF79E3F
:1054700017F7FF1F2328F79E17F4FF1F1304049F3D
:105480002285EFE0107E1C44858B5D8D09E581450A
:105490002285EFF0800741016FC0FFC21CC317F7E0
:1054A000FF1F2323F79CC9BFEFC2BFBF97050000B2
:1054B0009385E5C40145EFF05FBF01456FC0BFC0F4
:1054C000EFC23FBEEFF09FBF6FC0FFBF8347C50075
:1054D000A1E7EFC21FBD2A840355E500EFF0DFD23C
:1054E00015C98347840093F7F7FB2304F4001C409D
:1054F00091C7DC4381C74C4001458297EFF01FC73D
:1055000017F5FF1F13058596EFF0A0010355E40082
:10551000EFF0FFD06FC03FBB8280EFC29FB897F71C
:10552000FF1F9387279497050000938585D217F571
:10553000FF1F1305A59323A0070023A20700EFE098
:10554000B0706FC05FB81C4D91CBDC4381CBEFC214
:105550005FB58345070082976FC0FFB6828097F7DB
:10556000FF1F9387E7929C4303C50700828097F74C
:10557000FF1F9387E7919C4303C51700828097F72D
:10558000FF1F9387E7909C4303C52700828097F70E
:10559000FF1F9387E78F9C4303C54700828097F7DF
:1055A000FF1F9387E78E9C4303C53700828097F7E0
:1055B000FF1F9387E78D9C4303C55700828097F7B1
:1055C000FF1F9387E78C9C4303C56700828097F792
:1055D000FF1F9387E78B9C4303C57700828097F773
:1055E000FF1F9387E78A9C4303C58700828097F754
:1055F000FF1F9387E7899C4303C59700828097F735
:10560000FF1F9387E7889C4303C5A700828097F715
:10561000FF1F9387E7879C4303C5B70011E11D4532
:10562000828097F7FF1F9387A7869C4303C5C70017
:10563000828097F7FF1F9387A7859C4303C5D700F8
:10564000828097F7FF1F9387A7849C4303C5E700D9
:10565000828097F7FF1F9387A7839C4303D5070199
:10566000828097F7FF1F9387A7829C4303C527017A
:10567000828097F7FF1F9387A7819C4303D547013B
:10568000828097F7FF1F9387A7809C4303D567010C
:10569000828097E7FF1F9387A77F9C4303D58701ED
:1056A000828097E7FF1F9387A77E9C4303C5A701CE
:1056B000828097E7FF1F9387A77D9C4303C5B701AF
:1056C000828097E7FF1F9387A77C9C4303C5C70190
:1056D000828097E7FF1F9387A77B9C4303C5D70171
:1056E000828097E7FF1F9387A77A9C438857828021
:1056F00097E7FF1F9387C7799C4303D5C702828032
:1057000097E7FF1F9387C7789C4303D5E70219E10A
:105710001305800C828097E7FF1F938767779C4370
:1057200003C50703828097E7FF1F938767769C4333
:10573000C85B828097E7FF1F938707758843828045
:1057400097E7FF1F938787748843828019E17D550F
:105750008280F5DE984265DFFDD917F7FF1F13073A
:1057600027961847AA877155058B6316072203C52C
:1057700007001547E37DA7FC03C737001305F005B5
:105780007D171377F70FE364E5FC03C35700E300CD
:1057900003FC83C86700E38C08FA03C77700494518
:1057A00079171377F70FE364E5FA03C7A7001148E9
:1057B0001305F7FF1375F50FE36BA8F803CE9700F9
:1057C0000D481305FEFF1375F50FE362A8F803C833
:1057D000B7006309080065181378F80F1305600D0A
:1057E000E36705F703C5C700794879151375F50F09
:1057F000E36FA8F403C8D7000D457D181378F80FA0
:10580000E36705F503D80701930E401751184208C6
:1058100013580801E3ED0EF303C8E7007D18137871
:10582000F80FE36605F303C827017D181378F80F16
:10583000E36F05F103C88700C54E75181378F80F9C
:10584000E3E70EF103D86701856E938EBEE06D1815
:10585000420813580801E3EC0EEF03D847016D1816
:10586000420813580801E3E40EEF03D887017918C2
:10587000420813580801E36C05ED03C8A7017D1821
:105880001378F80FE36505ED03C5B7011D487D15D5
:105890001375F50FE36DA8EA03C5D70171487915B3
:1058A0001375F50FE365A8EA03D5E7011308E00FC8
:1058B0007D1542054181E36CA8E803C5070249480C
:1058C00079151375F50FE364A8E883AE470237C571
:1058D00034001308F5BFE36CD8E703A8870213056B
:1058E00055BF5918E36505E717E5FF1F2320C55A83
:1058F00003C6050117E5FF1F232CF5580545E3787E
:10590000C5E403D82501D04933760603E31106E444
:1059100003C61501E30D06E217E6FF1F2326B65660
:1059200083C5270001466387A50003C61700F1451C
:105930003306B60283C707039305C00272971A079E
:105940001307C70516031A9796084697B387B70239
:1059500041553E97329742074183636EE802EFC29A
:105960004FF43685EF609066EFD090152A84EF8073
:10597000F0132A94EFC070192A94EF60107E2A94D5
:10598000EFF09F812A94EF2050612A94EF50A0629B
:1059900022956FC04FF38280EFC2AFF04111A30791
:1059A000A100EF80C0149305F10017050000130556
:1059B000C5B9EFF0CFD1014541016FC0CFF0EFC2C3
:1059C000CFEB17E4FF1F1304A46F03288400795959
:1059D0009368180097E4FF1F23A8146F137818002A
:1059E000631E0800BA84BE89368B328A2E89AA8A41
:1059F000EFE01FDC7D15269509E531594A856FC01A
:105A00004FEBEFE0FFDA7D152695A167E357F5FE32
:105A100097F7FF1F938787A198433E8C814B11C74F
:105A20000145EFC09032933B15004A85DA865686D1
:105A3000D285EF70B02D2A8911CD1C44F99B17E750
:105A4000FF1F2323F76883270C00CDDBE3880BFAC5
:105A500082976DB7268597E7FF1F23A50766EFE0BE
:105A6000FFD14146CE8517E5FF1F1305E56EEFC058
:105A70004FE6EFA0A07E0325040BEFA0B000054584
:105A8000EFA0B0060545EFF03FF18DBF97E7FF1F90
:105A9000938707639C47858BD5C7EFC28FE017E5D7
:105AA000FF1F1305A56997E7FF1F23AB076097E763
:105AB000FF1F23A9076097E7FF1F23A70760EFE0F9
:105AC0005026EF400000EFE0A07DEFE0300297E7C6
:105AD000FF1F9387675D9C4381C70545EF60702A70
