:040000006F30906C61
:100004000000000000000000A00000200A080020FA
:10001400A9BDF9F3FC01002000000000000000006D
:10002400FC010020A00000200000000000000000EF
:10003400A000002000000000A0000020000000003C
:10004400A0000020A0000020A0000020A0000020AC
:10005400A000002088080020A0000020000000006C
:10006400A0000020A0000020A0000020A00000208C
:1000740034090020A0000020A0000020A0000020DF
:10008400A0000020A0000020A0000020A00000206C
:10009400A0000020A0000020A0000020A00000205C
:1000A40001A0B7170040984B41111367070198CB83
:1000B400982B1377E70F98AB1307800873370780E3
:1000C400137787083AC60F100000130770052380C2
:1000D400E704130780FA2380E7040F100000B847F1
:1000E400B70600069506558FB8C703C7B70413773C
:1000F400F70DA385E704B82713672701B8A71307EB
:1001040050149AA7372700408346578093F6F60E7B
:10011400A302D7808946A303D78003C7E7041377D4
:10012400C70F136717002387E70403C7F702136792
:100134002700A387E702982B1367170098AB238047
:100144000704B247F3A707800F1000004101828023
:10015400EFF03FF513050020970500009385450A4D
:1001640017460000130646D663FAC500832205002D
:1001740023A0550011059105E3EAC5FE177502E0B9
:100184001305C55F97450000938505D41386018642
:1001940063FAC5008322050023A0550011059105CB
:1001A400E3EAC5FE1385018697650000938585F50E
:1001B4006377B500232005001105E36DB5FE9302B6
:1001C4005002739002BC8D427390428085427390BA
:1001D40012BC93028008739002309702000093824D
:1001E40062E293E2320073905230975200E09382BD
:0C01F40082D7739012347300203000009A
:100200009305000273A04580824573901534924097
:100210002242B2424243D2436244F24402559255D2
:100220002256B2564257D2576258F258064996495A
:10023000264AB64A464BD64B664CF64C065D965D52
:10024000265EB65E465FD65F0961730020302303E9
:10025000048015472303E48001002302A4808280E8
:1002600083076480E3CE07FE230304808280830734
:100270006480E3CE07FE0345448082808307648068
:10028000E3CE07FE2302A4808280411126C44AC225
:100290004EC006C61377F50BAD47AA892E89954443
:1002A0006306F70019456537653F8D444E85453730
:1002B000FD59FD1463983401B240A24412498249A9
:1002C00041018280135509011375F50F453F22093D
:1002D000CDB7011126CC06CEB7040800513715451D
:1002E000BD37713769372AC6A53F32459377150068
:1002F00089EB136515001375F50FF240E2440561B3
:100300008280FD14E9FC0145CDBF397126DC4ADA53
:100310004ED852D656D45AD25ED006DE62CE66CCC5
:10032000B7E700E07D5783AA070022C603AA47006B
:1003300023A0E71823A2E718B7170040130770059A
:100340002380E704130780FA2380E70483C7470468
:10035000930B75FFB684E20793FBFB0F8546AA89D2
:100360002E8B328937240040E187015763FA7601EA
:100370006308D5008946130700026313D5000157AF
:10038000D98F93F7F70FB71C00402382FC04114765
:100390002303E4801305F00F5D3D094CD135636DF7
:1003A0007C11B7050700DA9537870700795563F2A6
:1003B000E504B3879500636EF702370B0800A94781
:1003C00033EB65016399F90689E48144513D268543
:1003D0000DA0DA850945553D05090345F9FFFD14D2
:1003E000050B693D81C49377FB0FFDF7DD3569FD92
:1003F0007D55B7170040130770052380E7041307E6
:1004000080FA2380E70403C74704418B2382E70473
:10041000F250B7E700E023A0571123A24711E2549E
:1004200032445259C259325AA25A125B825B724C00
:10043000E24C21618280A5476395F906856913091D
:10044000F00FB3069900B3742B01B6941349F9FF6A
:10045000B3749900856B33796901416B9387F9FF18
:10046000B3F7270199E363FC340193D94900C147ED
:10047000E3E637FF99BF0569C1697D19D9B713054F
:10048000800D6388690113050002638479011305F7
:100490001008CA85DD3B353D21DD4E99B3843441DA
:1004A000D9B7DA852D45D533CA94E30099F2050909
:1004B0007D3BA30FA9FED5BF9387F9FF93F7F70FF5
:1004C0006361FC0C83C71C0413073008631FF70427
:1004D00037070800636BEB04B3079B00B7061000F7
:1004E00063F5D704334BEB0089476393F9068980A2
:1004F000D549E38C04ECDA850945413B1109032712
:10050000C9FF91472320E48003076480E34E07FE80
:1005100023033481FD17EDFBFD14110B81C4937788
:10052000FB0FE9FF7D3371F5E1B5B717004003C755
:100530005704B70708001377070219E3B7870700C6
:100540007955E378FBEA33079B00E3FFE7F855B5FD
:100550008547E382F9F2DA852D45053B9389F4FF5F
:10056000E38504E6293393F7390091EB8326048071
:100570000327090093074900E39AE6E43E89CE8405
:10058000F1BFB5476396F9001305900BC93135BD2E
:10059000B1471305B00AE38BF9FE99476391F9045B
:1005A000B7050800B365BB002D45C53181448D4BAF
:1005B000A149753963967401832704802320F900CB
:1005C0008504E39834FF8327048013172B016355B8
:1005D00007002312F900D5BB2322F900FDB39D4784
:1005E0006399F90281451305B0044531BD442320C8
:1005F000090023220900FD599D3993F77400CA9719
:1006000003C70700FD14398D2380A700E39634FF4C
:100610006DBBA1476392F9046D398144630D0B00F2
:100620008D479304C0036308FB0093040005630433
:100630008B01930440041375C507E30895D8194549
:10064000393139390545213126850D3909453D3185
:100650004931E31C05D669BB91476399F90013053D
:100660006006F536F53E130590090DB7E38F09D402
:10067000F154A9BBB7170040984B4111136707010C
:1006800098CB982B1377E70F98AB13078008733735
:100690000780137787083AC60F100000130770050C
:1006A0002380E704130780FA2380E7040F1000007B
:1006B0001307000C6315E5029A271367070C9AA726
:1006C000B7170040982B1367170098AB23800704D7
:1006D000B247F3A707800F10000041018280B827BE
:1006E00093760520ADCA118B29E303C7E70403C63F
:1006F000E7041377F70F136636002387C704B02784
:1007000013664600B0A792278E273346060893E566
:10071000050C8EA7A5470100FD1793F7F70FE5FF1E
:10072000B717004092A72387E70493770510DDC32E
:10073000371700403C2793E707013CA79377F50163
:1007400099EFB727004003C7578013670701A382BB
:10075000E7801D470DA013672700B8A7F9B7254705
:100760006366F704B727004003C757801377F70E77
:10077000A382E7800547A383E78033450508B717C1
:1007800000401367050C9AA78AA7B5CE03C7570484
:1007900083C65704418B858A558F1DF3B82B418B37
:1007A00005D3B8271377D70FB8A719BF93770501DB
:1007B00099EBB727004003C757801377F70EA38242
:1007C000E78009474DBFB727004003C7578013771D
:1007D000F70EB5BF9377850181EFB727004003C7B8
:1007E00057801377F70EA382E7801307100561B7D0
:1007F000B727004003C757801377F70EA382E7801F
:10080000130770058DBFB8271377B70F71BF41115C
:100810008146014681451145CD3C13078008F337D9
:10082000078093F787083EC40F100000B7170040F9
:10083000130670052380C704930680FA2380D7042B
:100840000F100000FD55CEB723800704A245F3A585
:1008500005800F10000073370780137787083AC6AA
:100860000F1000002380C7042380D7040F1000005E
:1008700003C76704136717002383E7042380070473
:10088000B247F3A707800F10000001A0197106C23C
:1008900012C416C61AC81ECA22CC26CE2AD02ED200
:1008A00032D436D63AD83EDA42DC46DECAC0CEC2B0
:1008B000D2C4D6C6DAC8DECAE2CCE6CEEAD0EED2E0
:1008C000F2D4F6D6FAD8FEDA938501868841E7009D
:1008D000050092402242B2424243D2436244F24473
:1008E000025592552256B2564257D2576258F25884
:1008F00006499649264AB64A464BD64B664CF64CB4
:10090000065D965D265EB65E465FD65F0961730042
:1009100020304111B7170040985F3AC6945F3247C4
:10092000E39CE6FE324541018280B7E700E03707ED
:10093000001023A0E7208280B717004013070003B0
:100940002388E702854723A4F186730020304111F4
:1009500006C6C52BFDBF23AC05FE1C4199E30CC1A7
:1009600082803E8783A787FFEDFF232CB7FE82801E
:10097000411126C2B7E400E04AC003A90400B7074A
:10098000200006C622C43379F90023A0F4180F1002
:10099000000009E523A02411014535A09565938544
:1009A00005D0C98D2A842105B3C50508334505083E
:1009B000EF10D02D65D1FD572320050042A17CA169
:1009C00023A024112105B24022449244024941014E
:1009D00082804111B7E700E04AC003A9070026C2A0
:1009E0003707200006C622C4AA843379E90023A071
:1009F000E7180F10000083A701870144014685E333
:100A000001C8A28513850187974000E0E780C05B9D
:100A1000A1652685975000E0E78060AC0DA003C774
:100A2000E7FF6319970205CCA285138501879740DC
:100A300000E0E7806059A1652685EF20C014B24030
:100A400022852244B7E700E023A0271192440249FF
:100A50004101828011E03E8683A787FF4DB73E8427
:100A6000E5BF37E700E01C43B70620002320D71876
:100A7000F58F0F10000019C191C111E637E700E0B2
:100A80002320F71082802E960F70B650D5BF37E71F
:100A900000E01C43B70620002320D718F58F0F1065
:100AA000000019C1014785E137E700E02320F71076
:100AB0008280B386E50003A80600B306E5007D1634
:100AC00023A00601110775F6C5B737E700E01C4300
:100AD000B70620002320D718F58F0F10000001C59E
:100AE0003307C50011E637E700E02320F7108280C6
:100AF0000505A30FB5FEE31DE5FEF5B7B7E600E07B
:100B00009C42370620002A87F18F23A0C6180F10B9
:100B100000000145B306A7008386060091E637E78B
:100B200000E02320F71082800505EDB70111B7E73B
:100B300000E026CA84434AC83707200006CE22CCEC
:100B40002A892E86F98C23A0E7180F100000930540
:100B5000F00432C633450608EF1050132A8401C54D
:100B60003246CA85FD3DF24022856244B7E700E087
:100B700023A097104249D2440561828037E700E004
:100B80001C43B70620002320D718F58F0F10000054
:100B900001C599C1014711EA37E700E02320F710AA
:100BA000054582800507E309E6FE3308E500B386C4
:100BB000E500034808009422E306D8FE37E700E08A
:100BC0002320F7100145828037E700E01C43B70679
:100BD00020002320D718F58F0F1000001307F6FF11
:100BE000BA952A966317C50037E700E02320F7106F
:100BF00082809821FD150505A30FE5FEE5B737E7CF
:100C000000E01C43B70620002320D718F58F0F10F3
:100C1000000001C53307C50019E637E700E02320CF
:100C2000F7100145828014210505E398B6FEE31C08
:100C3000E5FE37E700E02320F71005458280797153
:100C400026D29384818822D4804006D64AD04ECEC4
:100C500052CC56CA5AC85EC662C44DC437C9C9010F
:100C6000814B138B01881309F937175A0000130AB7
:100C7000EAE5975A0000938AEAE2975900009389BF
:100C8000E9E93E2099EF5C44639A0B009CC0032C79
:100C9000C4002285EF10F00B628489A823A6FB0014
:100CA000FDB783270B0082971C443307F54063761A
:100CB000F50003A789001D8F2A976368E9062E2097
:100CC0000820EF10506C5C405844A9CB0C441756D8
:100CD0000000032626E5AE97BE8663E4B70063E412
:100CE000C700B386C74014C4A28B3A8459F817577B
:100CF0000000032727DC894763E6E70097570000D9
:100D000023AA07DAB250225492540259F249624A95
:100D1000D24A424BB24B224C4561828063940B0015
:100D200098C0B5B723A6EB009DB703274A021DCB99
:100D300063EDA7023385A7401C2099EF03479A0172
:100D400083A689006117B307A7003E8563E4E70027
:100D500063E4D7003385D74083A70A016374F500A5
:100D600023A8AA00A28B404451B703A78900BA97D1
:100D7000D1B7011126CA06CE97540000938404DA35
:100D800022CC4AC84EC652C49C288844D9CFB7E763
:100D900000E003A907003707200023A0E7183379F4
:100DA000E9000F10000003C7818719CB23A027118A
:100DB000F2406244D2444249B249224A05618280EB
:100DC000175700001307C7F28357C70AA1CB9C44EB
:100DD0000324870A6304F40497590000938989CC9B
:100DE00003A709012285630BF702138A0188832771
:100DF0000A0082976368A40C83270A00098C8297F3
:100E000083A7090198443354F40AB307A4003E852C
:100E100063E4870063E4E7003385E740B7E700E079
:100E200023A027119C44639BA702175400001304BE
:100E300064C7184883A701886319A7088297944458
:100E4000374736FE130707C83697B307A7003E8516
:100E500063E4E70063E4D7003385D740175400000C
:100E60001304040C5C5C89CB83A6C1989C463707AD
:100E7000CDFF7D17F98F9CC611E1884485475CD072
:100E80009757000083A7C7C6829715E15C5C99CF8E
:100E90005C5089CF97C001E0E780401297C001E025
:100EA000E78040999757000023AE0708493B5C5CF8
:100EB000E38007F003A7C1981C47B7063300D58F1E
:100EC0001CC7FDB59C443E9405BF829714489844C6
:100ED000B387A6003E8563E4D700E3E1E7F83385F6
:100EE000E740ADBF23AAA18601C58547238CF186C3
:100EF0008280AA8799E517570000034727C309C7CF
:100F0000D5B711476369B700175700001307C7BF6C
:100F1000B3C5E5209CC1828083A7418781CF411161
:100F200006C6829783C7818799E323AA0186B240C8
:100F30004101828083C7818781E723AA018682805D
:100F40008280411122C426C206C64AC097540000BE
:100F5000938404FD83C73402175400001304C4BAF9
:100F6000B9C3175400001304E4B31389C1880327DD
:100F700009001C2014300146B3A5E7208E21B5C915
:100F800011C21CA00820636DD50697570000238B63
:100F900007B083A70188D5E7B240224492440249B2
:100FA0004101828082971C40F5FF9757000083C75C
:100FB000E7B785E3DC48858B89CFD84C9947631E1A
:100FC000F7009757000023A707F6EF10400F5C4487
:100FD00082971C44D9D7829769B7D84C9D47E31AAA
:100FE000F7FE9757000023A707F4EF10400D1C48A9
:100FF000C5B7850793F7F70F0546E3EFD7F651B767
:101000003327E5200E2323100700239D018683A7A5
:101010004188B347F5209C4382971C208326090012
:1010200003D7A1873377E540B3A6D7209222518F0B
:101030009AA299C385071CA018201C30E36EF7F410
:10104000A9B79757000083A7E7AD1CC8CD3E83C75B
:101050003402B9F383C7140299CBDC4C89EB975760
:101060000000A38F07EC97C001E0E7800099975735
:10107000000083A7E7A78DD31C4899DF183083268B
:101080000900814763C7E702D84C9147E3E6E7F0E0
:101090009757000083C707C4918BE39F07EE83C770
:1010A0008187E39B07EE2244B2409244024941010A
:1010B000C9B133A6D7201222E31006EE8507D9B7AF
:1010C000B7C700401387C72014431396264910C39F
:1010D0000100010093878726175500000325459ED0
:1010E0009C436A0514C393C7F7FF99835D8D828083
:1010F00023AAA1888280411122C41754000013043E
:1011000024E21C4426C206C6858B9754000083A4A3
:1011100064C491EBEF20F0462244B240268592440D
:1011200041016F10B04298289757000023AE07DEA8
:101130008947E301F7FE0146930550020145EF1090
:1011400040288145173501E0130505025D3301464E
:1011500081450545EF10800D5C44858BC5DFB240AD
:1011600022449244410182809757000083A747C2DE
:10117000639B0716011122CC2A84094506CE26CA94
:101180004AC84EC6EF2010479389C19703A60900AD
:10119000930780071389C1967CD2238C018683270D
:1011A00009009384C198B7053300D8572285719BF5
:1011B00013671700D8D798431377F7CF98C398438E
:1011C0001377F7CF1367072098C398401447CD8E45
:1011D00014C7B70603009386862534CA5457F59A78
:1011E00054D798433424137707F893F6F607558FAE
:1011F00098C3EF10D04C83A60900370500827D15F7
:10120000DC4293E71700DCC20326090003078406CB
:101210005C569375F703E605E98FCD8F5CD6930591
:10122000A0039C4063D5E508F84FB70500074D8F34
:10123000F8CFB7C7898E938767ED1CC6B75755009F
:10124000938757555CC28347A40683444406DD8CCC
:101250008947175700002323F7CE9757000023A78D
:1012600007CC7C44BCDE9757000083C7278C99C706
:10127000FC52FDFF9757000023A807CA18289D4776
:10128000814517250000130505036306F7001705C0
:101290000000130585E6B13910386244F240424936
:1012A000B249A685D244014505616F0030789305A7
:1012B000200263DAE500F84FB70500F9FD156D8FE0
:1012C000B7050005ADB7B70500F96945FD156357CA
:1012D000E500F84F6D8FB705000391BFF84F6D8F94
:1012E00013178729B1B7828097570000938747A0CB
:1012F000E853054754256390E60203C74707914723
:10130000631AF700011106CE2AC6EF1030203245CD
:10131000F240056191BD828083278511E5CB4111A3
:1013200022C406C658258345E5049437D2272A846B
:101330001377C70F1395466063F7C506635105061B
:10134000882793F6F60794B705469366270063143B
:10135000C5009366170054A4D8430907D8C30325D2
:1013600004114CB82E86CC430905EFF08FEF83278C
:1013700084115438D8433697D8C3DA27158FDAA7A3
:1013800089473CBC034764039747000083C7277520
:101390006369F706B2402244014541018280136728
:1013A000170058A46DBF9376F60F63550502882782
:1013B0008545136627006314B5001366170050A413
:1013C00054B8A384070085473CBC832784119C4301
:1013D000D5FBC9B71367170058A454B8A3840700F6
:1013E00003250411CC430905EFF0AFE783278411EF
:1013F0005438D8433697D8C3DA27158FDAA78D47E4
:10140000E1B75C2493E707015CA469B705458280D6
:10141000411183A7419522C406C6858B2A84C5E75E
:101420004165130525F5975001E0E780E08F41CD38
:101430003C253EA583270412ADE32320A4122322DA
:10144000A41285472311F404232005007C2854416D
:101450005EA5583418A5054718B513851702175708
:1014600000000327A7AF15811C437D151375F50FE9
:101470009CC25C43DCC21C479CC65C47DCC61C4B60
:101480009CCA5C4BDCCA1C4F9CCE5C4FDCCE0DC1B1
:101490009386060213070702C1BF8327441288C33D
:1014A000835724042322A4128507B3C7070859BF12
:1014B000175700001307C7831E2785071EA7B240D2
:1014C0002244410182805C2423090400054593C71E
:1014D00047005CA4EDB7142D854763ECD70A1C3D8B
:1014E0002A870145CDEB5C2713F507013C2B99CBEF
:1014F000834667039747000083C7775E63ECF60077
:1015000001E5828049E582808357271E0357671EC5
:10151000BA9721A08357271E75F90145ADCF938750
:10152000C7121745000003552560B3B5A70237461B
:101530000F00411113060624814622C426C206C6A6
:101540007D543385A702974002E0E78040D7974457
:10155000000083C43459AA949757000083A7878258
:1015600003A707099C433354E40AFDFB83A70188C2
:10157000829781476364A400B307A440B240224429
:1015800033B597001345150092444101828081478D
:10159000B5BF01458280828003A7C1973C5BFDFFF8
:1015A00001000100828039C901116C0022CC06CEF5
:1015B0002A84EF20E04A15C9FD57630DF502B247B2
:1015C0009745000083C5155263EBB70003459402AD
:1015D0006244F240B385B74005616F10205F174742
:1015E000000003272754BA97D5B76244F24005613B
:1015F0006F20800BF24062440561828082807971A5
:1016000052CC174A0000130AAA6E26D283244A0934
:1016100006D622D44AD04ECEC5C89757000093872D
:101620002790D44F15476384E604DC532A8989CF79
:1016300097C001E0E780809897B001E0E780801FC5
:101640009757000023A00790FD596C002685EF20D6
:1016500020411DE51725000013054505EFF09F8883
:1016600083A7C1973707100098C70547B8DB0D451A
:10167000B250225492540259F249624A4561828022
:10168000637435013244AA898440E1F0FD571305A3
:10169000F00FE38FF9FC914763F187029307B4FFE2
:1016A0002320F9002324FA0A99E79747000083A72B
:1016B00067472320F900014565BF9747000083A7CE
:1016C0006746ED17A297E9BF09455DB7797126D244
:1016D00006D622D44AD04ECE52CC56CA5AC85EC67E
:1016E0008347550303447513AA843E941374F40F7F
:1016F0009307400263F687001304B4FD1374F40FDC
:1017000003A9841383A9C413A38B841222864A8558
:10171000CE85974002E0E780C0B5058915E503CB8B
:10172000D412014A814A337B6403930B50025286E0
:101730004A85CE85974002E0E780A0B305890DC5B4
:1017400063916A031374FA0F238B8412B2502254EC
:1017500092540259F249624AD24A424BB24B456115
:101760008280850A939A4A60050AE3127AFDE9BFEE
:101770008327850903560504797193D60701BD8E29
:10178000B3C60608358E93575640898B1357764853
:101790005D8F93573640918B5D8F93571640A18B89
:1017A0005D8F93171600C18B5D8F9317360093F7EB
:1017B00007025D8F9317560093F707045D8F931709
:1017C000760093F7F70F22D45D8F2A849357D600C3
:1017D0001355B6001189898B93558600C98F13550F
:1017E000F6002582C98F218AD18F13961500418A70
:1017F000D18F1396350013760602D18F13965500BC
:1018000013760604D18F139675001376F60FD18FD9
:10181000A207C5455D8F3307B70226D24AD04ECE08
:10182000032984138329C4135AC806D652CC56CA36
:1018300036973347070813565740098A9357774816
:10184000D18F13563740118AD18F13561740218AF2
:10185000D18F13161700418AD18F131637001376D4
:101860000602D18F1316570013760604D18F131674
:1018700077001376F60FD18F1358B7001356D700A1
:1018800013784800098A13558700336606011358F8
:10189000F700258333660601218B518F131615003F
:1018A000418A518F1316350013760602518F131695
:1018B000550013760604518F131675001376F60F34
:1018C000518F2207D98FB387B7025EC6B697B3C7C9
:1018D000070813D55740098913D77748498F13D57F
:1018E00037401189498F13D517402189498F1395A6
:1018F00017004189498F1395370013750502498FE9
:101900001395570013750504498F139577001375C8
:10191000F50F598D13D8B70013D7D70013784800A7
:10192000098B13D687003367070113D8F700A58307
:1019300033670701A18BD98F13171600418BD98FFD
:101940001317360013770702D98F13175600137732
:1019500007041E06D98F1376F60FD18FA2073367BF
:10196000F5003307B702130650024A85CE85369735
:10197000B98EB3C4060833F6C402137BF60F974042
:1019800002E0E780008F058905E9834AD412014A05
:10199000930B5002B38A9A02814493DA0A01268695
:1019A0004A85CE85974002E0E780A08C05890DC569
:1019B00063914A0313FBF40F230B6413B2502254B8
:1019C00092540259F249624AD24A424BB24B4561A3
:1019D0008280050A137AFA0F8504E39274FDE9BF49
:1019E0008327C50803568508797193D60701BD8EF4
:1019F000B3C60608358E93575640898B13577648E1
:101A00005D8F93573640918B5D8F93571640A18B16
:101A10005D8F93171600C18B5D8F9317360093F778
:101A200007025D8F9317560093F707045D8F931796
:101A3000760093F7F70F22D45D8F2A849357D60050
:101A40001355B6001189898B93558600C98F13559C
:101A5000F6002582C98F218AD18F13961500418AFD
:101A6000D18F1396350013760602D18F1396550049
:101A700013760604D18F139675001376F60FD18F67
:101A8000A207C5455D8F3307B70226D24AD04ECE96
:101A90000329040A8329440A5AC806D652CC56CAD6
:101AA00036973347070813565740098A93577748A4
:101AB000D18F13563740118AD18F13561740218A80
:101AC000D18F13161700418AD18F13163700137662
:101AD0000602D18F1316570013760604D18F131602
:101AE00077001376F60FD18F1358B7001356D7002F
:101AF00013784800098A1355870033660601135886
:101B0000F700258333660601218B518F13161500CC
:101B1000418A518F1316350013760602518F131622
:101B2000550013760604518F131675001376F60FC1
:101B3000518F2207D98FB387B7025EC6B697B3C756
:101B4000070813D55740098913D77748498F13D50C
:101B500037401189498F13D517402189498F139533
:101B600017004189498F1395370013750502498F76
:101B70001395570013750504498F13957700137556
:101B8000F50F598D13D8B70013D7D7001378480035
:101B9000098B13D687003367070113D8F700A58395
:101BA00033670701A18BD98F13171600418BD98F8B
:101BB0001317360013770702D98F131756001377C0
:101BC00007041E06D98F1376F60FD18FA20733674D
:101BD000F5003307B702130650024A85CE853697C3
:101BE000B98EB3C4060833F6C402137BF60F9730E0
:101BF00002E0E7800068058905E9834A1408014A84
:101C0000930B5002B38A9A02814493DA0A01268622
:101C10004A85CE85973002E0E780A06505890DC52D
:101C200063914A0313FBF40F230F6407B25022544D
:101C300092540259F249624AD24A424BB24B456130
:101C40008280050A137AFA0F8504E39274FDE9BFD6
:101C5000797122D426D22E84AA844146975502E077
:101C6000938545CC0A8506D6972000E0E780602A58
:101C70004146975502E09385E5CA0808972000E0A1
:101C8000E78020293C3010088A85DC875C20268587
:101C90005C875C30DC8697B001E0E7800092034708
:101CA000F1011C200145631EF7000347E1011C30D0
:101CB00001456318F7000345D1013C201D8D133504
:101CC0001500B2502254925445618280011122CCF9
:101CD00026CA4AC84EC606CEAA841744000003246A
:101CE000640D13092500854905C09C303830858B6B
:101CF0006304F700405CCDBF1946930544004A8554
:101D0000EFE0DFE7E31835FFF24022856244D2447A
:101D10004249B24905618280411122C426C24AC0AB
:101D200006C6174400000324E4089304250005496F
:101D300001E8B24022852244924402494101828056
:101D4000A6851305A4022937E30525FF405CCDB71E
:101D5000411122C426C24AC006C61744000003240B
:101D6000640593042500054901E8B2402285224418
:101D70009244024941018280A6851305A401C93D10
:101D8000E30525FF405CCDB7011126CA644122CC92
:101D90004AC84EC652C406CE2A841D499309650519
:101DA000054A3C4463E4F4000545A1A05834DC2016
:101DB00063192705034784026304F7008440D5B7FD
:101DC000D83083475405E31BF7FE19469305640595
:101DD00013856400EFE09FDA8547E311F5FED82410
:101DE00083479402E31CF7FCFA243E34E318F7FC23
:101DF0000145F2406244D2444249B249224A056157
:101E00008280E31DF7FAD83083475405E318F7FAC8
:101E10001946CE8513856400EFE05FD6E31045FBDD
:101E2000C1BF011122CC26CA06CE2AC42EC6174431
:101E300000000324A4F7854419E001450DA09C840B
:101E40001830858B6304F7000044FDB719469305ED
:101E5000A10013052400EFE07FD2E31795FEF240C6
:101E60006244D24405618280EFF00F8B7300000062
:101E70000000000093828187038302002380020018
:101E8000630F0300F32510342EC0970500009385DF
:101E9000E5FD73901534EF00405B7300203086DC65
:101EA000EF00A05AE6508280000041114AC0138919
:101EB000C1960327090026C206C61C5F22C493846C
:101EC000819693D76748B5CF930700061CDF174468
:101ED00000001304E404184C930700086317F7008C
:101EE0009C409C4393F707041CCC1C4093F70704C9
:101EF00089CB83A70188829748D81C4093F7F7FBCA
:101F00001CC01C4093F7070289CF1C4003A7C19750
:101F1000B706080093F7F7FD1CC05C5414C786078A
:101F20007CD71C4893F7070489EF85475CC83707BF
:101F3000020083A7C19798C71307000C18C818544C
:101F4000F8D383270900985F1357474811CF985F4C
:101F50001367070198DF83A7C19723A20706854768
:101F6000174700002326F7FC9C40D8431357174817
:101F700019C7D843759BD8C3D843799BD8C3B240FF
:101F80002244924402494101828005377300203087
:101F9000974700009387C7F83707040088DB698FED
:101FA00001CF03A7C197FD5634D79746000093860B
:101FB00066AFD84E0507D8CE1377850019CF98475E
:101FC00083A6C1961367170098C71307000898CB1C
:101FD000D856719B13671700D8D61377150001CF19
:101FE000D84383A6C19613671700D8C3D856719BF0
:101FF00013671700D8D61377650019CF13774500FC
:1020000059C398431367170098C383A6C196D8563F
:10201000719B13671700D8D64167698F0DC3974628
:10202000000083C626D4C18A17470000130747CC97
:10203000A5C28346470793E60602230AD706370759
:102040000200698F01CF984B1377070819C3054722
:1020500098CB83A7C1973707020098C7B707080036
:102060007D8D0DC1174700000347D7CF058B9747DC
:1020700000009387E7C71DCB03C7570713672700E7
:10208000A38AE7068280D84713671700D8C7B5BF71
:10209000834647070946BD8A6388C60083464707CB
:1020A0000D46BD8AE39DC6F8914641BF03C7570759
:1020B000118B69DB03C7570713678700D1B783A666
:1020C000C197174700001307A7E51C43858B91E7CD
:1020D0005C43858B99E3FC52EDFB9747000023ABF3
:1020E00007E482809386C1962A8788421C5D93D735
:1020F0005748D1E781C51C59BD839CA115C69C4298
:10210000945BC60693D7660163D6060093E707C0C3
:10211000B3C707088316060093975760B9C6BE96E3
:102120008947B3C6F60216A283A7C197BC4B0833F2
:1021300093D757488DCF29C59746000083A6C6DFA1
:1021400093F606049307950009459DCABA979C2308
:102150000547194593F6F7066394E6020145939700
:10216000476063DF0700394582801EA275BF2A974A
:1021700048331375F5077D153335A000828005457A
:10218000828083A7419799CB944BD04B9842518F33
:1021900098C294439C479842D98F9CC21386C1979A
:1021A0000548184283A6C19697470000938747D7F2
:1021B0006312050503A806001368080823A006019A
:1021C00083C62702B3C5D52054479385A50C139821
:1021D0001649232607010F10000018423706020097
:1021E000860510C71306000890CB6CD354C723880C
:1021F000A196828088421375F5F788C283C62702AC
:10220000B3E5D52054479385E50E1395164948C785
:102210000F100000184237060200860510C713068B
:10222000000890CB6CD354C70945D1B7411122C4E3
:10223000AA8706C626C22E851384C197B285DDE71C
:102240001C40F8537DFF3707020098C797470000EE
:1022500023AC07CC9744000093844487DC5085C7A7
:10226000B7E700E03707200023A0E728B7F700E032
:10227000938707D0984B6D9B98CB984B1367870338
:1022800098CB73005010F53D83A7C1969843131760
:10229000772998C3D857719BD8D79747000023ABAD
:1022A00007C89747000023AF07C61C40094798C3DB
:1022B000DC5099CB37F700E0832707D193E78700FD
:1022C0002328F7D07300501014401747000013075D
:1022D00027C51C47858B91E75C47858B99E3FC52AA
:1022E000EDFBB24022449244410182800D47639E3F
:1022F000E7049747000023A907C29747000023A7D8
:1023000007C2973400009384647CDC5085C7B7E72C
:1023100000E03707200023A0E728B7F700E0938705
:1023200007D0984B6D9B98CB984B1367870398CB3E
:1023300073005010B93583A7C196984313177729B6
:1023400098C3D857719BD8D7A5B70547E39EE7F642
:102350009736000093868677DC5285C7B7E700E0A2
:102360003707200023A0E728B7F700E0938707D0BE
:10237000984B6D9B98CB984B1367870398CB730052
:1023800050101C40D04713171649D8C70F10000033
:102390001C403707020098C7130700089745000044
:1023A00023A8E5B803A7C19618431357774819C760
:1023B0001307E018F8D3D0C7DC52E5BD1307E01AC5
:1023C000D5BF83A7419789CFD44303A887009842FC
:1023D0003367070198C2D447DC4B9842D98F9CC21F
:1023E000054783A7C1969505631EE50298431367C9
:1023F000070898C3984F137707C01367A71398CFA0
:1024000013078007B8BB939735009387C703174717
:1024100000001307E7B01CD72388A19619C206064F
:1024200010D78280984309451377F7F798C3984FE0
:10243000137707C01367271398CF1307F007B8BBAC
:10244000939745009387C703D9B783A7C197884758
:10245000D847798D11C588C783A7819791C3828793
:102460008280896703A7C197938707F47CD383A6EB
:10247000C19883A7060993D7A74991C783A70609DF
:1024800093D7974999E37C53EDF782804111B7E7E1
:1024900000E022C480433707200006C6798C23A0C1
:1024A000E7180F10000011C199E5B7E700E023A07D
:1024B0008710014549A80D0533450508130740035A
:1024C0007199B34705086362A70203A501A283A619
:1024D00081A1639FA600173700000327276271D7E9
:1024E000C207DD8D05450297C9B703A5C1A1C5B7D0
:1024F0007A2131EF5A21636CF704B306F740214883
:10250000173600001306065A6375D80283280500A3
:1025100003586600938687001D8FAA966117DAA27A
:1025200023A016012393060014C15EA1130788FFA0
:102530007AA27A226EA12105B307F7407EA2B7E7FF
:1025400000E023A08710B24022444101828008416C
:1025500049B7B7E700E08C433707200023A0E7180E
:10256000F98D0F10000001E523A0B710828003A3AE
:1025700001A283A881A19A87814663F8170903A85D
:1025800007006367F5086365A80813878700636E13
:10259000E506F223216705076317E60013863193EA
:1025A0001822050718A2173500001305A54FD223DE
:1025B0007A21239307003297334707087AA1638370
:1025C000670203A3C1A1630FF30003D36600631B7B
:1025D0000300DE2223A0060121073E962106D2A297
:1025E0007AA1B68798436302170383A6C1A1630E3D
:1025F000D700762399EAD62352231843A106B29630
:10260000D6A398C37E21A1077EA1B7E700E0A9BFAA
:10261000BE86C2879DB7AA8703A701A203A681A190
:10262000B305B5406314E6003E8529A893068700EC
:102630001843E3E9D7FEE3F7E7FE2E85E3E4D5FE92
:10264000E3F2E5FE8280411126C206C622C44AC0DA
:102650009734000083A4446F6383041003A4C40A66
:10266000AA86054535C03C241307700A6390E70825
:1026700058301C34173900001309494A03268900D1
:10268000B387E7020357C900B387E7021307003295
:1026900093870719B3D7E70203A744093E97BA8483
:1026A0006364F7006364C700B304C74083A701886D
:1026B00084C28297B387A44063F5A40003278900EE
:1026C000BA9789EB1305F00FB240224492440249B5
:1026D0004101828058309306204E3307D702E3F33E
:1026E000E7FE930780FA3CA40145F9BF1307800A6F
:1026F000E39AE7FC83A7018882972A893545EF1082
:10270000606FAD4717470000232AF78258301C340A
:102710001736000013068640B387E7025A26104694
:10272000B387E7021307003293870719B3D7E7028D
:1027300003A744093E97BA866364F7006364C70041
:10274000B306C740E310D9F8172502E0130525A109
:10275000EFE04FF983A7C1970947F8D7A5B705451B
:10276000A5B7397156D2973A0000938A6A7B83A73E
:102770000A033707080026DA06DE22DC4AD84ED6DE
:1027800052D45AD05ECE62CC66CA6AC86EC6F98F81
:102790009734000083A4445B6384071C83A9C40AA4
:1027A00083C7990003A4C90092073E942820B1472B
:1027B00005053305F5025E203E9533450508EFE03B
:1027C0002F9BAA8C6305051A130DC5002324A501B0
:1027D00034203146370B0300B386C60223130400AE
:1027E0000149138AC197938BC196938DC198130B9E
:1027F0008B15054CEA9654C483C679009307D0071D
:1028000083250A00B386F602C1679CC537083300EA
:102810008606B4D183A60B0090421376F6CF90C201
:1028200090421376F6CF1366062090C203A50D00E2
:1028300010453366060110C503A6090023A86505E7
:102840009305500290C672205444B2962324DD00B2
:1028500014300146CA96A301DD0003C5040897366B
:10286000000023A1066CB13E83260A00CC461396D5
:102870001549D0C60F10000083260A003706020053
:1028800090C61306000823A8CA0003A60B00104236
:1028900013567648631F860B1306E018F0D2CCC699
:1028A000173600002328066817360000232C06661A
:1028B00023A08601EFF0BF80EF10A04C83A64A0052
:1028C000858AD9CAEA852685973002E0E780408F5D
:1028D0000DE903465D0049C276204E20B29663DDC5
:1028E000B606B428AC4803258D00918E8906B695AE
:1028F000EFE02F9723020D0003465D007620B2968D
:1029000076A003260A00310D3452FDFE342005095D
:102910001379F90FE362D9EE9C246685A381FC004C
:102920001C20A3820C002383DC002382FC00625461
:10293000F250D2544259B259225A925A025BF24B87
:10294000624CD24C424DB24D216117F300E067005A
:1029500023301306E01A99B7FD562302DD0055B760
:1029600083A7C197FC5781C78547238CF186F25016
:102970006254D2544259B259225A925A025BF24BD3
:10298000624CD24C424DB24D21618280411122C431
:1029900006C626C24AC02E848DCD13F91500814784
:1029A000414763020904131745003E97B1463307B8
:1029B000D70283A40189B317F02833C90708BA9452
:1029C0009C40C840829723A0040023A20400334403
:1029D0008900B2402285224492440249410182800A
:1029E000B356F448E9F28507E39CE7FECDB7011141
:1029F00026CA06CE22CC4AC84EC6AE84A1C593F7DD
:102A0000150001444147B1CB93174500A2973147C8
:102A1000B387E7029389018903A909003E998327B7
:102A2000090081C703254900829731473307E40233
:102A300083A70900BA979C478DC733148028B347F2
:102A40000408BD8CF24062444249B2492685D24412
:102A500005618280B3D68448C5FA0504E31CE4FE10
:102A6000CDB72320090023220900C1BFAA8703A5EF
:102A7000818811E182803A216315B7001821E30BA8
:102A8000F7FE4845FDB77971B7E700E022D48043EF
:102A900052CC06D626D24AD04ECE56CA5AC85EC6A8
:102AA00062C43A8A37072000798C23A0E7180F10F8
:102AB000000005E123A087100945B250225492542A
:102AC0000259F249624AD24A424BB24B224C45610A
:102AD000828083A70188B6892A89AE8A328B938B3C
:102AE0000189829703A70B008144B146C147338C0B
:102AF000D40233068701104235EEC165938505F097
:102B00004145EFF0BF9819ED9737000083A707FF05
:102B100081C7814511458297B7E700E023A0871060
:102B20002D4561BF138781881C43A1E308C323009F
:102B30000500B31790283EA183A70B0023260500AC
:102B40002324650123224501E29723A0270123A224
:102B5000570123A447016384090023809900B7E744
:102B600000E023A08710014589BF3E87DC47F5FFC1
:102B700048C775BF8504E39CF4F6B7E700E023A0DF
:102B8000871021451DBFB7E700E09843B706200036
:102B900023A0D718758F0F1000009736000083C64A
:102BA00076F06371D50283A6C1883325D52016211E
:102BB000D58D0EA19736000023AE06EE23A0E710B8
:102BC0000145828023A0E7100D4582800111B7E7FF
:102BD00000E022CC80433707200006CE26CA4AC830
:102BE000798C23A0E7180F100000BD4763E7A70406
:102BF00031473307E50283A70189BA979C4395CFF4
:102C00003315A0282E89B345050801452EC6B93DC8
:102C1000AA8409C9B2450145972000E0E780205207
:102C200023A42401B7E700E023A087100145F24068
:102C30006244D244424905618280B7E700E023A0A4
:102C400087100945EDB79736000083C6A60583A710
:102C5000818F01476394E600014582808E231386AD
:102C600087026394A5003E85828005071377F70FDE
:102C7000B287CDB79737000083C7D702AA868507EA
:102C800003A54190014712216307D60005071905E6
:102C9000E36BF7FE014582802A8703A5C19011E10D
:102CA00082801C45B227636BC70003584500B306FA
:102CB000C8006355D7008146639406010841C5B733
:102CC00003D3A700938807016316E30091C192A183
:102CD0003E8582808506C687B3C60608F1BF973653
:102CE000000083C626FC83A7819301476394E60016
:102CF00001458280AE231386C7036394A5003E85F9
:102D0000828005071377F70FB287CDB7411122C430
:102D100006C6973700002387070403A4819405C0E3
:102D20006C390145B315B028B3C50508973000E0EC
:102D3000E780C08B930710273305F50202942244E5
:102D4000B2408145014541016FE0AF9A411106C68D
:102D5000383D19C73425631ED702B24041017DB703
:102D60003C2DE5DF3825E30AF7FE3CA5814517E554
:102D7000FFFF1305A557EFE0CF979737000083C7F4
:102D8000E7DA89C783A7C1975147F8D3B240410119
:102D900082803C2D89C7E39AF6FC38A5C1BFD5FED9
:102DA000EDBF41114AC01739000013096917832785
:102DB000890022C426C206C697340000938444F3D7
:102DC000858BE0509DCB9737000023AF071483C756
:102DD0004407C18B85CFEF00D07A83C7440793F7B0
:102DE0000702E5DF83C74407228593F7F70C238AA0
:102DF000F406970001E0E780E075EF009078228507
:102E00002244B24092440249410109B783C75407A2
:102E1000858B91CBEF00F0768D47230EF406BC58DE
:102E200022858297D9BF83C744071547BD8B639519
:102E3000E7048347B4060345340601469305500270
:102E40005D8DEFF00FD8014681450545EFF00FBECF
:102E50008327C900858BD5D322859737000023A708
:102E6000070C970001E0E780A05641F9B2402244E8
:102E7000924402494101828083C744071947BD8BB0
:102E8000E39DE7F68347B406034534060146930500
:102E900050025D8DEFF0EFD2014681450545EFF020
:102EA000EFB88327C900858BA9DB228597370000FF
:102EB00023AE0706970001E0E780002B7DB74111A4
:102EC00022C426C206C67C2578452A84BD8B1CA94F
:102ED0001CA31D4764456395E7340547B8A08347A5
:102EE000F5058D466393D7185E2DCDE37C491147D8
:102EF000B18B638DE70831476398E70003471506F8
:102F00008347F5076304F7088547BCB01946930566
:102F1000640313854400EFD0DFB4BC20990793F716
:102F2000F70FBCA0034704061377070401CFB8309E
:102F300013670704B8B07844BA975838B8B3BC20C0
:102F40008507BCA097370000238E07E0BC2013F74D
:102F5000F703050718B80347E4051A07D98FBCA083
:102F600083475403858B91E70347440389476317DD
:102F7000F70078441C2393E707041CA37C4418380B
:102F800098B3B2402244924441018280A147BCB030
:102F90008357C40697350000938585D51386C1975E
:102FA000DCA08357C406034714067444A1831207A8
:102FB000BD8BD98FDCB2B4208547890693F6F60F16
:102FC000B4A0173700000347E7D9631EF706183C83
:102FD0009387E6008E07231AF4069387C708B38702
:102FE000E702794510420948238A0507C1650CC6E6
:102FF000938707FBB3C7070893877716B3C7A70262
:1030000033C70708B387A70286073CD2BC3093E7D3
:103010000701BCB07C44B6978346240693E60604B9
:10302000B4B3B4207C44B697D8A3B4207C442183A5
:103030007D8BB697834634069606558FD8B3BC2051
:103040008D07BCA021B71042F9473852058333578A
:10305000F7023C5268528583FD8BAA977CD28D473C
:10306000238AF5063347070855B71946639BC712ED
:103070005E2DC1E393056503B8B013854400EFD01E
:103080005F9EBC201385A4009907BCA0BC3093E7C9
:103090002700BCB083475403898B95CF0C58BC29BB
:1030A0009DCB1946D105EFD0DF9B78441C2393E7D5
:1030B00007F81CA3BC20990793F7F70FBCA00347A0
:1030C000040613770704E30F07E6B430784493E669
:1030D0000604B4B095B58347D40391C778441C2344
:1030E00093E707F81CA319469305E403EFD07F97F5
:1030F000D1B7A147BCB08357C506DCA08357C5062E
:10310000034615066C45A1831206BD8BD18FDCB139
:10311000B020173500001305A5BD9385C19709069A
:103120001376F60FB0A09737000083C7A7C3639844
:10313000E704183C9307E6008E07231AF4069387EA
:10314000C708B387E70279488946230AD506944120
:10315000C1658CC6938707FBB3C7070893877716AB
:10316000B3C7070333C70708B38707038607BCD273
:10317000BC3093E70701BCB07C44B29771BD8C4171
:10318000B851F94705833357F702BC5103A84506E8
:103190008583FD8BC297FCD1230AD50633470708E8
:1031A000C1BFA147BCB08357C506DCA08357C50685
:1031B000034615066C45A1831206BD8BD18FDCB189
:1031C000B020173500001305A5B209061376F60FD7
:1031D000B0A09737000083C7E7B883A5C197E391F4
:1031E000E7FA183C9307E6008E07231AF406938744
:1031F000C708B387E702F9460948230A050741656E
:1032000088C5938707FBB3C7070893877716B3C7AB
:10321000D70233C70708B387D7028607BCD189BF57
:103220000547639EE706B1471CB983475503898B61
:10323000A1CB0C59BC29A9C71946D1051385840017
:10324000EFD03F8278441C2393E707F81CA368441F
:103250001946930564030905EFD0BF8011679737BE
:10326000000083A7E7B5F98FE38C07CE7C24B98BE8
:10327000E39807CE78441C2393E707021CA3CDB143
:103280008347D40389C79C2093E707F89CA0684430
:1032900019469305E4032105EFD0AFFC4DBF522D35
:1032A0000C559307660093F7F7031CB91385840048
:1032B000E5B7011126CA97340000938464C69C4484
:1032C00022CC06CE17340000130484A2858B6850EC
:1032D000C9C32AC69737000023A807C4EF00702A85
:1032E00003474407894732456307F700034744070C
:1032F0008D47631CF70283A6C197BC52035745074D
:1033000085831307C71263F2E702BC528583B1C3FA
:10331000914703474407E31EF7FE6244F240D2445C
:103320000561170301E06700034B382D3C3D09CFD1
:1033300034256309D7026388F60238A56244F24057
:10334000D24405616FD05FE299CF382509EF3CA5E3
:10335000F5B72AC6EF00F02262443245F240D2446B
:1033600005616DB2EDF7DC4CEDF703474407894783
:103370006307F700034744078D47E31CF7FC9147B9
:1033800003474407E31EF7FE49BF630E05300111F2
:1033900022CC06CE26CA4AC84EC652C456C25825AA
:1033A00085472A846316F72C97370000938747B721
:1033B000D44F1547638AE600D44F0D476386E60075
:1033C000D84FAD476312F7026C386244F240D244E2
:1033D0004249B249224A924A01450561B315B028D3
:1033E000B3C505086FF02FFA163113070064973440
:1033F00000009384E48F3347D7029C20E8D08507F0
:1034000093F7F70F9CA063CAE700972000E0E780DE
:10341000006197370000238D078C78249D47631F38
:10342000F70483479406B1C38356040763ECF6029E
:103430000C24930730041CAC1305300493F6F60FEC
:10344000014697C001E0E780804822856244F2404F
:10345000D2444249B249224A924A0561171301E017
:10346000670083C785062318D406930530020545F7
:10347000972000E0E78080532301A4060549238AB2
:103480002407183C8D47631CF70E972000E0E78067
:10349000A0C40D89630F05146316251793076002F6
:1034A0003CA4930750023CAC9307700278243CBCC8
:1034B00085476302F70889659385F5701305102722
:1034C000172A0000130A8A6583497401972000E0D7
:1034D000E78040500E30835ACA002A8913060064E0
:1034E000B3855503814613850532B335B500972062
:1034F00002E0E780C0DCAA84B335590337460F00E9
:1035000013060624814633055903972002E0E7801D
:1035100000DB83270A00AA948297B307950003274C
:103520008A00BE8563E4A70063E4E700B385E74053
:103530004E85EFF0AFE983475403898BE9CB83478E
:10354000C403F1C70C58E1C5BC25F1C38947230A60
:10355000F4021946B10513056403EFD08FD0034779
:10356000C407894763E9E70A22856244F240D244EE
:103570004249B249224A924A05616FD0FFBE89464C
:103580007C346315D70213F7170019CB898B130707
:10359000500291EB9307700238A43CAC814739B7D5
:1035A00013076002C5BF93076002FDB799CF93F67A
:1035B00017001307500291E6898B13B71700130702
:1035C000670238A4230D0400D1BF3C2C130740022E
:1035D0006368F700930750023CAC3C2C3CA47DBFD1
:1035E000850793F7F70F3CAC13077002E364F7FE0F
:1035F000EDB713077002930750023CAC38A4930751
:1036000060026DB51307500293077002FDB785473E
:10361000230AF402A9B70327C40A83A601883C271A
:10362000ADC31C375833972400009384244F904433
:10363000B387E702DA24B387E702130700329387E0
:103640000719B3D7E702032744093E973A89636411
:10365000F7006364C7003309C7408296B307A940E7
:103660006374A9009844BA9703576407E3FEE7EE32
:10367000F2406244D2444249B249224A924A056128
:10368000828083248409829663E9A40083576407B7
:103690003385A440E37AF5ECE1BF9727000083A7C8
:1036A0006748BE94E5B7828001114EC69729000095
:1036B0009389096422CC03A4C9094AC817290000C8
:1036C0001309C9450357C90026CA835464088327D0
:1036D000040906CEB384E40237470F009306F723AC
:1036E0001307072452C456C25AC0B694B3D4E40296
:1036F00063EE9702138A0188B384974083270A00F8
:10370000829763E9A4023385A44063490502835785
:103710000404A30F040085072310F4048347041452
:10372000639E07102285EFD07FFA21AA0327890024
:10373000BA97C9B783278900BE94F1B783270A00D7
:103740008297032784086366E50A198D7E3C035738
:10375000C9008E07B387E702130700329387071962
:10376000B3D7E70263ECA708B74A0F00138BFA231D
:10377000938A0A248357040485072310F40483479B
:10378000041481E72285EFD07FF42285971001E0B1
:10379000E780C06C63130524032604090327C408CB
:1037A000832689003297BA876364C7006364D700B1
:1037B000B307D740783C0356C9002328F40805070F
:1037C00078BC035764083307C7025A973357570327
:1037D000B384E74063F5E700998EB384F60083274E
:1037E0000A00829763E6A4043385A440E34405F805
:1037F00039BF83278900998F3E9589BFA1452285CE
:10380000971001E0E780A05DA305A40297270000C0
:1038100083A7C72E6383071C6244F240D244424907
:10382000B249224A924A024B894515450561828771
:1038300083278900A6973385A7404DBF2285EFD007
:103840003FF32285971001E0E78040616317051878
:103850000355C90083576408B7460F001386F62343
:10386000B387A7029386062403270409230B0402C7
:10387000832A8900B297B3D7D702636AF716B307D2
:10388000F7408326C4082324F408014BB387E600DD
:10389000BE8463E4D70063E45701B38457411E300C
:1038A00023289408A1CB835604045A3037460F00CE
:1038B00056B03387E640B387E7023A301306062452
:1038C00081468145BA97B3C707083385A7023EB042
:1038D000972002E0E780A09E11CD2695B334950095
:1038E000A695AA876314BB0063645501B3075541CD
:1038F0002328F40883270A008297AA8483270A00D2
:103900008297E30D95FE83270A008324840882971B
:1039100063E4A40E3385A440630B050E035AC9006B
:1039200083576408B7440F001387F423B387470312
:1039300093840424BA97B3D797021727000003474C
:10394000771ABA9763E5A70CB3359502835A240218
:103950005286814633059502972002E0E780209643
:103960003389AA0033854A0337460F00130606241D
:1039700081468145972002E0E780609415C1B33706
:10398000950252868146B385B4023385A402BE9562
:10399000972002E0E780A092B38AAA402311540343
:1039A0003545892923AE890838348547631AF704D9
:1039B000930700FD7CA4814503A50196EFD06FD34A
:1039C000954717270000232BF7563707100083A7CA
:1039D000C19798C7060923A82707F2406244D2443A
:1039E0004249B249224A924A024B05618280B3069B
:1039F0005701B387F64071B583278900BE9419BF7C
:103A0000930710FC7CA4814503A5819545BF9727AA
:103A1000000023AD0736834709018DC303A5C19478
:103A2000EFD00FED624483274900F240D24442496F
:103A3000B249224A924A024B056182878345940229
:103A40006244F240D2444249B249224A924A024B6D
:103A500001450561B315B028B3C505086FF0AF92F5
:103A6000011122CC26CA4EC606CE4AC852C456C23E
:103A70005AC038358547832405092A84AE896314E2
:103A8000F70C83570508835AC503172A0000130A49
:103A9000EA08035BCA0063FC571914296399E61806
:103AA00003278511631507180327450A63110718B3
:103AB00074351D47639DE6162A3DB38AFA40930785
:103AC000204E330555030329440937460F001306DA
:103AD000062481463305F5029727000083C7870037
:103AE00033592503B335AB023E99334909082313F3
:103AF00024093305AB02971002E0E780407CB3074E
:103B0000950033B5A7002E9503278A00BE8419E1DE
:103B100063E4E700B384E740B307690337470F0066
:103B20009306F7231307072423A09900B697B3D76A
:103B3000E702D69763E4F4009D8C31A003278A0046
:103B4000B307F740BE94138901888327090023A097
:103B50009900829763E2A4103385A440635D050A4F
:103B600083270900172B0000130B4BFB829703A739
:103B700009006369E50E198D7E3C0357CB008E0763
:103B8000B387E7021307003293870719B3D7E70219
:103B900063EFA70C374A0F00930AFA23130A0A248B
:103BA0008357040485072310F4048347041481E732
:103BB0002285EFD0BFB12285971001E0E780002A6F
:103BC00061E5832604098327C40803278B00B69781
:103BD000BE8463E4D70063E4E700B384E7407C3C41
:103BE0008356CB002328940885077CBC8357640840
:103BF000B387D702D697B3D7470363E6F40A9D8C01
:103C00008327090023A09900829763E1A40A3385E2
:103C1000A440E34705F89727000083C7B7EC63E6A5
:103C2000A7069727000023A387160145B9A8835745
:103C3000640837470F009306F723B387670313071A
:103C40000724B697B3D7E702E3F8F4EE03278A0018
:103C50002697B304F740C5BD9727000083A787ECDC
:103C6000BE94DDBD83278B00998F3E9531B7A1456A
:103C70002285971001E0E7808016A305A40297270C
:103C8000000083A7A7E781EF7D55F2406244D2444C
:103C90004249B249224A924A024B056182808945D3
:103CA00015458297D5B71D8FBA9499BF83278B008E
:103CB000BE94B1BF83A7C19698433706CEFF7D1649
:103CC0001377F7CF1367071098C303A7C19814475A
:103CD000370803001375F51FF18E14C783A6C1972B
:103CE00023A8060523A40700904B93F5F5071308B6
:103CF00088151366F60390CB90431366060890C3AD
:103D0000F04F137606E0498EF0CF23AC070423A0D2
:103D100007065057759A50D79043137606F84D8E84
:103D200090C31306401FF0D217260000232406205C
:103D3000172600002328061E054690C29043B705AB
:103D400033001376F6CF90C390431376F6CF136605
:103D5000062090C310474D8E10C723A80605D853E0
:103D60001317F728D8D32547F05201C6B04FE37D8B
:103D7000C7FED8531317F748D8D3A85313354500B7
:103D800082809386C1979C42B84B1377F78FB8CB4C
:103D900098431367870098C39C4393D7374889C7D4
:103DA000010001000100010003A7C1961C4393F725
:103DB000F7CF93E707101CC303A6C1981C4637072B
:103DC000CEFF7D17F98F1CC69C4237070300B8CB86
:103DD00083A7419799CBD44390479842518F98C27B
:103DE000944BDC4B9842D98F9CC29727000023A7A5
:103DF0000714828083A7C1979C438D8BE9C741112B
:103E0000B7E700E04AC003A9070026C23707200031
:103E100006C622C4AA843379E90023A0E7180F104C
:103E20000000172400001304A40F584C8D47631A98
:103E3000F7009727000083A727E8014681454545FD
:103E4000829719476391E4048347140289CB83471F
:103E500004026396970097270000A383070E584C2F
:103E6000A1476315F700930780101EB0238C0186CD
:103E7000093FB2402244B7E700E023A02711924453
:103E80000249410182809D47639BF40083471402ED
:103E9000F9D7034704028D47E313F7FC6DBF544C79
:103EA0006389E600584C6306F700584CA147E31FAE
:103EB000F7FA83471402DDFB5C4C2300F4028547CC
:083EC000A300F40265B7828043
:103EC800971100209381018E17C10120130101135E
:103ED8001305400097C5FF1F9385451217C6FF1F9E
:103EE8001306863163FAC5008322050023A0550016
:103EF80011059105E3EAC5FE17C5FF1F1305052542
:103F080002852A8309CA83830500230073007D166E
:103F1800050385056DFA82802A8311C62300B30044
:103F28007D16050365FE8280B717004003C7770535
:103F38001377E70FA38BE704130700F8A38DE704B3
:103F48003D47238CE70413075003A38CE70403C7FA
:103F5800A7051377D70F238DE70482803717004012
:103F68008347E70412054111BD8BC98F93F7F70FFB
:103F780093068008F3B6068093F6860836C60F10B7
:103F88000000930670052300D704930680FA2300E7
:103F9800D7040F1000002307F70423000704B247D3
:103FA800F3A707800F1000004101828041112A8386
:103FB8000148930E407E130F0019930F4006B34833
:103FC800030863EF1E01130300193373650285426A
:103FD800FD4363F6B2088D4F214F930E4006A1A012
:103FE8007D13336EE3039308E016630E0E00336E01
:103FF800F3039308D01663080E009378330093B840
:1040080018009388D816C29833C808084DBF93F88B
:104018001500138EF5FF637CBF02F908C29833C8F8
:104028000808B3450E08E394F5FF8545630B0300C4
:10403800B378D5038145638608009375350093B539
:104048001500F105C29533C805088945E9BFB3884D
:104058001341C29833C80808B3450E089DBF7D16A2
:10406800329879463307C70213D61700BE0733487C
:10407800080832976146B3F6C60213068070B38605
:10408800C6023697A166F58F4207D98FB71600404A
:1040980003C7F60213770708D883908303C7F6028D
:1040A80013770708E316E6FE9883B71600404DCF4E
:1040B8001307800873370780137787083AC40F10EF
:1040C800000037170040930670052300D7049306B5
:1040D80080FA2300D7040F100000232A0703834621
:1040E800170393E60608A308D7022300070422470C
:1040F800732707800F1000001166371700407D16E0
:10410800545B4C5FAD8EF18EE5FE93068008F3B6E6
:10411800068093F6860836C60F10000093067005D1
:104128002300D704930680FA2300D7040F10000059
:104138005CDB8347170393E70704A308F702230010
:104148000704B247F3A707800F10000041018280DF
:1041580003C7F60213770708D883908303C7F602CC
:1041680013770708E316E6FE98837DD391B7914746
:1041780063ECB704972702009387077CB3C5F52043
:1041880098413E97B71700409387470B028794439F
:1041980037170040B3F6A64094C39306070B9C421A
:1041A800B3F7A74019A8944337170040B3F6A640C1
:1041B80094C39306070B9C42C98F9CC29307070AB6
:1041C80098433377A74098C38280944337170040B9
:1041D800C98ED9B798433377A74098C3B71700401B
:1041E8009387070A9843498FF9BF9843498FF5B7D2
:1041F80019C5371700401E2FCD8F1EAF8280B71705
:1042080000409A2FB375B7408EAF8280B717004031
:104218009A279306000C21651377070C630ED704C1
:104228009A27137707100DC79A279E277D8B09EBCE
:1042380093F7072095CF3755E8011305058082804D
:1042480037C59812FD8B130505E03345F5028280CA
:104258009A279E2713770720FD8B11C73755E8014A
:1042680013050580DDB73725F40013050540F1BFB8
:104278003725F400130505408280B7F700E088472A
:1042880082803285814737370040A14663C3A70043
:1042980082803037E30FD6FE3386F500102285077B
:1042A80010A7EDB7970600209386C6CFAA87884245
:1042B80017270020130787E4AA9763E9E7000A870E
:1042C800130707FC6364F7009CC282807D558280D7
:1042D800411122C406C62A84153F2947B307E502BF
:1042E800B2408D83B3D7870222449507B3D7E7023C
:1042F80037370040B3C707085EA741018280716560
:1043080041111305052006C6E137B73700401307EA
:1043180070F8B8A30D47B8B31307000498B305475E
:10432800F8A7B24041018280411193962500AA85E1
:104338002D4506C697C0FF1FE780A0FCB240014587
:1043480041018280011122CC26CA939625002A8435
:10435800B284AA850146254506CE36C697C0FF1FFA
:10436800E78020FAB2462686A285294597C0FF1F16
:10437800E78020F9F2406244D24401450561828019
:10438800011122CC06CE3714004026CA4AC84EC6B0
:1043980052C483447405034AB40583498405034918
:1043A800940559368347A40593F4F40F137AFA0F4A
:1043B80093E71700230DF40493F9F90F1379F90F14
:1043C800B717004003C7A705058B6DFF03D5C705C1
:1043D800A38D4705238C3705A38C2705A38B97044A
:1043E800F2406244D2444249B249224A056182807D
:1043F800411122C406C62E849397556063DF0700D7
:1044080097C0FF1FE780605C19C1EF00D03C13150F
:10441800F468B24022444101828093F7150013C525
:104428001500E5FB8967ED8F99CFEF80512037F6AE
:104438000200130606E0896503C54186EF00906017
:104448001315D468F9B711656D8D61D5172502006C
:104458001305C54FEF10223313060064916503C599
:104468004186EF00305E1315E46865B71D71494653
:10447800972502009385C54D173502001305C5E839
:1044880086CEA2CC97C0FF1FE780C06E01E9172532
:1044980002001305254DEF10022F01A037F700E0A9
:1044A80023240700F9571CCB0564B7E700E023A0D5
:1044B8008710BD4614C323A087180F10000017E704
:1044C800FF1F1307A79A23A0E186130700F8A38A02
:1044D800E7401306C0038145480897C0FF1FE780DF
:1044E800405E97070020938727DB3ECA896793873A
:1044F8000780FC84A167938707E03ECEB7070105D4
:10450800938707103ED0ED472312F1028547230316
:10451800F10297070000938767E1BEC49707000080
:10452800938787E2BEC6930754D12314F102B7F5E7
:10453800070097070000938787D43EDA81469707DC
:104548000000938727E47000E10519453EDE97C017
:10455800FF1FE78000DB19466C001305E1025532A6
:10456800D24781C7BC8463F3870001A04808EF10D5
:104578004023AA8501C9172502001305E53FEF105E
:10458800A20C01A0F64066442561828041111705FE
:104598000000130525E606C622C4EF10E01D1384AB
:1045A800418608A0112808202244B2401306003290
:1045B800896541016F001049397106DE13078008CB
:1045C800F337078093F787083EC20F100000B7172C
:1045D8000040930570052380B704130680FA2380F2
:1045E800C7040F10000083C6F70293F6D60FA387FF
:1045F800D702238007049246F3A606800F10000016
:1046080073370780137787083AC40F100000238098
:10461800B7042380C7040F10000003C7F70213670D
:104628005700A387E70223800704A247F3A7078060
:104638000F1000008147014781460546854513054F
:10464800407EAD32680013064002814597C0FF1FC7
:10465800E7802047B707C0A83ECAB78732003ECCDC
:1046680097C7FF1F9387672A3EC6680097C7FF1F33
:104678009387272B3EC8EF10403FF250216182807C
:1046880082802A86B305B040172502001305C5307D
:104698006F00927B011122CC26CA06CE2E84B684E6
:1046A800EF009022B7470F00938707243376F5026F
:1046B80091C8B285172502001305852F32C6EF0071
:1046C800B278324622856244F240D244814505617F
:1046D8006FC0615181E9AA85172502001305452E8F
:1046E8006F0092760547639EE500AA8517250200AC
:1046F8001305852F09C617250200130525316F00FC
:10470800B27409476399E5000DE6AA8517250200EA
:104718001305C531EDB70D47639DE500AA8517253B
:1047280002001305E53261DE172502001305C534C2
:1047380045BF82803C2135476365F7321727020061
:1047480013078745B3C7E7209C43011122CCBA97CA
:1047580006CE26CA4AC84EC652C456C25AC02A8471
:1047680082879389C18603C70900A547034A450084
:1047780063EFE72C130455008144138941AA03C54C
:10478800090063E1A406A2851946336525210905B8
:1047980097C0FF1FE780602C83C50900172502001A
:1047A80013050531B3E72521850593F5F50FA3809A
:1047B80047012380B90062441386F5FF336626213A
:1047C800F24083487600034866005C32582234324F
:1047D800D2444249B249224A924A024B30220561E8
:1047E8006F009266B3E5242119468905228597C092
:1047F800FF1FE7802038631C0524850493F4F40F19
:10480800BDBFB369542117F9FF1F1309E96C890962
:1048180081441946CE854A8597C0FF1FE7808035B9
:1048280011ED850493F4F40F1909E39464FF05046A
:104838001374F40F83470A00E365F4FC83470A0006
:10484800639587041725020013050529EF00B27345
:10485800014685450D4523860186EFB0012A1725B7
:1048680002001305E5236244F240D2444249B249AA
:10487800224A924A024B05616F00F2700144138A82
:10488800C186938A41AA0D4B75B7172502001305F7
:10489800E525EF00526F938741AA0E049306240082
:1048A8003E941030BE9681450145EFB06122056601
:1048B800130606C89305000803C5D186EF009018B3
:1048C800172502001305852379BF9305000803C542
:1048D800D186EF00D03F0C30639F050C938401A66E
:1048E800BA20C167F9172E246306F7089A2C630DBE
:1048F800F700FA34630BF7062E85EFD0A1011725D0
:1049080002001305A52085B78947BCAC8EAC72247C
:10491800172502001305C520EF00125317250200C2
:1049280013054521EF003266BA20C167F9176308FD
:10493800F7009A2C6305F700FA34631AF710172565
:1049480002001305E515EF00126423860186624410
:10495800F240D2444249B249224A924A024B0146A5
:1049680085450D4505616FB0411989472388F402D3
:10497800EEB471BF72248947172502001305451A42
:10498800DCA0AEA0EF00524C8820854713060064D7
:10499800A145DCA4EF00100B88200564130604C8A9
:1049A800C145EF00300A88201306049693050004D9
:1049B800EF005009A5B7172502001305A518EF0049
:1049C800B248B5BF938401A65A21B6208147638BAC
:1049D800E600962C85476387E600F6348D47639397
:1049E800E60089475947B387E70270201725020078
:1049F80013050517BE94AE20EF0012458820F9571D
:104A080093050004BEA023820400A3850400239913
:104A180004002386040023860186EF00502B172507
:104A280002001305E507EF00125615B7624472211C
:104A38004E21F240D2444249B249224A924A024B9C
:104A4800172502001305C51305616F00F23FF240F8
:104A58006244D2444249B249224A924A024B056111
:104A68008280828039714AD806DE22DC26DA4ED668
:104A780052D42E8913975560635D072497C0FF1F92
:104A8800E780A0F42A840DC518219307000B631F43
:104A9800F700938401A63E21BA206305F7029A2CF9
:104AA8006302F704FA348949630FF7002285252346
:104AB8001315F968F2506254D2544259B259225A25
:104AC800216182808149D947B387F90209474C207F
:104AD800130A8400A697DC236388E7005285EF5009
:104AE800201DE9B78549C5B70D47638FE500054720
:104AF8006392E5021824631BF7024C241725020071
:104B08001305050DEF005234D947B387F902A6976C
:104B18002386070058209307F0076319F7000E242F
:104B2800172502001305450CEF0012325C202D47B3
:104B38006388E7020547639CE7021824A9466312C5
:104B4800D7044C24172502001305C50AEF00D22FFD
:104B5800D947B387F902A697238607004C20BDBF23
:104B68005C44172502001305E5098C23C5B74D479A
:104B78006392E7029305A005172502001305C50AED
:104B8800F1B7C9466314D7024C2417250200130550
:104B980065086DBF6D47639BE7005C4417250200FD
:104BA800130585098C23EF00322A4DBF59473387F7
:104BB800E902269738375DD3E39209FAB834854677
:104BC8006316D7061D476395E7021E2495C35C4408
:104BD80017250200130585078C339823A205D98D64
:104BE800EEA4B033B8232206598E92A8EF00D2253E
:104BF8005C201D47639AE7021830E947E390E7F61F
:104C0800FE24A9DF7C849E280947B8B47C85F977FF
:104C1800938727107C86FD57AA2003C6D1862C00CF
:104C28005C87EF40103E1DBF0547C9BF8946631228
:104C3800D70625476399E7021E2495C75C44882058
:104C48009305000298239C3313060064A207D98FAA
:104C5800BEA8238601A6FD23AE281725020013054A
:104C6800A501EF00721E5C2025476392E702183009
:104C7800E947E395E7EE8D47BCB4FE247C849E2883
:104C88007C85930720207C869307900271B705479F
:104C9800CDB78D46E314D7EC25476399E7021E2468
:104CA80095C75C4488209305001098239C3313060D
:104CB8000064A207D98FDEA8238601A66123CE2827
:104CC800172502001305C5FDEF001218A38501A6DC
:104CD80071B513F7150005C317F6FF1F1306061F56
:104CE80097F5FF1F9385C51D03C5D186EFA0F15821
:104CF80013451900C1B3AA8713F5050801C9416511
:104D08007D15EFC03141134509086DB3138401A621
:104D18001820E311F7DA93F785009DC381572A20FD
:104D28007C84239701A623A801A6854783C6D1863C
:104D380009462C003CB4EF40B049134589009DBB9F
:104D480093F70502C1C75C24A1EF97F4FF1F938472
:104D5800A42598203E282A2021CF7C840147854716
:104D680081460546C945231801007C85EF40B030CF
:104D78002AC61DC59307A0051CA12A2003C6D186F3
:104D88002C00EF40902805E185475CA49C20082072
:104D98001306006493B71700930500029CA05D21D9
:104DA8001345090201BBC9452800EF407070CDBF0B
:104DB80003C6D1862C007C84EF40702475F18547AA
:104DC8005CA49C2093B717009CA0D9BF93F705015A
:104DD80089CF2A2013078025814613064006D1452E
:104DE800EFC0D13213450901F1B193F70510B9C7E6
:104DF8005C248DEF5E282A2001477C848146894700
:104E08000946C945231801007C85EF40D0262AC6EB
:104E180011CD854404A1B24703C6D1862C00A380D6
:104E280007002A20EF40701E09E544A41345091025
:104E380051B1C9452800EF40B067CDBF13F505044F
:104E4800E30A05C62A20EFC0312C082005661306A0
:104E5800069693050004FD2613450904A1B9797146
:104E680017050000130545C006D622D426D24AD01D
:104E78004ECE52CCEF0050109384D186856588A021
:104E8800938505960945EF20004FD1451D45EF2034
:104E9800804E930540062145EF20E04D93054006DE
:104EA8003545EF20404D85470D4770009145130566
:104EB800F0405C84DC845885DC8502C6EFB051790B
:104EC8003000854513058040EFB0917813069100B6
:104ED800854513059040EFB0B1771306A1008545CD
:104EE8001305A040EFB0D1761306B1008545130530
:104EF800D040EFB0F175138401A6138921AA170ACF
:104F08000000130A6AB6F9595285EF00F00608A0A6
:104F18002311340123020400A3050400230604001E
:104F2800231904002317040023180400231A04007B
:104F38005904E31B24FDEF50D0018820EF50C03006
:104F480022548820B25092540259F249624A854547
:104F5800456117E3FF1F670083C24111114506C66B
:104F6800EFE0DFFF1305503497B0FF1FE7800070B4
:104F7800B7170040116723ACE70AC1450545EFF0B4
:104F88002FA785452165EFF08F9E8D451165EFF0C0
:104F98000F9EEFF0CFB6172502001305E536EF0098
:104FA800827EEFF0AFCCEFF06FDEEFC01119453D18
:104FB80097C0FF1FE7802099184183A785FF6319D1
:104FC800B7001CC1FD5723AC05FE238FF5FE828078
:104FD800232CF6FEC5BF411122C437E400E026C2E7
:104FE80004403707200006C6F98C2320E4180F1068
:104FF800000009E9232094101545B2402244924448
:10500800410182800347E5FF9307F00F6306F7002D
:10501800232094101145D5B797D0FF1FE780E052A1
:10502800014523209410D1BF41114AC037E900E05F
:1050380022C403240900B707200006C626C27D8CB7
:105048002320F9180F10000089E523208910154541
:1050580015A0AA849717002083C717A42E8563F587
:10506800F400894763EE9700BD37B7E700E023A057
:1050780087100D45B2402244924402494101828082
:1050880083A785FF99E703C7E5FF9307F00F630838
:10509800F7009137B7E700E023A087104DBF238FB3
:1050A80095FE1385018797C0FF1FE780408AA16599
:1050B800268597E0FF1FE78080AC014523208910F3
:1050C80055BF23A8018682804111B7E700E026C2B8
:1050D80084433707200006C622C4F98C23A0E718AA
:1050E8000F1000009717002083A7879F13848180E3
:1050F80091C782971C40AA971CC021A083A701884A
:10510800EDFB0840B74703009387D73F3305F50207
:10511800B7A72600938737ECB2403E9508C02244D3
:10512800B7E700E023A09710924441018280B7E7D7
:1051380000E09843B706200023A0D718758F0F10FA
:1051480000009716002083C63695637ED50083A697
:10515800C1883325D5201621B3F5B6400EA123A06A
:10516800E7100145828023A0E7100D458280797100
:10517800B7E700E026D284433707200006D622D4BA
:105188004AD04ECE52CCF98C23A0E7180F1000005D
:10519800930705FF93F7F70F7D47636FF7083147CC
:1051A8003307E50283A70189BA979C43D1C71354F3
:1051B80045003D893315A028AE89B34505082285E9
:1051C8002EC697E0FF1FE780E0892A8929C9B245E2
:1051D8002285171A0020130AAA93913F83A70188F2
:1051E80082978357CA002A84814633873703130678
:1051F8000064B3B7370313050732B335E500BE952E
:10520800EF00E20AB307850083268A003E8763E43D
:10521800A70063E4D7003387D7402324E900B7E722
:1052280000E023A097100145B2502254925402592D
:10523800F249624A45618280B7E700E023A09710EF
:105248000945DDB7797122D437E400E04AD0032953
:105258000400B707200006D626D24ECE52CC56CA36
:105268005AC85EC63379F9002320F4180F100000DD
:105278009717002083C757826376F50083AB0188B0
:1052880063970B00B7E700E023A0271199A0971AAE
:105298000020938AEA8703AB8A00B74736FE9387D4
:1052A80007C83E9B83D7CA002E8AAA84B385C70243
:1052B800B2898146B3B7C70213850532B335B50045
:1052C80013060064BE95EFF0917E6370AB02232055
:1052D80024110145B250225492540259F249624AAB
:1052E800D24A424BB24B45618280829B83D7CA0027
:1052F8002A8413060064B38537038146B3B737039E
:1053080013850532B335B500BE95EFF0517AB30772
:10531800850003A78A003E8463E4A70063E4E700EE
:105328003384E740D285268597D0FF1FE7808073B6
:1053380001C900C5B7E700E023A02711054559BFFB
:1053480093E504F04145B3C5050897D0FF1FE780F2
:10535800601311E99707002083A7877985D7A68569
:105368001145829705B7138781881C4389EF08C3C5
:1053780085472326050000C52311450104A11CB15A
:105388002322050045BF3E87DC47F5FF48C7CDB758
:105398007971B7E700E026D284433707200006D6A4
:1053A80022D44AD04ECE52CC56CA5AC85EC662C41F
:1053B80066C2F98C23A0E7180F10000025C12A89BE
:1053C8002E8AB28AB6894144B14C138B0189130CD9
:1053D8000003B30B940383270B00DE979C43B9EFBC
:1053E800135544409375F40056861375F50FB3159D
:1053F800B028B3C50508B93531C183270B00DE973E
:1054080023A0270123A24701638409002380890080
:10541800B7E700E023A09710014521A023A097102B
:105428000945B250225492540259F249624AD24A6A
:10543800424BB24B224C924C456182800504E31AE0
:1054480084F9B7E700E023A097102145D9BF0111DF
:1054580022CC37E400E026CA04404AC84EC652C4EB
:1054680006CEB70720002A892E8AB289FD8C232010
:10547800F4180F100000F933D2854A8597D0FF1F22
:10548800E780405E01ED232094102145F2406244FC
:10549800D2444249B249224A0561828097070020D6
:1054A80083D7C767B38537032A8913060064814603
:1054B800B3B7370313850532B335B500BE95EFF0A2
:1054C800115F2322A900232094100145C1B70111BF
:1054D80026CAB7E400E04AC803A9040022CC4EC695
:1054E800B707200006CE52C4AA892E843379F90062
:1054F80023A0F4180F10000097D0FF1FE7808056F4
:10550800170A0020130A4A591DE1A2854E85053164
:1055180083470A006380370523A024111945F24008
:105528006244D2444249B249224A05618280231129
:105538000500A2854E85E53E83470A00638637014C
:1055480023A024110145E1BF1387A1871E23C18F22
:105558001EA3FDB79387A1879A23598C82A36DBF99
:1055680001114AC837E900E022CC03240900B70733
:10557800200006CE26CA4EC67D8C2320F9180F10AF
:1055880000009307F00263E5A704B144B304950251
:105598009389018983A70900A6979C4395CB9375A6
:1055A800F5001181B315B028B3C505080D3783A7D9
:1055B80009000145A69723A0070023A2070023207E
:1055C8008910F2406244D2444249B249056182805E
:1055D800B7E700E023A087100945E5B74111B7E711
:1055E80000E026C2844306C622C437072000F98C8F
:1055F80023A0E7180F10000097D0FF1FE780804610
:1056080019E90145B2402244B7E700E023A097100A
:10561800924441018280004583A7018882979707B9
:1056280000209387E74E6367A4029847B74636FE83
:10563800938606C83305A4403697E374E5FC130740
:105648000064B335E502D22781463305E502EFF061
:1056580011464DBF98473A94C9BF411106C623AEBB
:10566800A1860295B2409707002023A3A7440145CD
:1056780041018280411151468145170500201305DB
:10568800E54706C622C426C223A4018823AE0186A4
:1056980023A00188238C018623AA018697B0FF1FC7
:1056A800E780204213068002814517050020130574
:1056B800A53E97B0FF1FE780C040EFC0E1319707D4
:1056C80000209387E73FE82BFC3B170400201304D6
:1056D800A43C85453E958D473305F502994793844B
:1056E800018939051375F50F28A03305F50213054F
:1056F80005243345050897D0FF1FE780A0D888C048
:105708003DC53020994781453306F6021306062425
:1057180097B0FF1FE780E03A9C4038209384418887
:10572800938707249CC0B347F72023A6F188EFF09E
:105738005F9921291C30944017D6FF1F1306A62A0B
:1057480033C7D72010C3138717001377F70F17D65F
:10575800FF1F130626233347D72010C313873700AC
:10576800890718B093F7F70FB3C7D72090C3B24093
:105778002244924441018280970600209386C631D4
:105788002A87BC228832637BF5001306150083A79D
:10579800418890B2B347F52098C382801305F00F73
:1057A80082801C41F5C7370700F07D8FB7060020BF
:1057B80089476310D70E5A21411122C406C62A848C
:1057C80079C319469305F00F690597B0FF1FE78065
:1057D800804205478D476308E50A1C4491C758581D
:1057E800994755C3185C45C31306C003814517057F
:1057F80000201305E52C97B0FF1FE780802C1306C7
:10580800C003A285170500201305852B97B0FF1F3D
:10581800E780A024970700209387872ADA2701E7E3
:1058280013070010DAA7F82719E30547F8A79A2BFA
:1058380019E36D479AABF83719E31547F8B7B82B52
:1058480019E30547B8ABB83B19E3F837B8BBD83B01
:1058580011C7937637000983F4ABF8BBD82B19E34B
:105868005547D8AB182C01E71307C00398AF9C57CE
:1058780091C78297970700202394A722FD57238A70
:10588800F1A0CD3B8147B24022443E854101828050
:1058980089473E85828079714ECE97090020938989
:1058A800292783A7090006D622D426D24AD052CC6B
:1058B800829713090064B335250303D6C9008146CE
:1058C800170A0020130A4A1D32C633052503EFF0D4
:1058D800111E83248A012A84014563868402324684
:1058E8003305944063EF840003A589008146B335EE
:1058F800A9023305A902EFF0911BB3079540338540
:105908008700232C8A00B250225492540259F2493B
:10591800624A45618280011122CC0A852E84414663
:1059280097150200938545FE06CEEFE08FDD180837
:105938003324E420035704FFF24062449707002011
:1059480083D7E71D37450F00BA971305052433554C
:10595800F502056182809707002083D7471C5147CD
:105968001D45637CF702794719456378F7021307E9
:10597800200315456373F7021307B0041145637ECE
:10598800F700130740060D456379F7001307600910
:1059980009456374F70013B5B70F8280411122C41B
:1059A80026C22E84AA8406C6058CEFF0EFF1B32731
:1059B800A402B2402244338597001375F50F924430
:1059C80041018280411122C426C22E84AA8406C6BF
:1059D800058CEFF06FEFB327A402B2402244338561
:1059E800970033450508924441018280411122C441
:1059F80026C22E84AA8406C6058CEFF0EFEC333558
:105A0800A402B24022442695924441018280411169
:105A18004AC0170900201309A90A8327890206C664
:105A280022C426C28DCF8297970400209384C4068F
:105A38009E242A848DC733F7A70A33470708B3D7AC
:105A4800A70AB3C70708B307F74051476359F700D8
:105A58008327C90291C38297EF70613D82A4B24047
:105A680022449244024941018280011122CC23AA96
:105A78000188170400201304A4045C5406CEAA85E8
:105A880081C72AC68297B245C1C59C410545ADCF9D
:105A98009C45BDCBDE25ADCBFE25BDC79C2981CB62
:105AA8007C287838BA976341F506DC41B1CF1306F4
:105AB8004002170500201305A50597B0FF1FE780D2
:105AC800C0F9970700209387A704984323A0E1888B
