:040000006F3090517C
:100004000000000000000000A00000200C080020F8
:10001400A9BDF9F3E0010020000000000000000089
:10002400E0010020A000002000000000000000000B
:10003400A000002000000000A0000020000000003C
:10004400A0000020A0000020A0000020A0000020AC
:10005400A00000208C080020A00000200000000068
:10006400A0000020A0000020A0000020A00000208C
:1000740038090020A0000020A0000020A0000020DB
:10008400A0000020A00000204E090020A0000020B5
:10009400A0000020A0000020A0000020A00000205C
:1000A40001A0B7170040984B41111367070198CB83
:1000B400982B1377E70F98AB1307800873370780E3
:1000C400137787083AC601000100130770052380DF
:1000D400E704130780FA2380E70401000100B8470E
:1000E400894613675700B8C703C7B7041377F70DDA
:1000F400A385E704B82713672701B8A7130750148B
:100104009AA737270040A303D78003C7E7041377D0
:10011400C70F136717002387E704982B136717008B
:1001240098AB23800704B247F3A7078001000100BE
:1001340041018280EFF0FFF61305401E9705000091
:100144009385450A17460000130606BD63FAC500E9
:100154008322050023A0550011059105E3EAC5FE9D
:10016400175502E01305851F974500009385C5BA0E
:100174001386C18E63FAC5008322050023A05500AF
:1001840011059105E3EAC5FE1385018F97750000FB
:100194009385C59E6377B500232005001105E36DA3
:1001A400B5FE93025002739002BC8D42739042805C
:1001B4008542739012BC93028008739002309702B8
:1001C4000000938222E493E23200739052309752FB
:1001D40000E09382827E739012347300203000001A
:1001E4009305000273A045808245739015349240B4
:1001F4002242B2424243D2436244F24402559255EF
:100204002256B2564257D2576258F2580649964976
:10021400264AB64A464BD64B664CF64C065D965D6E
:10022400265EB65E465FD65F096173002030230305
:10023400048015472303E48001002302A480828004
:1002440083076480E3CE07FE230304808280830750
:100254006480E3CE07FE0345448082808307648084
:10026400E3CE07FE2302A4808280411126C44AC241
:100274004EC006C61377F50BAD47AA892E8995445F
:100284006306F70019456537653F8D444E8545374C
:10029400FD59FD1463983401B240A24412498249C5
:1002A40041018280135509011375F50F453F220959
:1002B400CDB7011126CC06CEB70408005137154539
:1002C400BD37713769372AC6A53F32459377150084
:1002D40089EB136515001375F50FF240E2440561CF
:1002E4008280FD14E9FC0145CDBF397126DC4ADA70
:1002F4004ED852D656D45AD25ED006DE62CE66CCE2
:10030400B7E700E07D5783AA070022C603AA470087
:1003140023A0E71823A2E718B717004013077005B6
:100324002380E704130780FA2380E70483C7470484
:10033400930B75FFB684E20793FBFB0F8546AA89EE
:100344002E8B328937240040E187015763FA760106
:100354006308D5008946130700026313D5000157CB
:10036400D98F93F7F70FB71C00402382FC04114781
:100374002303E4801305F00F5D3D094CD135636D13
:100384007C11B7050700DA9537870700795563F2C2
:10039400E504B3879500636EF702370B0800A9479D
:1003A40033EB65016399F90689E48144513D26855F
:1003B4000DA0DA850945553D05090345F9FFFD14EE
:1003C400050B693D81C49377FB0FFDF7DD3569FDAE
:1003D4007D55B7170040130770052380E704130702
:1003E40080FA2380E70403C74704418B2382E70490
:1003F400F250B7E700E023A0571123A24711E254BB
:1004040032445259C259325AA25A125B825B724C1C
:10041400E24C21618280A5476395F9068569130939
:10042400F00FB3069900B3742B01B6941349F9FF86
:10043400B3749900856B33796901416B9387F9FF34
:10044400B3F7270199E363FC340193D94900C14709
:10045400E3E637FF99BF0569C1697D19D9B713056B
:10046400800D638869011305000263847901130513
:100474001008CA85DD3B353D21DD4E99B3843441F6
:10048400D9B7DA852D45D533CA94E30099F2050925
:100494007D3BA30FA9FED5BF9387F9FF93F7F70F11
:1004A4006361FC0C83C71C0413073008631FF70443
:1004B40037070800636BEB04B3079B00B706100013
:1004C40063F5D704334BEB0089476393F9068980BE
:1004D400D549E38C04ECDA850945413B110903272E
:1004E400C9FF91472320E48003076480E34E07FE9D
:1004F40023033481FD17EDFBFD14110B81C49377A5
:10050400FB0FE9FF7D3371F5E1B5B717004003C771
:100514005704B70708001377070219E3B7870700E2
:100524007955E378FBEA33079B00E3FFE7F855B519
:100534008547E382F9F2DA852D45053B9389F4FF7B
:10054400E38504E6293393F7390091EB832604808D
:100554000327090093074900E39AE6E43E89CE8421
:10056400F1BFB5476396F9001305900BC93135BD4A
:10057400B1471305B00AE38BF9FE99476391F90477
:10058400B7050800B365BB002D45C53181448D4BCB
:10059400A149753963967401832704802320F900E7
:1005A4008504E39834FF8327048013172B016355D4
:1005B40007002312F900D5BB2322F900FDB39D47A0
:1005C4006399F90281451305B0044531BD442320E4
:1005D400090023220900FD599D3993F77400CA9735
:1005E40003C70700FD14398D2380A700E39634FF69
:1005F4006DBBA1476392F9046D398144630D0B000F
:100604008D479304C0036308FB009304000563044F
:100614008B01930440041375C507E30895D8194565
:10062400393139390545213126850D3909453D31A1
:100634004931E31C05D669BB91476399F900130559
:100644006006F536F53E130590090DB7E38F09D41E
:10065400F154A9BB4111B7170040985F3AC6945FA3
:100664003247E39CE6FE324541018280B7170040E1
:10067400984B41111367070198CB982B1377E70F19
:1006840098AB1307800873370780137787083AC637
:1006940001000100130770052380E704130780FAA3
:1006A4002380E704010001001307000C6315E50231
:1006B4009A271367070C9AA7B7170040982B13675C
:1006C400170098AB23800704B247F3A70780010003
:1006D400010041018280B82793760520DDC2118B89
:1006E40029E303C7E70403C6E7041377F70F136688
:1006F40036002387C704B02713664600B0A79227A5
:100704008E273346060893E5050C8EA7A5470100FE
:10071400FD1793F7F70FE5FFB717004092A723875C
:10072400E70493770510D5C7371700403C2793E7B4
:1007340007013CA79377F501A9EBB727004003C74E
:10074400578013670701A382E7801D47A383E780CF
:1007540033450508B71700401367050C9AA78AA705
:10076400D5C203C7570483C65704418B858A558F66
:1007740021F7B82B418B29D3B8271377D70FB8A704
:1007840025BF13672700B8A769BF2547636CF70027
:10079400B727004003C757801377F70EA382E7807B
:1007A40005476DB79377050199EBB727004003C759
:1007B40057801377F70EA382E780094741BFB72715
:1007C400004003C7578013670701A382E7800D47E2
:1007D400B5BF9377850181EFB727004003C75780E2
:1007E4001377F70EA382E7801307100585B7B727A1
:1007F400004003C757801377F70EA382E7801307DF
:100804007005A9B7B8271377B70F95BF4111814673
:10081400014681451145D13C13078008F337078011
:1008240093F787083EC401000100B7170040130680
:1008340070052380C704930680FA2380D70401003F
:100844000100FD55CEB723800704A245F3A505801A
:100854000100010073370780137787083AC6010047
:1008640001002380C7042380D7040100010003C7CB
:100874006704136717002383E70423800704B24740
:10088400F3A707800100010001A00000197106C24E
:1008940012C416C61AC81ECA22CC26CE2AD02ED2FC
:1008A40032D436D63AD83EDA42DC46DECAC0CEC2AC
:1008B400D2C4D6C6DAC8DECAE2CCE6CEEAD0EED2DC
:1008C400F2D4F6D6FAD8FEDA9385818F8841E70010
:1008D400050092402242B2424243D2436244F2446F
:1008E400025592552256B2564257D2576258F25880
:1008F40006499649264AB64A464BD64B664CF64CB0
:10090400065D965D265EB65E465FD65F096173003E
:1009140020304111B7170040985F3AC6945F3247C0
:10092400E39CE6FE324541018280B7E700E03707E9
:10093400001023A0E7208280B717004013070003AC
:100944002388E702854723A0F19073002030B74540
:10095400004083C745C0994613F7F70FBD8B6388E2
:10096400D7029377770011476395E70203C6A5C0C2
:10097400138541B3938585C0975000E0E780409587
:100984003345050805E58547A388F19219A083C777
:1009940055C073002030834687C0850793F7F70F4F
:1009A40014A28346A7C0E3E8D7FEF1BF81473747C7
:1009B400004013860193F5B7411106C6552B975095
:1009C40000E0E780E0D8DDBF23AC05FE1C4199E3DD
:1009D4000CC182803E8783A787FFEDFF232CB7FEDF
:1009E4008280411126C2B7E400E04AC003A9040092
:1009F400B707200006C622C43379F90023A0F418EF
:100A04000F10000009E523A02411014535A09565C8
:100A1400938505D0C98D2A842105B3C505083345BE
:100A24000508EF10901D65D1FD572320050042A154
:100A34007CA123A024112105B240224492440249FE
:100A4400410182804111B7E700E04AC003A90700D1
:100A540026C23707200006C622C4AA843379E900D7
:100A640023A0E7180F10000083A741930144014617
:100A740085E301C8A28513854193975000E0E78080
:100A8400C0F9A1652685975000E0E780604A0DA073
:100A940003C7E7FF6319970205CCA2851385419329
:100AA400975000E0E78060F7A1652685EF20800479
:100AB400B24022852244B7E700E023A027119244E4
:100AC40002494101828011E03E8683A787FF4DB72A
:100AD4003E84E5BF37E700E01C43B706200023202F
:100AE400D718F58F0F10000019C191C111E637E72F
:100AF40000E02320F71082802E960F70B650D5BFE9
:100B040037E700E01C43B70620002320D718F58FF1
:100B14000F10000019C1014785E137E700E02320E9
:100B2400F7108280B386E50003A80600B306E5004B
:100B34007D1623A00601110775F6C5B737E700E057
:100B44001C43B70620002320D718F58F0F10000090
:100B540001C53307C50011E637E700E02320F7108D
:100B640082800505A30FB5FEE31DE5FEF5B7B7E6E4
:100B740000E09C42370620002A87F18F23A0C61884
:100B84000F1000000145B306A7008386060091E616
:100B940037E700E02320F71082800505EDB7011147
:100BA400B7E700E026CA84434AC83707200006CEC8
:100BB40022CC2A892E86F98C23A0E7180F10000076
:100BC4009305F00432C633450608EF1010032A8457
:100BD40001C53246CA85FD3DF24022856244B7E72D
:100BE40000E023A097104249D2440561828037E790
:100BF40000E01C43B70620002320D718F58F0F1000
:100C0400000001C599C1014711EA37E700E023203C
:100C1400F710054582800507E309E6FE3308E50081
:100C2400B386E500034808009422E306D8FE37E7BC
:100C340000E02320F7100145828037E700E01C43E1
:100C4400B70620002320D718F58F0F1000001307D4
:100C5400F6FFBA952A966317C50037E700E023200C
:100C6400F71082809821FD150505A30FE5FEE5B771
:100C740037E700E01C43B70620002320D718F58F80
:100C84000F10000001C53307C50019E637E700E07F
:100C94002320F7100145828014210505E398B6FE50
:100CA400E31CE5FE37E700E02320F71005458280CA
:100CB400797126D29384C19422D4804006D64AD036
:100CC4004ECE52CC56CA5AC85EC662C445C837C94D
:100CD400C901814B938A41941309F937176B0000BA
:100CE400130B4B869769000093894983176A0000A8
:100CF400130A4A8A3E2099EF5C44639A0B009CC015
:100D0400032CC4002285EF10A07B6284A9A823A62B
:100D1400FB00FDB783A70A0082971C443307F54004
:100D24006376F50003278A001D8F2A97636BE90613
:100D34009757000023AC077E2E200820EF10905B0D
:100D44005C405844A1CB0C4417660000032606857A
:100D5400AE97BE8663E4B70063E4C700B386C740BA
:100D640014C4A28B3A8459F4175700001307077B65
:100D74001C4B854663FBF604FD171CCBB250225472
:100D840092540259F249624AD24A424BB24B224C23
:100D94004561828063940B0098C09DB723A6EB0045
:100DA40085B703274B0219CB63EDA7003385A74012
:100DB40083A709016374F50023A8A900A28B40440A
:100DC4005DB703278A00BA97D5B79757000023AFBA
:100DD40007746DB70111B7E700E04AC803A907001B
:100DE4003707200006CE22CC26CA4EC652C4337919
:100DF400E90023A0E7180F10000097540000938423
:100E040064799C288844A9CF97670000938707AA30
:100E140003D7C70A31C703A4870A6303A4049759F5
:100E240000009389A96F83A709016388A70E138A19
:100E3400419483270A008297636EA40C83270A00D7
:100E4400098C829783A7090198443354F40AB307A1
:100E5400A4003E8563E4870063E4E7003385E7404C
:100E6400B7E700E023A027119C44639BA702175413
:100E740000001304A46A184883A741946311A70AC5
:100E840082979444374736FE130707C83697B3074B
:100E9400A7003E8563E4E70063E4D7003385D740C9
:100EA40017640000130484C35C5C89CB83A681A609
:100EB4009C463707CDFF7D17F98F9CC611E1884406
:100EC40085475CD09757000083A7076A829715E18E
:100ED4005C5C99CF5C5089CF97B001E0E780202417
:100EE40097B001E0E78020AB9767000023AA07C012
:100EF400C1335C5C81CB03A781A61C47B7063300D2
:100F0400D58F1CC7F2406244D2444249B249224AB6
:100F1400056182809C443E9415B7228591B78297DF
:100F240014489844B387A6003E8563E4D700E3E9F8
:100F3400E7F63385E740ADB723ACA19201C58547F9
:100F4400238EF192828083A7819381CF411106C6BB
:100F5400829783C7C19399E323AC0192B2404101C4
:100F6400828083C7C19381E723AC0192828082800F
:100F7400411122C426C206C64AC097640000938465
:100F8400E4B583C73402175400001304645FB9C383
:100F9400175400001304845813890195032709008A
:100FA4001C2014300146B3A5E7208E21B5C911C217
:100FB4001CA00820636DD5069757000023800756B0
:100FC40083A74194D5E7B2402244924402494101A7
:100FD400828082971C40F5FF9757000083C7875C87
:100FE40085E3DC48858B89CFD84C9947631EF7008D
:100FF4009767000023AE07AEEF1060095C44829748
:101004001C44D9D7829769B7D84C9D47E31AF7FE99
:101014009767000023AE07ACEF1060071C48C5B704
:10102400850793F7F70F0546E3EFD7F651B7332754
:10103400E5200E2323100700239F019283A78194A8
:10104400B347F5209C4382971C208326090003D7CD
:10105400E1933377E540B3A6D7209222518F9AA229
:1010640099C385071CA018201C30E36EF7F4A9B7B8
:101074009757000083A787521CC81D3983C73402C1
:10108400B9F383C7140299CBDC4C89EB9767000052
:10109400A38607A697B001E0E78040AC975700000D
:1010A40083A7874C8DD3D84C9147E3EEE7F097574D
:1010B400000083C7277E918BE39707F083C7C19312
:1010C400E39307F018308326090063C8E70022443D
:1010D400B240924402494101F5B933A6D720122205
:1010E400E31306EE8507D5B7B7C700401387C720BB
:1010F40014431396264910C30100010093878726E1
:1011040017550000032545439C436A0514C393C740
:10111400F7FF99835D8D8280411126C29764000098
:101124009384C49B9C4422C406C6858B1754000038
:101134000324047EA1C718289767000023A4079AF4
:101144008947630DF7020146930550020145EF10EC
:10115400E01E014681450545EF10A007DC44858B60
:1011640091CF2244B24092448145174501E01305D2
:1011740085C14101175300E06700E3F5EF20102516
:1011840022852244B240924441016F10F02F9757B8
:10119400000083A7A77B6399071C011122CC2A8432
:1011A400094506CE26CA4AC84EC6938481A5EF20B7
:1011B40010299040930780071389C1A47CD2832708
:1011C4000900938981A6B7053300D8572285719BFE
:1011D40013671700D8D798431377F7CF98C398436A
:1011E4001377F7CF1367072098C303A709001447A1
:1011F400CD8E14C7B70603009386862534CA545788
:10120400F59A54D798433424137707F893F6F607DE
:10121400558F98C3EF10B03C9440370500827D157C
:10122400DC4293E71700DCC20326090003078406A7
:101234005C569375F703E605E98FCD8F5CD693056D
:10124400A00383A7090063D9E50AF84FB70500078F
:101254004D8FF8CFB7C7898E938767ED1CC6B757F4
:101264005500938757555CC28347A40683494406B7
:10127400B3E9F900894717670000232FF7869767BA
:10128400000023A307867C44BCDE9757000083C775
:101294006731D9CFFC52FDFF0C384E8597670000AB
:1012A40023A20784EF00106B18289D471725000020
:1012B400130565F26306F70017050000130505E63C
:1012C400A5398327090098431317772998C3D8575A
:1012D400719BD8D79767000023AC078097670000FD
:1012E40023A007809C40F2406244094798C3D2443B
:1012F4004249B249056182809305200263DAE50020
:10130400F84FB70500F9FD156D8FB705000589B7CE
:10131400B70500F96945FD156357E500F84F6D8F72
:10132400B705000335B7F84F6D8F1317872915B725
:1013340018289D478145172500001305C5E9630654
:10134400F70017050000130565DD975000E0E780FE
:1013540080D810386244F240D2444249CE85B24922
:10136400014505616F00F0668280975700009387FE
:10137400E753E853054754256390E60203C747073C
:101384009147631AF700011106CE2AC6EF10900B9D
:101394003245F2400561E5BB828083278511E5CBA8
:1013A400411122C406C658258345E5049437D22743
:1013B4002A841377C70F1395466063F7C5066351F4
:1013C4000506882793F6F60794B705469366270023
:1013D4006314C5009366170054A4D8430907D8C3FF
:1013E400032504114CB82E86CC430905EFF08FEE8B
:1013F400832784115438D8433697D8C3DA27158FF6
:10140400DAA789473CBC034764039757000083C7A6
:1014140087146369F706B240224401454101828082
:101424001367170058A46DBF9376F60F6355050232
:1014340088278545136627006314B50013661700D3
:1014440050A454B8A384070085473CBC8327841167
:101454009C43D5FBC9B71367170058A454B8A38499
:10146400070003250411CC430905EFF0AFE68327F9
:1014740084115438D8433697D8C3DA27158FDAA79E
:101484008D47E1B75C2493E707015CA469B7054580
:101494008280411183A741A322C406C6858B2A8476
:1014A400C5E74165130525F5975001E0E7806056CF
:1014B40041CD3C253EA583270412ADE32320A4128D
:1014C4002322A41285472311F404232005007C2839
:1014D40054415EA5583418A5054718B5138517025D
:1014E400175700000327476315811C437D151375A7
:1014F400F50F9CC25C43DCC21C479CC65C47DCC63F
:101504001C4B9CCA5C4BDCCA1C4F9CCE5C4FDCCE93
:101514000DC19386060213070702C1BF8327441235
:1015240088C3835724042322A4128507B3C707085A
:1015340059BF17570000130767371E2785071EA7D3
:10154400B2402244410182805C2423090400054501
:1015540093C747005CA4EDB7142D854763ECD70A05
:101564001C3D2A870145CDEB5C2713F507013C2B75
:1015740099CB834667039757000083C7D7FD63EC75
:10158400F60001E5828049E582808357271E0357D0
:10159400671EBA9721A08357271E75F90145ADCF61
:1015A4009387C71217550000035585FFB3B5A702EB
:1015B40037460F00411113060624814622C426C271
:1015C40006C67D543385A702972002E0E780008990
:1015D4009754000083C494F8AA949757000083A7F3
:1015E400273603A707099C433354E40AFDFB83A76A
:1015F4004194829781476364A400B307A440B24036
:10160400224433B59700134515009244410182806A
:101614008147B5BF01458280828003A781A53C5BD9
:10162400FDFF01000100828035C901116C0022CC4C
:1016340006CE2A84EF20403429C9FD57630CF504F3
:1016440017570000130707F05453B2479DC22547AC
:10165400637BF700938567FF034594026244F2407D
:1016640005616F10004D17570000032727F3BA9741
:10167400D5B70C3F63E5B700B385B740F1BF175743
:1016840000000327A7F1BA97C5BF6244F240056181
:101694006F109073F2406244056182808280797198
:1016A40052CC175A0000130A6A2026D283244A090E
:1016B40006D622D44AD04ECEC5C897570000938789
:1016C400E741D44F15476384E604DC532A8989CF64
:1016D40097B001E0E780A0A497A001E0E780A02BE9
:1016E4009757000023AE0740FD596C002685EF2074
:1016F400A0281DE517250000130545EDEFF0DF8355
:1017040083A781A53707100098C70547B8DB0D45A7
:10171400B250225492540259F249624A456182807D
:10172400637435013244AA898440E1F0FD571305FE
:10173400F00FE38FF9FC914763F187029307B4FF3D
:101744002320F9002324FA0A99E79757000083A776
:10175400E7E42320F900014565BF9757000083A7FC
:10176400E7E3ED17A297E9BF09455DB7797126D282
:1017740006D622D44AD04ECE52CC56CA5AC85EC6D9
:101784008347550303447513AA843E941374F40FDA
:101794009307400263F687001304B4FD1374F40F37
:1017A40003A9841383A9C413A38B841222864A85B4
:1017B400CE85971002E0E7800028058915E503CB64
:1017C400D412014A814A337B6403930B500252863C
:1017D4004A85CE85971002E0E780E02505890DC58E
:1017E40063916A031374FA0F238B8412B250225448
:1017F40092540259F249624AD24A424BB24B456171
:101804008280850A939A4A60050AE3127AFDE9BF49
:101814008327850903560504797193D60701BD8E84
:10182400B3C60608358E93575640898B13577648AE
:101834005D8F93573640918B5D8F93571640A18BE4
:101844005D8F93171600C18B5D8F9317360093F746
:1018540007025D8F9317560093F707045D8F931764
:10186400760093F7F70F22D45D8F2A849357D6001E
:101874001355B6001189898B93558600C98F13556A
:10188400F6002582C98F218AD18F13961500418ACB
:10189400D18F1396350013760602D18F1396550017
:1018A40013760604D18F139675001376F60FD18F35
:1018B400A207C5455D8F3307B70226D24AD04ECE64
:1018C400032984138329C4135AC806D652CC56CA92
:1018D40036973347070813565740098A9357774872
:1018E400D18F13563740118AD18F13561740218A4E
:1018F400D18F13161700418AD18F13163700137630
:101904000602D18F1316570013760604D18F1316CF
:1019140077001376F60FD18F1358B7001356D700FC
:1019240013784800098A1355870033660601135853
:10193400F700258333660601218B518F131615009A
:10194400418A518F1316350013760602518F1316F0
:10195400550013760604518F131675001376F60F8F
:10196400518F2207D98FB387B7025EC6B697B3C724
:10197400070813D55740098913D77748498F13D5DA
:1019840037401189498F13D517402189498F139501
:1019940017004189498F1395370013750502498F44
:1019A4001395570013750504498F13957700137524
:1019B400F50F598D13D8B70013D7D7001378480003
:1019C400098B13D687003367070113D8F700A58363
:1019D40033670701A18BD98F13171600418BD98F59
:1019E4001317360013770702D98F1317560013778E
:1019F40007041E06D98F1376F60FD18FA20733671B
:101A0400F5003307B702130650024A85CE85369790
:101A1400B98EB3C4060833F6C402137BF60F9710CD
:101A240002E0E7804001058905E9834AD412014AAE
:101A3400930B5002B38A9A02814493DA0A012686F0
:101A44004A85CE85971002E0E780E0FE05890DC542
:101A540063914A0313FBF40F230B6413B250225413
:101A640092540259F249624AD24A424BB24B4561FE
:101A74008280050A137AFA0F8504E39274FDE9BFA4
:101A84008327C50803568508797193D60701BD8E4F
:101A9400B3C60608358E93575640898B135776483C
:101AA4005D8F93573640918B5D8F93571640A18B72
:101AB4005D8F93171600C18B5D8F9317360093F7D4
:101AC40007025D8F9317560093F707045D8F9317F2
:101AD400760093F7F70F22D45D8F2A849357D600AC
:101AE4001355B6001189898B93558600C98F1355F8
:101AF400F6002582C98F218AD18F13961500418A59
:101B0400D18F1396350013760602D18F13965500A4
:101B140013760604D18F139675001376F60FD18FC2
:101B2400A207C5455D8F3307B70226D24AD04ECEF1
:101B34000329040A8329440A5AC806D652CC56CA31
:101B440036973347070813565740098A93577748FF
:101B5400D18F13563740118AD18F13561740218ADB
:101B6400D18F13161700418AD18F131637001376BD
:101B74000602D18F1316570013760604D18F13165D
:101B840077001376F60FD18F1358B7001356D7008A
:101B940013784800098A13558700336606011358E1
:101BA400F700258333660601218B518F1316150028
:101BB400418A518F1316350013760602518F13167E
:101BC400550013760604518F131675001376F60F1D
:101BD400518F2207D98FB387B7025EC6B697B3C7B2
:101BE400070813D55740098913D77748498F13D568
:101BF40037401189498F13D517402189498F13958F
:101C040017004189498F1395370013750502498FD1
:101C14001395570013750504498F139577001375B1
:101C2400F50F598D13D8B70013D7D7001378480090
:101C3400098B13D687003367070113D8F700A583F0
:101C440033670701A18BD98F13171600418BD98FE6
:101C54001317360013770702D98F1317560013771B
:101C640007041E06D98F1376F60FD18FA2073367A8
:101C7400F5003307B702130650024A85CE8536971E
:101C8400B98EB3C4060833F6C402137BF60F97105B
:101C940002E0E78040DA058905E9834A1408014A2D
:101CA400930B5002B38A9A02814493DA0A0126867E
:101CB4004A85CE85971002E0E780E0D705890DC5F7
:101CC40063914A0313FBF40F230F6407B2502254A9
:101CD40092540259F249624AD24A424BB24B45618C
:101CE4008280050A137AFA0F8504E39274FDE9BF32
:101CF400797122D426D22E84AA844146972502E003
:101D04009385057C0A8506D6972000E0E7802005A8
:101D14004146972502E09385A57A0808972000E0BC
:101D2400E780E0033C3010088A85DC875C20268548
:101D34005C875C30DC8697A001E0E780209E034747
:101D4400F1011C200145631EF7000347E1011C302B
:101D540001456318F7000345D1013C201D8D13355F
:101D64001500B2502254925445618280011122CC54
:101D740026CA4AC84EC606CEAA84175400000324B5
:101D840024BF13092500854905C09C303830858B54
:101D94006304F700405CCDBF1946930544004A85AF
:101DA400EFE0FFE4E31835FFF24022856244D244B9
:101DB4004249B24905618280411122C426C24AC007
:101DC40006C6175400000324A4BA93042500054949
:101DD40001E8B240228522449244024941018280B2
:101DE400A6851305A4022937E30525FF405CCDB77A
:101DF400011122CC26CA06CE2AC42EC617540000CE
:101E0400032484B6854419E001450DA09C84183050
:101E1400858B6304F7000044FDB719469305A100C0
:101E240013052400EFE0BFDCE31795FEF2406244A3
:101E3400D244056182800000EFF0EF90730000004F
:101E4400000000009382C1930383020023800200F8
:101E5400630F0300F32510342EC09705000093850B
:101E6400E5FD73901534EF0020557300203086DCB7
:101E7400EF008054E6508280000041114AC013896B
:101E8400C1A40327090026C206C61C5F22C493848A
:101E940081A493D76748B5CF930700061CDF175476
:101EA40000001304A4C3184C930700086317F70039
:101EB4009C409C4393F707041CCC1C4093F70704F5
:101EC40089CB83A74194829748D81C4093F7F7FBAA
:101ED4001CC01C4093F7070289CF1C4003A781A5AF
:101EE400B706080093F7F7FD1CC05C5414C78607B7
:101EF4007CD71C4893F7070489EF85475CC83707EC
:101F0400020083A781A598C71307000C18C81854AA
:101F1400F8D383270900985F1357474811CF985F78
:101F24001367070198DF83A781A523A207068547C6
:101F340017570000232CF7BA9C40D843135717486F
:101F440019C7D843759BD8C3D843799BD8C3B2402B
:101F540022449244024941018280053773002030B3
:101F640097570000938787B73707040088DB698F8A
:101F740001CF03A781A5FD5634D797460000938669
:101F8400E659D84E0507D8CE1377850019CF984760
:101F940083A6C1A41367170098C71307000898CB3A
:101FA400D856719B13671700D8D61377150001CF45
:101FB400D84383A6C1A413671700D8C3D856719B0E
:101FC40013671700D8D61377650019CF1377450028
:101FD40059C398431367170098C383A6C1A4D8565E
:101FE400719B13671700D8D64167698F0DC3975645
:101FF400000083C6E692C18A175700001307078BB7
:10200400A5C28346470793E60602230AD706370785
:102014000200698F01CF984B1377070819C305474E
:1020240098CB83A781A53707020098C7B707080094
:102034007D8D0DC1175700000347978E058B975769
:1020440000009387A7861DCB03C757071367270094
:10205400A38AE7068280D84713671700D8C7B5BF9D
:10206400834647070946BD8A6388C60083464707F7
:102074000D46BD8AE39DC6F8914641BF03C7570785
:10208400118B69DB03C7570713678700D1B783A692
:1020940081A597570000938767A49843058B19E798
:1020A400D843058B01E7F8526DFBDC4B97570000D2
:1020B40023A007A482809386C1A42A8788421C5D3A
:1020C40093D75748D1E781C51C59BD839CA115C638
:1020D4009C42945BC60693D7660163D6060093E7D9
:1020E40007C0B3C707088316060093975760B9C69D
:1020F400BE968947B3C6F60216A283A781A5BC4B38
:10210400083393D757488DCF29C59756000083A627
:10211400669E93F606049307950009459DCABA97EF
:102124009C230547194593F6F7066394E602014597
:102134009397476063DF0700394582801EA275BF0D
:102144002A9748331375F5077D153335A00082802F
:102154000545828083A701A599CB944BD04B984227
:10216400518F98C294439C479842D98F9CC213863E
:1021740081A50548184283A6C1A4975700009387F8
:10218400E795631D050388421365050888C283C665
:102194002702B3C5D5209385A50C5447139516493A
:1021A40048C70F100000184237060200860510C702
:1021B4001306000890CB6CD354C7828088421375F1
:1021C400F5F788C283C62702B3E5D5209385E50ECB
:1021D400E9B7411126C2AA8706C622C42E85938474
:1021E40081A5B285D9EB9C40F8537DFF37070200E7
:1021F40098C79757000023A7078EB7E700E0370773
:10220400200037F400E023A0E728130404D01C487E
:10221400ED9B1CC81C4893E787031CC8730050102F
:10222400153F83A7C1A498431317772998C3D85798
:10223400719BD8D79757000023AC078A97570000A3
:1022440023A0078A9C40094798C31C4893E787004A
:102254001CC87300501094401757000013070788D8
:102264001C47858B91E75C47858B99E3FC52EDFB1A
:10227400B24022449244410182800D476398E704AE
:102284009757000023A007869757000023AE0784C2
:10229400B7E700E03707200037F400E023A0E72881
:1022A400130404D01C48ED9B1CC81C4893E7870307
:1022B4001CC873005010793D83A7C1A49843131719
:1022C400772998C3D857719BD8D741B70547E3946A
:1022D400E7F837F700E0130707D0144BED9A14CB57
:1022E400144B93E6860314CB730050109840504768
:1022F4009316164954C70F1000009840B706020001
:1023040014C7930600089745000023A1D57E83A631
:10231400C1A4944293D67648639FF6009307E018CD
:102324007CD350C737F700E0832707D193E78700B2
:102334002328F7D039BF9307E01ADDB783A701A597
:1023440089CFD44303A8870098423367070198C212
:10235400D447DC4B9842D98F9CC2054783A7C1A4BC
:102364009505631BE50298431367070898C3984FC4
:10237400137707C01367A71398CF13078007B8BB59
:10238400939735009387C70319C29317160017470D
:1023940000002329F776828098431377F7F798C3D0
:1023A400984F137707C01367271398CF1307F007C5
:1023B400B8BB93974500F9B783A781A58847D84749
:1023C400798D11C588C783A741A591C3828782806F
:1023D400896703A781A5938707F47CD383A681A685
:1023E40083A7060993D7A74991C783A7060993D75B
:1023F400974999E37C53EDF782804111B7E700E0F8
:1024040022C480433707200006C6798C23A0E7182E
:102414000F10000011C199E5B7E700E023A0871071
:10242400014549A80D053345050813074003719973
:10243400B34705086362A70203A581AF83A601AF72
:10244400639FA600174700000327C71271D7C2076E
:10245400DD8D05450297C9B703A541AFC5B77A21FC
:1024640031EF5A21636CF704B306F740214817464D
:1024740000001306A60A6375D802832805000358D2
:102484006600938687001D8FAA966117DAA223A09F
:1024940016012393060014C15EA1130788FF7AA2D4
:1024A4007A226EA12105B307F7407EA2B7E700E0C8
:1024B40023A08710B240224441018280084149B7D9
:1024C400B7E700E08C433707200023A0E718F98D15
:1024D4000F10000001E523A0B710828003A381AF91
:1024E40083A801AF9A87814663F8170903A80700F8
:1024F4006367F5086365A80813878700636EE506BC
:10250400F223216705076317E600138631A1182219
:10251400050718A21745000013054500D2237A21A8
:10252400239307003297334707087AA1638367022E
:1025340003A341AF630FF30003D36600631B0300DF
:10254400DE2223A0060121073E962106D2A27AA10B
:10255400B68798436302170383A641AF630ED7007F
:10256400762399EAD62352231843A106B296D6A31A
:1025740098C37E21A1077EA1B7E700E0A9BFBE866C
:10258400C2879DB7AA8703A781AF03A601AFB3058E
:10259400B5406314E6003E8529A8930687001843D6
:1025A400E3E9D7FEE3F7E7FE2E85E3E4D5FEE3F2A5
:1025B400E5FE8280411126C206C622C44AC0974461
:1025C400000083A424346383041003A4C40AAA86E9
:1025D400054535C03C241307700A6390E70858305A
:1025E4001C34174900001309E9FA03268900B3874C
:1025F400E7020357C900B387E70213070032938742
:102604000719B3D7E70203A744093E97BA84636462
:10261400F7006364C700B304C74083A7419484C22E
:102624008297B387A44063F5A40003278900BA976F
:1026340089EB1305F00FB240224492440249410150
:10264400828058309306204E3307D702E3F3E7FE27
:10265400930780FA3CA40145F9BF1307800AE39A63
:10266400E7FC83A7419482972A893545EF10205DC2
:10267400AD47174700002321F74858301C3417464C
:102684000000130626F1B387E7025A261046B387E3
:10269400E7021307003293870719B3D7E70203A7AA
:1026A40044093E97BA866364F7006364C700B306BF
:1026B400C740E310D9F817F501E01305C527EFE08B
:1026C400BF8783A781A50947F8D7A5B70545A5B74F
:1026D400397156D2974A0000938A4A4083A70A0365
:1026E4003707080026DA06DE22DC4AD84ED652D452
:1026F4005AD05ECE62CC66CA6AC86EC6F98F974459
:10270400000083A424206384071C83A9C40A83C70C
:10271400990003A4C90092073E942820B1470505F7
:102724003305F5025E203E9533450508EFE06FABB7
:10273400AA8C6305051A130DC5002324A5013420B2
:102744003146370B0300B386C60223130400014944
:10275400138A81A5938BC1A4938D81A6130B8B152A
:10276400054CEA9654C483C679009307D0078325A1
:102774000A00B386F602C1679CC537083300860693
:10278400B4D183A60B0090421376F6CF90C2904248
:102794001376F6CF1366062090C203A50D001045EC
:1027A4003366060110C503A6090023A86505930531
:1027B400500290C672205444B2962324DD00143093
:1027C4000146CA96A301DD0003C50408974600002C
:1027D40023A80630A53683260A00CC46139615494D
:1027E400D0C60F10000083260A003706020090C6E8
:1027F4001306000823A8CA0003A60B0010421356B0
:102804007648631F860B1306E018F0D2CCC6174631
:102814000000232F062C174600002323062C23A098
:102824008601EFF0DF86EF10603A83A64A00858ABE
:10283400D9CAEA852685970002E0E780A0140DE94D
:1028440003465D0049C276204E20B29663DDB6068B
:10285400B428AC4803258D00918E8906B695EFE027
:102864006FA723020D0003465D007620B29676A082
:1028740003260A00310D3452FDFE34200509137974
:10288400F90FE362D9EE9C246685A381FC001C2029
:10289400A3820C002383DC002382FC006254F250E8
:1028A400D2544259B259225A925A025BF24B624CA8
:1028B400D24C424DB24D2161170301E0670023D28F
:1028C4001306E01A99B7FD562302DD0055B783A716
:1028D40081A5FC5781C78547238EF192F25062543B
:1028E400D2544259B259225A925A025BF24B624C68
:1028F400D24C424DB24D21618280AA8703A5C19476
:1029040011E182803A216315B7001821E30BF7FE29
:102914004845FDB7411122C406C626C24AC02E84CA
:102924008DCD13F91500814741476302090413173C
:1029340045003E97B1463307D70283A44195B317A8
:10294400F02833C90708BA949C40C840829723A052
:10295400040023A2040033448900B24022852244A7
:102964009244024941018280B356F448E9F2850752
:10297400E39CE7FECDB7011126CA06CE22CC4AC895
:102984004EC6AE84A1C593F7150001444147B1CBAF
:1029940093174500A2973147B387E702938941957E
:1029A40003A909003E998327090081C7032549002B
:1029B400829731473307E40283A70900BA979C47FB
:1029C4008DC733148028B3470408BD8CF240624499
:1029D4004249B2492685D24405618280B3D68448EF
:1029E400C5FA0504E31CE4FECDB723200900232225
:1029F4000900C1BF7971B7E700E022D4804352CC0B
:102A040006D626D24AD04ECE56CA5AC85EC662C42C
:102A14003A8A37072000798C23A0E7180F100000AA
:102A240005E123A087100945B2502254925402595B
:102A3400F249624AD24A424BB24B224C45618280EF
:102A440083A74194B6892A89AE8A328B938B4195A8
:102A5400829703A70B008144B146C147338CD4024B
:102A640033068701104235EEC165938505F0414573
:102A7400EFF0BF9819ED9747000083A7A7AF81C770
:102A8400814511458297B7E700E023A087102D45C3
:102A940061BF1387C1941C43A1E308C3230005004D
:102AA400B31790283EA183A70B00232605002324F7
:102AB400650123224501E29723A0270123A25701A0
:102AC40023A447016384090023809900B7E700E049
:102AD40023A08710014589BF3E87DC47F5FF48C71F
:102AE40075BF8504E39CF4F6B7E700E023A08710E4
:102AF40021451DBFB7E700E09843B706200023A097
:102B0400D718758F0F1000009746000083C616A1D2
:102B1400637DD50083A601953325D5201621D58D57
:102B24000EA123A0E7100145828023A0E7100D45E4
:102B340082800111B7E700E022CC804337072000F0
:102B440006CE26CA4AC8798C23A0E7180F100000C5
:102B5400BD4763E7A70431473307E50283A74195DF
:102B6400BA979C4395CF3315A0282E89B345050801
:102B740001452EC65933AA8409C9B2450145973087
:102B840000E0E780E00023A42401B7E700E023A0ED
:102B940087100145F2406244D24442490561828073
:102BA400B7E700E023A087100945EDB79747000079
:102BB40083C757CBAA86850703A5419E01471221E7
:102BC4006307D60005071905E36BF7FE014582800C
:102BD4002A8703A5C19E11E182801C45B227636B3D
:102BE400C70003584500B306C8006355D7008146A3
:102BF400639406010841C5B703D3A700938807016E
:102C04006316E30091C192A13E8582808506C68742
:102C1400B3C60608F1BF9746000083C6A6C483A7BF
:102C240081A101476394E60001458280AE231386A7
:102C3400C7036394A5003E85828005071377F70FC9
:102C4400B287CDB7411122C406C697470000238935
:102C540007CC03A481A205C06C390145B315B02883
:102C6400B3C50508973000E0E780603D930710275F
:102C74003305F50202942244B240814501454101E5
:102C8400173300E067002345383D09C73425631234
:102C9400D7024DBF3C2DF5DF3825E30CF7FE3CA5EC
:102CA400814517E5FFFF1305856C173300E06700C6
:102CB40083423C2D89C7E394F6FE38A5D5B7F1FAD3
:102CC400EDBF41114AC017490000130929E18327C8
:102CD400890022C426C206C697440000938404BD1A
:102CE400858BE0509DCB9747000023AD07DE83C75B
:102CF4004407C18B85CFEF00706D83C7440793F7FA
:102D04000702E5DF83C74407228593F7F70C238A7C
:102D1400F406971001E0E7802028EF00306B22854D
:102D24002244B24092440249410129BF83C7540757
:102D3400858B91CBEF0090698D47230EF406BC5828
:102D440022858297D9BF83C744071547BD8B6395F6
:102D5400E7048347B406034534060146930550024D
:102D64005D8DEFF0AFDD014681450545EFF06FC69F
:102D74008327C900858BD5D322859747000023A5D7
:102D840007D6971001E0E780400941F9B240224498
:102D9400924402494101828083C744071947BD8B8D
:102DA400E39DE7F68347B4060345340601469305DD
:102DB40050025D8DEFF08FD8014681450545EFF057
:102DC4004FC18327C900858BA9DB22859747000063
:102DD40023AC07D0971001E0E78000DE7DB74111F6
:102DE40022C426C206C67C2578452A84BD8B1CA92C
:102DF4001CA31D4764456395E7340547B8A0834782
:102E0400F5058D466393D7185E2DCDE37C491147B4
:102E1400B18B638DE70831476398E70003471506D4
:102E24008347F5076304F7088547BCB01946930543
:102E3400640313854400EFD0FFC9BC20990793F7BE
:102E4400F70FBCA0034704061377070401CFB8307B
:102E540013670704B8B07844BA975838B8B3BC209D
:102E64008507BCA097470000238C07AABC2013F752
:102E7400F703050718B80347E4051A07D98FBCA060
:102E840083475403858B91E70347440389476317BA
:102E9400F70078441C2393E707041CA37C441838E8
:102EA40098B3B2402244924441018280A147BCB00D
:102EB4008357C406974500009385459F138681A5D3
:102EC400DCA08357C406034714067444A183120785
:102ED400BD8BD98FDCB2B4208547890693F6F60FF3
:102EE400B4A0174700000347A7A3631EF706183CC6
:102EF4009387E6008E07231AF4069387C708B387DF
:102F0400E702794510420948238A0507C1650CC6C2
:102F1400938707FBB3C7070893877716B3C7A7023E
:102F240033C70708B387A70286073CD2BC3093E7B0
:102F34000701BCB07C44B6978346240693E6060496
:102F4400B4B3B4207C44B697D8A3B4207C44218382
:102F54007D8BB697834634069606558FD8B3BC202E
:102F64008D07BCA021B71042F94738520583335767
:102F7400F7023C5268528583FD8BAA977CD28D4719
:102F8400238AF5063347070855B71946639BC712CA
:102F94005E2DC1E393056503B8B013854400EFD0FB
:102FA4007FB3BC201385A4009907BCA0BC3093E771
:102FB4002700BCB083475403898B95CF0C58BC2998
:102FC4009DCB1946D105EFD0FFB078441C2393E77D
:102FD40007F81CA3BC20990793F7F70FBCA003477D
:102FE400040613770704E30F07E6B430784493E646
:102FF4000604B4B095B58347D40391C778441C2321
:1030040093E707F81CA319469305E403EFD09FAC9C
:10301400D1B7A147BCB08357C506DCA08357C5060A
:10302400034615066C45A1831206BD8BD18FDCB116
:10303400B0201745000013056587938581A509060F
:103044001376F60FB0A09747000083C7678D639887
:10305400E704183C9307E6008E07231AF4069387C7
:10306400C708B387E70279488946230AD5069441FD
:10307400C1658CC6938707FBB3C707089387771688
:10308400B3C7070333C70708B38707038607BCD250
:10309400BC3093E70701BCB07C44B29771BD8C414E
:1030A400B851F94705833357F702BC5103A84506C5
:1030B4008583FD8BC297FCD1230AD50633470708C5
:1030C400C1BFA147BCB08357C506DCA08357C50662
:1030D400034615066C45A1831206BD8BD18FDCB166
:1030E400B020173500001305657C09061376F60F2A
:1030F400B0A09747000083C7A78283A581A5E39169
:10310400E7FA183C9307E6008E07231AF406938720
:10311400C708B387E702F9460948230A050741654A
:1031240088C5938707FBB3C7070893877716B3C788
:10313400D70233C70708B387D7028607BCD189BF34
:103144000547639EE706B1471CB983475503898B3E
:10315400A1CB0C59BC29A9C71946D10513858400F4
:10316400EFD05F9778441C2393E707F81CA36844C7
:103174001946930564030905EFD0DF951167973766
:10318400000083A7A77FF98FE38C07CE7C24B98B3B
:10319400E39807CE78441C2393E707021CA3CDB120
:1031A4008347D40389C79C2093E707F89CA068440D
:1031B40019469305E4032105EFD0DF914DBF522D4D
:1031C4000C559307660093F7F7031CB91385840025
:1031D400E5B7011126CA97440000938424909C44C7
:1031E40022CC06CE173400001304446C858B68503F
:1031F400C9C32AC69747000023A6078EEF00101DF7
:1032040003474407894732456307F70003474407E8
:103214008D47631CF70283A681A5BC52035745075B
:1032240085831307C71263F2E702BC528583B1C3D7
:10323400914703474407E31EF7FE6244F240D24439
:103244000561171301E0670003FD382D3C3D09CFEC
:1032540034256309D7026388F60238A56244F24034
:10326400D24405616FD0BFF299CF382509EF3CA550
:10327400F5B72AC6EF00901562443245F240D244B5
:103284000561C9B2EDF7DC4CEDF703474407894704
:103294006307F700034744078D47E31CF7FC914796
:1032A40003474407E31EF7FE49BF630E05300111CF
:1032B40022CC06CE26CA4AC84EC652C456C2582587
:1032C40085472A846316F72C974700009387078164
:1032D400D44F1547638AE600D44F0D476386E60052
:1032E400D84FAD476312F7026C386244F240D244BF
:1032F4004249B249224A924A01450561B315B028B0
:10330400B3C505086FF00FFF163113070064973437
:1033140000009384A4593347D7029C20E8D0850742
:1033240093F7F70F9CA063CAE700973000E0E780AB
:10333400E01597370000238B075678249D47631FB9
:10334400F70483479406B1C38356040763ECF6027B
:103354000C24930730041CAC1305300493F6F60FC9
:10336400014697B001E0E780405422856244F24070
:10337400D2444249B249224A924A0561172301E0E4
:103384006700639785062318D40693053002054524
:10339400973000E0E78000082301A4060549238A4A
:1033A4002407183C8D47631CF70E972000E0E78044
:1033B400C0770D89630F0514631625179307600200
:1033C4003CA4930750023CAC9307700278243CBCA5
:1033D40085476302F70889659385F57013051027FF
:1033E400173A0000130A0A1B83497401973000E05E
:1033F400E780C0040E30835ACA002A891306006489
:10340400B3855503814613850532B335B50097005E
:1034140002E0E780A0A4AA84B335590337460F001D
:1034240013060624814633055903970002E0E7801A
:10343400E0A283270A00AA948297B3079500032782
:103444008A00BE8563E4A70063E4E700B385E74030
:103454004E85EFF00FEE83475403898BE9CB834706
:10346400C403F1C70C58E1C5BC25F1C38947230A3D
:10347400F4021946B10513056403EFD0AFE5034721
:10348400C407894763E9E70A22856244F240D244CB
:103494004249B249224A924A05616FD05FCF8946B8
:1034A4007C346315D70213F7170019CB898B1307E4
:1034B400500291EB9307700238A43CAC814739B7B2
:1034C40013076002C5BF93076002FDB799CF93F657
:1034D40017001307500291E6898B13B717001307DF
:1034E400670238A4230D0400D1BF3C2C130740020B
:1034F4006368F700930750023CAC3C2C3CA47DBFAE
:10350400850793F7F70F3CAC13077002E364F7FEEB
:10351400EDB713077002930750023CAC38A493072D
:1035240060026DB51307500293077002FDB785471B
:10353400230AF402A9B70327C40A83A641943C27AB
:10354400ADC31C375833973400009384A4049044CB
:10355400B387E702DA24B387E702130700329387BD
:103564000719B3D7E702032744093E973A896364EE
:10357400F7006364C7003309C7408296B307A940C4
:103584006374A9009844BA9703576407E3FEE7EE0F
:10359400F2406244D2444249B249224A924A056105
:1035A400828083248409829663E9A4008357640794
:1035B4003385A440E37AF5ECE1BF9737000083A795
:1035C400E7FDBE94E5B7828001114EC6973900002D
:1035D4009389C92D22CC03A4C90926CA97340000B3
:1035E400938444FBDA244AC80359640883270409F2
:1035F40006CE3309E90237470F009306F723130772
:10360400072452C456C25AC036993359E90263EEAC
:103614002703138A41943389274183270A00829719
:103624006368A9023305A94063470502835704046C
:10363400A30F040085072310F4048347041463973D
:1036440007102285EFE08F9229A29844BA97D1B748
:103654009C443E99C1BF83270A00829703278408AC
:103664006363E50A198D7E3CDA248E07B387E7028B
:103674001307003293870719B3D7E70263E9A70852
:10368400B74A0F00138BFA23938A0A24835704043E
:1036940085072310F4048347041481E72285EFE0AF
:1036A400EF8C2285972001E0E780E049631F052223
:1036B400032604090327C40894443297BA87636431
:1036C400C7006364D700B307D740783CD2242328CB
:1036D400F408050778BC035764083307C7025A97F0
:1036E400335757033389E74063F5E700998E3389ED
:1036F400F60083270A0082976365A9043305A9406D
:10370400E34605F825B79C44998F3E95A9BFA1458A
:103714002285972001E0E780203BA305A402973788
:10372400000083A727E56382071C6244F240D24469
:103734004249B249224A924A024B894515450561DC
:1037440082879C44CA973385A7405DBF2285EFE0FA
:103754002F8C2285972001E0E780E03E631705184F
:10376400CA2483576408B7460F001386F623B38729
:10377400A7029386062403270409230B040283AAC1
:103784008400B297B3D7D702636BF716B307F74039
:103794008326C4082324F408014BB387E6003E893A
:1037A40063E4D70063E45701338957411E3023286B
:1037B4002409A1CB835604045A3037460F0056B06F
:1037C4003387E640B387E7023A301306062481467E
:1037D4008145BA97B3C707083385A7023EB097F06F
:1037E40001E0E780A06711CD4A9533392501CA95D8
:1037F400AA876314BB0063645501B30755412328AA
:10380400F40883270A0082972A8983270A0082976B
:10381400E30D25FF83270A00032984088297636543
:10382400A90E3305A9406300051003DAC4008357C9
:10383400640837490F001307F923B38747031309B3
:103844000924BA97B3D7270317370000034717D1C2
:10385400BA9763EAA70CB3352503035B24025286A7
:1038640081463305250397F001E0E780205FB30A22
:10387400AB0033054B0337460F001306062481467D
:10388400814597F001E0E780605D15C1B3372503FA
:1038940052868146B305B9023305A902BE9597F055
:1038A40001E0E780A05B330BAB4023116403354593
:1038B400792623AE890838348547631AF7049307B9
:1038C40000FD7CA403A501A49C28A1CBEFD0CFE6E6
:1038D4009547173700002321F7223707100083A7E5
:1038E40081A598C7860A23A85707F2406244D244A8
:1038F4004249B249224A924A024B05618280B30688
:103904005701B387F64069B59C443E9919BF9307A4
:1039140010FC7CA403A581A345BF8145972000E04A
:10392400E780607B75B79737000023AF07009C28BA
:1039340095C303A5C1A2973000E0E780C0B46244F8
:10394400DC40F240D2444249B249224A924A024BF4
:1039540005618287834594026244F240D24442491D
:10396400B249224A924A024B01450561B315B02877
:10397400B3C505086FF00F98011122CC26CA4EC6B4
:1039840006CE4AC852C456C25AC038358547832425
:1039940005092A84AE896314F70C83570508835AF2
:1039A400C503173A0000130AEABE035BCA0063FCAE
:1039B400571914296399E618032785116315071805
:1039C4000327450A6311071874351D47639DE616DE
:1039D4002A3DB38AFA409307204E33055503032941
:1039E400440937460F001306062481463305F502C1
:1039F4009737000083C787B633592503B335AB0225
:103A04003E9933490908231324093305AB0297F07F
:103A140001E0E780A044B307950033B5A7002E95D5
:103A240003278A00BE8419E163E4E700B384E74016
:103A3400B307690337470F009306F72313070724D7
:103A440023A09900B697B3D7E702D69763E4F400AE
:103A54009D8C31A003278A00B307F740BE941389D5
:103A640041948327090023A09900829763E2A4105C
:103A74003385A440635D050A83270900173B0000D2
:103A8400130B4BB1829703A709006369E50E198DE7
:103A94007E3C0357CB008E07B387E702130700323F
:103AA40093870719B3D7E70263EFA70C374A0F00D0
:103AB400930AFA23130A0A2483570404850723105C
:103AC400F4048347041481E72285EFD03FCA22859A
:103AD400972001E0E780200761E583260409832716
:103AE400C40803278B00B697BE8463E4D70063E45D
:103AF400E700B384E7407C3C8356CB00232894083A
:103B040085077CBC83576408B387D702D697B3D79D
:103B1400470363E6F40A9D8C8327090023A09900D8
:103B2400829763E1A40A3385A440E34705F89737F5
:103B3400000083C7B7A263E6A7069737000023A552
:103B440087E00145B9A88357640837470F009306F7
:103B5400F723B387670313070724B697B3D7E7029E
:103B6400E3F8F4EE03278A002697B304F740C5BDB3
:103B74009737000083A787A2BE94DDBD83278B00FF
:103B8400998F3E9531B7A1452285972001E0E780C2
:103B9400A0F3A305A4029737000083A7A79D81EF94
:103BA4007D55F2406244D2444249B249224A924A83
:103BB400024B05618280894515458297D5B71D8FD3
:103BC400BA9499BF83278B00BE94B1BF938681A515
:103BD4009C42B84B1377F78FB8CB98431367870091
:103BE40098C39C4393D7374889C70100010001005B
:103BF400010003A7C1A41C4393F7F7CF93E7071071
:103C04001CC303A681A61C463707CEFF7D17F98F78
:103C14001CC69C4237070300B8CB83A701A599CBE8
:103C2400D44390479842518F98C2944BDC4B9842AE
:103C3400D98F9CC29737000023A007EC828083A70A
:103C440081A59C438D8BE9C74111B7E700E04AC0C9
:103C540003A9070026C23707200006C622C4AA8487
:103C64003379E90023A0E7180F100000173400008F
:103C74001304C4E6584C8D47631AF70097370000C5
:103C840083A787BF014681454545829719476391BC
:103C9400E4048347140289CB8347040263969700A4
:103CA40097370000A38C07E4584CA1476315F7002D
:103CB400930780101EB0238E0192093FB240224424
:103CC400B7E700E023A02711924402494101828012
:103CD4009D47639BF40083471402F9D7034704020A
:103CE4008D47E313F7FC6DBF544C6389E600584CD1
:103CF4006306F700584CA147E31FF7FA8347140201
:103D0400DDFB5C4C2300F4028547A300F40265B795
:043D140082800000A9
:103D180097110020938101AA17C101201301012ED8
:103D28001305400097C5FF1F9385452D17C6FF1F34
:103D38001306C64A63FAC5008322050023A055006E
:103D480011059105E3EAC5FE17C5FF1F1305453E9A
:103D580002852A8309CA83830500230073007D1620
:103D6800050385056DFA82802A8311C62300B300F6
:103D78007D16050365FE8280B717004003C77705E7
:103D88001377E70FA38BE704130700F8A38DE70465
:103D98003D47238CE70413075003A38CE70403C7AC
:103DA800A7051377D70F238DE704828037170040C4
:103DB8008347E70412054111BD8BC98F93F7F70FAD
:103DC80093068008F3B6068093F6860836C6010087
:103DD8000100930670052300D704930680FA230098
:103DE800D704010001002307F70423000704B247A2
:103DF800F3A707800100010041018280B717004046
:103E080003C7E7020D8941111377C70F498F93063E
:103E18008008F3B6068093F6860836C601000100CE
:103E2800930670052380D704930680FA2380D7046D
:103E3800010001002387E70223800704B247F3A7A4
:103E48000780010001004101828041112A83014855
:103E5800930E407E130F0019930F4006B3480308D2
:103E680063EF1E0113030019337365028542FD4396
:103E780063F6B2088D4F214F930E4006A1A07D1323
:103E8800336EE3039308E016630E0E00336EF303FC
:103E98009308D01663080E009378330093B818007F
:103EA8009388D816C29833C808084DBF93F81500F0
:103EB800138EF5FF637CBF02F908C29833C808085F
:103EC800B3450E08E394F5FF8545630B0300B3780B
:103ED800D5038145638608009375350093B51500B1
:103EE800F105C29533C805088945E9BFB388134170
:103EF800C29833C80808B3450E089DBF7D1632988E
:103F080079463307C70213D61700BE073348080897
:103F180032976146B3F6C60213068070B386C602AE
:103F28003697A166F58F4207D98FB716004003C7A9
:103F3800F60213770708D883908303C7F60213772E
:103F48000708E316E6FE9883B71600404DCF13071F
:103F5800800873370780137787083AC40100010087
:103F680037170040930670052300D704930680FA9C
:103F78002300D70401000100232A070383461703FF
:103F880093E60608A308D7022300070422477327ED
:103F98000780010001001166371700407D16545B49
:103FA8004C5FAD8EF18EE5FE93068008F3B6068071
:103FB80093F6860836C601000100930670052300B3
:103FC800D704930680FA2300D704010001005CDBC4
:103FD8008347170393E70704A308F702230007049E
:103FE800B247F3A70780010001004101828003C79F
:103FF800F60213770708D883908303C7F60213776E
:104008000708E316E6FE98837DD391B755714EDF16
:1040180086C7A2C5A6C3CAC152DD56DB5AD95ED728
:1040280062D566D36AD16ECFAA8982C0EF005014D8
:1040380093078008F3B7078093F78708BEC201008B
:104048000100B7170040130770052380E704130722
:1040580080FA2380E7040100010003C7F702137701
:10406800770FA387E70203C7F70213678700A387C1
:10407800E702238007049647F3A7078001000100A1
:10408800130B80C1334B65039167938707E8130AC5
:1040980030029546B347F502330A4B033EC8FD8705
:1040A8003ED2BD67938707A6334AFA021357FA41EF
:1040B8003ACA330740413AD47D873ACC1307A0FB6C
:1040C8003307EB02B347F7020567130707FA3ECE3B
:1040D800FD873ED6938729003319F70063E436013C
:1040E8003319370161671307076A3345E502130778
:1040F8000010B317F0288D873EC495473309A902ED
:104108003349E902130740063309E9021307D007C8
:104118003349E9021357F9413AD8331730290D8743
:104128003AC663E4374993075047B307F7023D6738
:10413800130707A6116C814A814B13048008371DA9
:104148000040930480FA7D1CB3876703B307F040EF
:10415800B3C7E7023ED0FD873EDA73370480137792
:104168008708BAC401000100130770052300ED0495
:10417800930D0D0423009D040100010003473D0534
:104188001377870FA309ED0403473D05136717004D
:10419800A309ED0423000D042647732707800100B7
:1041A8000100930C70057337048013778708BAC62B
:1041B80001000100930770052380FD0023809D0006
:1041C8000100010003473D0513670702A309ED0439
:1041D80003570D051317E7282318ED0403570D059A
:1041E8001317F7282318ED0423800D00364773278B
:1041F80007800100010003473D0513770702630AA2
:10420800073A03473D05218B6DDF8800EF00807D6D
:104218007337048013778708BACA01000100238026
:104228009D0123809D000100010003473D05137790
:10423800F70DA309ED0403473D0513670702A3091A
:10424800ED0403570D051317E7282318ED0403574A
:104258000D051317F7282318ED0423800D00564782
:10426800732707800100010003473D051377070204
:104278006308073603473D05218B6DFF97C0FF1F75
:10428800E780003D2A873ADC97C0FF1FE780403C63
:104298006257E30AE5FE03570D0506451317E7289D
:1042A8002318ED04B12F03473D05218B6DDF03571C
:1042B8000D0583462D05C24733778701B3868603EC
:1042C80013D6F641BA96B388F640925733B7E6004C
:1042D80032971D8FD247B3B61601158F63C6E70014
:1042E800631CF700637A1A01E2476342F732639569
:1042F800E700A25763EDF830894663FC76317337DF
:10430800048013778708BAD00100010013077005ED
:104318002300ED0423009D040100010003473D052F
:1043280093F6F90F1377870FA309ED0403473D05AB
:10433800558FA309ED0423000D0406577327078042
:10434800010001001306700503473D051D8B631A24
:1043580037357337048013778708BAD40100010012
:10436800130770052300ED0423009D0401000100DC
:1043780003473D051377F70DA309ED0403473D05F2
:1043880013670702A309ED0403570D051317E72860
:104398002318ED0403570D051317F7282318ED0408
:1043A80023000D0426577327078001000100930698
:1043B800700503473D0513770702630E073003476F
:1043C8003D05218B6DDF8800312D7337048013770D
:1043D8008708BAD801000100130770052300ED040F
:1043E80023009D040100010003473D051377F70DE5
:1043F800A309ED0403473D0513670702A309ED046C
:1044080003570D051317E7282318ED0403570D0567
:104418001317F7282318ED0423000D0446577327B4
:104428000780010001009306700503473D051377D7
:104438000702630D072C03473D05218B6DFF97C0CD
:10444800FF1FE780E020AA8C97C0FF1FE78040206D
:10445800E30C95FF03570D0506451317E7282318A6
:10446800ED04792B03473D05218B6DDF73370480FD
:1044780013778708BADC01000100130770052300D1
:10448800ED0423009D040100010003473D05137757
:10449800F70DA309ED0423000D0466577327078061
:1044A8000100010003570D0583462D05C2573377D8
:1044B8008701B386860313D6F641BA9633B7E6006A
:1044C800329733882641B3B606011D8F158F634690
:1044D800E00063180726630608261305800C3307D7
:1044E800E5020256D256B335050333050503BA95DE
:1044F800EFE061589306150033B5A6002E951357C3
:10450800F501BA9633B7E6002A971316F7018582A4
:104518000587D18E6346E000631F072C638D062C48
:104528000356CD021582B305D60033B6C5003297BF
:104538006348E000631007361307F00F637CB73455
:1045480009476371572793078008F3B7078093F7E4
:104558008708BEDE01000100B71700401307700589
:104568002380E704130780FA2380E7040100010091
:10457800DA3789668116558F33470708DAB72380FB
:104588000704F657F3A7078001000100BE402E4438
:104598009E440E49FA596A5ADA5A4A5BBA5B2A5C4F
:1045A8009A5C0A5DFA4D69618280224793075047F9
:1045B800ADBE7337048013778708BAC801000100BD
:1045C80023809D0123809D000100010003473D05D4
:1045D80013670702A309ED0423800D00464701B9BC
:1045E8007337048013778708BACC01000100238051
:1045F8009D0123809D000100010003473D051367CD
:104608000702A309ED0423800D00664791B9E398DA
:104618000BCE7246B2569315170013D3F8011395B3
:104628001800B365B3003ADE46DCEFE0C1447257C8
:10463800850B93FBFB0F6346E00031EFE258638C78
:1046480008049306150033B5A600AA9513D7F501FB
:10465800BA9633B7E6002E9785827E07558FF336D4
:10466800048093F68608B6CE0100010023809D01E0
:1046780023809D00010001008356CD023697334701
:1046880007082316ED0223800D007647732707805D
:104698000100010009BE9306F5FF13351500898D49
:1046A80075B77337048013778708BAD20100010001
:1046B8002300CD0423009D040100010003473D05AC
:1046C800558FA309ED0423000D041657732707809F
:1046D8000100010095B97337048013778708BAD6AB
:1046E800010001002300DD0423009D0401000100F6
:1046F80003473D0513670702A309ED0423000D04D2
:104708003657732707800100010065B173370480AD
:1047180013778708BADA010001002300DD042300BB
:104728009D040100010003473D0513670702A30923
:10473800ED0423000D04565773270780010001007C
:10474800EDB19305800C3387E50233850503B3B5D6
:104758000503BA95154763733705A24713075047F2
:104768003387E702330660413306E6023D671307E5
:1047780007A63346E6029356F641EFE0C12F13062B
:10478800F5FF13351500898D13D7F5013A963337A0
:10479800E6002E979316F70105829DBBB2471307D3
:1047A80050477DBF13078008733707801377870842
:1047B8003AC101000100B7160040130770052380B5
:1047C800E604130780FA2380E60401000100DA36C4
:1047D800056601161377F70F518F33470708DAB6C6
:1047E800238006040A477327078001000100850A11
:1047F80093FAFA0F9DB233E6E60049CE0356CD028E
:10480800B335D0003307E0400D8F3305D040158213
:104818006345E00041E3637FA6060947637E5703CB
:1048280093078008F3B7078093F787083EC3010012
:104838000100B7170040130770052380E70413072A
:1048480080FA2380E70401000100DA377D8BDAB7AC
:10485800238007049A473DB373370480137787088A
:104868003AC501000100130770052300ED04230079
:104878009D04010001000357CD0285668116137758
:10488800F70F558F334707082316ED0223000D0451
:104898002A4791BF93078008F3B7078093F78708E3
:1048A8003EC701000100B7170040130770052380B9
:1048B800E704130780FA2380E70401000100DA37D0
:1048C8009606369733470708DAB723800704BA47AE
:1048D80055B9914763ECB704970702009387C7BFA0
:1048E800B3C5F52098413E97B71700409387470B0B
:1048F8000287944337170040B3F6A64094C3930643
:10490800070B9C42B3F7A74019A8944337170040F8
:10491800B3F6A64094C39306070B9C42C98F9CC26A
:104928009307070A98433377A74098C38280944334
:1049380037170040C98ED9B798433377A74098C333
:10494800B71700409387070A9843498FF9BF9843E0
:10495800498FF5B719C5371700401E2FCD8F1EAFE9
:104968008280B71700409A2FB375B7408EAF828008
:10497800B71700409A279306000C1377070C630AB1
:10498800D7049A27137707100DC79A279E277D8B80
:1049980009EB93F70720B1C33755E80113050580E4
:1049A800828037C59812FD8B130505E03345F50263
:1049B80082809A279E2713770720FD8B11C73755CA
:1049C800E80113050580DDB73725F4001305054018
:1049D800F1BF2165130505D082803725F400130542
:1049E8000540828037E700E01C435443A183E20678
:1049F800D58F1CC1FD572320F7182322F718828072
:104A080013178500B7E700E023A0E710618123A210
:104A1800A7108280B7F700E08847828032858147F7
:104A280037370040A14663C3A70082803037E30FC1
:104A3800D6FE3386F5001022850710A7EDB797F646
:104A4800FF1F93862657AA87884217270020130737
:104A58006712AA9763E9E7000A87130707FC6364EC
:104A6800F7009CC282807D558280411122C406C60F
:104A78002A84FD3D2947B307E502B2408D83B3D7A9
:104A8800870222449507B3D7E70237370040B3C7F8
:104A980007085EA741018280716541111305052051
:104AA80006C6E137B7370040130770F8B8A30D47BB
:104AB800B8B31307000498B30547F8A7B2404101FB
:104AC8008280411122C406C62A845D352947B3076E
:104AD800E502B2408D83B3D7870222449507B3D746
:104AE800E70237470040B3C707082316F7C041015C
:104AF8008280716541111305052006C6D937B7476D
:104B08000040130770F82381E7C00D47A381E7C071
:104B180013070004A380E7C005472387E7C0B24016
:104B280041018280B747004003C717C019C94D8F9C
:104B3800A380E7C003C707C0136787002380E7C0C7
:104B48008280B375B740A380B7C082803285D041D8
:104B5800411106C60C32034806000D66A205B3E5EE
:104B680005019308A6A21398556063C808031306A5
:104B780026A26358060375761306C65DB2951946D4
:104B8800B3C505086363B602170802001308089640
:104B9800B3C50521904142960286130606A5630D0A
:104BA800C80E23900600A94515A01D469D45636FB4
:104BB800E6002146198E3356F60A9385018F92A294
:104BC800BA9597C0FF1FE780A0F08145B2402E85B7
:104BD800410182802D469D45E36AE6FE3146198EE5
:104BE8003356F60A970502009385059992A2C9BF24
:104BF80031469D45E36CE6FC3546198E3356F60A78
:104C0800970502009385459692A25DBF41469D4552
:104C1800E36EE6FA4546198E3356F60A9705020002
:104C28009385459392A269BF41469D45E360E6FAA4
:104C38004546198E3356F60A970502009385459026
:104C480092A2BDBF41469D45E362E6F84546198EEE
:104C58003356F60A970502009385458D92A28DB7C3
:104C680041469D45E364E6F64546198E3356F60AF5
:104C7800970502009385458A92A299B735469D45C6
:104C8800E366E6F43946198E3356F60A97050200AC
:104C98009385858792A22DB719469D45E368E6F26C
:104CA800998D33D6F50A97F5FF1F9385E53092A2C3
:104CB80001BF97F6FF1F9386A6054146CD4517F518
:104CC800FF1F1305A5056F80600711456FF00FB42E
:104CD800411193962500AA852D4506C697B0FF1F5A
:104CE800E7806060B240014541018280011122CC19
:104CF80026CA939625002A84B284AA8501462545AA
:104D080006CE36C697B0FF1FE780E05DB24626861E
:104D1800A285294597B0FF1FE780E05CF240624416
:104D2800D244014505618280011122CC06CE371498
:104D3800004026CA4AC84EC652C483447405034A72
:104D4800B4058349840503499405EFF0EF8283474E
:104D5800A40593F4F40F137AFA0F93E71700230DC1
:104D6800F40493F9F90F1379F90FB717004003C743
:104D7800A705058B6DFF03D5C705A38D4705238CB4
:104D88003705A38C2705A38B9704F2406244D244CD
:104D98004249B249224A05618280411122C406C6AD
:104DA8002E849397556063DF070097C0FF1FE78045
:104DB80020C919C1EF0090471315F468B240224486
:104DC8004101828093F7150013C51500E5FB89673B
:104DD800ED8F85C3EF70011CCD3D37F60200130639
:104DE80006E0896503C5C18FEF00306B1315D468E1
:104DF800F1B711656D8D79D117F501001305C578E7
:104E0800EFE0815213060064916503C5C18FEF007E
:104E1800D0681315E4685DB71D71494697F5010020
:104E28009385C576170502001305850686CEA2CCA4
:104E380097C0FF1FE78060DB01E917F50100130544
:104E48002576EFE0614E01A037F700E02324070044
:104E5800F9571CCB0564B7E700E023A08710BD46CF
:104E680014C323A087180100010017D7FF1F1307D9
:104E780027FD23ACE18E130700F8A38AE740130649
:104E8800C0038145480897C0FF1FE780E0CA97071D
:104E98000020938727E83ECA896793870780FC84A8
:104EA800A167938707E03ECEB707010593870710F0
:104EB8003ED0ED472312F10285472303F1029707FD
:104EC8000000938727E1BEC497070000938747E255
:104ED800BEC6930754D12314F102970700009387A5
:104EE800A7B33EDAB7F5070097070000938707E4F2
:104EF8003EDE814697070000938767DD7000E10575
:104F08001945BEC097B0FF1FE780E03D19466C0009
:104F18001305E102EFE0FFE3D24781C7BC8463F3E6
:104F2800870001A04808EF10802EAA8501C917F54F
:104F3800010013052568EFE0412B01A0F640664407
:104F480025618280411117050000130545E506C655
:104F580022C4EF1020291384C18F08A0112808202B
:104F68002244B24013060032896541016F00F052B5
:104F7800397106DE13078008F337078093F787082F
:104F88003EC201000100B717004093057005238059
:104F9800B704130680FA2380C7040100010083C602
:104FA800F70293F6A60FA387D70223800704924639
:104FB800F3A606800100010073370780137787087E
:104FC8003AC4010001002380B7042380C70401000C
:104FD800010003C7F70213672700A387E7022380AE
:104FE8000704A247F3A70780010001000545EFE089
:104FF800FFE0E139814701478146054685451305AC
:10500800407EEFE09FE4680013064002814597C0A8
:10501800FF1FE78060B2B707C0A83ECAB787E8039A
:10502800938707D03ECC97C7FF1F9387478E3EC60E
:10503800680097C7FF1F9387078F3EC8EF10004A85
:10504800F25021618280797122D406D626D24AD0C4
:105058004ECE52CC9C2513F4070259E483C80500B0
:105068000948AE8463990807DC41AA89328903C8D4
:1050780007009C33368AA207B3E707010D681308B7
:105088002890639707038547EF6020352A8415E148
:1050980003A7C19011CF83471900834609004C002C
:1050A800A207D58FB337F00085073EC24E85029719
:1050B8000144BA2497F7FF1F83D7A7DF631DF700C2
:1050C80083A7C19089CB0D473AC2231641014AC430
:1050D8004C004E858297B250228522549254025930
:1050E800F249624A456182802144F5B7C167F917E0
:1050F800630CF502411122C406C685472A84639AC7
:10510800F50022852244B240938581B141016F7038
:10511800F04C89476396F5008545EF90304175D18D
:10512800B2402244410182808280411117F501007A
:105138001305454A22C426C24AC02E84368906C6AB
:10514800B284EFE0611E142089476395F6025C4043
:1051580098239C33A207D98F0D6713072790639B69
:10516800E7004C4409462310D900268597C0FF1F45
:10517800E7800096B2402244924402490145410129
:105188008280411126C2AA844165938581B17D152B
:1051980006C622C4EF70904417050000130545F5B4
:1051A800EF90F02F97F6FF1F938646CA4146994520
:1051B80017F5FF1F130545CAEF7050382A8419C523
:1051C80017F501001305C541EFE00116B24022852D
:1051D800224423A6919092444101828041119385F3
:1051E80081B106C6EF60601AB2407D15133515000F
:1051F80041018280411122C42E84938581B126C247
:1052080006C6AA84EF606018058919CD97F7FF1FB5
:1052180083D727C71EA0A2852244B2402685924480
:10522800014641016F60B05BB24022449244494557
:10523800410182803E211A213385E7403345050824
:105248008280AA8711CE1307F6FFB376C7000545FB
:1052580089EA23A00700CCC392A7BAA70145828098
:1052680005458280232005008280AA871145B1CB9D
:1052780029CA96239A270D453697B623158F3347A3
:10528800070821C399E101458280162233D7E60A2F
:10529800814633C506086364E5001AA2EDB7338575
:1052A800D5008348050003D82700AA278506337848
:1052B800A800C843429523001501AA230505AAA3FF
:1052C800C9BF8280AA8731C116213A25369736216F
:1052D80005070D45158F334707083356C70A1DC7FD
:1052E80001476314C70001458280AA23B62703C873
:1052F80005000507758DD44333470708AA96238010
:105308000601B6238506B6A3E9BF11458280AA87A0
:105318001145A1C739C29623BA230945158F16220C
:1053280033470708B3D6E60A0DCB01476365D700B4
:1053380016A20145828003D80700AA273378A8005F
:10534800C8434295034805003385E5000507230057
:1053580005018A2305058AA3D1BF82800DC93E2194
:105368001A21998FB3C7070833D6C70A814763E460
:10537800C7000145828016213A258507F98E5841D4
:105388003697182398A11A2105071AA1CDB71145F8
:1053980082802A86B305B04017F50100130545261B
:1053A8006FD0B16413874192AE870E23639CA5002A
:1053B80052A317F50100130525263E863EA376A3C2
:1053C8006FD0B16217F50100130585266FD0D1752E
:1053D8001387419256211E236395F6020111C16776
:1053E80006CEF9171CC323A4019285471306F100C2
:1053F800854513055030DC87EFB0417CF2400561EC
:10540800828017F501001305A5246FD0F1713D893D
:105418007D15954763E4A71017F701001307472F79
:105428003345E5201C41411122C4BA9706C62E8493
:10543800828717F50100130525222244B240410155
:105448006FD0916EB82199476314F7002E854937BC
:1054580017F5010013054521CDB7B8219547631B02
:10546800F70A93874192962341677917AA25638F94
:10547800E600EFB0111D17F501001305E51FEFD089
:10548800B16A17F501001305A52145BFFA2509667C
:105498008AA3BAA39A291306069003C54182DAA300
:1054A800BA29A145FAA3EF00407F72242E2417F5EC
:1054B80001001305A51DEFD05153E1B717F5010001
:1054C8001305C51E9DBFAC2191476397F50017F5DD
:1054D80001001305251F95B79947639EF50022859E
:1054E800C53D6C2017F501001305851F2244B24005
:1054F80041016FD0914F95476399F5001C30E1FB4E
:1055080017F501001305851F0DBF17F501001305D9
:10551800651FE9BFB24022444101828082800111A7
:1055280022CC06CE26CA4AC84EC652C456C22E84BB
:105538009397556063D5070203C5418297B0FF1F53
:10554800E780005011C1DD211315F468F240624470
:10555800D2444249B249224A924A0561828093F76D
:10556800150091CF17F6FF1F13060695938581B294
:1055780003C54182EFB0613B13451400C1BF93F7E7
:10558800850099CF83C7418213074006814651465B
:10559800A14503D54192EFB0C132134584007DB7D0
:1055A80013F5050145D5938401829C40054A638D16
:1055B8004703F9176369FA04938A419203D50A00ED
:1055C80003D681911389019101478146ED45231145
:1055D800C900EF50D0142322A90093894182631E89
:1055E800051089479CC0A9A29389419203D5090057
:1055F800F53603D7090019E9C167F9176315F700EC
:10560800138541B385311345040189B73A85EF10F5
:10561800806A1389819175152310A900138541B3F8
:10562800113983570900636AF508138541B31931A5
:10563800AA8517F501001305250FEFD0113B4A86FF
:105648009385C154138541B3D9311375F50F23A63A
:10565800019255F90356090003D5090013890191F0
:1056680001478146ED452311C900EF50500B232215
:10567800A900138A41823DCD035629009385C15460
:1056880097B0FF1FE780C04403D50900CA850146CB
:105698009536AA8539C917F501001305E50AEFD033
:1056A800D1348D47ED454A859CC0EF50F01E034527
:1056B8000A000946C145D523B9B7138AC192032701
:1056C8000A00A947E3EDE7F61146C14503C5418243
:1056D800E92383270A0017F501001305E505850767
:1056E8002320FA00EFD0514439BF85479CC0239C42
:1056F800019075BF89479CC05DBF035629009385FB
:10570800C15497B0FF1FE780A03C03D50A00CA85A3
:105718000146CD34AA8515C117F501001305850387
:10572800EFD0B12C8D47ED454A859CC0EF50D0167F
:1057380003C509000946C145BDBF23A04401239CF8
:105748000190FDB70111680006CEEFF0AFA983C73D
:10575800119381CB0946C14503C541823D2BA388DE
:1057680001923245EFF0CFA9B745004003C7B5C055
:105778009D4763EDE70083C7B5C02146938585C083
:105788001D8E138501B433460608C93EF2400561F3
:1057980082804111130600209385C134138501B41A
:1057A80006C622C4793C1316B02897F5FF1F9385C7
:1057B80025B5138541B37134371400401304840BA5
:1057C800930700021CC08D4513050002EFF06F908F
:1057D800C1471CC085454145EFF0AF8FEFF06FB171
:1057E80095450545EFF00FB4B2402244B7E700E015
:1057F800114723A2E7104101828001116C8713062B
:10580800E100AA85138501B406CE8534F24005610E
:1058180082809C410947638FE7000D476382E70256
:105828000547639FE704AA8517F50100130545F3AB
:105838006FD0B11BAA8517F501001305A5F4CDBFDC
:10584800011122CC2E848E2517F501001305C5F50C
:1058580006CEEFD091191E244C401306E1001385A3
:1058680041B37C87EFF07FA00946C14503C541825B
:105878002D210E2448405137F24062440561828050
:1058880082800111170500001305A5C906CE22CC98
:1058980026CAEF003015938441829947054488A0B1
:1058A8007C85130691009307803E8545130550308B
:1058B8007C86C084EFB0813017E6FF1F13060662AE
:1058C800E54513057030EFB0612F138681819D4542
:1058D80013056030EFB0812E1306A100894513052A
:1058E8001031EFB0A12D7000894513052031EFB0BC
:1058F800E12C9305000A0D45EF20607A9305000A14
:105908001145EF20C0797000914513057040C083A0
:105918004084C08402C623050100EFA0211C1306A1
:105928007100854513050040EFA0411B30008545F7
:1059380013051040EFA0811A1306A1008545130531
:105948002040EFA0A119130691008545130550408A
:10595800EFA0C11813053003EF40507C1305300346
:10596800EF70A044EFF0EFB4170500001305A5EAA7
:10597800EFF03F81D54517E6FF1F1306A6540145F2
:10598800EF40B05CC16713874192F9171385C19145
:105998001CC323220700EF80117262448820F24062
:1059A800D2448545056117D3FF1F67006314411171
:1059B800114506C6EFE08FBF1305503497B0FF1F9F
:1059C800E78080CAB7170040116723ACE70AC145D2
:1059D8000545EFE03FF885452165EFE09FEF8D45F0
:1059E8001165EFE01FEFEFF02F8B17F5010013059E
:1059F800254AEFD07113EFF02FC2EFF0AFD4EFB01C
:105A0800A1464135793397B0FF1FE780A0FA1841C6
:105A180083A785FF6319B7001CC1FD5723AC05FE9A
:105A2800238FF5FE8280232CF6FEC5BF411122C4C8
:105A380037E400E026C204403707200006C6F98C88
:105A48002320E4180F10000009E9232094101545BD
:105A5800B24022449244410182800347E5FF930704
:105A6800F00F6306F700232094101145D5B797D09F
:105A7800FF1FE780A0A4014523209410D1BF411146
:105A88004AC037E900E022C403240900B707200010
:105A980006C626C27D8C2320F9180F10000089E560
:105AA80023208910154515A0AA849717002083C7BD
:105AB80077A62E8563F5F400894763EE9700BD3716
:105AC800B7E700E023A087100D45B2402244924476
